{
  "_format": "hh-sol-artifact-1",
  "contractName": "INRCoin",
  "sourceName": "contracts/INRC.sol",
  "abi": [
    {
      "inputs": [],
      "stateMutability": "nonpayable",
      "type": "constructor"
    },
    {
      "anonymous": false,
      "inputs": [
        {
          "indexed": false,
          "internalType": "address",
          "name": "previousAdmin",
          "type": "address"
        },
        {
          "indexed": false,
          "internalType": "address",
          "name": "newAdmin",
          "type": "address"
        }
      ],
      "name": "AdminChanged",
      "type": "event"
    },
    {
      "anonymous": false,
      "inputs": [
        {
          "indexed": true,
          "internalType": "address",
          "name": "owner",
          "type": "address"
        },
        {
          "indexed": true,
          "internalType": "address",
          "name": "spender",
          "type": "address"
        },
        {
          "indexed": false,
          "internalType": "uint256",
          "name": "value",
          "type": "uint256"
        }
      ],
      "name": "Approval",
      "type": "event"
    },
    {
      "anonymous": false,
      "inputs": [
        {
          "indexed": true,
          "internalType": "address",
          "name": "beacon",
          "type": "address"
        }
      ],
      "name": "BeaconUpgraded",
      "type": "event"
    },
    {
      "anonymous": false,
      "inputs": [
        {
          "indexed": false,
          "internalType": "uint8",
          "name": "version",
          "type": "uint8"
        }
      ],
      "name": "Initialized",
      "type": "event"
    },
    {
      "anonymous": false,
      "inputs": [
        {
          "indexed": false,
          "internalType": "uint256",
          "name": "amount",
          "type": "uint256"
        },
        {
          "indexed": false,
          "internalType": "address",
          "name": "MintedTo",
          "type": "address"
        }
      ],
      "name": "Issue",
      "type": "event"
    },
    {
      "anonymous": false,
      "inputs": [
        {
          "indexed": true,
          "internalType": "address",
          "name": "previousOwner",
          "type": "address"
        },
        {
          "indexed": true,
          "internalType": "address",
          "name": "newOwner",
          "type": "address"
        }
      ],
      "name": "OwnershipTransferred",
      "type": "event"
    },
    {
      "anonymous": false,
      "inputs": [
        {
          "indexed": false,
          "internalType": "address",
          "name": "account",
          "type": "address"
        }
      ],
      "name": "Paused",
      "type": "event"
    },
    {
      "anonymous": false,
      "inputs": [
        {
          "indexed": false,
          "internalType": "uint256",
          "name": "amount",
          "type": "uint256"
        },
        {
          "indexed": false,
          "internalType": "address",
          "name": "redeemer",
          "type": "address"
        }
      ],
      "name": "Redeem",
      "type": "event"
    },
    {
      "anonymous": false,
      "inputs": [
        {
          "indexed": true,
          "internalType": "address",
          "name": "from",
          "type": "address"
        },
        {
          "indexed": true,
          "internalType": "address",
          "name": "to",
          "type": "address"
        },
        {
          "indexed": false,
          "internalType": "uint256",
          "name": "value",
          "type": "uint256"
        }
      ],
      "name": "Transfer",
      "type": "event"
    },
    {
      "anonymous": false,
      "inputs": [
        {
          "indexed": false,
          "internalType": "address",
          "name": "account",
          "type": "address"
        }
      ],
      "name": "Unpaused",
      "type": "event"
    },
    {
      "anonymous": false,
      "inputs": [
        {
          "indexed": true,
          "internalType": "address",
          "name": "implementation",
          "type": "address"
        }
      ],
      "name": "Upgraded",
      "type": "event"
    },
    {
      "inputs": [
        {
          "internalType": "uint256",
          "name": "",
          "type": "uint256"
        }
      ],
      "name": "BurnWhitelist",
      "outputs": [
        {
          "internalType": "address",
          "name": "",
          "type": "address"
        }
      ],
      "stateMutability": "view",
      "type": "function"
    },
    {
      "inputs": [
        {
          "internalType": "address",
          "name": "owner",
          "type": "address"
        },
        {
          "internalType": "address",
          "name": "spender",
          "type": "address"
        }
      ],
      "name": "allowance",
      "outputs": [
        {
          "internalType": "uint256",
          "name": "",
          "type": "uint256"
        }
      ],
      "stateMutability": "view",
      "type": "function"
    },
    {
      "inputs": [
        {
          "internalType": "address",
          "name": "spender",
          "type": "address"
        },
        {
          "internalType": "uint256",
          "name": "amount",
          "type": "uint256"
        }
      ],
      "name": "approve",
      "outputs": [
        {
          "internalType": "bool",
          "name": "",
          "type": "bool"
        }
      ],
      "stateMutability": "nonpayable",
      "type": "function"
    },
    {
      "inputs": [
        {
          "internalType": "address",
          "name": "account",
          "type": "address"
        }
      ],
      "name": "balanceOf",
      "outputs": [
        {
          "internalType": "uint256",
          "name": "",
          "type": "uint256"
        }
      ],
      "stateMutability": "view",
      "type": "function"
    },
    {
      "inputs": [],
      "name": "decimals",
      "outputs": [
        {
          "internalType": "uint8",
          "name": "",
          "type": "uint8"
        }
      ],
      "stateMutability": "view",
      "type": "function"
    },
    {
      "inputs": [
        {
          "internalType": "address",
          "name": "spender",
          "type": "address"
        },
        {
          "internalType": "uint256",
          "name": "subtractedValue",
          "type": "uint256"
        }
      ],
      "name": "decreaseAllowance",
      "outputs": [
        {
          "internalType": "bool",
          "name": "",
          "type": "bool"
        }
      ],
      "stateMutability": "nonpayable",
      "type": "function"
    },
    {
      "inputs": [],
      "name": "epochover",
      "outputs": [
        {
          "internalType": "bool",
          "name": "",
          "type": "bool"
        }
      ],
      "stateMutability": "view",
      "type": "function"
    },
    {
      "inputs": [
        {
          "internalType": "address",
          "name": "spender",
          "type": "address"
        },
        {
          "internalType": "uint256",
          "name": "addedValue",
          "type": "uint256"
        }
      ],
      "name": "increaseAllowance",
      "outputs": [
        {
          "internalType": "bool",
          "name": "",
          "type": "bool"
        }
      ],
      "stateMutability": "nonpayable",
      "type": "function"
    },
    {
      "inputs": [],
      "name": "initialize",
      "outputs": [],
      "stateMutability": "nonpayable",
      "type": "function"
    },
    {
      "inputs": [
        {
          "internalType": "address",
          "name": "to",
          "type": "address"
        },
        {
          "internalType": "uint256",
          "name": "amount",
          "type": "uint256"
        }
      ],
      "name": "issue",
      "outputs": [],
      "stateMutability": "nonpayable",
      "type": "function"
    },
    {
      "inputs": [],
      "name": "name",
      "outputs": [
        {
          "internalType": "string",
          "name": "",
          "type": "string"
        }
      ],
      "stateMutability": "view",
      "type": "function"
    },
    {
      "inputs": [],
      "name": "owner",
      "outputs": [
        {
          "internalType": "address",
          "name": "",
          "type": "address"
        }
      ],
      "stateMutability": "view",
      "type": "function"
    },
    {
      "inputs": [],
      "name": "pause",
      "outputs": [],
      "stateMutability": "nonpayable",
      "type": "function"
    },
    {
      "inputs": [],
      "name": "paused",
      "outputs": [
        {
          "internalType": "bool",
          "name": "",
          "type": "bool"
        }
      ],
      "stateMutability": "view",
      "type": "function"
    },
    {
      "inputs": [],
      "name": "proxiableUUID",
      "outputs": [
        {
          "internalType": "bytes32",
          "name": "",
          "type": "bytes32"
        }
      ],
      "stateMutability": "view",
      "type": "function"
    },
    {
      "inputs": [
        {
          "internalType": "uint256",
          "name": "amount",
          "type": "uint256"
        },
        {
          "internalType": "uint256",
          "name": "_id",
          "type": "uint256"
        }
      ],
      "name": "redeem",
      "outputs": [],
      "stateMutability": "nonpayable",
      "type": "function"
    },
    {
      "inputs": [],
      "name": "renounceOwnership",
      "outputs": [],
      "stateMutability": "nonpayable",
      "type": "function"
    },
    {
      "inputs": [
        {
          "internalType": "uint256",
          "name": "_index",
          "type": "uint256"
        },
        {
          "internalType": "address",
          "name": "_burner",
          "type": "address"
        }
      ],
      "name": "setBurnwhitelist",
      "outputs": [],
      "stateMutability": "nonpayable",
      "type": "function"
    },
    {
      "inputs": [
        {
          "internalType": "bool",
          "name": "_over",
          "type": "bool"
        }
      ],
      "name": "setEpoch",
      "outputs": [],
      "stateMutability": "nonpayable",
      "type": "function"
    },
    {
      "inputs": [],
      "name": "symbol",
      "outputs": [
        {
          "internalType": "string",
          "name": "",
          "type": "string"
        }
      ],
      "stateMutability": "view",
      "type": "function"
    },
    {
      "inputs": [],
      "name": "totalSupply",
      "outputs": [
        {
          "internalType": "uint256",
          "name": "",
          "type": "uint256"
        }
      ],
      "stateMutability": "view",
      "type": "function"
    },
    {
      "inputs": [
        {
          "internalType": "address",
          "name": "to",
          "type": "address"
        },
        {
          "internalType": "uint256",
          "name": "amount",
          "type": "uint256"
        }
      ],
      "name": "transfer",
      "outputs": [
        {
          "internalType": "bool",
          "name": "",
          "type": "bool"
        }
      ],
      "stateMutability": "nonpayable",
      "type": "function"
    },
    {
      "inputs": [
        {
          "internalType": "address",
          "name": "from",
          "type": "address"
        },
        {
          "internalType": "address",
          "name": "to",
          "type": "address"
        },
        {
          "internalType": "uint256",
          "name": "amount",
          "type": "uint256"
        }
      ],
      "name": "transferFrom",
      "outputs": [
        {
          "internalType": "bool",
          "name": "",
          "type": "bool"
        }
      ],
      "stateMutability": "nonpayable",
      "type": "function"
    },
    {
      "inputs": [
        {
          "internalType": "address",
          "name": "newOwner",
          "type": "address"
        }
      ],
      "name": "transferOwnership",
      "outputs": [],
      "stateMutability": "nonpayable",
      "type": "function"
    },
    {
      "inputs": [],
      "name": "unpause",
      "outputs": [],
      "stateMutability": "nonpayable",
      "type": "function"
    },
    {
      "inputs": [
        {
          "internalType": "address",
          "name": "newImplementation",
          "type": "address"
        }
      ],
      "name": "upgradeTo",
      "outputs": [],
      "stateMutability": "nonpayable",
      "type": "function"
    },
    {
      "inputs": [
        {
          "internalType": "address",
          "name": "newImplementation",
          "type": "address"
        },
        {
          "internalType": "bytes",
          "name": "data",
          "type": "bytes"
        }
      ],
      "name": "upgradeToAndCall",
      "outputs": [],
      "stateMutability": "payable",
      "type": "function"
    }
  ],
  "bytecode": "0x60a06040523073ffffffffffffffffffffffffffffffffffffffff1660809073ffffffffffffffffffffffffffffffffffffffff168152503480156200004457600080fd5b506200006167d27e75055dd332dc60c01b620000af60201b60201c565b6200007d67dba2fc342014f97d60c01b620000af60201b60201c565b6200009967fd94bcc9e6986b5060c01b620000af60201b60201c565b620000a9620000b260201b60201c565b6200025d565b50565b600060019054906101000a900460ff161562000105576040517f08c379a0000000000000000000000000000000000000000000000000000000008152600401620000fc9062000200565b60405180910390fd5b60ff801660008054906101000a900460ff1660ff161015620001775760ff6000806101000a81548160ff021916908360ff1602179055507f7f26b83ff96e1f2b6a682f133852f6798a09c465da95921460cefb384740249860ff6040516200016e919062000240565b60405180910390a15b565b600082825260208201905092915050565b7f496e697469616c697a61626c653a20636f6e747261637420697320696e69746960008201527f616c697a696e6700000000000000000000000000000000000000000000000000602082015250565b6000620001e860278362000179565b9150620001f5826200018a565b604082019050919050565b600060208201905081810360008301526200021b81620001d9565b9050919050565b600060ff82169050919050565b6200023a8162000222565b82525050565b60006020820190506200025760008301846200022f565b92915050565b6080516142d762000295600039600081816108970152818161092501528181610b7201528181610c000152610cb001526142d76000f3fe60806040526004361061019c5760003560e01c80635c975abb116100ec5780638da5cb5b1161008a578063a9059cbb11610064578063a9059cbb14610581578063b2ffd653146105be578063dd62ed3e146105e9578063f2fde38b146106265761019c565b80638da5cb5b146104ee57806395d89b4114610519578063a457c2d7146105445761019c565b80637cbc2373116100c65780637cbc23731461046e5780638129fc1c146104975780638456cb59146104ae578063867904b4146104c55761019c565b80635c975abb146103ef57806370a082311461041a578063715018a6146104575761019c565b8063313ce567116101595780633a15c9cc116101335780633a15c9cc146103685780633f4ba83a146103915780634f1ef286146103a857806352d1902d146103c45761019c565b8063313ce567146102d75780633659cfe614610302578063395093511461032b5761019c565b806306fdde03146101a1578063095ea7b3146101cc5780631341adf41461020957806318160ddd1461023257806323b872dd1461025d578063275f86841461029a575b600080fd5b3480156101ad57600080fd5b506101b661064f565b6040516101c39190612ad5565b60405180910390f35b3480156101d857600080fd5b506101f360048036038101906101ee9190612b9f565b6106e1565b6040516102009190612bfa565b60405180910390f35b34801561021557600080fd5b50610230600480360381019061022b9190612c15565b610704565b005b34801561023e57600080fd5b506102476107e3565b6040516102549190612c64565b60405180910390f35b34801561026957600080fd5b50610284600480360381019061027f9190612c7f565b6107ed565b6040516102919190612bfa565b60405180910390f35b3480156102a657600080fd5b506102c160048036038101906102bc9190612cd2565b61081c565b6040516102ce9190612d0e565b60405180910390f35b3480156102e357600080fd5b506102ec610850565b6040516102f99190612d45565b60405180910390f35b34801561030e57600080fd5b5061032960048036038101906103249190612d60565b610895565b005b34801561033757600080fd5b50610352600480360381019061034d9190612b9f565b610a1d565b60405161035f9190612bfa565b60405180910390f35b34801561037457600080fd5b5061038f600480360381019061038a9190612db9565b610a54565b005b34801561039d57600080fd5b506103a6610afa565b005b6103c260048036038101906103bd9190612f1b565b610b70565b005b3480156103d057600080fd5b506103d9610cac565b6040516103e69190612f90565b60405180910390f35b3480156103fb57600080fd5b50610404610d65565b6040516104119190612bfa565b60405180910390f35b34801561042657600080fd5b50610441600480360381019061043c9190612d60565b610d7c565b60405161044e9190612c64565b60405180910390f35b34801561046357600080fd5b5061046c610dc5565b005b34801561047a57600080fd5b5061049560048036038101906104909190612fab565b610dd9565b005b3480156104a357600080fd5b506104ac6110b0565b005b3480156104ba57600080fd5b506104c361134e565b005b3480156104d157600080fd5b506104ec60048036038101906104e79190612b9f565b6113c4565b005b3480156104fa57600080fd5b50610503611532565b6040516105109190612d0e565b60405180910390f35b34801561052557600080fd5b5061052e61155c565b60405161053b9190612ad5565b60405180910390f35b34801561055057600080fd5b5061056b60048036038101906105669190612b9f565b6115ee565b6040516105789190612bfa565b60405180910390f35b34801561058d57600080fd5b506105a860048036038101906105a39190612b9f565b611665565b6040516105b59190612bfa565b60405180910390f35b3480156105ca57600080fd5b506105d3611688565b6040516105e09190612bfa565b60405180910390f35b3480156105f557600080fd5b50610610600480360381019061060b9190612feb565b61169c565b60405161061d9190612c64565b60405180910390f35b34801561063257600080fd5b5061064d60048036038101906106489190612d60565b611723565b005b60606036805461065e9061305a565b80601f016020809104026020016040519081016040528092919081815260200182805461068a9061305a565b80156106d75780601f106106ac576101008083540402835291602001916106d7565b820191906000526020600020905b8154815290600101906020018083116106ba57829003601f168201915b5050505050905090565b6000806106ec6117a6565b90506106f98185856117ae565b600191505092915050565b61071867e89626d9acf400f960c01b611977565b61072061197a565b61073467afc5ea262dd3ee7b60c01b611977565b610748678ed8b982acc38fe060c01b611977565b6107506119f8565b61076467d4b1dee75f5d2e8c60c01b611977565b610778679e72d2bf7a91f9b760c01b611977565b61078c67af8201942bf1ef3c60c01b611977565b8061012d600084815260200190815260200160002060006101000a81548173ffffffffffffffffffffffffffffffffffffffff021916908373ffffffffffffffffffffffffffffffffffffffff1602179055505050565b6000603554905090565b6000806107f86117a6565b9050610805858285611a42565b610810858585611ace565b60019150509392505050565b61012d6020528060005260406000206000915054906101000a900473ffffffffffffffffffffffffffffffffffffffff1681565b600061086667f37c286b3e8df7da60c01b611977565b61087a67820937b19f85f32760c01b611977565b61088e67eef1999256fc71b860c01b611977565b6002905090565b7f000000000000000000000000000000000000000000000000000000000000000073ffffffffffffffffffffffffffffffffffffffff163073ffffffffffffffffffffffffffffffffffffffff1603610923576040517f08c379a000000000000000000000000000000000000000000000000000000000815260040161091a906130fd565b60405180910390fd5b7f000000000000000000000000000000000000000000000000000000000000000073ffffffffffffffffffffffffffffffffffffffff16610962611d50565b73ffffffffffffffffffffffffffffffffffffffff16146109b8576040517f08c379a00000000000000000000000000000000000000000000000000000000081526004016109af9061318f565b60405180910390fd5b6109c181611da7565b610a1a81600067ffffffffffffffff8111156109e0576109df612df0565b5b6040519080825280601f01601f191660200182016040528015610a125781602001600182028036833780820191505090505b506000611dee565b50565b600080610a286117a6565b9050610a49818585610a3a858961169c565b610a4491906131de565b6117ae565b600191505092915050565b610a686764667b781302b37360c01b611977565b610a7061197a565b610a8467379d590be455c02760c01b611977565b610a986798f945d78c1946ea60c01b611977565b610aa06119f8565b610ab467e4437423219afc6660c01b611977565b610ac867fb2ecd280fd15bee60c01b611977565b610adc676caff1f6245e6e2f60c01b611977565b8061012e60006101000a81548160ff02191690831515021790555050565b610b0e670c2e11e5336e77de60c01b611977565b610b1661197a565b610b2a67612a09c639dfb53c60c01b611977565b610b3e67604c1b45a40ea31a60c01b611977565b610b5267303d5ec0b100b1e660c01b611977565b610b66672a16b805be68e6ea60c01b611977565b610b6e611f5c565b565b7f000000000000000000000000000000000000000000000000000000000000000073ffffffffffffffffffffffffffffffffffffffff163073ffffffffffffffffffffffffffffffffffffffff1603610bfe576040517f08c379a0000000000000000000000000000000000000000000000000000000008152600401610bf5906130fd565b60405180910390fd5b7f000000000000000000000000000000000000000000000000000000000000000073ffffffffffffffffffffffffffffffffffffffff16610c3d611d50565b73ffffffffffffffffffffffffffffffffffffffff1614610c93576040517f08c379a0000000000000000000000000000000000000000000000000000000008152600401610c8a9061318f565b60405180910390fd5b610c9c82611da7565b610ca882826001611dee565b5050565b60007f000000000000000000000000000000000000000000000000000000000000000073ffffffffffffffffffffffffffffffffffffffff163073ffffffffffffffffffffffffffffffffffffffff1614610d3c576040517f08c379a0000000000000000000000000000000000000000000000000000000008152600401610d3390613284565b60405180910390fd5b7f360894a13ba1a3210667c828492db98dca3e2076cc3735a920a3ca505d382bbc60001b905090565b6000606560009054906101000a900460ff16905090565b6000603360008373ffffffffffffffffffffffffffffffffffffffff1673ffffffffffffffffffffffffffffffffffffffff168152602001908152602001600020549050919050565b610dcd61197a565b610dd76000611fbf565b565b610ded676abe943171f53ec560c01b611977565b610e0167afc301cc60e1cc9660c01b611977565b610e1567217d5d14a58e249460c01b611977565b610e2967302480d7674ba98660c01b611977565b60008211610e6c576040517f08c379a0000000000000000000000000000000000000000000000000000000008152600401610e63906132f0565b60405180910390fd5b610e8067183b1fbec70fe33a60c01b611977565b610e9467df532abe3d97557360c01b611977565b610ea8677f62b67bc9fe0de060c01b611977565b610ebc673af747b6c383d37860c01b611977565b61012e60009054906101000a900460ff16610f0c576040517f08c379a0000000000000000000000000000000000000000000000000000000008152600401610f039061335c565b60405180910390fd5b610f2067151e7464603dd2df60c01b611977565b610f3467f7600ec7779de92c60c01b611977565b610f48678ca7588ba92077d660c01b611977565b610f5c6736ca5d0a1f68891760c01b611977565b61012d600082815260200190815260200160002060009054906101000a900473ffffffffffffffffffffffffffffffffffffffff1673ffffffffffffffffffffffffffffffffffffffff163373ffffffffffffffffffffffffffffffffffffffff1614610ffe576040517f08c379a0000000000000000000000000000000000000000000000000000000008152600401610ff5906133c8565b60405180910390fd5b611012670b6e03794e82650860c01b611977565b61102667dc6bbb5bbc173d5460c01b611977565b61103a6710b2c4ef47c06e4560c01b611977565b61104b6110456117a6565b83612085565b61105f67dd44bb520fb77a4460c01b611977565b61107367db85e8d939156bcb60c01b611977565b7fa03c990ba6466f1dc61a4d2e15fd72bafaf2244fa2421b01ceaba3ff09e8e63082336040516110a49291906133e8565b60405180910390a15050565b6110c467050a8ce30ea2e35360c01b611977565b60008060019054906101000a900460ff161590508080156110f55750600160008054906101000a900460ff1660ff16105b8061112257506111043061225d565b1580156111215750600160008054906101000a900460ff1660ff16145b5b611161576040517f08c379a000000000000000000000000000000000000000000000000000000000815260040161115890613483565b60405180910390fd5b60016000806101000a81548160ff021916908360ff160217905550801561119e576001600060016101000a81548160ff0219169083151502179055505b6111b267ed8e40cd916adb2760c01b611977565b6111c66763a7073e70a2189460c01b611977565b6111da67166c7f65d5697aea60c01b611977565b6111ee67cd7d222500c85ca460c01b611977565b6112626040518060400160405280600881526020017f494e5220436f696e0000000000000000000000000000000000000000000000008152506040518060400160405280600481526020017f494e524300000000000000000000000000000000000000000000000000000000815250612280565b611276677bfc139a88f024a060c01b611977565b61128a6793d52556e7d34ab160c01b611977565b6112926122dd565b6112a667c2a43c4c8922078560c01b611977565b6112ba678837b16ca12cd88860c01b611977565b6112c2612336565b6112d66747be17886fc716df60c01b611977565b6112ea67cd2c08478c49fd4860c01b611977565b6112f261238f565b801561134b5760008060016101000a81548160ff0219169083151502179055507f7f26b83ff96e1f2b6a682f133852f6798a09c465da95921460cefb3847402498600160405161134291906134e8565b60405180910390a15b50565b61136267e4d7dfdd9f338a5c60c01b611977565b61136a61197a565b61137e67795ab79ebb79002d60c01b611977565b6113926723019698aaf8b3b560c01b611977565b6113a667f22dff987832ad4660c01b611977565b6113ba6709376319a748c90460c01b611977565b6113c26123e0565b565b6113d867946ac97b74f4060c60c01b611977565b6113e061197a565b6113f46716e420ce7b12696460c01b611977565b6114086754b5323f0622c60560c01b611977565b61141c674be8cd7b0c4752e060c01b611977565b61143067a8da28fcb4c1f53d60c01b611977565b61144467ed083268c088c8aa60c01b611977565b60008111611487576040517f08c379a000000000000000000000000000000000000000000000000000000000815260040161147e906132f0565b60405180910390fd5b61149b6764d9eb951f28256760c01b611977565b6114af671281bd8b8a8544cd60c01b611977565b6114c36755e2cb64524fc98a60c01b611977565b6114cd8282612443565b6114e167b2de2991fe78e4df60c01b611977565b6114f5671966a569be3bca3b60c01b611977565b7fc790a174b576e850809e673168b703c3f5480d1c662f57ea2c08f08a17d509c681836040516115269291906133e8565b60405180910390a15050565b6000609760009054906101000a900473ffffffffffffffffffffffffffffffffffffffff16905090565b60606037805461156b9061305a565b80601f01602080910402602001604051908101604052809291908181526020018280546115979061305a565b80156115e45780601f106115b9576101008083540402835291602001916115e4565b820191906000526020600020905b8154815290600101906020018083116115c757829003601f168201915b5050505050905090565b6000806115f96117a6565b90506000611607828661169c565b90508381101561164c576040517f08c379a000000000000000000000000000000000000000000000000000000000815260040161164390613575565b60405180910390fd5b61165982868684036117ae565b60019250505092915050565b6000806116706117a6565b905061167d818585611ace565b600191505092915050565b61012e60009054906101000a900460ff1681565b6000603460008473ffffffffffffffffffffffffffffffffffffffff1673ffffffffffffffffffffffffffffffffffffffff16815260200190815260200160002060008373ffffffffffffffffffffffffffffffffffffffff1673ffffffffffffffffffffffffffffffffffffffff16815260200190815260200160002054905092915050565b61172b61197a565b600073ffffffffffffffffffffffffffffffffffffffff168173ffffffffffffffffffffffffffffffffffffffff160361179a576040517f08c379a000000000000000000000000000000000000000000000000000000000815260040161179190613607565b60405180910390fd5b6117a381611fbf565b50565b600033905090565b600073ffffffffffffffffffffffffffffffffffffffff168373ffffffffffffffffffffffffffffffffffffffff160361181d576040517f08c379a000000000000000000000000000000000000000000000000000000000815260040161181490613699565b60405180910390fd5b600073ffffffffffffffffffffffffffffffffffffffff168273ffffffffffffffffffffffffffffffffffffffff160361188c576040517f08c379a00000000000000000000000000000000000000000000000000000000081526004016118839061372b565b60405180910390fd5b80603460008573ffffffffffffffffffffffffffffffffffffffff1673ffffffffffffffffffffffffffffffffffffffff16815260200190815260200160002060008473ffffffffffffffffffffffffffffffffffffffff1673ffffffffffffffffffffffffffffffffffffffff168152602001908152602001600020819055508173ffffffffffffffffffffffffffffffffffffffff168373ffffffffffffffffffffffffffffffffffffffff167f8c5be1e5ebec7d5bd14f71427d1e84f3dd0314c0f7b2291e5b200ac8c7c3b9258360405161196a9190612c64565b60405180910390a3505050565b50565b6119826117a6565b73ffffffffffffffffffffffffffffffffffffffff166119a0611532565b73ffffffffffffffffffffffffffffffffffffffff16146119f6576040517f08c379a00000000000000000000000000000000000000000000000000000000081526004016119ed90613797565b60405180910390fd5b565b611a00610d65565b15611a40576040517f08c379a0000000000000000000000000000000000000000000000000000000008152600401611a3790613803565b60405180910390fd5b565b6000611a4e848461169c565b90507fffffffffffffffffffffffffffffffffffffffffffffffffffffffffffffffff8114611ac85781811015611aba576040517f08c379a0000000000000000000000000000000000000000000000000000000008152600401611ab19061386f565b60405180910390fd5b611ac784848484036117ae565b5b50505050565b600073ffffffffffffffffffffffffffffffffffffffff168373ffffffffffffffffffffffffffffffffffffffff1603611b3d576040517f08c379a0000000000000000000000000000000000000000000000000000000008152600401611b3490613901565b60405180910390fd5b600073ffffffffffffffffffffffffffffffffffffffff168273ffffffffffffffffffffffffffffffffffffffff1603611bac576040517f08c379a0000000000000000000000000000000000000000000000000000000008152600401611ba390613993565b60405180910390fd5b611bb78383836125a3565b6000603360008573ffffffffffffffffffffffffffffffffffffffff1673ffffffffffffffffffffffffffffffffffffffff16815260200190815260200160002054905081811015611c3e576040517f08c379a0000000000000000000000000000000000000000000000000000000008152600401611c3590613a25565b60405180910390fd5b818103603360008673ffffffffffffffffffffffffffffffffffffffff1673ffffffffffffffffffffffffffffffffffffffff1681526020019081526020016000208190555081603360008573ffffffffffffffffffffffffffffffffffffffff1673ffffffffffffffffffffffffffffffffffffffff1681526020019081526020016000206000828254611cd391906131de565b925050819055508273ffffffffffffffffffffffffffffffffffffffff168473ffffffffffffffffffffffffffffffffffffffff167fddf252ad1be2c89b69c2b068fc378daa952ba7f163c4a11628f55a4df523b3ef84604051611d379190612c64565b60405180910390a3611d4a84848461261f565b50505050565b6000611d7e7f360894a13ba1a3210667c828492db98dca3e2076cc3735a920a3ca505d382bbc60001b612624565b60000160009054906101000a900473ffffffffffffffffffffffffffffffffffffffff16905090565b611dbb6724c77dcafc35ab5560c01b611977565b611dc361197a565b611dd7675df20a5bd4258cf760c01b611977565b611deb6742674a8530d855db60c01b611977565b50565b611e1a7f4910fdfa16fed3260ed0e7147f7cc6da11a60208b5b9406d12a635614ffd914360001b61262e565b60000160009054906101000a900460ff1615611e3e57611e3983612638565b611f57565b8273ffffffffffffffffffffffffffffffffffffffff166352d1902d6040518163ffffffff1660e01b8152600401602060405180830381865afa925050508015611ea657506040513d601f19601f82011682018060405250810190611ea39190613a71565b60015b611ee5576040517f08c379a0000000000000000000000000000000000000000000000000000000008152600401611edc90613b10565b60405180910390fd5b7f360894a13ba1a3210667c828492db98dca3e2076cc3735a920a3ca505d382bbc60001b8114611f4a576040517f08c379a0000000000000000000000000000000000000000000000000000000008152600401611f4190613ba2565b60405180910390fd5b50611f568383836126f1565b5b505050565b611f6461271d565b6000606560006101000a81548160ff0219169083151502179055507f5db9ee0a495bf2e6ff9c91a7834c1ba4fdd244a5e8aa4e537bd38aeae4b073aa611fa86117a6565b604051611fb59190612d0e565b60405180910390a1565b6000609760009054906101000a900473ffffffffffffffffffffffffffffffffffffffff16905081609760006101000a81548173ffffffffffffffffffffffffffffffffffffffff021916908373ffffffffffffffffffffffffffffffffffffffff1602179055508173ffffffffffffffffffffffffffffffffffffffff168173ffffffffffffffffffffffffffffffffffffffff167f8be0079c531659141344cd1fd0a4f28419497f9722a3daafe3b4186f6b6457e060405160405180910390a35050565b600073ffffffffffffffffffffffffffffffffffffffff168273ffffffffffffffffffffffffffffffffffffffff16036120f4576040517f08c379a00000000000000000000000000000000000000000000000000000000081526004016120eb90613c34565b60405180910390fd5b612100826000836125a3565b6000603360008473ffffffffffffffffffffffffffffffffffffffff1673ffffffffffffffffffffffffffffffffffffffff16815260200190815260200160002054905081811015612187576040517f08c379a000000000000000000000000000000000000000000000000000000000815260040161217e90613cc6565b60405180910390fd5b818103603360008573ffffffffffffffffffffffffffffffffffffffff1673ffffffffffffffffffffffffffffffffffffffff1681526020019081526020016000208190555081603560008282546121df9190613ce6565b92505081905550600073ffffffffffffffffffffffffffffffffffffffff168373ffffffffffffffffffffffffffffffffffffffff167fddf252ad1be2c89b69c2b068fc378daa952ba7f163c4a11628f55a4df523b3ef846040516122449190612c64565b60405180910390a36122588360008461261f565b505050565b6000808273ffffffffffffffffffffffffffffffffffffffff163b119050919050565b600060019054906101000a900460ff166122cf576040517f08c379a00000000000000000000000000000000000000000000000000000000081526004016122c690613d8c565b60405180910390fd5b6122d98282612766565b5050565b600060019054906101000a900460ff1661232c576040517f08c379a000000000000000000000000000000000000000000000000000000000815260040161232390613d8c565b60405180910390fd5b6123346127d9565b565b600060019054906101000a900460ff16612385576040517f08c379a000000000000000000000000000000000000000000000000000000000815260040161237c90613d8c565b60405180910390fd5b61238d61283a565b565b600060019054906101000a900460ff166123de576040517f08c379a00000000000000000000000000000000000000000000000000000000081526004016123d590613d8c565b60405180910390fd5b565b6123e86119f8565b6001606560006101000a81548160ff0219169083151502179055507f62e78cea01bee320cd4e420270b5ea74000d11b0c9f74754ebdbfc544b05a25861242c6117a6565b6040516124399190612d0e565b60405180910390a1565b600073ffffffffffffffffffffffffffffffffffffffff168273ffffffffffffffffffffffffffffffffffffffff16036124b2576040517f08c379a00000000000000000000000000000000000000000000000000000000081526004016124a990613df8565b60405180910390fd5b6124be600083836125a3565b80603560008282546124d091906131de565b9250508190555080603360008473ffffffffffffffffffffffffffffffffffffffff1673ffffffffffffffffffffffffffffffffffffffff168152602001908152602001600020600082825461252691906131de565b925050819055508173ffffffffffffffffffffffffffffffffffffffff16600073ffffffffffffffffffffffffffffffffffffffff167fddf252ad1be2c89b69c2b068fc378daa952ba7f163c4a11628f55a4df523b3ef8360405161258b9190612c64565b60405180910390a361259f6000838361261f565b5050565b6125b767097dc090f499635d60c01b611977565b6125bf6119f8565b6125d367aadcd4a13194904460c01b611977565b6125e7679b8bbb52fe0df74760c01b611977565b6125fb67286eb4016fad70fd60c01b611977565b61260f67968a0b8ea1ceee0b60c01b611977565b61261a8383836128a6565b505050565b505050565b6000819050919050565b6000819050919050565b6126418161225d565b612680576040517f08c379a000000000000000000000000000000000000000000000000000000000815260040161267790613e8a565b60405180910390fd5b806126ad7f360894a13ba1a3210667c828492db98dca3e2076cc3735a920a3ca505d382bbc60001b612624565b60000160006101000a81548173ffffffffffffffffffffffffffffffffffffffff021916908373ffffffffffffffffffffffffffffffffffffffff16021790555050565b6126fa836128ab565b6000825111806127075750805b156127185761271683836128fa565b505b505050565b612725610d65565b612764576040517f08c379a000000000000000000000000000000000000000000000000000000000815260040161275b90613ef6565b60405180910390fd5b565b600060019054906101000a900460ff166127b5576040517f08c379a00000000000000000000000000000000000000000000000000000000081526004016127ac90613d8c565b60405180910390fd5b81603690816127c491906140b8565b5080603790816127d491906140b8565b505050565b600060019054906101000a900460ff16612828576040517f08c379a000000000000000000000000000000000000000000000000000000000815260040161281f90613d8c565b60405180910390fd5b6128386128336117a6565b611fbf565b565b600060019054906101000a900460ff16612889576040517f08c379a000000000000000000000000000000000000000000000000000000000815260040161288090613d8c565b60405180910390fd5b6000606560006101000a81548160ff021916908315150217905550565b505050565b6128b481612638565b8073ffffffffffffffffffffffffffffffffffffffff167fbc7cd75a20ee27fd9adebab32041f755214dbc6bffa90cc0225b39da2e5c2d3b60405160405180910390a250565b60606129058361225d565b612944576040517f08c379a000000000000000000000000000000000000000000000000000000000815260040161293b906141fc565b60405180910390fd5b6000808473ffffffffffffffffffffffffffffffffffffffff168460405161296c9190614263565b600060405180830381855af49150503d80600081146129a7576040519150601f19603f3d011682016040523d82523d6000602084013e6129ac565b606091505b50915091506129d4828260405180606001604052806027815260200161427b602791396129de565b9250505092915050565b606083156129ee57829050612a3e565b600083511115612a015782518084602001fd5b816040517f08c379a0000000000000000000000000000000000000000000000000000000008152600401612a359190612ad5565b60405180910390fd5b9392505050565b600081519050919050565b600082825260208201905092915050565b60005b83811015612a7f578082015181840152602081019050612a64565b60008484015250505050565b6000601f19601f8301169050919050565b6000612aa782612a45565b612ab18185612a50565b9350612ac1818560208601612a61565b612aca81612a8b565b840191505092915050565b60006020820190508181036000830152612aef8184612a9c565b905092915050565b6000604051905090565b600080fd5b600080fd5b600073ffffffffffffffffffffffffffffffffffffffff82169050919050565b6000612b3682612b0b565b9050919050565b612b4681612b2b565b8114612b5157600080fd5b50565b600081359050612b6381612b3d565b92915050565b6000819050919050565b612b7c81612b69565b8114612b8757600080fd5b50565b600081359050612b9981612b73565b92915050565b60008060408385031215612bb657612bb5612b01565b5b6000612bc485828601612b54565b9250506020612bd585828601612b8a565b9150509250929050565b60008115159050919050565b612bf481612bdf565b82525050565b6000602082019050612c0f6000830184612beb565b92915050565b60008060408385031215612c2c57612c2b612b01565b5b6000612c3a85828601612b8a565b9250506020612c4b85828601612b54565b9150509250929050565b612c5e81612b69565b82525050565b6000602082019050612c796000830184612c55565b92915050565b600080600060608486031215612c9857612c97612b01565b5b6000612ca686828701612b54565b9350506020612cb786828701612b54565b9250506040612cc886828701612b8a565b9150509250925092565b600060208284031215612ce857612ce7612b01565b5b6000612cf684828501612b8a565b91505092915050565b612d0881612b2b565b82525050565b6000602082019050612d236000830184612cff565b92915050565b600060ff82169050919050565b612d3f81612d29565b82525050565b6000602082019050612d5a6000830184612d36565b92915050565b600060208284031215612d7657612d75612b01565b5b6000612d8484828501612b54565b91505092915050565b612d9681612bdf565b8114612da157600080fd5b50565b600081359050612db381612d8d565b92915050565b600060208284031215612dcf57612dce612b01565b5b6000612ddd84828501612da4565b91505092915050565b600080fd5b600080fd5b7f4e487b7100000000000000000000000000000000000000000000000000000000600052604160045260246000fd5b612e2882612a8b565b810181811067ffffffffffffffff82111715612e4757612e46612df0565b5b80604052505050565b6000612e5a612af7565b9050612e668282612e1f565b919050565b600067ffffffffffffffff821115612e8657612e85612df0565b5b612e8f82612a8b565b9050602081019050919050565b82818337600083830152505050565b6000612ebe612eb984612e6b565b612e50565b905082815260208101848484011115612eda57612ed9612deb565b5b612ee5848285612e9c565b509392505050565b600082601f830112612f0257612f01612de6565b5b8135612f12848260208601612eab565b91505092915050565b60008060408385031215612f3257612f31612b01565b5b6000612f4085828601612b54565b925050602083013567ffffffffffffffff811115612f6157612f60612b06565b5b612f6d85828601612eed565b9150509250929050565b6000819050919050565b612f8a81612f77565b82525050565b6000602082019050612fa56000830184612f81565b92915050565b60008060408385031215612fc257612fc1612b01565b5b6000612fd085828601612b8a565b9250506020612fe185828601612b8a565b9150509250929050565b6000806040838503121561300257613001612b01565b5b600061301085828601612b54565b925050602061302185828601612b54565b9150509250929050565b7f4e487b7100000000000000000000000000000000000000000000000000000000600052602260045260246000fd5b6000600282049050600182168061307257607f821691505b6020821081036130855761308461302b565b5b50919050565b7f46756e6374696f6e206d7573742062652063616c6c6564207468726f7567682060008201527f64656c656761746563616c6c0000000000000000000000000000000000000000602082015250565b60006130e7602c83612a50565b91506130f28261308b565b604082019050919050565b60006020820190508181036000830152613116816130da565b9050919050565b7f46756e6374696f6e206d7573742062652063616c6c6564207468726f7567682060008201527f6163746976652070726f78790000000000000000000000000000000000000000602082015250565b6000613179602c83612a50565b91506131848261311d565b604082019050919050565b600060208201905081810360008301526131a88161316c565b9050919050565b7f4e487b7100000000000000000000000000000000000000000000000000000000600052601160045260246000fd5b60006131e982612b69565b91506131f483612b69565b925082820190508082111561320c5761320b6131af565b5b92915050565b7f555550535570677261646561626c653a206d757374206e6f742062652063616c60008201527f6c6564207468726f7567682064656c656761746563616c6c0000000000000000602082015250565b600061326e603883612a50565b915061327982613212565b604082019050919050565b6000602082019050818103600083015261329d81613261565b9050919050565b7f416d6f756e742063616e6e6f7420626520300000000000000000000000000000600082015250565b60006132da601283612a50565b91506132e5826132a4565b602082019050919050565b60006020820190508181036000830152613309816132cd565b9050919050565b7f65706f6368206e6f74206f766572000000000000000000000000000000000000600082015250565b6000613346600e83612a50565b915061335182613310565b602082019050919050565b6000602082019050818103600083015261337581613339565b9050919050565b7f556e617574686f72697365640000000000000000000000000000000000000000600082015250565b60006133b2600c83612a50565b91506133bd8261337c565b602082019050919050565b600060208201905081810360008301526133e1816133a5565b9050919050565b60006040820190506133fd6000830185612c55565b61340a6020830184612cff565b9392505050565b7f496e697469616c697a61626c653a20636f6e747261637420697320616c72656160008201527f647920696e697469616c697a6564000000000000000000000000000000000000602082015250565b600061346d602e83612a50565b915061347882613411565b604082019050919050565b6000602082019050818103600083015261349c81613460565b9050919050565b6000819050919050565b6000819050919050565b60006134d26134cd6134c8846134a3565b6134ad565b612d29565b9050919050565b6134e2816134b7565b82525050565b60006020820190506134fd60008301846134d9565b92915050565b7f45524332303a2064656372656173656420616c6c6f77616e63652062656c6f7760008201527f207a65726f000000000000000000000000000000000000000000000000000000602082015250565b600061355f602583612a50565b915061356a82613503565b604082019050919050565b6000602082019050818103600083015261358e81613552565b9050919050565b7f4f776e61626c653a206e6577206f776e657220697320746865207a65726f206160008201527f6464726573730000000000000000000000000000000000000000000000000000602082015250565b60006135f1602683612a50565b91506135fc82613595565b604082019050919050565b60006020820190508181036000830152613620816135e4565b9050919050565b7f45524332303a20617070726f76652066726f6d20746865207a65726f2061646460008201527f7265737300000000000000000000000000000000000000000000000000000000602082015250565b6000613683602483612a50565b915061368e82613627565b604082019050919050565b600060208201905081810360008301526136b281613676565b9050919050565b7f45524332303a20617070726f766520746f20746865207a65726f20616464726560008201527f7373000000000000000000000000000000000000000000000000000000000000602082015250565b6000613715602283612a50565b9150613720826136b9565b604082019050919050565b6000602082019050818103600083015261374481613708565b9050919050565b7f4f776e61626c653a2063616c6c6572206973206e6f7420746865206f776e6572600082015250565b6000613781602083612a50565b915061378c8261374b565b602082019050919050565b600060208201905081810360008301526137b081613774565b9050919050565b7f5061757361626c653a2070617573656400000000000000000000000000000000600082015250565b60006137ed601083612a50565b91506137f8826137b7565b602082019050919050565b6000602082019050818103600083015261381c816137e0565b9050919050565b7f45524332303a20696e73756666696369656e7420616c6c6f77616e6365000000600082015250565b6000613859601d83612a50565b915061386482613823565b602082019050919050565b600060208201905081810360008301526138888161384c565b9050919050565b7f45524332303a207472616e736665722066726f6d20746865207a65726f20616460008201527f6472657373000000000000000000000000000000000000000000000000000000602082015250565b60006138eb602583612a50565b91506138f68261388f565b604082019050919050565b6000602082019050818103600083015261391a816138de565b9050919050565b7f45524332303a207472616e7366657220746f20746865207a65726f206164647260008201527f6573730000000000000000000000000000000000000000000000000000000000602082015250565b600061397d602383612a50565b915061398882613921565b604082019050919050565b600060208201905081810360008301526139ac81613970565b9050919050565b7f45524332303a207472616e7366657220616d6f756e742065786365656473206260008201527f616c616e63650000000000000000000000000000000000000000000000000000602082015250565b6000613a0f602683612a50565b9150613a1a826139b3565b604082019050919050565b60006020820190508181036000830152613a3e81613a02565b9050919050565b613a4e81612f77565b8114613a5957600080fd5b50565b600081519050613a6b81613a45565b92915050565b600060208284031215613a8757613a86612b01565b5b6000613a9584828501613a5c565b91505092915050565b7f45524331393637557067726164653a206e657720696d706c656d656e7461746960008201527f6f6e206973206e6f742055555053000000000000000000000000000000000000602082015250565b6000613afa602e83612a50565b9150613b0582613a9e565b604082019050919050565b60006020820190508181036000830152613b2981613aed565b9050919050565b7f45524331393637557067726164653a20756e737570706f727465642070726f7860008201527f6961626c65555549440000000000000000000000000000000000000000000000602082015250565b6000613b8c602983612a50565b9150613b9782613b30565b604082019050919050565b60006020820190508181036000830152613bbb81613b7f565b9050919050565b7f45524332303a206275726e2066726f6d20746865207a65726f2061646472657360008201527f7300000000000000000000000000000000000000000000000000000000000000602082015250565b6000613c1e602183612a50565b9150613c2982613bc2565b604082019050919050565b60006020820190508181036000830152613c4d81613c11565b9050919050565b7f45524332303a206275726e20616d6f756e7420657863656564732062616c616e60008201527f6365000000000000000000000000000000000000000000000000000000000000602082015250565b6000613cb0602283612a50565b9150613cbb82613c54565b604082019050919050565b60006020820190508181036000830152613cdf81613ca3565b9050919050565b6000613cf182612b69565b9150613cfc83612b69565b9250828203905081811115613d1457613d136131af565b5b92915050565b7f496e697469616c697a61626c653a20636f6e7472616374206973206e6f74206960008201527f6e697469616c697a696e67000000000000000000000000000000000000000000602082015250565b6000613d76602b83612a50565b9150613d8182613d1a565b604082019050919050565b60006020820190508181036000830152613da581613d69565b9050919050565b7f45524332303a206d696e7420746f20746865207a65726f206164647265737300600082015250565b6000613de2601f83612a50565b9150613ded82613dac565b602082019050919050565b60006020820190508181036000830152613e1181613dd5565b9050919050565b7f455243313936373a206e657720696d706c656d656e746174696f6e206973206e60008201527f6f74206120636f6e747261637400000000000000000000000000000000000000602082015250565b6000613e74602d83612a50565b9150613e7f82613e18565b604082019050919050565b60006020820190508181036000830152613ea381613e67565b9050919050565b7f5061757361626c653a206e6f7420706175736564000000000000000000000000600082015250565b6000613ee0601483612a50565b9150613eeb82613eaa565b602082019050919050565b60006020820190508181036000830152613f0f81613ed3565b9050919050565b60008190508160005260206000209050919050565b60006020601f8301049050919050565b600082821b905092915050565b600060088302613f787fffffffffffffffffffffffffffffffffffffffffffffffffffffffffffffffff82613f3b565b613f828683613f3b565b95508019841693508086168417925050509392505050565b6000613fb5613fb0613fab84612b69565b6134ad565b612b69565b9050919050565b6000819050919050565b613fcf83613f9a565b613fe3613fdb82613fbc565b848454613f48565b825550505050565b600090565b613ff8613feb565b614003818484613fc6565b505050565b5b818110156140275761401c600082613ff0565b600181019050614009565b5050565b601f82111561406c5761403d81613f16565b61404684613f2b565b81016020851015614055578190505b61406961406185613f2b565b830182614008565b50505b505050565b600082821c905092915050565b600061408f60001984600802614071565b1980831691505092915050565b60006140a8838361407e565b9150826002028217905092915050565b6140c182612a45565b67ffffffffffffffff8111156140da576140d9612df0565b5b6140e4825461305a565b6140ef82828561402b565b600060209050601f8311600181146141225760008415614110578287015190505b61411a858261409c565b865550614182565b601f19841661413086613f16565b60005b8281101561415857848901518255600182019150602085019450602081019050614133565b868310156141755784890151614171601f89168261407e565b8355505b6001600288020188555050505b505050505050565b7f416464726573733a2064656c65676174652063616c6c20746f206e6f6e2d636f60008201527f6e74726163740000000000000000000000000000000000000000000000000000602082015250565b60006141e6602683612a50565b91506141f18261418a565b604082019050919050565b60006020820190508181036000830152614215816141d9565b9050919050565b600081519050919050565b600081905092915050565b600061423d8261421c565b6142478185614227565b9350614257818560208601612a61565b80840191505092915050565b600061426f8284614232565b91508190509291505056fe416464726573733a206c6f772d6c6576656c2064656c65676174652063616c6c206661696c6564a26469706673582212201e86649c6acb0185f7ab407f072fdd26f5671f128c71024b91025df9dcea470664736f6c63430008110033",
  "linkReferences": {},
  "deployedLinkReferences": {}
}