{
  "_format": "hh-sol-artifact-1",
  "contractName": "INRCoin",
  "sourceName": "contracts/INRC.sol",
  "abi": [
    {
      "inputs": [],
      "stateMutability": "nonpayable",
      "type": "constructor"
    },
    {
      "anonymous": false,
      "inputs": [
        {
          "indexed": false,
          "internalType": "address",
          "name": "previousAdmin",
          "type": "address"
        },
        {
          "indexed": false,
          "internalType": "address",
          "name": "newAdmin",
          "type": "address"
        }
      ],
      "name": "AdminChanged",
      "type": "event"
    },
    {
      "anonymous": false,
      "inputs": [
        {
          "indexed": true,
          "internalType": "address",
          "name": "owner",
          "type": "address"
        },
        {
          "indexed": true,
          "internalType": "address",
          "name": "spender",
          "type": "address"
        },
        {
          "indexed": false,
          "internalType": "uint256",
          "name": "value",
          "type": "uint256"
        }
      ],
      "name": "Approval",
      "type": "event"
    },
    {
      "anonymous": false,
      "inputs": [
        {
          "indexed": true,
          "internalType": "address",
          "name": "beacon",
          "type": "address"
        }
      ],
      "name": "BeaconUpgraded",
      "type": "event"
    },
    {
      "anonymous": false,
      "inputs": [
        {
          "indexed": false,
          "internalType": "uint8",
          "name": "version",
          "type": "uint8"
        }
      ],
      "name": "Initialized",
      "type": "event"
    },
    {
      "anonymous": false,
      "inputs": [
        {
          "indexed": false,
          "internalType": "uint256",
          "name": "amount",
          "type": "uint256"
        },
        {
          "indexed": false,
          "internalType": "address",
          "name": "MintedTo",
          "type": "address"
        }
      ],
      "name": "Issue",
      "type": "event"
    },
    {
      "anonymous": false,
      "inputs": [
        {
          "indexed": true,
          "internalType": "address",
          "name": "previousOwner",
          "type": "address"
        },
        {
          "indexed": true,
          "internalType": "address",
          "name": "newOwner",
          "type": "address"
        }
      ],
      "name": "OwnershipTransferred",
      "type": "event"
    },
    {
      "anonymous": false,
      "inputs": [
        {
          "indexed": false,
          "internalType": "address",
          "name": "account",
          "type": "address"
        }
      ],
      "name": "Paused",
      "type": "event"
    },
    {
      "anonymous": false,
      "inputs": [
        {
          "indexed": false,
          "internalType": "uint256",
          "name": "amount",
          "type": "uint256"
        },
        {
          "indexed": false,
          "internalType": "address",
          "name": "redeemer",
          "type": "address"
        }
      ],
      "name": "Redeem",
      "type": "event"
    },
    {
      "anonymous": false,
      "inputs": [
        {
          "indexed": true,
          "internalType": "address",
          "name": "from",
          "type": "address"
        },
        {
          "indexed": true,
          "internalType": "address",
          "name": "to",
          "type": "address"
        },
        {
          "indexed": false,
          "internalType": "uint256",
          "name": "value",
          "type": "uint256"
        }
      ],
      "name": "Transfer",
      "type": "event"
    },
    {
      "anonymous": false,
      "inputs": [
        {
          "indexed": false,
          "internalType": "address",
          "name": "account",
          "type": "address"
        }
      ],
      "name": "Unpaused",
      "type": "event"
    },
    {
      "anonymous": false,
      "inputs": [
        {
          "indexed": true,
          "internalType": "address",
          "name": "implementation",
          "type": "address"
        }
      ],
      "name": "Upgraded",
      "type": "event"
    },
    {
      "inputs": [
        {
          "internalType": "uint256",
          "name": "",
          "type": "uint256"
        }
      ],
      "name": "BurnWhitelist",
      "outputs": [
        {
          "internalType": "address",
          "name": "",
          "type": "address"
        }
      ],
      "stateMutability": "view",
      "type": "function"
    },
    {
      "inputs": [
        {
          "internalType": "address",
          "name": "owner",
          "type": "address"
        },
        {
          "internalType": "address",
          "name": "spender",
          "type": "address"
        }
      ],
      "name": "allowance",
      "outputs": [
        {
          "internalType": "uint256",
          "name": "",
          "type": "uint256"
        }
      ],
      "stateMutability": "view",
      "type": "function"
    },
    {
      "inputs": [
        {
          "internalType": "address",
          "name": "spender",
          "type": "address"
        },
        {
          "internalType": "uint256",
          "name": "amount",
          "type": "uint256"
        }
      ],
      "name": "approve",
      "outputs": [
        {
          "internalType": "bool",
          "name": "",
          "type": "bool"
        }
      ],
      "stateMutability": "nonpayable",
      "type": "function"
    },
    {
      "inputs": [
        {
          "internalType": "address",
          "name": "account",
          "type": "address"
        }
      ],
      "name": "balanceOf",
      "outputs": [
        {
          "internalType": "uint256",
          "name": "",
          "type": "uint256"
        }
      ],
      "stateMutability": "view",
      "type": "function"
    },
    {
      "inputs": [],
      "name": "decimals",
      "outputs": [
        {
          "internalType": "uint8",
          "name": "",
          "type": "uint8"
        }
      ],
      "stateMutability": "view",
      "type": "function"
    },
    {
      "inputs": [
        {
          "internalType": "address",
          "name": "spender",
          "type": "address"
        },
        {
          "internalType": "uint256",
          "name": "subtractedValue",
          "type": "uint256"
        }
      ],
      "name": "decreaseAllowance",
      "outputs": [
        {
          "internalType": "bool",
          "name": "",
          "type": "bool"
        }
      ],
      "stateMutability": "nonpayable",
      "type": "function"
    },
    {
      "inputs": [],
      "name": "epochover",
      "outputs": [
        {
          "internalType": "bool",
          "name": "",
          "type": "bool"
        }
      ],
      "stateMutability": "view",
      "type": "function"
    },
    {
      "inputs": [
        {
          "internalType": "address",
          "name": "spender",
          "type": "address"
        },
        {
          "internalType": "uint256",
          "name": "addedValue",
          "type": "uint256"
        }
      ],
      "name": "increaseAllowance",
      "outputs": [
        {
          "internalType": "bool",
          "name": "",
          "type": "bool"
        }
      ],
      "stateMutability": "nonpayable",
      "type": "function"
    },
    {
      "inputs": [],
      "name": "initialize",
      "outputs": [],
      "stateMutability": "nonpayable",
      "type": "function"
    },
    {
      "inputs": [
        {
          "internalType": "address",
          "name": "to",
          "type": "address"
        },
        {
          "internalType": "uint256",
          "name": "amount",
          "type": "uint256"
        }
      ],
      "name": "issue",
      "outputs": [],
      "stateMutability": "nonpayable",
      "type": "function"
    },
    {
      "inputs": [],
      "name": "name",
      "outputs": [
        {
          "internalType": "string",
          "name": "",
          "type": "string"
        }
      ],
      "stateMutability": "view",
      "type": "function"
    },
    {
      "inputs": [],
      "name": "owner",
      "outputs": [
        {
          "internalType": "address",
          "name": "",
          "type": "address"
        }
      ],
      "stateMutability": "view",
      "type": "function"
    },
    {
      "inputs": [],
      "name": "pause",
      "outputs": [],
      "stateMutability": "nonpayable",
      "type": "function"
    },
    {
      "inputs": [],
      "name": "paused",
      "outputs": [
        {
          "internalType": "bool",
          "name": "",
          "type": "bool"
        }
      ],
      "stateMutability": "view",
      "type": "function"
    },
    {
      "inputs": [],
      "name": "proxiableUUID",
      "outputs": [
        {
          "internalType": "bytes32",
          "name": "",
          "type": "bytes32"
        }
      ],
      "stateMutability": "view",
      "type": "function"
    },
    {
      "inputs": [
        {
          "internalType": "uint256",
          "name": "amount",
          "type": "uint256"
        },
        {
          "internalType": "uint256",
          "name": "_id",
          "type": "uint256"
        }
      ],
      "name": "redeem",
      "outputs": [],
      "stateMutability": "nonpayable",
      "type": "function"
    },
    {
      "inputs": [],
      "name": "renounceOwnership",
      "outputs": [],
      "stateMutability": "nonpayable",
      "type": "function"
    },
    {
      "inputs": [
        {
          "internalType": "uint256",
          "name": "_index",
          "type": "uint256"
        },
        {
          "internalType": "address",
          "name": "_burner",
          "type": "address"
        }
      ],
      "name": "setBurnwhitelist",
      "outputs": [],
      "stateMutability": "nonpayable",
      "type": "function"
    },
    {
      "inputs": [
        {
          "internalType": "bool",
          "name": "_over",
          "type": "bool"
        }
      ],
      "name": "setEpoch",
      "outputs": [],
      "stateMutability": "nonpayable",
      "type": "function"
    },
    {
      "inputs": [],
      "name": "symbol",
      "outputs": [
        {
          "internalType": "string",
          "name": "",
          "type": "string"
        }
      ],
      "stateMutability": "view",
      "type": "function"
    },
    {
      "inputs": [],
      "name": "totalSupply",
      "outputs": [
        {
          "internalType": "uint256",
          "name": "",
          "type": "uint256"
        }
      ],
      "stateMutability": "view",
      "type": "function"
    },
    {
      "inputs": [
        {
          "internalType": "address",
          "name": "to",
          "type": "address"
        },
        {
          "internalType": "uint256",
          "name": "amount",
          "type": "uint256"
        }
      ],
      "name": "transfer",
      "outputs": [
        {
          "internalType": "bool",
          "name": "",
          "type": "bool"
        }
      ],
      "stateMutability": "nonpayable",
      "type": "function"
    },
    {
      "inputs": [
        {
          "internalType": "address",
          "name": "from",
          "type": "address"
        },
        {
          "internalType": "address",
          "name": "to",
          "type": "address"
        },
        {
          "internalType": "uint256",
          "name": "amount",
          "type": "uint256"
        }
      ],
      "name": "transferFrom",
      "outputs": [
        {
          "internalType": "bool",
          "name": "",
          "type": "bool"
        }
      ],
      "stateMutability": "nonpayable",
      "type": "function"
    },
    {
      "inputs": [
        {
          "internalType": "address",
          "name": "newOwner",
          "type": "address"
        }
      ],
      "name": "transferOwnership",
      "outputs": [],
      "stateMutability": "nonpayable",
      "type": "function"
    },
    {
      "inputs": [],
      "name": "unpause",
      "outputs": [],
      "stateMutability": "nonpayable",
      "type": "function"
    },
    {
      "inputs": [
        {
          "internalType": "address",
          "name": "newImplementation",
          "type": "address"
        }
      ],
      "name": "upgradeTo",
      "outputs": [],
      "stateMutability": "nonpayable",
      "type": "function"
    },
    {
      "inputs": [
        {
          "internalType": "address",
          "name": "newImplementation",
          "type": "address"
        },
        {
          "internalType": "bytes",
          "name": "data",
          "type": "bytes"
        }
      ],
      "name": "upgradeToAndCall",
      "outputs": [],
      "stateMutability": "payable",
      "type": "function"
    }
  ],
  "bytecode": "0x60a06040523073ffffffffffffffffffffffffffffffffffffffff1660809073ffffffffffffffffffffffffffffffffffffffff168152503480156200004457600080fd5b50620000556200005b60201b60201c565b62000206565b600060019054906101000a900460ff1615620000ae576040517f08c379a0000000000000000000000000000000000000000000000000000000008152600401620000a590620001a9565b60405180910390fd5b60ff801660008054906101000a900460ff1660ff161015620001205760ff6000806101000a81548160ff021916908360ff1602179055507f7f26b83ff96e1f2b6a682f133852f6798a09c465da95921460cefb384740249860ff604051620001179190620001e9565b60405180910390a15b565b600082825260208201905092915050565b7f496e697469616c697a61626c653a20636f6e747261637420697320696e69746960008201527f616c697a696e6700000000000000000000000000000000000000000000000000602082015250565b60006200019160278362000122565b91506200019e8262000133565b604082019050919050565b60006020820190508181036000830152620001c48162000182565b9050919050565b600060ff82169050919050565b620001e381620001cb565b82525050565b6000602082019050620002006000830184620001d8565b92915050565b608051613d346200023e600039600081816107e301528181610871015281816109e201528181610a700152610b200152613d346000f3fe60806040526004361061019c5760003560e01c80635c975abb116100ec5780638da5cb5b1161008a578063a9059cbb11610064578063a9059cbb14610581578063b2ffd653146105be578063dd62ed3e146105e9578063f2fde38b146106265761019c565b80638da5cb5b146104ee57806395d89b4114610519578063a457c2d7146105445761019c565b80637cbc2373116100c65780637cbc23731461046e5780638129fc1c146104975780638456cb59146104ae578063867904b4146104c55761019c565b80635c975abb146103ef57806370a082311461041a578063715018a6146104575761019c565b8063313ce567116101595780633a15c9cc116101335780633a15c9cc146103685780633f4ba83a146103915780634f1ef286146103a857806352d1902d146103c45761019c565b8063313ce567146102d75780633659cfe614610302578063395093511461032b5761019c565b806306fdde03146101a1578063095ea7b3146101cc5780631341adf41461020957806318160ddd1461023257806323b872dd1461025d578063275f86841461029a575b600080fd5b3480156101ad57600080fd5b506101b661064f565b6040516101c39190612532565b60405180910390f35b3480156101d857600080fd5b506101f360048036038101906101ee91906125fc565b6106e1565b6040516102009190612657565b60405180910390f35b34801561021557600080fd5b50610230600480360381019061022b9190612672565b610704565b005b34801561023e57600080fd5b5061024761076b565b60405161025491906126c1565b60405180910390f35b34801561026957600080fd5b50610284600480360381019061027f91906126dc565b610775565b6040516102919190612657565b60405180910390f35b3480156102a657600080fd5b506102c160048036038101906102bc919061272f565b6107a4565b6040516102ce919061276b565b60405180910390f35b3480156102e357600080fd5b506102ec6107d8565b6040516102f991906127a2565b60405180910390f35b34801561030e57600080fd5b50610329600480360381019061032491906127bd565b6107e1565b005b34801561033757600080fd5b50610352600480360381019061034d91906125fc565b610969565b60405161035f9190612657565b60405180910390f35b34801561037457600080fd5b5061038f600480360381019061038a9190612816565b6109a0565b005b34801561039d57600080fd5b506103a66109ce565b005b6103c260048036038101906103bd9190612978565b6109e0565b005b3480156103d057600080fd5b506103d9610b1c565b6040516103e691906129ed565b60405180910390f35b3480156103fb57600080fd5b50610404610bd5565b6040516104119190612657565b60405180910390f35b34801561042657600080fd5b50610441600480360381019061043c91906127bd565b610bec565b60405161044e91906126c1565b60405180910390f35b34801561046357600080fd5b5061046c610c35565b005b34801561047a57600080fd5b5061049560048036038101906104909190612a08565b610c49565b005b3480156104a357600080fd5b506104ac610dcc565b005b3480156104ba57600080fd5b506104c3610f8e565b005b3480156104d157600080fd5b506104ec60048036038101906104e791906125fc565b610fa0565b005b3480156104fa57600080fd5b50610503611032565b604051610510919061276b565b60405180910390f35b34801561052557600080fd5b5061052e61105c565b60405161053b9190612532565b60405180910390f35b34801561055057600080fd5b5061056b600480360381019061056691906125fc565b6110ee565b6040516105789190612657565b60405180910390f35b34801561058d57600080fd5b506105a860048036038101906105a391906125fc565b611165565b6040516105b59190612657565b60405180910390f35b3480156105ca57600080fd5b506105d3611188565b6040516105e09190612657565b60405180910390f35b3480156105f557600080fd5b50610610600480360381019061060b9190612a48565b61119c565b60405161061d91906126c1565b60405180910390f35b34801561063257600080fd5b5061064d600480360381019061064891906127bd565b611223565b005b60606036805461065e90612ab7565b80601f016020809104026020016040519081016040528092919081815260200182805461068a90612ab7565b80156106d75780601f106106ac576101008083540402835291602001916106d7565b820191906000526020600020905b8154815290600101906020018083116106ba57829003601f168201915b5050505050905090565b6000806106ec6112a6565b90506106f98185856112ae565b600191505092915050565b61070c611477565b6107146114f5565b8061012d600084815260200190815260200160002060006101000a81548173ffffffffffffffffffffffffffffffffffffffff021916908373ffffffffffffffffffffffffffffffffffffffff1602179055505050565b6000603554905090565b6000806107806112a6565b905061078d85828561153f565b6107988585856115cb565b60019150509392505050565b61012d6020528060005260406000206000915054906101000a900473ffffffffffffffffffffffffffffffffffffffff1681565b60006002905090565b7f000000000000000000000000000000000000000000000000000000000000000073ffffffffffffffffffffffffffffffffffffffff163073ffffffffffffffffffffffffffffffffffffffff160361086f576040517f08c379a000000000000000000000000000000000000000000000000000000000815260040161086690612b5a565b60405180910390fd5b7f000000000000000000000000000000000000000000000000000000000000000073ffffffffffffffffffffffffffffffffffffffff166108ae61184d565b73ffffffffffffffffffffffffffffffffffffffff1614610904576040517f08c379a00000000000000000000000000000000000000000000000000000000081526004016108fb90612bec565b60405180910390fd5b61090d816118a4565b61096681600067ffffffffffffffff81111561092c5761092b61284d565b5b6040519080825280601f01601f19166020018201604052801561095e5781602001600182028036833780820191505090505b5060006118af565b50565b6000806109746112a6565b9050610995818585610986858961119c565b6109909190612c3b565b6112ae565b600191505092915050565b6109a8611477565b6109b06114f5565b8061012e60006101000a81548160ff02191690831515021790555050565b6109d6611477565b6109de611a1d565b565b7f000000000000000000000000000000000000000000000000000000000000000073ffffffffffffffffffffffffffffffffffffffff163073ffffffffffffffffffffffffffffffffffffffff1603610a6e576040517f08c379a0000000000000000000000000000000000000000000000000000000008152600401610a6590612b5a565b60405180910390fd5b7f000000000000000000000000000000000000000000000000000000000000000073ffffffffffffffffffffffffffffffffffffffff16610aad61184d565b73ffffffffffffffffffffffffffffffffffffffff1614610b03576040517f08c379a0000000000000000000000000000000000000000000000000000000008152600401610afa90612bec565b60405180910390fd5b610b0c826118a4565b610b18828260016118af565b5050565b60007f000000000000000000000000000000000000000000000000000000000000000073ffffffffffffffffffffffffffffffffffffffff163073ffffffffffffffffffffffffffffffffffffffff1614610bac576040517f08c379a0000000000000000000000000000000000000000000000000000000008152600401610ba390612ce1565b60405180910390fd5b7f360894a13ba1a3210667c828492db98dca3e2076cc3735a920a3ca505d382bbc60001b905090565b6000606560009054906101000a900460ff16905090565b6000603360008373ffffffffffffffffffffffffffffffffffffffff1673ffffffffffffffffffffffffffffffffffffffff168152602001908152602001600020549050919050565b610c3d611477565b610c476000611a80565b565b60008211610c8c576040517f08c379a0000000000000000000000000000000000000000000000000000000008152600401610c8390612d4d565b60405180910390fd5b61012e60009054906101000a900460ff16610cdc576040517f08c379a0000000000000000000000000000000000000000000000000000000008152600401610cd390612db9565b60405180910390fd5b61012d600082815260200190815260200160002060009054906101000a900473ffffffffffffffffffffffffffffffffffffffff1673ffffffffffffffffffffffffffffffffffffffff163373ffffffffffffffffffffffffffffffffffffffff1614610d7e576040517f08c379a0000000000000000000000000000000000000000000000000000000008152600401610d7590612e25565b60405180910390fd5b610d8f610d896112a6565b83611b46565b7fa03c990ba6466f1dc61a4d2e15fd72bafaf2244fa2421b01ceaba3ff09e8e6308233604051610dc0929190612e45565b60405180910390a15050565b60008060019054906101000a900460ff16159050808015610dfd5750600160008054906101000a900460ff1660ff16105b80610e2a5750610e0c30611d1e565b158015610e295750600160008054906101000a900460ff1660ff16145b5b610e69576040517f08c379a0000000000000000000000000000000000000000000000000000000008152600401610e6090612ee0565b60405180910390fd5b60016000806101000a81548160ff021916908360ff1602179055508015610ea6576001600060016101000a81548160ff0219169083151502179055505b610f1a6040518060400160405280600881526020017f494e5220436f696e0000000000000000000000000000000000000000000000008152506040518060400160405280600481526020017f494e524300000000000000000000000000000000000000000000000000000000815250611d41565b610f22611d9e565b610f2a611df7565b610f32611e50565b8015610f8b5760008060016101000a81548160ff0219169083151502179055507f7f26b83ff96e1f2b6a682f133852f6798a09c465da95921460cefb38474024986001604051610f829190612f45565b60405180910390a15b50565b610f96611477565b610f9e611ea1565b565b610fa8611477565b60008111610feb576040517f08c379a0000000000000000000000000000000000000000000000000000000008152600401610fe290612d4d565b60405180910390fd5b610ff58282611f04565b7fc790a174b576e850809e673168b703c3f5480d1c662f57ea2c08f08a17d509c68183604051611026929190612e45565b60405180910390a15050565b6000609760009054906101000a900473ffffffffffffffffffffffffffffffffffffffff16905090565b60606037805461106b90612ab7565b80601f016020809104026020016040519081016040528092919081815260200182805461109790612ab7565b80156110e45780601f106110b9576101008083540402835291602001916110e4565b820191906000526020600020905b8154815290600101906020018083116110c757829003601f168201915b5050505050905090565b6000806110f96112a6565b90506000611107828661119c565b90508381101561114c576040517f08c379a000000000000000000000000000000000000000000000000000000000815260040161114390612fd2565b60405180910390fd5b61115982868684036112ae565b60019250505092915050565b6000806111706112a6565b905061117d8185856115cb565b600191505092915050565b61012e60009054906101000a900460ff1681565b6000603460008473ffffffffffffffffffffffffffffffffffffffff1673ffffffffffffffffffffffffffffffffffffffff16815260200190815260200160002060008373ffffffffffffffffffffffffffffffffffffffff1673ffffffffffffffffffffffffffffffffffffffff16815260200190815260200160002054905092915050565b61122b611477565b600073ffffffffffffffffffffffffffffffffffffffff168173ffffffffffffffffffffffffffffffffffffffff160361129a576040517f08c379a000000000000000000000000000000000000000000000000000000000815260040161129190613064565b60405180910390fd5b6112a381611a80565b50565b600033905090565b600073ffffffffffffffffffffffffffffffffffffffff168373ffffffffffffffffffffffffffffffffffffffff160361131d576040517f08c379a0000000000000000000000000000000000000000000000000000000008152600401611314906130f6565b60405180910390fd5b600073ffffffffffffffffffffffffffffffffffffffff168273ffffffffffffffffffffffffffffffffffffffff160361138c576040517f08c379a000000000000000000000000000000000000000000000000000000000815260040161138390613188565b60405180910390fd5b80603460008573ffffffffffffffffffffffffffffffffffffffff1673ffffffffffffffffffffffffffffffffffffffff16815260200190815260200160002060008473ffffffffffffffffffffffffffffffffffffffff1673ffffffffffffffffffffffffffffffffffffffff168152602001908152602001600020819055508173ffffffffffffffffffffffffffffffffffffffff168373ffffffffffffffffffffffffffffffffffffffff167f8c5be1e5ebec7d5bd14f71427d1e84f3dd0314c0f7b2291e5b200ac8c7c3b9258360405161146a91906126c1565b60405180910390a3505050565b61147f6112a6565b73ffffffffffffffffffffffffffffffffffffffff1661149d611032565b73ffffffffffffffffffffffffffffffffffffffff16146114f3576040517f08c379a00000000000000000000000000000000000000000000000000000000081526004016114ea906131f4565b60405180910390fd5b565b6114fd610bd5565b1561153d576040517f08c379a000000000000000000000000000000000000000000000000000000000815260040161153490613260565b60405180910390fd5b565b600061154b848461119c565b90507fffffffffffffffffffffffffffffffffffffffffffffffffffffffffffffffff81146115c557818110156115b7576040517f08c379a00000000000000000000000000000000000000000000000000000000081526004016115ae906132cc565b60405180910390fd5b6115c484848484036112ae565b5b50505050565b600073ffffffffffffffffffffffffffffffffffffffff168373ffffffffffffffffffffffffffffffffffffffff160361163a576040517f08c379a00000000000000000000000000000000000000000000000000000000081526004016116319061335e565b60405180910390fd5b600073ffffffffffffffffffffffffffffffffffffffff168273ffffffffffffffffffffffffffffffffffffffff16036116a9576040517f08c379a00000000000000000000000000000000000000000000000000000000081526004016116a0906133f0565b60405180910390fd5b6116b4838383612064565b6000603360008573ffffffffffffffffffffffffffffffffffffffff1673ffffffffffffffffffffffffffffffffffffffff1681526020019081526020016000205490508181101561173b576040517f08c379a000000000000000000000000000000000000000000000000000000000815260040161173290613482565b60405180910390fd5b818103603360008673ffffffffffffffffffffffffffffffffffffffff1673ffffffffffffffffffffffffffffffffffffffff1681526020019081526020016000208190555081603360008573ffffffffffffffffffffffffffffffffffffffff1673ffffffffffffffffffffffffffffffffffffffff16815260200190815260200160002060008282546117d09190612c3b565b925050819055508273ffffffffffffffffffffffffffffffffffffffff168473ffffffffffffffffffffffffffffffffffffffff167fddf252ad1be2c89b69c2b068fc378daa952ba7f163c4a11628f55a4df523b3ef8460405161183491906126c1565b60405180910390a361184784848461207c565b50505050565b600061187b7f360894a13ba1a3210667c828492db98dca3e2076cc3735a920a3ca505d382bbc60001b612081565b60000160009054906101000a900473ffffffffffffffffffffffffffffffffffffffff16905090565b6118ac611477565b50565b6118db7f4910fdfa16fed3260ed0e7147f7cc6da11a60208b5b9406d12a635614ffd914360001b61208b565b60000160009054906101000a900460ff16156118ff576118fa83612095565b611a18565b8273ffffffffffffffffffffffffffffffffffffffff166352d1902d6040518163ffffffff1660e01b8152600401602060405180830381865afa92505050801561196757506040513d601f19601f8201168201806040525081019061196491906134ce565b60015b6119a6576040517f08c379a000000000000000000000000000000000000000000000000000000000815260040161199d9061356d565b60405180910390fd5b7f360894a13ba1a3210667c828492db98dca3e2076cc3735a920a3ca505d382bbc60001b8114611a0b576040517f08c379a0000000000000000000000000000000000000000000000000000000008152600401611a02906135ff565b60405180910390fd5b50611a1783838361214e565b5b505050565b611a2561217a565b6000606560006101000a81548160ff0219169083151502179055507f5db9ee0a495bf2e6ff9c91a7834c1ba4fdd244a5e8aa4e537bd38aeae4b073aa611a696112a6565b604051611a76919061276b565b60405180910390a1565b6000609760009054906101000a900473ffffffffffffffffffffffffffffffffffffffff16905081609760006101000a81548173ffffffffffffffffffffffffffffffffffffffff021916908373ffffffffffffffffffffffffffffffffffffffff1602179055508173ffffffffffffffffffffffffffffffffffffffff168173ffffffffffffffffffffffffffffffffffffffff167f8be0079c531659141344cd1fd0a4f28419497f9722a3daafe3b4186f6b6457e060405160405180910390a35050565b600073ffffffffffffffffffffffffffffffffffffffff168273ffffffffffffffffffffffffffffffffffffffff1603611bb5576040517f08c379a0000000000000000000000000000000000000000000000000000000008152600401611bac90613691565b60405180910390fd5b611bc182600083612064565b6000603360008473ffffffffffffffffffffffffffffffffffffffff1673ffffffffffffffffffffffffffffffffffffffff16815260200190815260200160002054905081811015611c48576040517f08c379a0000000000000000000000000000000000000000000000000000000008152600401611c3f90613723565b60405180910390fd5b818103603360008573ffffffffffffffffffffffffffffffffffffffff1673ffffffffffffffffffffffffffffffffffffffff168152602001908152602001600020819055508160356000828254611ca09190613743565b92505081905550600073ffffffffffffffffffffffffffffffffffffffff168373ffffffffffffffffffffffffffffffffffffffff167fddf252ad1be2c89b69c2b068fc378daa952ba7f163c4a11628f55a4df523b3ef84604051611d0591906126c1565b60405180910390a3611d198360008461207c565b505050565b6000808273ffffffffffffffffffffffffffffffffffffffff163b119050919050565b600060019054906101000a900460ff16611d90576040517f08c379a0000000000000000000000000000000000000000000000000000000008152600401611d87906137e9565b60405180910390fd5b611d9a82826121c3565b5050565b600060019054906101000a900460ff16611ded576040517f08c379a0000000000000000000000000000000000000000000000000000000008152600401611de4906137e9565b60405180910390fd5b611df5612236565b565b600060019054906101000a900460ff16611e46576040517f08c379a0000000000000000000000000000000000000000000000000000000008152600401611e3d906137e9565b60405180910390fd5b611e4e612297565b565b600060019054906101000a900460ff16611e9f576040517f08c379a0000000000000000000000000000000000000000000000000000000008152600401611e96906137e9565b60405180910390fd5b565b611ea96114f5565b6001606560006101000a81548160ff0219169083151502179055507f62e78cea01bee320cd4e420270b5ea74000d11b0c9f74754ebdbfc544b05a258611eed6112a6565b604051611efa919061276b565b60405180910390a1565b600073ffffffffffffffffffffffffffffffffffffffff168273ffffffffffffffffffffffffffffffffffffffff1603611f73576040517f08c379a0000000000000000000000000000000000000000000000000000000008152600401611f6a90613855565b60405180910390fd5b611f7f60008383612064565b8060356000828254611f919190612c3b565b9250508190555080603360008473ffffffffffffffffffffffffffffffffffffffff1673ffffffffffffffffffffffffffffffffffffffff1681526020019081526020016000206000828254611fe79190612c3b565b925050819055508173ffffffffffffffffffffffffffffffffffffffff16600073ffffffffffffffffffffffffffffffffffffffff167fddf252ad1be2c89b69c2b068fc378daa952ba7f163c4a11628f55a4df523b3ef8360405161204c91906126c1565b60405180910390a36120606000838361207c565b5050565b61206c6114f5565b612077838383612303565b505050565b505050565b6000819050919050565b6000819050919050565b61209e81611d1e565b6120dd576040517f08c379a00000000000000000000000000000000000000000000000000000000081526004016120d4906138e7565b60405180910390fd5b8061210a7f360894a13ba1a3210667c828492db98dca3e2076cc3735a920a3ca505d382bbc60001b612081565b60000160006101000a81548173ffffffffffffffffffffffffffffffffffffffff021916908373ffffffffffffffffffffffffffffffffffffffff16021790555050565b61215783612308565b6000825111806121645750805b15612175576121738383612357565b505b505050565b612182610bd5565b6121c1576040517f08c379a00000000000000000000000000000000000000000000000000000000081526004016121b890613953565b60405180910390fd5b565b600060019054906101000a900460ff16612212576040517f08c379a0000000000000000000000000000000000000000000000000000000008152600401612209906137e9565b60405180910390fd5b81603690816122219190613b15565b5080603790816122319190613b15565b505050565b600060019054906101000a900460ff16612285576040517f08c379a000000000000000000000000000000000000000000000000000000000815260040161227c906137e9565b60405180910390fd5b6122956122906112a6565b611a80565b565b600060019054906101000a900460ff166122e6576040517f08c379a00000000000000000000000000000000000000000000000000000000081526004016122dd906137e9565b60405180910390fd5b6000606560006101000a81548160ff021916908315150217905550565b505050565b61231181612095565b8073ffffffffffffffffffffffffffffffffffffffff167fbc7cd75a20ee27fd9adebab32041f755214dbc6bffa90cc0225b39da2e5c2d3b60405160405180910390a250565b606061236283611d1e565b6123a1576040517f08c379a000000000000000000000000000000000000000000000000000000000815260040161239890613c59565b60405180910390fd5b6000808473ffffffffffffffffffffffffffffffffffffffff16846040516123c99190613cc0565b600060405180830381855af49150503d8060008114612404576040519150601f19603f3d011682016040523d82523d6000602084013e612409565b606091505b50915091506124318282604051806060016040528060278152602001613cd86027913961243b565b9250505092915050565b6060831561244b5782905061249b565b60008351111561245e5782518084602001fd5b816040517f08c379a00000000000000000000000000000000000000000000000000000000081526004016124929190612532565b60405180910390fd5b9392505050565b600081519050919050565b600082825260208201905092915050565b60005b838110156124dc5780820151818401526020810190506124c1565b60008484015250505050565b6000601f19601f8301169050919050565b6000612504826124a2565b61250e81856124ad565b935061251e8185602086016124be565b612527816124e8565b840191505092915050565b6000602082019050818103600083015261254c81846124f9565b905092915050565b6000604051905090565b600080fd5b600080fd5b600073ffffffffffffffffffffffffffffffffffffffff82169050919050565b600061259382612568565b9050919050565b6125a381612588565b81146125ae57600080fd5b50565b6000813590506125c08161259a565b92915050565b6000819050919050565b6125d9816125c6565b81146125e457600080fd5b50565b6000813590506125f6816125d0565b92915050565b600080604083850312156126135761261261255e565b5b6000612621858286016125b1565b9250506020612632858286016125e7565b9150509250929050565b60008115159050919050565b6126518161263c565b82525050565b600060208201905061266c6000830184612648565b92915050565b600080604083850312156126895761268861255e565b5b6000612697858286016125e7565b92505060206126a8858286016125b1565b9150509250929050565b6126bb816125c6565b82525050565b60006020820190506126d660008301846126b2565b92915050565b6000806000606084860312156126f5576126f461255e565b5b6000612703868287016125b1565b9350506020612714868287016125b1565b9250506040612725868287016125e7565b9150509250925092565b6000602082840312156127455761274461255e565b5b6000612753848285016125e7565b91505092915050565b61276581612588565b82525050565b6000602082019050612780600083018461275c565b92915050565b600060ff82169050919050565b61279c81612786565b82525050565b60006020820190506127b76000830184612793565b92915050565b6000602082840312156127d3576127d261255e565b5b60006127e1848285016125b1565b91505092915050565b6127f38161263c565b81146127fe57600080fd5b50565b600081359050612810816127ea565b92915050565b60006020828403121561282c5761282b61255e565b5b600061283a84828501612801565b91505092915050565b600080fd5b600080fd5b7f4e487b7100000000000000000000000000000000000000000000000000000000600052604160045260246000fd5b612885826124e8565b810181811067ffffffffffffffff821117156128a4576128a361284d565b5b80604052505050565b60006128b7612554565b90506128c3828261287c565b919050565b600067ffffffffffffffff8211156128e3576128e261284d565b5b6128ec826124e8565b9050602081019050919050565b82818337600083830152505050565b600061291b612916846128c8565b6128ad565b90508281526020810184848401111561293757612936612848565b5b6129428482856128f9565b509392505050565b600082601f83011261295f5761295e612843565b5b813561296f848260208601612908565b91505092915050565b6000806040838503121561298f5761298e61255e565b5b600061299d858286016125b1565b925050602083013567ffffffffffffffff8111156129be576129bd612563565b5b6129ca8582860161294a565b9150509250929050565b6000819050919050565b6129e7816129d4565b82525050565b6000602082019050612a0260008301846129de565b92915050565b60008060408385031215612a1f57612a1e61255e565b5b6000612a2d858286016125e7565b9250506020612a3e858286016125e7565b9150509250929050565b60008060408385031215612a5f57612a5e61255e565b5b6000612a6d858286016125b1565b9250506020612a7e858286016125b1565b9150509250929050565b7f4e487b7100000000000000000000000000000000000000000000000000000000600052602260045260246000fd5b60006002820490506001821680612acf57607f821691505b602082108103612ae257612ae1612a88565b5b50919050565b7f46756e6374696f6e206d7573742062652063616c6c6564207468726f7567682060008201527f64656c656761746563616c6c0000000000000000000000000000000000000000602082015250565b6000612b44602c836124ad565b9150612b4f82612ae8565b604082019050919050565b60006020820190508181036000830152612b7381612b37565b9050919050565b7f46756e6374696f6e206d7573742062652063616c6c6564207468726f7567682060008201527f6163746976652070726f78790000000000000000000000000000000000000000602082015250565b6000612bd6602c836124ad565b9150612be182612b7a565b604082019050919050565b60006020820190508181036000830152612c0581612bc9565b9050919050565b7f4e487b7100000000000000000000000000000000000000000000000000000000600052601160045260246000fd5b6000612c46826125c6565b9150612c51836125c6565b9250828201905080821115612c6957612c68612c0c565b5b92915050565b7f555550535570677261646561626c653a206d757374206e6f742062652063616c60008201527f6c6564207468726f7567682064656c656761746563616c6c0000000000000000602082015250565b6000612ccb6038836124ad565b9150612cd682612c6f565b604082019050919050565b60006020820190508181036000830152612cfa81612cbe565b9050919050565b7f416d6f756e742063616e6e6f7420626520300000000000000000000000000000600082015250565b6000612d376012836124ad565b9150612d4282612d01565b602082019050919050565b60006020820190508181036000830152612d6681612d2a565b9050919050565b7f65706f6368206e6f74206f766572000000000000000000000000000000000000600082015250565b6000612da3600e836124ad565b9150612dae82612d6d565b602082019050919050565b60006020820190508181036000830152612dd281612d96565b9050919050565b7f556e617574686f72697365640000000000000000000000000000000000000000600082015250565b6000612e0f600c836124ad565b9150612e1a82612dd9565b602082019050919050565b60006020820190508181036000830152612e3e81612e02565b9050919050565b6000604082019050612e5a60008301856126b2565b612e67602083018461275c565b9392505050565b7f496e697469616c697a61626c653a20636f6e747261637420697320616c72656160008201527f647920696e697469616c697a6564000000000000000000000000000000000000602082015250565b6000612eca602e836124ad565b9150612ed582612e6e565b604082019050919050565b60006020820190508181036000830152612ef981612ebd565b9050919050565b6000819050919050565b6000819050919050565b6000612f2f612f2a612f2584612f00565b612f0a565b612786565b9050919050565b612f3f81612f14565b82525050565b6000602082019050612f5a6000830184612f36565b92915050565b7f45524332303a2064656372656173656420616c6c6f77616e63652062656c6f7760008201527f207a65726f000000000000000000000000000000000000000000000000000000602082015250565b6000612fbc6025836124ad565b9150612fc782612f60565b604082019050919050565b60006020820190508181036000830152612feb81612faf565b9050919050565b7f4f776e61626c653a206e6577206f776e657220697320746865207a65726f206160008201527f6464726573730000000000000000000000000000000000000000000000000000602082015250565b600061304e6026836124ad565b915061305982612ff2565b604082019050919050565b6000602082019050818103600083015261307d81613041565b9050919050565b7f45524332303a20617070726f76652066726f6d20746865207a65726f2061646460008201527f7265737300000000000000000000000000000000000000000000000000000000602082015250565b60006130e06024836124ad565b91506130eb82613084565b604082019050919050565b6000602082019050818103600083015261310f816130d3565b9050919050565b7f45524332303a20617070726f766520746f20746865207a65726f20616464726560008201527f7373000000000000000000000000000000000000000000000000000000000000602082015250565b60006131726022836124ad565b915061317d82613116565b604082019050919050565b600060208201905081810360008301526131a181613165565b9050919050565b7f4f776e61626c653a2063616c6c6572206973206e6f7420746865206f776e6572600082015250565b60006131de6020836124ad565b91506131e9826131a8565b602082019050919050565b6000602082019050818103600083015261320d816131d1565b9050919050565b7f5061757361626c653a2070617573656400000000000000000000000000000000600082015250565b600061324a6010836124ad565b915061325582613214565b602082019050919050565b600060208201905081810360008301526132798161323d565b9050919050565b7f45524332303a20696e73756666696369656e7420616c6c6f77616e6365000000600082015250565b60006132b6601d836124ad565b91506132c182613280565b602082019050919050565b600060208201905081810360008301526132e5816132a9565b9050919050565b7f45524332303a207472616e736665722066726f6d20746865207a65726f20616460008201527f6472657373000000000000000000000000000000000000000000000000000000602082015250565b60006133486025836124ad565b9150613353826132ec565b604082019050919050565b600060208201905081810360008301526133778161333b565b9050919050565b7f45524332303a207472616e7366657220746f20746865207a65726f206164647260008201527f6573730000000000000000000000000000000000000000000000000000000000602082015250565b60006133da6023836124ad565b91506133e58261337e565b604082019050919050565b60006020820190508181036000830152613409816133cd565b9050919050565b7f45524332303a207472616e7366657220616d6f756e742065786365656473206260008201527f616c616e63650000000000000000000000000000000000000000000000000000602082015250565b600061346c6026836124ad565b915061347782613410565b604082019050919050565b6000602082019050818103600083015261349b8161345f565b9050919050565b6134ab816129d4565b81146134b657600080fd5b50565b6000815190506134c8816134a2565b92915050565b6000602082840312156134e4576134e361255e565b5b60006134f2848285016134b9565b91505092915050565b7f45524331393637557067726164653a206e657720696d706c656d656e7461746960008201527f6f6e206973206e6f742055555053000000000000000000000000000000000000602082015250565b6000613557602e836124ad565b9150613562826134fb565b604082019050919050565b600060208201905081810360008301526135868161354a565b9050919050565b7f45524331393637557067726164653a20756e737570706f727465642070726f7860008201527f6961626c65555549440000000000000000000000000000000000000000000000602082015250565b60006135e96029836124ad565b91506135f48261358d565b604082019050919050565b60006020820190508181036000830152613618816135dc565b9050919050565b7f45524332303a206275726e2066726f6d20746865207a65726f2061646472657360008201527f7300000000000000000000000000000000000000000000000000000000000000602082015250565b600061367b6021836124ad565b91506136868261361f565b604082019050919050565b600060208201905081810360008301526136aa8161366e565b9050919050565b7f45524332303a206275726e20616d6f756e7420657863656564732062616c616e60008201527f6365000000000000000000000000000000000000000000000000000000000000602082015250565b600061370d6022836124ad565b9150613718826136b1565b604082019050919050565b6000602082019050818103600083015261373c81613700565b9050919050565b600061374e826125c6565b9150613759836125c6565b925082820390508181111561377157613770612c0c565b5b92915050565b7f496e697469616c697a61626c653a20636f6e7472616374206973206e6f74206960008201527f6e697469616c697a696e67000000000000000000000000000000000000000000602082015250565b60006137d3602b836124ad565b91506137de82613777565b604082019050919050565b60006020820190508181036000830152613802816137c6565b9050919050565b7f45524332303a206d696e7420746f20746865207a65726f206164647265737300600082015250565b600061383f601f836124ad565b915061384a82613809565b602082019050919050565b6000602082019050818103600083015261386e81613832565b9050919050565b7f455243313936373a206e657720696d706c656d656e746174696f6e206973206e60008201527f6f74206120636f6e747261637400000000000000000000000000000000000000602082015250565b60006138d1602d836124ad565b91506138dc82613875565b604082019050919050565b60006020820190508181036000830152613900816138c4565b9050919050565b7f5061757361626c653a206e6f7420706175736564000000000000000000000000600082015250565b600061393d6014836124ad565b915061394882613907565b602082019050919050565b6000602082019050818103600083015261396c81613930565b9050919050565b60008190508160005260206000209050919050565b60006020601f8301049050919050565b600082821b905092915050565b6000600883026139d57fffffffffffffffffffffffffffffffffffffffffffffffffffffffffffffffff82613998565b6139df8683613998565b95508019841693508086168417925050509392505050565b6000613a12613a0d613a08846125c6565b612f0a565b6125c6565b9050919050565b6000819050919050565b613a2c836139f7565b613a40613a3882613a19565b8484546139a5565b825550505050565b600090565b613a55613a48565b613a60818484613a23565b505050565b5b81811015613a8457613a79600082613a4d565b600181019050613a66565b5050565b601f821115613ac957613a9a81613973565b613aa384613988565b81016020851015613ab2578190505b613ac6613abe85613988565b830182613a65565b50505b505050565b600082821c905092915050565b6000613aec60001984600802613ace565b1980831691505092915050565b6000613b058383613adb565b9150826002028217905092915050565b613b1e826124a2565b67ffffffffffffffff811115613b3757613b3661284d565b5b613b418254612ab7565b613b4c828285613a88565b600060209050601f831160018114613b7f5760008415613b6d578287015190505b613b778582613af9565b865550613bdf565b601f198416613b8d86613973565b60005b82811015613bb557848901518255600182019150602085019450602081019050613b90565b86831015613bd25784890151613bce601f891682613adb565b8355505b6001600288020188555050505b505050505050565b7f416464726573733a2064656c65676174652063616c6c20746f206e6f6e2d636f60008201527f6e74726163740000000000000000000000000000000000000000000000000000602082015250565b6000613c436026836124ad565b9150613c4e82613be7565b604082019050919050565b60006020820190508181036000830152613c7281613c36565b9050919050565b600081519050919050565b600081905092915050565b6000613c9a82613c79565b613ca48185613c84565b9350613cb48185602086016124be565b80840191505092915050565b6000613ccc8284613c8f565b91508190509291505056fe416464726573733a206c6f772d6c6576656c2064656c65676174652063616c6c206661696c6564a264697066735822122080316b6a8285dcd8f5ad4a64bb9cfaf6a69bde517edcaa072b9e3a231c6c622064736f6c63430008110033",
  "linkReferences": {},
  "deployedLinkReferences": {}
}