{
  "_format": "hh-sol-artifact-1",
  "contractName": "EscrowINRC",
  "sourceName": "contracts/P2PINRC.sol",
  "abi": [
    {
      "inputs": [],
      "stateMutability": "nonpayable",
      "type": "constructor"
    },
    {
      "anonymous": false,
      "inputs": [
        {
          "indexed": false,
          "internalType": "address",
          "name": "previousAdmin",
          "type": "address"
        },
        {
          "indexed": false,
          "internalType": "address",
          "name": "newAdmin",
          "type": "address"
        }
      ],
      "name": "AdminChanged",
      "type": "event"
    },
    {
      "anonymous": false,
      "inputs": [
        {
          "indexed": true,
          "internalType": "address",
          "name": "beacon",
          "type": "address"
        }
      ],
      "name": "BeaconUpgraded",
      "type": "event"
    },
    {
      "anonymous": false,
      "inputs": [
        {
          "indexed": false,
          "internalType": "uint256",
          "name": "_TradeCloneID",
          "type": "uint256"
        },
        {
          "indexed": false,
          "internalType": "address",
          "name": "Buyer",
          "type": "address"
        },
        {
          "indexed": false,
          "internalType": "uint256",
          "name": "_amount",
          "type": "uint256"
        }
      ],
      "name": "BuyerDeposit",
      "type": "event"
    },
    {
      "anonymous": false,
      "inputs": [
        {
          "indexed": false,
          "internalType": "uint8",
          "name": "version",
          "type": "uint8"
        }
      ],
      "name": "Initialized",
      "type": "event"
    },
    {
      "anonymous": false,
      "inputs": [
        {
          "indexed": true,
          "internalType": "address",
          "name": "previousOwner",
          "type": "address"
        },
        {
          "indexed": true,
          "internalType": "address",
          "name": "newOwner",
          "type": "address"
        }
      ],
      "name": "OwnershipTransferred",
      "type": "event"
    },
    {
      "anonymous": false,
      "inputs": [
        {
          "indexed": false,
          "internalType": "address",
          "name": "account",
          "type": "address"
        }
      ],
      "name": "Paused",
      "type": "event"
    },
    {
      "anonymous": false,
      "inputs": [
        {
          "indexed": false,
          "internalType": "uint256",
          "name": "_TradeCloneid",
          "type": "uint256"
        },
        {
          "indexed": false,
          "internalType": "address",
          "name": "Seller",
          "type": "address"
        },
        {
          "indexed": false,
          "internalType": "uint256",
          "name": "_amount",
          "type": "uint256"
        }
      ],
      "name": "Sellerwithdraw",
      "type": "event"
    },
    {
      "anonymous": false,
      "inputs": [
        {
          "indexed": false,
          "internalType": "uint256",
          "name": "_swapID",
          "type": "uint256"
        },
        {
          "indexed": false,
          "internalType": "uint256",
          "name": "Parent",
          "type": "uint256"
        },
        {
          "indexed": false,
          "internalType": "address",
          "name": "Buyer",
          "type": "address"
        }
      ],
      "name": "SwapComplete",
      "type": "event"
    },
    {
      "anonymous": false,
      "inputs": [
        {
          "indexed": false,
          "internalType": "address",
          "name": "account",
          "type": "address"
        }
      ],
      "name": "Unpaused",
      "type": "event"
    },
    {
      "anonymous": false,
      "inputs": [
        {
          "indexed": true,
          "internalType": "address",
          "name": "implementation",
          "type": "address"
        }
      ],
      "name": "Upgraded",
      "type": "event"
    },
    {
      "anonymous": false,
      "inputs": [
        {
          "indexed": false,
          "internalType": "uint256",
          "name": "_Tradeid",
          "type": "uint256"
        },
        {
          "indexed": false,
          "internalType": "address",
          "name": "Seller",
          "type": "address"
        },
        {
          "indexed": false,
          "internalType": "uint256",
          "name": "_amount",
          "type": "uint256"
        }
      ],
      "name": "refunded",
      "type": "event"
    },
    {
      "anonymous": false,
      "inputs": [
        {
          "indexed": false,
          "internalType": "uint256",
          "name": "_SwapID",
          "type": "uint256"
        },
        {
          "indexed": false,
          "internalType": "address",
          "name": "Buyer",
          "type": "address"
        }
      ],
      "name": "swapCreated",
      "type": "event"
    },
    {
      "anonymous": false,
      "inputs": [
        {
          "indexed": false,
          "internalType": "uint256",
          "name": "_TradeCloneid",
          "type": "uint256"
        },
        {
          "indexed": false,
          "internalType": "address",
          "name": "Seller",
          "type": "address"
        }
      ],
      "name": "tradeCloneCreated",
      "type": "event"
    },
    {
      "anonymous": false,
      "inputs": [
        {
          "indexed": false,
          "internalType": "uint256",
          "name": "_Tradeid",
          "type": "uint256"
        },
        {
          "indexed": false,
          "internalType": "address",
          "name": "Seller",
          "type": "address"
        },
        {
          "indexed": false,
          "internalType": "uint256",
          "name": "_amount",
          "type": "uint256"
        }
      ],
      "name": "tradeCreated",
      "type": "event"
    },
    {
      "inputs": [],
      "name": "CHTBalance",
      "outputs": [
        {
          "internalType": "uint256",
          "name": "",
          "type": "uint256"
        }
      ],
      "stateMutability": "view",
      "type": "function"
    },
    {
      "inputs": [
        {
          "internalType": "address",
          "name": "",
          "type": "address"
        },
        {
          "internalType": "uint256",
          "name": "",
          "type": "uint256"
        }
      ],
      "name": "FeePaidCHT",
      "outputs": [
        {
          "internalType": "bool",
          "name": "",
          "type": "bool"
        }
      ],
      "stateMutability": "view",
      "type": "function"
    },
    {
      "inputs": [],
      "name": "Feetoken",
      "outputs": [
        {
          "internalType": "address",
          "name": "",
          "type": "address"
        }
      ],
      "stateMutability": "view",
      "type": "function"
    },
    {
      "inputs": [],
      "name": "INRC",
      "outputs": [
        {
          "internalType": "address",
          "name": "",
          "type": "address"
        }
      ],
      "stateMutability": "view",
      "type": "function"
    },
    {
      "inputs": [
        {
          "internalType": "uint256",
          "name": "_tradeid",
          "type": "uint256"
        },
        {
          "internalType": "uint256",
          "name": "_amount",
          "type": "uint256"
        }
      ],
      "name": "PayFeeCHT",
      "outputs": [],
      "stateMutability": "nonpayable",
      "type": "function"
    },
    {
      "inputs": [
        {
          "internalType": "uint256",
          "name": "",
          "type": "uint256"
        }
      ],
      "name": "SwapTrack",
      "outputs": [
        {
          "internalType": "uint256",
          "name": "id",
          "type": "uint256"
        },
        {
          "internalType": "uint256",
          "name": "parentTradeID",
          "type": "uint256"
        },
        {
          "internalType": "address",
          "name": "buyer",
          "type": "address"
        },
        {
          "internalType": "uint256",
          "name": "WithdrawAmount",
          "type": "uint256"
        },
        {
          "internalType": "uint256",
          "name": "feeAmount",
          "type": "uint256"
        },
        {
          "internalType": "bool",
          "name": "CompletionStatus",
          "type": "bool"
        }
      ],
      "stateMutability": "view",
      "type": "function"
    },
    {
      "inputs": [
        {
          "internalType": "uint256",
          "name": "",
          "type": "uint256"
        }
      ],
      "name": "TradeCloneTrack",
      "outputs": [
        {
          "internalType": "uint256",
          "name": "id",
          "type": "uint256"
        },
        {
          "internalType": "address",
          "name": "seller",
          "type": "address"
        },
        {
          "internalType": "uint256",
          "name": "endtime",
          "type": "uint256"
        },
        {
          "internalType": "uint256",
          "name": "MaxBalance",
          "type": "uint256"
        },
        {
          "internalType": "uint256",
          "name": "currentBalance",
          "type": "uint256"
        },
        {
          "internalType": "uint32",
          "name": "originchainID",
          "type": "uint32"
        },
        {
          "internalType": "uint32",
          "name": "secondaryChainID",
          "type": "uint32"
        },
        {
          "internalType": "uint256",
          "name": "feeAmount",
          "type": "uint256"
        }
      ],
      "stateMutability": "view",
      "type": "function"
    },
    {
      "inputs": [
        {
          "internalType": "uint256",
          "name": "",
          "type": "uint256"
        }
      ],
      "name": "TradeTrack",
      "outputs": [
        {
          "internalType": "uint256",
          "name": "id",
          "type": "uint256"
        },
        {
          "internalType": "address",
          "name": "seller",
          "type": "address"
        },
        {
          "internalType": "uint256",
          "name": "endtime",
          "type": "uint256"
        },
        {
          "internalType": "uint256",
          "name": "DepositValue",
          "type": "uint256"
        },
        {
          "internalType": "uint256",
          "name": "AvailableValue",
          "type": "uint256"
        },
        {
          "internalType": "uint32",
          "name": "originchainID",
          "type": "uint32"
        },
        {
          "internalType": "uint32",
          "name": "secondaryChainID",
          "type": "uint32"
        }
      ],
      "stateMutability": "view",
      "type": "function"
    },
    {
      "inputs": [
        {
          "internalType": "uint256",
          "name": "_id",
          "type": "uint256"
        },
        {
          "internalType": "uint256",
          "name": "_amount",
          "type": "uint256"
        }
      ],
      "name": "depositBuyer",
      "outputs": [],
      "stateMutability": "nonpayable",
      "type": "function"
    },
    {
      "inputs": [
        {
          "internalType": "address",
          "name": "_seller",
          "type": "address"
        },
        {
          "internalType": "uint256",
          "name": "_id",
          "type": "uint256"
        },
        {
          "internalType": "uint256",
          "name": "_amount",
          "type": "uint256"
        },
        {
          "internalType": "uint256",
          "name": "_endtime",
          "type": "uint256"
        }
      ],
      "name": "depositSeller",
      "outputs": [],
      "stateMutability": "nonpayable",
      "type": "function"
    },
    {
      "inputs": [],
      "name": "feeCollected",
      "outputs": [
        {
          "internalType": "uint256",
          "name": "",
          "type": "uint256"
        }
      ],
      "stateMutability": "view",
      "type": "function"
    },
    {
      "inputs": [],
      "name": "initialize",
      "outputs": [],
      "stateMutability": "nonpayable",
      "type": "function"
    },
    {
      "inputs": [],
      "name": "owner",
      "outputs": [
        {
          "internalType": "address",
          "name": "",
          "type": "address"
        }
      ],
      "stateMutability": "view",
      "type": "function"
    },
    {
      "inputs": [],
      "name": "pause",
      "outputs": [],
      "stateMutability": "nonpayable",
      "type": "function"
    },
    {
      "inputs": [],
      "name": "paused",
      "outputs": [
        {
          "internalType": "bool",
          "name": "",
          "type": "bool"
        }
      ],
      "stateMutability": "view",
      "type": "function"
    },
    {
      "inputs": [],
      "name": "proxiableUUID",
      "outputs": [
        {
          "internalType": "bytes32",
          "name": "",
          "type": "bytes32"
        }
      ],
      "stateMutability": "view",
      "type": "function"
    },
    {
      "inputs": [
        {
          "internalType": "uint256",
          "name": "_id",
          "type": "uint256"
        }
      ],
      "name": "refundSeller",
      "outputs": [],
      "stateMutability": "nonpayable",
      "type": "function"
    },
    {
      "inputs": [],
      "name": "renounceOwnership",
      "outputs": [],
      "stateMutability": "nonpayable",
      "type": "function"
    },
    {
      "inputs": [
        {
          "internalType": "address",
          "name": "_token",
          "type": "address"
        },
        {
          "internalType": "address",
          "name": "_CHT",
          "type": "address"
        }
      ],
      "name": "setINRCAddress",
      "outputs": [],
      "stateMutability": "nonpayable",
      "type": "function"
    },
    {
      "inputs": [
        {
          "internalType": "uint256",
          "name": "_id",
          "type": "uint256"
        },
        {
          "internalType": "uint256",
          "name": "_parentID",
          "type": "uint256"
        },
        {
          "internalType": "address",
          "name": "_buyer",
          "type": "address"
        },
        {
          "internalType": "uint256",
          "name": "_withdrawamount",
          "type": "uint256"
        },
        {
          "internalType": "uint256",
          "name": "_feeAmount",
          "type": "uint256"
        }
      ],
      "name": "setSwapID",
      "outputs": [],
      "stateMutability": "nonpayable",
      "type": "function"
    },
    {
      "inputs": [
        {
          "internalType": "uint256",
          "name": "_id",
          "type": "uint256"
        },
        {
          "internalType": "address",
          "name": "_seller",
          "type": "address"
        },
        {
          "internalType": "uint256",
          "name": "_endtime",
          "type": "uint256"
        },
        {
          "internalType": "uint256",
          "name": "_maxAmount",
          "type": "uint256"
        },
        {
          "internalType": "uint256",
          "name": "_feetoBepaid",
          "type": "uint256"
        }
      ],
      "name": "setTradeCloneID",
      "outputs": [],
      "stateMutability": "nonpayable",
      "type": "function"
    },
    {
      "inputs": [
        {
          "internalType": "address",
          "name": "newOwner",
          "type": "address"
        }
      ],
      "name": "transferOwnership",
      "outputs": [],
      "stateMutability": "nonpayable",
      "type": "function"
    },
    {
      "inputs": [],
      "name": "unpause",
      "outputs": [],
      "stateMutability": "nonpayable",
      "type": "function"
    },
    {
      "inputs": [
        {
          "internalType": "address",
          "name": "newImplementation",
          "type": "address"
        }
      ],
      "name": "upgradeTo",
      "outputs": [],
      "stateMutability": "nonpayable",
      "type": "function"
    },
    {
      "inputs": [
        {
          "internalType": "address",
          "name": "newImplementation",
          "type": "address"
        },
        {
          "internalType": "bytes",
          "name": "data",
          "type": "bytes"
        }
      ],
      "name": "upgradeToAndCall",
      "outputs": [],
      "stateMutability": "payable",
      "type": "function"
    },
    {
      "inputs": [
        {
          "internalType": "uint256",
          "name": "_id",
          "type": "uint256"
        }
      ],
      "name": "withDrawBuyer",
      "outputs": [],
      "stateMutability": "nonpayable",
      "type": "function"
    },
    {
      "inputs": [],
      "name": "withdrawFee",
      "outputs": [],
      "stateMutability": "nonpayable",
      "type": "function"
    }
  ],
  "bytecode": "0x60a06040523073ffffffffffffffffffffffffffffffffffffffff1660809073ffffffffffffffffffffffffffffffffffffffff168152503480156200004457600080fd5b506200006167fe4776130fc87f2360c01b620000af60201b60201c565b6200007d6748991f18df95a5a860c01b620000af60201b60201c565b62000099671b5da8235a22b85d60c01b620000af60201b60201c565b620000a9620000b260201b60201c565b6200025d565b50565b600060019054906101000a900460ff161562000105576040517f08c379a0000000000000000000000000000000000000000000000000000000008152600401620000fc9062000200565b60405180910390fd5b60ff801660008054906101000a900460ff1660ff161015620001775760ff6000806101000a81548160ff021916908360ff1602179055507f7f26b83ff96e1f2b6a682f133852f6798a09c465da95921460cefb384740249860ff6040516200016e919062000240565b60405180910390a15b565b600082825260208201905092915050565b7f496e697469616c697a61626c653a20636f6e747261637420697320696e69746960008201527f616c697a696e6700000000000000000000000000000000000000000000000000602082015250565b6000620001e860278362000179565b9150620001f5826200018a565b604082019050919050565b600060208201905081810360008301526200021b81620001d9565b9050919050565b600060ff82169050919050565b6200023a8162000222565b82525050565b60006020820190506200025760008301846200022f565b92915050565b6080516176156200029560003960008181610b2101528181610baf01528181610d1f01528181610dad0152610e5d01526176156000f3fe60806040526004361061019c5760003560e01c80636ca7f95c116100ec5780638da5cb5b1161008a5780639fd6b265116100645780639fd6b2651461056b578063d3a95fde14610594578063e941fa78146105bd578063f2fde38b146105d45761019c565b80638da5cb5b146104ec578063906f130e146105175780639d7c1960146105425761019c565b80637f6bffd3116100c65780637f6bffd3146104395780637f9d22581461047b5780638129fc1c146104be5780638456cb59146104d55761019c565b80636ca7f95c146103cc578063715018a6146103f75780637abc498f1461040e5761019c565b80633f4ba83a1161015957806358830d361161013357806358830d36146103265780635c975abb1461034f5780636537e0b71461037a5780636ac47fac146103a35761019c565b80633f4ba83a146102c85780634f1ef286146102df57806352d1902d146102fb5761019c565b8063037f61a5146101a157806313cf372f146101ca57806315a054a414610207578063190220101461023257806319b56917146102765780633659cfe61461029f575b600080fd5b3480156101ad57600080fd5b506101c860048036038101906101c3919061569a565b6105fd565b005b3480156101d657600080fd5b506101f160048036038101906101ec9190615738565b61093e565b6040516101fe9190615793565b60405180910390f35b34801561021357600080fd5b5061021c61096e565b60405161022991906157bd565b60405180910390f35b34801561023e57600080fd5b50610259600480360381019061025491906157d8565b610975565b60405161026d989796959493929190615833565b60405180910390f35b34801561028257600080fd5b5061029d600480360381019061029891906158b1565b6109fd565b005b3480156102ab57600080fd5b506102c660048036038101906102c191906158f1565b610b1f565b005b3480156102d457600080fd5b506102dd610ca7565b005b6102f960048036038101906102f49190615a64565b610d1d565b005b34801561030757600080fd5b50610310610e59565b60405161031d9190615ad9565b60405180910390f35b34801561033257600080fd5b5061034d6004803603810190610348919061569a565b610f12565b005b34801561035b57600080fd5b50610364611cfb565b6040516103719190615793565b60405180910390f35b34801561038657600080fd5b506103a1600480360381019061039c91906157d8565b611d12565b005b3480156103af57600080fd5b506103ca60048036038101906103c59190615af4565b6125e8565b005b3480156103d857600080fd5b506103e1612ccd565b6040516103ee91906157bd565b60405180910390f35b34801561040357600080fd5b5061040c612cd4565b005b34801561041a57600080fd5b50610423612ce8565b6040516104309190615b5b565b60405180910390f35b34801561044557600080fd5b50610460600480360381019061045b91906157d8565b612d0e565b60405161047296959493929190615b76565b60405180910390f35b34801561048757600080fd5b506104a2600480360381019061049d91906157d8565b612d77565b6040516104b59796959493929190615bd7565b60405180910390f35b3480156104ca57600080fd5b506104d3612df9565b005b3480156104e157600080fd5b506104ea612ffb565b005b3480156104f857600080fd5b50610501613071565b60405161050e9190615b5b565b60405180910390f35b34801561052357600080fd5b5061052c61309b565b6040516105399190615b5b565b60405180910390f35b34801561054e57600080fd5b5061056960048036038101906105649190615c46565b6130c1565b005b34801561057757600080fd5b50610592600480360381019061058d9190615cc1565b6135f5565b005b3480156105a057600080fd5b506105bb60048036038101906105b691906157d8565b613bdf565b005b3480156105c957600080fd5b506105d2614920565b005b3480156105e057600080fd5b506105fb60048036038101906105f691906158f1565b614c93565b005b6106116714350d2821b8395160c01b614d16565b610619614d19565b61062d678dc64e9895beb13460c01b614d16565b610641675945bb57b13107bb60c01b614d16565b6106556778df2ace2f1aa16760c01b614d16565b610669674cb2d7e913c3c2f360c01b614d16565b61067d6782b05d1fcdc999cf60c01b614d16565b600081116106c0576040517f08c379a00000000000000000000000000000000000000000000000000000000081526004016106b790615d99565b60405180910390fd5b6106d467927825d5b71ae17060c01b614d16565b6106e86777917e3782dd9c4860c01b614d16565b6106fc67075e35156b27225f60c01b614d16565b61071067d75bab003dd386c160c01b614d16565b61010260003373ffffffffffffffffffffffffffffffffffffffff1673ffffffffffffffffffffffffffffffffffffffff168152602001908152602001600020600083815260200190815260200160002060009054906101000a900460ff16156107af576040517f08c379a00000000000000000000000000000000000000000000000000000000081526004016107a690615e05565b60405180910390fd5b6107c3672e0cfe32adb9623460c01b614d16565b6107d7678b849006b84017da60c01b614d16565b8061010760008282546107ea9190615e54565b9250508190555061080567e1af1d7af0b7fa6560c01b614d16565b600161010260003373ffffffffffffffffffffffffffffffffffffffff1673ffffffffffffffffffffffffffffffffffffffff168152602001908152602001600020600084815260200190815260200160002060006101000a81548160ff021916908315150217905550610883678f26d323ad926f3a60c01b614d16565b61089767e41642a1752a504c60c01b614d16565b60ff60009054906101000a900473ffffffffffffffffffffffffffffffffffffffff1673ffffffffffffffffffffffffffffffffffffffff166323b872dd3330846040518463ffffffff1660e01b81526004016108f693929190615e88565b6020604051808303816000875af1158015610915573d6000803e3d6000fd5b505050506040513d601f19601f820116820180604052508101906109399190615eeb565b505050565b6101026020528160005260406000206020528060005260406000206000915091509054906101000a900460ff1681565b6101075481565b60fc6020528060005260406000206000915090508060000154908060010160009054906101000a900473ffffffffffffffffffffffffffffffffffffffff16908060020154908060030154908060040154908060050160009054906101000a900463ffffffff16908060050160049054906101000a900463ffffffff16908060060154905088565b610a1167ae1e0218583c8d4960c01b614d16565b610a19614d19565b610a2d67c6f9cf48d4b3571e60c01b614d16565b610a4167e14fe1f9acb0c4c060c01b614d16565b610a49614d63565b610a5d672c11ca01fc191c1860c01b614d16565b610a7167141e6bb051332d0160c01b614d16565b610a85670503c11b88eb182460c01b614d16565b8160fe60006101000a81548173ffffffffffffffffffffffffffffffffffffffff021916908373ffffffffffffffffffffffffffffffffffffffff160217905550610ada67a1d58c52bfff0d3060c01b614d16565b8060ff60006101000a81548173ffffffffffffffffffffffffffffffffffffffff021916908373ffffffffffffffffffffffffffffffffffffffff1602179055505050565b7f000000000000000000000000000000000000000000000000000000000000000073ffffffffffffffffffffffffffffffffffffffff163073ffffffffffffffffffffffffffffffffffffffff1603610bad576040517f08c379a0000000000000000000000000000000000000000000000000000000008152600401610ba490615f8a565b60405180910390fd5b7f000000000000000000000000000000000000000000000000000000000000000073ffffffffffffffffffffffffffffffffffffffff16610bec614de1565b73ffffffffffffffffffffffffffffffffffffffff1614610c42576040517f08c379a0000000000000000000000000000000000000000000000000000000008152600401610c399061601c565b60405180910390fd5b610c4b81614e38565b610ca481600067ffffffffffffffff811115610c6a57610c69615939565b5b6040519080825280601f01601f191660200182016040528015610c9c5781602001600182028036833780820191505090505b506000614e7f565b50565b610cbb67f0d1f9a43e41f68b60c01b614d16565b610cc3614d63565b610cd7673ee3378964e022ed60c01b614d16565b610ceb672a50bb60e75b720860c01b614d16565b610cff675bd2c4e318e4e46660c01b614d16565b610d136770a7cd2317137afc60c01b614d16565b610d1b614fed565b565b7f000000000000000000000000000000000000000000000000000000000000000073ffffffffffffffffffffffffffffffffffffffff163073ffffffffffffffffffffffffffffffffffffffff1603610dab576040517f08c379a0000000000000000000000000000000000000000000000000000000008152600401610da290615f8a565b60405180910390fd5b7f000000000000000000000000000000000000000000000000000000000000000073ffffffffffffffffffffffffffffffffffffffff16610dea614de1565b73ffffffffffffffffffffffffffffffffffffffff1614610e40576040517f08c379a0000000000000000000000000000000000000000000000000000000008152600401610e379061601c565b60405180910390fd5b610e4982614e38565b610e5582826001614e7f565b5050565b60007f000000000000000000000000000000000000000000000000000000000000000073ffffffffffffffffffffffffffffffffffffffff163073ffffffffffffffffffffffffffffffffffffffff1614610ee9576040517f08c379a0000000000000000000000000000000000000000000000000000000008152600401610ee0906160ae565b60405180910390fd5b7f360894a13ba1a3210667c828492db98dca3e2076cc3735a920a3ca505d382bbc60001b905090565b610f2667e4d5dcfe88eb2a7760c01b614d16565b610f2e614d19565b610f4267f9099c791f838f0960c01b614d16565b610f566704c83641abc10c2b60c01b614d16565b610f6a6774a4a900ab2a608260c01b614d16565b610f7e67cbdfed3b054fa9b560c01b614d16565b610f92677812ce358e7be2f560c01b614d16565b61010260003373ffffffffffffffffffffffffffffffffffffffff1673ffffffffffffffffffffffffffffffffffffffff168152602001908152602001600020600083815260200190815260200160002060009054906101000a900460ff16611030576040517f08c379a00000000000000000000000000000000000000000000000000000000081526004016110279061611a565b60405180910390fd5b6110446750ccfdf9d63fab7f60c01b614d16565b61105867bc4a2e6c372b352760c01b614d16565b61106c67cf1d0b2e5256cdbb60c01b614d16565b611080678c31155fac452e0460c01b614d16565b600081116110c3576040517f08c379a00000000000000000000000000000000000000000000000000000000081526004016110ba90616186565b60405180910390fd5b6110d767daf1ba2c10e6349260c01b614d16565b6110eb6754aeb32cf5d2b76d60c01b614d16565b6110ff671bce031b20a1ea2560c01b614d16565b611113677b10ec7c0845523260c01b614d16565b610100600083815260200190815260200160002060009054906101000a900460ff16611174576040517f08c379a000000000000000000000000000000000000000000000000000000000815260040161116b906161f2565b60405180910390fd5b611188675cc372ff43122a5460c01b614d16565b61119c67d8a4d523282a4a5060c01b614d16565b6111b0679eecf780b8be7c3c60c01b614d16565b6111c4678fe1a7921af005d160c01b614d16565b610105600083815260200190815260200160002060009054906101000a900460ff1615611226576040517f08c379a000000000000000000000000000000000000000000000000000000000815260040161121d90616284565b60405180910390fd5b61123a670a2fd3b1ffe561ac60c01b614d16565b61124e67e56beddc85cdf98c60c01b614d16565b6001610105600084815260200190815260200160002060006101000a81548160ff02191690831515021790555061128f67985f44e8c92740f260c01b614d16565b6112a3676e2e373e17dba7d060c01b614d16565b6112b7679e39d92f96115c6c60c01b614d16565b61010160003373ffffffffffffffffffffffffffffffffffffffff1673ffffffffffffffffffffffffffffffffffffffff168152602001908152602001600020600083815260200190815260200160002060009054906101000a900460ff1615611356576040517f08c379a000000000000000000000000000000000000000000000000000000000815260040161134d90616316565b60405180910390fd5b61136a674a4693de053ec1d160c01b614d16565b61137e67e78787b69627afa460c01b614d16565b600161010160003373ffffffffffffffffffffffffffffffffffffffff1673ffffffffffffffffffffffffffffffffffffffff168152602001908152602001600020600084815260200190815260200160002060006101000a81548160ff0219169083151502179055506113fc67b93ed140f8491e3560c01b614d16565b6114106722c89482d5ffdaa760c01b614d16565b600060fc600084815260200190815260200160002060405180610100016040529081600082015481526020016001820160009054906101000a900473ffffffffffffffffffffffffffffffffffffffff1673ffffffffffffffffffffffffffffffffffffffff1673ffffffffffffffffffffffffffffffffffffffff1681526020016002820154815260200160038201548152602001600482015481526020016005820160009054906101000a900463ffffffff1663ffffffff1663ffffffff1681526020016005820160049054906101000a900463ffffffff1663ffffffff1663ffffffff168152602001600682015481525050905061151b67c07bd87c38dd198d60c01b614d16565b61152f671a92ee7c0878ed3960c01b614d16565b61154367eff531b1c70a823b60c01b614d16565b600073ffffffffffffffffffffffffffffffffffffffff16816020015173ffffffffffffffffffffffffffffffffffffffff16036115b6576040517f08c379a00000000000000000000000000000000000000000000000000000000081526004016115ad90616382565b60405180910390fd5b6115ca67b8b5eee8f2fe35e960c01b614d16565b6115de673d3b627f3639fef560c01b614d16565b6115f2670a77b40c857b758460c01b614d16565b60008160200151905061160f670166c68e06009f8460c01b614d16565b61162367fedac267c94a943260c01b614d16565b61163767a7f1b3d144cbe49c60c01b614d16565b8073ffffffffffffffffffffffffffffffffffffffff163373ffffffffffffffffffffffffffffffffffffffff16036116a5576040517f08c379a000000000000000000000000000000000000000000000000000000000815260040161169c906163ee565b60405180910390fd5b6116b9672756ec00401a102760c01b614d16565b6116cd67842e7363008b39a860c01b614d16565b6116e1678f67cef575e611dd60c01b614d16565b6116f5672be588df8048830160c01b614d16565b816060015183836080015161170a9190615e54565b1061174a576040517f08c379a00000000000000000000000000000000000000000000000000000000081526004016117419061645a565b60405180910390fd5b61175e67cd24adfff7f288ff60c01b614d16565b6117726706225a7227976c5860c01b614d16565b611786671017865d7926f21c60c01b614d16565b61179a678dd591e607e2d1c660c01b614d16565b816040015142106117e0576040517f08c379a00000000000000000000000000000000000000000000000000000000081526004016117d7906164c6565b60405180910390fd5b6117f467677f6d4b8f4506bd60c01b614d16565b61180867241e86953b0c234760c01b614d16565b61181c67291fca4f56b9292b60c01b614d16565b60008260e00151905061183967a3a484e10b79fc9e60c01b614d16565b61184d6731b863936b797ab960c01b614d16565b6118616720ecae97c1260da160c01b614d16565b8084116118a3576040517f08c379a000000000000000000000000000000000000000000000000000000000815260040161189a90616532565b60405180910390fd5b6118b7679bafc89ea48a908a60c01b614d16565b6118cb679ea7a43c805d74be60c01b614d16565b6118df674645ac8a1a9f6ee860c01b614d16565b60008114611a18576118fb6784d30401809a3f4e60c01b614d16565b61190f67e55ea0725f7953ed60c01b614d16565b611923675cbcd71627d813d160c01b614d16565b60fe60009054906101000a900473ffffffffffffffffffffffffffffffffffffffff1673ffffffffffffffffffffffffffffffffffffffff166323b872dd3330846040518463ffffffff1660e01b815260040161198293929190615e88565b6020604051808303816000875af11580156119a1573d6000803e3d6000fd5b505050506040513d601f19601f820116820180604052508101906119c59190615eeb565b506119da670a9899f5af9066cd60c01b614d16565b8061010660008282546119ed9190615e54565b92505081905550611a0867017dc6574879c88960c01b614d16565b60008360e0018181525050611a2d565b611a2c6727872fdfd3df831e60c01b614d16565b5b611a416778bd06028db637b860c01b614d16565b611a5567090e98ca2f87b01260c01b614d16565b60008185611a639190616552565b9050611a7967d2b4a73c0a225a8460c01b614d16565b8484608001818151611a8b9190615e54565b91508181525050611aa6676854ff171e38a39260c01b614d16565b8360fc60008881526020019081526020016000206000820151816000015560208201518160010160006101000a81548173ffffffffffffffffffffffffffffffffffffffff021916908373ffffffffffffffffffffffffffffffffffffffff16021790555060408201518160020155606082015181600301556080820151816004015560a08201518160050160006101000a81548163ffffffff021916908363ffffffff16021790555060c08201518160050160046101000a81548163ffffffff021916908363ffffffff16021790555060e08201518160060155905050611b98679725f7660a8ec56e60c01b614d16565b6000610105600088815260200190815260200160002060006101000a81548160ff021916908315150217905550611bd96751f88d17c103867760c01b614d16565b611bed6772d2ddf6193ddf3860c01b614d16565b60fe60009054906101000a900473ffffffffffffffffffffffffffffffffffffffff1673ffffffffffffffffffffffffffffffffffffffff166323b872dd3385846040518463ffffffff1660e01b8152600401611c4c93929190615e88565b6020604051808303816000875af1158015611c6b573d6000803e3d6000fd5b505050506040513d601f19601f82011682018060405250810190611c8f9190615eeb565b50611ca4677448c17ce234fe1260c01b614d16565b611cb8671211f9024b16b81560c01b614d16565b7f0e59104d78356648ea023bd00b5f93cf6e40a67c3d6878d137423c4a65320530863387604051611ceb93929190616586565b60405180910390a1505050505050565b600060c960009054906101000a900460ff16905090565b611d26672874a2dc0c61f73060c01b614d16565b611d2e614d19565b611d4267993a933dc3ec4f1160c01b614d16565b611d56673b68d43638ba4aa260c01b614d16565b611d6a670f465df7e1f26c8060c01b614d16565b611d7e67241836c5d27084fe60c01b614d16565b611d9267d4050214f37cdbbb60c01b614d16565b61010260003373ffffffffffffffffffffffffffffffffffffffff1673ffffffffffffffffffffffffffffffffffffffff168152602001908152602001600020600082815260200190815260200160002060009054906101000a900460ff16611e30576040517f08c379a0000000000000000000000000000000000000000000000000000000008152600401611e279061611a565b60405180910390fd5b611e446729d7cf56a553acf760c01b614d16565b611e58672fb2109b09d5d42c60c01b614d16565b611e6c672a10c3ba6d0b3e5d60c01b614d16565b611e8067f66f0543fec52f4260c01b614d16565b610104600082815260200190815260200160002060009054906101000a900460ff1615611ee2576040517f08c379a0000000000000000000000000000000000000000000000000000000008152600401611ed990616284565b60405180910390fd5b611ef66757347e14a5e3cb5860c01b614d16565b611f0a679b01d4ad1ee6406b60c01b614d16565b6001610104600083815260200190815260200160002060006101000a81548160ff021916908315150217905550611f4b679ec620e8a928d66960c01b614d16565b611f5f67ceec23121f83701f60c01b614d16565b600060fb60008381526020019081526020016000206040518060e0016040529081600082015481526020016001820160009054906101000a900473ffffffffffffffffffffffffffffffffffffffff1673ffffffffffffffffffffffffffffffffffffffff1673ffffffffffffffffffffffffffffffffffffffff1681526020016002820154815260200160038201548152602001600482015481526020016005820160009054906101000a900463ffffffff1663ffffffff1663ffffffff1681526020016005820160049054906101000a900463ffffffff1663ffffffff1663ffffffff1681525050905061205f678a31c02e9b41f3aa60c01b614d16565b6120736714a53bcf7755f56060c01b614d16565b612087675782978aa02238e060c01b614d16565b806020015173ffffffffffffffffffffffffffffffffffffffff163373ffffffffffffffffffffffffffffffffffffffff16146120f9576040517f08c379a00000000000000000000000000000000000000000000000000000000081526004016120f090616609565b60405180910390fd5b61210d67d0991670515c24e360c01b614d16565b61212167e1b47c9cccedad7060c01b614d16565b612135678c8b03b1b294b6b260c01b614d16565b6121496736a0c5499b04aced60c01b614d16565b610100600083815260200190815260200160002060009054906101000a900460ff166121aa576040517f08c379a00000000000000000000000000000000000000000000000000000000081526004016121a190616675565b60405180910390fd5b6121be67b958c30a42c48fdf60c01b614d16565b6121d2673523a45d14712cea60c01b614d16565b6121e667935b6c29c1ce771060c01b614d16565b6121fa678b0e6fd7def62f1e60c01b614d16565b6000816080015111612241576040517f08c379a000000000000000000000000000000000000000000000000000000000815260040161223890616707565b60405180910390fd5b61225567d29adbf8c24259c760c01b614d16565b612269673bebd582515fb78c60c01b614d16565b61227d671403b6265cc0d74a60c01b614d16565b612291670c4320eab6e54abe60c01b614d16565b806040015142116122d7576040517f08c379a00000000000000000000000000000000000000000000000000000000081526004016122ce90616773565b60405180910390fd5b6122eb67680e1e2e7f8b75e860c01b614d16565b6122ff67bc7bb75fdbac7d6260c01b614d16565b6000610100600084815260200190815260200160002060006101000a81548160ff0219169083151502179055506123406764968467b45c612f60c01b614d16565b612354677a9a1cf6a980800560c01b614d16565b60008160800151905061237167cb3772c1fa6b9d1f60c01b614d16565b80826080018181516123839190616552565b9150818152505061239e67d5f74b4dff606a5c60c01b614d16565b8160fb60008581526020019081526020016000206000820151816000015560208201518160010160006101000a81548173ffffffffffffffffffffffffffffffffffffffff021916908373ffffffffffffffffffffffffffffffffffffffff16021790555060408201518160020155606082015181600301556080820151816004015560a08201518160050160006101000a81548163ffffffff021916908363ffffffff16021790555060c08201518160050160046101000a81548163ffffffff021916908363ffffffff160217905550905050612486674ef6f3e00cb2120360c01b614d16565b6000610104600085815260200190815260200160002060006101000a81548160ff0219169083151502179055506124c767956ee84a2d23a8f560c01b614d16565b6124db67150c29fd0289410a60c01b614d16565b60fe60009054906101000a900473ffffffffffffffffffffffffffffffffffffffff1673ffffffffffffffffffffffffffffffffffffffff1663a9059cbb8360200151836040518363ffffffff1660e01b815260040161253c929190616793565b6020604051808303816000875af115801561255b573d6000803e3d6000fd5b505050506040513d601f19601f8201168201806040525081019061257f9190615eeb565b50612594675b8e95e2fa4e835360c01b614d16565b6125a8672661b42c1bddecfe60c01b614d16565b7f1852ceb13126c22f394b77ad6298d993dfb7813f9b3139349e3c3f0852c1fe748333836040516125db93929190616586565b60405180910390a1505050565b6125fc670c1d5daeb08fcfd460c01b614d16565b612604614d19565b61261867df972baa4b12be3260c01b614d16565b61262c67f549f6e7b228080d60c01b614d16565b61264067ec4830af324b3ab960c01b614d16565b612654673fc9817dad065f4b60c01b614d16565b6126686793fb10a9552efc1860c01b614d16565b61010260003373ffffffffffffffffffffffffffffffffffffffff1673ffffffffffffffffffffffffffffffffffffffff168152602001908152602001600020600084815260200190815260200160002060009054906101000a900460ff16612706576040517f08c379a00000000000000000000000000000000000000000000000000000000081526004016126fd9061611a565b60405180910390fd5b61271a67565655ad1243020360c01b614d16565b61272e67379fca5eaa3e8c4060c01b614d16565b6127426746ffa027ab02637a60c01b614d16565b61275667651f012e00c0d0b160c01b614d16565b8373ffffffffffffffffffffffffffffffffffffffff163373ffffffffffffffffffffffffffffffffffffffff16146127c4576040517f08c379a00000000000000000000000000000000000000000000000000000000081526004016127bb90616609565b60405180910390fd5b6127d867b0cb369cb238808f60c01b614d16565b6127ec67f5711b827678995d60c01b614d16565b6128006789dcaf061039c37360c01b614d16565b612814675f8a397c6f5a472660c01b614d16565b610100600084815260200190815260200160002060009054906101000a900460ff1615612876576040517f08c379a000000000000000000000000000000000000000000000000000000000815260040161286d90616808565b60405180910390fd5b61288a677da3d275228adfde60c01b614d16565b61289e6712f8e7554ec442e860c01b614d16565b6128b267ebd70e2ff9a26f7360c01b614d16565b6128c667cea39c5f0ee0286a60c01b614d16565b60008211612909576040517f08c379a000000000000000000000000000000000000000000000000000000000815260040161290090616874565b60405180910390fd5b61291d677eaaa087fe52ca5c60c01b614d16565b6129316701f9113d993ec5f060c01b614d16565b612945675d0d2dd69e30591260c01b614d16565b6129596717e34d8090ed7af460c01b614d16565b6000811161299c576040517f08c379a0000000000000000000000000000000000000000000000000000000008152600401612993906168e0565b60405180910390fd5b6129b06772fca34cbfd3e91060c01b614d16565b6129c4671f05e65493fcdb5f60c01b614d16565b6129d867d998d24fc27343da60c01b614d16565b600081426129e69190615e54565b90506129fc67e9dfc904fdd562b760c01b614d16565b6001610100600086815260200190815260200160002060006101000a81548160ff021916908315150217905550612a3d672c2de295597d587060c01b614d16565b612a51678b5e376c36aa91d460c01b614d16565b60006040518060e001604052808681526020018773ffffffffffffffffffffffffffffffffffffffff1681526020018381526020018581526020018581526020016201388163ffffffff1681526020016101a463ffffffff168152509050612ac3673773a8a7f652a37460c01b614d16565b8060fb60008781526020019081526020016000206000820151816000015560208201518160010160006101000a81548173ffffffffffffffffffffffffffffffffffffffff021916908373ffffffffffffffffffffffffffffffffffffffff16021790555060408201518160020155606082015181600301556080820151816004015560a08201518160050160006101000a81548163ffffffff021916908363ffffffff16021790555060c08201518160050160046101000a81548163ffffffff021916908363ffffffff160217905550905050612bab675941f0d496f815ec60c01b614d16565b612bbf6773b75b0134354a1d60c01b614d16565b60fe60009054906101000a900473ffffffffffffffffffffffffffffffffffffffff1673ffffffffffffffffffffffffffffffffffffffff166323b872dd3330876040518463ffffffff1660e01b8152600401612c1e93929190615e88565b6020604051808303816000875af1158015612c3d573d6000803e3d6000fd5b505050506040513d601f19601f82011682018060405250810190612c619190615eeb565b50612c76675116c47d28da00bb60c01b614d16565b612c8a672ef3756ccef9856b60c01b614d16565b7f70eca58c343efaba8ae2a4073dc68f37df918cfa453bea81e607a74ccb85d125858786604051612cbd93929190616586565b60405180910390a1505050505050565b6101065481565b612cdc614d63565b612ce66000615050565b565b60ff60009054906101000a900473ffffffffffffffffffffffffffffffffffffffff1681565b60fd6020528060005260406000206000915090508060000154908060010154908060020160009054906101000a900473ffffffffffffffffffffffffffffffffffffffff16908060030154908060040154908060050160009054906101000a900460ff16905086565b60fb6020528060005260406000206000915090508060000154908060010160009054906101000a900473ffffffffffffffffffffffffffffffffffffffff16908060020154908060030154908060040154908060050160009054906101000a900463ffffffff16908060050160049054906101000a900463ffffffff16905087565b612e0d67ab14dd08b1439d2360c01b614d16565b60008060019054906101000a900460ff16159050808015612e3e5750600160008054906101000a900460ff1660ff16105b80612e6b5750612e4d30615116565b158015612e6a5750600160008054906101000a900460ff1660ff16145b5b612eaa576040517f08c379a0000000000000000000000000000000000000000000000000000000008152600401612ea190616972565b60405180910390fd5b60016000806101000a81548160ff021916908360ff1602179055508015612ee7576001600060016101000a81548160ff0219169083151502179055505b612efb675d86883b5053f29b60c01b614d16565b612f0f675a9d2071bbe790f360c01b614d16565b612f236789d953f80f3820d060c01b614d16565b612f376743709e7b7e2e168760c01b614d16565b612f3f615139565b612f5367e3aee47da40307f860c01b614d16565b612f6767e64fa4ec3ec3a88660c01b614d16565b612f6f61518a565b612f83677902bb08d5d2218c60c01b614d16565b612f9767e614f5a918f9872660c01b614d16565b612f9f6151e3565b8015612ff85760008060016101000a81548160ff0219169083151502179055507f7f26b83ff96e1f2b6a682f133852f6798a09c465da95921460cefb38474024986001604051612fef91906169e4565b60405180910390a15b50565b61300f67fba233c1c355069260c01b614d16565b613017614d63565b61302b6749cf25bc9521a94c60c01b614d16565b61303f67794a010751e0e44760c01b614d16565b61305367c408bec0f8eb9c7660c01b614d16565b6130676796598d5e02d34e8360c01b614d16565b61306f61523c565b565b6000609760009054906101000a900473ffffffffffffffffffffffffffffffffffffffff16905090565b60fe60009054906101000a900473ffffffffffffffffffffffffffffffffffffffff1681565b6130d567e6423103c98d456060c01b614d16565b6130dd614d63565b6130f167ac961dc9ba8ca5ed60c01b614d16565b61310567eaeece09c5f9c67960c01b614d16565b61310d614d19565b61312167c4695b7aa6e2b66360c01b614d16565b61313567d062fe64d45d885360c01b614d16565b613149671db79fca8a76339b60c01b614d16565b61315d675247143e4377878b60c01b614d16565b61317167c56be2e56634ff1f60c01b614d16565b610100600086815260200190815260200160002060009054906101000a900460ff16156131d3576040517f08c379a00000000000000000000000000000000000000000000000000000000081526004016131ca90616a71565b60405180910390fd5b6131e767b00e52f20d4d6bfa60c01b614d16565b6131fb672516e3e13e64619b60c01b614d16565b61320f67e56f78008c9e71f760c01b614d16565b6132236733a6d9898605734260c01b614d16565b61010260008573ffffffffffffffffffffffffffffffffffffffff1673ffffffffffffffffffffffffffffffffffffffff168152602001908152602001600020600086815260200190815260200160002060009054906101000a900460ff166132c1576040517f08c379a00000000000000000000000000000000000000000000000000000000081526004016132b89061611a565b60405180910390fd5b6132d567c2399c94df3e5b4960c01b614d16565b6132e967d793b6b5991228d260c01b614d16565b6132fd678908d0ff392b08f160c01b614d16565b61331167a9a9a3978f42f1b760c01b614d16565b60008211613354576040517f08c379a000000000000000000000000000000000000000000000000000000000815260040161334b90616add565b60405180910390fd5b61336867e5b71035d42795b360c01b614d16565b61337c67ac1cc072cb39c1c360c01b614d16565b6133906765faedd53105635560c01b614d16565b60006133a667a169ba0474b71e1360c01b614d16565b6133ba67adf10f6c773d27eb60c01b614d16565b600084426133c89190615e54565b90506133de67612d24a25197505560c01b614d16565b6133f26780a2de9b0211e65860c01b614d16565b60006040518061010001604052808981526020018873ffffffffffffffffffffffffffffffffffffffff1681526020018381526020018681526020018481526020016101a463ffffffff1681526020016201388163ffffffff16815260200185815250905061346b67b8f787656c83c31e60c01b614d16565b8060fc60008a81526020019081526020016000206000820151816000015560208201518160010160006101000a81548173ffffffffffffffffffffffffffffffffffffffff021916908373ffffffffffffffffffffffffffffffffffffffff16021790555060408201518160020155606082015181600301556080820151816004015560a08201518160050160006101000a81548163ffffffff021916908363ffffffff16021790555060c08201518160050160046101000a81548163ffffffff021916908363ffffffff16021790555060e0820151816006015590505061355d6782c1ff9174bf94fc60c01b614d16565b600161010060008a815260200190815260200160002060006101000a81548160ff02191690831515021790555061359e679f22612e036588c560c01b614d16565b6135b2670cb7ba310c97818c60c01b614d16565b7f244d7078e79ff879576610bab60172dae6b48ee3189d25f86f76abc0c375828888886040516135e3929190616afd565b60405180910390a15050505050505050565b613609677bc741618244855b60c01b614d16565b613611614d63565b61362567524a8705ef69c6e760c01b614d16565b61363967014a551174df2eee60c01b614d16565b613641614d19565b6136556786bb01bcc447f1a060c01b614d16565b613669670bfd9195e780a06760c01b614d16565b61367d6724ad2528e184e40c60c01b614d16565b613691678347ce4c818be44660c01b614d16565b6136a567d7af99bdd20eaaf260c01b614d16565b610103600086815260200190815260200160002060009054906101000a900460ff1615613707576040517f08c379a00000000000000000000000000000000000000000000000000000000081526004016136fe90616b72565b60405180910390fd5b61371b67add79ddc11cc41fd60c01b614d16565b61372f671fa0d9139e00ebe560c01b614d16565b61374367ed8417bedf1a93b160c01b614d16565b613757676da20ccf7c3134f760c01b614d16565b61010260008473ffffffffffffffffffffffffffffffffffffffff1673ffffffffffffffffffffffffffffffffffffffff168152602001908152602001600020600086815260200190815260200160002060009054906101000a900460ff166137f5576040517f08c379a00000000000000000000000000000000000000000000000000000000081526004016137ec9061611a565b60405180910390fd5b61380967e96b74e51281376560c01b614d16565b61381d670b387456c7a4b50160c01b614d16565b61383167434ad1d5a9e159da60c01b614d16565b61384567ef3459aa185b3f6a60c01b614d16565b610100600085815260200190815260200160002060009054906101000a900460ff166138a6576040517f08c379a000000000000000000000000000000000000000000000000000000000815260040161389d90616c04565b60405180910390fd5b6138ba67a568bba6983cfb4a60c01b614d16565b6138ce679208b298d1d59dd860c01b614d16565b6138e267055f9e193ed9b18160c01b614d16565b6138f66753703b4634d8e41760c01b614d16565b60008211613939576040517f08c379a000000000000000000000000000000000000000000000000000000000815260040161393090616add565b60405180910390fd5b61394d677a9ae175982e919c60c01b614d16565b61396167866d258257ab2a3060c01b614d16565b6139756738092e3bb0923fc560c01b614d16565b613989672e3cca78eb22f4d360c01b614d16565b8082116139cb576040517f08c379a00000000000000000000000000000000000000000000000000000000081526004016139c290616c96565b60405180910390fd5b6139df67f41dd7150704acd860c01b614d16565b6139f3676537792eeba25a4060c01b614d16565b613a0767b08d11a7c59098a460c01b614d16565b6000613a1d67db892956fc04807360c01b614d16565b613a316719a1d26bff34ca4160c01b614d16565b60006040518060c001604052808881526020018781526020018673ffffffffffffffffffffffffffffffffffffffff1681526020018581526020018481526020018315158152509050613a8e67713dfa52922f4e8760c01b614d16565b8060fd6000898152602001908152602001600020600082015181600001556020820151816001015560408201518160020160006101000a81548173ffffffffffffffffffffffffffffffffffffffff021916908373ffffffffffffffffffffffffffffffffffffffff160217905550606082015181600301556080820151816004015560a08201518160050160006101000a81548160ff021916908315150217905550905050613b48672fc607707e1a555b60c01b614d16565b6001610103600089815260200190815260200160002060006101000a81548160ff021916908315150217905550613b8967187dafa4a292ed1e60c01b614d16565b613b9d67039c8ae944bad94b60c01b614d16565b7fcae8f20940e3c6d60e303e7ac879e97f3f9736b43dd74d366948f1cdfc8e9f778786604051613bce929190616afd565b60405180910390a150505050505050565b613bf367ed54d2fb1fdf990f60c01b614d16565b613bfb614d19565b613c0f676f8a2e2bbf5639bc60c01b614d16565b613c23678799299fb62e72b060c01b614d16565b613c3767a2ff8f42e932142c60c01b614d16565b613c4b67e70909c48f064c8f60c01b614d16565b613c5f67484523f813ef05cf60c01b614d16565b61010260003373ffffffffffffffffffffffffffffffffffffffff1673ffffffffffffffffffffffffffffffffffffffff168152602001908152602001600020600082815260200190815260200160002060009054906101000a900460ff16613cfd576040517f08c379a0000000000000000000000000000000000000000000000000000000008152600401613cf49061611a565b60405180910390fd5b613d11672cf17600e6e2d20b60c01b614d16565b613d25675aa33dfd30719b7e60c01b614d16565b613d39673b1fadc287527b0f60c01b614d16565b613d4d6710a37727f7efc50e60c01b614d16565b610103600082815260200190815260200160002060009054906101000a900460ff16613dae576040517f08c379a0000000000000000000000000000000000000000000000000000000008152600401613da590616d02565b60405180910390fd5b613dc2677ae89e8a165f01e460c01b614d16565b613dd66701b68296c085a43260c01b614d16565b6000610103600083815260200190815260200160002060006101000a81548160ff021916908315150217905550613e17677d665bf0df66d41560c01b614d16565b613e2b673f41227c3876876660c01b614d16565b600060fd60008381526020019081526020016000206040518060c001604052908160008201548152602001600182015481526020016002820160009054906101000a900473ffffffffffffffffffffffffffffffffffffffff1673ffffffffffffffffffffffffffffffffffffffff1673ffffffffffffffffffffffffffffffffffffffff16815260200160038201548152602001600482015481526020016005820160009054906101000a900460ff1615151515815250509050613efa6779e81edbbe0a3ad960c01b614d16565b613f0e67a3337de2e75ee86f60c01b614d16565b600081602001519050613f2b67d4827ce56a7bc61260c01b614d16565b613f3f670b965cd319a80a4960c01b614d16565b613f53678cdb5421975357d460c01b614d16565b610104600082815260200190815260200160002060009054906101000a900460ff1615613fb5576040517f08c379a0000000000000000000000000000000000000000000000000000000008152600401613fac90616284565b60405180910390fd5b613fc967cfb2fb78cf7f985460c01b614d16565b613fdd675b70255867d5c20960c01b614d16565b6001610104600083815260200190815260200160002060006101000a81548160ff02191690831515021790555061401e675055ebb08d93d27a60c01b614d16565b614032670b5f6dfb61c8fa4760c01b614d16565b6000826080015183606001516140489190616552565b905061405e67ff7a1459f680f03360c01b614d16565b614072670c510f314cf91c5d60c01b614d16565b60008360400151905061408f6778959a2ebd25f67160c01b614d16565b6140a367abcc5186a4d5968f60c01b614d16565b6140b767312cf2d0cc28b9f260c01b614d16565b600073ffffffffffffffffffffffffffffffffffffffff168173ffffffffffffffffffffffffffffffffffffffff1603614126576040517f08c379a000000000000000000000000000000000000000000000000000000000815260040161411d90616d6e565b60405180910390fd5b61413a670aca514bdd4051c760c01b614d16565b61414e67c67cf23194d8fd8e60c01b614d16565b6141626710903f967952d7bc60c01b614d16565b6141766745618ff00e6e9b3460c01b614d16565b8073ffffffffffffffffffffffffffffffffffffffff163373ffffffffffffffffffffffffffffffffffffffff16146141e4576040517f08c379a00000000000000000000000000000000000000000000000000000000081526004016141db90616609565b60405180910390fd5b6141f8671606af0a674daad360c01b614d16565b61420c67d4d7225064d3e35360c01b614d16565b614220670e6bec6a7e9c875360c01b614d16565b6142346797e6abd31f9f71c560c01b614d16565b60008211614277576040517f08c379a000000000000000000000000000000000000000000000000000000000815260040161426e90616dda565b60405180910390fd5b61428b67a97d08bd3ef6e11960c01b614d16565b61429f67e558628342c91d9e60c01b614d16565b6142b36760148c976ac1b1b960c01b614d16565b6142c76750237bc429b99bfc60c01b614d16565b610100600084815260200190815260200160002060009054906101000a900460ff16614328576040517f08c379a000000000000000000000000000000000000000000000000000000000815260040161431f90616c04565b60405180910390fd5b61433c67a6a7a1b9c494593660c01b614d16565b61435067ac3cb9fc6951024060c01b614d16565b6143646797032e9a5857bcc860c01b614d16565b600060fb60008581526020019081526020016000206040518060e0016040529081600082015481526020016001820160009054906101000a900473ffffffffffffffffffffffffffffffffffffffff1673ffffffffffffffffffffffffffffffffffffffff1673ffffffffffffffffffffffffffffffffffffffff1681526020016002820154815260200160038201548152602001600482015481526020016005820160009054906101000a900463ffffffff1663ffffffff1663ffffffff1681526020016005820160049054906101000a900463ffffffff1663ffffffff1663ffffffff1681525050905061446467b7478c79ab5041f260c01b614d16565b614478676dd340e66eeffb0d60c01b614d16565b61448c67017f11937038d0d760c01b614d16565b806040015142106144d2576040517f08c379a00000000000000000000000000000000000000000000000000000000081526004016144c990616e6c565b60405180910390fd5b6144e6674be6479787d3e3ec60c01b614d16565b6144fa672e8b8196a18ded4160c01b614d16565b61450e67eac2d7f1a9aef4dd60c01b614d16565b61452267e5484a9e67a2c0f060c01b614d16565b80608001518560600151111561456d576040517f08c379a000000000000000000000000000000000000000000000000000000000815260040161456490616efe565b60405180910390fd5b614581677e5a9c8abd1ba0da60c01b614d16565b614595678559b5031876766660c01b614d16565b8460600151816080018181516145ab9190616552565b915081815250506145c6672e4baad9820b4e9e60c01b614d16565b60018560a00190151590811515815250506145eb67f5009c6a4fe574be60c01b614d16565b8060fb60008681526020019081526020016000206000820151816000015560208201518160010160006101000a81548173ffffffffffffffffffffffffffffffffffffffff021916908373ffffffffffffffffffffffffffffffffffffffff16021790555060408201518160020155606082015181600301556080820151816004015560a08201518160050160006101000a81548163ffffffff021916908363ffffffff16021790555060c08201518160050160046101000a81548163ffffffff021916908363ffffffff1602179055509050506146d367b00d72e1b5b09e3760c01b614d16565b8460fd6000888152602001908152602001600020600082015181600001556020820151816001015560408201518160020160006101000a81548173ffffffffffffffffffffffffffffffffffffffff021916908373ffffffffffffffffffffffffffffffffffffffff160217905550606082015181600301556080820151816004015560a08201518160050160006101000a81548160ff02191690831515021790555090505061478d67caeaa91c4fce83c260c01b614d16565b846080015161010660008282546147a49190615e54565b925050819055506147bf67c3b486f238c1d01a60c01b614d16565b6000610104600086815260200190815260200160002060006101000a81548160ff021916908315150217905550614800673a8f7adb7858495160c01b614d16565b614814673e0a26128ac1fe5360c01b614d16565b60fe60009054906101000a900473ffffffffffffffffffffffffffffffffffffffff1673ffffffffffffffffffffffffffffffffffffffff1663a9059cbb83856040518363ffffffff1660e01b8152600401614871929190616793565b6020604051808303816000875af1158015614890573d6000803e3d6000fd5b505050506040513d601f19601f820116820180604052508101906148b49190615eeb565b506148c9671fa3455af15037f260c01b614d16565b6148dd67d8cb424fec85f51b60c01b614d16565b7f217de69216c60b6e5c5108753aeccf4f10269eeff9b93f206552d2d3d1d04bc586853360405161491093929190616f1e565b60405180910390a1505050505050565b614934670f39e9caef022e7260c01b614d16565b61493c614d63565b6149506782e2fad423ccf37f60c01b614d16565b61496467ac93a5f1b852012360c01b614d16565b61496c614d19565b61498067f5e435ce364523dc60c01b614d16565b6149946707915e22a9c8e20660c01b614d16565b6149a867e9905489c790059060c01b614d16565b6149bc6711313ac341cd8fd960c01b614d16565b6149d0671a95c870461ef3fd60c01b614d16565b60006101065411614a16576040517f08c379a0000000000000000000000000000000000000000000000000000000008152600401614a0d90616fa1565b60405180910390fd5b614a2a6714790632fcbb64d160c01b614d16565b614a3e6724c32432e2923cd260c01b614d16565b614a5267014f32e61090337f60c01b614d16565b614a66672ba1a15214dea9aa60c01b614d16565b60006101075411614aac576040517f08c379a0000000000000000000000000000000000000000000000000000000008152600401614aa390616fa1565b60405180910390fd5b614ac0677629587502eb38b960c01b614d16565b614ad46716503ad0b85d723a60c01b614d16565b614ae867dfeed7a1510b63b660c01b614d16565b60fe60009054906101000a900473ffffffffffffffffffffffffffffffffffffffff1673ffffffffffffffffffffffffffffffffffffffff1663a9059cbb33610106546040518363ffffffff1660e01b8152600401614b48929190616793565b6020604051808303816000875af1158015614b67573d6000803e3d6000fd5b505050506040513d601f19601f82011682018060405250810190614b8b9190615eeb565b50614ba067c20ca23e3fbc22c060c01b614d16565b614bb3661422ed0066e37a60c01b614d16565b60ff60009054906101000a900473ffffffffffffffffffffffffffffffffffffffff1673ffffffffffffffffffffffffffffffffffffffff1663a9059cbb33610107546040518363ffffffff1660e01b8152600401614c13929190616793565b6020604051808303816000875af1158015614c32573d6000803e3d6000fd5b505050506040513d601f19601f82011682018060405250810190614c569190615eeb565b50614c6b67bf37dd5dee35f9e760c01b614d16565b600061010781905550614c88678d6d28add20c006160c01b614d16565b600061010681905550565b614c9b614d63565b600073ffffffffffffffffffffffffffffffffffffffff168173ffffffffffffffffffffffffffffffffffffffff1603614d0a576040517f08c379a0000000000000000000000000000000000000000000000000000000008152600401614d0190617033565b60405180910390fd5b614d1381615050565b50565b50565b614d21611cfb565b15614d61576040517f08c379a0000000000000000000000000000000000000000000000000000000008152600401614d589061709f565b60405180910390fd5b565b614d6b61529f565b73ffffffffffffffffffffffffffffffffffffffff16614d89613071565b73ffffffffffffffffffffffffffffffffffffffff1614614ddf576040517f08c379a0000000000000000000000000000000000000000000000000000000008152600401614dd69061710b565b60405180910390fd5b565b6000614e0f7f360894a13ba1a3210667c828492db98dca3e2076cc3735a920a3ca505d382bbc60001b6152a7565b60000160009054906101000a900473ffffffffffffffffffffffffffffffffffffffff16905090565b614e4c67fb9d4ec09def48d960c01b614d16565b614e54614d63565b614e6867f39a48860fc860ab60c01b614d16565b614e7c67c9b7369766a4611860c01b614d16565b50565b614eab7f4910fdfa16fed3260ed0e7147f7cc6da11a60208b5b9406d12a635614ffd914360001b6152b1565b60000160009054906101000a900460ff1615614ecf57614eca836152bb565b614fe8565b8273ffffffffffffffffffffffffffffffffffffffff166352d1902d6040518163ffffffff1660e01b8152600401602060405180830381865afa925050508015614f3757506040513d601f19601f82011682018060405250810190614f349190617157565b60015b614f76576040517f08c379a0000000000000000000000000000000000000000000000000000000008152600401614f6d906171f6565b60405180910390fd5b7f360894a13ba1a3210667c828492db98dca3e2076cc3735a920a3ca505d382bbc60001b8114614fdb576040517f08c379a0000000000000000000000000000000000000000000000000000000008152600401614fd290617288565b60405180910390fd5b50614fe7838383615374565b5b505050565b614ff56153a0565b600060c960006101000a81548160ff0219169083151502179055507f5db9ee0a495bf2e6ff9c91a7834c1ba4fdd244a5e8aa4e537bd38aeae4b073aa61503961529f565b6040516150469190615b5b565b60405180910390a1565b6000609760009054906101000a900473ffffffffffffffffffffffffffffffffffffffff16905081609760006101000a81548173ffffffffffffffffffffffffffffffffffffffff021916908373ffffffffffffffffffffffffffffffffffffffff1602179055508173ffffffffffffffffffffffffffffffffffffffff168173ffffffffffffffffffffffffffffffffffffffff167f8be0079c531659141344cd1fd0a4f28419497f9722a3daafe3b4186f6b6457e060405160405180910390a35050565b6000808273ffffffffffffffffffffffffffffffffffffffff163b119050919050565b600060019054906101000a900460ff16615188576040517f08c379a000000000000000000000000000000000000000000000000000000000815260040161517f9061731a565b60405180910390fd5b565b600060019054906101000a900460ff166151d9576040517f08c379a00000000000000000000000000000000000000000000000000000000081526004016151d09061731a565b60405180910390fd5b6151e16153e9565b565b600060019054906101000a900460ff16615232576040517f08c379a00000000000000000000000000000000000000000000000000000000081526004016152299061731a565b60405180910390fd5b61523a61544a565b565b615244614d19565b600160c960006101000a81548160ff0219169083151502179055507f62e78cea01bee320cd4e420270b5ea74000d11b0c9f74754ebdbfc544b05a25861528861529f565b6040516152959190615b5b565b60405180910390a1565b600033905090565b6000819050919050565b6000819050919050565b6152c481615116565b615303576040517f08c379a00000000000000000000000000000000000000000000000000000000081526004016152fa906173ac565b60405180910390fd5b806153307f360894a13ba1a3210667c828492db98dca3e2076cc3735a920a3ca505d382bbc60001b6152a7565b60000160006101000a81548173ffffffffffffffffffffffffffffffffffffffff021916908373ffffffffffffffffffffffffffffffffffffffff16021790555050565b61537d836154b6565b60008251118061538a5750805b1561539b576153998383615505565b505b505050565b6153a8611cfb565b6153e7576040517f08c379a00000000000000000000000000000000000000000000000000000000081526004016153de90617418565b60405180910390fd5b565b600060019054906101000a900460ff16615438576040517f08c379a000000000000000000000000000000000000000000000000000000000815260040161542f9061731a565b60405180910390fd5b61544861544361529f565b615050565b565b600060019054906101000a900460ff16615499576040517f08c379a00000000000000000000000000000000000000000000000000000000081526004016154909061731a565b60405180910390fd5b600060c960006101000a81548160ff021916908315150217905550565b6154bf816152bb565b8073ffffffffffffffffffffffffffffffffffffffff167fbc7cd75a20ee27fd9adebab32041f755214dbc6bffa90cc0225b39da2e5c2d3b60405160405180910390a250565b606061551083615116565b61554f576040517f08c379a0000000000000000000000000000000000000000000000000000000008152600401615546906174aa565b60405180910390fd5b6000808473ffffffffffffffffffffffffffffffffffffffff1684604051615577919061753b565b600060405180830381855af49150503d80600081146155b2576040519150601f19603f3d011682016040523d82523d6000602084013e6155b7565b606091505b50915091506155df82826040518060600160405280602781526020016175b9602791396155e9565b9250505092915050565b606083156155f957829050615649565b60008351111561560c5782518084602001fd5b816040517f08c379a00000000000000000000000000000000000000000000000000000000081526004016156409190617596565b60405180910390fd5b9392505050565b6000604051905090565b600080fd5b600080fd5b6000819050919050565b61567781615664565b811461568257600080fd5b50565b6000813590506156948161566e565b92915050565b600080604083850312156156b1576156b061565a565b5b60006156bf85828601615685565b92505060206156d085828601615685565b9150509250929050565b600073ffffffffffffffffffffffffffffffffffffffff82169050919050565b6000615705826156da565b9050919050565b615715816156fa565b811461572057600080fd5b50565b6000813590506157328161570c565b92915050565b6000806040838503121561574f5761574e61565a565b5b600061575d85828601615723565b925050602061576e85828601615685565b9150509250929050565b60008115159050919050565b61578d81615778565b82525050565b60006020820190506157a86000830184615784565b92915050565b6157b781615664565b82525050565b60006020820190506157d260008301846157ae565b92915050565b6000602082840312156157ee576157ed61565a565b5b60006157fc84828501615685565b91505092915050565b61580e816156fa565b82525050565b600063ffffffff82169050919050565b61582d81615814565b82525050565b600061010082019050615849600083018b6157ae565b615856602083018a615805565b61586360408301896157ae565b61587060608301886157ae565b61587d60808301876157ae565b61588a60a0830186615824565b61589760c0830185615824565b6158a460e08301846157ae565b9998505050505050505050565b600080604083850312156158c8576158c761565a565b5b60006158d685828601615723565b92505060206158e785828601615723565b9150509250929050565b6000602082840312156159075761590661565a565b5b600061591584828501615723565b91505092915050565b600080fd5b600080fd5b6000601f19601f8301169050919050565b7f4e487b7100000000000000000000000000000000000000000000000000000000600052604160045260246000fd5b61597182615928565b810181811067ffffffffffffffff821117156159905761598f615939565b5b80604052505050565b60006159a3615650565b90506159af8282615968565b919050565b600067ffffffffffffffff8211156159cf576159ce615939565b5b6159d882615928565b9050602081019050919050565b82818337600083830152505050565b6000615a07615a02846159b4565b615999565b905082815260208101848484011115615a2357615a22615923565b5b615a2e8482856159e5565b509392505050565b600082601f830112615a4b57615a4a61591e565b5b8135615a5b8482602086016159f4565b91505092915050565b60008060408385031215615a7b57615a7a61565a565b5b6000615a8985828601615723565b925050602083013567ffffffffffffffff811115615aaa57615aa961565f565b5b615ab685828601615a36565b9150509250929050565b6000819050919050565b615ad381615ac0565b82525050565b6000602082019050615aee6000830184615aca565b92915050565b60008060008060808587031215615b0e57615b0d61565a565b5b6000615b1c87828801615723565b9450506020615b2d87828801615685565b9350506040615b3e87828801615685565b9250506060615b4f87828801615685565b91505092959194509250565b6000602082019050615b706000830184615805565b92915050565b600060c082019050615b8b60008301896157ae565b615b9860208301886157ae565b615ba56040830187615805565b615bb260608301866157ae565b615bbf60808301856157ae565b615bcc60a0830184615784565b979650505050505050565b600060e082019050615bec600083018a6157ae565b615bf96020830189615805565b615c0660408301886157ae565b615c1360608301876157ae565b615c2060808301866157ae565b615c2d60a0830185615824565b615c3a60c0830184615824565b98975050505050505050565b600080600080600060a08688031215615c6257615c6161565a565b5b6000615c7088828901615685565b9550506020615c8188828901615723565b9450506040615c9288828901615685565b9350506060615ca388828901615685565b9250506080615cb488828901615685565b9150509295509295909350565b600080600080600060a08688031215615cdd57615cdc61565a565b5b6000615ceb88828901615685565b9550506020615cfc88828901615685565b9450506040615d0d88828901615723565b9350506060615d1e88828901615685565b9250506080615d2f88828901615685565b9150509295509295909350565b600082825260208201905092915050565b7f302076616c756500000000000000000000000000000000000000000000000000600082015250565b6000615d83600783615d3c565b9150615d8e82615d4d565b602082019050919050565b60006020820190508181036000830152615db281615d76565b9050919050565b7f666565207061696420616c726561647900000000000000000000000000000000600082015250565b6000615def601083615d3c565b9150615dfa82615db9565b602082019050919050565b60006020820190508181036000830152615e1e81615de2565b9050919050565b7f4e487b7100000000000000000000000000000000000000000000000000000000600052601160045260246000fd5b6000615e5f82615664565b9150615e6a83615664565b9250828201905080821115615e8257615e81615e25565b5b92915050565b6000606082019050615e9d6000830186615805565b615eaa6020830185615805565b615eb760408301846157ae565b949350505050565b615ec881615778565b8114615ed357600080fd5b50565b600081519050615ee581615ebf565b92915050565b600060208284031215615f0157615f0061565a565b5b6000615f0f84828501615ed6565b91505092915050565b7f46756e6374696f6e206d7573742062652063616c6c6564207468726f7567682060008201527f64656c656761746563616c6c0000000000000000000000000000000000000000602082015250565b6000615f74602c83615d3c565b9150615f7f82615f18565b604082019050919050565b60006020820190508181036000830152615fa381615f67565b9050919050565b7f46756e6374696f6e206d7573742062652063616c6c6564207468726f7567682060008201527f6163746976652070726f78790000000000000000000000000000000000000000602082015250565b6000616006602c83615d3c565b915061601182615faa565b604082019050919050565b6000602082019050818103600083015261603581615ff9565b9050919050565b7f555550535570677261646561626c653a206d757374206e6f742062652063616c60008201527f6c6564207468726f7567682064656c656761746563616c6c0000000000000000602082015250565b6000616098603883615d3c565b91506160a38261603c565b604082019050919050565b600060208201905081810360008301526160c78161608b565b9050919050565b7f5061792066656520666972737400000000000000000000000000000000000000600082015250565b6000616104600d83615d3c565b915061610f826160ce565b602082019050919050565b60006020820190508181036000830152616133816160f7565b9050919050565b7f616d6f756e742063616e6e6f74206265207a65726f0000000000000000000000600082015250565b6000616170601583615d3c565b915061617b8261613a565b602082019050919050565b6000602082019050818103600083015261619f81616163565b9050919050565b7f747261646520446f6573206e6f74206578697374000000000000000000000000600082015250565b60006161dc601483615d3c565b91506161e7826161a6565b602082019050919050565b6000602082019050818103600083015261620b816161cf565b9050919050565b7f506c656173652073656e64207472616e73616374696f6e20696e20736f6d652060008201527f74696d6500000000000000000000000000000000000000000000000000000000602082015250565b600061626e602483615d3c565b915061627982616212565b604082019050919050565b6000602082019050818103600083015261629d81616261565b9050919050565b7f796f752063616e206f6e6c79206f707420666f722061207472616465206f6e6360008201527f6500000000000000000000000000000000000000000000000000000000000000602082015250565b6000616300602183615d3c565b915061630b826162a4565b604082019050919050565b6000602082019050818103600083015261632f816162f3565b9050919050565b7f7468697320747261646520646f6573206e6f7420657869737400000000000000600082015250565b600061636c601983615d3c565b915061637782616336565b602082019050919050565b6000602082019050818103600083015261639b8161635f565b9050919050565b7f73656c6c65722063616e74206275790000000000000000000000000000000000600082015250565b60006163d8600f83615d3c565b91506163e3826163a2565b602082019050919050565b60006020820190508181036000830152616407816163cb565b9050919050565b7f546865207472616465206e6f206c6f6e676572206861732066756e6473000000600082015250565b6000616444601d83615d3c565b915061644f8261640e565b602082019050919050565b6000602082019050818103600083015261647381616437565b9050919050565b7f546869732074726164652068617320656e646564000000000000000000000000600082015250565b60006164b0601483615d3c565b91506164bb8261647a565b602082019050919050565b600060208201905081810360008301526164df816164a3565b9050919050565b7f547261646520616d6f756e7420746f6f206c6f77000000000000000000000000600082015250565b600061651c601483615d3c565b9150616527826164e6565b602082019050919050565b6000602082019050818103600083015261654b8161650f565b9050919050565b600061655d82615664565b915061656883615664565b92508282039050818111156165805761657f615e25565b5b92915050565b600060608201905061659b60008301866157ae565b6165a86020830185615805565b6165b560408301846157ae565b949350505050565b7f756e617574686f72697a65640000000000000000000000000000000000000000600082015250565b60006165f3600c83615d3c565b91506165fe826165bd565b602082019050919050565b60006020820190508181036000830152616622816165e6565b9050919050565b7f73746f702067657420736f6d652068656c700000000000000000000000000000600082015250565b600061665f601283615d3c565b915061666a82616629565b602082019050919050565b6000602082019050818103600083015261668e81616652565b9050919050565b7f746865726520617265206e6f2066756e647320617661696c61626c6520666f7260008201527f20726566756e6400000000000000000000000000000000000000000000000000602082015250565b60006166f1602783615d3c565b91506166fc82616695565b604082019050919050565b60006020820190508181036000830152616720816166e4565b9050919050565b7f746865207472616465206973206f6e676f696e67000000000000000000000000600082015250565b600061675d601483615d3c565b915061676882616727565b602082019050919050565b6000602082019050818103600083015261678c81616750565b9050919050565b60006040820190506167a86000830185615805565b6167b560208301846157ae565b9392505050565b7f747261646520616c726561647920657869737473000000000000000000000000600082015250565b60006167f2601483615d3c565b91506167fd826167bc565b602082019050919050565b60006020820190508181036000830152616821816167e5565b9050919050565b7f4e6f6e207a65726f2076616c756573206f6e6c79000000000000000000000000600082015250565b600061685e601483615d3c565b915061686982616828565b602082019050919050565b6000602082019050818103600083015261688d81616851565b9050919050565b7f456e6474696d65206d7573742062652067726561746572000000000000000000600082015250565b60006168ca601783615d3c565b91506168d582616894565b602082019050919050565b600060208201905081810360008301526168f9816168bd565b9050919050565b7f496e697469616c697a61626c653a20636f6e747261637420697320616c72656160008201527f647920696e697469616c697a6564000000000000000000000000000000000000602082015250565b600061695c602e83615d3c565b915061696782616900565b604082019050919050565b6000602082019050818103600083015261698b8161694f565b9050919050565b6000819050919050565b600060ff82169050919050565b6000819050919050565b60006169ce6169c96169c484616992565b6169a9565b61699c565b9050919050565b6169de816169b3565b82525050565b60006020820190506169f960008301846169d5565b92915050565b7f547261646520636c6f6e6520616c72656164792065786973747320616e64206960008201527f6e2070726f677265737300000000000000000000000000000000000000000000602082015250565b6000616a5b602a83615d3c565b9150616a66826169ff565b604082019050919050565b60006020820190508181036000830152616a8a81616a4e565b9050919050565b7f6e6f6e207a65726f2076616c756573206f6e6c79000000000000000000000000600082015250565b6000616ac7601483615d3c565b9150616ad282616a91565b602082019050919050565b60006020820190508181036000830152616af681616aba565b9050919050565b6000604082019050616b1260008301856157ae565b616b1f6020830184615805565b9392505050565b7f73776170207374696c6c20696e2070726f677265737300000000000000000000600082015250565b6000616b5c601683615d3c565b9150616b6782616b26565b602082019050919050565b60006020820190508181036000830152616b8b81616b4f565b9050919050565b7f54726164652068617320656e646564206f7220646f6573206e6f74206578697360008201527f7400000000000000000000000000000000000000000000000000000000000000602082015250565b6000616bee602183615d3c565b9150616bf982616b92565b604082019050919050565b60006020820190508181036000830152616c1d81616be1565b9050919050565b7f616d6f756e742073686f756c642062652067726561746572207468616e20666560008201527f6500000000000000000000000000000000000000000000000000000000000000602082015250565b6000616c80602183615d3c565b9150616c8b82616c24565b604082019050919050565b60006020820190508181036000830152616caf81616c73565b9050919050565b7f7377617020646f6573206e6f7420657869737400000000000000000000000000600082015250565b6000616cec601383615d3c565b9150616cf782616cb6565b602082019050919050565b60006020820190508181036000830152616d1b81616cdf565b9050919050565b7f7377617020697320696e76616c69640000000000000000000000000000000000600082015250565b6000616d58600f83615d3c565b9150616d6382616d22565b602082019050919050565b60006020820190508181036000830152616d8781616d4b565b9050919050565b7f616d6f756e74206973207a65726f000000000000000000000000000000000000600082015250565b6000616dc4600e83615d3c565b9150616dcf82616d8e565b602082019050919050565b60006020820190508181036000830152616df381616db7565b9050919050565b7f74696d6520686173206578636565646564207472616465206e6f206c6f6e676560008201527f7220657869737473000000000000000000000000000000000000000000000000602082015250565b6000616e56602883615d3c565b9150616e6182616dfa565b604082019050919050565b60006020820190508181036000830152616e8581616e49565b9050919050565b7f616d6f756e74206578636565647320747261646520616d6f756e7420706c656160008201527f7365207265636865636b00000000000000000000000000000000000000000000602082015250565b6000616ee8602a83615d3c565b9150616ef382616e8c565b604082019050919050565b60006020820190508181036000830152616f1781616edb565b9050919050565b6000606082019050616f3360008301866157ae565b616f4060208301856157ae565b616f4d6040830184615805565b949350505050565b7f6e6f206665657320617661696c61626c65000000000000000000000000000000600082015250565b6000616f8b601183615d3c565b9150616f9682616f55565b602082019050919050565b60006020820190508181036000830152616fba81616f7e565b9050919050565b7f4f776e61626c653a206e6577206f776e657220697320746865207a65726f206160008201527f6464726573730000000000000000000000000000000000000000000000000000602082015250565b600061701d602683615d3c565b915061702882616fc1565b604082019050919050565b6000602082019050818103600083015261704c81617010565b9050919050565b7f5061757361626c653a2070617573656400000000000000000000000000000000600082015250565b6000617089601083615d3c565b915061709482617053565b602082019050919050565b600060208201905081810360008301526170b88161707c565b9050919050565b7f4f776e61626c653a2063616c6c6572206973206e6f7420746865206f776e6572600082015250565b60006170f5602083615d3c565b9150617100826170bf565b602082019050919050565b60006020820190508181036000830152617124816170e8565b9050919050565b61713481615ac0565b811461713f57600080fd5b50565b6000815190506171518161712b565b92915050565b60006020828403121561716d5761716c61565a565b5b600061717b84828501617142565b91505092915050565b7f45524331393637557067726164653a206e657720696d706c656d656e7461746960008201527f6f6e206973206e6f742055555053000000000000000000000000000000000000602082015250565b60006171e0602e83615d3c565b91506171eb82617184565b604082019050919050565b6000602082019050818103600083015261720f816171d3565b9050919050565b7f45524331393637557067726164653a20756e737570706f727465642070726f7860008201527f6961626c65555549440000000000000000000000000000000000000000000000602082015250565b6000617272602983615d3c565b915061727d82617216565b604082019050919050565b600060208201905081810360008301526172a181617265565b9050919050565b7f496e697469616c697a61626c653a20636f6e7472616374206973206e6f74206960008201527f6e697469616c697a696e67000000000000000000000000000000000000000000602082015250565b6000617304602b83615d3c565b915061730f826172a8565b604082019050919050565b60006020820190508181036000830152617333816172f7565b9050919050565b7f455243313936373a206e657720696d706c656d656e746174696f6e206973206e60008201527f6f74206120636f6e747261637400000000000000000000000000000000000000602082015250565b6000617396602d83615d3c565b91506173a18261733a565b604082019050919050565b600060208201905081810360008301526173c581617389565b9050919050565b7f5061757361626c653a206e6f7420706175736564000000000000000000000000600082015250565b6000617402601483615d3c565b915061740d826173cc565b602082019050919050565b60006020820190508181036000830152617431816173f5565b9050919050565b7f416464726573733a2064656c65676174652063616c6c20746f206e6f6e2d636f60008201527f6e74726163740000000000000000000000000000000000000000000000000000602082015250565b6000617494602683615d3c565b915061749f82617438565b604082019050919050565b600060208201905081810360008301526174c381617487565b9050919050565b600081519050919050565b600081905092915050565b60005b838110156174fe5780820151818401526020810190506174e3565b60008484015250505050565b6000617515826174ca565b61751f81856174d5565b935061752f8185602086016174e0565b80840191505092915050565b6000617547828461750a565b915081905092915050565b600081519050919050565b600061756882617552565b6175728185615d3c565b93506175828185602086016174e0565b61758b81615928565b840191505092915050565b600060208201905081810360008301526175b0818461755d565b90509291505056fe416464726573733a206c6f772d6c6576656c2064656c65676174652063616c6c206661696c6564a2646970667358221220ab9ef27f452d01c4a0dac64ae4bc27f98324007c9f00760eee4b68789ebe5a3564736f6c63430008110033",
  "linkReferences": {},
  "deployedLinkReferences": {}
}