{
  "_format": "hh-sol-artifact-1",
  "contractName": "EscrowINRC",
  "sourceName": "contracts/P2PINRC.sol",
  "abi": [
    {
      "inputs": [],
      "stateMutability": "nonpayable",
      "type": "constructor"
    },
    {
      "anonymous": false,
      "inputs": [
        {
          "indexed": false,
          "internalType": "address",
          "name": "previousAdmin",
          "type": "address"
        },
        {
          "indexed": false,
          "internalType": "address",
          "name": "newAdmin",
          "type": "address"
        }
      ],
      "name": "AdminChanged",
      "type": "event"
    },
    {
      "anonymous": false,
      "inputs": [
        {
          "indexed": true,
          "internalType": "address",
          "name": "beacon",
          "type": "address"
        }
      ],
      "name": "BeaconUpgraded",
      "type": "event"
    },
    {
      "anonymous": false,
      "inputs": [
        {
          "indexed": false,
          "internalType": "uint256",
          "name": "_TradeCloneID",
          "type": "uint256"
        },
        {
          "indexed": false,
          "internalType": "address",
          "name": "Buyer",
          "type": "address"
        },
        {
          "indexed": false,
          "internalType": "uint256",
          "name": "_amount",
          "type": "uint256"
        }
      ],
      "name": "BuyerDeposit",
      "type": "event"
    },
    {
      "anonymous": false,
      "inputs": [
        {
          "indexed": false,
          "internalType": "uint8",
          "name": "version",
          "type": "uint8"
        }
      ],
      "name": "Initialized",
      "type": "event"
    },
    {
      "anonymous": false,
      "inputs": [
        {
          "indexed": true,
          "internalType": "address",
          "name": "previousOwner",
          "type": "address"
        },
        {
          "indexed": true,
          "internalType": "address",
          "name": "newOwner",
          "type": "address"
        }
      ],
      "name": "OwnershipTransferred",
      "type": "event"
    },
    {
      "anonymous": false,
      "inputs": [
        {
          "indexed": false,
          "internalType": "address",
          "name": "account",
          "type": "address"
        }
      ],
      "name": "Paused",
      "type": "event"
    },
    {
      "anonymous": false,
      "inputs": [
        {
          "indexed": false,
          "internalType": "uint256",
          "name": "_TradeCloneid",
          "type": "uint256"
        },
        {
          "indexed": false,
          "internalType": "address",
          "name": "Seller",
          "type": "address"
        },
        {
          "indexed": false,
          "internalType": "uint256",
          "name": "_amount",
          "type": "uint256"
        }
      ],
      "name": "Sellerwithdraw",
      "type": "event"
    },
    {
      "anonymous": false,
      "inputs": [
        {
          "indexed": false,
          "internalType": "uint256",
          "name": "_swapID",
          "type": "uint256"
        },
        {
          "indexed": false,
          "internalType": "uint256",
          "name": "Parent",
          "type": "uint256"
        },
        {
          "indexed": false,
          "internalType": "address",
          "name": "Buyer",
          "type": "address"
        }
      ],
      "name": "SwapComplete",
      "type": "event"
    },
    {
      "anonymous": false,
      "inputs": [
        {
          "indexed": false,
          "internalType": "address",
          "name": "account",
          "type": "address"
        }
      ],
      "name": "Unpaused",
      "type": "event"
    },
    {
      "anonymous": false,
      "inputs": [
        {
          "indexed": true,
          "internalType": "address",
          "name": "implementation",
          "type": "address"
        }
      ],
      "name": "Upgraded",
      "type": "event"
    },
    {
      "anonymous": false,
      "inputs": [
        {
          "indexed": false,
          "internalType": "uint256",
          "name": "_Tradeid",
          "type": "uint256"
        },
        {
          "indexed": false,
          "internalType": "address",
          "name": "Seller",
          "type": "address"
        },
        {
          "indexed": false,
          "internalType": "uint256",
          "name": "_amount",
          "type": "uint256"
        }
      ],
      "name": "refunded",
      "type": "event"
    },
    {
      "anonymous": false,
      "inputs": [
        {
          "indexed": false,
          "internalType": "uint256",
          "name": "_SwapID",
          "type": "uint256"
        },
        {
          "indexed": false,
          "internalType": "address",
          "name": "Buyer",
          "type": "address"
        }
      ],
      "name": "swapCreated",
      "type": "event"
    },
    {
      "anonymous": false,
      "inputs": [
        {
          "indexed": false,
          "internalType": "uint256",
          "name": "_TradeCloneid",
          "type": "uint256"
        },
        {
          "indexed": false,
          "internalType": "address",
          "name": "Seller",
          "type": "address"
        }
      ],
      "name": "tradeCloneCreated",
      "type": "event"
    },
    {
      "anonymous": false,
      "inputs": [
        {
          "indexed": false,
          "internalType": "uint256",
          "name": "_Tradeid",
          "type": "uint256"
        },
        {
          "indexed": false,
          "internalType": "address",
          "name": "Seller",
          "type": "address"
        },
        {
          "indexed": false,
          "internalType": "uint256",
          "name": "_amount",
          "type": "uint256"
        }
      ],
      "name": "tradeCreated",
      "type": "event"
    },
    {
      "inputs": [],
      "name": "CHTBalance",
      "outputs": [
        {
          "internalType": "uint256",
          "name": "",
          "type": "uint256"
        }
      ],
      "stateMutability": "view",
      "type": "function"
    },
    {
      "inputs": [
        {
          "internalType": "address",
          "name": "",
          "type": "address"
        },
        {
          "internalType": "uint256",
          "name": "",
          "type": "uint256"
        }
      ],
      "name": "FeePaidCHT",
      "outputs": [
        {
          "internalType": "bool",
          "name": "",
          "type": "bool"
        }
      ],
      "stateMutability": "view",
      "type": "function"
    },
    {
      "inputs": [],
      "name": "Feetoken",
      "outputs": [
        {
          "internalType": "address",
          "name": "",
          "type": "address"
        }
      ],
      "stateMutability": "view",
      "type": "function"
    },
    {
      "inputs": [],
      "name": "INRC",
      "outputs": [
        {
          "internalType": "address",
          "name": "",
          "type": "address"
        }
      ],
      "stateMutability": "view",
      "type": "function"
    },
    {
      "inputs": [
        {
          "internalType": "uint256",
          "name": "_tradeid",
          "type": "uint256"
        },
        {
          "internalType": "uint256",
          "name": "_amount",
          "type": "uint256"
        }
      ],
      "name": "PayFeeCHT",
      "outputs": [],
      "stateMutability": "nonpayable",
      "type": "function"
    },
    {
      "inputs": [
        {
          "internalType": "uint256",
          "name": "",
          "type": "uint256"
        }
      ],
      "name": "SwapTrack",
      "outputs": [
        {
          "internalType": "uint256",
          "name": "id",
          "type": "uint256"
        },
        {
          "internalType": "uint256",
          "name": "parentTradeID",
          "type": "uint256"
        },
        {
          "internalType": "address",
          "name": "buyer",
          "type": "address"
        },
        {
          "internalType": "uint256",
          "name": "WithdrawAmount",
          "type": "uint256"
        },
        {
          "internalType": "uint256",
          "name": "feeAmount",
          "type": "uint256"
        },
        {
          "internalType": "bool",
          "name": "CompletionStatus",
          "type": "bool"
        }
      ],
      "stateMutability": "view",
      "type": "function"
    },
    {
      "inputs": [
        {
          "internalType": "uint256",
          "name": "",
          "type": "uint256"
        }
      ],
      "name": "TradeCloneTrack",
      "outputs": [
        {
          "internalType": "uint256",
          "name": "id",
          "type": "uint256"
        },
        {
          "internalType": "address",
          "name": "seller",
          "type": "address"
        },
        {
          "internalType": "uint256",
          "name": "endtime",
          "type": "uint256"
        },
        {
          "internalType": "uint256",
          "name": "MaxBalance",
          "type": "uint256"
        },
        {
          "internalType": "uint256",
          "name": "currentBalance",
          "type": "uint256"
        },
        {
          "internalType": "uint32",
          "name": "originchainID",
          "type": "uint32"
        },
        {
          "internalType": "uint32",
          "name": "secondaryChainID",
          "type": "uint32"
        },
        {
          "internalType": "uint256",
          "name": "feeAmount",
          "type": "uint256"
        }
      ],
      "stateMutability": "view",
      "type": "function"
    },
    {
      "inputs": [
        {
          "internalType": "uint256",
          "name": "",
          "type": "uint256"
        }
      ],
      "name": "TradeTrack",
      "outputs": [
        {
          "internalType": "uint256",
          "name": "id",
          "type": "uint256"
        },
        {
          "internalType": "address",
          "name": "seller",
          "type": "address"
        },
        {
          "internalType": "uint256",
          "name": "endtime",
          "type": "uint256"
        },
        {
          "internalType": "uint256",
          "name": "DepositValue",
          "type": "uint256"
        },
        {
          "internalType": "uint256",
          "name": "AvailableValue",
          "type": "uint256"
        },
        {
          "internalType": "uint32",
          "name": "originchainID",
          "type": "uint32"
        },
        {
          "internalType": "uint32",
          "name": "secondaryChainID",
          "type": "uint32"
        }
      ],
      "stateMutability": "view",
      "type": "function"
    },
    {
      "inputs": [
        {
          "internalType": "uint256",
          "name": "_id",
          "type": "uint256"
        },
        {
          "internalType": "uint256",
          "name": "_amount",
          "type": "uint256"
        }
      ],
      "name": "depositBuyer",
      "outputs": [],
      "stateMutability": "nonpayable",
      "type": "function"
    },
    {
      "inputs": [
        {
          "internalType": "address",
          "name": "_seller",
          "type": "address"
        },
        {
          "internalType": "uint256",
          "name": "_id",
          "type": "uint256"
        },
        {
          "internalType": "uint256",
          "name": "_amount",
          "type": "uint256"
        },
        {
          "internalType": "uint256",
          "name": "_endtime",
          "type": "uint256"
        }
      ],
      "name": "depositSeller",
      "outputs": [],
      "stateMutability": "nonpayable",
      "type": "function"
    },
    {
      "inputs": [],
      "name": "feeCollected",
      "outputs": [
        {
          "internalType": "uint256",
          "name": "",
          "type": "uint256"
        }
      ],
      "stateMutability": "view",
      "type": "function"
    },
    {
      "inputs": [],
      "name": "initialize",
      "outputs": [],
      "stateMutability": "nonpayable",
      "type": "function"
    },
    {
      "inputs": [],
      "name": "owner",
      "outputs": [
        {
          "internalType": "address",
          "name": "",
          "type": "address"
        }
      ],
      "stateMutability": "view",
      "type": "function"
    },
    {
      "inputs": [],
      "name": "pause",
      "outputs": [],
      "stateMutability": "nonpayable",
      "type": "function"
    },
    {
      "inputs": [],
      "name": "paused",
      "outputs": [
        {
          "internalType": "bool",
          "name": "",
          "type": "bool"
        }
      ],
      "stateMutability": "view",
      "type": "function"
    },
    {
      "inputs": [],
      "name": "proxiableUUID",
      "outputs": [
        {
          "internalType": "bytes32",
          "name": "",
          "type": "bytes32"
        }
      ],
      "stateMutability": "view",
      "type": "function"
    },
    {
      "inputs": [
        {
          "internalType": "uint256",
          "name": "_id",
          "type": "uint256"
        }
      ],
      "name": "refundSeller",
      "outputs": [],
      "stateMutability": "nonpayable",
      "type": "function"
    },
    {
      "inputs": [],
      "name": "renounceOwnership",
      "outputs": [],
      "stateMutability": "nonpayable",
      "type": "function"
    },
    {
      "inputs": [
        {
          "internalType": "address",
          "name": "_token",
          "type": "address"
        },
        {
          "internalType": "address",
          "name": "_CHT",
          "type": "address"
        }
      ],
      "name": "setINRCAddress",
      "outputs": [],
      "stateMutability": "nonpayable",
      "type": "function"
    },
    {
      "inputs": [
        {
          "internalType": "uint256",
          "name": "_id",
          "type": "uint256"
        },
        {
          "internalType": "uint256",
          "name": "_parentID",
          "type": "uint256"
        },
        {
          "internalType": "address",
          "name": "_buyer",
          "type": "address"
        },
        {
          "internalType": "uint256",
          "name": "_withdrawamount",
          "type": "uint256"
        },
        {
          "internalType": "uint256",
          "name": "_feeAmount",
          "type": "uint256"
        }
      ],
      "name": "setSwapID",
      "outputs": [],
      "stateMutability": "nonpayable",
      "type": "function"
    },
    {
      "inputs": [
        {
          "internalType": "uint256",
          "name": "_id",
          "type": "uint256"
        },
        {
          "internalType": "address",
          "name": "_seller",
          "type": "address"
        },
        {
          "internalType": "uint256",
          "name": "_endtime",
          "type": "uint256"
        },
        {
          "internalType": "uint256",
          "name": "_maxAmount",
          "type": "uint256"
        },
        {
          "internalType": "uint256",
          "name": "_feetoBepaid",
          "type": "uint256"
        }
      ],
      "name": "setTradeCloneID",
      "outputs": [],
      "stateMutability": "nonpayable",
      "type": "function"
    },
    {
      "inputs": [
        {
          "internalType": "address",
          "name": "newOwner",
          "type": "address"
        }
      ],
      "name": "transferOwnership",
      "outputs": [],
      "stateMutability": "nonpayable",
      "type": "function"
    },
    {
      "inputs": [],
      "name": "unpause",
      "outputs": [],
      "stateMutability": "nonpayable",
      "type": "function"
    },
    {
      "inputs": [
        {
          "internalType": "address",
          "name": "newImplementation",
          "type": "address"
        }
      ],
      "name": "upgradeTo",
      "outputs": [],
      "stateMutability": "nonpayable",
      "type": "function"
    },
    {
      "inputs": [
        {
          "internalType": "address",
          "name": "newImplementation",
          "type": "address"
        },
        {
          "internalType": "bytes",
          "name": "data",
          "type": "bytes"
        }
      ],
      "name": "upgradeToAndCall",
      "outputs": [],
      "stateMutability": "payable",
      "type": "function"
    },
    {
      "inputs": [
        {
          "internalType": "uint256",
          "name": "_id",
          "type": "uint256"
        }
      ],
      "name": "withDrawBuyer",
      "outputs": [],
      "stateMutability": "nonpayable",
      "type": "function"
    },
    {
      "inputs": [],
      "name": "withdrawFee",
      "outputs": [],
      "stateMutability": "nonpayable",
      "type": "function"
    }
  ],
  "bytecode": "0x60a06040523073ffffffffffffffffffffffffffffffffffffffff1660809073ffffffffffffffffffffffffffffffffffffffff168152503480156200004457600080fd5b50620000556200005b60201b60201c565b62000206565b600060019054906101000a900460ff1615620000ae576040517f08c379a0000000000000000000000000000000000000000000000000000000008152600401620000a590620001a9565b60405180910390fd5b60ff801660008054906101000a900460ff1660ff161015620001205760ff6000806101000a81548160ff021916908360ff1602179055507f7f26b83ff96e1f2b6a682f133852f6798a09c465da95921460cefb384740249860ff604051620001179190620001e9565b60405180910390a15b565b600082825260208201905092915050565b7f496e697469616c697a61626c653a20636f6e747261637420697320696e69746960008201527f616c697a696e6700000000000000000000000000000000000000000000000000602082015250565b60006200019160278362000122565b91506200019e8262000133565b604082019050919050565b60006020820190508181036000830152620001c48162000182565b9050919050565b600060ff82169050919050565b620001e381620001cb565b82525050565b6000602082019050620002006000830184620001d8565b92915050565b608051615ca86200023e60003960008181610969015281816109f701528181610b0301528181610b910152610c410152615ca86000f3fe60806040526004361061019c5760003560e01c80636ca7f95c116100ec5780638da5cb5b1161008a5780639fd6b265116100645780639fd6b2651461056b578063d3a95fde14610594578063e941fa78146105bd578063f2fde38b146105d45761019c565b80638da5cb5b146104ec578063906f130e146105175780639d7c1960146105425761019c565b80637f6bffd3116100c65780637f6bffd3146104395780637f9d22581461047b5780638129fc1c146104be5780638456cb59146104d55761019c565b80636ca7f95c146103cc578063715018a6146103f75780637abc498f1461040e5761019c565b80633f4ba83a1161015957806358830d361161013357806358830d36146103265780635c975abb1461034f5780636537e0b71461037a5780636ac47fac146103a35761019c565b80633f4ba83a146102c85780634f1ef286146102df57806352d1902d146102fb5761019c565b8063037f61a5146101a157806313cf372f146101ca57806315a054a414610207578063190220101461023257806319b56917146102765780633659cfe61461029f575b600080fd5b3480156101ad57600080fd5b506101c860048036038101906101c39190613d2d565b6105fd565b005b3480156101d657600080fd5b506101f160048036038101906101ec9190613dcb565b610812565b6040516101fe9190613e26565b60405180910390f35b34801561021357600080fd5b5061021c610842565b6040516102299190613e50565b60405180910390f35b34801561023e57600080fd5b5061025960048036038101906102549190613e6b565b610849565b60405161026d989796959493929190613ec6565b60405180910390f35b34801561028257600080fd5b5061029d60048036038101906102989190613f44565b6108d1565b005b3480156102ab57600080fd5b506102c660048036038101906102c19190613f84565b610967565b005b3480156102d457600080fd5b506102dd610aef565b005b6102f960048036038101906102f491906140f7565b610b01565b005b34801561030757600080fd5b50610310610c3d565b60405161031d919061416c565b60405180910390f35b34801561033257600080fd5b5061034d60048036038101906103489190613d2d565b610cf6565b005b34801561035b57600080fd5b5061036461158a565b6040516103719190613e26565b60405180910390f35b34801561038657600080fd5b506103a1600480360381019061039c9190613e6b565b6115a1565b005b3480156103af57600080fd5b506103ca60048036038101906103c59190614187565b611b57565b005b3480156103d857600080fd5b506103e1611fa8565b6040516103ee9190613e50565b60405180910390f35b34801561040357600080fd5b5061040c611faf565b005b34801561041a57600080fd5b50610423611fc3565b60405161043091906141ee565b60405180910390f35b34801561044557600080fd5b50610460600480360381019061045b9190613e6b565b611fe9565b60405161047296959493929190614209565b60405180910390f35b34801561048757600080fd5b506104a2600480360381019061049d9190613e6b565b612052565b6040516104b5979695949392919061426a565b60405180910390f35b3480156104ca57600080fd5b506104d36120d4565b005b3480156104e157600080fd5b506104ea612222565b005b3480156104f857600080fd5b50610501612234565b60405161050e91906141ee565b60405180910390f35b34801561052357600080fd5b5061052c61225e565b60405161053991906141ee565b60405180910390f35b34801561054e57600080fd5b50610569600480360381019061056491906142d9565b612284565b005b34801561057757600080fd5b50610592600480360381019061058d9190614354565b61259b565b005b3480156105a057600080fd5b506105bb60048036038101906105b69190613e6b565b6128f0565b005b3480156105c957600080fd5b506105d261316d565b005b3480156105e057600080fd5b506105fb60048036038101906105f69190613f84565b613365565b005b6106056133e8565b60008111610648576040517f08c379a000000000000000000000000000000000000000000000000000000000815260040161063f9061442c565b60405180910390fd5b61010260003373ffffffffffffffffffffffffffffffffffffffff1673ffffffffffffffffffffffffffffffffffffffff168152602001908152602001600020600083815260200190815260200160002060009054906101000a900460ff16156106e7576040517f08c379a00000000000000000000000000000000000000000000000000000000081526004016106de90614498565b60405180910390fd5b60ff60009054906101000a900473ffffffffffffffffffffffffffffffffffffffff1673ffffffffffffffffffffffffffffffffffffffff166323b872dd3330846040518463ffffffff1660e01b8152600401610746939291906144b8565b6020604051808303816000875af1158015610765573d6000803e3d6000fd5b505050506040513d601f19601f82011682018060405250810190610789919061451b565b5080610107600082825461079d9190614577565b92505081905550600161010260003373ffffffffffffffffffffffffffffffffffffffff1673ffffffffffffffffffffffffffffffffffffffff168152602001908152602001600020600084815260200190815260200160002060006101000a81548160ff0219169083151502179055505050565b6101026020528160005260406000206020528060005260406000206000915091509054906101000a900460ff1681565b6101075481565b60fc6020528060005260406000206000915090508060000154908060010160009054906101000a900473ffffffffffffffffffffffffffffffffffffffff16908060020154908060030154908060040154908060050160009054906101000a900463ffffffff16908060050160049054906101000a900463ffffffff16908060060154905088565b6108d96133e8565b6108e1613432565b8160fe60006101000a81548173ffffffffffffffffffffffffffffffffffffffff021916908373ffffffffffffffffffffffffffffffffffffffff1602179055508060ff60006101000a81548173ffffffffffffffffffffffffffffffffffffffff021916908373ffffffffffffffffffffffffffffffffffffffff1602179055505050565b7f000000000000000000000000000000000000000000000000000000000000000073ffffffffffffffffffffffffffffffffffffffff163073ffffffffffffffffffffffffffffffffffffffff16036109f5576040517f08c379a00000000000000000000000000000000000000000000000000000000081526004016109ec9061461d565b60405180910390fd5b7f000000000000000000000000000000000000000000000000000000000000000073ffffffffffffffffffffffffffffffffffffffff16610a346134b0565b73ffffffffffffffffffffffffffffffffffffffff1614610a8a576040517f08c379a0000000000000000000000000000000000000000000000000000000008152600401610a81906146af565b60405180910390fd5b610a9381613507565b610aec81600067ffffffffffffffff811115610ab257610ab1613fcc565b5b6040519080825280601f01601f191660200182016040528015610ae45781602001600182028036833780820191505090505b506000613512565b50565b610af7613432565b610aff613680565b565b7f000000000000000000000000000000000000000000000000000000000000000073ffffffffffffffffffffffffffffffffffffffff163073ffffffffffffffffffffffffffffffffffffffff1603610b8f576040517f08c379a0000000000000000000000000000000000000000000000000000000008152600401610b869061461d565b60405180910390fd5b7f000000000000000000000000000000000000000000000000000000000000000073ffffffffffffffffffffffffffffffffffffffff16610bce6134b0565b73ffffffffffffffffffffffffffffffffffffffff1614610c24576040517f08c379a0000000000000000000000000000000000000000000000000000000008152600401610c1b906146af565b60405180910390fd5b610c2d82613507565b610c3982826001613512565b5050565b60007f000000000000000000000000000000000000000000000000000000000000000073ffffffffffffffffffffffffffffffffffffffff163073ffffffffffffffffffffffffffffffffffffffff1614610ccd576040517f08c379a0000000000000000000000000000000000000000000000000000000008152600401610cc490614741565b60405180910390fd5b7f360894a13ba1a3210667c828492db98dca3e2076cc3735a920a3ca505d382bbc60001b905090565b610cfe6133e8565b61010260003373ffffffffffffffffffffffffffffffffffffffff1673ffffffffffffffffffffffffffffffffffffffff168152602001908152602001600020600083815260200190815260200160002060009054906101000a900460ff16610d9c576040517f08c379a0000000000000000000000000000000000000000000000000000000008152600401610d93906147ad565b60405180910390fd5b60008111610ddf576040517f08c379a0000000000000000000000000000000000000000000000000000000008152600401610dd690614819565b60405180910390fd5b610100600083815260200190815260200160002060009054906101000a900460ff16610e40576040517f08c379a0000000000000000000000000000000000000000000000000000000008152600401610e3790614885565b60405180910390fd5b610105600083815260200190815260200160002060009054906101000a900460ff1615610ea2576040517f08c379a0000000000000000000000000000000000000000000000000000000008152600401610e9990614917565b60405180910390fd5b6001610105600084815260200190815260200160002060006101000a81548160ff02191690831515021790555061010160003373ffffffffffffffffffffffffffffffffffffffff1673ffffffffffffffffffffffffffffffffffffffff168152602001908152602001600020600083815260200190815260200160002060009054906101000a900460ff1615610f6e576040517f08c379a0000000000000000000000000000000000000000000000000000000008152600401610f65906149a9565b60405180910390fd5b600161010160003373ffffffffffffffffffffffffffffffffffffffff1673ffffffffffffffffffffffffffffffffffffffff168152602001908152602001600020600084815260200190815260200160002060006101000a81548160ff021916908315150217905550600060fc600084815260200190815260200160002060405180610100016040529081600082015481526020016001820160009054906101000a900473ffffffffffffffffffffffffffffffffffffffff1673ffffffffffffffffffffffffffffffffffffffff1673ffffffffffffffffffffffffffffffffffffffff1681526020016002820154815260200160038201548152602001600482015481526020016005820160009054906101000a900463ffffffff1663ffffffff1663ffffffff1681526020016005820160049054906101000a900463ffffffff1663ffffffff1663ffffffff1681526020016006820154815250509050600073ffffffffffffffffffffffffffffffffffffffff16816020015173ffffffffffffffffffffffffffffffffffffffff1603611142576040517f08c379a000000000000000000000000000000000000000000000000000000000815260040161113990614a15565b60405180910390fd5b6000816020015190508073ffffffffffffffffffffffffffffffffffffffff163373ffffffffffffffffffffffffffffffffffffffff16036111b9576040517f08c379a00000000000000000000000000000000000000000000000000000000081526004016111b090614a81565b60405180910390fd5b81606001518383608001516111ce9190614577565b1061120e576040517f08c379a000000000000000000000000000000000000000000000000000000000815260040161120590614aed565b60405180910390fd5b81604001514210611254576040517f08c379a000000000000000000000000000000000000000000000000000000000815260040161124b90614b59565b60405180910390fd5b60008260e00151905080841161129f576040517f08c379a000000000000000000000000000000000000000000000000000000000815260040161129690614bc5565b60405180910390fd5b600081146113705760fe60009054906101000a900473ffffffffffffffffffffffffffffffffffffffff1673ffffffffffffffffffffffffffffffffffffffff166323b872dd3330846040518463ffffffff1660e01b8152600401611306939291906144b8565b6020604051808303816000875af1158015611325573d6000803e3d6000fd5b505050506040513d601f19601f82011682018060405250810190611349919061451b565b5080610106600082825461135d9190614577565b9250508190555060008360e00181815250505b6000818561137e9190614be5565b905084846080018181516113929190614577565b915081815250508360fc60008881526020019081526020016000206000820151816000015560208201518160010160006101000a81548173ffffffffffffffffffffffffffffffffffffffff021916908373ffffffffffffffffffffffffffffffffffffffff16021790555060408201518160020155606082015181600301556080820151816004015560a08201518160050160006101000a81548163ffffffff021916908363ffffffff16021790555060c08201518160050160046101000a81548163ffffffff021916908363ffffffff16021790555060e0820151816006015590505060fe60009054906101000a900473ffffffffffffffffffffffffffffffffffffffff1673ffffffffffffffffffffffffffffffffffffffff166323b872dd3385846040518463ffffffff1660e01b81526004016114d6939291906144b8565b6020604051808303816000875af11580156114f5573d6000803e3d6000fd5b505050506040513d601f19601f82011682018060405250810190611519919061451b565b506000610105600088815260200190815260200160002060006101000a81548160ff0219169083151502179055507f0e59104d78356648ea023bd00b5f93cf6e40a67c3d6878d137423c4a6532053086338760405161157a93929190614c19565b60405180910390a1505050505050565b600060c960009054906101000a900460ff16905090565b6115a96133e8565b61010260003373ffffffffffffffffffffffffffffffffffffffff1673ffffffffffffffffffffffffffffffffffffffff168152602001908152602001600020600082815260200190815260200160002060009054906101000a900460ff16611647576040517f08c379a000000000000000000000000000000000000000000000000000000000815260040161163e906147ad565b60405180910390fd5b610104600082815260200190815260200160002060009054906101000a900460ff16156116a9576040517f08c379a00000000000000000000000000000000000000000000000000000000081526004016116a090614917565b60405180910390fd5b6001610104600083815260200190815260200160002060006101000a81548160ff021916908315150217905550600060fb60008381526020019081526020016000206040518060e0016040529081600082015481526020016001820160009054906101000a900473ffffffffffffffffffffffffffffffffffffffff1673ffffffffffffffffffffffffffffffffffffffff1673ffffffffffffffffffffffffffffffffffffffff1681526020016002820154815260200160038201548152602001600482015481526020016005820160009054906101000a900463ffffffff1663ffffffff1663ffffffff1681526020016005820160049054906101000a900463ffffffff1663ffffffff1663ffffffff16815250509050806020015173ffffffffffffffffffffffffffffffffffffffff163373ffffffffffffffffffffffffffffffffffffffff1614611834576040517f08c379a000000000000000000000000000000000000000000000000000000000815260040161182b90614c9c565b60405180910390fd5b610100600083815260200190815260200160002060009054906101000a900460ff16611895576040517f08c379a000000000000000000000000000000000000000000000000000000000815260040161188c90614d08565b60405180910390fd5b60008160800151116118dc576040517f08c379a00000000000000000000000000000000000000000000000000000000081526004016118d390614d9a565b60405180910390fd5b80604001514211611922576040517f08c379a000000000000000000000000000000000000000000000000000000000815260040161191990614e06565b60405180910390fd5b6000610100600084815260200190815260200160002060006101000a81548160ff021916908315150217905550600081608001519050808260800181815161196a9190614be5565b915081815250508160fb60008581526020019081526020016000206000820151816000015560208201518160010160006101000a81548173ffffffffffffffffffffffffffffffffffffffff021916908373ffffffffffffffffffffffffffffffffffffffff16021790555060408201518160020155606082015181600301556080820151816004015560a08201518160050160006101000a81548163ffffffff021916908363ffffffff16021790555060c08201518160050160046101000a81548163ffffffff021916908363ffffffff1602179055509050506000610104600085815260200190815260200160002060006101000a81548160ff02191690831515021790555060fe60009054906101000a900473ffffffffffffffffffffffffffffffffffffffff1673ffffffffffffffffffffffffffffffffffffffff1663a9059cbb8360200151836040518363ffffffff1660e01b8152600401611ad3929190614e26565b6020604051808303816000875af1158015611af2573d6000803e3d6000fd5b505050506040513d601f19601f82011682018060405250810190611b16919061451b565b507f1852ceb13126c22f394b77ad6298d993dfb7813f9b3139349e3c3f0852c1fe74833383604051611b4a93929190614c19565b60405180910390a1505050565b611b5f6133e8565b61010260003373ffffffffffffffffffffffffffffffffffffffff1673ffffffffffffffffffffffffffffffffffffffff168152602001908152602001600020600084815260200190815260200160002060009054906101000a900460ff16611bfd576040517f08c379a0000000000000000000000000000000000000000000000000000000008152600401611bf4906147ad565b60405180910390fd5b8373ffffffffffffffffffffffffffffffffffffffff163373ffffffffffffffffffffffffffffffffffffffff1614611c6b576040517f08c379a0000000000000000000000000000000000000000000000000000000008152600401611c6290614c9c565b60405180910390fd5b610100600084815260200190815260200160002060009054906101000a900460ff1615611ccd576040517f08c379a0000000000000000000000000000000000000000000000000000000008152600401611cc490614e9b565b60405180910390fd5b60008211611d10576040517f08c379a0000000000000000000000000000000000000000000000000000000008152600401611d0790614f07565b60405180910390fd5b60008111611d53576040517f08c379a0000000000000000000000000000000000000000000000000000000008152600401611d4a90614f73565b60405180910390fd5b60008142611d619190614577565b90506001610100600086815260200190815260200160002060006101000a81548160ff02191690831515021790555060006040518060e001604052808681526020018773ffffffffffffffffffffffffffffffffffffffff1681526020018381526020018581526020018581526020016201388163ffffffff1681526020016101a463ffffffff16815250905060fe60009054906101000a900473ffffffffffffffffffffffffffffffffffffffff1673ffffffffffffffffffffffffffffffffffffffff166323b872dd3330876040518463ffffffff1660e01b8152600401611e4d939291906144b8565b6020604051808303816000875af1158015611e6c573d6000803e3d6000fd5b505050506040513d601f19601f82011682018060405250810190611e90919061451b565b508060fb60008781526020019081526020016000206000820151816000015560208201518160010160006101000a81548173ffffffffffffffffffffffffffffffffffffffff021916908373ffffffffffffffffffffffffffffffffffffffff16021790555060408201518160020155606082015181600301556080820151816004015560a08201518160050160006101000a81548163ffffffff021916908363ffffffff16021790555060c08201518160050160046101000a81548163ffffffff021916908363ffffffff1602179055509050507f70eca58c343efaba8ae2a4073dc68f37df918cfa453bea81e607a74ccb85d125858786604051611f9893929190614c19565b60405180910390a1505050505050565b6101065481565b611fb7613432565b611fc160006136e3565b565b60ff60009054906101000a900473ffffffffffffffffffffffffffffffffffffffff1681565b60fd6020528060005260406000206000915090508060000154908060010154908060020160009054906101000a900473ffffffffffffffffffffffffffffffffffffffff16908060030154908060040154908060050160009054906101000a900460ff16905086565b60fb6020528060005260406000206000915090508060000154908060010160009054906101000a900473ffffffffffffffffffffffffffffffffffffffff16908060020154908060030154908060040154908060050160009054906101000a900463ffffffff16908060050160049054906101000a900463ffffffff16905087565b60008060019054906101000a900460ff161590508080156121055750600160008054906101000a900460ff1660ff16105b806121325750612114306137a9565b1580156121315750600160008054906101000a900460ff1660ff16145b5b612171576040517f08c379a000000000000000000000000000000000000000000000000000000000815260040161216890615005565b60405180910390fd5b60016000806101000a81548160ff021916908360ff16021790555080156121ae576001600060016101000a81548160ff0219169083151502179055505b6121b66137cc565b6121be61381d565b6121c6613876565b801561221f5760008060016101000a81548160ff0219169083151502179055507f7f26b83ff96e1f2b6a682f133852f6798a09c465da95921460cefb384740249860016040516122169190615077565b60405180910390a15b50565b61222a613432565b6122326138cf565b565b6000609760009054906101000a900473ffffffffffffffffffffffffffffffffffffffff16905090565b60fe60009054906101000a900473ffffffffffffffffffffffffffffffffffffffff1681565b61228c613432565b6122946133e8565b610100600086815260200190815260200160002060009054906101000a900460ff16156122f6576040517f08c379a00000000000000000000000000000000000000000000000000000000081526004016122ed90615104565b60405180910390fd5b61010260008573ffffffffffffffffffffffffffffffffffffffff1673ffffffffffffffffffffffffffffffffffffffff168152602001908152602001600020600086815260200190815260200160002060009054906101000a900460ff16612394576040517f08c379a000000000000000000000000000000000000000000000000000000000815260040161238b906147ad565b60405180910390fd5b600082116123d7576040517f08c379a00000000000000000000000000000000000000000000000000000000081526004016123ce90615170565b60405180910390fd5b60008084426123e69190614577565b905060006040518061010001604052808981526020018873ffffffffffffffffffffffffffffffffffffffff1681526020018381526020018681526020018481526020016101a463ffffffff1681526020016201388163ffffffff1681526020018581525090508060fc60008a81526020019081526020016000206000820151816000015560208201518160010160006101000a81548173ffffffffffffffffffffffffffffffffffffffff021916908373ffffffffffffffffffffffffffffffffffffffff16021790555060408201518160020155606082015181600301556080820151816004015560a08201518160050160006101000a81548163ffffffff021916908363ffffffff16021790555060c08201518160050160046101000a81548163ffffffff021916908363ffffffff16021790555060e08201518160060155905050600161010060008a815260200190815260200160002060006101000a81548160ff0219169083151502179055507f244d7078e79ff879576610bab60172dae6b48ee3189d25f86f76abc0c37582888888604051612589929190615190565b60405180910390a15050505050505050565b6125a3613432565b6125ab6133e8565b610103600086815260200190815260200160002060009054906101000a900460ff161561260d576040517f08c379a000000000000000000000000000000000000000000000000000000000815260040161260490615205565b60405180910390fd5b61010260008473ffffffffffffffffffffffffffffffffffffffff1673ffffffffffffffffffffffffffffffffffffffff168152602001908152602001600020600086815260200190815260200160002060009054906101000a900460ff166126ab576040517f08c379a00000000000000000000000000000000000000000000000000000000081526004016126a2906147ad565b60405180910390fd5b610100600085815260200190815260200160002060009054906101000a900460ff1661270c576040517f08c379a000000000000000000000000000000000000000000000000000000000815260040161270390615297565b60405180910390fd5b6000821161274f576040517f08c379a000000000000000000000000000000000000000000000000000000000815260040161274690615170565b60405180910390fd5b808211612791576040517f08c379a000000000000000000000000000000000000000000000000000000000815260040161278890615329565b60405180910390fd5b6000806040518060c001604052808881526020018781526020018673ffffffffffffffffffffffffffffffffffffffff16815260200185815260200184815260200183151581525090508060fd6000898152602001908152602001600020600082015181600001556020820151816001015560408201518160020160006101000a81548173ffffffffffffffffffffffffffffffffffffffff021916908373ffffffffffffffffffffffffffffffffffffffff160217905550606082015181600301556080820151816004015560a08201518160050160006101000a81548160ff0219169083151502179055509050506001610103600089815260200190815260200160002060006101000a81548160ff0219169083151502179055507fcae8f20940e3c6d60e303e7ac879e97f3f9736b43dd74d366948f1cdfc8e9f7787866040516128df929190615190565b60405180910390a150505050505050565b6128f86133e8565b61010260003373ffffffffffffffffffffffffffffffffffffffff1673ffffffffffffffffffffffffffffffffffffffff168152602001908152602001600020600082815260200190815260200160002060009054906101000a900460ff16612996576040517f08c379a000000000000000000000000000000000000000000000000000000000815260040161298d906147ad565b60405180910390fd5b610103600082815260200190815260200160002060009054906101000a900460ff166129f7576040517f08c379a00000000000000000000000000000000000000000000000000000000081526004016129ee90615395565b60405180910390fd5b6000610103600083815260200190815260200160002060006101000a81548160ff021916908315150217905550600060fd60008381526020019081526020016000206040518060c001604052908160008201548152602001600182015481526020016002820160009054906101000a900473ffffffffffffffffffffffffffffffffffffffff1673ffffffffffffffffffffffffffffffffffffffff1673ffffffffffffffffffffffffffffffffffffffff16815260200160038201548152602001600482015481526020016005820160009054906101000a900460ff1615151515815250509050600081602001519050610104600082815260200190815260200160002060009054906101000a900460ff1615612b4a576040517f08c379a0000000000000000000000000000000000000000000000000000000008152600401612b4190614917565b60405180910390fd5b6001610104600083815260200190815260200160002060006101000a81548160ff021916908315150217905550600082608001518360600151612b8d9190614be5565b9050600083604001519050600073ffffffffffffffffffffffffffffffffffffffff168173ffffffffffffffffffffffffffffffffffffffff1603612c07576040517f08c379a0000000000000000000000000000000000000000000000000000000008152600401612bfe90615401565b60405180910390fd5b8073ffffffffffffffffffffffffffffffffffffffff163373ffffffffffffffffffffffffffffffffffffffff1614612c75576040517f08c379a0000000000000000000000000000000000000000000000000000000008152600401612c6c90614c9c565b60405180910390fd5b60008211612cb8576040517f08c379a0000000000000000000000000000000000000000000000000000000008152600401612caf9061546d565b60405180910390fd5b610100600084815260200190815260200160002060009054906101000a900460ff16612d19576040517f08c379a0000000000000000000000000000000000000000000000000000000008152600401612d1090615297565b60405180910390fd5b600060fb60008581526020019081526020016000206040518060e0016040529081600082015481526020016001820160009054906101000a900473ffffffffffffffffffffffffffffffffffffffff1673ffffffffffffffffffffffffffffffffffffffff1673ffffffffffffffffffffffffffffffffffffffff1681526020016002820154815260200160038201548152602001600482015481526020016005820160009054906101000a900463ffffffff1663ffffffff1663ffffffff1681526020016005820160049054906101000a900463ffffffff1663ffffffff1663ffffffff1681525050905080604001514210612e4b576040517f08c379a0000000000000000000000000000000000000000000000000000000008152600401612e42906154ff565b60405180910390fd5b806080015185606001511115612e96576040517f08c379a0000000000000000000000000000000000000000000000000000000008152600401612e8d90615591565b60405180910390fd5b846060015181608001818151612eac9190614be5565b9150818152505060018560a00190151590811515815250508060fb60008681526020019081526020016000206000820151816000015560208201518160010160006101000a81548173ffffffffffffffffffffffffffffffffffffffff021916908373ffffffffffffffffffffffffffffffffffffffff16021790555060408201518160020155606082015181600301556080820151816004015560a08201518160050160006101000a81548163ffffffff021916908363ffffffff16021790555060c08201518160050160046101000a81548163ffffffff021916908363ffffffff1602179055509050508460fd6000888152602001908152602001600020600082015181600001556020820151816001015560408201518160020160006101000a81548173ffffffffffffffffffffffffffffffffffffffff021916908373ffffffffffffffffffffffffffffffffffffffff160217905550606082015181600301556080820151816004015560a08201518160050160006101000a81548160ff021916908315150217905550905050846080015161010660008282546130559190614577565b925050819055506000610104600086815260200190815260200160002060006101000a81548160ff02191690831515021790555060fe60009054906101000a900473ffffffffffffffffffffffffffffffffffffffff1673ffffffffffffffffffffffffffffffffffffffff1663a9059cbb83856040518363ffffffff1660e01b81526004016130e6929190614e26565b6020604051808303816000875af1158015613105573d6000803e3d6000fd5b505050506040513d601f19601f82011682018060405250810190613129919061451b565b507f217de69216c60b6e5c5108753aeccf4f10269eeff9b93f206552d2d3d1d04bc586853360405161315d939291906155b1565b60405180910390a1505050505050565b613175613432565b61317d6133e8565b600061010654116131c3576040517f08c379a00000000000000000000000000000000000000000000000000000000081526004016131ba90615634565b60405180910390fd5b60006101075411613209576040517f08c379a000000000000000000000000000000000000000000000000000000000815260040161320090615634565b60405180910390fd5b60006101078190555060006101068190555060fe60009054906101000a900473ffffffffffffffffffffffffffffffffffffffff1673ffffffffffffffffffffffffffffffffffffffff1663a9059cbb33610106546040518363ffffffff1660e01b815260040161327b929190614e26565b6020604051808303816000875af115801561329a573d6000803e3d6000fd5b505050506040513d601f19601f820116820180604052508101906132be919061451b565b5060ff60009054906101000a900473ffffffffffffffffffffffffffffffffffffffff1673ffffffffffffffffffffffffffffffffffffffff1663a9059cbb33610107546040518363ffffffff1660e01b815260040161331f929190614e26565b6020604051808303816000875af115801561333e573d6000803e3d6000fd5b505050506040513d601f19601f82011682018060405250810190613362919061451b565b50565b61336d613432565b600073ffffffffffffffffffffffffffffffffffffffff168173ffffffffffffffffffffffffffffffffffffffff16036133dc576040517f08c379a00000000000000000000000000000000000000000000000000000000081526004016133d3906156c6565b60405180910390fd5b6133e5816136e3565b50565b6133f061158a565b15613430576040517f08c379a000000000000000000000000000000000000000000000000000000000815260040161342790615732565b60405180910390fd5b565b61343a613932565b73ffffffffffffffffffffffffffffffffffffffff16613458612234565b73ffffffffffffffffffffffffffffffffffffffff16146134ae576040517f08c379a00000000000000000000000000000000000000000000000000000000081526004016134a59061579e565b60405180910390fd5b565b60006134de7f360894a13ba1a3210667c828492db98dca3e2076cc3735a920a3ca505d382bbc60001b61393a565b60000160009054906101000a900473ffffffffffffffffffffffffffffffffffffffff16905090565b61350f613432565b50565b61353e7f4910fdfa16fed3260ed0e7147f7cc6da11a60208b5b9406d12a635614ffd914360001b613944565b60000160009054906101000a900460ff16156135625761355d8361394e565b61367b565b8273ffffffffffffffffffffffffffffffffffffffff166352d1902d6040518163ffffffff1660e01b8152600401602060405180830381865afa9250505080156135ca57506040513d601f19601f820116820180604052508101906135c791906157ea565b60015b613609576040517f08c379a000000000000000000000000000000000000000000000000000000000815260040161360090615889565b60405180910390fd5b7f360894a13ba1a3210667c828492db98dca3e2076cc3735a920a3ca505d382bbc60001b811461366e576040517f08c379a00000000000000000000000000000000000000000000000000000000081526004016136659061591b565b60405180910390fd5b5061367a838383613a07565b5b505050565b613688613a33565b600060c960006101000a81548160ff0219169083151502179055507f5db9ee0a495bf2e6ff9c91a7834c1ba4fdd244a5e8aa4e537bd38aeae4b073aa6136cc613932565b6040516136d991906141ee565b60405180910390a1565b6000609760009054906101000a900473ffffffffffffffffffffffffffffffffffffffff16905081609760006101000a81548173ffffffffffffffffffffffffffffffffffffffff021916908373ffffffffffffffffffffffffffffffffffffffff1602179055508173ffffffffffffffffffffffffffffffffffffffff168173ffffffffffffffffffffffffffffffffffffffff167f8be0079c531659141344cd1fd0a4f28419497f9722a3daafe3b4186f6b6457e060405160405180910390a35050565b6000808273ffffffffffffffffffffffffffffffffffffffff163b119050919050565b600060019054906101000a900460ff1661381b576040517f08c379a0000000000000000000000000000000000000000000000000000000008152600401613812906159ad565b60405180910390fd5b565b600060019054906101000a900460ff1661386c576040517f08c379a0000000000000000000000000000000000000000000000000000000008152600401613863906159ad565b60405180910390fd5b613874613a7c565b565b600060019054906101000a900460ff166138c5576040517f08c379a00000000000000000000000000000000000000000000000000000000081526004016138bc906159ad565b60405180910390fd5b6138cd613add565b565b6138d76133e8565b600160c960006101000a81548160ff0219169083151502179055507f62e78cea01bee320cd4e420270b5ea74000d11b0c9f74754ebdbfc544b05a25861391b613932565b60405161392891906141ee565b60405180910390a1565b600033905090565b6000819050919050565b6000819050919050565b613957816137a9565b613996576040517f08c379a000000000000000000000000000000000000000000000000000000000815260040161398d90615a3f565b60405180910390fd5b806139c37f360894a13ba1a3210667c828492db98dca3e2076cc3735a920a3ca505d382bbc60001b61393a565b60000160006101000a81548173ffffffffffffffffffffffffffffffffffffffff021916908373ffffffffffffffffffffffffffffffffffffffff16021790555050565b613a1083613b49565b600082511180613a1d5750805b15613a2e57613a2c8383613b98565b505b505050565b613a3b61158a565b613a7a576040517f08c379a0000000000000000000000000000000000000000000000000000000008152600401613a7190615aab565b60405180910390fd5b565b600060019054906101000a900460ff16613acb576040517f08c379a0000000000000000000000000000000000000000000000000000000008152600401613ac2906159ad565b60405180910390fd5b613adb613ad6613932565b6136e3565b565b600060019054906101000a900460ff16613b2c576040517f08c379a0000000000000000000000000000000000000000000000000000000008152600401613b23906159ad565b60405180910390fd5b600060c960006101000a81548160ff021916908315150217905550565b613b528161394e565b8073ffffffffffffffffffffffffffffffffffffffff167fbc7cd75a20ee27fd9adebab32041f755214dbc6bffa90cc0225b39da2e5c2d3b60405160405180910390a250565b6060613ba3836137a9565b613be2576040517f08c379a0000000000000000000000000000000000000000000000000000000008152600401613bd990615b3d565b60405180910390fd5b6000808473ffffffffffffffffffffffffffffffffffffffff1684604051613c0a9190615bce565b600060405180830381855af49150503d8060008114613c45576040519150601f19603f3d011682016040523d82523d6000602084013e613c4a565b606091505b5091509150613c728282604051806060016040528060278152602001615c4c60279139613c7c565b9250505092915050565b60608315613c8c57829050613cdc565b600083511115613c9f5782518084602001fd5b816040517f08c379a0000000000000000000000000000000000000000000000000000000008152600401613cd39190615c29565b60405180910390fd5b9392505050565b6000604051905090565b600080fd5b600080fd5b6000819050919050565b613d0a81613cf7565b8114613d1557600080fd5b50565b600081359050613d2781613d01565b92915050565b60008060408385031215613d4457613d43613ced565b5b6000613d5285828601613d18565b9250506020613d6385828601613d18565b9150509250929050565b600073ffffffffffffffffffffffffffffffffffffffff82169050919050565b6000613d9882613d6d565b9050919050565b613da881613d8d565b8114613db357600080fd5b50565b600081359050613dc581613d9f565b92915050565b60008060408385031215613de257613de1613ced565b5b6000613df085828601613db6565b9250506020613e0185828601613d18565b9150509250929050565b60008115159050919050565b613e2081613e0b565b82525050565b6000602082019050613e3b6000830184613e17565b92915050565b613e4a81613cf7565b82525050565b6000602082019050613e656000830184613e41565b92915050565b600060208284031215613e8157613e80613ced565b5b6000613e8f84828501613d18565b91505092915050565b613ea181613d8d565b82525050565b600063ffffffff82169050919050565b613ec081613ea7565b82525050565b600061010082019050613edc600083018b613e41565b613ee9602083018a613e98565b613ef66040830189613e41565b613f036060830188613e41565b613f106080830187613e41565b613f1d60a0830186613eb7565b613f2a60c0830185613eb7565b613f3760e0830184613e41565b9998505050505050505050565b60008060408385031215613f5b57613f5a613ced565b5b6000613f6985828601613db6565b9250506020613f7a85828601613db6565b9150509250929050565b600060208284031215613f9a57613f99613ced565b5b6000613fa884828501613db6565b91505092915050565b600080fd5b600080fd5b6000601f19601f8301169050919050565b7f4e487b7100000000000000000000000000000000000000000000000000000000600052604160045260246000fd5b61400482613fbb565b810181811067ffffffffffffffff8211171561402357614022613fcc565b5b80604052505050565b6000614036613ce3565b90506140428282613ffb565b919050565b600067ffffffffffffffff82111561406257614061613fcc565b5b61406b82613fbb565b9050602081019050919050565b82818337600083830152505050565b600061409a61409584614047565b61402c565b9050828152602081018484840111156140b6576140b5613fb6565b5b6140c1848285614078565b509392505050565b600082601f8301126140de576140dd613fb1565b5b81356140ee848260208601614087565b91505092915050565b6000806040838503121561410e5761410d613ced565b5b600061411c85828601613db6565b925050602083013567ffffffffffffffff81111561413d5761413c613cf2565b5b614149858286016140c9565b9150509250929050565b6000819050919050565b61416681614153565b82525050565b6000602082019050614181600083018461415d565b92915050565b600080600080608085870312156141a1576141a0613ced565b5b60006141af87828801613db6565b94505060206141c087828801613d18565b93505060406141d187828801613d18565b92505060606141e287828801613d18565b91505092959194509250565b60006020820190506142036000830184613e98565b92915050565b600060c08201905061421e6000830189613e41565b61422b6020830188613e41565b6142386040830187613e98565b6142456060830186613e41565b6142526080830185613e41565b61425f60a0830184613e17565b979650505050505050565b600060e08201905061427f600083018a613e41565b61428c6020830189613e98565b6142996040830188613e41565b6142a66060830187613e41565b6142b36080830186613e41565b6142c060a0830185613eb7565b6142cd60c0830184613eb7565b98975050505050505050565b600080600080600060a086880312156142f5576142f4613ced565b5b600061430388828901613d18565b955050602061431488828901613db6565b945050604061432588828901613d18565b935050606061433688828901613d18565b925050608061434788828901613d18565b9150509295509295909350565b600080600080600060a086880312156143705761436f613ced565b5b600061437e88828901613d18565b955050602061438f88828901613d18565b94505060406143a088828901613db6565b93505060606143b188828901613d18565b92505060806143c288828901613d18565b9150509295509295909350565b600082825260208201905092915050565b7f302076616c756500000000000000000000000000000000000000000000000000600082015250565b60006144166007836143cf565b9150614421826143e0565b602082019050919050565b6000602082019050818103600083015261444581614409565b9050919050565b7f666565207061696420616c726561647900000000000000000000000000000000600082015250565b60006144826010836143cf565b915061448d8261444c565b602082019050919050565b600060208201905081810360008301526144b181614475565b9050919050565b60006060820190506144cd6000830186613e98565b6144da6020830185613e98565b6144e76040830184613e41565b949350505050565b6144f881613e0b565b811461450357600080fd5b50565b600081519050614515816144ef565b92915050565b60006020828403121561453157614530613ced565b5b600061453f84828501614506565b91505092915050565b7f4e487b7100000000000000000000000000000000000000000000000000000000600052601160045260246000fd5b600061458282613cf7565b915061458d83613cf7565b92508282019050808211156145a5576145a4614548565b5b92915050565b7f46756e6374696f6e206d7573742062652063616c6c6564207468726f7567682060008201527f64656c656761746563616c6c0000000000000000000000000000000000000000602082015250565b6000614607602c836143cf565b9150614612826145ab565b604082019050919050565b60006020820190508181036000830152614636816145fa565b9050919050565b7f46756e6374696f6e206d7573742062652063616c6c6564207468726f7567682060008201527f6163746976652070726f78790000000000000000000000000000000000000000602082015250565b6000614699602c836143cf565b91506146a48261463d565b604082019050919050565b600060208201905081810360008301526146c88161468c565b9050919050565b7f555550535570677261646561626c653a206d757374206e6f742062652063616c60008201527f6c6564207468726f7567682064656c656761746563616c6c0000000000000000602082015250565b600061472b6038836143cf565b9150614736826146cf565b604082019050919050565b6000602082019050818103600083015261475a8161471e565b9050919050565b7f5061792066656520666972737400000000000000000000000000000000000000600082015250565b6000614797600d836143cf565b91506147a282614761565b602082019050919050565b600060208201905081810360008301526147c68161478a565b9050919050565b7f616d6f756e742063616e6e6f74206265207a65726f0000000000000000000000600082015250565b60006148036015836143cf565b915061480e826147cd565b602082019050919050565b60006020820190508181036000830152614832816147f6565b9050919050565b7f747261646520446f6573206e6f74206578697374000000000000000000000000600082015250565b600061486f6014836143cf565b915061487a82614839565b602082019050919050565b6000602082019050818103600083015261489e81614862565b9050919050565b7f506c656173652073656e64207472616e73616374696f6e20696e20736f6d652060008201527f74696d6500000000000000000000000000000000000000000000000000000000602082015250565b60006149016024836143cf565b915061490c826148a5565b604082019050919050565b60006020820190508181036000830152614930816148f4565b9050919050565b7f796f752063616e206f6e6c79206f707420666f722061207472616465206f6e6360008201527f6500000000000000000000000000000000000000000000000000000000000000602082015250565b60006149936021836143cf565b915061499e82614937565b604082019050919050565b600060208201905081810360008301526149c281614986565b9050919050565b7f7468697320747261646520646f6573206e6f7420657869737400000000000000600082015250565b60006149ff6019836143cf565b9150614a0a826149c9565b602082019050919050565b60006020820190508181036000830152614a2e816149f2565b9050919050565b7f73656c6c65722063616e74206275790000000000000000000000000000000000600082015250565b6000614a6b600f836143cf565b9150614a7682614a35565b602082019050919050565b60006020820190508181036000830152614a9a81614a5e565b9050919050565b7f546865207472616465206e6f206c6f6e676572206861732066756e6473000000600082015250565b6000614ad7601d836143cf565b9150614ae282614aa1565b602082019050919050565b60006020820190508181036000830152614b0681614aca565b9050919050565b7f546869732074726164652068617320656e646564000000000000000000000000600082015250565b6000614b436014836143cf565b9150614b4e82614b0d565b602082019050919050565b60006020820190508181036000830152614b7281614b36565b9050919050565b7f547261646520616d6f756e7420746f6f206c6f77000000000000000000000000600082015250565b6000614baf6014836143cf565b9150614bba82614b79565b602082019050919050565b60006020820190508181036000830152614bde81614ba2565b9050919050565b6000614bf082613cf7565b9150614bfb83613cf7565b9250828203905081811115614c1357614c12614548565b5b92915050565b6000606082019050614c2e6000830186613e41565b614c3b6020830185613e98565b614c486040830184613e41565b949350505050565b7f756e617574686f72697a65640000000000000000000000000000000000000000600082015250565b6000614c86600c836143cf565b9150614c9182614c50565b602082019050919050565b60006020820190508181036000830152614cb581614c79565b9050919050565b7f73746f702067657420736f6d652068656c700000000000000000000000000000600082015250565b6000614cf26012836143cf565b9150614cfd82614cbc565b602082019050919050565b60006020820190508181036000830152614d2181614ce5565b9050919050565b7f746865726520617265206e6f2066756e647320617661696c61626c6520666f7260008201527f20726566756e6400000000000000000000000000000000000000000000000000602082015250565b6000614d846027836143cf565b9150614d8f82614d28565b604082019050919050565b60006020820190508181036000830152614db381614d77565b9050919050565b7f746865207472616465206973206f6e676f696e67000000000000000000000000600082015250565b6000614df06014836143cf565b9150614dfb82614dba565b602082019050919050565b60006020820190508181036000830152614e1f81614de3565b9050919050565b6000604082019050614e3b6000830185613e98565b614e486020830184613e41565b9392505050565b7f747261646520616c726561647920657869737473000000000000000000000000600082015250565b6000614e856014836143cf565b9150614e9082614e4f565b602082019050919050565b60006020820190508181036000830152614eb481614e78565b9050919050565b7f4e6f6e207a65726f2076616c756573206f6e6c79000000000000000000000000600082015250565b6000614ef16014836143cf565b9150614efc82614ebb565b602082019050919050565b60006020820190508181036000830152614f2081614ee4565b9050919050565b7f456e6474696d65206d7573742062652067726561746572000000000000000000600082015250565b6000614f5d6017836143cf565b9150614f6882614f27565b602082019050919050565b60006020820190508181036000830152614f8c81614f50565b9050919050565b7f496e697469616c697a61626c653a20636f6e747261637420697320616c72656160008201527f647920696e697469616c697a6564000000000000000000000000000000000000602082015250565b6000614fef602e836143cf565b9150614ffa82614f93565b604082019050919050565b6000602082019050818103600083015261501e81614fe2565b9050919050565b6000819050919050565b600060ff82169050919050565b6000819050919050565b600061506161505c61505784615025565b61503c565b61502f565b9050919050565b61507181615046565b82525050565b600060208201905061508c6000830184615068565b92915050565b7f547261646520636c6f6e6520616c72656164792065786973747320616e64206960008201527f6e2070726f677265737300000000000000000000000000000000000000000000602082015250565b60006150ee602a836143cf565b91506150f982615092565b604082019050919050565b6000602082019050818103600083015261511d816150e1565b9050919050565b7f6e6f6e207a65726f2076616c756573206f6e6c79000000000000000000000000600082015250565b600061515a6014836143cf565b915061516582615124565b602082019050919050565b600060208201905081810360008301526151898161514d565b9050919050565b60006040820190506151a56000830185613e41565b6151b26020830184613e98565b9392505050565b7f73776170207374696c6c20696e2070726f677265737300000000000000000000600082015250565b60006151ef6016836143cf565b91506151fa826151b9565b602082019050919050565b6000602082019050818103600083015261521e816151e2565b9050919050565b7f54726164652068617320656e646564206f7220646f6573206e6f74206578697360008201527f7400000000000000000000000000000000000000000000000000000000000000602082015250565b60006152816021836143cf565b915061528c82615225565b604082019050919050565b600060208201905081810360008301526152b081615274565b9050919050565b7f616d6f756e742073686f756c642062652067726561746572207468616e20666560008201527f6500000000000000000000000000000000000000000000000000000000000000602082015250565b60006153136021836143cf565b915061531e826152b7565b604082019050919050565b6000602082019050818103600083015261534281615306565b9050919050565b7f7377617020646f6573206e6f7420657869737400000000000000000000000000600082015250565b600061537f6013836143cf565b915061538a82615349565b602082019050919050565b600060208201905081810360008301526153ae81615372565b9050919050565b7f7377617020697320696e76616c69640000000000000000000000000000000000600082015250565b60006153eb600f836143cf565b91506153f6826153b5565b602082019050919050565b6000602082019050818103600083015261541a816153de565b9050919050565b7f616d6f756e74206973207a65726f000000000000000000000000000000000000600082015250565b6000615457600e836143cf565b915061546282615421565b602082019050919050565b600060208201905081810360008301526154868161544a565b9050919050565b7f74696d6520686173206578636565646564207472616465206e6f206c6f6e676560008201527f7220657869737473000000000000000000000000000000000000000000000000602082015250565b60006154e96028836143cf565b91506154f48261548d565b604082019050919050565b60006020820190508181036000830152615518816154dc565b9050919050565b7f616d6f756e74206578636565647320747261646520616d6f756e7420706c656160008201527f7365207265636865636b00000000000000000000000000000000000000000000602082015250565b600061557b602a836143cf565b91506155868261551f565b604082019050919050565b600060208201905081810360008301526155aa8161556e565b9050919050565b60006060820190506155c66000830186613e41565b6155d36020830185613e41565b6155e06040830184613e98565b949350505050565b7f6e6f206665657320617661696c61626c65000000000000000000000000000000600082015250565b600061561e6011836143cf565b9150615629826155e8565b602082019050919050565b6000602082019050818103600083015261564d81615611565b9050919050565b7f4f776e61626c653a206e6577206f776e657220697320746865207a65726f206160008201527f6464726573730000000000000000000000000000000000000000000000000000602082015250565b60006156b06026836143cf565b91506156bb82615654565b604082019050919050565b600060208201905081810360008301526156df816156a3565b9050919050565b7f5061757361626c653a2070617573656400000000000000000000000000000000600082015250565b600061571c6010836143cf565b9150615727826156e6565b602082019050919050565b6000602082019050818103600083015261574b8161570f565b9050919050565b7f4f776e61626c653a2063616c6c6572206973206e6f7420746865206f776e6572600082015250565b60006157886020836143cf565b915061579382615752565b602082019050919050565b600060208201905081810360008301526157b78161577b565b9050919050565b6157c781614153565b81146157d257600080fd5b50565b6000815190506157e4816157be565b92915050565b600060208284031215615800576157ff613ced565b5b600061580e848285016157d5565b91505092915050565b7f45524331393637557067726164653a206e657720696d706c656d656e7461746960008201527f6f6e206973206e6f742055555053000000000000000000000000000000000000602082015250565b6000615873602e836143cf565b915061587e82615817565b604082019050919050565b600060208201905081810360008301526158a281615866565b9050919050565b7f45524331393637557067726164653a20756e737570706f727465642070726f7860008201527f6961626c65555549440000000000000000000000000000000000000000000000602082015250565b60006159056029836143cf565b9150615910826158a9565b604082019050919050565b60006020820190508181036000830152615934816158f8565b9050919050565b7f496e697469616c697a61626c653a20636f6e7472616374206973206e6f74206960008201527f6e697469616c697a696e67000000000000000000000000000000000000000000602082015250565b6000615997602b836143cf565b91506159a28261593b565b604082019050919050565b600060208201905081810360008301526159c68161598a565b9050919050565b7f455243313936373a206e657720696d706c656d656e746174696f6e206973206e60008201527f6f74206120636f6e747261637400000000000000000000000000000000000000602082015250565b6000615a29602d836143cf565b9150615a34826159cd565b604082019050919050565b60006020820190508181036000830152615a5881615a1c565b9050919050565b7f5061757361626c653a206e6f7420706175736564000000000000000000000000600082015250565b6000615a956014836143cf565b9150615aa082615a5f565b602082019050919050565b60006020820190508181036000830152615ac481615a88565b9050919050565b7f416464726573733a2064656c65676174652063616c6c20746f206e6f6e2d636f60008201527f6e74726163740000000000000000000000000000000000000000000000000000602082015250565b6000615b276026836143cf565b9150615b3282615acb565b604082019050919050565b60006020820190508181036000830152615b5681615b1a565b9050919050565b600081519050919050565b600081905092915050565b60005b83811015615b91578082015181840152602081019050615b76565b60008484015250505050565b6000615ba882615b5d565b615bb28185615b68565b9350615bc2818560208601615b73565b80840191505092915050565b6000615bda8284615b9d565b915081905092915050565b600081519050919050565b6000615bfb82615be5565b615c0581856143cf565b9350615c15818560208601615b73565b615c1e81613fbb565b840191505092915050565b60006020820190508181036000830152615c438184615bf0565b90509291505056fe416464726573733a206c6f772d6c6576656c2064656c65676174652063616c6c206661696c6564a26469706673582212200cced06ff70947397597e0651166a8b80d9c0217ca74f01186375d5eadd248d564736f6c63430008110033",
  "linkReferences": {},
  "deployedLinkReferences": {}
}