{
  "_format": "hh-sol-artifact-1",
  "contractName": "TreasuryPool",
  "sourceName": "contracts/treasuryPool.sol",
  "abi": [
    {
      "inputs": [],
      "stateMutability": "nonpayable",
      "type": "constructor"
    },
    {
      "anonymous": false,
      "inputs": [
        {
          "indexed": false,
          "internalType": "address",
          "name": "previousAdmin",
          "type": "address"
        },
        {
          "indexed": false,
          "internalType": "address",
          "name": "newAdmin",
          "type": "address"
        }
      ],
      "name": "AdminChanged",
      "type": "event"
    },
    {
      "anonymous": false,
      "inputs": [
        {
          "indexed": true,
          "internalType": "address",
          "name": "beacon",
          "type": "address"
        }
      ],
      "name": "BeaconUpgraded",
      "type": "event"
    },
    {
      "anonymous": false,
      "inputs": [
        {
          "indexed": false,
          "internalType": "uint8",
          "name": "version",
          "type": "uint8"
        }
      ],
      "name": "Initialized",
      "type": "event"
    },
    {
      "anonymous": false,
      "inputs": [
        {
          "indexed": true,
          "internalType": "address",
          "name": "previousOwner",
          "type": "address"
        },
        {
          "indexed": true,
          "internalType": "address",
          "name": "newOwner",
          "type": "address"
        }
      ],
      "name": "OwnershipTransferred",
      "type": "event"
    },
    {
      "anonymous": false,
      "inputs": [
        {
          "indexed": false,
          "internalType": "address",
          "name": "account",
          "type": "address"
        }
      ],
      "name": "Paused",
      "type": "event"
    },
    {
      "anonymous": false,
      "inputs": [
        {
          "indexed": false,
          "internalType": "string",
          "name": "USD",
          "type": "string"
        },
        {
          "indexed": false,
          "internalType": "uint256",
          "name": "ID",
          "type": "uint256"
        },
        {
          "indexed": false,
          "internalType": "address",
          "name": "buyer",
          "type": "address"
        },
        {
          "indexed": false,
          "internalType": "uint256",
          "name": "amount",
          "type": "uint256"
        },
        {
          "indexed": false,
          "internalType": "uint256",
          "name": "balanceNew",
          "type": "uint256"
        },
        {
          "indexed": false,
          "internalType": "uint256",
          "name": "UsdBalance",
          "type": "uint256"
        }
      ],
      "name": "Recieved",
      "type": "event"
    },
    {
      "anonymous": false,
      "inputs": [
        {
          "indexed": false,
          "internalType": "string",
          "name": "USD",
          "type": "string"
        },
        {
          "indexed": false,
          "internalType": "address",
          "name": "redeemer",
          "type": "address"
        },
        {
          "indexed": false,
          "internalType": "uint256",
          "name": "amount",
          "type": "uint256"
        },
        {
          "indexed": false,
          "internalType": "uint256",
          "name": "balanceNew",
          "type": "uint256"
        },
        {
          "indexed": false,
          "internalType": "uint256",
          "name": "USDbalance",
          "type": "uint256"
        }
      ],
      "name": "Redeemed",
      "type": "event"
    },
    {
      "anonymous": false,
      "inputs": [
        {
          "indexed": false,
          "internalType": "address",
          "name": "account",
          "type": "address"
        }
      ],
      "name": "Unpaused",
      "type": "event"
    },
    {
      "anonymous": false,
      "inputs": [
        {
          "indexed": true,
          "internalType": "address",
          "name": "implementation",
          "type": "address"
        }
      ],
      "name": "Upgraded",
      "type": "event"
    },
    {
      "inputs": [
        {
          "internalType": "uint8",
          "name": "_usd",
          "type": "uint8"
        },
        {
          "internalType": "uint256",
          "name": "MintID",
          "type": "uint256"
        },
        {
          "internalType": "uint256",
          "name": "_amount",
          "type": "uint256"
        }
      ],
      "name": "Buy",
      "outputs": [],
      "stateMutability": "nonpayable",
      "type": "function"
    },
    {
      "inputs": [
        {
          "internalType": "uint256",
          "name": "MintID",
          "type": "uint256"
        }
      ],
      "name": "BuyNat",
      "outputs": [],
      "stateMutability": "payable",
      "type": "function"
    },
    {
      "inputs": [],
      "name": "BuynatDisable",
      "outputs": [
        {
          "internalType": "bool",
          "name": "",
          "type": "bool"
        }
      ],
      "stateMutability": "view",
      "type": "function"
    },
    {
      "inputs": [],
      "name": "Maxminted",
      "outputs": [
        {
          "internalType": "bool",
          "name": "",
          "type": "bool"
        }
      ],
      "stateMutability": "view",
      "type": "function"
    },
    {
      "inputs": [
        {
          "internalType": "address",
          "name": "redeemer",
          "type": "address"
        },
        {
          "internalType": "uint8",
          "name": "_usd",
          "type": "uint8"
        },
        {
          "internalType": "uint256",
          "name": "_amount",
          "type": "uint256"
        }
      ],
      "name": "Redeem",
      "outputs": [],
      "stateMutability": "nonpayable",
      "type": "function"
    },
    {
      "inputs": [
        {
          "internalType": "address",
          "name": "redeemer",
          "type": "address"
        },
        {
          "internalType": "uint256",
          "name": "_amount",
          "type": "uint256"
        }
      ],
      "name": "RedeemNat",
      "outputs": [],
      "stateMutability": "payable",
      "type": "function"
    },
    {
      "inputs": [
        {
          "internalType": "uint8",
          "name": "",
          "type": "uint8"
        }
      ],
      "name": "TPbalanceUSD",
      "outputs": [
        {
          "internalType": "uint256",
          "name": "",
          "type": "uint256"
        }
      ],
      "stateMutability": "view",
      "type": "function"
    },
    {
      "inputs": [
        {
          "internalType": "uint8",
          "name": "",
          "type": "uint8"
        }
      ],
      "name": "USDStable",
      "outputs": [
        {
          "internalType": "address",
          "name": "",
          "type": "address"
        }
      ],
      "stateMutability": "view",
      "type": "function"
    },
    {
      "inputs": [
        {
          "internalType": "uint8",
          "name": "_length",
          "type": "uint8"
        }
      ],
      "name": "getTPbalance",
      "outputs": [
        {
          "internalType": "uint256[]",
          "name": "",
          "type": "uint256[]"
        }
      ],
      "stateMutability": "view",
      "type": "function"
    },
    {
      "inputs": [],
      "name": "initialize",
      "outputs": [],
      "stateMutability": "nonpayable",
      "type": "function"
    },
    {
      "inputs": [
        {
          "internalType": "uint8",
          "name": "",
          "type": "uint8"
        }
      ],
      "name": "names",
      "outputs": [
        {
          "internalType": "string",
          "name": "",
          "type": "string"
        }
      ],
      "stateMutability": "view",
      "type": "function"
    },
    {
      "inputs": [],
      "name": "owner",
      "outputs": [
        {
          "internalType": "address",
          "name": "",
          "type": "address"
        }
      ],
      "stateMutability": "view",
      "type": "function"
    },
    {
      "inputs": [],
      "name": "pause",
      "outputs": [],
      "stateMutability": "nonpayable",
      "type": "function"
    },
    {
      "inputs": [],
      "name": "paused",
      "outputs": [
        {
          "internalType": "bool",
          "name": "",
          "type": "bool"
        }
      ],
      "stateMutability": "view",
      "type": "function"
    },
    {
      "inputs": [],
      "name": "proxiableUUID",
      "outputs": [
        {
          "internalType": "bytes32",
          "name": "",
          "type": "bytes32"
        }
      ],
      "stateMutability": "view",
      "type": "function"
    },
    {
      "inputs": [],
      "name": "renounceOwnership",
      "outputs": [],
      "stateMutability": "nonpayable",
      "type": "function"
    },
    {
      "inputs": [
        {
          "internalType": "bool",
          "name": "_disable",
          "type": "bool"
        }
      ],
      "name": "setDisable",
      "outputs": [],
      "stateMutability": "nonpayable",
      "type": "function"
    },
    {
      "inputs": [
        {
          "internalType": "bool",
          "name": "_over",
          "type": "bool"
        }
      ],
      "name": "setMinter",
      "outputs": [],
      "stateMutability": "nonpayable",
      "type": "function"
    },
    {
      "inputs": [
        {
          "internalType": "uint8",
          "name": "_index",
          "type": "uint8"
        },
        {
          "internalType": "string",
          "name": "_name",
          "type": "string"
        },
        {
          "internalType": "address",
          "name": "_USD",
          "type": "address"
        }
      ],
      "name": "setUSDAddress",
      "outputs": [],
      "stateMutability": "nonpayable",
      "type": "function"
    },
    {
      "inputs": [],
      "name": "tPtotalBalance",
      "outputs": [
        {
          "internalType": "uint256",
          "name": "",
          "type": "uint256"
        }
      ],
      "stateMutability": "view",
      "type": "function"
    },
    {
      "inputs": [],
      "name": "tPtotalBalanceNative",
      "outputs": [
        {
          "internalType": "uint256",
          "name": "",
          "type": "uint256"
        }
      ],
      "stateMutability": "view",
      "type": "function"
    },
    {
      "inputs": [
        {
          "internalType": "address",
          "name": "newOwner",
          "type": "address"
        }
      ],
      "name": "transferOwnership",
      "outputs": [],
      "stateMutability": "nonpayable",
      "type": "function"
    },
    {
      "inputs": [],
      "name": "unpause",
      "outputs": [],
      "stateMutability": "nonpayable",
      "type": "function"
    },
    {
      "inputs": [
        {
          "internalType": "address",
          "name": "newImplementation",
          "type": "address"
        }
      ],
      "name": "upgradeTo",
      "outputs": [],
      "stateMutability": "nonpayable",
      "type": "function"
    },
    {
      "inputs": [
        {
          "internalType": "address",
          "name": "newImplementation",
          "type": "address"
        },
        {
          "internalType": "bytes",
          "name": "data",
          "type": "bytes"
        }
      ],
      "name": "upgradeToAndCall",
      "outputs": [],
      "stateMutability": "payable",
      "type": "function"
    }
  ],
  "bytecode": "0x60a06040523073ffffffffffffffffffffffffffffffffffffffff1660809073ffffffffffffffffffffffffffffffffffffffff168152503480156200004457600080fd5b50620000556200005b60201b60201c565b62000206565b600060019054906101000a900460ff1615620000ae576040517f08c379a0000000000000000000000000000000000000000000000000000000008152600401620000a590620001a9565b60405180910390fd5b60ff801660008054906101000a900460ff1660ff161015620001205760ff6000806101000a81548160ff021916908360ff1602179055507f7f26b83ff96e1f2b6a682f133852f6798a09c465da95921460cefb384740249860ff604051620001179190620001e9565b60405180910390a15b565b600082825260208201905092915050565b7f496e697469616c697a61626c653a20636f6e747261637420697320696e69746960008201527f616c697a696e6700000000000000000000000000000000000000000000000000602082015250565b60006200019160278362000122565b91506200019e8262000133565b604082019050919050565b60006020820190508181036000830152620001c48162000182565b9050919050565b600060ff82169050919050565b620001e381620001cb565b82525050565b6000602082019050620002006000830184620001d8565b92915050565b6080516136376200023e600039600081816109bb01528181610a4901528181610b6801528181610bf60152610ca601526136376000f3fe6080604052600436106101655760003560e01c80636b3fc31a116100d15780638dcae3261161008a578063a3a6ae1311610064578063a3a6ae13146104b4578063b955fa9a146104dd578063d472480414610506578063f2fde38b1461053157610165565b80638dcae326146104235780639a1043b51461044c5780639b24856e1461048957610165565b80636b3fc31a1461034d578063715018a6146103765780637257a4931461038d5780638129fc1c146103ca5780638456cb59146103e15780638da5cb5b146103f857610165565b8063452a2e7b11610123578063452a2e7b1461025c5780634f1ef2861461028757806352d1902d146102a35780635c975abb146102ce5780636a3cbc4a146102f95780636b2e28331461032257610165565b8062fa764b1461016a578063124d85ef146101865780632c70411b146101c357806335d9b320146102005780633659cfe61461021c5780633f4ba83a14610245575b600080fd5b610184600480360381019061017f9190611ea6565b61055a565b005b34801561019257600080fd5b506101ad60048036038101906101a89190611f0c565b6106e3565b6040516101ba9190611ff7565b60405180910390f35b3480156101cf57600080fd5b506101ea60048036038101906101e59190611f0c565b61079f565b6040516101f7919061205a565b60405180910390f35b61021a600480360381019061021591906120a1565b6107d2565b005b34801561022857600080fd5b50610243600480360381019061023e91906120e1565b6109b9565b005b34801561025157600080fd5b5061025a610b41565b005b34801561026857600080fd5b50610271610b53565b60405161027e9190612129565b60405180910390f35b6102a1600480360381019061029c919061228a565b610b66565b005b3480156102af57600080fd5b506102b8610ca2565b6040516102c591906122ff565b60405180910390f35b3480156102da57600080fd5b506102e3610d5b565b6040516102f09190612129565b60405180910390f35b34801561030557600080fd5b50610320600480360381019061031b91906123bb565b610d72565b005b34801561032e57600080fd5b50610337610e06565b6040516103449190612129565b60405180910390f35b34801561035957600080fd5b50610374600480360381019061036f9190612456565b610e19565b005b34801561038257600080fd5b5061038b610e46565b005b34801561039957600080fd5b506103b460048036038101906103af9190611f0c565b610e5a565b6040516103c19190612502565b60405180910390f35b3480156103d657600080fd5b506103df610efa565b005b3480156103ed57600080fd5b506103f6611048565b005b34801561040457600080fd5b5061040d61105a565b60405161041a919061205a565b60405180910390f35b34801561042f57600080fd5b5061044a60048036038101906104459190612456565b611084565b005b34801561045857600080fd5b50610473600480360381019061046e9190611f0c565b6110b1565b6040516104809190612533565b60405180910390f35b34801561049557600080fd5b5061049e6110c9565b6040516104ab9190612533565b60405180910390f35b3480156104c057600080fd5b506104db60048036038101906104d6919061254e565b6110d0565b005b3480156104e957600080fd5b5061050460048036038101906104ff91906125a1565b6112c1565b005b34801561051257600080fd5b5061051b6114d8565b6040516105289190612533565b60405180910390f35b34801561053d57600080fd5b50610558600480360381019061055391906120e1565b6114de565b005b610562611561565b600034116105a5576040517f08c379a000000000000000000000000000000000000000000000000000000000815260040161059c90612640565b60405180910390fd5b60fd60009054906101000a900460ff16156105f5576040517f08c379a00000000000000000000000000000000000000000000000000000000081526004016105ec906126ac565b60405180910390fd5b60fd60019054906101000a900460ff1615610645576040517f08c379a000000000000000000000000000000000000000000000000000000000815260040161063c9061273e565b60405180910390fd5b60006040518060400160405280600581526020017f4d415449430000000000000000000000000000000000000000000000000000008152509050346101006000828254610692919061278d565b925050819055507f6c15dac833d09e6374c066862e8ce105d08e657a958c784285ba82375086104f8183333460ff54610100546040516106d7969594939291906127c1565b60405180910390a15050565b606060008260ff1667ffffffffffffffff8111156107045761070361215f565b5b6040519080825280602002602001820160405280156107325781602001602082028036833780820191505090505b50905060005b8360ff168160ff1610156107955760fe60008260ff1660ff16815260200190815260200160002054828260ff168151811061077657610775612829565b5b602002602001018181525050808061078d90612858565b915050610738565b5080915050919050565b60fb6020528060005260406000206000915054906101000a900473ffffffffffffffffffffffffffffffffffffffff1681565b6107da6115ab565b6107e2611561565b60008111610825576040517f08c379a000000000000000000000000000000000000000000000000000000000815260040161081c90612640565b60405180910390fd5b60fd60009054906101000a900460ff1615610875576040517f08c379a000000000000000000000000000000000000000000000000000000000815260040161086c906126ac565b60405180910390fd5b60fd60019054906101000a900460ff16156108c5576040517f08c379a00000000000000000000000000000000000000000000000000000000081526004016108bc9061273e565b60405180910390fd5b610100548111156108d557600080fd5b60006040518060400160405280600581526020017f4d4154494300000000000000000000000000000000000000000000000000000081525090508161010060008282546109229190612881565b925050819055508273ffffffffffffffffffffffffffffffffffffffff166108fc839081150290604051600060405180830381858888f1935050505015801561096f573d6000803e3d6000fd5b507fe2360a1e9b372e7da72be76637abfd2c1f678512f7ad5e44e4019db46a5aeed881848460ff54610100546040516109ac9594939291906128b5565b60405180910390a1505050565b7f000000000000000000000000000000000000000000000000000000000000000073ffffffffffffffffffffffffffffffffffffffff163073ffffffffffffffffffffffffffffffffffffffff1603610a47576040517f08c379a0000000000000000000000000000000000000000000000000000000008152600401610a3e90612981565b60405180910390fd5b7f000000000000000000000000000000000000000000000000000000000000000073ffffffffffffffffffffffffffffffffffffffff16610a86611629565b73ffffffffffffffffffffffffffffffffffffffff1614610adc576040517f08c379a0000000000000000000000000000000000000000000000000000000008152600401610ad390612a13565b60405180910390fd5b610ae581611680565b610b3e81600067ffffffffffffffff811115610b0457610b0361215f565b5b6040519080825280601f01601f191660200182016040528015610b365781602001600182028036833780820191505090505b50600061168b565b50565b610b496115ab565b610b516117f9565b565b60fd60009054906101000a900460ff1681565b7f000000000000000000000000000000000000000000000000000000000000000073ffffffffffffffffffffffffffffffffffffffff163073ffffffffffffffffffffffffffffffffffffffff1603610bf4576040517f08c379a0000000000000000000000000000000000000000000000000000000008152600401610beb90612981565b60405180910390fd5b7f000000000000000000000000000000000000000000000000000000000000000073ffffffffffffffffffffffffffffffffffffffff16610c33611629565b73ffffffffffffffffffffffffffffffffffffffff1614610c89576040517f08c379a0000000000000000000000000000000000000000000000000000000008152600401610c8090612a13565b60405180910390fd5b610c9282611680565b610c9e8282600161168b565b5050565b60007f000000000000000000000000000000000000000000000000000000000000000073ffffffffffffffffffffffffffffffffffffffff163073ffffffffffffffffffffffffffffffffffffffff1614610d32576040517f08c379a0000000000000000000000000000000000000000000000000000000008152600401610d2990612aa5565b60405180910390fd5b7f360894a13ba1a3210667c828492db98dca3e2076cc3735a920a3ca505d382bbc60001b905090565b6000609760009054906101000a900460ff16905090565b610d7a6115ab565b610d82611561565b8060fb60008560ff1660ff16815260200190815260200160002060006101000a81548173ffffffffffffffffffffffffffffffffffffffff021916908373ffffffffffffffffffffffffffffffffffffffff1602179055508160fc60008560ff1660ff1681526020019081526020016000209081610e009190612cd1565b50505050565b60fd60019054906101000a900460ff1681565b610e216115ab565b610e29611561565b8060fd60016101000a81548160ff02191690831515021790555050565b610e4e6115ab565b610e58600061185c565b565b60fc6020528060005260406000206000915090508054610e7990612af4565b80601f0160208091040260200160405190810160405280929190818152602001828054610ea590612af4565b8015610ef25780601f10610ec757610100808354040283529160200191610ef2565b820191906000526020600020905b815481529060010190602001808311610ed557829003601f168201915b505050505081565b60008060019054906101000a900460ff16159050808015610f2b5750600160008054906101000a900460ff1660ff16105b80610f585750610f3a30611922565b158015610f575750600160008054906101000a900460ff1660ff16145b5b610f97576040517f08c379a0000000000000000000000000000000000000000000000000000000008152600401610f8e90612e15565b60405180910390fd5b60016000806101000a81548160ff021916908360ff1602179055508015610fd4576001600060016101000a81548160ff0219169083151502179055505b610fdc611945565b610fe4611996565b610fec6119ef565b80156110455760008060016101000a81548160ff0219169083151502179055507f7f26b83ff96e1f2b6a682f133852f6798a09c465da95921460cefb3847402498600160405161103c9190612e70565b60405180910390a15b50565b6110506115ab565b611058611a48565b565b600060c960009054906101000a900473ffffffffffffffffffffffffffffffffffffffff16905090565b61108c6115ab565b611094611561565b8060fd60006101000a81548160ff02191690831515021790555050565b60fe6020528060005260406000206000915090505481565b6101005481565b6110d86115ab565b6110e0611561565b60008111611123576040517f08c379a000000000000000000000000000000000000000000000000000000000815260040161111a90612640565b60405180910390fd5b60fe60008360ff1660ff1681526020019081526020016000205481111561114957600080fd5b8060fe60008460ff1660ff16815260200190815260200160002060008282546111729190612881565b925050819055508060ff600082825461118b9190612881565b9250508190555060fb60008360ff1660ff16815260200190815260200160002060009054906101000a900473ffffffffffffffffffffffffffffffffffffffff1673ffffffffffffffffffffffffffffffffffffffff1663a9059cbb84836040518363ffffffff1660e01b8152600401611206929190612e8b565b6020604051808303816000875af1158015611225573d6000803e3d6000fd5b505050506040513d601f19601f820116820180604052508101906112499190612ec9565b507fe2360a1e9b372e7da72be76637abfd2c1f678512f7ad5e44e4019db46a5aeed860fc60008460ff1660ff168152602001908152602001600020848360ff5460fe60008860ff1660ff168152602001908152602001600020546040516112b4959493929190612f7a565b60405180910390a1505050565b6112c9611561565b6000811161130c576040517f08c379a000000000000000000000000000000000000000000000000000000000815260040161130390612640565b60405180910390fd5b60fd60009054906101000a900460ff161561135c576040517f08c379a0000000000000000000000000000000000000000000000000000000008152600401611353906126ac565b60405180910390fd5b60fb60008460ff1660ff16815260200190815260200160002060009054906101000a900473ffffffffffffffffffffffffffffffffffffffff1673ffffffffffffffffffffffffffffffffffffffff166323b872dd3330846040518463ffffffff1660e01b81526004016113d293929190612fd4565b6020604051808303816000875af11580156113f1573d6000803e3d6000fd5b505050506040513d601f19601f820116820180604052508101906114159190612ec9565b508060fe60008560ff1660ff168152602001908152602001600020600082825461143f919061278d565b925050819055508060ff6000828254611458919061278d565b925050819055507f6c15dac833d09e6374c066862e8ce105d08e657a958c784285ba82375086104f60fc60008560ff1660ff16815260200190815260200160002083338460ff5460fe60008a60ff1660ff168152602001908152602001600020546040516114cb9695949392919061300b565b60405180910390a1505050565b60ff5481565b6114e66115ab565b600073ffffffffffffffffffffffffffffffffffffffff168173ffffffffffffffffffffffffffffffffffffffff1603611555576040517f08c379a000000000000000000000000000000000000000000000000000000000815260040161154c906130e5565b60405180910390fd5b61155e8161185c565b50565b611569610d5b565b156115a9576040517f08c379a00000000000000000000000000000000000000000000000000000000081526004016115a090613151565b60405180910390fd5b565b6115b3611aab565b73ffffffffffffffffffffffffffffffffffffffff166115d161105a565b73ffffffffffffffffffffffffffffffffffffffff1614611627576040517f08c379a000000000000000000000000000000000000000000000000000000000815260040161161e906131bd565b60405180910390fd5b565b60006116577f360894a13ba1a3210667c828492db98dca3e2076cc3735a920a3ca505d382bbc60001b611ab3565b60000160009054906101000a900473ffffffffffffffffffffffffffffffffffffffff16905090565b6116886115ab565b50565b6116b77f4910fdfa16fed3260ed0e7147f7cc6da11a60208b5b9406d12a635614ffd914360001b611abd565b60000160009054906101000a900460ff16156116db576116d683611ac7565b6117f4565b8273ffffffffffffffffffffffffffffffffffffffff166352d1902d6040518163ffffffff1660e01b8152600401602060405180830381865afa92505050801561174357506040513d601f19601f820116820180604052508101906117409190613209565b60015b611782576040517f08c379a0000000000000000000000000000000000000000000000000000000008152600401611779906132a8565b60405180910390fd5b7f360894a13ba1a3210667c828492db98dca3e2076cc3735a920a3ca505d382bbc60001b81146117e7576040517f08c379a00000000000000000000000000000000000000000000000000000000081526004016117de9061333a565b60405180910390fd5b506117f3838383611b80565b5b505050565b611801611bac565b6000609760006101000a81548160ff0219169083151502179055507f5db9ee0a495bf2e6ff9c91a7834c1ba4fdd244a5e8aa4e537bd38aeae4b073aa611845611aab565b604051611852919061205a565b60405180910390a1565b600060c960009054906101000a900473ffffffffffffffffffffffffffffffffffffffff1690508160c960006101000a81548173ffffffffffffffffffffffffffffffffffffffff021916908373ffffffffffffffffffffffffffffffffffffffff1602179055508173ffffffffffffffffffffffffffffffffffffffff168173ffffffffffffffffffffffffffffffffffffffff167f8be0079c531659141344cd1fd0a4f28419497f9722a3daafe3b4186f6b6457e060405160405180910390a35050565b6000808273ffffffffffffffffffffffffffffffffffffffff163b119050919050565b600060019054906101000a900460ff16611994576040517f08c379a000000000000000000000000000000000000000000000000000000000815260040161198b906133cc565b60405180910390fd5b565b600060019054906101000a900460ff166119e5576040517f08c379a00000000000000000000000000000000000000000000000000000000081526004016119dc906133cc565b60405180910390fd5b6119ed611bf5565b565b600060019054906101000a900460ff16611a3e576040517f08c379a0000000000000000000000000000000000000000000000000000000008152600401611a35906133cc565b60405180910390fd5b611a46611c56565b565b611a50611561565b6001609760006101000a81548160ff0219169083151502179055507f62e78cea01bee320cd4e420270b5ea74000d11b0c9f74754ebdbfc544b05a258611a94611aab565b604051611aa1919061205a565b60405180910390a1565b600033905090565b6000819050919050565b6000819050919050565b611ad081611922565b611b0f576040517f08c379a0000000000000000000000000000000000000000000000000000000008152600401611b069061345e565b60405180910390fd5b80611b3c7f360894a13ba1a3210667c828492db98dca3e2076cc3735a920a3ca505d382bbc60001b611ab3565b60000160006101000a81548173ffffffffffffffffffffffffffffffffffffffff021916908373ffffffffffffffffffffffffffffffffffffffff16021790555050565b611b8983611cc2565b600082511180611b965750805b15611ba757611ba58383611d11565b505b505050565b611bb4610d5b565b611bf3576040517f08c379a0000000000000000000000000000000000000000000000000000000008152600401611bea906134ca565b60405180910390fd5b565b600060019054906101000a900460ff16611c44576040517f08c379a0000000000000000000000000000000000000000000000000000000008152600401611c3b906133cc565b60405180910390fd5b611c54611c4f611aab565b61185c565b565b600060019054906101000a900460ff16611ca5576040517f08c379a0000000000000000000000000000000000000000000000000000000008152600401611c9c906133cc565b60405180910390fd5b6000609760006101000a81548160ff021916908315150217905550565b611ccb81611ac7565b8073ffffffffffffffffffffffffffffffffffffffff167fbc7cd75a20ee27fd9adebab32041f755214dbc6bffa90cc0225b39da2e5c2d3b60405160405180910390a250565b6060611d1c83611922565b611d5b576040517f08c379a0000000000000000000000000000000000000000000000000000000008152600401611d529061355c565b60405180910390fd5b6000808473ffffffffffffffffffffffffffffffffffffffff1684604051611d8391906135c3565b600060405180830381855af49150503d8060008114611dbe576040519150601f19603f3d011682016040523d82523d6000602084013e611dc3565b606091505b5091509150611deb82826040518060600160405280602781526020016135db60279139611df5565b9250505092915050565b60608315611e0557829050611e55565b600083511115611e185782518084602001fd5b816040517f08c379a0000000000000000000000000000000000000000000000000000000008152600401611e4c9190612502565b60405180910390fd5b9392505050565b6000604051905090565b600080fd5b600080fd5b6000819050919050565b611e8381611e70565b8114611e8e57600080fd5b50565b600081359050611ea081611e7a565b92915050565b600060208284031215611ebc57611ebb611e66565b5b6000611eca84828501611e91565b91505092915050565b600060ff82169050919050565b611ee981611ed3565b8114611ef457600080fd5b50565b600081359050611f0681611ee0565b92915050565b600060208284031215611f2257611f21611e66565b5b6000611f3084828501611ef7565b91505092915050565b600081519050919050565b600082825260208201905092915050565b6000819050602082019050919050565b611f6e81611e70565b82525050565b6000611f808383611f65565b60208301905092915050565b6000602082019050919050565b6000611fa482611f39565b611fae8185611f44565b9350611fb983611f55565b8060005b83811015611fea578151611fd18882611f74565b9750611fdc83611f8c565b925050600181019050611fbd565b5085935050505092915050565b600060208201905081810360008301526120118184611f99565b905092915050565b600073ffffffffffffffffffffffffffffffffffffffff82169050919050565b600061204482612019565b9050919050565b61205481612039565b82525050565b600060208201905061206f600083018461204b565b92915050565b61207e81612039565b811461208957600080fd5b50565b60008135905061209b81612075565b92915050565b600080604083850312156120b8576120b7611e66565b5b60006120c68582860161208c565b92505060206120d785828601611e91565b9150509250929050565b6000602082840312156120f7576120f6611e66565b5b60006121058482850161208c565b91505092915050565b60008115159050919050565b6121238161210e565b82525050565b600060208201905061213e600083018461211a565b92915050565b600080fd5b600080fd5b6000601f19601f8301169050919050565b7f4e487b7100000000000000000000000000000000000000000000000000000000600052604160045260246000fd5b6121978261214e565b810181811067ffffffffffffffff821117156121b6576121b561215f565b5b80604052505050565b60006121c9611e5c565b90506121d5828261218e565b919050565b600067ffffffffffffffff8211156121f5576121f461215f565b5b6121fe8261214e565b9050602081019050919050565b82818337600083830152505050565b600061222d612228846121da565b6121bf565b90508281526020810184848401111561224957612248612149565b5b61225484828561220b565b509392505050565b600082601f83011261227157612270612144565b5b813561228184826020860161221a565b91505092915050565b600080604083850312156122a1576122a0611e66565b5b60006122af8582860161208c565b925050602083013567ffffffffffffffff8111156122d0576122cf611e6b565b5b6122dc8582860161225c565b9150509250929050565b6000819050919050565b6122f9816122e6565b82525050565b600060208201905061231460008301846122f0565b92915050565b600067ffffffffffffffff8211156123355761233461215f565b5b61233e8261214e565b9050602081019050919050565b600061235e6123598461231a565b6121bf565b90508281526020810184848401111561237a57612379612149565b5b61238584828561220b565b509392505050565b600082601f8301126123a2576123a1612144565b5b81356123b284826020860161234b565b91505092915050565b6000806000606084860312156123d4576123d3611e66565b5b60006123e286828701611ef7565b935050602084013567ffffffffffffffff81111561240357612402611e6b565b5b61240f8682870161238d565b92505060406124208682870161208c565b9150509250925092565b6124338161210e565b811461243e57600080fd5b50565b6000813590506124508161242a565b92915050565b60006020828403121561246c5761246b611e66565b5b600061247a84828501612441565b91505092915050565b600081519050919050565b600082825260208201905092915050565b60005b838110156124bd5780820151818401526020810190506124a2565b60008484015250505050565b60006124d482612483565b6124de818561248e565b93506124ee81856020860161249f565b6124f78161214e565b840191505092915050565b6000602082019050818103600083015261251c81846124c9565b905092915050565b61252d81611e70565b82525050565b60006020820190506125486000830184612524565b92915050565b60008060006060848603121561256757612566611e66565b5b60006125758682870161208c565b935050602061258686828701611ef7565b925050604061259786828701611e91565b9150509250925092565b6000806000606084860312156125ba576125b9611e66565b5b60006125c886828701611ef7565b93505060206125d986828701611e91565b92505060406125ea86828701611e91565b9150509250925092565b7f616d6f756e742063616e6e6f7420626520300000000000000000000000000000600082015250565b600061262a60128361248e565b9150612635826125f4565b602082019050919050565b600060208201905081810360008301526126598161261d565b9050919050565b7f4d6178696d756d206d696e74696e672072656163686564000000000000000000600082015250565b600061269660178361248e565b91506126a182612660565b602082019050919050565b600060208201905081810360008301526126c581612689565b9050919050565b7f43616e6e6f7420627579207573696e67206e617469766520636f696e7320616e60008201527f796d6f7265000000000000000000000000000000000000000000000000000000602082015250565b600061272860258361248e565b9150612733826126cc565b604082019050919050565b600060208201905081810360008301526127578161271b565b9050919050565b7f4e487b7100000000000000000000000000000000000000000000000000000000600052601160045260246000fd5b600061279882611e70565b91506127a383611e70565b92508282019050808211156127bb576127ba61275e565b5b92915050565b600060c08201905081810360008301526127db81896124c9565b90506127ea6020830188612524565b6127f7604083018761204b565b6128046060830186612524565b6128116080830185612524565b61281e60a0830184612524565b979650505050505050565b7f4e487b7100000000000000000000000000000000000000000000000000000000600052603260045260246000fd5b600061286382611ed3565b915060ff82036128765761287561275e565b5b600182019050919050565b600061288c82611e70565b915061289783611e70565b92508282039050818111156128af576128ae61275e565b5b92915050565b600060a08201905081810360008301526128cf81886124c9565b90506128de602083018761204b565b6128eb6040830186612524565b6128f86060830185612524565b6129056080830184612524565b9695505050505050565b7f46756e6374696f6e206d7573742062652063616c6c6564207468726f7567682060008201527f64656c656761746563616c6c0000000000000000000000000000000000000000602082015250565b600061296b602c8361248e565b91506129768261290f565b604082019050919050565b6000602082019050818103600083015261299a8161295e565b9050919050565b7f46756e6374696f6e206d7573742062652063616c6c6564207468726f7567682060008201527f6163746976652070726f78790000000000000000000000000000000000000000602082015250565b60006129fd602c8361248e565b9150612a08826129a1565b604082019050919050565b60006020820190508181036000830152612a2c816129f0565b9050919050565b7f555550535570677261646561626c653a206d757374206e6f742062652063616c60008201527f6c6564207468726f7567682064656c656761746563616c6c0000000000000000602082015250565b6000612a8f60388361248e565b9150612a9a82612a33565b604082019050919050565b60006020820190508181036000830152612abe81612a82565b9050919050565b7f4e487b7100000000000000000000000000000000000000000000000000000000600052602260045260246000fd5b60006002820490506001821680612b0c57607f821691505b602082108103612b1f57612b1e612ac5565b5b50919050565b60008190508160005260206000209050919050565b60006020601f8301049050919050565b600082821b905092915050565b600060088302612b877fffffffffffffffffffffffffffffffffffffffffffffffffffffffffffffffff82612b4a565b612b918683612b4a565b95508019841693508086168417925050509392505050565b6000819050919050565b6000612bce612bc9612bc484611e70565b612ba9565b611e70565b9050919050565b6000819050919050565b612be883612bb3565b612bfc612bf482612bd5565b848454612b57565b825550505050565b600090565b612c11612c04565b612c1c818484612bdf565b505050565b5b81811015612c4057612c35600082612c09565b600181019050612c22565b5050565b601f821115612c8557612c5681612b25565b612c5f84612b3a565b81016020851015612c6e578190505b612c82612c7a85612b3a565b830182612c21565b50505b505050565b600082821c905092915050565b6000612ca860001984600802612c8a565b1980831691505092915050565b6000612cc18383612c97565b9150826002028217905092915050565b612cda82612483565b67ffffffffffffffff811115612cf357612cf261215f565b5b612cfd8254612af4565b612d08828285612c44565b600060209050601f831160018114612d3b5760008415612d29578287015190505b612d338582612cb5565b865550612d9b565b601f198416612d4986612b25565b60005b82811015612d7157848901518255600182019150602085019450602081019050612d4c565b86831015612d8e5784890151612d8a601f891682612c97565b8355505b6001600288020188555050505b505050505050565b7f496e697469616c697a61626c653a20636f6e747261637420697320616c72656160008201527f647920696e697469616c697a6564000000000000000000000000000000000000602082015250565b6000612dff602e8361248e565b9150612e0a82612da3565b604082019050919050565b60006020820190508181036000830152612e2e81612df2565b9050919050565b6000819050919050565b6000612e5a612e55612e5084612e35565b612ba9565b611ed3565b9050919050565b612e6a81612e3f565b82525050565b6000602082019050612e856000830184612e61565b92915050565b6000604082019050612ea0600083018561204b565b612ead6020830184612524565b9392505050565b600081519050612ec38161242a565b92915050565b600060208284031215612edf57612ede611e66565b5b6000612eed84828501612eb4565b91505092915050565b60008154612f0381612af4565b612f0d818661248e565b94506001821660008114612f285760018114612f3e57612f71565b60ff198316865281151560200286019350612f71565b612f4785612b25565b60005b83811015612f6957815481890152600182019150602081019050612f4a565b808801955050505b50505092915050565b600060a0820190508181036000830152612f948188612ef6565b9050612fa3602083018761204b565b612fb06040830186612524565b612fbd6060830185612524565b612fca6080830184612524565b9695505050505050565b6000606082019050612fe9600083018661204b565b612ff6602083018561204b565b6130036040830184612524565b949350505050565b600060c08201905081810360008301526130258189612ef6565b90506130346020830188612524565b613041604083018761204b565b61304e6060830186612524565b61305b6080830185612524565b61306860a0830184612524565b979650505050505050565b7f4f776e61626c653a206e6577206f776e657220697320746865207a65726f206160008201527f6464726573730000000000000000000000000000000000000000000000000000602082015250565b60006130cf60268361248e565b91506130da82613073565b604082019050919050565b600060208201905081810360008301526130fe816130c2565b9050919050565b7f5061757361626c653a2070617573656400000000000000000000000000000000600082015250565b600061313b60108361248e565b915061314682613105565b602082019050919050565b6000602082019050818103600083015261316a8161312e565b9050919050565b7f4f776e61626c653a2063616c6c6572206973206e6f7420746865206f776e6572600082015250565b60006131a760208361248e565b91506131b282613171565b602082019050919050565b600060208201905081810360008301526131d68161319a565b9050919050565b6131e6816122e6565b81146131f157600080fd5b50565b600081519050613203816131dd565b92915050565b60006020828403121561321f5761321e611e66565b5b600061322d848285016131f4565b91505092915050565b7f45524331393637557067726164653a206e657720696d706c656d656e7461746960008201527f6f6e206973206e6f742055555053000000000000000000000000000000000000602082015250565b6000613292602e8361248e565b915061329d82613236565b604082019050919050565b600060208201905081810360008301526132c181613285565b9050919050565b7f45524331393637557067726164653a20756e737570706f727465642070726f7860008201527f6961626c65555549440000000000000000000000000000000000000000000000602082015250565b600061332460298361248e565b915061332f826132c8565b604082019050919050565b6000602082019050818103600083015261335381613317565b9050919050565b7f496e697469616c697a61626c653a20636f6e7472616374206973206e6f74206960008201527f6e697469616c697a696e67000000000000000000000000000000000000000000602082015250565b60006133b6602b8361248e565b91506133c18261335a565b604082019050919050565b600060208201905081810360008301526133e5816133a9565b9050919050565b7f455243313936373a206e657720696d706c656d656e746174696f6e206973206e60008201527f6f74206120636f6e747261637400000000000000000000000000000000000000602082015250565b6000613448602d8361248e565b9150613453826133ec565b604082019050919050565b600060208201905081810360008301526134778161343b565b9050919050565b7f5061757361626c653a206e6f7420706175736564000000000000000000000000600082015250565b60006134b460148361248e565b91506134bf8261347e565b602082019050919050565b600060208201905081810360008301526134e3816134a7565b9050919050565b7f416464726573733a2064656c65676174652063616c6c20746f206e6f6e2d636f60008201527f6e74726163740000000000000000000000000000000000000000000000000000602082015250565b600061354660268361248e565b9150613551826134ea565b604082019050919050565b6000602082019050818103600083015261357581613539565b9050919050565b600081519050919050565b600081905092915050565b600061359d8261357c565b6135a78185613587565b93506135b781856020860161249f565b80840191505092915050565b60006135cf8284613592565b91508190509291505056fe416464726573733a206c6f772d6c6576656c2064656c65676174652063616c6c206661696c6564a2646970667358221220fb14716af1ec1a5b5468578a851d04bfc9ca8f996e30466d6ac1259632130a3d64736f6c63430008110033",
  "linkReferences": {},
  "deployedLinkReferences": {}
}