{
  "_format": "hh-sol-artifact-1",
  "contractName": "TreasuryPool",
  "sourceName": "contracts/treasuryPool.sol",
  "abi": [
    {
      "inputs": [],
      "stateMutability": "nonpayable",
      "type": "constructor"
    },
    {
      "anonymous": false,
      "inputs": [
        {
          "indexed": false,
          "internalType": "address",
          "name": "previousAdmin",
          "type": "address"
        },
        {
          "indexed": false,
          "internalType": "address",
          "name": "newAdmin",
          "type": "address"
        }
      ],
      "name": "AdminChanged",
      "type": "event"
    },
    {
      "anonymous": false,
      "inputs": [
        {
          "indexed": true,
          "internalType": "address",
          "name": "beacon",
          "type": "address"
        }
      ],
      "name": "BeaconUpgraded",
      "type": "event"
    },
    {
      "anonymous": false,
      "inputs": [
        {
          "indexed": false,
          "internalType": "uint8",
          "name": "version",
          "type": "uint8"
        }
      ],
      "name": "Initialized",
      "type": "event"
    },
    {
      "anonymous": false,
      "inputs": [
        {
          "indexed": true,
          "internalType": "address",
          "name": "previousOwner",
          "type": "address"
        },
        {
          "indexed": true,
          "internalType": "address",
          "name": "newOwner",
          "type": "address"
        }
      ],
      "name": "OwnershipTransferred",
      "type": "event"
    },
    {
      "anonymous": false,
      "inputs": [
        {
          "indexed": false,
          "internalType": "address",
          "name": "account",
          "type": "address"
        }
      ],
      "name": "Paused",
      "type": "event"
    },
    {
      "anonymous": false,
      "inputs": [
        {
          "indexed": false,
          "internalType": "string",
          "name": "USD",
          "type": "string"
        },
        {
          "indexed": false,
          "internalType": "uint256",
          "name": "ID",
          "type": "uint256"
        },
        {
          "indexed": false,
          "internalType": "address",
          "name": "buyer",
          "type": "address"
        },
        {
          "indexed": false,
          "internalType": "uint256",
          "name": "amount",
          "type": "uint256"
        },
        {
          "indexed": false,
          "internalType": "uint256",
          "name": "balanceNew",
          "type": "uint256"
        },
        {
          "indexed": false,
          "internalType": "uint256",
          "name": "UsdBalance",
          "type": "uint256"
        }
      ],
      "name": "Recieved",
      "type": "event"
    },
    {
      "anonymous": false,
      "inputs": [
        {
          "indexed": false,
          "internalType": "string",
          "name": "USD",
          "type": "string"
        },
        {
          "indexed": false,
          "internalType": "address",
          "name": "redeemer",
          "type": "address"
        },
        {
          "indexed": false,
          "internalType": "uint256",
          "name": "amount",
          "type": "uint256"
        },
        {
          "indexed": false,
          "internalType": "uint256",
          "name": "balanceNew",
          "type": "uint256"
        },
        {
          "indexed": false,
          "internalType": "uint256",
          "name": "USDbalance",
          "type": "uint256"
        }
      ],
      "name": "Redeemed",
      "type": "event"
    },
    {
      "anonymous": false,
      "inputs": [
        {
          "indexed": false,
          "internalType": "address",
          "name": "account",
          "type": "address"
        }
      ],
      "name": "Unpaused",
      "type": "event"
    },
    {
      "anonymous": false,
      "inputs": [
        {
          "indexed": true,
          "internalType": "address",
          "name": "implementation",
          "type": "address"
        }
      ],
      "name": "Upgraded",
      "type": "event"
    },
    {
      "inputs": [
        {
          "internalType": "uint8",
          "name": "_usd",
          "type": "uint8"
        },
        {
          "internalType": "uint256",
          "name": "MintID",
          "type": "uint256"
        },
        {
          "internalType": "uint256",
          "name": "_amount",
          "type": "uint256"
        }
      ],
      "name": "Buy",
      "outputs": [],
      "stateMutability": "nonpayable",
      "type": "function"
    },
    {
      "inputs": [
        {
          "internalType": "uint256",
          "name": "MintID",
          "type": "uint256"
        }
      ],
      "name": "BuyNat",
      "outputs": [],
      "stateMutability": "payable",
      "type": "function"
    },
    {
      "inputs": [],
      "name": "BuynatDisable",
      "outputs": [
        {
          "internalType": "bool",
          "name": "",
          "type": "bool"
        }
      ],
      "stateMutability": "view",
      "type": "function"
    },
    {
      "inputs": [],
      "name": "Maxminted",
      "outputs": [
        {
          "internalType": "bool",
          "name": "",
          "type": "bool"
        }
      ],
      "stateMutability": "view",
      "type": "function"
    },
    {
      "inputs": [
        {
          "internalType": "address",
          "name": "redeemer",
          "type": "address"
        },
        {
          "internalType": "uint8",
          "name": "_usd",
          "type": "uint8"
        },
        {
          "internalType": "uint256",
          "name": "_amount",
          "type": "uint256"
        }
      ],
      "name": "Redeem",
      "outputs": [],
      "stateMutability": "nonpayable",
      "type": "function"
    },
    {
      "inputs": [
        {
          "internalType": "address",
          "name": "redeemer",
          "type": "address"
        },
        {
          "internalType": "uint256",
          "name": "_amount",
          "type": "uint256"
        }
      ],
      "name": "RedeemNat",
      "outputs": [],
      "stateMutability": "payable",
      "type": "function"
    },
    {
      "inputs": [
        {
          "internalType": "uint8",
          "name": "",
          "type": "uint8"
        }
      ],
      "name": "TPbalanceUSD",
      "outputs": [
        {
          "internalType": "uint256",
          "name": "",
          "type": "uint256"
        }
      ],
      "stateMutability": "view",
      "type": "function"
    },
    {
      "inputs": [
        {
          "internalType": "uint8",
          "name": "",
          "type": "uint8"
        }
      ],
      "name": "USDStable",
      "outputs": [
        {
          "internalType": "address",
          "name": "",
          "type": "address"
        }
      ],
      "stateMutability": "view",
      "type": "function"
    },
    {
      "inputs": [
        {
          "internalType": "uint8",
          "name": "_length",
          "type": "uint8"
        }
      ],
      "name": "getTPbalance",
      "outputs": [
        {
          "internalType": "uint256[]",
          "name": "",
          "type": "uint256[]"
        }
      ],
      "stateMutability": "view",
      "type": "function"
    },
    {
      "inputs": [],
      "name": "initialize",
      "outputs": [],
      "stateMutability": "nonpayable",
      "type": "function"
    },
    {
      "inputs": [
        {
          "internalType": "uint8",
          "name": "",
          "type": "uint8"
        }
      ],
      "name": "names",
      "outputs": [
        {
          "internalType": "string",
          "name": "",
          "type": "string"
        }
      ],
      "stateMutability": "view",
      "type": "function"
    },
    {
      "inputs": [],
      "name": "owner",
      "outputs": [
        {
          "internalType": "address",
          "name": "",
          "type": "address"
        }
      ],
      "stateMutability": "view",
      "type": "function"
    },
    {
      "inputs": [],
      "name": "pause",
      "outputs": [],
      "stateMutability": "nonpayable",
      "type": "function"
    },
    {
      "inputs": [],
      "name": "paused",
      "outputs": [
        {
          "internalType": "bool",
          "name": "",
          "type": "bool"
        }
      ],
      "stateMutability": "view",
      "type": "function"
    },
    {
      "inputs": [],
      "name": "proxiableUUID",
      "outputs": [
        {
          "internalType": "bytes32",
          "name": "",
          "type": "bytes32"
        }
      ],
      "stateMutability": "view",
      "type": "function"
    },
    {
      "inputs": [],
      "name": "renounceOwnership",
      "outputs": [],
      "stateMutability": "nonpayable",
      "type": "function"
    },
    {
      "inputs": [
        {
          "internalType": "bool",
          "name": "_disable",
          "type": "bool"
        }
      ],
      "name": "setDisable",
      "outputs": [],
      "stateMutability": "nonpayable",
      "type": "function"
    },
    {
      "inputs": [
        {
          "internalType": "bool",
          "name": "_over",
          "type": "bool"
        }
      ],
      "name": "setMinter",
      "outputs": [],
      "stateMutability": "nonpayable",
      "type": "function"
    },
    {
      "inputs": [
        {
          "internalType": "uint8",
          "name": "_index",
          "type": "uint8"
        },
        {
          "internalType": "string",
          "name": "_name",
          "type": "string"
        },
        {
          "internalType": "address",
          "name": "_USD",
          "type": "address"
        }
      ],
      "name": "setUSDAddress",
      "outputs": [],
      "stateMutability": "nonpayable",
      "type": "function"
    },
    {
      "inputs": [],
      "name": "tPtotalBalance",
      "outputs": [
        {
          "internalType": "uint256",
          "name": "",
          "type": "uint256"
        }
      ],
      "stateMutability": "view",
      "type": "function"
    },
    {
      "inputs": [],
      "name": "tPtotalBalanceNative",
      "outputs": [
        {
          "internalType": "uint256",
          "name": "",
          "type": "uint256"
        }
      ],
      "stateMutability": "view",
      "type": "function"
    },
    {
      "inputs": [
        {
          "internalType": "address",
          "name": "newOwner",
          "type": "address"
        }
      ],
      "name": "transferOwnership",
      "outputs": [],
      "stateMutability": "nonpayable",
      "type": "function"
    },
    {
      "inputs": [],
      "name": "unpause",
      "outputs": [],
      "stateMutability": "nonpayable",
      "type": "function"
    },
    {
      "inputs": [
        {
          "internalType": "address",
          "name": "newImplementation",
          "type": "address"
        }
      ],
      "name": "upgradeTo",
      "outputs": [],
      "stateMutability": "nonpayable",
      "type": "function"
    },
    {
      "inputs": [
        {
          "internalType": "address",
          "name": "newImplementation",
          "type": "address"
        },
        {
          "internalType": "bytes",
          "name": "data",
          "type": "bytes"
        }
      ],
      "name": "upgradeToAndCall",
      "outputs": [],
      "stateMutability": "payable",
      "type": "function"
    }
  ],
  "bytecode": "0x60a06040523073ffffffffffffffffffffffffffffffffffffffff1660809073ffffffffffffffffffffffffffffffffffffffff168152503480156200004457600080fd5b506200006167696008aa2401a10560c01b620000af60201b60201c565b6200007d679d8bd3fd1ebc596360c01b620000af60201b60201c565b6200009967c4d60a3994ef8ade60c01b620000af60201b60201c565b620000a9620000b260201b60201c565b6200025d565b50565b600060019054906101000a900460ff161562000105576040517f08c379a0000000000000000000000000000000000000000000000000000000008152600401620000fc9062000200565b60405180910390fd5b60ff801660008054906101000a900460ff1660ff161015620001775760ff6000806101000a81548160ff021916908360ff1602179055507f7f26b83ff96e1f2b6a682f133852f6798a09c465da95921460cefb384740249860ff6040516200016e919062000240565b60405180910390a15b565b600082825260208201905092915050565b7f496e697469616c697a61626c653a20636f6e747261637420697320696e69746960008201527f616c697a696e6700000000000000000000000000000000000000000000000000602082015250565b6000620001e860278362000179565b9150620001f5826200018a565b604082019050919050565b600060208201905081810360008301526200021b81620001d9565b9050919050565b600060ff82169050919050565b6200023a8162000222565b82525050565b60006020820190506200025760008301846200022f565b92915050565b60805161409e6200029560003960008181610e1b01528181610ea90152818161102c015281816110ba015261116a015261409e6000f3fe6080604052600436106101655760003560e01c80636b3fc31a116100d15780638dcae3261161008a578063a3a6ae1311610064578063a3a6ae13146104b4578063b955fa9a146104dd578063d472480414610506578063f2fde38b1461053157610165565b80638dcae326146104235780639a1043b51461044c5780639b24856e1461048957610165565b80636b3fc31a1461034d578063715018a6146103765780637257a4931461038d5780638129fc1c146103ca5780638456cb59146103e15780638da5cb5b146103f857610165565b8063452a2e7b11610123578063452a2e7b1461025c5780634f1ef2861461028757806352d1902d146102a35780635c975abb146102ce5780636a3cbc4a146102f95780636b2e28331461032257610165565b8062fa764b1461016a578063124d85ef146101865780632c70411b146101c357806335d9b320146102005780633659cfe61461021c5780633f4ba83a14610245575b600080fd5b610184600480360381019061017f919061290d565b61055a565b005b34801561019257600080fd5b506101ad60048036038101906101a89190612973565b610873565b6040516101ba9190612a5e565b60405180910390f35b3480156101cf57600080fd5b506101ea60048036038101906101e59190612973565b6109cf565b6040516101f79190612ac1565b60405180910390f35b61021a60048036038101906102159190612b08565b610a02565b005b34801561022857600080fd5b50610243600480360381019061023e9190612b48565b610e19565b005b34801561025157600080fd5b5061025a610fa1565b005b34801561026857600080fd5b50610271611017565b60405161027e9190612b90565b60405180910390f35b6102a1600480360381019061029c9190612cf1565b61102a565b005b3480156102af57600080fd5b506102b8611166565b6040516102c59190612d66565b60405180910390f35b3480156102da57600080fd5b506102e361121f565b6040516102f09190612b90565b60405180910390f35b34801561030557600080fd5b50610320600480360381019061031b9190612e22565b611236565b005b34801561032e57600080fd5b50610337611356565b6040516103449190612b90565b60405180910390f35b34801561035957600080fd5b50610374600480360381019061036f9190612ebd565b611369565b005b34801561038257600080fd5b5061038b61140e565b005b34801561039957600080fd5b506103b460048036038101906103af9190612973565b611422565b6040516103c19190612f69565b60405180910390f35b3480156103d657600080fd5b506103df6114c2565b005b3480156103ed57600080fd5b506103f66116c4565b005b34801561040457600080fd5b5061040d61173a565b60405161041a9190612ac1565b60405180910390f35b34801561042f57600080fd5b5061044a60048036038101906104459190612ebd565b611764565b005b34801561045857600080fd5b50610473600480360381019061046e9190612973565b611809565b6040516104809190612f9a565b60405180910390f35b34801561049557600080fd5b5061049e611821565b6040516104ab9190612f9a565b60405180910390f35b3480156104c057600080fd5b506104db60048036038101906104d69190612fb5565b611828565b005b3480156104e957600080fd5b5061050460048036038101906104ff9190613008565b611b95565b005b34801561051257600080fd5b5061051b611f00565b6040516105289190612f9a565b60405180910390f35b34801561053d57600080fd5b5061055860048036038101906105539190612b48565b611f06565b005b61056e6742dd76c6fca5d4c760c01b611f89565b610576611f8c565b61058a67aa97e440917a7b7160c01b611f89565b61059e67960854b2bd8fe2ce60c01b611f89565b6105b26714bbb1a4f5458f4060c01b611f89565b6105c6672beb591840037e1760c01b611f89565b6105da6780b7adc93160530560c01b611f89565b6000341161061d576040517f08c379a0000000000000000000000000000000000000000000000000000000008152600401610614906130a7565b60405180910390fd5b6106316781f9548faf5290de60c01b611f89565b61064567dcf0a895547e0c7860c01b611f89565b61065967fa7129848cf6983a60c01b611f89565b61066d6796f16a80097ec05560c01b611f89565b60fd60009054906101000a900460ff16156106bd576040517f08c379a00000000000000000000000000000000000000000000000000000000081526004016106b490613113565b60405180910390fd5b6106d1677c1d5bd2d454e65660c01b611f89565b6106e5670ae194241b5da41c60c01b611f89565b6106f967da3924298a94374f60c01b611f89565b61070d674065ce32bc06905760c01b611f89565b60fd60019054906101000a900460ff161561075d576040517f08c379a0000000000000000000000000000000000000000000000000000000008152600401610754906131a5565b60405180910390fd5b610771672093469617d0332560c01b611f89565b61078567d3740609731d27a460c01b611f89565b610799679416d48c74cf231360c01b611f89565b60006040518060400160405280600581526020017f4d4154494300000000000000000000000000000000000000000000000000000081525090506107e767dd5352c068984ce660c01b611f89565b3461010060008282546107fa91906131f4565b9250508190555061081567e8fe3254c720d86a60c01b611f89565b61082967799acf15afa8f2f360c01b611f89565b7f6c15dac833d09e6374c066862e8ce105d08e657a958c784285ba82375086104f8183333460ff546101005460405161086796959493929190613228565b60405180910390a15050565b606061088967153bc5fcaf48f04e60c01b611f89565b61089d676dce601de853ecec60c01b611f89565b6108b167bc48759ab6e3622960c01b611f89565b60008260ff1667ffffffffffffffff8111156108d0576108cf612bc6565b5b6040519080825280602002602001820160405280156108fe5781602001602082028036833780820191505090505b5090506109156777a3429b928432eb60c01b611f89565b61092967d50e4a9f448e7fce60c01b611f89565b60005b8360ff168160ff16101561099d5761094e67ebf5cb55235f254d60c01b611f89565b60fe60008260ff1660ff16815260200190815260200160002054828260ff168151811061097e5761097d613290565b5b6020026020010181815250508080610995906132bf565b91505061092c565b506109b2678fc26a3011a87f3f60c01b611f89565b6109c667266f25b6f956537560c01b611f89565b80915050919050565b60fb6020528060005260406000206000915054906101000a900473ffffffffffffffffffffffffffffffffffffffff1681565b610a16670d273c4abb964cf760c01b611f89565b610a1e611fd6565b610a3267d1ed78e03411e5ef60c01b611f89565b610a4667cf65c6787dc1181d60c01b611f89565b610a4e611f8c565b610a6267861083cd35c5ae5c60c01b611f89565b610a76678808524cbe029eae60c01b611f89565b610a8a67f9598fbe5097359f60c01b611f89565b610a9e67de0594e3df85e05160c01b611f89565b610ab26756ca4f07588c4d3060c01b611f89565b60008111610af5576040517f08c379a0000000000000000000000000000000000000000000000000000000008152600401610aec906130a7565b60405180910390fd5b610b0967d83217585bdf2d2e60c01b611f89565b610b1d67fb1f88d3a717abc160c01b611f89565b610b3167537d5ecdc7b95cbd60c01b611f89565b610b456761e8f3d30542770960c01b611f89565b60fd60009054906101000a900460ff1615610b95576040517f08c379a0000000000000000000000000000000000000000000000000000000008152600401610b8c90613113565b60405180910390fd5b610ba9675041b8cfd1ed916260c01b611f89565b610bbd67b952712970a6bd6e60c01b611f89565b610bd167bf4a9c73b4cb800d60c01b611f89565b610be567559201be2680161060c01b611f89565b60fd60019054906101000a900460ff1615610c35576040517f08c379a0000000000000000000000000000000000000000000000000000000008152600401610c2c906131a5565b60405180910390fd5b610c496798b6ee83617dedc860c01b611f89565b610c5d6727745967417dd63660c01b611f89565b610c71674354a7a2f655db4460c01b611f89565b610c85674e772104cfe10a9260c01b611f89565b61010054811115610c9557600080fd5b610ca9678643bb948a038a3a60c01b611f89565b610cbd677f012893b240f25360c01b611f89565b610cd167888cbccae63688f760c01b611f89565b60006040518060400160405280600581526020017f4d415449430000000000000000000000000000000000000000000000000000008152509050610d1f67bb632a0a2a734fe160c01b611f89565b816101006000828254610d3291906132e8565b92505081905550610d4d6777118d2032e72b0b60c01b611f89565b610d61676f711128d9831a2b60c01b611f89565b8273ffffffffffffffffffffffffffffffffffffffff166108fc839081150290604051600060405180830381858888f19350505050158015610da7573d6000803e3d6000fd5b50610dbc6721b33cc74ee0ba9260c01b611f89565b610dd067f6d7831ea52841d760c01b611f89565b7fe2360a1e9b372e7da72be76637abfd2c1f678512f7ad5e44e4019db46a5aeed881848460ff5461010054604051610e0c95949392919061331c565b60405180910390a1505050565b7f000000000000000000000000000000000000000000000000000000000000000073ffffffffffffffffffffffffffffffffffffffff163073ffffffffffffffffffffffffffffffffffffffff1603610ea7576040517f08c379a0000000000000000000000000000000000000000000000000000000008152600401610e9e906133e8565b60405180910390fd5b7f000000000000000000000000000000000000000000000000000000000000000073ffffffffffffffffffffffffffffffffffffffff16610ee6612054565b73ffffffffffffffffffffffffffffffffffffffff1614610f3c576040517f08c379a0000000000000000000000000000000000000000000000000000000008152600401610f339061347a565b60405180910390fd5b610f45816120ab565b610f9e81600067ffffffffffffffff811115610f6457610f63612bc6565b5b6040519080825280601f01601f191660200182016040528015610f965781602001600182028036833780820191505090505b5060006120f2565b50565b610fb56776a3255a29045e6760c01b611f89565b610fbd611fd6565b610fd1675b80cfda359bb88560c01b611f89565b610fe5679d5a861d9858e89b60c01b611f89565b610ff9677b0d8472c6b0037960c01b611f89565b61100d67041a903a7da6bc4d60c01b611f89565b611015612260565b565b60fd60009054906101000a900460ff1681565b7f000000000000000000000000000000000000000000000000000000000000000073ffffffffffffffffffffffffffffffffffffffff163073ffffffffffffffffffffffffffffffffffffffff16036110b8576040517f08c379a00000000000000000000000000000000000000000000000000000000081526004016110af906133e8565b60405180910390fd5b7f000000000000000000000000000000000000000000000000000000000000000073ffffffffffffffffffffffffffffffffffffffff166110f7612054565b73ffffffffffffffffffffffffffffffffffffffff161461114d576040517f08c379a00000000000000000000000000000000000000000000000000000000081526004016111449061347a565b60405180910390fd5b611156826120ab565b611162828260016120f2565b5050565b60007f000000000000000000000000000000000000000000000000000000000000000073ffffffffffffffffffffffffffffffffffffffff163073ffffffffffffffffffffffffffffffffffffffff16146111f6576040517f08c379a00000000000000000000000000000000000000000000000000000000081526004016111ed9061350c565b60405180910390fd5b7f360894a13ba1a3210667c828492db98dca3e2076cc3735a920a3ca505d382bbc60001b905090565b6000609760009054906101000a900460ff16905090565b61124a67420ee326a859c18760c01b611f89565b611252611fd6565b61126667554318d71153889e60c01b611f89565b61127a676ee0d14f5a3f722960c01b611f89565b611282611f8c565b61129667b12a39ba4842ff0460c01b611f89565b6112aa677e2f7e3c75d6077260c01b611f89565b6112be67de24a8331edcf9c960c01b611f89565b8060fb60008560ff1660ff16815260200190815260200160002060006101000a81548173ffffffffffffffffffffffffffffffffffffffff021916908373ffffffffffffffffffffffffffffffffffffffff16021790555061132a67b291ad8d208b4db360c01b611f89565b8160fc60008560ff1660ff16815260200190815260200160002090816113509190613738565b50505050565b60fd60019054906101000a900460ff1681565b61137d6771e912f2d359497360c01b611f89565b611385611fd6565b6113996767b0d9dbacb431a560c01b611f89565b6113ad67159aa7bf038bd32260c01b611f89565b6113b5611f8c565b6113c967c0d59acdcaaa8fcd60c01b611f89565b6113dd67c8abbecb843f1db560c01b611f89565b6113f1677b70529581b44e0260c01b611f89565b8060fd60016101000a81548160ff02191690831515021790555050565b611416611fd6565b61142060006122c3565b565b60fc60205280600052604060002060009150905080546114419061355b565b80601f016020809104026020016040519081016040528092919081815260200182805461146d9061355b565b80156114ba5780601f1061148f576101008083540402835291602001916114ba565b820191906000526020600020905b81548152906001019060200180831161149d57829003601f168201915b505050505081565b6114d6679235c111d02e758160c01b611f89565b60008060019054906101000a900460ff161590508080156115075750600160008054906101000a900460ff1660ff16105b80611534575061151630612389565b1580156115335750600160008054906101000a900460ff1660ff16145b5b611573576040517f08c379a000000000000000000000000000000000000000000000000000000000815260040161156a9061387c565b60405180910390fd5b60016000806101000a81548160ff021916908360ff16021790555080156115b0576001600060016101000a81548160ff0219169083151502179055505b6115c467e4707c3550ab7d7360c01b611f89565b6115d8674fafd4592158334260c01b611f89565b6115ec678b232a4cfed0fb4760c01b611f89565b611600677deaf24965fb20e060c01b611f89565b6116086123ac565b61161c6737c83cab7a1a3d4d60c01b611f89565b611630674696f290f6950f9260c01b611f89565b6116386123fd565b61164c67d40e8c60d8ed9bad60c01b611f89565b61166067333cdbc87717f91f60c01b611f89565b611668612456565b80156116c15760008060016101000a81548160ff0219169083151502179055507f7f26b83ff96e1f2b6a682f133852f6798a09c465da95921460cefb384740249860016040516116b891906138d7565b60405180910390a15b50565b6116d86726c76f115d7324ba60c01b611f89565b6116e0611fd6565b6116f4673d973993ad299ce760c01b611f89565b61170867b5a65c5953dde7b060c01b611f89565b61171c6724b70f138d0a542e60c01b611f89565b611730674b6842a0451a6e3f60c01b611f89565b6117386124af565b565b600060c960009054906101000a900473ffffffffffffffffffffffffffffffffffffffff16905090565b6117786724edeb604b8e90e360c01b611f89565b611780611fd6565b6117946771a50760006824b760c01b611f89565b6117a8674c69cdfe3977fbdc60c01b611f89565b6117b0611f8c565b6117c46732ab6e728f1152cd60c01b611f89565b6117d8677939c5ba52bace5860c01b611f89565b6117ec6730fd38885ae2ad8160c01b611f89565b8060fd60006101000a81548160ff02191690831515021790555050565b60fe6020528060005260406000206000915090505481565b6101005481565b61183c67af5f19a99b68729760c01b611f89565b611844611fd6565b611858672adc644a7dbe3faf60c01b611f89565b61186c67a64e62014764865460c01b611f89565b611874611f8c565b611888670d42fd7a91150fae60c01b611f89565b61189c677d27d8e43685174a60c01b611f89565b6118b0671bc09a28d320a5b160c01b611f89565b6118c46778305f3e655417a260c01b611f89565b6118d86762620f677a9b504e60c01b611f89565b6000811161191b576040517f08c379a0000000000000000000000000000000000000000000000000000000008152600401611912906130a7565b60405180910390fd5b61192f67581653a9ddd2f47360c01b611f89565b6119436752065d2fa3fc06b760c01b611f89565b611957671ad7dededf57df7a60c01b611f89565b61196b67af8cad3cc6fa20d960c01b611f89565b60fe60008360ff1660ff1681526020019081526020016000205481111561199157600080fd5b6119a567530c96c4601aa5fa60c01b611f89565b6119b967f29586dfc698a84560c01b611f89565b8060fe60008460ff1660ff16815260200190815260200160002060008282546119e291906132e8565b925050819055506119fd678705c14cf6a3cb0060c01b611f89565b8060ff6000828254611a0f91906132e8565b92505081905550611a2a6758cd9215ce7fdada60c01b611f89565b611a3e67b91ce20ebdbcec7660c01b611f89565b60fb60008360ff1660ff16815260200190815260200160002060009054906101000a900473ffffffffffffffffffffffffffffffffffffffff1673ffffffffffffffffffffffffffffffffffffffff1663a9059cbb84836040518363ffffffff1660e01b8152600401611ab29291906138f2565b6020604051808303816000875af1158015611ad1573d6000803e3d6000fd5b505050506040513d601f19601f82011682018060405250810190611af59190613930565b50611b0a672c91bcf7b98a93dd60c01b611f89565b611b1e67c77d461b16887ed760c01b611f89565b7fe2360a1e9b372e7da72be76637abfd2c1f678512f7ad5e44e4019db46a5aeed860fc60008460ff1660ff168152602001908152602001600020848360ff5460fe60008860ff1660ff16815260200190815260200160002054604051611b889594939291906139e1565b60405180910390a1505050565b611ba9675c37ab56b9f5b49660c01b611f89565b611bb1611f8c565b611bc567707743c5b45ebe1260c01b611f89565b611bd967aac315cdd12b32a460c01b611f89565b611bed67b532409a7597e82560c01b611f89565b611c0167db27674c65d03deb60c01b611f89565b611c1567e98a9e42323d50c360c01b611f89565b60008111611c58576040517f08c379a0000000000000000000000000000000000000000000000000000000008152600401611c4f906130a7565b60405180910390fd5b611c6c67c2e1ffce2720eeeb60c01b611f89565b611c8067ce9b0f83a51e56dc60c01b611f89565b611c94678cb8301821c4782760c01b611f89565b611ca86763242cfe07310bf160c01b611f89565b60fd60009054906101000a900460ff1615611cf8576040517f08c379a0000000000000000000000000000000000000000000000000000000008152600401611cef90613113565b60405180910390fd5b611d0c679c568574d3bf946f60c01b611f89565b611d2067c6fa40926380108260c01b611f89565b8060fe60008560ff1660ff1681526020019081526020016000206000828254611d4991906131f4565b92505081905550611d646775ba0f337f3260d960c01b611f89565b8060ff6000828254611d7691906131f4565b92505081905550611d9167232dd62620bc21a660c01b611f89565b611da56753a869889b39003a60c01b611f89565b60fb60008460ff1660ff16815260200190815260200160002060009054906101000a900473ffffffffffffffffffffffffffffffffffffffff1673ffffffffffffffffffffffffffffffffffffffff166323b872dd3330846040518463ffffffff1660e01b8152600401611e1b93929190613a3b565b6020604051808303816000875af1158015611e3a573d6000803e3d6000fd5b505050506040513d601f19601f82011682018060405250810190611e5e9190613930565b50611e73671e1e63a1dc668b7360c01b611f89565b611e87671225f71006964cff60c01b611f89565b7f6c15dac833d09e6374c066862e8ce105d08e657a958c784285ba82375086104f60fc60008560ff1660ff16815260200190815260200160002083338460ff5460fe60008a60ff1660ff16815260200190815260200160002054604051611ef396959493929190613a72565b60405180910390a1505050565b60ff5481565b611f0e611fd6565b600073ffffffffffffffffffffffffffffffffffffffff168173ffffffffffffffffffffffffffffffffffffffff1603611f7d576040517f08c379a0000000000000000000000000000000000000000000000000000000008152600401611f7490613b4c565b60405180910390fd5b611f86816122c3565b50565b50565b611f9461121f565b15611fd4576040517f08c379a0000000000000000000000000000000000000000000000000000000008152600401611fcb90613bb8565b60405180910390fd5b565b611fde612512565b73ffffffffffffffffffffffffffffffffffffffff16611ffc61173a565b73ffffffffffffffffffffffffffffffffffffffff1614612052576040517f08c379a000000000000000000000000000000000000000000000000000000000815260040161204990613c24565b60405180910390fd5b565b60006120827f360894a13ba1a3210667c828492db98dca3e2076cc3735a920a3ca505d382bbc60001b61251a565b60000160009054906101000a900473ffffffffffffffffffffffffffffffffffffffff16905090565b6120bf67f3f2b9c39802d43a60c01b611f89565b6120c7611fd6565b6120db67bdee413c504c829b60c01b611f89565b6120ef6772b36885f1e2653360c01b611f89565b50565b61211e7f4910fdfa16fed3260ed0e7147f7cc6da11a60208b5b9406d12a635614ffd914360001b612524565b60000160009054906101000a900460ff16156121425761213d8361252e565b61225b565b8273ffffffffffffffffffffffffffffffffffffffff166352d1902d6040518163ffffffff1660e01b8152600401602060405180830381865afa9250505080156121aa57506040513d601f19601f820116820180604052508101906121a79190613c70565b60015b6121e9576040517f08c379a00000000000000000000000000000000000000000000000000000000081526004016121e090613d0f565b60405180910390fd5b7f360894a13ba1a3210667c828492db98dca3e2076cc3735a920a3ca505d382bbc60001b811461224e576040517f08c379a000000000000000000000000000000000000000000000000000000000815260040161224590613da1565b60405180910390fd5b5061225a8383836125e7565b5b505050565b612268612613565b6000609760006101000a81548160ff0219169083151502179055507f5db9ee0a495bf2e6ff9c91a7834c1ba4fdd244a5e8aa4e537bd38aeae4b073aa6122ac612512565b6040516122b99190612ac1565b60405180910390a1565b600060c960009054906101000a900473ffffffffffffffffffffffffffffffffffffffff1690508160c960006101000a81548173ffffffffffffffffffffffffffffffffffffffff021916908373ffffffffffffffffffffffffffffffffffffffff1602179055508173ffffffffffffffffffffffffffffffffffffffff168173ffffffffffffffffffffffffffffffffffffffff167f8be0079c531659141344cd1fd0a4f28419497f9722a3daafe3b4186f6b6457e060405160405180910390a35050565b6000808273ffffffffffffffffffffffffffffffffffffffff163b119050919050565b600060019054906101000a900460ff166123fb576040517f08c379a00000000000000000000000000000000000000000000000000000000081526004016123f290613e33565b60405180910390fd5b565b600060019054906101000a900460ff1661244c576040517f08c379a000000000000000000000000000000000000000000000000000000000815260040161244390613e33565b60405180910390fd5b61245461265c565b565b600060019054906101000a900460ff166124a5576040517f08c379a000000000000000000000000000000000000000000000000000000000815260040161249c90613e33565b60405180910390fd5b6124ad6126bd565b565b6124b7611f8c565b6001609760006101000a81548160ff0219169083151502179055507f62e78cea01bee320cd4e420270b5ea74000d11b0c9f74754ebdbfc544b05a2586124fb612512565b6040516125089190612ac1565b60405180910390a1565b600033905090565b6000819050919050565b6000819050919050565b61253781612389565b612576576040517f08c379a000000000000000000000000000000000000000000000000000000000815260040161256d90613ec5565b60405180910390fd5b806125a37f360894a13ba1a3210667c828492db98dca3e2076cc3735a920a3ca505d382bbc60001b61251a565b60000160006101000a81548173ffffffffffffffffffffffffffffffffffffffff021916908373ffffffffffffffffffffffffffffffffffffffff16021790555050565b6125f083612729565b6000825111806125fd5750805b1561260e5761260c8383612778565b505b505050565b61261b61121f565b61265a576040517f08c379a000000000000000000000000000000000000000000000000000000000815260040161265190613f31565b60405180910390fd5b565b600060019054906101000a900460ff166126ab576040517f08c379a00000000000000000000000000000000000000000000000000000000081526004016126a290613e33565b60405180910390fd5b6126bb6126b6612512565b6122c3565b565b600060019054906101000a900460ff1661270c576040517f08c379a000000000000000000000000000000000000000000000000000000000815260040161270390613e33565b60405180910390fd5b6000609760006101000a81548160ff021916908315150217905550565b6127328161252e565b8073ffffffffffffffffffffffffffffffffffffffff167fbc7cd75a20ee27fd9adebab32041f755214dbc6bffa90cc0225b39da2e5c2d3b60405160405180910390a250565b606061278383612389565b6127c2576040517f08c379a00000000000000000000000000000000000000000000000000000000081526004016127b990613fc3565b60405180910390fd5b6000808473ffffffffffffffffffffffffffffffffffffffff16846040516127ea919061402a565b600060405180830381855af49150503d8060008114612825576040519150601f19603f3d011682016040523d82523d6000602084013e61282a565b606091505b509150915061285282826040518060600160405280602781526020016140426027913961285c565b9250505092915050565b6060831561286c578290506128bc565b60008351111561287f5782518084602001fd5b816040517f08c379a00000000000000000000000000000000000000000000000000000000081526004016128b39190612f69565b60405180910390fd5b9392505050565b6000604051905090565b600080fd5b600080fd5b6000819050919050565b6128ea816128d7565b81146128f557600080fd5b50565b600081359050612907816128e1565b92915050565b600060208284031215612923576129226128cd565b5b6000612931848285016128f8565b91505092915050565b600060ff82169050919050565b6129508161293a565b811461295b57600080fd5b50565b60008135905061296d81612947565b92915050565b600060208284031215612989576129886128cd565b5b60006129978482850161295e565b91505092915050565b600081519050919050565b600082825260208201905092915050565b6000819050602082019050919050565b6129d5816128d7565b82525050565b60006129e783836129cc565b60208301905092915050565b6000602082019050919050565b6000612a0b826129a0565b612a1581856129ab565b9350612a20836129bc565b8060005b83811015612a51578151612a3888826129db565b9750612a43836129f3565b925050600181019050612a24565b5085935050505092915050565b60006020820190508181036000830152612a788184612a00565b905092915050565b600073ffffffffffffffffffffffffffffffffffffffff82169050919050565b6000612aab82612a80565b9050919050565b612abb81612aa0565b82525050565b6000602082019050612ad66000830184612ab2565b92915050565b612ae581612aa0565b8114612af057600080fd5b50565b600081359050612b0281612adc565b92915050565b60008060408385031215612b1f57612b1e6128cd565b5b6000612b2d85828601612af3565b9250506020612b3e858286016128f8565b9150509250929050565b600060208284031215612b5e57612b5d6128cd565b5b6000612b6c84828501612af3565b91505092915050565b60008115159050919050565b612b8a81612b75565b82525050565b6000602082019050612ba56000830184612b81565b92915050565b600080fd5b600080fd5b6000601f19601f8301169050919050565b7f4e487b7100000000000000000000000000000000000000000000000000000000600052604160045260246000fd5b612bfe82612bb5565b810181811067ffffffffffffffff82111715612c1d57612c1c612bc6565b5b80604052505050565b6000612c306128c3565b9050612c3c8282612bf5565b919050565b600067ffffffffffffffff821115612c5c57612c5b612bc6565b5b612c6582612bb5565b9050602081019050919050565b82818337600083830152505050565b6000612c94612c8f84612c41565b612c26565b905082815260208101848484011115612cb057612caf612bb0565b5b612cbb848285612c72565b509392505050565b600082601f830112612cd857612cd7612bab565b5b8135612ce8848260208601612c81565b91505092915050565b60008060408385031215612d0857612d076128cd565b5b6000612d1685828601612af3565b925050602083013567ffffffffffffffff811115612d3757612d366128d2565b5b612d4385828601612cc3565b9150509250929050565b6000819050919050565b612d6081612d4d565b82525050565b6000602082019050612d7b6000830184612d57565b92915050565b600067ffffffffffffffff821115612d9c57612d9b612bc6565b5b612da582612bb5565b9050602081019050919050565b6000612dc5612dc084612d81565b612c26565b905082815260208101848484011115612de157612de0612bb0565b5b612dec848285612c72565b509392505050565b600082601f830112612e0957612e08612bab565b5b8135612e19848260208601612db2565b91505092915050565b600080600060608486031215612e3b57612e3a6128cd565b5b6000612e498682870161295e565b935050602084013567ffffffffffffffff811115612e6a57612e696128d2565b5b612e7686828701612df4565b9250506040612e8786828701612af3565b9150509250925092565b612e9a81612b75565b8114612ea557600080fd5b50565b600081359050612eb781612e91565b92915050565b600060208284031215612ed357612ed26128cd565b5b6000612ee184828501612ea8565b91505092915050565b600081519050919050565b600082825260208201905092915050565b60005b83811015612f24578082015181840152602081019050612f09565b60008484015250505050565b6000612f3b82612eea565b612f458185612ef5565b9350612f55818560208601612f06565b612f5e81612bb5565b840191505092915050565b60006020820190508181036000830152612f838184612f30565b905092915050565b612f94816128d7565b82525050565b6000602082019050612faf6000830184612f8b565b92915050565b600080600060608486031215612fce57612fcd6128cd565b5b6000612fdc86828701612af3565b9350506020612fed8682870161295e565b9250506040612ffe868287016128f8565b9150509250925092565b600080600060608486031215613021576130206128cd565b5b600061302f8682870161295e565b9350506020613040868287016128f8565b9250506040613051868287016128f8565b9150509250925092565b7f616d6f756e742063616e6e6f7420626520300000000000000000000000000000600082015250565b6000613091601283612ef5565b915061309c8261305b565b602082019050919050565b600060208201905081810360008301526130c081613084565b9050919050565b7f4d6178696d756d206d696e74696e672072656163686564000000000000000000600082015250565b60006130fd601783612ef5565b9150613108826130c7565b602082019050919050565b6000602082019050818103600083015261312c816130f0565b9050919050565b7f43616e6e6f7420627579207573696e67206e617469766520636f696e7320616e60008201527f796d6f7265000000000000000000000000000000000000000000000000000000602082015250565b600061318f602583612ef5565b915061319a82613133565b604082019050919050565b600060208201905081810360008301526131be81613182565b9050919050565b7f4e487b7100000000000000000000000000000000000000000000000000000000600052601160045260246000fd5b60006131ff826128d7565b915061320a836128d7565b9250828201905080821115613222576132216131c5565b5b92915050565b600060c08201905081810360008301526132428189612f30565b90506132516020830188612f8b565b61325e6040830187612ab2565b61326b6060830186612f8b565b6132786080830185612f8b565b61328560a0830184612f8b565b979650505050505050565b7f4e487b7100000000000000000000000000000000000000000000000000000000600052603260045260246000fd5b60006132ca8261293a565b915060ff82036132dd576132dc6131c5565b5b600182019050919050565b60006132f3826128d7565b91506132fe836128d7565b9250828203905081811115613316576133156131c5565b5b92915050565b600060a08201905081810360008301526133368188612f30565b90506133456020830187612ab2565b6133526040830186612f8b565b61335f6060830185612f8b565b61336c6080830184612f8b565b9695505050505050565b7f46756e6374696f6e206d7573742062652063616c6c6564207468726f7567682060008201527f64656c656761746563616c6c0000000000000000000000000000000000000000602082015250565b60006133d2602c83612ef5565b91506133dd82613376565b604082019050919050565b60006020820190508181036000830152613401816133c5565b9050919050565b7f46756e6374696f6e206d7573742062652063616c6c6564207468726f7567682060008201527f6163746976652070726f78790000000000000000000000000000000000000000602082015250565b6000613464602c83612ef5565b915061346f82613408565b604082019050919050565b6000602082019050818103600083015261349381613457565b9050919050565b7f555550535570677261646561626c653a206d757374206e6f742062652063616c60008201527f6c6564207468726f7567682064656c656761746563616c6c0000000000000000602082015250565b60006134f6603883612ef5565b91506135018261349a565b604082019050919050565b60006020820190508181036000830152613525816134e9565b9050919050565b7f4e487b7100000000000000000000000000000000000000000000000000000000600052602260045260246000fd5b6000600282049050600182168061357357607f821691505b6020821081036135865761358561352c565b5b50919050565b60008190508160005260206000209050919050565b60006020601f8301049050919050565b600082821b905092915050565b6000600883026135ee7fffffffffffffffffffffffffffffffffffffffffffffffffffffffffffffffff826135b1565b6135f886836135b1565b95508019841693508086168417925050509392505050565b6000819050919050565b600061363561363061362b846128d7565b613610565b6128d7565b9050919050565b6000819050919050565b61364f8361361a565b61366361365b8261363c565b8484546135be565b825550505050565b600090565b61367861366b565b613683818484613646565b505050565b5b818110156136a75761369c600082613670565b600181019050613689565b5050565b601f8211156136ec576136bd8161358c565b6136c6846135a1565b810160208510156136d5578190505b6136e96136e1856135a1565b830182613688565b50505b505050565b600082821c905092915050565b600061370f600019846008026136f1565b1980831691505092915050565b600061372883836136fe565b9150826002028217905092915050565b61374182612eea565b67ffffffffffffffff81111561375a57613759612bc6565b5b613764825461355b565b61376f8282856136ab565b600060209050601f8311600181146137a25760008415613790578287015190505b61379a858261371c565b865550613802565b601f1984166137b08661358c565b60005b828110156137d8578489015182556001820191506020850194506020810190506137b3565b868310156137f557848901516137f1601f8916826136fe565b8355505b6001600288020188555050505b505050505050565b7f496e697469616c697a61626c653a20636f6e747261637420697320616c72656160008201527f647920696e697469616c697a6564000000000000000000000000000000000000602082015250565b6000613866602e83612ef5565b91506138718261380a565b604082019050919050565b6000602082019050818103600083015261389581613859565b9050919050565b6000819050919050565b60006138c16138bc6138b78461389c565b613610565b61293a565b9050919050565b6138d1816138a6565b82525050565b60006020820190506138ec60008301846138c8565b92915050565b60006040820190506139076000830185612ab2565b6139146020830184612f8b565b9392505050565b60008151905061392a81612e91565b92915050565b600060208284031215613946576139456128cd565b5b60006139548482850161391b565b91505092915050565b6000815461396a8161355b565b6139748186612ef5565b9450600182166000811461398f57600181146139a5576139d8565b60ff1983168652811515602002860193506139d8565b6139ae8561358c565b60005b838110156139d0578154818901526001820191506020810190506139b1565b808801955050505b50505092915050565b600060a08201905081810360008301526139fb818861395d565b9050613a0a6020830187612ab2565b613a176040830186612f8b565b613a246060830185612f8b565b613a316080830184612f8b565b9695505050505050565b6000606082019050613a506000830186612ab2565b613a5d6020830185612ab2565b613a6a6040830184612f8b565b949350505050565b600060c0820190508181036000830152613a8c818961395d565b9050613a9b6020830188612f8b565b613aa86040830187612ab2565b613ab56060830186612f8b565b613ac26080830185612f8b565b613acf60a0830184612f8b565b979650505050505050565b7f4f776e61626c653a206e6577206f776e657220697320746865207a65726f206160008201527f6464726573730000000000000000000000000000000000000000000000000000602082015250565b6000613b36602683612ef5565b9150613b4182613ada565b604082019050919050565b60006020820190508181036000830152613b6581613b29565b9050919050565b7f5061757361626c653a2070617573656400000000000000000000000000000000600082015250565b6000613ba2601083612ef5565b9150613bad82613b6c565b602082019050919050565b60006020820190508181036000830152613bd181613b95565b9050919050565b7f4f776e61626c653a2063616c6c6572206973206e6f7420746865206f776e6572600082015250565b6000613c0e602083612ef5565b9150613c1982613bd8565b602082019050919050565b60006020820190508181036000830152613c3d81613c01565b9050919050565b613c4d81612d4d565b8114613c5857600080fd5b50565b600081519050613c6a81613c44565b92915050565b600060208284031215613c8657613c856128cd565b5b6000613c9484828501613c5b565b91505092915050565b7f45524331393637557067726164653a206e657720696d706c656d656e7461746960008201527f6f6e206973206e6f742055555053000000000000000000000000000000000000602082015250565b6000613cf9602e83612ef5565b9150613d0482613c9d565b604082019050919050565b60006020820190508181036000830152613d2881613cec565b9050919050565b7f45524331393637557067726164653a20756e737570706f727465642070726f7860008201527f6961626c65555549440000000000000000000000000000000000000000000000602082015250565b6000613d8b602983612ef5565b9150613d9682613d2f565b604082019050919050565b60006020820190508181036000830152613dba81613d7e565b9050919050565b7f496e697469616c697a61626c653a20636f6e7472616374206973206e6f74206960008201527f6e697469616c697a696e67000000000000000000000000000000000000000000602082015250565b6000613e1d602b83612ef5565b9150613e2882613dc1565b604082019050919050565b60006020820190508181036000830152613e4c81613e10565b9050919050565b7f455243313936373a206e657720696d706c656d656e746174696f6e206973206e60008201527f6f74206120636f6e747261637400000000000000000000000000000000000000602082015250565b6000613eaf602d83612ef5565b9150613eba82613e53565b604082019050919050565b60006020820190508181036000830152613ede81613ea2565b9050919050565b7f5061757361626c653a206e6f7420706175736564000000000000000000000000600082015250565b6000613f1b601483612ef5565b9150613f2682613ee5565b602082019050919050565b60006020820190508181036000830152613f4a81613f0e565b9050919050565b7f416464726573733a2064656c65676174652063616c6c20746f206e6f6e2d636f60008201527f6e74726163740000000000000000000000000000000000000000000000000000602082015250565b6000613fad602683612ef5565b9150613fb882613f51565b604082019050919050565b60006020820190508181036000830152613fdc81613fa0565b9050919050565b600081519050919050565b600081905092915050565b600061400482613fe3565b61400e8185613fee565b935061401e818560208601612f06565b80840191505092915050565b60006140368284613ff9565b91508190509291505056fe416464726573733a206c6f772d6c6576656c2064656c65676174652063616c6c206661696c6564a2646970667358221220a95660313fc669befa6eb0ca8b3b1eba0ed295b5e189c38bffdead22c639f6db64736f6c63430008110033",
  "linkReferences": {},
  "deployedLinkReferences": {}
}