{
    "contractName": "Chai",
    "abi": [
        {
            "inputs": [],
            "stateMutability": "nonpayable",
            "type": "constructor"
        },
        {
            "anonymous": false,
            "inputs": [
                {
                    "indexed": false,
                    "internalType": "address",
                    "name": "previousAdmin",
                    "type": "address"
                },
                {
                    "indexed": false,
                    "internalType": "address",
                    "name": "newAdmin",
                    "type": "address"
                }
            ],
            "name": "AdminChanged",
            "type": "event"
        },
        {
            "anonymous": false,
            "inputs": [
                {
                    "indexed": true,
                    "internalType": "address",
                    "name": "owner",
                    "type": "address"
                },
                {
                    "indexed": true,
                    "internalType": "address",
                    "name": "spender",
                    "type": "address"
                },
                {
                    "indexed": false,
                    "internalType": "uint256",
                    "name": "value",
                    "type": "uint256"
                }
            ],
            "name": "Approval",
            "type": "event"
        },
        {
            "anonymous": false,
            "inputs": [
                {
                    "indexed": true,
                    "internalType": "address",
                    "name": "beacon",
                    "type": "address"
                }
            ],
            "name": "BeaconUpgraded",
            "type": "event"
        },
        {
            "anonymous": false,
            "inputs": [
                {
                    "indexed": false,
                    "internalType": "uint8",
                    "name": "version",
                    "type": "uint8"
                }
            ],
            "name": "Initialized",
            "type": "event"
        },
        {
            "anonymous": false,
            "inputs": [
                {
                    "indexed": true,
                    "internalType": "address",
                    "name": "previousOwner",
                    "type": "address"
                },
                {
                    "indexed": true,
                    "internalType": "address",
                    "name": "newOwner",
                    "type": "address"
                }
            ],
            "name": "OwnershipTransferred",
            "type": "event"
        },
        {
            "anonymous": false,
            "inputs": [
                {
                    "indexed": true,
                    "internalType": "address",
                    "name": "from",
                    "type": "address"
                },
                {
                    "indexed": true,
                    "internalType": "address",
                    "name": "to",
                    "type": "address"
                },
                {
                    "indexed": false,
                    "internalType": "uint256",
                    "name": "value",
                    "type": "uint256"
                }
            ],
            "name": "Transfer",
            "type": "event"
        },
        {
            "anonymous": false,
            "inputs": [
                {
                    "indexed": true,
                    "internalType": "address",
                    "name": "implementation",
                    "type": "address"
                }
            ],
            "name": "Upgraded",
            "type": "event"
        },
        {
            "inputs": [
                {
                    "internalType": "address",
                    "name": "owner",
                    "type": "address"
                },
                {
                    "internalType": "address",
                    "name": "spender",
                    "type": "address"
                }
            ],
            "name": "allowance",
            "outputs": [
                {
                    "internalType": "uint256",
                    "name": "",
                    "type": "uint256"
                }
            ],
            "stateMutability": "view",
            "type": "function"
        },
        {
            "inputs": [
                {
                    "internalType": "address",
                    "name": "spender",
                    "type": "address"
                },
                {
                    "internalType": "uint256",
                    "name": "amount",
                    "type": "uint256"
                }
            ],
            "name": "approve",
            "outputs": [
                {
                    "internalType": "bool",
                    "name": "",
                    "type": "bool"
                }
            ],
            "stateMutability": "nonpayable",
            "type": "function"
        },
        {
            "inputs": [
                {
                    "internalType": "address",
                    "name": "account",
                    "type": "address"
                }
            ],
            "name": "balanceOf",
            "outputs": [
                {
                    "internalType": "uint256",
                    "name": "",
                    "type": "uint256"
                }
            ],
            "stateMutability": "view",
            "type": "function"
        },
        {
            "inputs": [
                {
                    "internalType": "uint256",
                    "name": "amount",
                    "type": "uint256"
                }
            ],
            "name": "burn",
            "outputs": [],
            "stateMutability": "nonpayable",
            "type": "function"
        },
        {
            "inputs": [
                {
                    "internalType": "address",
                    "name": "account",
                    "type": "address"
                },
                {
                    "internalType": "uint256",
                    "name": "amount",
                    "type": "uint256"
                }
            ],
            "name": "burnFrom",
            "outputs": [],
            "stateMutability": "nonpayable",
            "type": "function"
        },
        {
            "inputs": [],
            "name": "decimals",
            "outputs": [
                {
                    "internalType": "uint8",
                    "name": "",
                    "type": "uint8"
                }
            ],
            "stateMutability": "view",
            "type": "function"
        },
        {
            "inputs": [
                {
                    "internalType": "address",
                    "name": "spender",
                    "type": "address"
                },
                {
                    "internalType": "uint256",
                    "name": "subtractedValue",
                    "type": "uint256"
                }
            ],
            "name": "decreaseAllowance",
            "outputs": [
                {
                    "internalType": "bool",
                    "name": "",
                    "type": "bool"
                }
            ],
            "stateMutability": "nonpayable",
            "type": "function"
        },
        {
            "inputs": [
                {
                    "internalType": "address",
                    "name": "spender",
                    "type": "address"
                },
                {
                    "internalType": "uint256",
                    "name": "addedValue",
                    "type": "uint256"
                }
            ],
            "name": "increaseAllowance",
            "outputs": [
                {
                    "internalType": "bool",
                    "name": "",
                    "type": "bool"
                }
            ],
            "stateMutability": "nonpayable",
            "type": "function"
        },
        {
            "inputs": [],
            "name": "initialize",
            "outputs": [],
            "stateMutability": "nonpayable",
            "type": "function"
        },
        {
            "inputs": [],
            "name": "name",
            "outputs": [
                {
                    "internalType": "string",
                    "name": "",
                    "type": "string"
                }
            ],
            "stateMutability": "view",
            "type": "function"
        },
        {
            "inputs": [],
            "name": "owner",
            "outputs": [
                {
                    "internalType": "address",
                    "name": "",
                    "type": "address"
                }
            ],
            "stateMutability": "view",
            "type": "function"
        },
        {
            "inputs": [],
            "name": "proxiableUUID",
            "outputs": [
                {
                    "internalType": "bytes32",
                    "name": "",
                    "type": "bytes32"
                }
            ],
            "stateMutability": "view",
            "type": "function"
        },
        {
            "inputs": [],
            "name": "renounceOwnership",
            "outputs": [],
            "stateMutability": "nonpayable",
            "type": "function"
        },
        {
            "inputs": [],
            "name": "symbol",
            "outputs": [
                {
                    "internalType": "string",
                    "name": "",
                    "type": "string"
                }
            ],
            "stateMutability": "view",
            "type": "function"
        },
        {
            "inputs": [],
            "name": "totalSupply",
            "outputs": [
                {
                    "internalType": "uint256",
                    "name": "",
                    "type": "uint256"
                }
            ],
            "stateMutability": "view",
            "type": "function"
        },
        {
            "inputs": [
                {
                    "internalType": "address",
                    "name": "to",
                    "type": "address"
                },
                {
                    "internalType": "uint256",
                    "name": "amount",
                    "type": "uint256"
                }
            ],
            "name": "transfer",
            "outputs": [
                {
                    "internalType": "bool",
                    "name": "",
                    "type": "bool"
                }
            ],
            "stateMutability": "nonpayable",
            "type": "function"
        },
        {
            "inputs": [
                {
                    "internalType": "address",
                    "name": "from",
                    "type": "address"
                },
                {
                    "internalType": "address",
                    "name": "to",
                    "type": "address"
                },
                {
                    "internalType": "uint256",
                    "name": "amount",
                    "type": "uint256"
                }
            ],
            "name": "transferFrom",
            "outputs": [
                {
                    "internalType": "bool",
                    "name": "",
                    "type": "bool"
                }
            ],
            "stateMutability": "nonpayable",
            "type": "function"
        },
        {
            "inputs": [
                {
                    "internalType": "address",
                    "name": "newOwner",
                    "type": "address"
                }
            ],
            "name": "transferOwnership",
            "outputs": [],
            "stateMutability": "nonpayable",
            "type": "function"
        },
        {
            "inputs": [
                {
                    "internalType": "address",
                    "name": "newImplementation",
                    "type": "address"
                }
            ],
            "name": "upgradeTo",
            "outputs": [],
            "stateMutability": "nonpayable",
            "type": "function"
        },
        {
            "inputs": [
                {
                    "internalType": "address",
                    "name": "newImplementation",
                    "type": "address"
                },
                {
                    "internalType": "bytes",
                    "name": "data",
                    "type": "bytes"
                }
            ],
            "name": "upgradeToAndCall",
            "outputs": [],
            "stateMutability": "payable",
            "type": "function"
        }
    ],
    "bytecode": "60a06040523060805234801561001457600080fd5b5061001d610022565b6100e2565b600054610100900460ff161561008e5760405162461bcd60e51b815260206004820152602760248201527f496e697469616c697a61626c653a20636f6e747261637420697320696e697469604482015266616c697a696e6760c81b606482015260840160405180910390fd5b60005460ff90811610156100e0576000805460ff191660ff9081179091556040519081527f7f26b83ff96e1f2b6a682f133852f6798a09c465da95921460cefb38474024989060200160405180910390a15b565b608051611b186101196000396000818161047d015281816104c601528181610591015281816105d101526106640152611b186000f3fe60806040526004361061011f5760003560e01c806370a08231116100a057806395d89b411161006457806395d89b411461030c578063a457c2d714610321578063a9059cbb14610341578063dd62ed3e14610361578063f2fde38b1461038157600080fd5b806370a0823114610264578063715018a61461029a57806379cc6790146102af5780638129fc1c146102cf5780638da5cb5b146102e457600080fd5b80633659cfe6116100e75780633659cfe6146101da57806339509351146101fc57806342966c681461021c5780634f1ef2861461023c57806352d1902d1461024f57600080fd5b806306fdde0314610124578063095ea7b31461014f57806318160ddd1461017f57806323b872dd1461019e578063313ce567146101be575b600080fd5b34801561013057600080fd5b506101396103a1565b6040516101469190611501565b60405180910390f35b34801561015b57600080fd5b5061016f61016a366004611550565b610433565b6040519015158152602001610146565b34801561018b57600080fd5b506035545b604051908152602001610146565b3480156101aa57600080fd5b5061016f6101b936600461157a565b61044d565b3480156101ca57600080fd5b5060405160128152602001610146565b3480156101e657600080fd5b506101fa6101f53660046115b6565b610473565b005b34801561020857600080fd5b5061016f610217366004611550565b61055b565b34801561022857600080fd5b506101fa6102373660046115d1565b61057d565b6101fa61024a366004611600565b610587565b34801561025b57600080fd5b50610190610657565b34801561027057600080fd5b5061019061027f3660046115b6565b6001600160a01b031660009081526033602052604090205490565b3480156102a657600080fd5b506101fa61070a565b3480156102bb57600080fd5b506101fa6102ca366004611550565b61071e565b3480156102db57600080fd5b506101fa610733565b3480156102f057600080fd5b506097546040516001600160a01b039091168152602001610146565b34801561031857600080fd5b506101396108b7565b34801561032d57600080fd5b5061016f61033c366004611550565b6108c6565b34801561034d57600080fd5b5061016f61035c366004611550565b61094c565b34801561036d57600080fd5b5061019061037c3660046116c2565b61095a565b34801561038d57600080fd5b506101fa61039c3660046115b6565b610985565b6060603680546103b0906116f5565b80601f01602080910402602001604051908101604052809291908181526020018280546103dc906116f5565b80156104295780601f106103fe57610100808354040283529160200191610429565b820191906000526020600020905b81548152906001019060200180831161040c57829003601f168201915b5050505050905090565b6000336104418185856109fb565b60019150505b92915050565b60003361045b858285610b1f565b610466858585610b99565b60019150505b9392505050565b6001600160a01b037f00000000000000000000000000000000000000000000000000000000000000001630036104c45760405162461bcd60e51b81526004016104bb9061172f565b60405180910390fd5b7f00000000000000000000000000000000000000000000000000000000000000006001600160a01b031661050d600080516020611a9c833981519152546001600160a01b031690565b6001600160a01b0316146105335760405162461bcd60e51b81526004016104bb9061177b565b61053c81610d67565b6040805160008082526020820190925261055891839190610d6f565b50565b60003361044181858561056e838361095a565b61057891906117dd565b6109fb565b6105583382610edf565b6001600160a01b037f00000000000000000000000000000000000000000000000000000000000000001630036105cf5760405162461bcd60e51b81526004016104bb9061172f565b7f00000000000000000000000000000000000000000000000000000000000000006001600160a01b0316610618600080516020611a9c833981519152546001600160a01b031690565b6001600160a01b03161461063e5760405162461bcd60e51b81526004016104bb9061177b565b61064782610d67565b61065382826001610d6f565b5050565b6000306001600160a01b037f000000000000000000000000000000000000000000000000000000000000000016146106f75760405162461bcd60e51b815260206004820152603860248201527f555550535570677261646561626c653a206d757374206e6f742062652063616c60448201527f6c6564207468726f7567682064656c656761746563616c6c000000000000000060648201526084016104bb565b50600080516020611a9c83398151915290565b61071261102d565b61071c6000611087565b565b610729823383610b1f565b6106538282610edf565b600054610100900460ff16158080156107535750600054600160ff909116105b8061076d5750303b15801561076d575060005460ff166001145b6107d05760405162461bcd60e51b815260206004820152602e60248201527f496e697469616c697a61626c653a20636f6e747261637420697320616c72656160448201526d191e481a5b9a5d1a585b1a5e995960921b60648201526084016104bb565b6000805460ff1916600117905580156107f3576000805461ff0019166101001790555b610834604051806040016040528060048152602001634368616960e01b8152506040518060400160405280600381526020016210d21560ea1b8152506110d9565b61083c61110a565b610844611131565b61084c61110a565b61086f3361085c6012600a6118d4565b61086a90633b9aca006118e3565b611160565b8015610558576000805461ff0019169055604051600181527f7f26b83ff96e1f2b6a682f133852f6798a09c465da95921460cefb38474024989060200160405180910390a150565b6060603780546103b0906116f5565b600033816108d4828661095a565b9050838110156109345760405162461bcd60e51b815260206004820152602560248201527f45524332303a2064656372656173656420616c6c6f77616e63652062656c6f77604482015264207a65726f60d81b60648201526084016104bb565b61094182868684036109fb565b506001949350505050565b600033610441818585610b99565b6001600160a01b03918216600090815260346020908152604080832093909416825291909152205490565b61098d61102d565b6001600160a01b0381166109f25760405162461bcd60e51b815260206004820152602660248201527f4f776e61626c653a206e6577206f776e657220697320746865207a65726f206160448201526564647265737360d01b60648201526084016104bb565b61055881611087565b6001600160a01b038316610a5d5760405162461bcd60e51b8152602060048201526024808201527f45524332303a20617070726f76652066726f6d20746865207a65726f206164646044820152637265737360e01b60648201526084016104bb565b6001600160a01b038216610abe5760405162461bcd60e51b815260206004820152602260248201527f45524332303a20617070726f766520746f20746865207a65726f206164647265604482015261737360f01b60648201526084016104bb565b6001600160a01b0383811660008181526034602090815260408083209487168084529482529182902085905590518481527f8c5be1e5ebec7d5bd14f71427d1e84f3dd0314c0f7b2291e5b200ac8c7c3b925910160405180910390a3505050565b6000610b2b848461095a565b90506000198114610b935781811015610b865760405162461bcd60e51b815260206004820152601d60248201527f45524332303a20696e73756666696369656e7420616c6c6f77616e636500000060448201526064016104bb565b610b9384848484036109fb565b50505050565b6001600160a01b038316610bfd5760405162461bcd60e51b815260206004820152602560248201527f45524332303a207472616e736665722066726f6d20746865207a65726f206164604482015264647265737360d81b60648201526084016104bb565b6001600160a01b038216610c5f5760405162461bcd60e51b815260206004820152602360248201527f45524332303a207472616e7366657220746f20746865207a65726f206164647260448201526265737360e81b60648201526084016104bb565b6001600160a01b03831660009081526033602052604090205481811015610cd75760405162461bcd60e51b815260206004820152602660248201527f45524332303a207472616e7366657220616d6f756e7420657863656564732062604482015265616c616e636560d01b60648201526084016104bb565b6001600160a01b03808516600090815260336020526040808220858503905591851681529081208054849290610d0e9084906117dd565b92505081905550826001600160a01b0316846001600160a01b03167fddf252ad1be2c89b69c2b068fc378daa952ba7f163c4a11628f55a4df523b3ef84604051610d5a91815260200190565b60405180910390a3610b93565b61055861102d565b7f4910fdfa16fed3260ed0e7147f7cc6da11a60208b5b9406d12a635614ffd91435460ff1615610da757610da28361123f565b505050565b826001600160a01b03166352d1902d6040518163ffffffff1660e01b8152600401602060405180830381865afa925050508015610e01575060408051601f3d908101601f19168201909252610dfe918101906118fa565b60015b610e645760405162461bcd60e51b815260206004820152602e60248201527f45524331393637557067726164653a206e657720696d706c656d656e7461746960448201526d6f6e206973206e6f74205555505360901b60648201526084016104bb565b600080516020611a9c8339815191528114610ed35760405162461bcd60e51b815260206004820152602960248201527f45524331393637557067726164653a20756e737570706f727465642070726f786044820152681a58589b195555525160ba1b60648201526084016104bb565b50610da28383836112db565b6001600160a01b038216610f3f5760405162461bcd60e51b815260206004820152602160248201527f45524332303a206275726e2066726f6d20746865207a65726f206164647265736044820152607360f81b60648201526084016104bb565b6001600160a01b03821660009081526033602052604090205481811015610fb35760405162461bcd60e51b815260206004820152602260248201527f45524332303a206275726e20616d6f756e7420657863656564732062616c616e604482015261636560f01b60648201526084016104bb565b6001600160a01b0383166000908152603360205260408120838303905560358054849290610fe2908490611913565b90915550506040518281526000906001600160a01b038516907fddf252ad1be2c89b69c2b068fc378daa952ba7f163c4a11628f55a4df523b3ef9060200160405180910390a3505050565b6097546001600160a01b0316331461071c5760405162461bcd60e51b815260206004820181905260248201527f4f776e61626c653a2063616c6c6572206973206e6f7420746865206f776e657260448201526064016104bb565b609780546001600160a01b038381166001600160a01b0319831681179093556040519116919082907f8be0079c531659141344cd1fd0a4f28419497f9722a3daafe3b4186f6b6457e090600090a35050565b600054610100900460ff166111005760405162461bcd60e51b81526004016104bb90611926565b6106538282611300565b600054610100900460ff1661071c5760405162461bcd60e51b81526004016104bb90611926565b600054610100900460ff166111585760405162461bcd60e51b81526004016104bb90611926565b61071c611340565b6001600160a01b0382166111b65760405162461bcd60e51b815260206004820152601f60248201527f45524332303a206d696e7420746f20746865207a65726f20616464726573730060448201526064016104bb565b80603560008282546111c891906117dd565b90915550506001600160a01b038216600090815260336020526040812080548392906111f59084906117dd565b90915550506040518181526001600160a01b038316906000907fddf252ad1be2c89b69c2b068fc378daa952ba7f163c4a11628f55a4df523b3ef9060200160405180910390a35050565b6001600160a01b0381163b6112ac5760405162461bcd60e51b815260206004820152602d60248201527f455243313936373a206e657720696d706c656d656e746174696f6e206973206e60448201526c1bdd08184818dbdb9d1c9858dd609a1b60648201526084016104bb565b600080516020611a9c83398151915280546001600160a01b0319166001600160a01b0392909216919091179055565b6112e483611370565b6000825111806112f15750805b15610da257610b9383836113b0565b600054610100900460ff166113275760405162461bcd60e51b81526004016104bb90611926565b603661133383826119bf565b506037610da282826119bf565b600054610100900460ff166113675760405162461bcd60e51b81526004016104bb90611926565b61071c33611087565b6113798161123f565b6040516001600160a01b038216907fbc7cd75a20ee27fd9adebab32041f755214dbc6bffa90cc0225b39da2e5c2d3b90600090a250565b60606001600160a01b0383163b6114185760405162461bcd60e51b815260206004820152602660248201527f416464726573733a2064656c65676174652063616c6c20746f206e6f6e2d636f6044820152651b9d1c9858dd60d21b60648201526084016104bb565b600080846001600160a01b0316846040516114339190611a7f565b600060405180830381855af49150503d806000811461146e576040519150601f19603f3d011682016040523d82523d6000602084013e611473565b606091505b509150915061149b8282604051806060016040528060278152602001611abc602791396114a4565b95945050505050565b606083156114b357508161046c565b8251156114c35782518084602001fd5b8160405162461bcd60e51b81526004016104bb9190611501565b60005b838110156114f85781810151838201526020016114e0565b50506000910152565b60208152600082518060208401526115208160408501602087016114dd565b601f01601f19169190910160400192915050565b80356001600160a01b038116811461154b57600080fd5b919050565b6000806040838503121561156357600080fd5b61156c83611534565b946020939093013593505050565b60008060006060848603121561158f57600080fd5b61159884611534565b92506115a660208501611534565b9150604084013590509250925092565b6000602082840312156115c857600080fd5b61046c82611534565b6000602082840312156115e357600080fd5b5035919050565b634e487b7160e01b600052604160045260246000fd5b6000806040838503121561161357600080fd5b61161c83611534565b9150602083013567ffffffffffffffff8082111561163957600080fd5b818501915085601f83011261164d57600080fd5b81358181111561165f5761165f6115ea565b604051601f8201601f19908116603f01168101908382118183101715611687576116876115ea565b816040528281528860208487010111156116a057600080fd5b8260208601602083013760006020848301015280955050505050509250929050565b600080604083850312156116d557600080fd5b6116de83611534565b91506116ec60208401611534565b90509250929050565b600181811c9082168061170957607f821691505b60208210810361172957634e487b7160e01b600052602260045260246000fd5b50919050565b6020808252602c908201527f46756e6374696f6e206d7573742062652063616c6c6564207468726f7567682060408201526b19195b1959d85d1958d85b1b60a21b606082015260800190565b6020808252602c908201527f46756e6374696f6e206d7573742062652063616c6c6564207468726f7567682060408201526b6163746976652070726f787960a01b606082015260800190565b634e487b7160e01b600052601160045260246000fd5b80820180821115610447576104476117c7565b600181815b8085111561182b578160001904821115611811576118116117c7565b8085161561181e57918102915b93841c93908002906117f5565b509250929050565b60008261184257506001610447565b8161184f57506000610447565b8160018114611865576002811461186f5761188b565b6001915050610447565b60ff841115611880576118806117c7565b50506001821b610447565b5060208310610133831016604e8410600b84101617156118ae575081810a610447565b6118b883836117f0565b80600019048211156118cc576118cc6117c7565b029392505050565b600061046c60ff841683611833565b8082028115828204841417610447576104476117c7565b60006020828403121561190c57600080fd5b5051919050565b81810381811115610447576104476117c7565b6020808252602b908201527f496e697469616c697a61626c653a20636f6e7472616374206973206e6f74206960408201526a6e697469616c697a696e6760a81b606082015260800190565b601f821115610da257600081815260208120601f850160051c810160208610156119985750805b601f850160051c820191505b818110156119b7578281556001016119a4565b505050505050565b815167ffffffffffffffff8111156119d9576119d96115ea565b6119ed816119e784546116f5565b84611971565b602080601f831160018114611a225760008415611a0a5750858301515b600019600386901b1c1916600185901b1785556119b7565b600085815260208120601f198616915b82811015611a5157888601518255948401946001909101908401611a32565b5085821015611a6f5787850151600019600388901b60f8161c191681555b5050505050600190811b01905550565b60008251611a918184602087016114dd565b919091019291505056fe360894a13ba1a3210667c828492db98dca3e2076cc3735a920a3ca505d382bbc416464726573733a206c6f772d6c6576656c2064656c65676174652063616c6c206661696c6564a264697066735822122004e2042c59d8c7ed030396c710f89fef769631d2754747483c7b6985e9a078b764736f6c63430008110033",
    "sourcePath": "/workspaces/ChaiDex-Contracts-1/contracts/Chait.sol",
    "compiler": {
        "name": "solc",
        "version": "0.8.17+commit.8df45f5f"
    },
    "functionHashes": {
        "allowance(address,address)": "dd62ed3e",
        "approve(address,uint256)": "095ea7b3",
        "balanceOf(address)": "70a08231",
        "burn(uint256)": "42966c68",
        "burnFrom(address,uint256)": "79cc6790",
        "decimals()": "313ce567",
        "decreaseAllowance(address,uint256)": "a457c2d7",
        "increaseAllowance(address,uint256)": "39509351",
        "initialize()": "8129fc1c",
        "name()": "06fdde03",
        "owner()": "8da5cb5b",
        "proxiableUUID()": "52d1902d",
        "renounceOwnership()": "715018a6",
        "symbol()": "95d89b41",
        "totalSupply()": "18160ddd",
        "transfer(address,uint256)": "a9059cbb",
        "transferFrom(address,address,uint256)": "23b872dd",
        "transferOwnership(address)": "f2fde38b",
        "upgradeTo(address)": "3659cfe6",
        "upgradeToAndCall(address,bytes)": "4f1ef286"
    },
    "gasEstimates": {
        "creation": {
            "codeDepositCost": "1387200",
            "executionCost": "infinite",
            "totalCost": "infinite"
        },
        "external": {
            "allowance(address,address)": "infinite",
            "approve(address,uint256)": "24651",
            "balanceOf(address)": "2560",
            "burn(uint256)": "50918",
            "burnFrom(address,uint256)": "77628",
            "decimals()": "289",
            "decreaseAllowance(address,uint256)": "26994",
            "increaseAllowance(address,uint256)": "infinite",
            "initialize()": "infinite",
            "name()": "infinite",
            "owner()": "2412",
            "proxiableUUID()": "infinite",
            "renounceOwnership()": "infinite",
            "symbol()": "infinite",
            "totalSupply()": "2349",
            "transfer(address,uint256)": "infinite",
            "transferFrom(address,address,uint256)": "infinite",
            "transferOwnership(address)": "28446",
            "upgradeTo(address)": "infinite",
            "upgradeToAndCall(address,bytes)": "infinite"
        },
        "internal": {
            "_authorizeUpgrade(address)": "infinite"
        }
    }
}