{
    "contractName": "LiquidityPool",
    "abi": [
        {
            "inputs": [],
            "stateMutability": "nonpayable",
            "type": "constructor"
        },
        {
            "anonymous": false,
            "inputs": [
                {
                    "indexed": false,
                    "internalType": "address",
                    "name": "previousAdmin",
                    "type": "address"
                },
                {
                    "indexed": false,
                    "internalType": "address",
                    "name": "newAdmin",
                    "type": "address"
                }
            ],
            "name": "AdminChanged",
            "type": "event"
        },
        {
            "anonymous": false,
            "inputs": [
                {
                    "indexed": true,
                    "internalType": "address",
                    "name": "beacon",
                    "type": "address"
                }
            ],
            "name": "BeaconUpgraded",
            "type": "event"
        },
        {
            "anonymous": false,
            "inputs": [
                {
                    "indexed": false,
                    "internalType": "uint8",
                    "name": "version",
                    "type": "uint8"
                }
            ],
            "name": "Initialized",
            "type": "event"
        },
        {
            "anonymous": false,
            "inputs": [
                {
                    "indexed": true,
                    "internalType": "address",
                    "name": "previousOwner",
                    "type": "address"
                },
                {
                    "indexed": true,
                    "internalType": "address",
                    "name": "newOwner",
                    "type": "address"
                }
            ],
            "name": "OwnershipTransferred",
            "type": "event"
        },
        {
            "anonymous": false,
            "inputs": [
                {
                    "indexed": false,
                    "internalType": "address",
                    "name": "account",
                    "type": "address"
                }
            ],
            "name": "Paused",
            "type": "event"
        },
        {
            "anonymous": false,
            "inputs": [
                {
                    "indexed": false,
                    "internalType": "string",
                    "name": "USD",
                    "type": "string"
                },
                {
                    "indexed": false,
                    "internalType": "address",
                    "name": "liquidityProvider",
                    "type": "address"
                },
                {
                    "indexed": false,
                    "internalType": "uint256",
                    "name": "amount",
                    "type": "uint256"
                },
                {
                    "indexed": false,
                    "internalType": "uint256",
                    "name": "USDtotal",
                    "type": "uint256"
                },
                {
                    "indexed": false,
                    "internalType": "uint256",
                    "name": "TotalStake",
                    "type": "uint256"
                }
            ],
            "name": "Stake",
            "type": "event"
        },
        {
            "anonymous": false,
            "inputs": [
                {
                    "indexed": false,
                    "internalType": "address",
                    "name": "account",
                    "type": "address"
                }
            ],
            "name": "Unpaused",
            "type": "event"
        },
        {
            "anonymous": false,
            "inputs": [
                {
                    "indexed": false,
                    "internalType": "string",
                    "name": "USD",
                    "type": "string"
                },
                {
                    "indexed": false,
                    "internalType": "address",
                    "name": "liquidityProvider",
                    "type": "address"
                },
                {
                    "indexed": false,
                    "internalType": "uint256",
                    "name": "amount",
                    "type": "uint256"
                },
                {
                    "indexed": false,
                    "internalType": "uint256",
                    "name": "USDtotal",
                    "type": "uint256"
                },
                {
                    "indexed": false,
                    "internalType": "uint256",
                    "name": "TotalStake",
                    "type": "uint256"
                }
            ],
            "name": "Unstake",
            "type": "event"
        },
        {
            "anonymous": false,
            "inputs": [
                {
                    "indexed": true,
                    "internalType": "address",
                    "name": "implementation",
                    "type": "address"
                }
            ],
            "name": "Upgraded",
            "type": "event"
        },
        {
            "inputs": [
                {
                    "internalType": "uint64",
                    "name": "_num1",
                    "type": "uint64"
                },
                {
                    "internalType": "uint64",
                    "name": "_num2",
                    "type": "uint64"
                }
            ],
            "name": "GetStakers",
            "outputs": [
                {
                    "internalType": "address[]",
                    "name": "",
                    "type": "address[]"
                }
            ],
            "stateMutability": "view",
            "type": "function"
        },
        {
            "inputs": [
                {
                    "internalType": "uint8",
                    "name": "",
                    "type": "uint8"
                }
            ],
            "name": "LPbalanceUSD",
            "outputs": [
                {
                    "internalType": "uint256",
                    "name": "",
                    "type": "uint256"
                }
            ],
            "stateMutability": "view",
            "type": "function"
        },
        {
            "inputs": [
                {
                    "internalType": "address",
                    "name": "",
                    "type": "address"
                }
            ],
            "name": "OldStaker",
            "outputs": [
                {
                    "internalType": "bool",
                    "name": "",
                    "type": "bool"
                }
            ],
            "stateMutability": "view",
            "type": "function"
        },
        {
            "inputs": [
                {
                    "internalType": "address",
                    "name": "",
                    "type": "address"
                }
            ],
            "name": "StakerLiquidity",
            "outputs": [
                {
                    "internalType": "uint256",
                    "name": "",
                    "type": "uint256"
                }
            ],
            "stateMutability": "view",
            "type": "function"
        },
        {
            "inputs": [
                {
                    "internalType": "uint8",
                    "name": "",
                    "type": "uint8"
                }
            ],
            "name": "USDStable",
            "outputs": [
                {
                    "internalType": "address",
                    "name": "",
                    "type": "address"
                }
            ],
            "stateMutability": "view",
            "type": "function"
        },
        {
            "inputs": [],
            "name": "epochover",
            "outputs": [
                {
                    "internalType": "bool",
                    "name": "",
                    "type": "bool"
                }
            ],
            "stateMutability": "view",
            "type": "function"
        },
        {
            "inputs": [
                {
                    "internalType": "uint8",
                    "name": "_length",
                    "type": "uint8"
                }
            ],
            "name": "getLPbalance",
            "outputs": [
                {
                    "internalType": "uint256[]",
                    "name": "",
                    "type": "uint256[]"
                }
            ],
            "stateMutability": "view",
            "type": "function"
        },
        {
            "inputs": [],
            "name": "initialize",
            "outputs": [],
            "stateMutability": "nonpayable",
            "type": "function"
        },
        {
            "inputs": [
                {
                    "internalType": "address",
                    "name": "",
                    "type": "address"
                },
                {
                    "internalType": "uint8",
                    "name": "",
                    "type": "uint8"
                }
            ],
            "name": "liquidityPool",
            "outputs": [
                {
                    "internalType": "uint256",
                    "name": "",
                    "type": "uint256"
                }
            ],
            "stateMutability": "view",
            "type": "function"
        },
        {
            "inputs": [
                {
                    "internalType": "address",
                    "name": "",
                    "type": "address"
                },
                {
                    "internalType": "uint8",
                    "name": "",
                    "type": "uint8"
                }
            ],
            "name": "liquidityPoolStakes",
            "outputs": [
                {
                    "internalType": "uint256",
                    "name": "",
                    "type": "uint256"
                }
            ],
            "stateMutability": "view",
            "type": "function"
        },
        {
            "inputs": [
                {
                    "internalType": "uint8",
                    "name": "",
                    "type": "uint8"
                }
            ],
            "name": "names",
            "outputs": [
                {
                    "internalType": "string",
                    "name": "",
                    "type": "string"
                }
            ],
            "stateMutability": "view",
            "type": "function"
        },
        {
            "inputs": [],
            "name": "owner",
            "outputs": [
                {
                    "internalType": "address",
                    "name": "",
                    "type": "address"
                }
            ],
            "stateMutability": "view",
            "type": "function"
        },
        {
            "inputs": [],
            "name": "pause",
            "outputs": [],
            "stateMutability": "nonpayable",
            "type": "function"
        },
        {
            "inputs": [],
            "name": "paused",
            "outputs": [
                {
                    "internalType": "bool",
                    "name": "",
                    "type": "bool"
                }
            ],
            "stateMutability": "view",
            "type": "function"
        },
        {
            "inputs": [],
            "name": "proxiableUUID",
            "outputs": [
                {
                    "internalType": "bytes32",
                    "name": "",
                    "type": "bytes32"
                }
            ],
            "stateMutability": "view",
            "type": "function"
        },
        {
            "inputs": [],
            "name": "renounceOwnership",
            "outputs": [],
            "stateMutability": "nonpayable",
            "type": "function"
        },
        {
            "inputs": [
                {
                    "internalType": "bool",
                    "name": "_over",
                    "type": "bool"
                }
            ],
            "name": "setEpoch",
            "outputs": [],
            "stateMutability": "nonpayable",
            "type": "function"
        },
        {
            "inputs": [
                {
                    "internalType": "uint8",
                    "name": "_index",
                    "type": "uint8"
                },
                {
                    "internalType": "string",
                    "name": "_name",
                    "type": "string"
                },
                {
                    "internalType": "address",
                    "name": "_USD",
                    "type": "address"
                }
            ],
            "name": "setUSDAddress",
            "outputs": [],
            "stateMutability": "nonpayable",
            "type": "function"
        },
        {
            "inputs": [
                {
                    "internalType": "bool",
                    "name": "_over",
                    "type": "bool"
                }
            ],
            "name": "setUnstake",
            "outputs": [],
            "stateMutability": "nonpayable",
            "type": "function"
        },
        {
            "inputs": [
                {
                    "internalType": "uint8",
                    "name": "_usd",
                    "type": "uint8"
                },
                {
                    "internalType": "uint256",
                    "name": "_amount",
                    "type": "uint256"
                }
            ],
            "name": "stake",
            "outputs": [],
            "stateMutability": "nonpayable",
            "type": "function"
        },
        {
            "inputs": [
                {
                    "internalType": "uint256",
                    "name": "",
                    "type": "uint256"
                }
            ],
            "name": "stakers",
            "outputs": [
                {
                    "internalType": "address",
                    "name": "",
                    "type": "address"
                }
            ],
            "stateMutability": "view",
            "type": "function"
        },
        {
            "inputs": [],
            "name": "totalLiquidity",
            "outputs": [
                {
                    "internalType": "uint256",
                    "name": "",
                    "type": "uint256"
                }
            ],
            "stateMutability": "view",
            "type": "function"
        },
        {
            "inputs": [
                {
                    "internalType": "address",
                    "name": "newOwner",
                    "type": "address"
                }
            ],
            "name": "transferOwnership",
            "outputs": [],
            "stateMutability": "nonpayable",
            "type": "function"
        },
        {
            "inputs": [],
            "name": "unpause",
            "outputs": [],
            "stateMutability": "nonpayable",
            "type": "function"
        },
        {
            "inputs": [],
            "name": "unstakable",
            "outputs": [
                {
                    "internalType": "bool",
                    "name": "",
                    "type": "bool"
                }
            ],
            "stateMutability": "view",
            "type": "function"
        },
        {
            "inputs": [
                {
                    "internalType": "uint8",
                    "name": "_usd",
                    "type": "uint8"
                },
                {
                    "internalType": "uint256",
                    "name": "_amount",
                    "type": "uint256"
                }
            ],
            "name": "unstake",
            "outputs": [],
            "stateMutability": "nonpayable",
            "type": "function"
        },
        {
            "inputs": [
                {
                    "internalType": "uint8",
                    "name": "_usd",
                    "type": "uint8"
                }
            ],
            "name": "unstakeAll",
            "outputs": [],
            "stateMutability": "nonpayable",
            "type": "function"
        },
        {
            "inputs": [
                {
                    "internalType": "address",
                    "name": "",
                    "type": "address"
                },
                {
                    "internalType": "uint8",
                    "name": "",
                    "type": "uint8"
                }
            ],
            "name": "unstakedMax",
            "outputs": [
                {
                    "internalType": "bool",
                    "name": "",
                    "type": "bool"
                }
            ],
            "stateMutability": "view",
            "type": "function"
        },
        {
            "inputs": [
                {
                    "internalType": "address",
                    "name": "newImplementation",
                    "type": "address"
                }
            ],
            "name": "upgradeTo",
            "outputs": [],
            "stateMutability": "nonpayable",
            "type": "function"
        },
        {
            "inputs": [
                {
                    "internalType": "address",
                    "name": "newImplementation",
                    "type": "address"
                },
                {
                    "internalType": "bytes",
                    "name": "data",
                    "type": "bytes"
                }
            ],
            "name": "upgradeToAndCall",
            "outputs": [],
            "stateMutability": "payable",
            "type": "function"
        }
    ],
    "bytecode": "60a0604052306080523480156200001557600080fd5b506200002062000026565b620000e8565b600054610100900460ff1615620000935760405162461bcd60e51b815260206004820152602760248201527f496e697469616c697a61626c653a20636f6e747261637420697320696e697469604482015266616c697a696e6760c81b606482015260840160405180910390fd5b60005460ff9081161015620000e6576000805460ff191660ff9081179091556040519081527f7f26b83ff96e1f2b6a682f133852f6798a09c465da95921460cefb38474024989060200160405180910390a15b565b60805161257262000120600039600081816106de01528181610727015281816108050152818161084501526108d801526125726000f3fe6080604052600436106101cd5760003560e01c80638129fc1c116100f7578063bf7b589e11610095578063dd752e5511610064578063dd752e551461059c578063e76438e1146105bc578063f2fde38b146105e9578063fd5e6dd11461060957600080fd5b8063bf7b589e146104d7578063cb14146d14610505578063d284308914610532578063d9575d471461056b57600080fd5b80638da5cb5b116100d15780638da5cb5b14610446578063911db77b14610464578063b2ffd6531461049c578063b4545b9e146104b757600080fd5b80638129fc1c146103e05780638456cb59146103f5578063846ac6b31461040a57600080fd5b80634abb83141161016f5780636a3cbc4a1161013e5780636a3cbc4a1461035e578063715018a61461037e5780637257a493146103935780637d7e649a146103c057600080fd5b80634abb8314146102fe5780634f1ef2861461031e57806352d1902d146103315780635c975abb1461034657600080fd5b80632c70411b116101ab5780632c70411b146102595780633659cfe6146102a75780633a15c9cc146102c95780633f4ba83a146102e957600080fd5b8063058aa5cb146101d25780631337b7d11461020757806315770f9214610234575b600080fd5b3480156101de57600080fd5b50610105546101f290610100900460ff1681565b60405190151581526020015b60405180910390f35b34801561021357600080fd5b50610227610222366004611d11565b610629565b6040516101fe9190611d2c565b34801561024057600080fd5b5061024b6101045481565b6040519081526020016101fe565b34801561026557600080fd5b5061028f610274366004611d11565b60fc602052600090815260409020546001600160a01b031681565b6040516001600160a01b0390911681526020016101fe565b3480156102b357600080fd5b506102c76102c2366004611d87565b6106d4565b005b3480156102d557600080fd5b506102c76102e4366004611db0565b6107bc565b3480156102f557600080fd5b506102c76107e0565b34801561030a57600080fd5b506102c7610319366004611d11565b6107f2565b6102c761032c366004611e59565b6107fb565b34801561033d57600080fd5b5061024b6108cb565b34801561035257600080fd5b5060c95460ff166101f2565b34801561036a57600080fd5b506102c7610379366004611ebb565b61097e565b34801561038a57600080fd5b506102c76109d3565b34801561039f57600080fd5b506103b36103ae366004611d11565b6109e5565b6040516101fe9190611f51565b3480156103cc57600080fd5b506102c76103db366004611db0565b610a7f565b3480156103ec57600080fd5b506102c7610aaa565b34801561040157600080fd5b506102c7610bca565b34801561041657600080fd5b506101f2610425366004611f84565b61010160209081526000928352604080842090915290825290205460ff1681565b34801561045257600080fd5b506097546001600160a01b031661028f565b34801561047057600080fd5b5061024b61047f366004611f84565b60fe60209081526000928352604080842090915290825290205481565b3480156104a857600080fd5b50610105546101f29060ff1681565b3480156104c357600080fd5b506102c76104d2366004611fb7565b610bda565b3480156104e357600080fd5b5061024b6104f2366004611d87565b6101006020526000908152604090205481565b34801561051157600080fd5b5061024b610520366004611d11565b60ff6020526000908152604090205481565b34801561053e57600080fd5b5061024b61054d366004611f84565b61010360209081526000928352604080842090915290825290205481565b34801561057757600080fd5b506101f2610586366004611d87565b6101026020526000908152604090205460ff1681565b3480156105a857600080fd5b506102c76105b7366004611fb7565b610be4565b3480156105c857600080fd5b506105dc6105d7366004611ff9565b610bee565b6040516101fe9190612023565b3480156105f557600080fd5b506102c7610604366004611d87565b610ce4565b34801561061557600080fd5b5061028f610624366004612064565b610d5a565b606060008260ff1667ffffffffffffffff81111561064957610649611dcd565b604051908082528060200260200182016040528015610672578160200160208202803683370190505b50905060005b8360ff168160ff1610156106cd5760ff818116600081815260209290925260409091205483519091849181106106b0576106b061207d565b6020908102919091010152806106c5816120a9565b915050610678565b5092915050565b6001600160a01b037f00000000000000000000000000000000000000000000000000000000000000001630036107255760405162461bcd60e51b815260040161071c906120c8565b60405180910390fd5b7f00000000000000000000000000000000000000000000000000000000000000006001600160a01b031661076e6000805160206124f6833981519152546001600160a01b031690565b6001600160a01b0316146107945760405162461bcd60e51b815260040161071c90612114565b61079d81610d84565b604080516000808252602082019092526107b991839190610d8c565b50565b6107c4610efc565b6107cc610f56565b610105805460ff1916911515919091179055565b6107e8610efc565b6107f0610f9c565b565b6107b981610fee565b6001600160a01b037f00000000000000000000000000000000000000000000000000000000000000001630036108435760405162461bcd60e51b815260040161071c906120c8565b7f00000000000000000000000000000000000000000000000000000000000000006001600160a01b031661088c6000805160206124f6833981519152546001600160a01b031690565b6001600160a01b0316146108b25760405162461bcd60e51b815260040161071c90612114565b6108bb82610d84565b6108c782826001610d8c565b5050565b6000306001600160a01b037f0000000000000000000000000000000000000000000000000000000000000000161461096b5760405162461bcd60e51b815260206004820152603860248201527f555550535570677261646561626c653a206d757374206e6f742062652063616c60448201527f6c6564207468726f7567682064656c656761746563616c6c0000000000000000606482015260840161071c565b506000805160206124f683398151915290565b610986610f56565b61098e610efc565b60ff8316600090815260fc6020908152604080832080546001600160a01b0319166001600160a01b03861617905560fd90915290206109cd83826121e8565b50505050565b6109db610efc565b6107f060006112ee565b60fd60205260009081526040902080546109fe90612160565b80601f0160208091040260200160405190810160405280929190818152602001828054610a2a90612160565b8015610a775780601f10610a4c57610100808354040283529160200191610a77565b820191906000526020600020905b815481529060010190602001808311610a5a57829003601f168201915b505050505081565b610a87610efc565b610a8f610f56565b61010580549115156101000261ff0019909216919091179055565b600054610100900460ff1615808015610aca5750600054600160ff909116105b80610ae45750303b158015610ae4575060005460ff166001145b610b475760405162461bcd60e51b815260206004820152602e60248201527f496e697469616c697a61626c653a20636f6e747261637420697320616c72656160448201526d191e481a5b9a5d1a585b1a5e995960921b606482015260840161071c565b6000805460ff191660011790558015610b6a576000805461ff0019166101001790555b610b72611340565b610b7a611367565b610b82611396565b80156107b9576000805461ff0019169055604051600181527f7f26b83ff96e1f2b6a682f133852f6798a09c465da95921460cefb38474024989060200160405180910390a150565b610bd2610efc565b6107f06113c5565b6108c78282611402565b6108c78282611734565b60fb5460609060009067ffffffffffffffff811115610c0f57610c0f611dcd565b604051908082528060200260200182016040528015610c38578160200160208202803683370190505b509050835b8367ffffffffffffffff168167ffffffffffffffff161015610cda5760fb8167ffffffffffffffff1681548110610c7657610c7661207d565b9060005260206000200160009054906101000a90046001600160a01b0316828267ffffffffffffffff1681518110610cb057610cb061207d565b6001600160a01b039092166020928302919091019091015280610cd2816122a8565b915050610c3d565b5090505b92915050565b610cec610efc565b6001600160a01b038116610d515760405162461bcd60e51b815260206004820152602660248201527f4f776e61626c653a206e6577206f776e657220697320746865207a65726f206160448201526564647265737360d01b606482015260840161071c565b6107b9816112ee565b60fb8181548110610d6a57600080fd5b6000918252602090912001546001600160a01b0316905081565b6107b9610efc565b7f4910fdfa16fed3260ed0e7147f7cc6da11a60208b5b9406d12a635614ffd91435460ff1615610dc457610dbf83611a1a565b505050565b826001600160a01b03166352d1902d6040518163ffffffff1660e01b8152600401602060405180830381865afa925050508015610e1e575060408051601f3d908101601f19168201909252610e1b918101906122cf565b60015b610e815760405162461bcd60e51b815260206004820152602e60248201527f45524331393637557067726164653a206e657720696d706c656d656e7461746960448201526d6f6e206973206e6f74205555505360901b606482015260840161071c565b6000805160206124f68339815191528114610ef05760405162461bcd60e51b815260206004820152602960248201527f45524331393637557067726164653a20756e737570706f727465642070726f786044820152681a58589b195555525160ba1b606482015260840161071c565b50610dbf838383611ab6565b6097546001600160a01b031633146107f05760405162461bcd60e51b815260206004820181905260248201527f4f776e61626c653a2063616c6c6572206973206e6f7420746865206f776e6572604482015260640161071c565b60c95460ff16156107f05760405162461bcd60e51b815260206004820152601060248201526f14185d5cd8589b194e881c185d5cd95960821b604482015260640161071c565b610fa4611adb565b60c9805460ff191690557f5db9ee0a495bf2e6ff9c91a7834c1ba4fdd244a5e8aa4e537bd38aeae4b073aa335b6040516001600160a01b03909116815260200160405180910390a1565b610ff6610f56565b33600090815260fe6020908152604080832060ff85168452909152902054806110565760405162461bcd60e51b81526020600482015260126024820152710416d6f756e742063616e6e6f7420626520360741b604482015260640161071c565b61010554610100900460ff1661107e5760405162461bcd60e51b815260040161071c906122e8565b6101055460ff166110c25760405162461bcd60e51b815260206004820152600e60248201526d32b837b1b4103737ba1037bb32b960911b604482015260640161071c565b3360009081526101016020908152604080832060ff8087168552925290912054166111235760405162461bcd60e51b81526020600482015260116024820152701d5b9cdd185ad9480e0c0948199a5c9cdd607a1b604482015260640161071c565b33600090815260fe6020908152604080832060ff8616845290915281208054839290611150908490612361565b9091555050336000908152610100602052604081208054839290611175908490612361565b909155505060ff828116600090815260209190915260408120805483929061119e908490612361565b925050819055508061010460008282546111b89190612361565b90915550503360009081526101036020908152604080832060ff8616845290915281208054600192906111ec908490612361565b909155505060ff8216600090815260fc60205260409081902054905163a9059cbb60e01b8152336004820152602481018390526001600160a01b039091169063a9059cbb906044016020604051808303816000875af1158015611253573d6000803e3d6000fd5b505050506040513d601f19601f820116820180604052508101906112779190612374565b5060ff8216600081815260fd602090815260408083203380855260fe845282852095855294835281842054858552610100909352928190205490517fc7ea5e3777ad7f007fcea44d9abcefdfbad15485549259aa3d52eca313e5634e946112e2949390928792612391565b60405180910390a15050565b609780546001600160a01b038381166001600160a01b0319831681179093556040519116919082907f8be0079c531659141344cd1fd0a4f28419497f9722a3daafe3b4186f6b6457e090600090a35050565b600054610100900460ff166107f05760405162461bcd60e51b815260040161071c90612442565b600054610100900460ff1661138e5760405162461bcd60e51b815260040161071c90612442565b6107f0611b24565b600054610100900460ff166113bd5760405162461bcd60e51b815260040161071c90612442565b6107f0611b54565b6113cd610f56565b60c9805460ff191660011790557f62e78cea01bee320cd4e420270b5ea74000d11b0c9f74754ebdbfc544b05a258610fd13390565b61140a610f56565b33600090815260fe6020908152604080832060ff86168452909152902054606461143582605061248d565b61143f91906124a4565b8211156114aa5760405162461bcd60e51b815260206004820152603360248201527f547265617375727920506f6f6c3a20416d6f756e74206973205a65726f206f726044820152722047726561746572207468616e205374616b6560681b606482015260840161071c565b600082116114ef5760405162461bcd60e51b81526020600482015260126024820152710416d6f756e742063616e6e6f7420626520360741b604482015260640161071c565b61010554610100900460ff166115175760405162461bcd60e51b815260040161071c906122e8565b3360009081526101016020908152604080832060ff8088168552925290912054161561157b5760405162461bcd60e51b815260206004820152601360248201527203ab739ba30b5b290333ab636103630ba32b91606d1b604482015260640161071c565b3360008181526101016020908152604080832060ff8816808552908352818420805460ff1916600117905593835260fe825280832093835292905290812080548492906115c9908490612361565b90915550503360009081526101006020526040812080548492906115ee908490612361565b909155505060ff8381166000908152602091909152604081208054849290611617908490612361565b925050819055508161010460008282546116319190612361565b909155505060ff8316600090815260fc60205260409081902054905163a9059cbb60e01b8152336004820152602481018490526001600160a01b039091169063a9059cbb906044016020604051808303816000875af1158015611698573d6000803e3d6000fd5b505050506040513d601f19601f820116820180604052508101906116bc9190612374565b5060ff8316600081815260fd602090815260408083203380855260fe845282852095855294835281842054858552610100909352928190205490517fc7ea5e3777ad7f007fcea44d9abcefdfbad15485549259aa3d52eca313e5634e94611727949390928892612391565b60405180910390a1505050565b61173c610f56565b600081116117985760405162461bcd60e51b8152602060048201526024808201527f547265617375727920506f6f6c3a20416d6f756e742063616e6e6f74206265206044820152635a65726f60e01b606482015260840161071c565b33600090815260fe6020908152604080832060ff8616845290915281205490036117f1573360009081526101036020908152604080832060ff8616845290915281208054600192906117eb9084906124c6565b90915550505b60ff8216600090815260fc6020526040908190205490516323b872dd60e01b8152336004820152306024820152604481018390526001600160a01b03909116906323b872dd906064016020604051808303816000875af1158015611859573d6000803e3d6000fd5b505050506040513d601f19601f8201168201806040525081019061187d9190612374565b5033600090815260fe6020908152604080832060ff86168452909152812080548392906118ab9084906124c6565b90915550503360009081526101006020526040812080548392906118d09084906124c6565b90915550503360009081526101016020908152604080832060ff861684529091528120805460ff19169055610104805483929061190e9084906124c6565b909155505060ff82811660009081526020919091526040812080548392906119379084906124c6565b9091555050336000908152610102602052604090205460ff166119b05760fb805460018181019092557f3e7257b7272bb46d49cd6019b04ddee20da7c0cb13f7c1ec3391291b2ccebabc0180546001600160a01b03191633908117909155600090815261010260205260409020805460ff191690911790555b60ff8216600081815260fd602090815260408083203380855260fe845282852095855294835281842054858552610100909352928190205490517f64ac4149bfd65160b5370eeb47269cf7792c3d36e2b8683ac9768c45b31c6eca946112e2949390928792612391565b6001600160a01b0381163b611a875760405162461bcd60e51b815260206004820152602d60248201527f455243313936373a206e657720696d706c656d656e746174696f6e206973206e60448201526c1bdd08184818dbdb9d1c9858dd609a1b606482015260840161071c565b6000805160206124f683398151915280546001600160a01b0319166001600160a01b0392909216919091179055565b611abf83611b87565b600082511180611acc5750805b15610dbf576109cd8383611bc7565b60c95460ff166107f05760405162461bcd60e51b815260206004820152601460248201527314185d5cd8589b194e881b9bdd081c185d5cd95960621b604482015260640161071c565b600054610100900460ff16611b4b5760405162461bcd60e51b815260040161071c90612442565b6107f0336112ee565b600054610100900460ff16611b7b5760405162461bcd60e51b815260040161071c90612442565b60c9805460ff19169055565b611b9081611a1a565b6040516001600160a01b038216907fbc7cd75a20ee27fd9adebab32041f755214dbc6bffa90cc0225b39da2e5c2d3b90600090a250565b60606001600160a01b0383163b611c2f5760405162461bcd60e51b815260206004820152602660248201527f416464726573733a2064656c65676174652063616c6c20746f206e6f6e2d636f6044820152651b9d1c9858dd60d21b606482015260840161071c565b600080846001600160a01b031684604051611c4a91906124d9565b600060405180830381855af49150503d8060008114611c85576040519150601f19603f3d011682016040523d82523d6000602084013e611c8a565b606091505b5091509150611cb2828260405180606001604052806027815260200161251660279139611cbb565b95945050505050565b60608315611cca575081611cf4565b825115611cda5782518084602001fd5b8160405162461bcd60e51b815260040161071c9190611f51565b9392505050565b803560ff81168114611d0c57600080fd5b919050565b600060208284031215611d2357600080fd5b611cf482611cfb565b6020808252825182820181905260009190848201906040850190845b81811015611d6457835183529284019291840191600101611d48565b50909695505050505050565b80356001600160a01b0381168114611d0c57600080fd5b600060208284031215611d9957600080fd5b611cf482611d70565b80151581146107b957600080fd5b600060208284031215611dc257600080fd5b8135611cf481611da2565b634e487b7160e01b600052604160045260246000fd5b600067ffffffffffffffff80841115611dfe57611dfe611dcd565b604051601f8501601f19908116603f01168101908282118183101715611e2657611e26611dcd565b81604052809350858152868686011115611e3f57600080fd5b858560208301376000602087830101525050509392505050565b60008060408385031215611e6c57600080fd5b611e7583611d70565b9150602083013567ffffffffffffffff811115611e9157600080fd5b8301601f81018513611ea257600080fd5b611eb185823560208401611de3565b9150509250929050565b600080600060608486031215611ed057600080fd5b611ed984611cfb565b9250602084013567ffffffffffffffff811115611ef557600080fd5b8401601f81018613611f0657600080fd5b611f1586823560208401611de3565b925050611f2460408501611d70565b90509250925092565b60005b83811015611f48578181015183820152602001611f30565b50506000910152565b6020815260008251806020840152611f70816040850160208701611f2d565b601f01601f19169190910160400192915050565b60008060408385031215611f9757600080fd5b611fa083611d70565b9150611fae60208401611cfb565b90509250929050565b60008060408385031215611fca57600080fd5b611fd383611cfb565b946020939093013593505050565b803567ffffffffffffffff81168114611d0c57600080fd5b6000806040838503121561200c57600080fd5b61201583611fe1565b9150611fae60208401611fe1565b6020808252825182820181905260009190848201906040850190845b81811015611d645783516001600160a01b03168352928401929184019160010161203f565b60006020828403121561207657600080fd5b5035919050565b634e487b7160e01b600052603260045260246000fd5b634e487b7160e01b600052601160045260246000fd5b600060ff821660ff81036120bf576120bf612093565b60010192915050565b6020808252602c908201527f46756e6374696f6e206d7573742062652063616c6c6564207468726f7567682060408201526b19195b1959d85d1958d85b1b60a21b606082015260800190565b6020808252602c908201527f46756e6374696f6e206d7573742062652063616c6c6564207468726f7567682060408201526b6163746976652070726f787960a01b606082015260800190565b600181811c9082168061217457607f821691505b60208210810361219457634e487b7160e01b600052602260045260246000fd5b50919050565b601f821115610dbf57600081815260208120601f850160051c810160208610156121c15750805b601f850160051c820191505b818110156121e0578281556001016121cd565b505050505050565b815167ffffffffffffffff81111561220257612202611dcd565b612216816122108454612160565b8461219a565b602080601f83116001811461224b57600084156122335750858301515b600019600386901b1c1916600185901b1785556121e0565b600085815260208120601f198616915b8281101561227a5788860151825594840194600190910190840161225b565b50858210156122985787850151600019600388901b60f8161c191681555b5050505050600190811b01905550565b600067ffffffffffffffff8083168181036122c5576122c5612093565b6001019392505050565b6000602082840312156122e157600080fd5b5051919050565b60208082526053908201527f416c6c2066756e647320696e20506f6f6c206172652063757272656e746c792060408201527f6261636b696e6720616c6c20494e52432c20756e7374616b652077696c6c20626060820152726520617661696c61626c652073686f72746c7960681b608082015260a00190565b81810381811115610cde57610cde612093565b60006020828403121561238657600080fd5b8151611cf481611da2565b60a0815260008087546123a381612160565b8060a086015260c06001808416600081146123c557600181146123df57612410565b60ff1985168884015283151560051b880183019550612410565b8c60005260208060002060005b868110156124075781548b82018701529084019082016123ec565b8a018501975050505b505050506001600160a01b03881660208501525090508460408301528360608301528260808301529695505050505050565b6020808252602b908201527f496e697469616c697a61626c653a20636f6e7472616374206973206e6f74206960408201526a6e697469616c697a696e6760a81b606082015260800190565b8082028115828204841417610cde57610cde612093565b6000826124c157634e487b7160e01b600052601260045260246000fd5b500490565b80820180821115610cde57610cde612093565b600082516124eb818460208701611f2d565b919091019291505056fe360894a13ba1a3210667c828492db98dca3e2076cc3735a920a3ca505d382bbc416464726573733a206c6f772d6c6576656c2064656c65676174652063616c6c206661696c6564a26469706673582212203f41708386fb12a9455738de66ab7cd1e99903d9066d0b363b37c78c65cab36d64736f6c63430008110033",
    "sourcePath": "/workspaces/ChaiDex-Contracts-1/contracts/LiquidityPool.sol",
    "compiler": {
        "name": "solc",
        "version": "0.8.17+commit.8df45f5f"
    },
    "functionHashes": {
        "GetStakers(uint64,uint64)": "e76438e1",
        "LPbalanceUSD(uint8)": "cb14146d",
        "OldStaker(address)": "d9575d47",
        "StakerLiquidity(address)": "bf7b589e",
        "USDStable(uint8)": "2c70411b",
        "epochover()": "b2ffd653",
        "getLPbalance(uint8)": "1337b7d1",
        "initialize()": "8129fc1c",
        "liquidityPool(address,uint8)": "911db77b",
        "liquidityPoolStakes(address,uint8)": "d2843089",
        "names(uint8)": "7257a493",
        "owner()": "8da5cb5b",
        "pause()": "8456cb59",
        "paused()": "5c975abb",
        "proxiableUUID()": "52d1902d",
        "renounceOwnership()": "715018a6",
        "setEpoch(bool)": "3a15c9cc",
        "setUSDAddress(uint8,string,address)": "6a3cbc4a",
        "setUnstake(bool)": "7d7e649a",
        "stake(uint8,uint256)": "dd752e55",
        "stakers(uint256)": "fd5e6dd1",
        "totalLiquidity()": "15770f92",
        "transferOwnership(address)": "f2fde38b",
        "unpause()": "3f4ba83a",
        "unstakable()": "058aa5cb",
        "unstake(uint8,uint256)": "b4545b9e",
        "unstakeAll(uint8)": "4abb8314",
        "unstakedMax(address,uint8)": "846ac6b3",
        "upgradeTo(address)": "3659cfe6",
        "upgradeToAndCall(address,bytes)": "4f1ef286"
    },
    "gasEstimates": {
        "creation": {
            "codeDepositCost": "1917200",
            "executionCost": "infinite",
            "totalCost": "infinite"
        },
        "external": {
            "GetStakers(uint64,uint64)": "infinite",
            "LPbalanceUSD(uint8)": "2574",
            "OldStaker(address)": "2631",
            "StakerLiquidity(address)": "2564",
            "USDStable(uint8)": "2592",
            "epochover()": "2388",
            "getLPbalance(uint8)": "infinite",
            "initialize()": "infinite",
            "liquidityPool(address,uint8)": "infinite",
            "liquidityPoolStakes(address,uint8)": "infinite",
            "names(uint8)": "infinite",
            "owner()": "2376",
            "pause()": "infinite",
            "paused()": "2405",
            "proxiableUUID()": "infinite",
            "renounceOwnership()": "infinite",
            "setEpoch(bool)": "infinite",
            "setUSDAddress(uint8,string,address)": "infinite",
            "setUnstake(bool)": "infinite",
            "stake(uint8,uint256)": "infinite",
            "stakers(uint256)": "4724",
            "totalLiquidity()": "2386",
            "transferOwnership(address)": "28424",
            "unpause()": "infinite",
            "unstakable()": "2357",
            "unstake(uint8,uint256)": "infinite",
            "unstakeAll(uint8)": "infinite",
            "unstakedMax(address,uint8)": "infinite",
            "upgradeTo(address)": "infinite",
            "upgradeToAndCall(address,bytes)": "infinite"
        },
        "internal": {
            "_authorizeUpgrade(address)": "infinite",
            "_stake(uint8,uint256)": "infinite",
            "_unStake(uint8,uint256)": "infinite",
            "_unstakeAll(uint8)": "infinite"
        }
    }
}