{
  "_format": "hh-sol-artifact-1",
  "contractName": "Apy",
  "sourceName": "contracts/apy.sol",
  "abi": [
    {
      "inputs": [
        {
          "internalType": "address",
          "name": "_CHT",
          "type": "address"
        },
        {
          "internalType": "address",
          "name": "_MP",
          "type": "address"
        },
        {
          "internalType": "address",
          "name": "_RP",
          "type": "address"
        }
      ],
      "stateMutability": "nonpayable",
      "type": "constructor"
    },
    {
      "anonymous": false,
      "inputs": [
        {
          "indexed": false,
          "internalType": "uint256",
          "name": "id",
          "type": "uint256"
        },
        {
          "indexed": false,
          "internalType": "address",
          "name": "payee",
          "type": "address"
        },
        {
          "indexed": false,
          "internalType": "uint256",
          "name": "amount",
          "type": "uint256"
        }
      ],
      "name": "FeePaid",
      "type": "event"
    },
    {
      "anonymous": false,
      "inputs": [
        {
          "indexed": true,
          "internalType": "address",
          "name": "previousOwner",
          "type": "address"
        },
        {
          "indexed": true,
          "internalType": "address",
          "name": "newOwner",
          "type": "address"
        }
      ],
      "name": "OwnershipTransferred",
      "type": "event"
    },
    {
      "inputs": [],
      "name": "CHT",
      "outputs": [
        {
          "internalType": "address",
          "name": "",
          "type": "address"
        }
      ],
      "stateMutability": "view",
      "type": "function"
    },
    {
      "inputs": [],
      "name": "MP",
      "outputs": [
        {
          "internalType": "address",
          "name": "",
          "type": "address"
        }
      ],
      "stateMutability": "view",
      "type": "function"
    },
    {
      "inputs": [],
      "name": "RP",
      "outputs": [
        {
          "internalType": "address",
          "name": "",
          "type": "address"
        }
      ],
      "stateMutability": "view",
      "type": "function"
    },
    {
      "inputs": [],
      "name": "amount1",
      "outputs": [
        {
          "internalType": "uint256",
          "name": "",
          "type": "uint256"
        }
      ],
      "stateMutability": "view",
      "type": "function"
    },
    {
      "inputs": [],
      "name": "amount2",
      "outputs": [
        {
          "internalType": "uint256",
          "name": "",
          "type": "uint256"
        }
      ],
      "stateMutability": "view",
      "type": "function"
    },
    {
      "inputs": [
        {
          "internalType": "uint256",
          "name": "_amount",
          "type": "uint256"
        },
        {
          "internalType": "uint256",
          "name": "_ID",
          "type": "uint256"
        }
      ],
      "name": "fees",
      "outputs": [],
      "stateMutability": "nonpayable",
      "type": "function"
    },
    {
      "inputs": [],
      "name": "owner",
      "outputs": [
        {
          "internalType": "address",
          "name": "",
          "type": "address"
        }
      ],
      "stateMutability": "view",
      "type": "function"
    },
    {
      "inputs": [],
      "name": "renounceOwnership",
      "outputs": [],
      "stateMutability": "nonpayable",
      "type": "function"
    },
    {
      "inputs": [
        {
          "internalType": "address",
          "name": "_CHT",
          "type": "address"
        }
      ],
      "name": "setAddress",
      "outputs": [],
      "stateMutability": "nonpayable",
      "type": "function"
    },
    {
      "inputs": [
        {
          "internalType": "address",
          "name": "newOwner",
          "type": "address"
        }
      ],
      "name": "transferOwnership",
      "outputs": [],
      "stateMutability": "nonpayable",
      "type": "function"
    }
  ],
  "bytecode": "0x60806040523480156200001157600080fd5b5060405162001015380380620010158339818101604052810190620000379190620002cc565b620000576200004b6200019360201b60201c565b6200019b60201b60201c565b6200007367cf842dab1b580a8260c01b6200025f60201b60201c565b6200008f6743be6aa9ede8f11860c01b6200025f60201b60201c565b82600160006101000a81548173ffffffffffffffffffffffffffffffffffffffff021916908373ffffffffffffffffffffffffffffffffffffffff160217905550620000ec679cb074e6fd411f3760c01b6200025f60201b60201c565b80600360006101000a81548173ffffffffffffffffffffffffffffffffffffffff021916908373ffffffffffffffffffffffffffffffffffffffff16021790555062000149673c842f9f45a3601360c01b6200025f60201b60201c565b81600260006101000a81548173ffffffffffffffffffffffffffffffffffffffff021916908373ffffffffffffffffffffffffffffffffffffffff16021790555050505062000328565b600033905090565b60008060009054906101000a900473ffffffffffffffffffffffffffffffffffffffff169050816000806101000a81548173ffffffffffffffffffffffffffffffffffffffff021916908373ffffffffffffffffffffffffffffffffffffffff1602179055508173ffffffffffffffffffffffffffffffffffffffff168173ffffffffffffffffffffffffffffffffffffffff167f8be0079c531659141344cd1fd0a4f28419497f9722a3daafe3b4186f6b6457e060405160405180910390a35050565b50565b600080fd5b600073ffffffffffffffffffffffffffffffffffffffff82169050919050565b6000620002948262000267565b9050919050565b620002a68162000287565b8114620002b257600080fd5b50565b600081519050620002c6816200029b565b92915050565b600080600060608486031215620002e857620002e762000262565b5b6000620002f886828701620002b5565b93505060206200030b86828701620002b5565b92505060406200031e86828701620002b5565b9150509250925092565b610cdd80620003386000396000f3fe608060405234801561001057600080fd5b506004361061009e5760003560e01c80638da5cb5b116100665780638da5cb5b14610123578063b82b59b414610141578063e30081a01461015f578063f2fde38b1461017b578063f400fde4146101975761009e565b806303c8ed3b146100a3578063057bfcc7146100c157806356d7b035146100df5780636308f1cd146100fd578063715018a614610119575b600080fd5b6100ab6101b5565b6040516100b8919061086f565b60405180910390f35b6100c96101db565b6040516100d691906108a3565b60405180910390f35b6100e76101e1565b6040516100f4919061086f565b60405180910390f35b610117600480360381019061011291906108ef565b610207565b005b610121610559565b005b61012b61056d565b604051610138919061086f565b60405180910390f35b610149610596565b604051610156919061086f565b60405180910390f35b6101796004803603810190610174919061095b565b6105bc565b005b6101956004803603810190610190919061095b565b610658565b005b61019f6106db565b6040516101ac91906108a3565b60405180910390f35b600360009054906101000a900473ffffffffffffffffffffffffffffffffffffffff1681565b60055481565b600260009054906101000a900473ffffffffffffffffffffffffffffffffffffffff1681565b61021b67f0cadfdeb77f66b760c01b6106e1565b61022f678d647f1e96157b1460c01b6106e1565b610243677a945dd0d6f7d69e60c01b6106e1565b61025767d15346af13b79e2260c01b6106e1565b6000821161029a576040517f08c379a0000000000000000000000000000000000000000000000000000000008152600401610291906109e5565b60405180910390fd5b6102ae67eec8b89fa856e61060c01b6106e1565b6102c267dc5895bb85bf29eb60c01b6106e1565b60648260506102d19190610a34565b6102db9190610aa5565b6004819055506102f567cf1302f6341b008560c01b6106e1565b60648260146103049190610a34565b61030e9190610aa5565b6005819055506103286767369988ec17e34260c01b6106e1565b61033c674543a5f6d22d89ce60c01b6106e1565b600160009054906101000a900473ffffffffffffffffffffffffffffffffffffffff1673ffffffffffffffffffffffffffffffffffffffff166323b872dd33600360009054906101000a900473ffffffffffffffffffffffffffffffffffffffff166004546040518463ffffffff1660e01b81526004016103bf93929190610ad6565b6020604051808303816000875af11580156103de573d6000803e3d6000fd5b505050506040513d601f19601f820116820180604052508101906104029190610b45565b50610417676cde9111810c9c4f60c01b6106e1565b61042b675307ef11f4676db660c01b6106e1565b600160009054906101000a900473ffffffffffffffffffffffffffffffffffffffff1673ffffffffffffffffffffffffffffffffffffffff166323b872dd33600260009054906101000a900473ffffffffffffffffffffffffffffffffffffffff166005546040518463ffffffff1660e01b81526004016104ae93929190610ad6565b6020604051808303816000875af11580156104cd573d6000803e3d6000fd5b505050506040513d601f19601f820116820180604052508101906104f19190610b45565b5061050667eedfacdd4c2193ad60c01b6106e1565b61051a677f6c67e579f3cfa460c01b6106e1565b7f6fe296e805108cd514fea415210be4016149b01eeb08effbe130951b6a5f6c0b81338460405161054d93929190610b72565b60405180910390a15050565b6105616106e4565b61056b6000610762565b565b60008060009054906101000a900473ffffffffffffffffffffffffffffffffffffffff16905090565b600160009054906101000a900473ffffffffffffffffffffffffffffffffffffffff1681565b6105d067665453ca94463fa660c01b6106e1565b6105d86106e4565b6105ec6740ecf78ec5be2d4960c01b6106e1565b610600674809f9e030f0929760c01b6106e1565b6106146771939bb8603ca60660c01b6106e1565b80600160006101000a81548173ffffffffffffffffffffffffffffffffffffffff021916908373ffffffffffffffffffffffffffffffffffffffff16021790555050565b6106606106e4565b600073ffffffffffffffffffffffffffffffffffffffff168173ffffffffffffffffffffffffffffffffffffffff16036106cf576040517f08c379a00000000000000000000000000000000000000000000000000000000081526004016106c690610c1b565b60405180910390fd5b6106d881610762565b50565b60045481565b50565b6106ec610826565b73ffffffffffffffffffffffffffffffffffffffff1661070a61056d565b73ffffffffffffffffffffffffffffffffffffffff1614610760576040517f08c379a000000000000000000000000000000000000000000000000000000000815260040161075790610c87565b60405180910390fd5b565b60008060009054906101000a900473ffffffffffffffffffffffffffffffffffffffff169050816000806101000a81548173ffffffffffffffffffffffffffffffffffffffff021916908373ffffffffffffffffffffffffffffffffffffffff1602179055508173ffffffffffffffffffffffffffffffffffffffff168173ffffffffffffffffffffffffffffffffffffffff167f8be0079c531659141344cd1fd0a4f28419497f9722a3daafe3b4186f6b6457e060405160405180910390a35050565b600033905090565b600073ffffffffffffffffffffffffffffffffffffffff82169050919050565b60006108598261082e565b9050919050565b6108698161084e565b82525050565b60006020820190506108846000830184610860565b92915050565b6000819050919050565b61089d8161088a565b82525050565b60006020820190506108b86000830184610894565b92915050565b600080fd5b6108cc8161088a565b81146108d757600080fd5b50565b6000813590506108e9816108c3565b92915050565b60008060408385031215610906576109056108be565b5b6000610914858286016108da565b9250506020610925858286016108da565b9150509250929050565b6109388161084e565b811461094357600080fd5b50565b6000813590506109558161092f565b92915050565b600060208284031215610971576109706108be565b5b600061097f84828501610946565b91505092915050565b600082825260208201905092915050565b7f616d6f756e742063616e6e6f7420626520300000000000000000000000000000600082015250565b60006109cf601283610988565b91506109da82610999565b602082019050919050565b600060208201905081810360008301526109fe816109c2565b9050919050565b7f4e487b7100000000000000000000000000000000000000000000000000000000600052601160045260246000fd5b6000610a3f8261088a565b9150610a4a8361088a565b9250828202610a588161088a565b91508282048414831517610a6f57610a6e610a05565b5b5092915050565b7f4e487b7100000000000000000000000000000000000000000000000000000000600052601260045260246000fd5b6000610ab08261088a565b9150610abb8361088a565b925082610acb57610aca610a76565b5b828204905092915050565b6000606082019050610aeb6000830186610860565b610af86020830185610860565b610b056040830184610894565b949350505050565b60008115159050919050565b610b2281610b0d565b8114610b2d57600080fd5b50565b600081519050610b3f81610b19565b92915050565b600060208284031215610b5b57610b5a6108be565b5b6000610b6984828501610b30565b91505092915050565b6000606082019050610b876000830186610894565b610b946020830185610860565b610ba16040830184610894565b949350505050565b7f4f776e61626c653a206e6577206f776e657220697320746865207a65726f206160008201527f6464726573730000000000000000000000000000000000000000000000000000602082015250565b6000610c05602683610988565b9150610c1082610ba9565b604082019050919050565b60006020820190508181036000830152610c3481610bf8565b9050919050565b7f4f776e61626c653a2063616c6c6572206973206e6f7420746865206f776e6572600082015250565b6000610c71602083610988565b9150610c7c82610c3b565b602082019050919050565b60006020820190508181036000830152610ca081610c64565b905091905056fea2646970667358221220db36b05900fd1fb8faca1e1bf69b8cc969fbc56a08658b3cf5b1bddc7c5ab0fb64736f6c63430008110033",
  "linkReferences": {},
  "deployedLinkReferences": {}
}