{
  "_format": "hh-sol-artifact-1",
  "contractName": "Apy",
  "sourceName": "contracts/apy.sol",
  "abi": [
    {
      "inputs": [
        {
          "internalType": "address",
          "name": "_CHT",
          "type": "address"
        },
        {
          "internalType": "address",
          "name": "_MP",
          "type": "address"
        },
        {
          "internalType": "address",
          "name": "_RP",
          "type": "address"
        }
      ],
      "stateMutability": "nonpayable",
      "type": "constructor"
    },
    {
      "anonymous": false,
      "inputs": [
        {
          "indexed": true,
          "internalType": "address",
          "name": "previousOwner",
          "type": "address"
        },
        {
          "indexed": true,
          "internalType": "address",
          "name": "newOwner",
          "type": "address"
        }
      ],
      "name": "OwnershipTransferred",
      "type": "event"
    },
    {
      "inputs": [],
      "name": "CHT",
      "outputs": [
        {
          "internalType": "address",
          "name": "",
          "type": "address"
        }
      ],
      "stateMutability": "view",
      "type": "function"
    },
    {
      "inputs": [],
      "name": "MP",
      "outputs": [
        {
          "internalType": "address",
          "name": "",
          "type": "address"
        }
      ],
      "stateMutability": "view",
      "type": "function"
    },
    {
      "inputs": [],
      "name": "RP",
      "outputs": [
        {
          "internalType": "address",
          "name": "",
          "type": "address"
        }
      ],
      "stateMutability": "view",
      "type": "function"
    },
    {
      "inputs": [],
      "name": "amount1",
      "outputs": [
        {
          "internalType": "uint256",
          "name": "",
          "type": "uint256"
        }
      ],
      "stateMutability": "view",
      "type": "function"
    },
    {
      "inputs": [],
      "name": "amount2",
      "outputs": [
        {
          "internalType": "uint256",
          "name": "",
          "type": "uint256"
        }
      ],
      "stateMutability": "view",
      "type": "function"
    },
    {
      "inputs": [
        {
          "internalType": "uint256",
          "name": "_amount",
          "type": "uint256"
        }
      ],
      "name": "fees",
      "outputs": [],
      "stateMutability": "nonpayable",
      "type": "function"
    },
    {
      "inputs": [],
      "name": "owner",
      "outputs": [
        {
          "internalType": "address",
          "name": "",
          "type": "address"
        }
      ],
      "stateMutability": "view",
      "type": "function"
    },
    {
      "inputs": [],
      "name": "renounceOwnership",
      "outputs": [],
      "stateMutability": "nonpayable",
      "type": "function"
    },
    {
      "inputs": [
        {
          "internalType": "address",
          "name": "_CHT",
          "type": "address"
        }
      ],
      "name": "setAddress",
      "outputs": [],
      "stateMutability": "nonpayable",
      "type": "function"
    },
    {
      "inputs": [
        {
          "internalType": "address",
          "name": "newOwner",
          "type": "address"
        }
      ],
      "name": "transferOwnership",
      "outputs": [],
      "stateMutability": "nonpayable",
      "type": "function"
    }
  ],
  "bytecode": "0x60806040523480156200001157600080fd5b5060405162000dc538038062000dc5833981810160405281019062000037919062000259565b620000576200004b6200012360201b60201c565b6200012b60201b60201c565b82600160006101000a81548173ffffffffffffffffffffffffffffffffffffffff021916908373ffffffffffffffffffffffffffffffffffffffff16021790555080600360006101000a81548173ffffffffffffffffffffffffffffffffffffffff021916908373ffffffffffffffffffffffffffffffffffffffff16021790555081600260006101000a81548173ffffffffffffffffffffffffffffffffffffffff021916908373ffffffffffffffffffffffffffffffffffffffff160217905550505050620002b5565b600033905090565b60008060009054906101000a900473ffffffffffffffffffffffffffffffffffffffff169050816000806101000a81548173ffffffffffffffffffffffffffffffffffffffff021916908373ffffffffffffffffffffffffffffffffffffffff1602179055508173ffffffffffffffffffffffffffffffffffffffff168173ffffffffffffffffffffffffffffffffffffffff167f8be0079c531659141344cd1fd0a4f28419497f9722a3daafe3b4186f6b6457e060405160405180910390a35050565b600080fd5b600073ffffffffffffffffffffffffffffffffffffffff82169050919050565b60006200022182620001f4565b9050919050565b620002338162000214565b81146200023f57600080fd5b50565b600081519050620002538162000228565b92915050565b600080600060608486031215620002755762000274620001ef565b5b6000620002858682870162000242565b9350506020620002988682870162000242565b9250506040620002ab8682870162000242565b9150509250925092565b610b0080620002c56000396000f3fe608060405234801561001057600080fd5b506004361061009e5760003560e01c80638da5cb5b116100665780638da5cb5b14610123578063b82b59b414610141578063e30081a01461015f578063f2fde38b1461017b578063f400fde4146101975761009e565b806303c8ed3b146100a3578063057bfcc7146100c15780634acc79ed146100df57806356d7b035146100fb578063715018a614610119575b600080fd5b6100ab6101b5565b6040516100b891906106dc565b60405180910390f35b6100c96101db565b6040516100d69190610710565b60405180910390f35b6100f960048036038101906100f4919061075c565b6101e1565b005b6101036103f3565b60405161011091906106dc565b60405180910390f35b610121610419565b005b61012b61042d565b60405161013891906106dc565b60405180910390f35b610149610456565b60405161015691906106dc565b60405180910390f35b610179600480360381019061017491906107b5565b61047c565b005b610195600480360381019061019091906107b5565b6104c8565b005b61019f61054b565b6040516101ac9190610710565b60405180910390f35b600360009054906101000a900473ffffffffffffffffffffffffffffffffffffffff1681565b60055481565b60008111610224576040517f08c379a000000000000000000000000000000000000000000000000000000000815260040161021b9061083f565b60405180910390fd5b6064816050610233919061088e565b61023d91906108ff565b6004819055506064816014610252919061088e565b61025c91906108ff565b600581905550600160009054906101000a900473ffffffffffffffffffffffffffffffffffffffff1673ffffffffffffffffffffffffffffffffffffffff166323b872dd33600360009054906101000a900473ffffffffffffffffffffffffffffffffffffffff166004546040518463ffffffff1660e01b81526004016102e593929190610930565b6020604051808303816000875af1158015610304573d6000803e3d6000fd5b505050506040513d601f19601f82011682018060405250810190610328919061099f565b50600160009054906101000a900473ffffffffffffffffffffffffffffffffffffffff1673ffffffffffffffffffffffffffffffffffffffff166323b872dd33600260009054906101000a900473ffffffffffffffffffffffffffffffffffffffff166005546040518463ffffffff1660e01b81526004016103ac93929190610930565b6020604051808303816000875af11580156103cb573d6000803e3d6000fd5b505050506040513d601f19601f820116820180604052508101906103ef919061099f565b5050565b600260009054906101000a900473ffffffffffffffffffffffffffffffffffffffff1681565b610421610551565b61042b60006105cf565b565b60008060009054906101000a900473ffffffffffffffffffffffffffffffffffffffff16905090565b600160009054906101000a900473ffffffffffffffffffffffffffffffffffffffff1681565b610484610551565b80600160006101000a81548173ffffffffffffffffffffffffffffffffffffffff021916908373ffffffffffffffffffffffffffffffffffffffff16021790555050565b6104d0610551565b600073ffffffffffffffffffffffffffffffffffffffff168173ffffffffffffffffffffffffffffffffffffffff160361053f576040517f08c379a000000000000000000000000000000000000000000000000000000000815260040161053690610a3e565b60405180910390fd5b610548816105cf565b50565b60045481565b610559610693565b73ffffffffffffffffffffffffffffffffffffffff1661057761042d565b73ffffffffffffffffffffffffffffffffffffffff16146105cd576040517f08c379a00000000000000000000000000000000000000000000000000000000081526004016105c490610aaa565b60405180910390fd5b565b60008060009054906101000a900473ffffffffffffffffffffffffffffffffffffffff169050816000806101000a81548173ffffffffffffffffffffffffffffffffffffffff021916908373ffffffffffffffffffffffffffffffffffffffff1602179055508173ffffffffffffffffffffffffffffffffffffffff168173ffffffffffffffffffffffffffffffffffffffff167f8be0079c531659141344cd1fd0a4f28419497f9722a3daafe3b4186f6b6457e060405160405180910390a35050565b600033905090565b600073ffffffffffffffffffffffffffffffffffffffff82169050919050565b60006106c68261069b565b9050919050565b6106d6816106bb565b82525050565b60006020820190506106f160008301846106cd565b92915050565b6000819050919050565b61070a816106f7565b82525050565b60006020820190506107256000830184610701565b92915050565b600080fd5b610739816106f7565b811461074457600080fd5b50565b60008135905061075681610730565b92915050565b6000602082840312156107725761077161072b565b5b600061078084828501610747565b91505092915050565b610792816106bb565b811461079d57600080fd5b50565b6000813590506107af81610789565b92915050565b6000602082840312156107cb576107ca61072b565b5b60006107d9848285016107a0565b91505092915050565b600082825260208201905092915050565b7f616d6f756e742063616e6e6f7420626520300000000000000000000000000000600082015250565b60006108296012836107e2565b9150610834826107f3565b602082019050919050565b600060208201905081810360008301526108588161081c565b9050919050565b7f4e487b7100000000000000000000000000000000000000000000000000000000600052601160045260246000fd5b6000610899826106f7565b91506108a4836106f7565b92508282026108b2816106f7565b915082820484148315176108c9576108c861085f565b5b5092915050565b7f4e487b7100000000000000000000000000000000000000000000000000000000600052601260045260246000fd5b600061090a826106f7565b9150610915836106f7565b925082610925576109246108d0565b5b828204905092915050565b600060608201905061094560008301866106cd565b61095260208301856106cd565b61095f6040830184610701565b949350505050565b60008115159050919050565b61097c81610967565b811461098757600080fd5b50565b60008151905061099981610973565b92915050565b6000602082840312156109b5576109b461072b565b5b60006109c38482850161098a565b91505092915050565b7f4f776e61626c653a206e6577206f776e657220697320746865207a65726f206160008201527f6464726573730000000000000000000000000000000000000000000000000000602082015250565b6000610a286026836107e2565b9150610a33826109cc565b604082019050919050565b60006020820190508181036000830152610a5781610a1b565b9050919050565b7f4f776e61626c653a2063616c6c6572206973206e6f7420746865206f776e6572600082015250565b6000610a946020836107e2565b9150610a9f82610a5e565b602082019050919050565b60006020820190508181036000830152610ac381610a87565b905091905056fea2646970667358221220f314dfd063cd30e961364ec4d0f6907a10efbd6aff0668aedc20f7be1fb976f664736f6c63430008110033",
  "linkReferences": {},
  "deployedLinkReferences": {}
}