{
  "_format": "hh-sol-artifact-1",
  "contractName": "Apy",
  "sourceName": "contracts/apy.sol",
  "abi": [
    {
      "inputs": [
        {
          "internalType": "address",
          "name": "_CHT",
          "type": "address"
        },
        {
          "internalType": "address",
          "name": "_MP",
          "type": "address"
        },
        {
          "internalType": "address",
          "name": "_RP",
          "type": "address"
        }
      ],
      "stateMutability": "nonpayable",
      "type": "constructor"
    },
    {
      "anonymous": false,
      "inputs": [
        {
          "indexed": false,
          "internalType": "uint256",
          "name": "id",
          "type": "uint256"
        },
        {
          "indexed": false,
          "internalType": "address",
          "name": "payee",
          "type": "address"
        },
        {
          "indexed": false,
          "internalType": "uint256",
          "name": "amount",
          "type": "uint256"
        }
      ],
      "name": "FeePaid",
      "type": "event"
    },
    {
      "anonymous": false,
      "inputs": [
        {
          "indexed": true,
          "internalType": "address",
          "name": "previousOwner",
          "type": "address"
        },
        {
          "indexed": true,
          "internalType": "address",
          "name": "newOwner",
          "type": "address"
        }
      ],
      "name": "OwnershipTransferred",
      "type": "event"
    },
    {
      "inputs": [],
      "name": "CHT",
      "outputs": [
        {
          "internalType": "address",
          "name": "",
          "type": "address"
        }
      ],
      "stateMutability": "view",
      "type": "function"
    },
    {
      "inputs": [],
      "name": "MP",
      "outputs": [
        {
          "internalType": "address",
          "name": "",
          "type": "address"
        }
      ],
      "stateMutability": "view",
      "type": "function"
    },
    {
      "inputs": [],
      "name": "RP",
      "outputs": [
        {
          "internalType": "address",
          "name": "",
          "type": "address"
        }
      ],
      "stateMutability": "view",
      "type": "function"
    },
    {
      "inputs": [],
      "name": "amount1",
      "outputs": [
        {
          "internalType": "uint256",
          "name": "",
          "type": "uint256"
        }
      ],
      "stateMutability": "view",
      "type": "function"
    },
    {
      "inputs": [],
      "name": "amount2",
      "outputs": [
        {
          "internalType": "uint256",
          "name": "",
          "type": "uint256"
        }
      ],
      "stateMutability": "view",
      "type": "function"
    },
    {
      "inputs": [
        {
          "internalType": "uint256",
          "name": "_amount",
          "type": "uint256"
        },
        {
          "internalType": "uint256",
          "name": "_ID",
          "type": "uint256"
        }
      ],
      "name": "fees",
      "outputs": [],
      "stateMutability": "nonpayable",
      "type": "function"
    },
    {
      "inputs": [],
      "name": "owner",
      "outputs": [
        {
          "internalType": "address",
          "name": "",
          "type": "address"
        }
      ],
      "stateMutability": "view",
      "type": "function"
    },
    {
      "inputs": [],
      "name": "renounceOwnership",
      "outputs": [],
      "stateMutability": "nonpayable",
      "type": "function"
    },
    {
      "inputs": [
        {
          "internalType": "address",
          "name": "_CHT",
          "type": "address"
        }
      ],
      "name": "setAddress",
      "outputs": [],
      "stateMutability": "nonpayable",
      "type": "function"
    },
    {
      "inputs": [
        {
          "internalType": "address",
          "name": "newOwner",
          "type": "address"
        }
      ],
      "name": "transferOwnership",
      "outputs": [],
      "stateMutability": "nonpayable",
      "type": "function"
    }
  ],
  "bytecode": "0x60806040523480156200001157600080fd5b5060405162000e4b38038062000e4b833981810160405281019062000037919062000259565b620000576200004b6200012360201b60201c565b6200012b60201b60201c565b82600160006101000a81548173ffffffffffffffffffffffffffffffffffffffff021916908373ffffffffffffffffffffffffffffffffffffffff16021790555080600360006101000a81548173ffffffffffffffffffffffffffffffffffffffff021916908373ffffffffffffffffffffffffffffffffffffffff16021790555081600260006101000a81548173ffffffffffffffffffffffffffffffffffffffff021916908373ffffffffffffffffffffffffffffffffffffffff160217905550505050620002b5565b600033905090565b60008060009054906101000a900473ffffffffffffffffffffffffffffffffffffffff169050816000806101000a81548173ffffffffffffffffffffffffffffffffffffffff021916908373ffffffffffffffffffffffffffffffffffffffff1602179055508173ffffffffffffffffffffffffffffffffffffffff168173ffffffffffffffffffffffffffffffffffffffff167f8be0079c531659141344cd1fd0a4f28419497f9722a3daafe3b4186f6b6457e060405160405180910390a35050565b600080fd5b600073ffffffffffffffffffffffffffffffffffffffff82169050919050565b60006200022182620001f4565b9050919050565b620002338162000214565b81146200023f57600080fd5b50565b600081519050620002538162000228565b92915050565b600080600060608486031215620002755762000274620001ef565b5b6000620002858682870162000242565b9350506020620002988682870162000242565b9250506040620002ab8682870162000242565b9150509250925092565b610b8680620002c56000396000f3fe608060405234801561001057600080fd5b506004361061009e5760003560e01c80638da5cb5b116100665780638da5cb5b14610123578063b82b59b414610141578063e30081a01461015f578063f2fde38b1461017b578063f400fde4146101975761009e565b806303c8ed3b146100a3578063057bfcc7146100c157806356d7b035146100df5780636308f1cd146100fd578063715018a614610119575b600080fd5b6100ab6101b5565b6040516100b89190610718565b60405180910390f35b6100c96101db565b6040516100d6919061074c565b60405180910390f35b6100e76101e1565b6040516100f49190610718565b60405180910390f35b61011760048036038101906101129190610798565b610207565b005b610121610455565b005b61012b610469565b6040516101389190610718565b60405180910390f35b610149610492565b6040516101569190610718565b60405180910390f35b61017960048036038101906101749190610804565b6104b8565b005b61019560048036038101906101909190610804565b610504565b005b61019f610587565b6040516101ac919061074c565b60405180910390f35b600360009054906101000a900473ffffffffffffffffffffffffffffffffffffffff1681565b60055481565b600260009054906101000a900473ffffffffffffffffffffffffffffffffffffffff1681565b6000821161024a576040517f08c379a00000000000000000000000000000000000000000000000000000000081526004016102419061088e565b60405180910390fd5b606482605061025991906108dd565b610263919061094e565b600481905550606482601461027891906108dd565b610282919061094e565b600581905550600160009054906101000a900473ffffffffffffffffffffffffffffffffffffffff1673ffffffffffffffffffffffffffffffffffffffff166323b872dd33600360009054906101000a900473ffffffffffffffffffffffffffffffffffffffff166004546040518463ffffffff1660e01b815260040161030b9392919061097f565b6020604051808303816000875af115801561032a573d6000803e3d6000fd5b505050506040513d601f19601f8201168201806040525081019061034e91906109ee565b50600160009054906101000a900473ffffffffffffffffffffffffffffffffffffffff1673ffffffffffffffffffffffffffffffffffffffff166323b872dd33600260009054906101000a900473ffffffffffffffffffffffffffffffffffffffff166005546040518463ffffffff1660e01b81526004016103d29392919061097f565b6020604051808303816000875af11580156103f1573d6000803e3d6000fd5b505050506040513d601f19601f8201168201806040525081019061041591906109ee565b507f6fe296e805108cd514fea415210be4016149b01eeb08effbe130951b6a5f6c0b81338460405161044993929190610a1b565b60405180910390a15050565b61045d61058d565b610467600061060b565b565b60008060009054906101000a900473ffffffffffffffffffffffffffffffffffffffff16905090565b600160009054906101000a900473ffffffffffffffffffffffffffffffffffffffff1681565b6104c061058d565b80600160006101000a81548173ffffffffffffffffffffffffffffffffffffffff021916908373ffffffffffffffffffffffffffffffffffffffff16021790555050565b61050c61058d565b600073ffffffffffffffffffffffffffffffffffffffff168173ffffffffffffffffffffffffffffffffffffffff160361057b576040517f08c379a000000000000000000000000000000000000000000000000000000000815260040161057290610ac4565b60405180910390fd5b6105848161060b565b50565b60045481565b6105956106cf565b73ffffffffffffffffffffffffffffffffffffffff166105b3610469565b73ffffffffffffffffffffffffffffffffffffffff1614610609576040517f08c379a000000000000000000000000000000000000000000000000000000000815260040161060090610b30565b60405180910390fd5b565b60008060009054906101000a900473ffffffffffffffffffffffffffffffffffffffff169050816000806101000a81548173ffffffffffffffffffffffffffffffffffffffff021916908373ffffffffffffffffffffffffffffffffffffffff1602179055508173ffffffffffffffffffffffffffffffffffffffff168173ffffffffffffffffffffffffffffffffffffffff167f8be0079c531659141344cd1fd0a4f28419497f9722a3daafe3b4186f6b6457e060405160405180910390a35050565b600033905090565b600073ffffffffffffffffffffffffffffffffffffffff82169050919050565b6000610702826106d7565b9050919050565b610712816106f7565b82525050565b600060208201905061072d6000830184610709565b92915050565b6000819050919050565b61074681610733565b82525050565b6000602082019050610761600083018461073d565b92915050565b600080fd5b61077581610733565b811461078057600080fd5b50565b6000813590506107928161076c565b92915050565b600080604083850312156107af576107ae610767565b5b60006107bd85828601610783565b92505060206107ce85828601610783565b9150509250929050565b6107e1816106f7565b81146107ec57600080fd5b50565b6000813590506107fe816107d8565b92915050565b60006020828403121561081a57610819610767565b5b6000610828848285016107ef565b91505092915050565b600082825260208201905092915050565b7f616d6f756e742063616e6e6f7420626520300000000000000000000000000000600082015250565b6000610878601283610831565b915061088382610842565b602082019050919050565b600060208201905081810360008301526108a78161086b565b9050919050565b7f4e487b7100000000000000000000000000000000000000000000000000000000600052601160045260246000fd5b60006108e882610733565b91506108f383610733565b925082820261090181610733565b91508282048414831517610918576109176108ae565b5b5092915050565b7f4e487b7100000000000000000000000000000000000000000000000000000000600052601260045260246000fd5b600061095982610733565b915061096483610733565b9250826109745761097361091f565b5b828204905092915050565b60006060820190506109946000830186610709565b6109a16020830185610709565b6109ae604083018461073d565b949350505050565b60008115159050919050565b6109cb816109b6565b81146109d657600080fd5b50565b6000815190506109e8816109c2565b92915050565b600060208284031215610a0457610a03610767565b5b6000610a12848285016109d9565b91505092915050565b6000606082019050610a30600083018661073d565b610a3d6020830185610709565b610a4a604083018461073d565b949350505050565b7f4f776e61626c653a206e6577206f776e657220697320746865207a65726f206160008201527f6464726573730000000000000000000000000000000000000000000000000000602082015250565b6000610aae602683610831565b9150610ab982610a52565b604082019050919050565b60006020820190508181036000830152610add81610aa1565b9050919050565b7f4f776e61626c653a2063616c6c6572206973206e6f7420746865206f776e6572600082015250565b6000610b1a602083610831565b9150610b2582610ae4565b602082019050919050565b60006020820190508181036000830152610b4981610b0d565b905091905056fea2646970667358221220b6ab7bee2a4f12921a316a8e25db453badfc8d82552c7429432acfc00ae5e39f64736f6c63430008110033",
  "linkReferences": {},
  "deployedLinkReferences": {}
}