{
  "_format": "hh-sol-artifact-1",
  "contractName": "EscrowNative",
  "sourceName": "contracts/P2Pnative.sol",
  "abi": [
    {
      "inputs": [],
      "stateMutability": "nonpayable",
      "type": "constructor"
    },
    {
      "anonymous": false,
      "inputs": [
        {
          "indexed": false,
          "internalType": "address",
          "name": "previousAdmin",
          "type": "address"
        },
        {
          "indexed": false,
          "internalType": "address",
          "name": "newAdmin",
          "type": "address"
        }
      ],
      "name": "AdminChanged",
      "type": "event"
    },
    {
      "anonymous": false,
      "inputs": [
        {
          "indexed": true,
          "internalType": "address",
          "name": "beacon",
          "type": "address"
        }
      ],
      "name": "BeaconUpgraded",
      "type": "event"
    },
    {
      "anonymous": false,
      "inputs": [
        {
          "indexed": false,
          "internalType": "uint256",
          "name": "_TradeCloneID",
          "type": "uint256"
        },
        {
          "indexed": false,
          "internalType": "address",
          "name": "Buyer",
          "type": "address"
        },
        {
          "indexed": false,
          "internalType": "uint256",
          "name": "_amount",
          "type": "uint256"
        }
      ],
      "name": "BuyerDeposit",
      "type": "event"
    },
    {
      "anonymous": false,
      "inputs": [
        {
          "indexed": false,
          "internalType": "uint8",
          "name": "version",
          "type": "uint8"
        }
      ],
      "name": "Initialized",
      "type": "event"
    },
    {
      "anonymous": false,
      "inputs": [
        {
          "indexed": true,
          "internalType": "address",
          "name": "previousOwner",
          "type": "address"
        },
        {
          "indexed": true,
          "internalType": "address",
          "name": "newOwner",
          "type": "address"
        }
      ],
      "name": "OwnershipTransferred",
      "type": "event"
    },
    {
      "anonymous": false,
      "inputs": [
        {
          "indexed": false,
          "internalType": "address",
          "name": "account",
          "type": "address"
        }
      ],
      "name": "Paused",
      "type": "event"
    },
    {
      "anonymous": false,
      "inputs": [
        {
          "indexed": false,
          "internalType": "uint256",
          "name": "_TradeCloneid",
          "type": "uint256"
        },
        {
          "indexed": false,
          "internalType": "address",
          "name": "Seller",
          "type": "address"
        },
        {
          "indexed": false,
          "internalType": "uint256",
          "name": "_amount",
          "type": "uint256"
        }
      ],
      "name": "Sellerwithdraw",
      "type": "event"
    },
    {
      "anonymous": false,
      "inputs": [
        {
          "indexed": false,
          "internalType": "uint256",
          "name": "_swapID",
          "type": "uint256"
        },
        {
          "indexed": false,
          "internalType": "uint256",
          "name": "Parent",
          "type": "uint256"
        },
        {
          "indexed": false,
          "internalType": "address",
          "name": "Buyer",
          "type": "address"
        }
      ],
      "name": "SwapComplete",
      "type": "event"
    },
    {
      "anonymous": false,
      "inputs": [
        {
          "indexed": false,
          "internalType": "address",
          "name": "account",
          "type": "address"
        }
      ],
      "name": "Unpaused",
      "type": "event"
    },
    {
      "anonymous": false,
      "inputs": [
        {
          "indexed": true,
          "internalType": "address",
          "name": "implementation",
          "type": "address"
        }
      ],
      "name": "Upgraded",
      "type": "event"
    },
    {
      "anonymous": false,
      "inputs": [
        {
          "indexed": false,
          "internalType": "uint256",
          "name": "_Tradeid",
          "type": "uint256"
        },
        {
          "indexed": false,
          "internalType": "address",
          "name": "Seller",
          "type": "address"
        },
        {
          "indexed": false,
          "internalType": "uint256",
          "name": "_amount",
          "type": "uint256"
        }
      ],
      "name": "refunded",
      "type": "event"
    },
    {
      "anonymous": false,
      "inputs": [
        {
          "indexed": false,
          "internalType": "uint256",
          "name": "_SwapID",
          "type": "uint256"
        },
        {
          "indexed": false,
          "internalType": "address",
          "name": "Buyer",
          "type": "address"
        }
      ],
      "name": "swapCreated",
      "type": "event"
    },
    {
      "anonymous": false,
      "inputs": [
        {
          "indexed": false,
          "internalType": "uint256",
          "name": "_TradeCloneid",
          "type": "uint256"
        },
        {
          "indexed": false,
          "internalType": "address",
          "name": "Seller",
          "type": "address"
        }
      ],
      "name": "tradeCloneCreated",
      "type": "event"
    },
    {
      "anonymous": false,
      "inputs": [
        {
          "indexed": false,
          "internalType": "uint256",
          "name": "_Tradeid",
          "type": "uint256"
        },
        {
          "indexed": false,
          "internalType": "address",
          "name": "Seller",
          "type": "address"
        },
        {
          "indexed": false,
          "internalType": "uint256",
          "name": "_amount",
          "type": "uint256"
        }
      ],
      "name": "tradeCreated",
      "type": "event"
    },
    {
      "inputs": [
        {
          "internalType": "uint256",
          "name": "",
          "type": "uint256"
        }
      ],
      "name": "SwapTrack",
      "outputs": [
        {
          "internalType": "uint256",
          "name": "id",
          "type": "uint256"
        },
        {
          "internalType": "uint256",
          "name": "parentTradeID",
          "type": "uint256"
        },
        {
          "internalType": "address",
          "name": "buyer",
          "type": "address"
        },
        {
          "internalType": "uint256",
          "name": "WithdrawAmount",
          "type": "uint256"
        },
        {
          "internalType": "uint256",
          "name": "feeAmount",
          "type": "uint256"
        },
        {
          "internalType": "bool",
          "name": "CompletionStatus",
          "type": "bool"
        }
      ],
      "stateMutability": "view",
      "type": "function"
    },
    {
      "inputs": [
        {
          "internalType": "uint256",
          "name": "",
          "type": "uint256"
        }
      ],
      "name": "TradeCloneTrack",
      "outputs": [
        {
          "internalType": "uint256",
          "name": "id",
          "type": "uint256"
        },
        {
          "internalType": "address",
          "name": "seller",
          "type": "address"
        },
        {
          "internalType": "uint256",
          "name": "endtime",
          "type": "uint256"
        },
        {
          "internalType": "uint256",
          "name": "MaxBalance",
          "type": "uint256"
        },
        {
          "internalType": "uint256",
          "name": "currentBalance",
          "type": "uint256"
        },
        {
          "internalType": "uint32",
          "name": "originchainID",
          "type": "uint32"
        },
        {
          "internalType": "uint32",
          "name": "secondaryChainID",
          "type": "uint32"
        },
        {
          "internalType": "uint256",
          "name": "feeAmount",
          "type": "uint256"
        }
      ],
      "stateMutability": "view",
      "type": "function"
    },
    {
      "inputs": [
        {
          "internalType": "uint256",
          "name": "",
          "type": "uint256"
        }
      ],
      "name": "TradeTrack",
      "outputs": [
        {
          "internalType": "uint256",
          "name": "id",
          "type": "uint256"
        },
        {
          "internalType": "address",
          "name": "seller",
          "type": "address"
        },
        {
          "internalType": "uint256",
          "name": "endtime",
          "type": "uint256"
        },
        {
          "internalType": "uint256",
          "name": "DepositValue",
          "type": "uint256"
        },
        {
          "internalType": "uint256",
          "name": "AvailableValue",
          "type": "uint256"
        },
        {
          "internalType": "uint32",
          "name": "originchainID",
          "type": "uint32"
        },
        {
          "internalType": "uint32",
          "name": "secondaryChainID",
          "type": "uint32"
        }
      ],
      "stateMutability": "view",
      "type": "function"
    },
    {
      "inputs": [
        {
          "internalType": "uint256",
          "name": "_id",
          "type": "uint256"
        },
        {
          "internalType": "uint256",
          "name": "_amount",
          "type": "uint256"
        }
      ],
      "name": "depositBuyer",
      "outputs": [],
      "stateMutability": "payable",
      "type": "function"
    },
    {
      "inputs": [
        {
          "internalType": "address",
          "name": "_seller",
          "type": "address"
        },
        {
          "internalType": "uint256",
          "name": "_id",
          "type": "uint256"
        },
        {
          "internalType": "uint256",
          "name": "_amount",
          "type": "uint256"
        },
        {
          "internalType": "uint256",
          "name": "_endtime",
          "type": "uint256"
        }
      ],
      "name": "depositSeller",
      "outputs": [],
      "stateMutability": "payable",
      "type": "function"
    },
    {
      "inputs": [],
      "name": "feeCollected",
      "outputs": [
        {
          "internalType": "uint256",
          "name": "",
          "type": "uint256"
        }
      ],
      "stateMutability": "view",
      "type": "function"
    },
    {
      "inputs": [],
      "name": "initialize",
      "outputs": [],
      "stateMutability": "nonpayable",
      "type": "function"
    },
    {
      "inputs": [],
      "name": "owner",
      "outputs": [
        {
          "internalType": "address",
          "name": "",
          "type": "address"
        }
      ],
      "stateMutability": "view",
      "type": "function"
    },
    {
      "inputs": [],
      "name": "pause",
      "outputs": [],
      "stateMutability": "nonpayable",
      "type": "function"
    },
    {
      "inputs": [],
      "name": "paused",
      "outputs": [
        {
          "internalType": "bool",
          "name": "",
          "type": "bool"
        }
      ],
      "stateMutability": "view",
      "type": "function"
    },
    {
      "inputs": [],
      "name": "proxiableUUID",
      "outputs": [
        {
          "internalType": "bytes32",
          "name": "",
          "type": "bytes32"
        }
      ],
      "stateMutability": "view",
      "type": "function"
    },
    {
      "inputs": [
        {
          "internalType": "uint256",
          "name": "_id",
          "type": "uint256"
        }
      ],
      "name": "refundSeller",
      "outputs": [],
      "stateMutability": "payable",
      "type": "function"
    },
    {
      "inputs": [],
      "name": "renounceOwnership",
      "outputs": [],
      "stateMutability": "nonpayable",
      "type": "function"
    },
    {
      "inputs": [
        {
          "internalType": "uint256",
          "name": "_id",
          "type": "uint256"
        },
        {
          "internalType": "uint256",
          "name": "_parentID",
          "type": "uint256"
        },
        {
          "internalType": "address",
          "name": "_buyer",
          "type": "address"
        },
        {
          "internalType": "uint256",
          "name": "_withdrawamount",
          "type": "uint256"
        },
        {
          "internalType": "uint256",
          "name": "_feeAmount",
          "type": "uint256"
        }
      ],
      "name": "setSwapID",
      "outputs": [],
      "stateMutability": "nonpayable",
      "type": "function"
    },
    {
      "inputs": [
        {
          "internalType": "uint256",
          "name": "_id",
          "type": "uint256"
        },
        {
          "internalType": "address",
          "name": "_seller",
          "type": "address"
        },
        {
          "internalType": "uint256",
          "name": "_endtime",
          "type": "uint256"
        },
        {
          "internalType": "uint256",
          "name": "_maxAmount",
          "type": "uint256"
        },
        {
          "internalType": "uint256",
          "name": "_feetoBepaid",
          "type": "uint256"
        }
      ],
      "name": "setTradeCloneID",
      "outputs": [],
      "stateMutability": "nonpayable",
      "type": "function"
    },
    {
      "inputs": [
        {
          "internalType": "address",
          "name": "newOwner",
          "type": "address"
        }
      ],
      "name": "transferOwnership",
      "outputs": [],
      "stateMutability": "nonpayable",
      "type": "function"
    },
    {
      "inputs": [],
      "name": "unpause",
      "outputs": [],
      "stateMutability": "nonpayable",
      "type": "function"
    },
    {
      "inputs": [
        {
          "internalType": "address",
          "name": "newImplementation",
          "type": "address"
        }
      ],
      "name": "upgradeTo",
      "outputs": [],
      "stateMutability": "nonpayable",
      "type": "function"
    },
    {
      "inputs": [
        {
          "internalType": "address",
          "name": "newImplementation",
          "type": "address"
        },
        {
          "internalType": "bytes",
          "name": "data",
          "type": "bytes"
        }
      ],
      "name": "upgradeToAndCall",
      "outputs": [],
      "stateMutability": "payable",
      "type": "function"
    },
    {
      "inputs": [
        {
          "internalType": "uint256",
          "name": "_id",
          "type": "uint256"
        }
      ],
      "name": "withDrawBuyer",
      "outputs": [],
      "stateMutability": "payable",
      "type": "function"
    },
    {
      "inputs": [],
      "name": "withdrawFee",
      "outputs": [],
      "stateMutability": "nonpayable",
      "type": "function"
    }
  ],
  "bytecode": "0x60a06040523073ffffffffffffffffffffffffffffffffffffffff1660809073ffffffffffffffffffffffffffffffffffffffff168152503480156200004457600080fd5b50620000556200005b60201b60201c565b62000206565b600060019054906101000a900460ff1615620000ae576040517f08c379a0000000000000000000000000000000000000000000000000000000008152600401620000a590620001a9565b60405180910390fd5b60ff801660008054906101000a900460ff1660ff161015620001205760ff6000806101000a81548160ff021916908360ff1602179055507f7f26b83ff96e1f2b6a682f133852f6798a09c465da95921460cefb384740249860ff604051620001179190620001e9565b60405180910390a15b565b600082825260208201905092915050565b7f496e697469616c697a61626c653a20636f6e747261637420697320696e69746960008201527f616c697a696e6700000000000000000000000000000000000000000000000000602082015250565b60006200019160278362000122565b91506200019e8262000133565b604082019050919050565b60006020820190508181036000830152620001c48162000182565b9050919050565b600060ff82169050919050565b620001e381620001cb565b82525050565b6000602082019050620002006000830184620001d8565b92915050565b608051614f806200023e600039600081816104d10152818161055f0152818161066b015281816106f901526107a90152614f806000f3fe60806040526004361061012a5760003560e01c8063715018a6116100ab5780638da5cb5b1161006f5780638da5cb5b1461036e5780639d7c1960146103995780639fd6b265146103c2578063d3a95fde146103eb578063e941fa7814610407578063f2fde38b1461041e5761012a565b8063715018a6146102a45780637f6bffd3146102bb5780637f9d2258146102fd5780638129fc1c146103405780638456cb59146103575761012a565b806358830d36116100f257806358830d36146101fa5780635c975abb146102165780636537e0b7146102415780636ac47fac1461025d5780636ca7f95c146102795761012a565b8063190220101461012f5780633659cfe6146101735780633f4ba83a1461019c5780634f1ef286146101b357806352d1902d146101cf575b600080fd5b34801561013b57600080fd5b50610156600480360381019061015191906131aa565b610447565b60405161016a989796959493929190613246565b60405180910390f35b34801561017f57600080fd5b5061019a600480360381019061019591906132f0565b6104cf565b005b3480156101a857600080fd5b506101b1610657565b005b6101cd60048036038101906101c89190613463565b610669565b005b3480156101db57600080fd5b506101e46107a5565b6040516101f191906134d8565b60405180910390f35b610214600480360381019061020f91906134f3565b61085e565b005b34801561022257600080fd5b5061022b610f94565b604051610238919061354e565b60405180910390f35b61025b600480360381019061025691906131aa565b610fab565b005b61027760048036038101906102729190613569565b611463565b005b34801561028557600080fd5b5061028e6117b3565b60405161029b91906135d0565b60405180910390f35b3480156102b057600080fd5b506102b96117ba565b005b3480156102c757600080fd5b506102e260048036038101906102dd91906131aa565b6117ce565b6040516102f4969594939291906135eb565b60405180910390f35b34801561030957600080fd5b50610324600480360381019061031f91906131aa565b611837565b604051610337979695949392919061364c565b60405180910390f35b34801561034c57600080fd5b506103556118b9565b005b34801561036357600080fd5b5061036c611a07565b005b34801561037a57600080fd5b50610383611a19565b60405161039091906136bb565b60405180910390f35b3480156103a557600080fd5b506103c060048036038101906103bb91906136d6565b611a43565b005b3480156103ce57600080fd5b506103e960048036038101906103e49190613751565b611cba565b005b610405600480360381019061040091906131aa565b611f70565b005b34801561041357600080fd5b5061041c612737565b005b34801561042a57600080fd5b50610445600480360381019061044091906132f0565b6127e2565b005b60fc6020528060005260406000206000915090508060000154908060010160009054906101000a900473ffffffffffffffffffffffffffffffffffffffff16908060020154908060030154908060040154908060050160009054906101000a900463ffffffff16908060050160049054906101000a900463ffffffff16908060060154905088565b7f000000000000000000000000000000000000000000000000000000000000000073ffffffffffffffffffffffffffffffffffffffff163073ffffffffffffffffffffffffffffffffffffffff160361055d576040517f08c379a00000000000000000000000000000000000000000000000000000000081526004016105549061384f565b60405180910390fd5b7f000000000000000000000000000000000000000000000000000000000000000073ffffffffffffffffffffffffffffffffffffffff1661059c612865565b73ffffffffffffffffffffffffffffffffffffffff16146105f2576040517f08c379a00000000000000000000000000000000000000000000000000000000081526004016105e9906138e1565b60405180910390fd5b6105fb816128bc565b61065481600067ffffffffffffffff81111561061a57610619613338565b5b6040519080825280601f01601f19166020018201604052801561064c5781602001600182028036833780820191505090505b5060006128c7565b50565b61065f612a35565b610667612ab3565b565b7f000000000000000000000000000000000000000000000000000000000000000073ffffffffffffffffffffffffffffffffffffffff163073ffffffffffffffffffffffffffffffffffffffff16036106f7576040517f08c379a00000000000000000000000000000000000000000000000000000000081526004016106ee9061384f565b60405180910390fd5b7f000000000000000000000000000000000000000000000000000000000000000073ffffffffffffffffffffffffffffffffffffffff16610736612865565b73ffffffffffffffffffffffffffffffffffffffff161461078c576040517f08c379a0000000000000000000000000000000000000000000000000000000008152600401610783906138e1565b60405180910390fd5b610795826128bc565b6107a1828260016128c7565b5050565b60007f000000000000000000000000000000000000000000000000000000000000000073ffffffffffffffffffffffffffffffffffffffff163073ffffffffffffffffffffffffffffffffffffffff1614610835576040517f08c379a000000000000000000000000000000000000000000000000000000000815260040161082c90613973565b60405180910390fd5b7f360894a13ba1a3210667c828492db98dca3e2076cc3735a920a3ca505d382bbc60001b905090565b610866612b16565b600081116108a9576040517f08c379a00000000000000000000000000000000000000000000000000000000081526004016108a0906139df565b60405180910390fd5b8034146108eb576040517f08c379a00000000000000000000000000000000000000000000000000000000081526004016108e290613a4b565b60405180910390fd5b60fe600083815260200190815260200160002060009054906101000a900460ff1661094b576040517f08c379a000000000000000000000000000000000000000000000000000000000815260040161094290613ab7565b60405180910390fd5b610102600083815260200190815260200160002060009054906101000a900460ff16156109ad576040517f08c379a00000000000000000000000000000000000000000000000000000000081526004016109a490613b49565b60405180910390fd5b6001610102600084815260200190815260200160002060006101000a81548160ff02191690831515021790555060ff60003373ffffffffffffffffffffffffffffffffffffffff1673ffffffffffffffffffffffffffffffffffffffff168152602001908152602001600020600083815260200190815260200160002060009054906101000a900460ff1615610a78576040517f08c379a0000000000000000000000000000000000000000000000000000000008152600401610a6f90613bdb565b60405180910390fd5b600160ff60003373ffffffffffffffffffffffffffffffffffffffff1673ffffffffffffffffffffffffffffffffffffffff168152602001908152602001600020600084815260200190815260200160002060006101000a81548160ff021916908315150217905550600060fc600084815260200190815260200160002060405180610100016040529081600082015481526020016001820160009054906101000a900473ffffffffffffffffffffffffffffffffffffffff1673ffffffffffffffffffffffffffffffffffffffff1673ffffffffffffffffffffffffffffffffffffffff1681526020016002820154815260200160038201548152602001600482015481526020016005820160009054906101000a900463ffffffff1663ffffffff1663ffffffff1681526020016005820160049054906101000a900463ffffffff1663ffffffff1663ffffffff1681526020016006820154815250509050600073ffffffffffffffffffffffffffffffffffffffff16816020015173ffffffffffffffffffffffffffffffffffffffff1603610c4b576040517f08c379a0000000000000000000000000000000000000000000000000000000008152600401610c4290613c47565b60405180910390fd5b6000816020015190508073ffffffffffffffffffffffffffffffffffffffff163373ffffffffffffffffffffffffffffffffffffffff1603610cc2576040517f08c379a0000000000000000000000000000000000000000000000000000000008152600401610cb990613cb3565b60405180910390fd5b8160600151838360800151610cd79190613d02565b10610d17576040517f08c379a0000000000000000000000000000000000000000000000000000000008152600401610d0e90613d82565b60405180910390fd5b81604001514210610d5d576040517f08c379a0000000000000000000000000000000000000000000000000000000008152600401610d5490613dee565b60405180910390fd5b60008260e001519050808411610da8576040517f08c379a0000000000000000000000000000000000000000000000000000000008152600401610d9f90613e5a565b60405180910390fd5b60008114610dd657806101036000828254610dc39190613d02565b9250508190555060008360e00181815250505b60008185610de49190613e7a565b90508484608001818151610df89190613d02565b915081815250508360fc60008881526020019081526020016000206000820151816000015560208201518160010160006101000a81548173ffffffffffffffffffffffffffffffffffffffff021916908373ffffffffffffffffffffffffffffffffffffffff16021790555060408201518160020155606082015181600301556080820151816004015560a08201518160050160006101000a81548163ffffffff021916908363ffffffff16021790555060c08201518160050160046101000a81548163ffffffff021916908363ffffffff16021790555060e082015181600601559050508273ffffffffffffffffffffffffffffffffffffffff166108fc829081150290604051600060405180830381858888f19350505050158015610f23573d6000803e3d6000fd5b506000610102600088815260200190815260200160002060006101000a81548160ff0219169083151502179055507f0e59104d78356648ea023bd00b5f93cf6e40a67c3d6878d137423c4a65320530863387604051610f8493929190613eae565b60405180910390a1505050505050565b600060c960009054906101000a900460ff16905090565b610fb3612b16565b610101600082815260200190815260200160002060009054906101000a900460ff1615611015576040517f08c379a000000000000000000000000000000000000000000000000000000000815260040161100c90613b49565b60405180910390fd5b6001610101600083815260200190815260200160002060006101000a81548160ff021916908315150217905550600060fb60008381526020019081526020016000206040518060e0016040529081600082015481526020016001820160009054906101000a900473ffffffffffffffffffffffffffffffffffffffff1673ffffffffffffffffffffffffffffffffffffffff1673ffffffffffffffffffffffffffffffffffffffff1681526020016002820154815260200160038201548152602001600482015481526020016005820160009054906101000a900463ffffffff1663ffffffff1663ffffffff1681526020016005820160049054906101000a900463ffffffff1663ffffffff1663ffffffff16815250509050806020015173ffffffffffffffffffffffffffffffffffffffff163373ffffffffffffffffffffffffffffffffffffffff16146111a0576040517f08c379a000000000000000000000000000000000000000000000000000000000815260040161119790613f31565b60405180910390fd5b60fe600083815260200190815260200160002060009054906101000a900460ff16611200576040517f08c379a00000000000000000000000000000000000000000000000000000000081526004016111f790613f9d565b60405180910390fd5b6000816080015111611247576040517f08c379a000000000000000000000000000000000000000000000000000000000815260040161123e9061402f565b60405180910390fd5b8060400151421161128d576040517f08c379a00000000000000000000000000000000000000000000000000000000081526004016112849061409b565b60405180910390fd5b600060fe600084815260200190815260200160002060006101000a81548160ff02191690831515021790555060008160800151905080826080018181516112d49190613e7a565b915081815250508160fb60008581526020019081526020016000206000820151816000015560208201518160010160006101000a81548173ffffffffffffffffffffffffffffffffffffffff021916908373ffffffffffffffffffffffffffffffffffffffff16021790555060408201518160020155606082015181600301556080820151816004015560a08201518160050160006101000a81548163ffffffff021916908363ffffffff16021790555060c08201518160050160046101000a81548163ffffffff021916908363ffffffff1602179055509050506000610101600085815260200190815260200160002060006101000a81548160ff0219169083151502179055503373ffffffffffffffffffffffffffffffffffffffff166108fc829081150290604051600060405180830381858888f19350505050158015611422573d6000803e3d6000fd5b507f1852ceb13126c22f394b77ad6298d993dfb7813f9b3139349e3c3f0852c1fe7483338360405161145693929190613eae565b60405180910390a1505050565b61146b612b16565b8373ffffffffffffffffffffffffffffffffffffffff163373ffffffffffffffffffffffffffffffffffffffff16146114d9576040517f08c379a00000000000000000000000000000000000000000000000000000000081526004016114d090613f31565b60405180910390fd5b60fe600084815260200190815260200160002060009054906101000a900460ff161561153a576040517f08c379a000000000000000000000000000000000000000000000000000000000815260040161153190614107565b60405180910390fd5b6000821161157d576040517f08c379a000000000000000000000000000000000000000000000000000000000815260040161157490614173565b60405180910390fd5b600081116115c0576040517f08c379a00000000000000000000000000000000000000000000000000000000081526004016115b7906141df565b60405180910390fd5b813414611602576040517f08c379a00000000000000000000000000000000000000000000000000000000081526004016115f990613a4b565b60405180910390fd5b600081426116109190613d02565b9050600160fe600086815260200190815260200160002060006101000a81548160ff02191690831515021790555060006040518060e001604052808681526020018773ffffffffffffffffffffffffffffffffffffffff1681526020018381526020018581526020018581526020016201388163ffffffff1681526020016101a463ffffffff1681525090508060fb60008781526020019081526020016000206000820151816000015560208201518160010160006101000a81548173ffffffffffffffffffffffffffffffffffffffff021916908373ffffffffffffffffffffffffffffffffffffffff16021790555060408201518160020155606082015181600301556080820151816004015560a08201518160050160006101000a81548163ffffffff021916908363ffffffff16021790555060c08201518160050160046101000a81548163ffffffff021916908363ffffffff1602179055509050507f70eca58c343efaba8ae2a4073dc68f37df918cfa453bea81e607a74ccb85d1258587866040516117a393929190613eae565b60405180910390a1505050505050565b6101035481565b6117c2612a35565b6117cc6000612b60565b565b60fd6020528060005260406000206000915090508060000154908060010154908060020160009054906101000a900473ffffffffffffffffffffffffffffffffffffffff16908060030154908060040154908060050160009054906101000a900460ff16905086565b60fb6020528060005260406000206000915090508060000154908060010160009054906101000a900473ffffffffffffffffffffffffffffffffffffffff16908060020154908060030154908060040154908060050160009054906101000a900463ffffffff16908060050160049054906101000a900463ffffffff16905087565b60008060019054906101000a900460ff161590508080156118ea5750600160008054906101000a900460ff1660ff16105b8061191757506118f930612c26565b1580156119165750600160008054906101000a900460ff1660ff16145b5b611956576040517f08c379a000000000000000000000000000000000000000000000000000000000815260040161194d90614271565b60405180910390fd5b60016000806101000a81548160ff021916908360ff1602179055508015611993576001600060016101000a81548160ff0219169083151502179055505b61199b612c49565b6119a3612c9a565b6119ab612cf3565b8015611a045760008060016101000a81548160ff0219169083151502179055507f7f26b83ff96e1f2b6a682f133852f6798a09c465da95921460cefb384740249860016040516119fb91906142e3565b60405180910390a15b50565b611a0f612a35565b611a17612d4c565b565b6000609760009054906101000a900473ffffffffffffffffffffffffffffffffffffffff16905090565b611a4b612a35565b611a53612b16565b60fe600086815260200190815260200160002060009054906101000a900460ff1615611ab4576040517f08c379a0000000000000000000000000000000000000000000000000000000008152600401611aab90614370565b60405180910390fd5b60008211611af7576040517f08c379a0000000000000000000000000000000000000000000000000000000008152600401611aee906143dc565b60405180910390fd5b6000808442611b069190613d02565b905060006040518061010001604052808981526020018873ffffffffffffffffffffffffffffffffffffffff1681526020018381526020018681526020018481526020016101a463ffffffff1681526020016201388163ffffffff1681526020018581525090508060fc60008a81526020019081526020016000206000820151816000015560208201518160010160006101000a81548173ffffffffffffffffffffffffffffffffffffffff021916908373ffffffffffffffffffffffffffffffffffffffff16021790555060408201518160020155606082015181600301556080820151816004015560a08201518160050160006101000a81548163ffffffff021916908363ffffffff16021790555060c08201518160050160046101000a81548163ffffffff021916908363ffffffff16021790555060e08201518160060155905050600160fe60008a815260200190815260200160002060006101000a81548160ff0219169083151502179055507f244d7078e79ff879576610bab60172dae6b48ee3189d25f86f76abc0c37582888888604051611ca89291906143fc565b60405180910390a15050505050505050565b611cc2612a35565b611cca612b16565b610100600086815260200190815260200160002060009054906101000a900460ff1615611d2c576040517f08c379a0000000000000000000000000000000000000000000000000000000008152600401611d2390614471565b60405180910390fd5b60fe600085815260200190815260200160002060009054906101000a900460ff16611d8c576040517f08c379a0000000000000000000000000000000000000000000000000000000008152600401611d8390614503565b60405180910390fd5b60008211611dcf576040517f08c379a0000000000000000000000000000000000000000000000000000000008152600401611dc6906143dc565b60405180910390fd5b808211611e11576040517f08c379a0000000000000000000000000000000000000000000000000000000008152600401611e0890614595565b60405180910390fd5b6000806040518060c001604052808881526020018781526020018673ffffffffffffffffffffffffffffffffffffffff16815260200185815260200184815260200183151581525090508060fd6000898152602001908152602001600020600082015181600001556020820151816001015560408201518160020160006101000a81548173ffffffffffffffffffffffffffffffffffffffff021916908373ffffffffffffffffffffffffffffffffffffffff160217905550606082015181600301556080820151816004015560a08201518160050160006101000a81548160ff0219169083151502179055509050506001610100600089815260200190815260200160002060006101000a81548160ff0219169083151502179055507fcae8f20940e3c6d60e303e7ac879e97f3f9736b43dd74d366948f1cdfc8e9f778786604051611f5f9291906143fc565b60405180910390a150505050505050565b611f78612b16565b60003414611fbb576040517f08c379a0000000000000000000000000000000000000000000000000000000008152600401611fb290614601565b60405180910390fd5b610100600082815260200190815260200160002060009054906101000a900460ff1661201c576040517f08c379a00000000000000000000000000000000000000000000000000000000081526004016120139061466d565b60405180910390fd5b6000610100600083815260200190815260200160002060006101000a81548160ff021916908315150217905550600060fd60008381526020019081526020016000206040518060c001604052908160008201548152602001600182015481526020016002820160009054906101000a900473ffffffffffffffffffffffffffffffffffffffff1673ffffffffffffffffffffffffffffffffffffffff1673ffffffffffffffffffffffffffffffffffffffff16815260200160038201548152602001600482015481526020016005820160009054906101000a900460ff1615151515815250509050600081602001519050610101600082815260200190815260200160002060009054906101000a900460ff161561216f576040517f08c379a000000000000000000000000000000000000000000000000000000000815260040161216690613b49565b60405180910390fd5b6001610101600083815260200190815260200160002060006101000a81548160ff0219169083151502179055506000826080015183606001516121b29190613e7a565b9050600083604001519050600073ffffffffffffffffffffffffffffffffffffffff168173ffffffffffffffffffffffffffffffffffffffff160361222c576040517f08c379a0000000000000000000000000000000000000000000000000000000008152600401612223906146d9565b60405180910390fd5b8073ffffffffffffffffffffffffffffffffffffffff163373ffffffffffffffffffffffffffffffffffffffff161461229a576040517f08c379a000000000000000000000000000000000000000000000000000000000815260040161229190613f31565b60405180910390fd5b600082116122dd576040517f08c379a00000000000000000000000000000000000000000000000000000000081526004016122d490614745565b60405180910390fd5b60fe600084815260200190815260200160002060009054906101000a900460ff1661233d576040517f08c379a000000000000000000000000000000000000000000000000000000000815260040161233490614503565b60405180910390fd5b600060fb60008581526020019081526020016000206040518060e0016040529081600082015481526020016001820160009054906101000a900473ffffffffffffffffffffffffffffffffffffffff1673ffffffffffffffffffffffffffffffffffffffff1673ffffffffffffffffffffffffffffffffffffffff1681526020016002820154815260200160038201548152602001600482015481526020016005820160009054906101000a900463ffffffff1663ffffffff1663ffffffff1681526020016005820160049054906101000a900463ffffffff1663ffffffff1663ffffffff168152505090508060400151421061246f576040517f08c379a0000000000000000000000000000000000000000000000000000000008152600401612466906147d7565b60405180910390fd5b8060800151856060015111156124ba576040517f08c379a00000000000000000000000000000000000000000000000000000000081526004016124b190614869565b60405180910390fd5b8460600151816080018181516124d09190613e7a565b9150818152505060018560a00190151590811515815250508060fb60008681526020019081526020016000206000820151816000015560208201518160010160006101000a81548173ffffffffffffffffffffffffffffffffffffffff021916908373ffffffffffffffffffffffffffffffffffffffff16021790555060408201518160020155606082015181600301556080820151816004015560a08201518160050160006101000a81548163ffffffff021916908363ffffffff16021790555060c08201518160050160046101000a81548163ffffffff021916908363ffffffff1602179055509050508460fd6000888152602001908152602001600020600082015181600001556020820151816001015560408201518160020160006101000a81548173ffffffffffffffffffffffffffffffffffffffff021916908373ffffffffffffffffffffffffffffffffffffffff160217905550606082015181600301556080820151816004015560a08201518160050160006101000a81548160ff021916908315150217905550905050846080015161010360008282546126799190613d02565b925050819055506000610101600086815260200190815260200160002060006101000a81548160ff0219169083151502179055508173ffffffffffffffffffffffffffffffffffffffff166108fc849081150290604051600060405180830381858888f193505050501580156126f3573d6000803e3d6000fd5b507f217de69216c60b6e5c5108753aeccf4f10269eeff9b93f206552d2d3d1d04bc586853360405161272793929190614889565b60405180910390a1505050505050565b61273f612a35565b612747612b16565b6000610103541161278d576040517f08c379a00000000000000000000000000000000000000000000000000000000081526004016127849061490c565b60405180910390fd5b6000610103819055503373ffffffffffffffffffffffffffffffffffffffff166108fc610103549081150290604051600060405180830381858888f193505050501580156127df573d6000803e3d6000fd5b50565b6127ea612a35565b600073ffffffffffffffffffffffffffffffffffffffff168173ffffffffffffffffffffffffffffffffffffffff1603612859576040517f08c379a00000000000000000000000000000000000000000000000000000000081526004016128509061499e565b60405180910390fd5b61286281612b60565b50565b60006128937f360894a13ba1a3210667c828492db98dca3e2076cc3735a920a3ca505d382bbc60001b612daf565b60000160009054906101000a900473ffffffffffffffffffffffffffffffffffffffff16905090565b6128c4612a35565b50565b6128f37f4910fdfa16fed3260ed0e7147f7cc6da11a60208b5b9406d12a635614ffd914360001b612db9565b60000160009054906101000a900460ff16156129175761291283612dc3565b612a30565b8273ffffffffffffffffffffffffffffffffffffffff166352d1902d6040518163ffffffff1660e01b8152600401602060405180830381865afa92505050801561297f57506040513d601f19601f8201168201806040525081019061297c91906149ea565b60015b6129be576040517f08c379a00000000000000000000000000000000000000000000000000000000081526004016129b590614a89565b60405180910390fd5b7f360894a13ba1a3210667c828492db98dca3e2076cc3735a920a3ca505d382bbc60001b8114612a23576040517f08c379a0000000000000000000000000000000000000000000000000000000008152600401612a1a90614b1b565b60405180910390fd5b50612a2f838383612e7c565b5b505050565b612a3d612ea8565b73ffffffffffffffffffffffffffffffffffffffff16612a5b611a19565b73ffffffffffffffffffffffffffffffffffffffff1614612ab1576040517f08c379a0000000000000000000000000000000000000000000000000000000008152600401612aa890614b87565b60405180910390fd5b565b612abb612eb0565b600060c960006101000a81548160ff0219169083151502179055507f5db9ee0a495bf2e6ff9c91a7834c1ba4fdd244a5e8aa4e537bd38aeae4b073aa612aff612ea8565b604051612b0c91906136bb565b60405180910390a1565b612b1e610f94565b15612b5e576040517f08c379a0000000000000000000000000000000000000000000000000000000008152600401612b5590614bf3565b60405180910390fd5b565b6000609760009054906101000a900473ffffffffffffffffffffffffffffffffffffffff16905081609760006101000a81548173ffffffffffffffffffffffffffffffffffffffff021916908373ffffffffffffffffffffffffffffffffffffffff1602179055508173ffffffffffffffffffffffffffffffffffffffff168173ffffffffffffffffffffffffffffffffffffffff167f8be0079c531659141344cd1fd0a4f28419497f9722a3daafe3b4186f6b6457e060405160405180910390a35050565b6000808273ffffffffffffffffffffffffffffffffffffffff163b119050919050565b600060019054906101000a900460ff16612c98576040517f08c379a0000000000000000000000000000000000000000000000000000000008152600401612c8f90614c85565b60405180910390fd5b565b600060019054906101000a900460ff16612ce9576040517f08c379a0000000000000000000000000000000000000000000000000000000008152600401612ce090614c85565b60405180910390fd5b612cf1612ef9565b565b600060019054906101000a900460ff16612d42576040517f08c379a0000000000000000000000000000000000000000000000000000000008152600401612d3990614c85565b60405180910390fd5b612d4a612f5a565b565b612d54612b16565b600160c960006101000a81548160ff0219169083151502179055507f62e78cea01bee320cd4e420270b5ea74000d11b0c9f74754ebdbfc544b05a258612d98612ea8565b604051612da591906136bb565b60405180910390a1565b6000819050919050565b6000819050919050565b612dcc81612c26565b612e0b576040517f08c379a0000000000000000000000000000000000000000000000000000000008152600401612e0290614d17565b60405180910390fd5b80612e387f360894a13ba1a3210667c828492db98dca3e2076cc3735a920a3ca505d382bbc60001b612daf565b60000160006101000a81548173ffffffffffffffffffffffffffffffffffffffff021916908373ffffffffffffffffffffffffffffffffffffffff16021790555050565b612e8583612fc6565b600082511180612e925750805b15612ea357612ea18383613015565b505b505050565b600033905090565b612eb8610f94565b612ef7576040517f08c379a0000000000000000000000000000000000000000000000000000000008152600401612eee90614d83565b60405180910390fd5b565b600060019054906101000a900460ff16612f48576040517f08c379a0000000000000000000000000000000000000000000000000000000008152600401612f3f90614c85565b60405180910390fd5b612f58612f53612ea8565b612b60565b565b600060019054906101000a900460ff16612fa9576040517f08c379a0000000000000000000000000000000000000000000000000000000008152600401612fa090614c85565b60405180910390fd5b600060c960006101000a81548160ff021916908315150217905550565b612fcf81612dc3565b8073ffffffffffffffffffffffffffffffffffffffff167fbc7cd75a20ee27fd9adebab32041f755214dbc6bffa90cc0225b39da2e5c2d3b60405160405180910390a250565b606061302083612c26565b61305f576040517f08c379a000000000000000000000000000000000000000000000000000000000815260040161305690614e15565b60405180910390fd5b6000808473ffffffffffffffffffffffffffffffffffffffff16846040516130879190614ea6565b600060405180830381855af49150503d80600081146130c2576040519150601f19603f3d011682016040523d82523d6000602084013e6130c7565b606091505b50915091506130ef8282604051806060016040528060278152602001614f24602791396130f9565b9250505092915050565b6060831561310957829050613159565b60008351111561311c5782518084602001fd5b816040517f08c379a00000000000000000000000000000000000000000000000000000000081526004016131509190614f01565b60405180910390fd5b9392505050565b6000604051905090565b600080fd5b600080fd5b6000819050919050565b61318781613174565b811461319257600080fd5b50565b6000813590506131a48161317e565b92915050565b6000602082840312156131c0576131bf61316a565b5b60006131ce84828501613195565b91505092915050565b6131e081613174565b82525050565b600073ffffffffffffffffffffffffffffffffffffffff82169050919050565b6000613211826131e6565b9050919050565b61322181613206565b82525050565b600063ffffffff82169050919050565b61324081613227565b82525050565b60006101008201905061325c600083018b6131d7565b613269602083018a613218565b61327660408301896131d7565b61328360608301886131d7565b61329060808301876131d7565b61329d60a0830186613237565b6132aa60c0830185613237565b6132b760e08301846131d7565b9998505050505050505050565b6132cd81613206565b81146132d857600080fd5b50565b6000813590506132ea816132c4565b92915050565b6000602082840312156133065761330561316a565b5b6000613314848285016132db565b91505092915050565b600080fd5b600080fd5b6000601f19601f8301169050919050565b7f4e487b7100000000000000000000000000000000000000000000000000000000600052604160045260246000fd5b61337082613327565b810181811067ffffffffffffffff8211171561338f5761338e613338565b5b80604052505050565b60006133a2613160565b90506133ae8282613367565b919050565b600067ffffffffffffffff8211156133ce576133cd613338565b5b6133d782613327565b9050602081019050919050565b82818337600083830152505050565b6000613406613401846133b3565b613398565b90508281526020810184848401111561342257613421613322565b5b61342d8482856133e4565b509392505050565b600082601f83011261344a5761344961331d565b5b813561345a8482602086016133f3565b91505092915050565b6000806040838503121561347a5761347961316a565b5b6000613488858286016132db565b925050602083013567ffffffffffffffff8111156134a9576134a861316f565b5b6134b585828601613435565b9150509250929050565b6000819050919050565b6134d2816134bf565b82525050565b60006020820190506134ed60008301846134c9565b92915050565b6000806040838503121561350a5761350961316a565b5b600061351885828601613195565b925050602061352985828601613195565b9150509250929050565b60008115159050919050565b61354881613533565b82525050565b6000602082019050613563600083018461353f565b92915050565b600080600080608085870312156135835761358261316a565b5b6000613591878288016132db565b94505060206135a287828801613195565b93505060406135b387828801613195565b92505060606135c487828801613195565b91505092959194509250565b60006020820190506135e560008301846131d7565b92915050565b600060c08201905061360060008301896131d7565b61360d60208301886131d7565b61361a6040830187613218565b61362760608301866131d7565b61363460808301856131d7565b61364160a083018461353f565b979650505050505050565b600060e082019050613661600083018a6131d7565b61366e6020830189613218565b61367b60408301886131d7565b61368860608301876131d7565b61369560808301866131d7565b6136a260a0830185613237565b6136af60c0830184613237565b98975050505050505050565b60006020820190506136d06000830184613218565b92915050565b600080600080600060a086880312156136f2576136f161316a565b5b600061370088828901613195565b9550506020613711888289016132db565b945050604061372288828901613195565b935050606061373388828901613195565b925050608061374488828901613195565b9150509295509295909350565b600080600080600060a0868803121561376d5761376c61316a565b5b600061377b88828901613195565b955050602061378c88828901613195565b945050604061379d888289016132db565b93505060606137ae88828901613195565b92505060806137bf88828901613195565b9150509295509295909350565b600082825260208201905092915050565b7f46756e6374696f6e206d7573742062652063616c6c6564207468726f7567682060008201527f64656c656761746563616c6c0000000000000000000000000000000000000000602082015250565b6000613839602c836137cc565b9150613844826137dd565b604082019050919050565b600060208201905081810360008301526138688161382c565b9050919050565b7f46756e6374696f6e206d7573742062652063616c6c6564207468726f7567682060008201527f6163746976652070726f78790000000000000000000000000000000000000000602082015250565b60006138cb602c836137cc565b91506138d68261386f565b604082019050919050565b600060208201905081810360008301526138fa816138be565b9050919050565b7f555550535570677261646561626c653a206d757374206e6f742062652063616c60008201527f6c6564207468726f7567682064656c656761746563616c6c0000000000000000602082015250565b600061395d6038836137cc565b915061396882613901565b604082019050919050565b6000602082019050818103600083015261398c81613950565b9050919050565b7f616d6f756e742063616e6e6f74206265207a65726f0000000000000000000000600082015250565b60006139c96015836137cc565b91506139d482613993565b602082019050919050565b600060208201905081810360008301526139f8816139bc565b9050919050565b7f73656e64207269676874206465706f7369740000000000000000000000000000600082015250565b6000613a356012836137cc565b9150613a40826139ff565b602082019050919050565b60006020820190508181036000830152613a6481613a28565b9050919050565b7f747261646520446f6573206e6f74206578697374000000000000000000000000600082015250565b6000613aa16014836137cc565b9150613aac82613a6b565b602082019050919050565b60006020820190508181036000830152613ad081613a94565b9050919050565b7f506c656173652073656e64207472616e73616374696f6e20696e20736f6d652060008201527f74696d6500000000000000000000000000000000000000000000000000000000602082015250565b6000613b336024836137cc565b9150613b3e82613ad7565b604082019050919050565b60006020820190508181036000830152613b6281613b26565b9050919050565b7f796f752063616e206f6e6c79206f707420666f722061207472616465206f6e6360008201527f6500000000000000000000000000000000000000000000000000000000000000602082015250565b6000613bc56021836137cc565b9150613bd082613b69565b604082019050919050565b60006020820190508181036000830152613bf481613bb8565b9050919050565b7f7468697320747261646520646f6573206e6f7420657869737400000000000000600082015250565b6000613c316019836137cc565b9150613c3c82613bfb565b602082019050919050565b60006020820190508181036000830152613c6081613c24565b9050919050565b7f73656c6c65722063616e74206275790000000000000000000000000000000000600082015250565b6000613c9d600f836137cc565b9150613ca882613c67565b602082019050919050565b60006020820190508181036000830152613ccc81613c90565b9050919050565b7f4e487b7100000000000000000000000000000000000000000000000000000000600052601160045260246000fd5b6000613d0d82613174565b9150613d1883613174565b9250828201905080821115613d3057613d2f613cd3565b5b92915050565b7f546865207472616465206e6f206c6f6e676572206861732066756e6473000000600082015250565b6000613d6c601d836137cc565b9150613d7782613d36565b602082019050919050565b60006020820190508181036000830152613d9b81613d5f565b9050919050565b7f546869732074726164652068617320656e646564000000000000000000000000600082015250565b6000613dd86014836137cc565b9150613de382613da2565b602082019050919050565b60006020820190508181036000830152613e0781613dcb565b9050919050565b7f6465706f73697420746f6f206c6f770000000000000000000000000000000000600082015250565b6000613e44600f836137cc565b9150613e4f82613e0e565b602082019050919050565b60006020820190508181036000830152613e7381613e37565b9050919050565b6000613e8582613174565b9150613e9083613174565b9250828203905081811115613ea857613ea7613cd3565b5b92915050565b6000606082019050613ec360008301866131d7565b613ed06020830185613218565b613edd60408301846131d7565b949350505050565b7f756e617574686f72697a65640000000000000000000000000000000000000000600082015250565b6000613f1b600c836137cc565b9150613f2682613ee5565b602082019050919050565b60006020820190508181036000830152613f4a81613f0e565b9050919050565b7f73746f702067657420736f6d652068656c700000000000000000000000000000600082015250565b6000613f876012836137cc565b9150613f9282613f51565b602082019050919050565b60006020820190508181036000830152613fb681613f7a565b9050919050565b7f746865726520617265206e6f2066756e647320617661696c61626c6520666f7260008201527f20726566756e6400000000000000000000000000000000000000000000000000602082015250565b60006140196027836137cc565b915061402482613fbd565b604082019050919050565b600060208201905081810360008301526140488161400c565b9050919050565b7f746865207472616465206973206f6e676f696e67000000000000000000000000600082015250565b60006140856014836137cc565b91506140908261404f565b602082019050919050565b600060208201905081810360008301526140b481614078565b9050919050565b7f747261646520616c726561647920657869737473000000000000000000000000600082015250565b60006140f16014836137cc565b91506140fc826140bb565b602082019050919050565b60006020820190508181036000830152614120816140e4565b9050919050565b7f4e6f6e207a65726f2076616c756573206f6e6c79000000000000000000000000600082015250565b600061415d6014836137cc565b915061416882614127565b602082019050919050565b6000602082019050818103600083015261418c81614150565b9050919050565b7f456e6474696d65206d7573742062652067726561746572000000000000000000600082015250565b60006141c96017836137cc565b91506141d482614193565b602082019050919050565b600060208201905081810360008301526141f8816141bc565b9050919050565b7f496e697469616c697a61626c653a20636f6e747261637420697320616c72656160008201527f647920696e697469616c697a6564000000000000000000000000000000000000602082015250565b600061425b602e836137cc565b9150614266826141ff565b604082019050919050565b6000602082019050818103600083015261428a8161424e565b9050919050565b6000819050919050565b600060ff82169050919050565b6000819050919050565b60006142cd6142c86142c384614291565b6142a8565b61429b565b9050919050565b6142dd816142b2565b82525050565b60006020820190506142f860008301846142d4565b92915050565b7f547261646520636c6f6e6520616c72656164792065786973747320616e64206960008201527f6e2070726f677265737300000000000000000000000000000000000000000000602082015250565b600061435a602a836137cc565b9150614365826142fe565b604082019050919050565b600060208201905081810360008301526143898161434d565b9050919050565b7f6e6f6e207a65726f2076616c756573206f6e6c79000000000000000000000000600082015250565b60006143c66014836137cc565b91506143d182614390565b602082019050919050565b600060208201905081810360008301526143f5816143b9565b9050919050565b600060408201905061441160008301856131d7565b61441e6020830184613218565b9392505050565b7f73776170207374696c6c20696e2070726f677265737300000000000000000000600082015250565b600061445b6016836137cc565b915061446682614425565b602082019050919050565b6000602082019050818103600083015261448a8161444e565b9050919050565b7f54726164652068617320656e646564206f7220646f6573206e6f74206578697360008201527f7400000000000000000000000000000000000000000000000000000000000000602082015250565b60006144ed6021836137cc565b91506144f882614491565b604082019050919050565b6000602082019050818103600083015261451c816144e0565b9050919050565b7f616d6f756e742073686f756c642062652067726561746572207468616e20666560008201527f6500000000000000000000000000000000000000000000000000000000000000602082015250565b600061457f6021836137cc565b915061458a82614523565b604082019050919050565b600060208201905081810360008301526145ae81614572565b9050919050565b7f646f206e6f74206465706f736974207768696c65207769746864726177616c00600082015250565b60006145eb601f836137cc565b91506145f6826145b5565b602082019050919050565b6000602082019050818103600083015261461a816145de565b9050919050565b7f7377617020646f6573206e6f7420657869737400000000000000000000000000600082015250565b60006146576013836137cc565b915061466282614621565b602082019050919050565b600060208201905081810360008301526146868161464a565b9050919050565b7f7377617020697320696e76616c69640000000000000000000000000000000000600082015250565b60006146c3600f836137cc565b91506146ce8261468d565b602082019050919050565b600060208201905081810360008301526146f2816146b6565b9050919050565b7f616d6f756e74206973207a65726f000000000000000000000000000000000000600082015250565b600061472f600e836137cc565b915061473a826146f9565b602082019050919050565b6000602082019050818103600083015261475e81614722565b9050919050565b7f74696d6520686173206578636565646564207472616465206e6f206c6f6e676560008201527f7220657869737473000000000000000000000000000000000000000000000000602082015250565b60006147c16028836137cc565b91506147cc82614765565b604082019050919050565b600060208201905081810360008301526147f0816147b4565b9050919050565b7f616d6f756e74206578636565647320747261646520616d6f756e7420706c656160008201527f7365207265636865636b00000000000000000000000000000000000000000000602082015250565b6000614853602a836137cc565b915061485e826147f7565b604082019050919050565b6000602082019050818103600083015261488281614846565b9050919050565b600060608201905061489e60008301866131d7565b6148ab60208301856131d7565b6148b86040830184613218565b949350505050565b7f6e6f206665657320617661696c61626c65000000000000000000000000000000600082015250565b60006148f66011836137cc565b9150614901826148c0565b602082019050919050565b60006020820190508181036000830152614925816148e9565b9050919050565b7f4f776e61626c653a206e6577206f776e657220697320746865207a65726f206160008201527f6464726573730000000000000000000000000000000000000000000000000000602082015250565b60006149886026836137cc565b91506149938261492c565b604082019050919050565b600060208201905081810360008301526149b78161497b565b9050919050565b6149c7816134bf565b81146149d257600080fd5b50565b6000815190506149e4816149be565b92915050565b600060208284031215614a00576149ff61316a565b5b6000614a0e848285016149d5565b91505092915050565b7f45524331393637557067726164653a206e657720696d706c656d656e7461746960008201527f6f6e206973206e6f742055555053000000000000000000000000000000000000602082015250565b6000614a73602e836137cc565b9150614a7e82614a17565b604082019050919050565b60006020820190508181036000830152614aa281614a66565b9050919050565b7f45524331393637557067726164653a20756e737570706f727465642070726f7860008201527f6961626c65555549440000000000000000000000000000000000000000000000602082015250565b6000614b056029836137cc565b9150614b1082614aa9565b604082019050919050565b60006020820190508181036000830152614b3481614af8565b9050919050565b7f4f776e61626c653a2063616c6c6572206973206e6f7420746865206f776e6572600082015250565b6000614b716020836137cc565b9150614b7c82614b3b565b602082019050919050565b60006020820190508181036000830152614ba081614b64565b9050919050565b7f5061757361626c653a2070617573656400000000000000000000000000000000600082015250565b6000614bdd6010836137cc565b9150614be882614ba7565b602082019050919050565b60006020820190508181036000830152614c0c81614bd0565b9050919050565b7f496e697469616c697a61626c653a20636f6e7472616374206973206e6f74206960008201527f6e697469616c697a696e67000000000000000000000000000000000000000000602082015250565b6000614c6f602b836137cc565b9150614c7a82614c13565b604082019050919050565b60006020820190508181036000830152614c9e81614c62565b9050919050565b7f455243313936373a206e657720696d706c656d656e746174696f6e206973206e60008201527f6f74206120636f6e747261637400000000000000000000000000000000000000602082015250565b6000614d01602d836137cc565b9150614d0c82614ca5565b604082019050919050565b60006020820190508181036000830152614d3081614cf4565b9050919050565b7f5061757361626c653a206e6f7420706175736564000000000000000000000000600082015250565b6000614d6d6014836137cc565b9150614d7882614d37565b602082019050919050565b60006020820190508181036000830152614d9c81614d60565b9050919050565b7f416464726573733a2064656c65676174652063616c6c20746f206e6f6e2d636f60008201527f6e74726163740000000000000000000000000000000000000000000000000000602082015250565b6000614dff6026836137cc565b9150614e0a82614da3565b604082019050919050565b60006020820190508181036000830152614e2e81614df2565b9050919050565b600081519050919050565b600081905092915050565b60005b83811015614e69578082015181840152602081019050614e4e565b60008484015250505050565b6000614e8082614e35565b614e8a8185614e40565b9350614e9a818560208601614e4b565b80840191505092915050565b6000614eb28284614e75565b915081905092915050565b600081519050919050565b6000614ed382614ebd565b614edd81856137cc565b9350614eed818560208601614e4b565b614ef681613327565b840191505092915050565b60006020820190508181036000830152614f1b8184614ec8565b90509291505056fe416464726573733a206c6f772d6c6576656c2064656c65676174652063616c6c206661696c6564a2646970667358221220be952e2d6e94353d95db1156ca61bb155ad906e7c2ace20b80bfb4281c60d5b664736f6c63430008110033",
  "linkReferences": {},
  "deployedLinkReferences": {}
}