{
  "_format": "hh-sol-artifact-1",
  "contractName": "EscrowNative",
  "sourceName": "contracts/P2Pnative.sol",
  "abi": [
    {
      "inputs": [],
      "stateMutability": "nonpayable",
      "type": "constructor"
    },
    {
      "anonymous": false,
      "inputs": [
        {
          "indexed": false,
          "internalType": "address",
          "name": "previousAdmin",
          "type": "address"
        },
        {
          "indexed": false,
          "internalType": "address",
          "name": "newAdmin",
          "type": "address"
        }
      ],
      "name": "AdminChanged",
      "type": "event"
    },
    {
      "anonymous": false,
      "inputs": [
        {
          "indexed": true,
          "internalType": "address",
          "name": "beacon",
          "type": "address"
        }
      ],
      "name": "BeaconUpgraded",
      "type": "event"
    },
    {
      "anonymous": false,
      "inputs": [
        {
          "indexed": false,
          "internalType": "uint256",
          "name": "_TradeCloneID",
          "type": "uint256"
        },
        {
          "indexed": false,
          "internalType": "address",
          "name": "Buyer",
          "type": "address"
        },
        {
          "indexed": false,
          "internalType": "uint256",
          "name": "_amount",
          "type": "uint256"
        }
      ],
      "name": "BuyerDeposit",
      "type": "event"
    },
    {
      "anonymous": false,
      "inputs": [
        {
          "indexed": false,
          "internalType": "uint8",
          "name": "version",
          "type": "uint8"
        }
      ],
      "name": "Initialized",
      "type": "event"
    },
    {
      "anonymous": false,
      "inputs": [
        {
          "indexed": true,
          "internalType": "address",
          "name": "previousOwner",
          "type": "address"
        },
        {
          "indexed": true,
          "internalType": "address",
          "name": "newOwner",
          "type": "address"
        }
      ],
      "name": "OwnershipTransferred",
      "type": "event"
    },
    {
      "anonymous": false,
      "inputs": [
        {
          "indexed": false,
          "internalType": "address",
          "name": "account",
          "type": "address"
        }
      ],
      "name": "Paused",
      "type": "event"
    },
    {
      "anonymous": false,
      "inputs": [
        {
          "indexed": false,
          "internalType": "uint256",
          "name": "_TradeCloneid",
          "type": "uint256"
        },
        {
          "indexed": false,
          "internalType": "address",
          "name": "Seller",
          "type": "address"
        },
        {
          "indexed": false,
          "internalType": "uint256",
          "name": "_amount",
          "type": "uint256"
        }
      ],
      "name": "Sellerwithdraw",
      "type": "event"
    },
    {
      "anonymous": false,
      "inputs": [
        {
          "indexed": false,
          "internalType": "uint256",
          "name": "_swapID",
          "type": "uint256"
        },
        {
          "indexed": false,
          "internalType": "uint256",
          "name": "Parent",
          "type": "uint256"
        },
        {
          "indexed": false,
          "internalType": "address",
          "name": "Buyer",
          "type": "address"
        }
      ],
      "name": "SwapComplete",
      "type": "event"
    },
    {
      "anonymous": false,
      "inputs": [
        {
          "indexed": false,
          "internalType": "address",
          "name": "account",
          "type": "address"
        }
      ],
      "name": "Unpaused",
      "type": "event"
    },
    {
      "anonymous": false,
      "inputs": [
        {
          "indexed": true,
          "internalType": "address",
          "name": "implementation",
          "type": "address"
        }
      ],
      "name": "Upgraded",
      "type": "event"
    },
    {
      "anonymous": false,
      "inputs": [
        {
          "indexed": false,
          "internalType": "uint256",
          "name": "_Tradeid",
          "type": "uint256"
        },
        {
          "indexed": false,
          "internalType": "address",
          "name": "Seller",
          "type": "address"
        },
        {
          "indexed": false,
          "internalType": "uint256",
          "name": "_amount",
          "type": "uint256"
        }
      ],
      "name": "refunded",
      "type": "event"
    },
    {
      "anonymous": false,
      "inputs": [
        {
          "indexed": false,
          "internalType": "uint256",
          "name": "_SwapID",
          "type": "uint256"
        },
        {
          "indexed": false,
          "internalType": "address",
          "name": "Buyer",
          "type": "address"
        }
      ],
      "name": "swapCreated",
      "type": "event"
    },
    {
      "anonymous": false,
      "inputs": [
        {
          "indexed": false,
          "internalType": "uint256",
          "name": "_TradeCloneid",
          "type": "uint256"
        },
        {
          "indexed": false,
          "internalType": "address",
          "name": "Seller",
          "type": "address"
        }
      ],
      "name": "tradeCloneCreated",
      "type": "event"
    },
    {
      "anonymous": false,
      "inputs": [
        {
          "indexed": false,
          "internalType": "uint256",
          "name": "_Tradeid",
          "type": "uint256"
        },
        {
          "indexed": false,
          "internalType": "address",
          "name": "Seller",
          "type": "address"
        },
        {
          "indexed": false,
          "internalType": "uint256",
          "name": "_amount",
          "type": "uint256"
        }
      ],
      "name": "tradeCreated",
      "type": "event"
    },
    {
      "inputs": [
        {
          "internalType": "uint256",
          "name": "",
          "type": "uint256"
        }
      ],
      "name": "SwapTrack",
      "outputs": [
        {
          "internalType": "uint256",
          "name": "id",
          "type": "uint256"
        },
        {
          "internalType": "uint256",
          "name": "parentTradeID",
          "type": "uint256"
        },
        {
          "internalType": "address",
          "name": "buyer",
          "type": "address"
        },
        {
          "internalType": "uint256",
          "name": "WithdrawAmount",
          "type": "uint256"
        },
        {
          "internalType": "uint256",
          "name": "feeAmount",
          "type": "uint256"
        },
        {
          "internalType": "bool",
          "name": "CompletionStatus",
          "type": "bool"
        }
      ],
      "stateMutability": "view",
      "type": "function"
    },
    {
      "inputs": [
        {
          "internalType": "uint256",
          "name": "",
          "type": "uint256"
        }
      ],
      "name": "TradeCloneTrack",
      "outputs": [
        {
          "internalType": "uint256",
          "name": "id",
          "type": "uint256"
        },
        {
          "internalType": "address",
          "name": "seller",
          "type": "address"
        },
        {
          "internalType": "uint256",
          "name": "endtime",
          "type": "uint256"
        },
        {
          "internalType": "uint256",
          "name": "MaxBalance",
          "type": "uint256"
        },
        {
          "internalType": "uint256",
          "name": "currentBalance",
          "type": "uint256"
        },
        {
          "internalType": "uint32",
          "name": "originchainID",
          "type": "uint32"
        },
        {
          "internalType": "uint32",
          "name": "secondaryChainID",
          "type": "uint32"
        },
        {
          "internalType": "uint256",
          "name": "feeAmount",
          "type": "uint256"
        }
      ],
      "stateMutability": "view",
      "type": "function"
    },
    {
      "inputs": [
        {
          "internalType": "uint256",
          "name": "",
          "type": "uint256"
        }
      ],
      "name": "TradeTrack",
      "outputs": [
        {
          "internalType": "uint256",
          "name": "id",
          "type": "uint256"
        },
        {
          "internalType": "address",
          "name": "seller",
          "type": "address"
        },
        {
          "internalType": "uint256",
          "name": "endtime",
          "type": "uint256"
        },
        {
          "internalType": "uint256",
          "name": "DepositValue",
          "type": "uint256"
        },
        {
          "internalType": "uint256",
          "name": "AvailableValue",
          "type": "uint256"
        },
        {
          "internalType": "uint32",
          "name": "originchainID",
          "type": "uint32"
        },
        {
          "internalType": "uint32",
          "name": "secondaryChainID",
          "type": "uint32"
        }
      ],
      "stateMutability": "view",
      "type": "function"
    },
    {
      "inputs": [
        {
          "internalType": "uint256",
          "name": "_id",
          "type": "uint256"
        },
        {
          "internalType": "uint256",
          "name": "_amount",
          "type": "uint256"
        }
      ],
      "name": "depositBuyer",
      "outputs": [],
      "stateMutability": "payable",
      "type": "function"
    },
    {
      "inputs": [
        {
          "internalType": "address",
          "name": "_seller",
          "type": "address"
        },
        {
          "internalType": "uint256",
          "name": "_id",
          "type": "uint256"
        },
        {
          "internalType": "uint256",
          "name": "_amount",
          "type": "uint256"
        },
        {
          "internalType": "uint256",
          "name": "_endtime",
          "type": "uint256"
        }
      ],
      "name": "depositSeller",
      "outputs": [],
      "stateMutability": "payable",
      "type": "function"
    },
    {
      "inputs": [],
      "name": "feeCollected",
      "outputs": [
        {
          "internalType": "uint256",
          "name": "",
          "type": "uint256"
        }
      ],
      "stateMutability": "view",
      "type": "function"
    },
    {
      "inputs": [],
      "name": "initialize",
      "outputs": [],
      "stateMutability": "nonpayable",
      "type": "function"
    },
    {
      "inputs": [],
      "name": "owner",
      "outputs": [
        {
          "internalType": "address",
          "name": "",
          "type": "address"
        }
      ],
      "stateMutability": "view",
      "type": "function"
    },
    {
      "inputs": [],
      "name": "pause",
      "outputs": [],
      "stateMutability": "nonpayable",
      "type": "function"
    },
    {
      "inputs": [],
      "name": "paused",
      "outputs": [
        {
          "internalType": "bool",
          "name": "",
          "type": "bool"
        }
      ],
      "stateMutability": "view",
      "type": "function"
    },
    {
      "inputs": [],
      "name": "proxiableUUID",
      "outputs": [
        {
          "internalType": "bytes32",
          "name": "",
          "type": "bytes32"
        }
      ],
      "stateMutability": "view",
      "type": "function"
    },
    {
      "inputs": [
        {
          "internalType": "uint256",
          "name": "_id",
          "type": "uint256"
        }
      ],
      "name": "refundSeller",
      "outputs": [],
      "stateMutability": "payable",
      "type": "function"
    },
    {
      "inputs": [],
      "name": "renounceOwnership",
      "outputs": [],
      "stateMutability": "nonpayable",
      "type": "function"
    },
    {
      "inputs": [
        {
          "internalType": "uint256",
          "name": "_id",
          "type": "uint256"
        },
        {
          "internalType": "uint256",
          "name": "_parentID",
          "type": "uint256"
        },
        {
          "internalType": "address",
          "name": "_buyer",
          "type": "address"
        },
        {
          "internalType": "uint256",
          "name": "_withdrawamount",
          "type": "uint256"
        },
        {
          "internalType": "uint256",
          "name": "_feeAmount",
          "type": "uint256"
        }
      ],
      "name": "setSwapID",
      "outputs": [],
      "stateMutability": "nonpayable",
      "type": "function"
    },
    {
      "inputs": [
        {
          "internalType": "uint256",
          "name": "_id",
          "type": "uint256"
        },
        {
          "internalType": "address",
          "name": "_seller",
          "type": "address"
        },
        {
          "internalType": "uint256",
          "name": "_endtime",
          "type": "uint256"
        },
        {
          "internalType": "uint256",
          "name": "_maxAmount",
          "type": "uint256"
        },
        {
          "internalType": "uint256",
          "name": "_feetoBepaid",
          "type": "uint256"
        }
      ],
      "name": "setTradeCloneID",
      "outputs": [],
      "stateMutability": "nonpayable",
      "type": "function"
    },
    {
      "inputs": [
        {
          "internalType": "address",
          "name": "newOwner",
          "type": "address"
        }
      ],
      "name": "transferOwnership",
      "outputs": [],
      "stateMutability": "nonpayable",
      "type": "function"
    },
    {
      "inputs": [],
      "name": "unpause",
      "outputs": [],
      "stateMutability": "nonpayable",
      "type": "function"
    },
    {
      "inputs": [
        {
          "internalType": "address",
          "name": "newImplementation",
          "type": "address"
        }
      ],
      "name": "upgradeTo",
      "outputs": [],
      "stateMutability": "nonpayable",
      "type": "function"
    },
    {
      "inputs": [
        {
          "internalType": "address",
          "name": "newImplementation",
          "type": "address"
        },
        {
          "internalType": "bytes",
          "name": "data",
          "type": "bytes"
        }
      ],
      "name": "upgradeToAndCall",
      "outputs": [],
      "stateMutability": "payable",
      "type": "function"
    },
    {
      "inputs": [
        {
          "internalType": "uint256",
          "name": "_id",
          "type": "uint256"
        }
      ],
      "name": "withDrawBuyer",
      "outputs": [],
      "stateMutability": "payable",
      "type": "function"
    },
    {
      "inputs": [],
      "name": "withdrawFee",
      "outputs": [],
      "stateMutability": "nonpayable",
      "type": "function"
    }
  ],
  "bytecode": "0x60a06040523073ffffffffffffffffffffffffffffffffffffffff1660809073ffffffffffffffffffffffffffffffffffffffff168152503480156200004457600080fd5b50620000616769000bbf6ae1de5b60c01b620000af60201b60201c565b6200007d677c3d230b0684c54c60c01b620000af60201b60201c565b6200009967953cb885afe7fe9760c01b620000af60201b60201c565b620000a9620000b260201b60201c565b6200025d565b50565b600060019054906101000a900460ff161562000105576040517f08c379a0000000000000000000000000000000000000000000000000000000008152600401620000fc9062000200565b60405180910390fd5b60ff801660008054906101000a900460ff1660ff161015620001775760ff6000806101000a81548160ff021916908360ff1602179055507f7f26b83ff96e1f2b6a682f133852f6798a09c465da95921460cefb384740249860ff6040516200016e919062000240565b60405180910390a15b565b600082825260208201905092915050565b7f496e697469616c697a61626c653a20636f6e747261637420697320696e69746960008201527f616c697a696e6700000000000000000000000000000000000000000000000000602082015250565b6000620001e860278362000179565b9150620001f5826200018a565b604082019050919050565b600060208201905081810360008301526200021b81620001d9565b9050919050565b600060ff82169050919050565b6200023a8162000222565b82525050565b60006020820190506200025760008301846200022f565b92915050565b60805161656a62000295600039600081816104d10152818161055f015281816106cf0152818161075d015261080d015261656a6000f3fe60806040526004361061012a5760003560e01c8063715018a6116100ab5780638da5cb5b1161006f5780638da5cb5b1461036e5780639d7c1960146103995780639fd6b265146103c2578063d3a95fde146103eb578063e941fa7814610407578063f2fde38b1461041e5761012a565b8063715018a6146102a45780637f6bffd3146102bb5780637f9d2258146102fd5780638129fc1c146103405780638456cb59146103575761012a565b806358830d36116100f257806358830d36146101fa5780635c975abb146102165780636537e0b7146102415780636ac47fac1461025d5780636ca7f95c146102795761012a565b8063190220101461012f5780633659cfe6146101735780633f4ba83a1461019c5780634f1ef286146101b357806352d1902d146101cf575b600080fd5b34801561013b57600080fd5b5061015660048036038101906101519190614794565b610447565b60405161016a989796959493929190614830565b60405180910390f35b34801561017f57600080fd5b5061019a600480360381019061019591906148da565b6104cf565b005b3480156101a857600080fd5b506101b1610657565b005b6101cd60048036038101906101c89190614a4d565b6106cd565b005b3480156101db57600080fd5b506101e4610809565b6040516101f19190614ac2565b60405180910390f35b610214600480360381019061020f9190614add565b6108c2565b005b34801561022257600080fd5b5061022b611525565b6040516102389190614b38565b60405180910390f35b61025b60048036038101906102569190614794565b61153c565b005b61027760048036038101906102729190614b53565b611cc4565b005b34801561028557600080fd5b5061028e612280565b60405161029b9190614bba565b60405180910390f35b3480156102b057600080fd5b506102b9612287565b005b3480156102c757600080fd5b506102e260048036038101906102dd9190614794565b61229b565b6040516102f496959493929190614bd5565b60405180910390f35b34801561030957600080fd5b50610324600480360381019061031f9190614794565b612304565b6040516103379796959493929190614c36565b60405180910390f35b34801561034c57600080fd5b50610355612386565b005b34801561036357600080fd5b5061036c612588565b005b34801561037a57600080fd5b506103836125fe565b6040516103909190614ca5565b60405180910390f35b3480156103a557600080fd5b506103c060048036038101906103bb9190614cc0565b612628565b005b3480156103ce57600080fd5b506103e960048036038101906103e49190614d3b565b612a6c565b005b61040560048036038101906104009190614794565b612f67565b005b34801561041357600080fd5b5061041c613bf2565b005b34801561042a57600080fd5b50610445600480360381019061044091906148da565b613d8d565b005b60fc6020528060005260406000206000915090508060000154908060010160009054906101000a900473ffffffffffffffffffffffffffffffffffffffff16908060020154908060030154908060040154908060050160009054906101000a900463ffffffff16908060050160049054906101000a900463ffffffff16908060060154905088565b7f000000000000000000000000000000000000000000000000000000000000000073ffffffffffffffffffffffffffffffffffffffff163073ffffffffffffffffffffffffffffffffffffffff160361055d576040517f08c379a000000000000000000000000000000000000000000000000000000000815260040161055490614e39565b60405180910390fd5b7f000000000000000000000000000000000000000000000000000000000000000073ffffffffffffffffffffffffffffffffffffffff1661059c613e10565b73ffffffffffffffffffffffffffffffffffffffff16146105f2576040517f08c379a00000000000000000000000000000000000000000000000000000000081526004016105e990614ecb565b60405180910390fd5b6105fb81613e67565b61065481600067ffffffffffffffff81111561061a57610619614922565b5b6040519080825280601f01601f19166020018201604052801561064c5781602001600182028036833780820191505090505b506000613eae565b50565b61066b6716ff55e914aaa91d60c01b61401c565b61067361401f565b610687672f47e7dd6f650d5560c01b61401c565b61069b67a6eea1723d7fbefe60c01b61401c565b6106af678f92f877754640a560c01b61401c565b6106c367b1b286502da58ec460c01b61401c565b6106cb61409d565b565b7f000000000000000000000000000000000000000000000000000000000000000073ffffffffffffffffffffffffffffffffffffffff163073ffffffffffffffffffffffffffffffffffffffff160361075b576040517f08c379a000000000000000000000000000000000000000000000000000000000815260040161075290614e39565b60405180910390fd5b7f000000000000000000000000000000000000000000000000000000000000000073ffffffffffffffffffffffffffffffffffffffff1661079a613e10565b73ffffffffffffffffffffffffffffffffffffffff16146107f0576040517f08c379a00000000000000000000000000000000000000000000000000000000081526004016107e790614ecb565b60405180910390fd5b6107f982613e67565b61080582826001613eae565b5050565b60007f000000000000000000000000000000000000000000000000000000000000000073ffffffffffffffffffffffffffffffffffffffff163073ffffffffffffffffffffffffffffffffffffffff1614610899576040517f08c379a000000000000000000000000000000000000000000000000000000000815260040161089090614f5d565b60405180910390fd5b7f360894a13ba1a3210667c828492db98dca3e2076cc3735a920a3ca505d382bbc60001b905090565b6108d667c9a8e07a5d8bf00c60c01b61401c565b6108de614100565b6108f26744e74c3e5de968ff60c01b61401c565b61090667bab61cbd63cc2ebf60c01b61401c565b61091a679d8e85140068f04160c01b61401c565b61092e671fd8887af196219860c01b61401c565b61094267fe6ff2142a3d498b60c01b61401c565b60008111610985576040517f08c379a000000000000000000000000000000000000000000000000000000000815260040161097c90614fc9565b60405180910390fd5b61099967a72430edb3e6907d60c01b61401c565b6109ad6745bed5e52df7b34c60c01b61401c565b6109c1672e2866bc72e9bde360c01b61401c565b6109d567730807a90d07014360c01b61401c565b803414610a17576040517f08c379a0000000000000000000000000000000000000000000000000000000008152600401610a0e90615035565b60405180910390fd5b610a2b67e5dd6e20b36559f160c01b61401c565b610a3f6790661116296b526b60c01b61401c565b610a536747e246ee21b38e6360c01b61401c565b610a67673c4c20aa938c6cb760c01b61401c565b60fe600083815260200190815260200160002060009054906101000a900460ff16610ac7576040517f08c379a0000000000000000000000000000000000000000000000000000000008152600401610abe906150a1565b60405180910390fd5b610adb67064c432688ba512b60c01b61401c565b610aef67359b0d101b28cd7860c01b61401c565b610b0367643db889044897b660c01b61401c565b610b176743c5ef56d0805aa460c01b61401c565b610102600083815260200190815260200160002060009054906101000a900460ff1615610b79576040517f08c379a0000000000000000000000000000000000000000000000000000000008152600401610b7090615133565b60405180910390fd5b610b8d67c609643dbe9329ea60c01b61401c565b610ba167fec5ef92e2723f3960c01b61401c565b6001610102600084815260200190815260200160002060006101000a81548160ff021916908315150217905550610be267ad18129ada68382960c01b61401c565b610bf667cee8ef86d2b3677360c01b61401c565b610c0a671c440358623b81b160c01b61401c565b60ff60003373ffffffffffffffffffffffffffffffffffffffff1673ffffffffffffffffffffffffffffffffffffffff168152602001908152602001600020600083815260200190815260200160002060009054906101000a900460ff1615610ca8576040517f08c379a0000000000000000000000000000000000000000000000000000000008152600401610c9f906151c5565b60405180910390fd5b610cbc67ed12be363de3273560c01b61401c565b610cd067f909a7ff8d3467a760c01b61401c565b600160ff60003373ffffffffffffffffffffffffffffffffffffffff1673ffffffffffffffffffffffffffffffffffffffff168152602001908152602001600020600084815260200190815260200160002060006101000a81548160ff021916908315150217905550610d4d67015fbd9b6765a9d060c01b61401c565b610d6167da177fafa9f29b8860c01b61401c565b600060fc600084815260200190815260200160002060405180610100016040529081600082015481526020016001820160009054906101000a900473ffffffffffffffffffffffffffffffffffffffff1673ffffffffffffffffffffffffffffffffffffffff1673ffffffffffffffffffffffffffffffffffffffff1681526020016002820154815260200160038201548152602001600482015481526020016005820160009054906101000a900463ffffffff1663ffffffff1663ffffffff1681526020016005820160049054906101000a900463ffffffff1663ffffffff1663ffffffff1681526020016006820154815250509050610e6c67ce9d70a7b562314660c01b61401c565b610e80674b2dc91764d1496060c01b61401c565b610e94677f9220707d2d00a260c01b61401c565b600073ffffffffffffffffffffffffffffffffffffffff16816020015173ffffffffffffffffffffffffffffffffffffffff1603610f07576040517f08c379a0000000000000000000000000000000000000000000000000000000008152600401610efe90615231565b60405180910390fd5b610f1b672de0d948996d41a560c01b61401c565b610f2f67f993a64a166265c060c01b61401c565b610f4367f09e7fee1d2ec06360c01b61401c565b600081602001519050610f6067ed54a7f1160d5b5a60c01b61401c565b610f74674f716d15012e28f260c01b61401c565b610f886776be596f6f8cc86060c01b61401c565b8073ffffffffffffffffffffffffffffffffffffffff163373ffffffffffffffffffffffffffffffffffffffff1603610ff6576040517f08c379a0000000000000000000000000000000000000000000000000000000008152600401610fed9061529d565b60405180910390fd5b61100a6707af9258d2f91eff60c01b61401c565b61101e6752314da7f4c7a5da60c01b61401c565b611032678db0856912e1620e60c01b61401c565b61104667f672eb75ddd4a79260c01b61401c565b816060015183836080015161105b91906152ec565b1061109b576040517f08c379a00000000000000000000000000000000000000000000000000000000081526004016110929061536c565b60405180910390fd5b6110af67e032197a228fdc9360c01b61401c565b6110c367a6412bb71998b70260c01b61401c565b6110d767fe822f5a1de755cf60c01b61401c565b6110eb67c20b7d986767be6760c01b61401c565b81604001514210611131576040517f08c379a0000000000000000000000000000000000000000000000000000000008152600401611128906153d8565b60405180910390fd5b61114567aa0c2fa9450e162c60c01b61401c565b61115967707091dcd7928aa560c01b61401c565b61116d675653a3ebb98be1b060c01b61401c565b60008260e00151905061118a67f2151c5dcbf2e88a60c01b61401c565b61119e671cf817b31ac2c93360c01b61401c565b6111b267f3c71c98cc7d9a9160c01b61401c565b8084116111f4576040517f08c379a00000000000000000000000000000000000000000000000000000000081526004016111eb90615444565b60405180910390fd5b61120867ad91c4fcd23bfc0f60c01b61401c565b61121c6712f466cf9a6b3e6b60c01b61401c565b61123067d89d4810ba4abce860c01b61401c565b6000811461129e5761124c670df79b3b599b557960c01b61401c565b61126067bb5c66d640a9f2a960c01b61401c565b80610103600082825461127391906152ec565b9250508190555061128e6799bab5eab992dafa60c01b61401c565b60008360e00181815250506112b3565b6112b26764de4adb1c1bd6fa60c01b61401c565b5b6112c767a9105a86a81c97d360c01b61401c565b6112db6767710a4f13687b5f60c01b61401c565b600081856112e99190615464565b90506112ff67de9984e62cc4c19a60c01b61401c565b848460800181815161131191906152ec565b9150818152505061132c67d92bdc7fb3c4847360c01b61401c565b8360fc60008881526020019081526020016000206000820151816000015560208201518160010160006101000a81548173ffffffffffffffffffffffffffffffffffffffff021916908373ffffffffffffffffffffffffffffffffffffffff16021790555060408201518160020155606082015181600301556080820151816004015560a08201518160050160006101000a81548163ffffffff021916908363ffffffff16021790555060c08201518160050160046101000a81548163ffffffff021916908363ffffffff16021790555060e0820151816006015590505061141e67ad021b1a89a5dbb260c01b61401c565b6000610102600088815260200190815260200160002060006101000a81548160ff02191690831515021790555061145f675e37fe45b92491f260c01b61401c565b61147367b964dca47934416d60c01b61401c565b8273ffffffffffffffffffffffffffffffffffffffff166108fc829081150290604051600060405180830381858888f193505050501580156114b9573d6000803e3d6000fd5b506114ce679d26a90c4890fd7760c01b61401c565b6114e2677a9f4f133e1fa63f60c01b61401c565b7f0e59104d78356648ea023bd00b5f93cf6e40a67c3d6878d137423c4a6532053086338760405161151593929190615498565b60405180910390a1505050505050565b600060c960009054906101000a900460ff16905090565b61155067153ad0b1dacb5ca960c01b61401c565b611558614100565b61156c67bf4ff014ecbcd9cc60c01b61401c565b61158067768dd03bfe4d1f2260c01b61401c565b61159467be9aa89bface0ef560c01b61401c565b6115a867cf6b2aeca156d2ec60c01b61401c565b6115bc67946b22b5c8ef349560c01b61401c565b610101600082815260200190815260200160002060009054906101000a900460ff161561161e576040517f08c379a000000000000000000000000000000000000000000000000000000000815260040161161590615133565b60405180910390fd5b611632670d1fc7bb09dd7f5660c01b61401c565b611646672802fea71a780c0e60c01b61401c565b6001610101600083815260200190815260200160002060006101000a81548160ff02191690831515021790555061168767d77be1b25054559960c01b61401c565b61169b67f768681e60ca963160c01b61401c565b600060fb60008381526020019081526020016000206040518060e0016040529081600082015481526020016001820160009054906101000a900473ffffffffffffffffffffffffffffffffffffffff1673ffffffffffffffffffffffffffffffffffffffff1673ffffffffffffffffffffffffffffffffffffffff1681526020016002820154815260200160038201548152602001600482015481526020016005820160009054906101000a900463ffffffff1663ffffffff1663ffffffff1681526020016005820160049054906101000a900463ffffffff1663ffffffff1663ffffffff1681525050905061179b67618ca4f67deedc1160c01b61401c565b6117af67e4e1c066d9370cb360c01b61401c565b6117c36779c64cbf6bf620e660c01b61401c565b806020015173ffffffffffffffffffffffffffffffffffffffff163373ffffffffffffffffffffffffffffffffffffffff1614611835576040517f08c379a000000000000000000000000000000000000000000000000000000000815260040161182c9061551b565b60405180910390fd5b61184967d2904fe335a3b7ff60c01b61401c565b61185d67cfedffa47d321b7060c01b61401c565b61187167a18eb2de4e25eab960c01b61401c565b61188567b2f069e7d716512e60c01b61401c565b60fe600083815260200190815260200160002060009054906101000a900460ff166118e5576040517f08c379a00000000000000000000000000000000000000000000000000000000081526004016118dc90615587565b60405180910390fd5b6118f967220fd2fab2ae5f7460c01b61401c565b61190d67e366571811b4292360c01b61401c565b61192167b599350b1a47940c60c01b61401c565b61193567256a921f3f55586360c01b61401c565b600081608001511161197c576040517f08c379a000000000000000000000000000000000000000000000000000000000815260040161197390615619565b60405180910390fd5b611990671c072da49229aad060c01b61401c565b6119a467c6bcb229b78df54e60c01b61401c565b6119b867e2576d4dfc315fef60c01b61401c565b6119cc678db15fa6e5296bcc60c01b61401c565b80604001514211611a12576040517f08c379a0000000000000000000000000000000000000000000000000000000008152600401611a0990615685565b60405180910390fd5b611a2667642396ca07dec2b760c01b61401c565b611a3a67924b3d169060247360c01b61401c565b600060fe600084815260200190815260200160002060006101000a81548160ff021916908315150217905550611a7a6743c8bb281a4c03ec60c01b61401c565b611a8e67a264139c5c2da7ce60c01b61401c565b600081608001519050611aab6785fae00aeef0d30a60c01b61401c565b8082608001818151611abd9190615464565b91508181525050611ad86780271efe276a4ebd60c01b61401c565b8160fb60008581526020019081526020016000206000820151816000015560208201518160010160006101000a81548173ffffffffffffffffffffffffffffffffffffffff021916908373ffffffffffffffffffffffffffffffffffffffff16021790555060408201518160020155606082015181600301556080820151816004015560a08201518160050160006101000a81548163ffffffff021916908363ffffffff16021790555060c08201518160050160046101000a81548163ffffffff021916908363ffffffff160217905550905050611bc06706e7f6f01fba36cc60c01b61401c565b6000610101600085815260200190815260200160002060006101000a81548160ff021916908315150217905550611c0167883d3e83324b0f3f60c01b61401c565b611c15678b5a873ee0d87fe060c01b61401c565b3373ffffffffffffffffffffffffffffffffffffffff166108fc829081150290604051600060405180830381858888f19350505050158015611c5b573d6000803e3d6000fd5b50611c7067e21c52e5ff4e9acc60c01b61401c565b611c8467c7c184006be5c34b60c01b61401c565b7f1852ceb13126c22f394b77ad6298d993dfb7813f9b3139349e3c3f0852c1fe74833383604051611cb793929190615498565b60405180910390a1505050565b611cd867bec76193a0192ea860c01b61401c565b611ce0614100565b611cf4676df12013fec9bfa860c01b61401c565b611d0867b391ef8e088c5f5f60c01b61401c565b611d1c677be10d0d90d0b29d60c01b61401c565b611d3067d5e11724ecde245f60c01b61401c565b611d446789a36dd41983ef2c60c01b61401c565b8373ffffffffffffffffffffffffffffffffffffffff163373ffffffffffffffffffffffffffffffffffffffff1614611db2576040517f08c379a0000000000000000000000000000000000000000000000000000000008152600401611da99061551b565b60405180910390fd5b611dc6670b721b8fbebb79e160c01b61401c565b611dda6795893ecc4c975e4d60c01b61401c565b611dee67132fd71d1356a1a160c01b61401c565b611e0267a567944d7082ac1160c01b61401c565b60fe600084815260200190815260200160002060009054906101000a900460ff1615611e63576040517f08c379a0000000000000000000000000000000000000000000000000000000008152600401611e5a906156f1565b60405180910390fd5b611e7767e55e20220a86237560c01b61401c565b611e8b675a6a2af976e231d360c01b61401c565b611e9f6734a601290d06219860c01b61401c565b611eb36740ee148d416ca9c460c01b61401c565b60008211611ef6576040517f08c379a0000000000000000000000000000000000000000000000000000000008152600401611eed9061575d565b60405180910390fd5b611f0a6735350ef2724eebb160c01b61401c565b611f1e67a9219e62ecf5894a60c01b61401c565b611f32674fde264145adb32660c01b61401c565b611f4667c37f9d034642c51160c01b61401c565b60008111611f89576040517f08c379a0000000000000000000000000000000000000000000000000000000008152600401611f80906157c9565b60405180910390fd5b611f9d6775eb9b4fd850acfd60c01b61401c565b611fb1671e5e4411ed2391b060c01b61401c565b611fc567b35b83494ebcd23260c01b61401c565b611fd96733f97532448f1cae60c01b61401c565b81341461201b576040517f08c379a000000000000000000000000000000000000000000000000000000000815260040161201290615035565b60405180910390fd5b61202f6748201ee3f01cbb2e60c01b61401c565b61204367ee8c6e5fc9a4a9d260c01b61401c565b6120576714983e1361dcea9f60c01b61401c565b6000814261206591906152ec565b905061207b67e9794ab6a527f7be60c01b61401c565b600160fe600086815260200190815260200160002060006101000a81548160ff0219169083151502179055506120bb67967ce6ff933ad79b60c01b61401c565b6120cf6747f15b3210288f1b60c01b61401c565b60006040518060e001604052808681526020018773ffffffffffffffffffffffffffffffffffffffff1681526020018381526020018581526020018581526020016201388163ffffffff1681526020016101a463ffffffff16815250905061214167ce26251aac94c6d560c01b61401c565b8060fb60008781526020019081526020016000206000820151816000015560208201518160010160006101000a81548173ffffffffffffffffffffffffffffffffffffffff021916908373ffffffffffffffffffffffffffffffffffffffff16021790555060408201518160020155606082015181600301556080820151816004015560a08201518160050160006101000a81548163ffffffff021916908363ffffffff16021790555060c08201518160050160046101000a81548163ffffffff021916908363ffffffff1602179055509050506122296766d54b2312ba203160c01b61401c565b61223d67b10081b04868aecb60c01b61401c565b7f70eca58c343efaba8ae2a4073dc68f37df918cfa453bea81e607a74ccb85d12585878660405161227093929190615498565b60405180910390a1505050505050565b6101035481565b61228f61401f565b612299600061414a565b565b60fd6020528060005260406000206000915090508060000154908060010154908060020160009054906101000a900473ffffffffffffffffffffffffffffffffffffffff16908060030154908060040154908060050160009054906101000a900460ff16905086565b60fb6020528060005260406000206000915090508060000154908060010160009054906101000a900473ffffffffffffffffffffffffffffffffffffffff16908060020154908060030154908060040154908060050160009054906101000a900463ffffffff16908060050160049054906101000a900463ffffffff16905087565b61239a6765b4da09913abb9b60c01b61401c565b60008060019054906101000a900460ff161590508080156123cb5750600160008054906101000a900460ff1660ff16105b806123f857506123da30614210565b1580156123f75750600160008054906101000a900460ff1660ff16145b5b612437576040517f08c379a000000000000000000000000000000000000000000000000000000000815260040161242e9061585b565b60405180910390fd5b60016000806101000a81548160ff021916908360ff1602179055508015612474576001600060016101000a81548160ff0219169083151502179055505b612488671b890a9d5fa0699860c01b61401c565b61249c679c1b58ba52cbb22960c01b61401c565b6124b0674cd3ad5b72a590f260c01b61401c565b6124c4670d2eeded0e29a3d260c01b61401c565b6124cc614233565b6124e0677630d0b3d882dc4e60c01b61401c565b6124f467ff25d5184c14d6d960c01b61401c565b6124fc614284565b6125106742b38a91be37c70760c01b61401c565b612524678bae1a95d21e384c60c01b61401c565b61252c6142dd565b80156125855760008060016101000a81548160ff0219169083151502179055507f7f26b83ff96e1f2b6a682f133852f6798a09c465da95921460cefb3847402498600160405161257c91906158cd565b60405180910390a15b50565b61259c67fbcb11a9e597a41a60c01b61401c565b6125a461401f565b6125b86725ed8591d401cc9460c01b61401c565b6125cc67a6c58e8bb99d2d9160c01b61401c565b6125e0671286568ed6c3508960c01b61401c565b6125f4671713377dca3814b760c01b61401c565b6125fc614336565b565b6000609760009054906101000a900473ffffffffffffffffffffffffffffffffffffffff16905090565b61263c67f57c19f52f87471e60c01b61401c565b61264461401f565b612658676a8396bef7b9e66c60c01b61401c565b61266c6708396df170e1aaed60c01b61401c565b612674614100565b61268867529e20ad5de36e3860c01b61401c565b61269c67202145e8c63acdd160c01b61401c565b6126b067bad2712f26206ff160c01b61401c565b6126c4671913cd9df2f92e6160c01b61401c565b6126d8671bc118ced07114d460c01b61401c565b60fe600086815260200190815260200160002060009054906101000a900460ff1615612739576040517f08c379a00000000000000000000000000000000000000000000000000000000081526004016127309061595a565b60405180910390fd5b61274d676cdb12eb4a83007f60c01b61401c565b6127616716582f925d655fbd60c01b61401c565b6127756746260184587cd61060c01b61401c565b6127896740640ff9e935e58960c01b61401c565b600082116127cc576040517f08c379a00000000000000000000000000000000000000000000000000000000081526004016127c3906159c6565b60405180910390fd5b6127e06770692f2cbe517c2b60c01b61401c565b6127f467b06e1a2181150b5a60c01b61401c565b61280867cc7d03f87254deac60c01b61401c565b600061281e67dd935f0302fccf6360c01b61401c565b612832674a7d7302e9bec54d60c01b61401c565b6000844261284091906152ec565b905061285667f59abfc5fdf8f2f560c01b61401c565b61286a67c76508150f8204f960c01b61401c565b60006040518061010001604052808981526020018873ffffffffffffffffffffffffffffffffffffffff1681526020018381526020018681526020018481526020016101a463ffffffff1681526020016201388163ffffffff1681526020018581525090506128e36755c449d9e0533c6b60c01b61401c565b8060fc60008a81526020019081526020016000206000820151816000015560208201518160010160006101000a81548173ffffffffffffffffffffffffffffffffffffffff021916908373ffffffffffffffffffffffffffffffffffffffff16021790555060408201518160020155606082015181600301556080820151816004015560a08201518160050160006101000a81548163ffffffff021916908363ffffffff16021790555060c08201518160050160046101000a81548163ffffffff021916908363ffffffff16021790555060e082015181600601559050506129d56797e72f4597152c6660c01b61401c565b600160fe60008a815260200190815260200160002060006101000a81548160ff021916908315150217905550612a1567a7f594d46c7264b260c01b61401c565b612a2967743b1551cfa9b00960c01b61401c565b7f244d7078e79ff879576610bab60172dae6b48ee3189d25f86f76abc0c37582888888604051612a5a9291906159e6565b60405180910390a15050505050505050565b612a8067c53f207521c5720760c01b61401c565b612a8861401f565b612a9c670bc59c10f0d9ef9360c01b61401c565b612ab0679312574a6bdf87cb60c01b61401c565b612ab8614100565b612acc67369dc962490d631e60c01b61401c565b612ae0671a7b7213dd7f00cc60c01b61401c565b612af4677143631d15d62c9560c01b61401c565b612b0867f1a52bb64d94dc2260c01b61401c565b612b1c67945798d3c1f97d5960c01b61401c565b610100600086815260200190815260200160002060009054906101000a900460ff1615612b7e576040517f08c379a0000000000000000000000000000000000000000000000000000000008152600401612b7590615a5b565b60405180910390fd5b612b9267f5edf760466342b360c01b61401c565b612ba667d1b6bab3c884121f60c01b61401c565b612bba67b2dc6ff71e7bcc6960c01b61401c565b612bce6713471ea5e2441f2160c01b61401c565b60fe600085815260200190815260200160002060009054906101000a900460ff16612c2e576040517f08c379a0000000000000000000000000000000000000000000000000000000008152600401612c2590615aed565b60405180910390fd5b612c4267b5b0c0d7b09fc1f360c01b61401c565b612c5667eb83e3d899a1e3d160c01b61401c565b612c6a678a179234a23d3fa160c01b61401c565b612c7e670528c57023036df860c01b61401c565b60008211612cc1576040517f08c379a0000000000000000000000000000000000000000000000000000000008152600401612cb8906159c6565b60405180910390fd5b612cd56742cc1b08f2479ce060c01b61401c565b612ce967f039c3623467dbc260c01b61401c565b612cfd67a4e2ed2bd90adf2e60c01b61401c565b612d1167fbb9a435a7ec22c960c01b61401c565b808211612d53576040517f08c379a0000000000000000000000000000000000000000000000000000000008152600401612d4a90615b7f565b60405180910390fd5b612d676792de77d84c16220360c01b61401c565b612d7b67480c1394b382d79560c01b61401c565b612d8f674d1d33c144440fc360c01b61401c565b6000612da5676635a66c5fc677b160c01b61401c565b612db967d1dbf17f61599c9760c01b61401c565b60006040518060c001604052808881526020018781526020018673ffffffffffffffffffffffffffffffffffffffff1681526020018581526020018481526020018315158152509050612e1667d5b3bb3d678bafb860c01b61401c565b8060fd6000898152602001908152602001600020600082015181600001556020820151816001015560408201518160020160006101000a81548173ffffffffffffffffffffffffffffffffffffffff021916908373ffffffffffffffffffffffffffffffffffffffff160217905550606082015181600301556080820151816004015560a08201518160050160006101000a81548160ff021916908315150217905550905050612ed067a7880b1567b8690060c01b61401c565b6001610100600089815260200190815260200160002060006101000a81548160ff021916908315150217905550612f116744d56061f71b98a960c01b61401c565b612f25676e2e98a65f97127560c01b61401c565b7fcae8f20940e3c6d60e303e7ac879e97f3f9736b43dd74d366948f1cdfc8e9f778786604051612f569291906159e6565b60405180910390a150505050505050565b612f7b6719bdbc2216d65e8e60c01b61401c565b612f83614100565b612f97676861219cae8f77e960c01b61401c565b612fab67928bb4d3b33c91e860c01b61401c565b612fbf673367cd346416c34760c01b61401c565b612fd367d65568c802af88ae60c01b61401c565b612fe767035a477ac9a9a21f60c01b61401c565b6000341461302a576040517f08c379a000000000000000000000000000000000000000000000000000000000815260040161302190615beb565b60405180910390fd5b61303e67fa31ae3eb0d81a7f60c01b61401c565b61305267571d66b86aef479460c01b61401c565b613066673ca2782cfd265d0860c01b61401c565b61307a67927a61e3daceaa0960c01b61401c565b610100600082815260200190815260200160002060009054906101000a900460ff166130db576040517f08c379a00000000000000000000000000000000000000000000000000000000081526004016130d290615c57565b60405180910390fd5b6130ef67f11d1a76730022eb60c01b61401c565b6131036728b3bc8c1d0659df60c01b61401c565b6000610100600083815260200190815260200160002060006101000a81548160ff021916908315150217905550613144671a84f3f864c0defd60c01b61401c565b61315867ac2a9025e99ec0e360c01b61401c565b600060fd60008381526020019081526020016000206040518060c001604052908160008201548152602001600182015481526020016002820160009054906101000a900473ffffffffffffffffffffffffffffffffffffffff1673ffffffffffffffffffffffffffffffffffffffff1673ffffffffffffffffffffffffffffffffffffffff16815260200160038201548152602001600482015481526020016005820160009054906101000a900460ff1615151515815250509050613227671c6daf5299c1371460c01b61401c565b61323b67c0274e2accd4e60160c01b61401c565b600081602001519050613258673283ecec8592bef960c01b61401c565b61326c673c89fd9733edc7ef60c01b61401c565b61328067521ff7e63e39cc4760c01b61401c565b610101600082815260200190815260200160002060009054906101000a900460ff16156132e2576040517f08c379a00000000000000000000000000000000000000000000000000000000081526004016132d990615133565b60405180910390fd5b6132f667a6202e69c12b9e7460c01b61401c565b61330a67d992cd5c17c553cc60c01b61401c565b6001610101600083815260200190815260200160002060006101000a81548160ff02191690831515021790555061334b67df40eef2e3f1273060c01b61401c565b61335f674bfcebfc4d95fee460c01b61401c565b6000826080015183606001516133759190615464565b905061338b67f5ddfd9fb19a8e7860c01b61401c565b61339f67bb623e075f45bd8660c01b61401c565b6000836040015190506133bc678260985af01118b660c01b61401c565b6133d0675231a7eab73310b960c01b61401c565b6133e467db7b6a2f2d3ad8f760c01b61401c565b600073ffffffffffffffffffffffffffffffffffffffff168173ffffffffffffffffffffffffffffffffffffffff1603613453576040517f08c379a000000000000000000000000000000000000000000000000000000000815260040161344a90615cc3565b60405180910390fd5b613467671b851c41c3b1ee2360c01b61401c565b61347b676e862a6d2afba3f960c01b61401c565b61348f67cd64e34eedbd11a660c01b61401c565b6134a367541135bf23f2993660c01b61401c565b8073ffffffffffffffffffffffffffffffffffffffff163373ffffffffffffffffffffffffffffffffffffffff1614613511576040517f08c379a00000000000000000000000000000000000000000000000000000000081526004016135089061551b565b60405180910390fd5b6135256760d29f6073cf628c60c01b61401c565b6135396714893dced32ce1e160c01b61401c565b61354d67b27b38627dc66a1a60c01b61401c565b61356167d39c19a94d9bd04f60c01b61401c565b600082116135a4576040517f08c379a000000000000000000000000000000000000000000000000000000000815260040161359b90615d2f565b60405180910390fd5b6135b8675832574cc08cb2fd60c01b61401c565b6135cc67f7c33a47360aa71f60c01b61401c565b6135e067cb977312a1a81a1460c01b61401c565b6135f467f8fb8dfad0838f1d60c01b61401c565b60fe600084815260200190815260200160002060009054906101000a900460ff16613654576040517f08c379a000000000000000000000000000000000000000000000000000000000815260040161364b90615aed565b60405180910390fd5b6136686764e7b04e21f1662060c01b61401c565b61367c6738ef1c49c9a228b160c01b61401c565b6136906799aca5cab44a1eda60c01b61401c565b600060fb60008581526020019081526020016000206040518060e0016040529081600082015481526020016001820160009054906101000a900473ffffffffffffffffffffffffffffffffffffffff1673ffffffffffffffffffffffffffffffffffffffff1673ffffffffffffffffffffffffffffffffffffffff1681526020016002820154815260200160038201548152602001600482015481526020016005820160009054906101000a900463ffffffff1663ffffffff1663ffffffff1681526020016005820160049054906101000a900463ffffffff1663ffffffff1663ffffffff16815250509050613790676af3cd3bf5fa2fe060c01b61401c565b6137a4678570c3e2bf9437e860c01b61401c565b6137b8671eaf725f03ac91e160c01b61401c565b806040015142106137fe576040517f08c379a00000000000000000000000000000000000000000000000000000000081526004016137f590615dc1565b60405180910390fd5b61381267d1e9c191a1b7040660c01b61401c565b613826675e840976c04061f460c01b61401c565b61383a67a458db666011d61f60c01b61401c565b61384e67787e81d8eaf167ee60c01b61401c565b806080015185606001511115613899576040517f08c379a000000000000000000000000000000000000000000000000000000000815260040161389090615e53565b60405180910390fd5b6138ad677327daebd00265e560c01b61401c565b6138c167b242350f97d793d660c01b61401c565b8460600151816080018181516138d79190615464565b915081815250506138f26721f6afd9339028a160c01b61401c565b60018560a0019015159081151581525050613917673064389fd59ea2b560c01b61401c565b8060fb60008681526020019081526020016000206000820151816000015560208201518160010160006101000a81548173ffffffffffffffffffffffffffffffffffffffff021916908373ffffffffffffffffffffffffffffffffffffffff16021790555060408201518160020155606082015181600301556080820151816004015560a08201518160050160006101000a81548163ffffffff021916908363ffffffff16021790555060c08201518160050160046101000a81548163ffffffff021916908363ffffffff1602179055509050506139ff67ba0e6bc6475e305a60c01b61401c565b8460fd6000888152602001908152602001600020600082015181600001556020820151816001015560408201518160020160006101000a81548173ffffffffffffffffffffffffffffffffffffffff021916908373ffffffffffffffffffffffffffffffffffffffff160217905550606082015181600301556080820151816004015560a08201518160050160006101000a81548160ff021916908315150217905550905050613ab9673b876c56149550a860c01b61401c565b84608001516101036000828254613ad091906152ec565b92505081905550613aeb67f7b98f45bf942e1b60c01b61401c565b6000610101600086815260200190815260200160002060006101000a81548160ff021916908315150217905550613b2c6783bb01c66da820cf60c01b61401c565b613b406779b5055b51f1f12860c01b61401c565b8173ffffffffffffffffffffffffffffffffffffffff166108fc849081150290604051600060405180830381858888f19350505050158015613b86573d6000803e3d6000fd5b50613b9b67f1e7aed39ec2072b60c01b61401c565b613baf67695dda05ed5a31bc60c01b61401c565b7f217de69216c60b6e5c5108753aeccf4f10269eeff9b93f206552d2d3d1d04bc5868533604051613be293929190615e73565b60405180910390a1505050505050565b613c0667116cc55389d4ae5a60c01b61401c565b613c0e61401f565b613c226722ab3878feac8d8e60c01b61401c565b613c366757fcbadec027f50360c01b61401c565b613c3e614100565b613c5267b80c970f25aa7c6f60c01b61401c565b613c666722468ab8d1ad5cd860c01b61401c565b613c7a679ee1db2cfe70e5ae60c01b61401c565b613c8e6734e528ef5f66c84d60c01b61401c565b613ca267c7052a06b20f2b1060c01b61401c565b60006101035411613ce8576040517f08c379a0000000000000000000000000000000000000000000000000000000008152600401613cdf90615ef6565b60405180910390fd5b613cfc67a74804f20cb95e8360c01b61401c565b613d10674b24e74d6cdbd67660c01b61401c565b613d2467819c9690c4a6a98860c01b61401c565b3373ffffffffffffffffffffffffffffffffffffffff166108fc610103549081150290604051600060405180830381858888f19350505050158015613d6d573d6000803e3d6000fd5b50613d8267bd11e2232dfc980f60c01b61401c565b600061010381905550565b613d9561401f565b600073ffffffffffffffffffffffffffffffffffffffff168173ffffffffffffffffffffffffffffffffffffffff1603613e04576040517f08c379a0000000000000000000000000000000000000000000000000000000008152600401613dfb90615f88565b60405180910390fd5b613e0d8161414a565b50565b6000613e3e7f360894a13ba1a3210667c828492db98dca3e2076cc3735a920a3ca505d382bbc60001b614399565b60000160009054906101000a900473ffffffffffffffffffffffffffffffffffffffff16905090565b613e7b6728517f1257abab5860c01b61401c565b613e8361401f565b613e9767f222baf02967bfe860c01b61401c565b613eab674effedccb4d78ed860c01b61401c565b50565b613eda7f4910fdfa16fed3260ed0e7147f7cc6da11a60208b5b9406d12a635614ffd914360001b6143a3565b60000160009054906101000a900460ff1615613efe57613ef9836143ad565b614017565b8273ffffffffffffffffffffffffffffffffffffffff166352d1902d6040518163ffffffff1660e01b8152600401602060405180830381865afa925050508015613f6657506040513d601f19601f82011682018060405250810190613f639190615fd4565b60015b613fa5576040517f08c379a0000000000000000000000000000000000000000000000000000000008152600401613f9c90616073565b60405180910390fd5b7f360894a13ba1a3210667c828492db98dca3e2076cc3735a920a3ca505d382bbc60001b811461400a576040517f08c379a000000000000000000000000000000000000000000000000000000000815260040161400190616105565b60405180910390fd5b50614016838383614466565b5b505050565b50565b614027614492565b73ffffffffffffffffffffffffffffffffffffffff166140456125fe565b73ffffffffffffffffffffffffffffffffffffffff161461409b576040517f08c379a000000000000000000000000000000000000000000000000000000000815260040161409290616171565b60405180910390fd5b565b6140a561449a565b600060c960006101000a81548160ff0219169083151502179055507f5db9ee0a495bf2e6ff9c91a7834c1ba4fdd244a5e8aa4e537bd38aeae4b073aa6140e9614492565b6040516140f69190614ca5565b60405180910390a1565b614108611525565b15614148576040517f08c379a000000000000000000000000000000000000000000000000000000000815260040161413f906161dd565b60405180910390fd5b565b6000609760009054906101000a900473ffffffffffffffffffffffffffffffffffffffff16905081609760006101000a81548173ffffffffffffffffffffffffffffffffffffffff021916908373ffffffffffffffffffffffffffffffffffffffff1602179055508173ffffffffffffffffffffffffffffffffffffffff168173ffffffffffffffffffffffffffffffffffffffff167f8be0079c531659141344cd1fd0a4f28419497f9722a3daafe3b4186f6b6457e060405160405180910390a35050565b6000808273ffffffffffffffffffffffffffffffffffffffff163b119050919050565b600060019054906101000a900460ff16614282576040517f08c379a00000000000000000000000000000000000000000000000000000000081526004016142799061626f565b60405180910390fd5b565b600060019054906101000a900460ff166142d3576040517f08c379a00000000000000000000000000000000000000000000000000000000081526004016142ca9061626f565b60405180910390fd5b6142db6144e3565b565b600060019054906101000a900460ff1661432c576040517f08c379a00000000000000000000000000000000000000000000000000000000081526004016143239061626f565b60405180910390fd5b614334614544565b565b61433e614100565b600160c960006101000a81548160ff0219169083151502179055507f62e78cea01bee320cd4e420270b5ea74000d11b0c9f74754ebdbfc544b05a258614382614492565b60405161438f9190614ca5565b60405180910390a1565b6000819050919050565b6000819050919050565b6143b681614210565b6143f5576040517f08c379a00000000000000000000000000000000000000000000000000000000081526004016143ec90616301565b60405180910390fd5b806144227f360894a13ba1a3210667c828492db98dca3e2076cc3735a920a3ca505d382bbc60001b614399565b60000160006101000a81548173ffffffffffffffffffffffffffffffffffffffff021916908373ffffffffffffffffffffffffffffffffffffffff16021790555050565b61446f836145b0565b60008251118061447c5750805b1561448d5761448b83836145ff565b505b505050565b600033905090565b6144a2611525565b6144e1576040517f08c379a00000000000000000000000000000000000000000000000000000000081526004016144d89061636d565b60405180910390fd5b565b600060019054906101000a900460ff16614532576040517f08c379a00000000000000000000000000000000000000000000000000000000081526004016145299061626f565b60405180910390fd5b61454261453d614492565b61414a565b565b600060019054906101000a900460ff16614593576040517f08c379a000000000000000000000000000000000000000000000000000000000815260040161458a9061626f565b60405180910390fd5b600060c960006101000a81548160ff021916908315150217905550565b6145b9816143ad565b8073ffffffffffffffffffffffffffffffffffffffff167fbc7cd75a20ee27fd9adebab32041f755214dbc6bffa90cc0225b39da2e5c2d3b60405160405180910390a250565b606061460a83614210565b614649576040517f08c379a0000000000000000000000000000000000000000000000000000000008152600401614640906163ff565b60405180910390fd5b6000808473ffffffffffffffffffffffffffffffffffffffff16846040516146719190616490565b600060405180830381855af49150503d80600081146146ac576040519150601f19603f3d011682016040523d82523d6000602084013e6146b1565b606091505b50915091506146d9828260405180606001604052806027815260200161650e602791396146e3565b9250505092915050565b606083156146f357829050614743565b6000835111156147065782518084602001fd5b816040517f08c379a000000000000000000000000000000000000000000000000000000000815260040161473a91906164eb565b60405180910390fd5b9392505050565b6000604051905090565b600080fd5b600080fd5b6000819050919050565b6147718161475e565b811461477c57600080fd5b50565b60008135905061478e81614768565b92915050565b6000602082840312156147aa576147a9614754565b5b60006147b88482850161477f565b91505092915050565b6147ca8161475e565b82525050565b600073ffffffffffffffffffffffffffffffffffffffff82169050919050565b60006147fb826147d0565b9050919050565b61480b816147f0565b82525050565b600063ffffffff82169050919050565b61482a81614811565b82525050565b600061010082019050614846600083018b6147c1565b614853602083018a614802565b61486060408301896147c1565b61486d60608301886147c1565b61487a60808301876147c1565b61488760a0830186614821565b61489460c0830185614821565b6148a160e08301846147c1565b9998505050505050505050565b6148b7816147f0565b81146148c257600080fd5b50565b6000813590506148d4816148ae565b92915050565b6000602082840312156148f0576148ef614754565b5b60006148fe848285016148c5565b91505092915050565b600080fd5b600080fd5b6000601f19601f8301169050919050565b7f4e487b7100000000000000000000000000000000000000000000000000000000600052604160045260246000fd5b61495a82614911565b810181811067ffffffffffffffff8211171561497957614978614922565b5b80604052505050565b600061498c61474a565b90506149988282614951565b919050565b600067ffffffffffffffff8211156149b8576149b7614922565b5b6149c182614911565b9050602081019050919050565b82818337600083830152505050565b60006149f06149eb8461499d565b614982565b905082815260208101848484011115614a0c57614a0b61490c565b5b614a178482856149ce565b509392505050565b600082601f830112614a3457614a33614907565b5b8135614a448482602086016149dd565b91505092915050565b60008060408385031215614a6457614a63614754565b5b6000614a72858286016148c5565b925050602083013567ffffffffffffffff811115614a9357614a92614759565b5b614a9f85828601614a1f565b9150509250929050565b6000819050919050565b614abc81614aa9565b82525050565b6000602082019050614ad76000830184614ab3565b92915050565b60008060408385031215614af457614af3614754565b5b6000614b028582860161477f565b9250506020614b138582860161477f565b9150509250929050565b60008115159050919050565b614b3281614b1d565b82525050565b6000602082019050614b4d6000830184614b29565b92915050565b60008060008060808587031215614b6d57614b6c614754565b5b6000614b7b878288016148c5565b9450506020614b8c8782880161477f565b9350506040614b9d8782880161477f565b9250506060614bae8782880161477f565b91505092959194509250565b6000602082019050614bcf60008301846147c1565b92915050565b600060c082019050614bea60008301896147c1565b614bf760208301886147c1565b614c046040830187614802565b614c1160608301866147c1565b614c1e60808301856147c1565b614c2b60a0830184614b29565b979650505050505050565b600060e082019050614c4b600083018a6147c1565b614c586020830189614802565b614c6560408301886147c1565b614c7260608301876147c1565b614c7f60808301866147c1565b614c8c60a0830185614821565b614c9960c0830184614821565b98975050505050505050565b6000602082019050614cba6000830184614802565b92915050565b600080600080600060a08688031215614cdc57614cdb614754565b5b6000614cea8882890161477f565b9550506020614cfb888289016148c5565b9450506040614d0c8882890161477f565b9350506060614d1d8882890161477f565b9250506080614d2e8882890161477f565b9150509295509295909350565b600080600080600060a08688031215614d5757614d56614754565b5b6000614d658882890161477f565b9550506020614d768882890161477f565b9450506040614d87888289016148c5565b9350506060614d988882890161477f565b9250506080614da98882890161477f565b9150509295509295909350565b600082825260208201905092915050565b7f46756e6374696f6e206d7573742062652063616c6c6564207468726f7567682060008201527f64656c656761746563616c6c0000000000000000000000000000000000000000602082015250565b6000614e23602c83614db6565b9150614e2e82614dc7565b604082019050919050565b60006020820190508181036000830152614e5281614e16565b9050919050565b7f46756e6374696f6e206d7573742062652063616c6c6564207468726f7567682060008201527f6163746976652070726f78790000000000000000000000000000000000000000602082015250565b6000614eb5602c83614db6565b9150614ec082614e59565b604082019050919050565b60006020820190508181036000830152614ee481614ea8565b9050919050565b7f555550535570677261646561626c653a206d757374206e6f742062652063616c60008201527f6c6564207468726f7567682064656c656761746563616c6c0000000000000000602082015250565b6000614f47603883614db6565b9150614f5282614eeb565b604082019050919050565b60006020820190508181036000830152614f7681614f3a565b9050919050565b7f616d6f756e742063616e6e6f74206265207a65726f0000000000000000000000600082015250565b6000614fb3601583614db6565b9150614fbe82614f7d565b602082019050919050565b60006020820190508181036000830152614fe281614fa6565b9050919050565b7f73656e64207269676874206465706f7369740000000000000000000000000000600082015250565b600061501f601283614db6565b915061502a82614fe9565b602082019050919050565b6000602082019050818103600083015261504e81615012565b9050919050565b7f747261646520446f6573206e6f74206578697374000000000000000000000000600082015250565b600061508b601483614db6565b915061509682615055565b602082019050919050565b600060208201905081810360008301526150ba8161507e565b9050919050565b7f506c656173652073656e64207472616e73616374696f6e20696e20736f6d652060008201527f74696d6500000000000000000000000000000000000000000000000000000000602082015250565b600061511d602483614db6565b9150615128826150c1565b604082019050919050565b6000602082019050818103600083015261514c81615110565b9050919050565b7f796f752063616e206f6e6c79206f707420666f722061207472616465206f6e6360008201527f6500000000000000000000000000000000000000000000000000000000000000602082015250565b60006151af602183614db6565b91506151ba82615153565b604082019050919050565b600060208201905081810360008301526151de816151a2565b9050919050565b7f7468697320747261646520646f6573206e6f7420657869737400000000000000600082015250565b600061521b601983614db6565b9150615226826151e5565b602082019050919050565b6000602082019050818103600083015261524a8161520e565b9050919050565b7f73656c6c65722063616e74206275790000000000000000000000000000000000600082015250565b6000615287600f83614db6565b915061529282615251565b602082019050919050565b600060208201905081810360008301526152b68161527a565b9050919050565b7f4e487b7100000000000000000000000000000000000000000000000000000000600052601160045260246000fd5b60006152f78261475e565b91506153028361475e565b925082820190508082111561531a576153196152bd565b5b92915050565b7f546865207472616465206e6f206c6f6e676572206861732066756e6473000000600082015250565b6000615356601d83614db6565b915061536182615320565b602082019050919050565b6000602082019050818103600083015261538581615349565b9050919050565b7f546869732074726164652068617320656e646564000000000000000000000000600082015250565b60006153c2601483614db6565b91506153cd8261538c565b602082019050919050565b600060208201905081810360008301526153f1816153b5565b9050919050565b7f6465706f73697420746f6f206c6f770000000000000000000000000000000000600082015250565b600061542e600f83614db6565b9150615439826153f8565b602082019050919050565b6000602082019050818103600083015261545d81615421565b9050919050565b600061546f8261475e565b915061547a8361475e565b9250828203905081811115615492576154916152bd565b5b92915050565b60006060820190506154ad60008301866147c1565b6154ba6020830185614802565b6154c760408301846147c1565b949350505050565b7f756e617574686f72697a65640000000000000000000000000000000000000000600082015250565b6000615505600c83614db6565b9150615510826154cf565b602082019050919050565b60006020820190508181036000830152615534816154f8565b9050919050565b7f73746f702067657420736f6d652068656c700000000000000000000000000000600082015250565b6000615571601283614db6565b915061557c8261553b565b602082019050919050565b600060208201905081810360008301526155a081615564565b9050919050565b7f746865726520617265206e6f2066756e647320617661696c61626c6520666f7260008201527f20726566756e6400000000000000000000000000000000000000000000000000602082015250565b6000615603602783614db6565b915061560e826155a7565b604082019050919050565b60006020820190508181036000830152615632816155f6565b9050919050565b7f746865207472616465206973206f6e676f696e67000000000000000000000000600082015250565b600061566f601483614db6565b915061567a82615639565b602082019050919050565b6000602082019050818103600083015261569e81615662565b9050919050565b7f747261646520616c726561647920657869737473000000000000000000000000600082015250565b60006156db601483614db6565b91506156e6826156a5565b602082019050919050565b6000602082019050818103600083015261570a816156ce565b9050919050565b7f4e6f6e207a65726f2076616c756573206f6e6c79000000000000000000000000600082015250565b6000615747601483614db6565b915061575282615711565b602082019050919050565b600060208201905081810360008301526157768161573a565b9050919050565b7f456e6474696d65206d7573742062652067726561746572000000000000000000600082015250565b60006157b3601783614db6565b91506157be8261577d565b602082019050919050565b600060208201905081810360008301526157e2816157a6565b9050919050565b7f496e697469616c697a61626c653a20636f6e747261637420697320616c72656160008201527f647920696e697469616c697a6564000000000000000000000000000000000000602082015250565b6000615845602e83614db6565b9150615850826157e9565b604082019050919050565b6000602082019050818103600083015261587481615838565b9050919050565b6000819050919050565b600060ff82169050919050565b6000819050919050565b60006158b76158b26158ad8461587b565b615892565b615885565b9050919050565b6158c78161589c565b82525050565b60006020820190506158e260008301846158be565b92915050565b7f547261646520636c6f6e6520616c72656164792065786973747320616e64206960008201527f6e2070726f677265737300000000000000000000000000000000000000000000602082015250565b6000615944602a83614db6565b915061594f826158e8565b604082019050919050565b6000602082019050818103600083015261597381615937565b9050919050565b7f6e6f6e207a65726f2076616c756573206f6e6c79000000000000000000000000600082015250565b60006159b0601483614db6565b91506159bb8261597a565b602082019050919050565b600060208201905081810360008301526159df816159a3565b9050919050565b60006040820190506159fb60008301856147c1565b615a086020830184614802565b9392505050565b7f73776170207374696c6c20696e2070726f677265737300000000000000000000600082015250565b6000615a45601683614db6565b9150615a5082615a0f565b602082019050919050565b60006020820190508181036000830152615a7481615a38565b9050919050565b7f54726164652068617320656e646564206f7220646f6573206e6f74206578697360008201527f7400000000000000000000000000000000000000000000000000000000000000602082015250565b6000615ad7602183614db6565b9150615ae282615a7b565b604082019050919050565b60006020820190508181036000830152615b0681615aca565b9050919050565b7f616d6f756e742073686f756c642062652067726561746572207468616e20666560008201527f6500000000000000000000000000000000000000000000000000000000000000602082015250565b6000615b69602183614db6565b9150615b7482615b0d565b604082019050919050565b60006020820190508181036000830152615b9881615b5c565b9050919050565b7f646f206e6f74206465706f736974207768696c65207769746864726177616c00600082015250565b6000615bd5601f83614db6565b9150615be082615b9f565b602082019050919050565b60006020820190508181036000830152615c0481615bc8565b9050919050565b7f7377617020646f6573206e6f7420657869737400000000000000000000000000600082015250565b6000615c41601383614db6565b9150615c4c82615c0b565b602082019050919050565b60006020820190508181036000830152615c7081615c34565b9050919050565b7f7377617020697320696e76616c69640000000000000000000000000000000000600082015250565b6000615cad600f83614db6565b9150615cb882615c77565b602082019050919050565b60006020820190508181036000830152615cdc81615ca0565b9050919050565b7f616d6f756e74206973207a65726f000000000000000000000000000000000000600082015250565b6000615d19600e83614db6565b9150615d2482615ce3565b602082019050919050565b60006020820190508181036000830152615d4881615d0c565b9050919050565b7f74696d6520686173206578636565646564207472616465206e6f206c6f6e676560008201527f7220657869737473000000000000000000000000000000000000000000000000602082015250565b6000615dab602883614db6565b9150615db682615d4f565b604082019050919050565b60006020820190508181036000830152615dda81615d9e565b9050919050565b7f616d6f756e74206578636565647320747261646520616d6f756e7420706c656160008201527f7365207265636865636b00000000000000000000000000000000000000000000602082015250565b6000615e3d602a83614db6565b9150615e4882615de1565b604082019050919050565b60006020820190508181036000830152615e6c81615e30565b9050919050565b6000606082019050615e8860008301866147c1565b615e9560208301856147c1565b615ea26040830184614802565b949350505050565b7f6e6f206665657320617661696c61626c65000000000000000000000000000000600082015250565b6000615ee0601183614db6565b9150615eeb82615eaa565b602082019050919050565b60006020820190508181036000830152615f0f81615ed3565b9050919050565b7f4f776e61626c653a206e6577206f776e657220697320746865207a65726f206160008201527f6464726573730000000000000000000000000000000000000000000000000000602082015250565b6000615f72602683614db6565b9150615f7d82615f16565b604082019050919050565b60006020820190508181036000830152615fa181615f65565b9050919050565b615fb181614aa9565b8114615fbc57600080fd5b50565b600081519050615fce81615fa8565b92915050565b600060208284031215615fea57615fe9614754565b5b6000615ff884828501615fbf565b91505092915050565b7f45524331393637557067726164653a206e657720696d706c656d656e7461746960008201527f6f6e206973206e6f742055555053000000000000000000000000000000000000602082015250565b600061605d602e83614db6565b915061606882616001565b604082019050919050565b6000602082019050818103600083015261608c81616050565b9050919050565b7f45524331393637557067726164653a20756e737570706f727465642070726f7860008201527f6961626c65555549440000000000000000000000000000000000000000000000602082015250565b60006160ef602983614db6565b91506160fa82616093565b604082019050919050565b6000602082019050818103600083015261611e816160e2565b9050919050565b7f4f776e61626c653a2063616c6c6572206973206e6f7420746865206f776e6572600082015250565b600061615b602083614db6565b915061616682616125565b602082019050919050565b6000602082019050818103600083015261618a8161614e565b9050919050565b7f5061757361626c653a2070617573656400000000000000000000000000000000600082015250565b60006161c7601083614db6565b91506161d282616191565b602082019050919050565b600060208201905081810360008301526161f6816161ba565b9050919050565b7f496e697469616c697a61626c653a20636f6e7472616374206973206e6f74206960008201527f6e697469616c697a696e67000000000000000000000000000000000000000000602082015250565b6000616259602b83614db6565b9150616264826161fd565b604082019050919050565b600060208201905081810360008301526162888161624c565b9050919050565b7f455243313936373a206e657720696d706c656d656e746174696f6e206973206e60008201527f6f74206120636f6e747261637400000000000000000000000000000000000000602082015250565b60006162eb602d83614db6565b91506162f68261628f565b604082019050919050565b6000602082019050818103600083015261631a816162de565b9050919050565b7f5061757361626c653a206e6f7420706175736564000000000000000000000000600082015250565b6000616357601483614db6565b915061636282616321565b602082019050919050565b600060208201905081810360008301526163868161634a565b9050919050565b7f416464726573733a2064656c65676174652063616c6c20746f206e6f6e2d636f60008201527f6e74726163740000000000000000000000000000000000000000000000000000602082015250565b60006163e9602683614db6565b91506163f48261638d565b604082019050919050565b60006020820190508181036000830152616418816163dc565b9050919050565b600081519050919050565b600081905092915050565b60005b83811015616453578082015181840152602081019050616438565b60008484015250505050565b600061646a8261641f565b616474818561642a565b9350616484818560208601616435565b80840191505092915050565b600061649c828461645f565b915081905092915050565b600081519050919050565b60006164bd826164a7565b6164c78185614db6565b93506164d7818560208601616435565b6164e081614911565b840191505092915050565b6000602082019050818103600083015261650581846164b2565b90509291505056fe416464726573733a206c6f772d6c6576656c2064656c65676174652063616c6c206661696c6564a26469706673582212207ae3aca508a7c91d35f7501b5330da4a63ba8317836eb499ac95dd833fa5cd4664736f6c63430008110033",
  "linkReferences": {},
  "deployedLinkReferences": {}
}