{
  "_format": "hh-sol-artifact-1",
  "contractName": "Chai",
  "sourceName": "contracts/Chait.sol",
  "abi": [
    {
      "inputs": [],
      "stateMutability": "nonpayable",
      "type": "constructor"
    },
    {
      "anonymous": false,
      "inputs": [
        {
          "indexed": false,
          "internalType": "address",
          "name": "previousAdmin",
          "type": "address"
        },
        {
          "indexed": false,
          "internalType": "address",
          "name": "newAdmin",
          "type": "address"
        }
      ],
      "name": "AdminChanged",
      "type": "event"
    },
    {
      "anonymous": false,
      "inputs": [
        {
          "indexed": true,
          "internalType": "address",
          "name": "owner",
          "type": "address"
        },
        {
          "indexed": true,
          "internalType": "address",
          "name": "spender",
          "type": "address"
        },
        {
          "indexed": false,
          "internalType": "uint256",
          "name": "value",
          "type": "uint256"
        }
      ],
      "name": "Approval",
      "type": "event"
    },
    {
      "anonymous": false,
      "inputs": [
        {
          "indexed": true,
          "internalType": "address",
          "name": "beacon",
          "type": "address"
        }
      ],
      "name": "BeaconUpgraded",
      "type": "event"
    },
    {
      "anonymous": false,
      "inputs": [
        {
          "indexed": false,
          "internalType": "uint8",
          "name": "version",
          "type": "uint8"
        }
      ],
      "name": "Initialized",
      "type": "event"
    },
    {
      "anonymous": false,
      "inputs": [
        {
          "indexed": true,
          "internalType": "address",
          "name": "previousOwner",
          "type": "address"
        },
        {
          "indexed": true,
          "internalType": "address",
          "name": "newOwner",
          "type": "address"
        }
      ],
      "name": "OwnershipTransferred",
      "type": "event"
    },
    {
      "anonymous": false,
      "inputs": [
        {
          "indexed": true,
          "internalType": "address",
          "name": "from",
          "type": "address"
        },
        {
          "indexed": true,
          "internalType": "address",
          "name": "to",
          "type": "address"
        },
        {
          "indexed": false,
          "internalType": "uint256",
          "name": "value",
          "type": "uint256"
        }
      ],
      "name": "Transfer",
      "type": "event"
    },
    {
      "anonymous": false,
      "inputs": [
        {
          "indexed": true,
          "internalType": "address",
          "name": "implementation",
          "type": "address"
        }
      ],
      "name": "Upgraded",
      "type": "event"
    },
    {
      "inputs": [
        {
          "internalType": "address",
          "name": "owner",
          "type": "address"
        },
        {
          "internalType": "address",
          "name": "spender",
          "type": "address"
        }
      ],
      "name": "allowance",
      "outputs": [
        {
          "internalType": "uint256",
          "name": "",
          "type": "uint256"
        }
      ],
      "stateMutability": "view",
      "type": "function"
    },
    {
      "inputs": [
        {
          "internalType": "address",
          "name": "spender",
          "type": "address"
        },
        {
          "internalType": "uint256",
          "name": "amount",
          "type": "uint256"
        }
      ],
      "name": "approve",
      "outputs": [
        {
          "internalType": "bool",
          "name": "",
          "type": "bool"
        }
      ],
      "stateMutability": "nonpayable",
      "type": "function"
    },
    {
      "inputs": [
        {
          "internalType": "address",
          "name": "account",
          "type": "address"
        }
      ],
      "name": "balanceOf",
      "outputs": [
        {
          "internalType": "uint256",
          "name": "",
          "type": "uint256"
        }
      ],
      "stateMutability": "view",
      "type": "function"
    },
    {
      "inputs": [
        {
          "internalType": "uint256",
          "name": "amount",
          "type": "uint256"
        }
      ],
      "name": "burn",
      "outputs": [],
      "stateMutability": "nonpayable",
      "type": "function"
    },
    {
      "inputs": [
        {
          "internalType": "address",
          "name": "account",
          "type": "address"
        },
        {
          "internalType": "uint256",
          "name": "amount",
          "type": "uint256"
        }
      ],
      "name": "burnFrom",
      "outputs": [],
      "stateMutability": "nonpayable",
      "type": "function"
    },
    {
      "inputs": [],
      "name": "decimals",
      "outputs": [
        {
          "internalType": "uint8",
          "name": "",
          "type": "uint8"
        }
      ],
      "stateMutability": "view",
      "type": "function"
    },
    {
      "inputs": [
        {
          "internalType": "address",
          "name": "spender",
          "type": "address"
        },
        {
          "internalType": "uint256",
          "name": "subtractedValue",
          "type": "uint256"
        }
      ],
      "name": "decreaseAllowance",
      "outputs": [
        {
          "internalType": "bool",
          "name": "",
          "type": "bool"
        }
      ],
      "stateMutability": "nonpayable",
      "type": "function"
    },
    {
      "inputs": [
        {
          "internalType": "address",
          "name": "spender",
          "type": "address"
        },
        {
          "internalType": "uint256",
          "name": "addedValue",
          "type": "uint256"
        }
      ],
      "name": "increaseAllowance",
      "outputs": [
        {
          "internalType": "bool",
          "name": "",
          "type": "bool"
        }
      ],
      "stateMutability": "nonpayable",
      "type": "function"
    },
    {
      "inputs": [],
      "name": "initialize",
      "outputs": [],
      "stateMutability": "nonpayable",
      "type": "function"
    },
    {
      "inputs": [],
      "name": "name",
      "outputs": [
        {
          "internalType": "string",
          "name": "",
          "type": "string"
        }
      ],
      "stateMutability": "view",
      "type": "function"
    },
    {
      "inputs": [],
      "name": "owner",
      "outputs": [
        {
          "internalType": "address",
          "name": "",
          "type": "address"
        }
      ],
      "stateMutability": "view",
      "type": "function"
    },
    {
      "inputs": [],
      "name": "proxiableUUID",
      "outputs": [
        {
          "internalType": "bytes32",
          "name": "",
          "type": "bytes32"
        }
      ],
      "stateMutability": "view",
      "type": "function"
    },
    {
      "inputs": [],
      "name": "renounceOwnership",
      "outputs": [],
      "stateMutability": "nonpayable",
      "type": "function"
    },
    {
      "inputs": [],
      "name": "symbol",
      "outputs": [
        {
          "internalType": "string",
          "name": "",
          "type": "string"
        }
      ],
      "stateMutability": "view",
      "type": "function"
    },
    {
      "inputs": [],
      "name": "totalSupply",
      "outputs": [
        {
          "internalType": "uint256",
          "name": "",
          "type": "uint256"
        }
      ],
      "stateMutability": "view",
      "type": "function"
    },
    {
      "inputs": [
        {
          "internalType": "address",
          "name": "to",
          "type": "address"
        },
        {
          "internalType": "uint256",
          "name": "amount",
          "type": "uint256"
        }
      ],
      "name": "transfer",
      "outputs": [
        {
          "internalType": "bool",
          "name": "",
          "type": "bool"
        }
      ],
      "stateMutability": "nonpayable",
      "type": "function"
    },
    {
      "inputs": [
        {
          "internalType": "address",
          "name": "from",
          "type": "address"
        },
        {
          "internalType": "address",
          "name": "to",
          "type": "address"
        },
        {
          "internalType": "uint256",
          "name": "amount",
          "type": "uint256"
        }
      ],
      "name": "transferFrom",
      "outputs": [
        {
          "internalType": "bool",
          "name": "",
          "type": "bool"
        }
      ],
      "stateMutability": "nonpayable",
      "type": "function"
    },
    {
      "inputs": [
        {
          "internalType": "address",
          "name": "newOwner",
          "type": "address"
        }
      ],
      "name": "transferOwnership",
      "outputs": [],
      "stateMutability": "nonpayable",
      "type": "function"
    },
    {
      "inputs": [
        {
          "internalType": "address",
          "name": "newImplementation",
          "type": "address"
        }
      ],
      "name": "upgradeTo",
      "outputs": [],
      "stateMutability": "nonpayable",
      "type": "function"
    },
    {
      "inputs": [
        {
          "internalType": "address",
          "name": "newImplementation",
          "type": "address"
        },
        {
          "internalType": "bytes",
          "name": "data",
          "type": "bytes"
        }
      ],
      "name": "upgradeToAndCall",
      "outputs": [],
      "stateMutability": "payable",
      "type": "function"
    }
  ],
  "bytecode": "0x60a06040523073ffffffffffffffffffffffffffffffffffffffff1660809073ffffffffffffffffffffffffffffffffffffffff168152503480156200004457600080fd5b50620000556200005b60201b60201c565b62000206565b600060019054906101000a900460ff1615620000ae576040517f08c379a0000000000000000000000000000000000000000000000000000000008152600401620000a590620001a9565b60405180910390fd5b60ff801660008054906101000a900460ff1660ff161015620001205760ff6000806101000a81548160ff021916908360ff1602179055507f7f26b83ff96e1f2b6a682f133852f6798a09c465da95921460cefb384740249860ff604051620001179190620001e9565b60405180910390a15b565b600082825260208201905092915050565b7f496e697469616c697a61626c653a20636f6e747261637420697320696e69746960008201527f616c697a696e6700000000000000000000000000000000000000000000000000602082015250565b60006200019160278362000122565b91506200019e8262000133565b604082019050919050565b60006020820190508181036000830152620001c48162000182565b9050919050565b600060ff82169050919050565b620001e381620001cb565b82525050565b6000602082019050620002006000830184620001d8565b92915050565b6080516135946200023e600039600081816105b8015281816106460152818161078b0152818161081901526108c901526135946000f3fe60806040526004361061011f5760003560e01c806370a08231116100a057806395d89b411161006457806395d89b41146103b4578063a457c2d7146103df578063a9059cbb1461041c578063dd62ed3e14610459578063f2fde38b146104965761011f565b806370a08231146102f5578063715018a61461033257806379cc6790146103495780638129fc1c146103725780638da5cb5b146103895761011f565b80633659cfe6116100e75780633659cfe61461021f578063395093511461024857806342966c68146102855780634f1ef286146102ae57806352d1902d146102ca5761011f565b806306fdde0314610124578063095ea7b31461014f57806318160ddd1461018c57806323b872dd146101b7578063313ce567146101f4575b600080fd5b34801561013057600080fd5b506101396104bf565b6040516101469190611ef0565b60405180910390f35b34801561015b57600080fd5b5061017660048036038101906101719190611fba565b610551565b6040516101839190612015565b60405180910390f35b34801561019857600080fd5b506101a1610574565b6040516101ae919061203f565b60405180910390f35b3480156101c357600080fd5b506101de60048036038101906101d9919061205a565b61057e565b6040516101eb9190612015565b60405180910390f35b34801561020057600080fd5b506102096105ad565b60405161021691906120c9565b60405180910390f35b34801561022b57600080fd5b50610246600480360381019061024191906120e4565b6105b6565b005b34801561025457600080fd5b5061026f600480360381019061026a9190611fba565b61073e565b60405161027c9190612015565b60405180910390f35b34801561029157600080fd5b506102ac60048036038101906102a79190612111565b610775565b005b6102c860048036038101906102c39190612273565b610789565b005b3480156102d657600080fd5b506102df6108c5565b6040516102ec91906122e8565b60405180910390f35b34801561030157600080fd5b5061031c600480360381019061031791906120e4565b61097e565b604051610329919061203f565b60405180910390f35b34801561033e57600080fd5b506103476109c7565b005b34801561035557600080fd5b50610370600480360381019061036b9190611fba565b6109db565b005b34801561037e57600080fd5b506103876109fb565b005b34801561039557600080fd5b5061039e610be9565b6040516103ab9190612312565b60405180910390f35b3480156103c057600080fd5b506103c9610c13565b6040516103d69190611ef0565b60405180910390f35b3480156103eb57600080fd5b5061040660048036038101906104019190611fba565b610ca5565b6040516104139190612015565b60405180910390f35b34801561042857600080fd5b50610443600480360381019061043e9190611fba565b610d1c565b6040516104509190612015565b60405180910390f35b34801561046557600080fd5b50610480600480360381019061047b919061232d565b610d3f565b60405161048d919061203f565b60405180910390f35b3480156104a257600080fd5b506104bd60048036038101906104b891906120e4565b610dc6565b005b6060603680546104ce9061239c565b80601f01602080910402602001604051908101604052809291908181526020018280546104fa9061239c565b80156105475780601f1061051c57610100808354040283529160200191610547565b820191906000526020600020905b81548152906001019060200180831161052a57829003601f168201915b5050505050905090565b60008061055c610e49565b9050610569818585610e51565b600191505092915050565b6000603554905090565b600080610589610e49565b905061059685828561101a565b6105a18585856110a6565b60019150509392505050565b60006012905090565b7f000000000000000000000000000000000000000000000000000000000000000073ffffffffffffffffffffffffffffffffffffffff163073ffffffffffffffffffffffffffffffffffffffff1603610644576040517f08c379a000000000000000000000000000000000000000000000000000000000815260040161063b9061243f565b60405180910390fd5b7f000000000000000000000000000000000000000000000000000000000000000073ffffffffffffffffffffffffffffffffffffffff16610683611328565b73ffffffffffffffffffffffffffffffffffffffff16146106d9576040517f08c379a00000000000000000000000000000000000000000000000000000000081526004016106d0906124d1565b60405180910390fd5b6106e28161137f565b61073b81600067ffffffffffffffff81111561070157610700612148565b5b6040519080825280601f01601f1916602001820160405280156107335781602001600182028036833780820191505090505b50600061138a565b50565b600080610749610e49565b905061076a81858561075b8589610d3f565b6107659190612520565b610e51565b600191505092915050565b610786610780610e49565b826114f8565b50565b7f000000000000000000000000000000000000000000000000000000000000000073ffffffffffffffffffffffffffffffffffffffff163073ffffffffffffffffffffffffffffffffffffffff1603610817576040517f08c379a000000000000000000000000000000000000000000000000000000000815260040161080e9061243f565b60405180910390fd5b7f000000000000000000000000000000000000000000000000000000000000000073ffffffffffffffffffffffffffffffffffffffff16610856611328565b73ffffffffffffffffffffffffffffffffffffffff16146108ac576040517f08c379a00000000000000000000000000000000000000000000000000000000081526004016108a3906124d1565b60405180910390fd5b6108b58261137f565b6108c18282600161138a565b5050565b60007f000000000000000000000000000000000000000000000000000000000000000073ffffffffffffffffffffffffffffffffffffffff163073ffffffffffffffffffffffffffffffffffffffff1614610955576040517f08c379a000000000000000000000000000000000000000000000000000000000815260040161094c906125c6565b60405180910390fd5b7f360894a13ba1a3210667c828492db98dca3e2076cc3735a920a3ca505d382bbc60001b905090565b6000603360008373ffffffffffffffffffffffffffffffffffffffff1673ffffffffffffffffffffffffffffffffffffffff168152602001908152602001600020549050919050565b6109cf6116d0565b6109d9600061174e565b565b6109ed826109e7610e49565b8361101a565b6109f782826114f8565b5050565b60008060019054906101000a900460ff16159050808015610a2c5750600160008054906101000a900460ff1660ff16105b80610a595750610a3b30611814565b158015610a585750600160008054906101000a900460ff1660ff16145b5b610a98576040517f08c379a0000000000000000000000000000000000000000000000000000000008152600401610a8f90612658565b60405180910390fd5b60016000806101000a81548160ff021916908360ff1602179055508015610ad5576001600060016101000a81548160ff0219169083151502179055505b610b496040518060400160405280600481526020017f43686169000000000000000000000000000000000000000000000000000000008152506040518060400160405280600381526020017f4348540000000000000000000000000000000000000000000000000000000000815250611837565b610b51611894565b610b596118e5565b610b6161193e565b610b8d33610b6d6105ad565b600a610b7991906127ab565b633b9aca00610b8891906127f6565b61198f565b8015610be65760008060016101000a81548160ff0219169083151502179055507f7f26b83ff96e1f2b6a682f133852f6798a09c465da95921460cefb38474024986001604051610bdd919061287d565b60405180910390a15b50565b6000609760009054906101000a900473ffffffffffffffffffffffffffffffffffffffff16905090565b606060378054610c229061239c565b80601f0160208091040260200160405190810160405280929190818152602001828054610c4e9061239c565b8015610c9b5780601f10610c7057610100808354040283529160200191610c9b565b820191906000526020600020905b815481529060010190602001808311610c7e57829003601f168201915b5050505050905090565b600080610cb0610e49565b90506000610cbe8286610d3f565b905083811015610d03576040517f08c379a0000000000000000000000000000000000000000000000000000000008152600401610cfa9061290a565b60405180910390fd5b610d108286868403610e51565b60019250505092915050565b600080610d27610e49565b9050610d348185856110a6565b600191505092915050565b6000603460008473ffffffffffffffffffffffffffffffffffffffff1673ffffffffffffffffffffffffffffffffffffffff16815260200190815260200160002060008373ffffffffffffffffffffffffffffffffffffffff1673ffffffffffffffffffffffffffffffffffffffff16815260200190815260200160002054905092915050565b610dce6116d0565b600073ffffffffffffffffffffffffffffffffffffffff168173ffffffffffffffffffffffffffffffffffffffff1603610e3d576040517f08c379a0000000000000000000000000000000000000000000000000000000008152600401610e349061299c565b60405180910390fd5b610e468161174e565b50565b600033905090565b600073ffffffffffffffffffffffffffffffffffffffff168373ffffffffffffffffffffffffffffffffffffffff1603610ec0576040517f08c379a0000000000000000000000000000000000000000000000000000000008152600401610eb790612a2e565b60405180910390fd5b600073ffffffffffffffffffffffffffffffffffffffff168273ffffffffffffffffffffffffffffffffffffffff1603610f2f576040517f08c379a0000000000000000000000000000000000000000000000000000000008152600401610f2690612ac0565b60405180910390fd5b80603460008573ffffffffffffffffffffffffffffffffffffffff1673ffffffffffffffffffffffffffffffffffffffff16815260200190815260200160002060008473ffffffffffffffffffffffffffffffffffffffff1673ffffffffffffffffffffffffffffffffffffffff168152602001908152602001600020819055508173ffffffffffffffffffffffffffffffffffffffff168373ffffffffffffffffffffffffffffffffffffffff167f8c5be1e5ebec7d5bd14f71427d1e84f3dd0314c0f7b2291e5b200ac8c7c3b9258360405161100d919061203f565b60405180910390a3505050565b60006110268484610d3f565b90507fffffffffffffffffffffffffffffffffffffffffffffffffffffffffffffffff81146110a05781811015611092576040517f08c379a000000000000000000000000000000000000000000000000000000000815260040161108990612b2c565b60405180910390fd5b61109f8484848403610e51565b5b50505050565b600073ffffffffffffffffffffffffffffffffffffffff168373ffffffffffffffffffffffffffffffffffffffff1603611115576040517f08c379a000000000000000000000000000000000000000000000000000000000815260040161110c90612bbe565b60405180910390fd5b600073ffffffffffffffffffffffffffffffffffffffff168273ffffffffffffffffffffffffffffffffffffffff1603611184576040517f08c379a000000000000000000000000000000000000000000000000000000000815260040161117b90612c50565b60405180910390fd5b61118f838383611aef565b6000603360008573ffffffffffffffffffffffffffffffffffffffff1673ffffffffffffffffffffffffffffffffffffffff16815260200190815260200160002054905081811015611216576040517f08c379a000000000000000000000000000000000000000000000000000000000815260040161120d90612ce2565b60405180910390fd5b818103603360008673ffffffffffffffffffffffffffffffffffffffff1673ffffffffffffffffffffffffffffffffffffffff1681526020019081526020016000208190555081603360008573ffffffffffffffffffffffffffffffffffffffff1673ffffffffffffffffffffffffffffffffffffffff16815260200190815260200160002060008282546112ab9190612520565b925050819055508273ffffffffffffffffffffffffffffffffffffffff168473ffffffffffffffffffffffffffffffffffffffff167fddf252ad1be2c89b69c2b068fc378daa952ba7f163c4a11628f55a4df523b3ef8460405161130f919061203f565b60405180910390a3611322848484611af4565b50505050565b60006113567f360894a13ba1a3210667c828492db98dca3e2076cc3735a920a3ca505d382bbc60001b611af9565b60000160009054906101000a900473ffffffffffffffffffffffffffffffffffffffff16905090565b6113876116d0565b50565b6113b67f4910fdfa16fed3260ed0e7147f7cc6da11a60208b5b9406d12a635614ffd914360001b611b03565b60000160009054906101000a900460ff16156113da576113d583611b0d565b6114f3565b8273ffffffffffffffffffffffffffffffffffffffff166352d1902d6040518163ffffffff1660e01b8152600401602060405180830381865afa92505050801561144257506040513d601f19601f8201168201806040525081019061143f9190612d2e565b60015b611481576040517f08c379a000000000000000000000000000000000000000000000000000000000815260040161147890612dcd565b60405180910390fd5b7f360894a13ba1a3210667c828492db98dca3e2076cc3735a920a3ca505d382bbc60001b81146114e6576040517f08c379a00000000000000000000000000000000000000000000000000000000081526004016114dd90612e5f565b60405180910390fd5b506114f2838383611bc6565b5b505050565b600073ffffffffffffffffffffffffffffffffffffffff168273ffffffffffffffffffffffffffffffffffffffff1603611567576040517f08c379a000000000000000000000000000000000000000000000000000000000815260040161155e90612ef1565b60405180910390fd5b61157382600083611aef565b6000603360008473ffffffffffffffffffffffffffffffffffffffff1673ffffffffffffffffffffffffffffffffffffffff168152602001908152602001600020549050818110156115fa576040517f08c379a00000000000000000000000000000000000000000000000000000000081526004016115f190612f83565b60405180910390fd5b818103603360008573ffffffffffffffffffffffffffffffffffffffff1673ffffffffffffffffffffffffffffffffffffffff1681526020019081526020016000208190555081603560008282546116529190612fa3565b92505081905550600073ffffffffffffffffffffffffffffffffffffffff168373ffffffffffffffffffffffffffffffffffffffff167fddf252ad1be2c89b69c2b068fc378daa952ba7f163c4a11628f55a4df523b3ef846040516116b7919061203f565b60405180910390a36116cb83600084611af4565b505050565b6116d8610e49565b73ffffffffffffffffffffffffffffffffffffffff166116f6610be9565b73ffffffffffffffffffffffffffffffffffffffff161461174c576040517f08c379a000000000000000000000000000000000000000000000000000000000815260040161174390613023565b60405180910390fd5b565b6000609760009054906101000a900473ffffffffffffffffffffffffffffffffffffffff16905081609760006101000a81548173ffffffffffffffffffffffffffffffffffffffff021916908373ffffffffffffffffffffffffffffffffffffffff1602179055508173ffffffffffffffffffffffffffffffffffffffff168173ffffffffffffffffffffffffffffffffffffffff167f8be0079c531659141344cd1fd0a4f28419497f9722a3daafe3b4186f6b6457e060405160405180910390a35050565b6000808273ffffffffffffffffffffffffffffffffffffffff163b119050919050565b600060019054906101000a900460ff16611886576040517f08c379a000000000000000000000000000000000000000000000000000000000815260040161187d906130b5565b60405180910390fd5b6118908282611bf2565b5050565b600060019054906101000a900460ff166118e3576040517f08c379a00000000000000000000000000000000000000000000000000000000081526004016118da906130b5565b60405180910390fd5b565b600060019054906101000a900460ff16611934576040517f08c379a000000000000000000000000000000000000000000000000000000000815260040161192b906130b5565b60405180910390fd5b61193c611c65565b565b600060019054906101000a900460ff1661198d576040517f08c379a0000000000000000000000000000000000000000000000000000000008152600401611984906130b5565b60405180910390fd5b565b600073ffffffffffffffffffffffffffffffffffffffff168273ffffffffffffffffffffffffffffffffffffffff16036119fe576040517f08c379a00000000000000000000000000000000000000000000000000000000081526004016119f590613121565b60405180910390fd5b611a0a60008383611aef565b8060356000828254611a1c9190612520565b9250508190555080603360008473ffffffffffffffffffffffffffffffffffffffff1673ffffffffffffffffffffffffffffffffffffffff1681526020019081526020016000206000828254611a729190612520565b925050819055508173ffffffffffffffffffffffffffffffffffffffff16600073ffffffffffffffffffffffffffffffffffffffff167fddf252ad1be2c89b69c2b068fc378daa952ba7f163c4a11628f55a4df523b3ef83604051611ad7919061203f565b60405180910390a3611aeb60008383611af4565b5050565b505050565b505050565b6000819050919050565b6000819050919050565b611b1681611814565b611b55576040517f08c379a0000000000000000000000000000000000000000000000000000000008152600401611b4c906131b3565b60405180910390fd5b80611b827f360894a13ba1a3210667c828492db98dca3e2076cc3735a920a3ca505d382bbc60001b611af9565b60000160006101000a81548173ffffffffffffffffffffffffffffffffffffffff021916908373ffffffffffffffffffffffffffffffffffffffff16021790555050565b611bcf83611cc6565b600082511180611bdc5750805b15611bed57611beb8383611d15565b505b505050565b600060019054906101000a900460ff16611c41576040517f08c379a0000000000000000000000000000000000000000000000000000000008152600401611c38906130b5565b60405180910390fd5b8160369081611c509190613375565b508060379081611c609190613375565b505050565b600060019054906101000a900460ff16611cb4576040517f08c379a0000000000000000000000000000000000000000000000000000000008152600401611cab906130b5565b60405180910390fd5b611cc4611cbf610e49565b61174e565b565b611ccf81611b0d565b8073ffffffffffffffffffffffffffffffffffffffff167fbc7cd75a20ee27fd9adebab32041f755214dbc6bffa90cc0225b39da2e5c2d3b60405160405180910390a250565b6060611d2083611814565b611d5f576040517f08c379a0000000000000000000000000000000000000000000000000000000008152600401611d56906134b9565b60405180910390fd5b6000808473ffffffffffffffffffffffffffffffffffffffff1684604051611d879190613520565b600060405180830381855af49150503d8060008114611dc2576040519150601f19603f3d011682016040523d82523d6000602084013e611dc7565b606091505b5091509150611def828260405180606001604052806027815260200161353860279139611df9565b9250505092915050565b60608315611e0957829050611e59565b600083511115611e1c5782518084602001fd5b816040517f08c379a0000000000000000000000000000000000000000000000000000000008152600401611e509190611ef0565b60405180910390fd5b9392505050565b600081519050919050565b600082825260208201905092915050565b60005b83811015611e9a578082015181840152602081019050611e7f565b60008484015250505050565b6000601f19601f8301169050919050565b6000611ec282611e60565b611ecc8185611e6b565b9350611edc818560208601611e7c565b611ee581611ea6565b840191505092915050565b60006020820190508181036000830152611f0a8184611eb7565b905092915050565b6000604051905090565b600080fd5b600080fd5b600073ffffffffffffffffffffffffffffffffffffffff82169050919050565b6000611f5182611f26565b9050919050565b611f6181611f46565b8114611f6c57600080fd5b50565b600081359050611f7e81611f58565b92915050565b6000819050919050565b611f9781611f84565b8114611fa257600080fd5b50565b600081359050611fb481611f8e565b92915050565b60008060408385031215611fd157611fd0611f1c565b5b6000611fdf85828601611f6f565b9250506020611ff085828601611fa5565b9150509250929050565b60008115159050919050565b61200f81611ffa565b82525050565b600060208201905061202a6000830184612006565b92915050565b61203981611f84565b82525050565b60006020820190506120546000830184612030565b92915050565b60008060006060848603121561207357612072611f1c565b5b600061208186828701611f6f565b935050602061209286828701611f6f565b92505060406120a386828701611fa5565b9150509250925092565b600060ff82169050919050565b6120c3816120ad565b82525050565b60006020820190506120de60008301846120ba565b92915050565b6000602082840312156120fa576120f9611f1c565b5b600061210884828501611f6f565b91505092915050565b60006020828403121561212757612126611f1c565b5b600061213584828501611fa5565b91505092915050565b600080fd5b600080fd5b7f4e487b7100000000000000000000000000000000000000000000000000000000600052604160045260246000fd5b61218082611ea6565b810181811067ffffffffffffffff8211171561219f5761219e612148565b5b80604052505050565b60006121b2611f12565b90506121be8282612177565b919050565b600067ffffffffffffffff8211156121de576121dd612148565b5b6121e782611ea6565b9050602081019050919050565b82818337600083830152505050565b6000612216612211846121c3565b6121a8565b90508281526020810184848401111561223257612231612143565b5b61223d8482856121f4565b509392505050565b600082601f83011261225a5761225961213e565b5b813561226a848260208601612203565b91505092915050565b6000806040838503121561228a57612289611f1c565b5b600061229885828601611f6f565b925050602083013567ffffffffffffffff8111156122b9576122b8611f21565b5b6122c585828601612245565b9150509250929050565b6000819050919050565b6122e2816122cf565b82525050565b60006020820190506122fd60008301846122d9565b92915050565b61230c81611f46565b82525050565b60006020820190506123276000830184612303565b92915050565b6000806040838503121561234457612343611f1c565b5b600061235285828601611f6f565b925050602061236385828601611f6f565b9150509250929050565b7f4e487b7100000000000000000000000000000000000000000000000000000000600052602260045260246000fd5b600060028204905060018216806123b457607f821691505b6020821081036123c7576123c661236d565b5b50919050565b7f46756e6374696f6e206d7573742062652063616c6c6564207468726f7567682060008201527f64656c656761746563616c6c0000000000000000000000000000000000000000602082015250565b6000612429602c83611e6b565b9150612434826123cd565b604082019050919050565b600060208201905081810360008301526124588161241c565b9050919050565b7f46756e6374696f6e206d7573742062652063616c6c6564207468726f7567682060008201527f6163746976652070726f78790000000000000000000000000000000000000000602082015250565b60006124bb602c83611e6b565b91506124c68261245f565b604082019050919050565b600060208201905081810360008301526124ea816124ae565b9050919050565b7f4e487b7100000000000000000000000000000000000000000000000000000000600052601160045260246000fd5b600061252b82611f84565b915061253683611f84565b925082820190508082111561254e5761254d6124f1565b5b92915050565b7f555550535570677261646561626c653a206d757374206e6f742062652063616c60008201527f6c6564207468726f7567682064656c656761746563616c6c0000000000000000602082015250565b60006125b0603883611e6b565b91506125bb82612554565b604082019050919050565b600060208201905081810360008301526125df816125a3565b9050919050565b7f496e697469616c697a61626c653a20636f6e747261637420697320616c72656160008201527f647920696e697469616c697a6564000000000000000000000000000000000000602082015250565b6000612642602e83611e6b565b915061264d826125e6565b604082019050919050565b6000602082019050818103600083015261267181612635565b9050919050565b60008160011c9050919050565b6000808291508390505b60018511156126cf578086048111156126ab576126aa6124f1565b5b60018516156126ba5780820291505b80810290506126c885612678565b945061268f565b94509492505050565b6000826126e857600190506127a4565b816126f657600090506127a4565b816001811461270c576002811461271657612745565b60019150506127a4565b60ff841115612728576127276124f1565b5b8360020a91508482111561273f5761273e6124f1565b5b506127a4565b5060208310610133831016604e8410600b841016171561277a5782820a905083811115612775576127746124f1565b5b6127a4565b6127878484846001612685565b9250905081840481111561279e5761279d6124f1565b5b81810290505b9392505050565b60006127b682611f84565b91506127c1836120ad565b92506127ee7fffffffffffffffffffffffffffffffffffffffffffffffffffffffffffffffff84846126d8565b905092915050565b600061280182611f84565b915061280c83611f84565b925082820261281a81611f84565b91508282048414831517612831576128306124f1565b5b5092915050565b6000819050919050565b6000819050919050565b600061286761286261285d84612838565b612842565b6120ad565b9050919050565b6128778161284c565b82525050565b6000602082019050612892600083018461286e565b92915050565b7f45524332303a2064656372656173656420616c6c6f77616e63652062656c6f7760008201527f207a65726f000000000000000000000000000000000000000000000000000000602082015250565b60006128f4602583611e6b565b91506128ff82612898565b604082019050919050565b60006020820190508181036000830152612923816128e7565b9050919050565b7f4f776e61626c653a206e6577206f776e657220697320746865207a65726f206160008201527f6464726573730000000000000000000000000000000000000000000000000000602082015250565b6000612986602683611e6b565b91506129918261292a565b604082019050919050565b600060208201905081810360008301526129b581612979565b9050919050565b7f45524332303a20617070726f76652066726f6d20746865207a65726f2061646460008201527f7265737300000000000000000000000000000000000000000000000000000000602082015250565b6000612a18602483611e6b565b9150612a23826129bc565b604082019050919050565b60006020820190508181036000830152612a4781612a0b565b9050919050565b7f45524332303a20617070726f766520746f20746865207a65726f20616464726560008201527f7373000000000000000000000000000000000000000000000000000000000000602082015250565b6000612aaa602283611e6b565b9150612ab582612a4e565b604082019050919050565b60006020820190508181036000830152612ad981612a9d565b9050919050565b7f45524332303a20696e73756666696369656e7420616c6c6f77616e6365000000600082015250565b6000612b16601d83611e6b565b9150612b2182612ae0565b602082019050919050565b60006020820190508181036000830152612b4581612b09565b9050919050565b7f45524332303a207472616e736665722066726f6d20746865207a65726f20616460008201527f6472657373000000000000000000000000000000000000000000000000000000602082015250565b6000612ba8602583611e6b565b9150612bb382612b4c565b604082019050919050565b60006020820190508181036000830152612bd781612b9b565b9050919050565b7f45524332303a207472616e7366657220746f20746865207a65726f206164647260008201527f6573730000000000000000000000000000000000000000000000000000000000602082015250565b6000612c3a602383611e6b565b9150612c4582612bde565b604082019050919050565b60006020820190508181036000830152612c6981612c2d565b9050919050565b7f45524332303a207472616e7366657220616d6f756e742065786365656473206260008201527f616c616e63650000000000000000000000000000000000000000000000000000602082015250565b6000612ccc602683611e6b565b9150612cd782612c70565b604082019050919050565b60006020820190508181036000830152612cfb81612cbf565b9050919050565b612d0b816122cf565b8114612d1657600080fd5b50565b600081519050612d2881612d02565b92915050565b600060208284031215612d4457612d43611f1c565b5b6000612d5284828501612d19565b91505092915050565b7f45524331393637557067726164653a206e657720696d706c656d656e7461746960008201527f6f6e206973206e6f742055555053000000000000000000000000000000000000602082015250565b6000612db7602e83611e6b565b9150612dc282612d5b565b604082019050919050565b60006020820190508181036000830152612de681612daa565b9050919050565b7f45524331393637557067726164653a20756e737570706f727465642070726f7860008201527f6961626c65555549440000000000000000000000000000000000000000000000602082015250565b6000612e49602983611e6b565b9150612e5482612ded565b604082019050919050565b60006020820190508181036000830152612e7881612e3c565b9050919050565b7f45524332303a206275726e2066726f6d20746865207a65726f2061646472657360008201527f7300000000000000000000000000000000000000000000000000000000000000602082015250565b6000612edb602183611e6b565b9150612ee682612e7f565b604082019050919050565b60006020820190508181036000830152612f0a81612ece565b9050919050565b7f45524332303a206275726e20616d6f756e7420657863656564732062616c616e60008201527f6365000000000000000000000000000000000000000000000000000000000000602082015250565b6000612f6d602283611e6b565b9150612f7882612f11565b604082019050919050565b60006020820190508181036000830152612f9c81612f60565b9050919050565b6000612fae82611f84565b9150612fb983611f84565b9250828203905081811115612fd157612fd06124f1565b5b92915050565b7f4f776e61626c653a2063616c6c6572206973206e6f7420746865206f776e6572600082015250565b600061300d602083611e6b565b915061301882612fd7565b602082019050919050565b6000602082019050818103600083015261303c81613000565b9050919050565b7f496e697469616c697a61626c653a20636f6e7472616374206973206e6f74206960008201527f6e697469616c697a696e67000000000000000000000000000000000000000000602082015250565b600061309f602b83611e6b565b91506130aa82613043565b604082019050919050565b600060208201905081810360008301526130ce81613092565b9050919050565b7f45524332303a206d696e7420746f20746865207a65726f206164647265737300600082015250565b600061310b601f83611e6b565b9150613116826130d5565b602082019050919050565b6000602082019050818103600083015261313a816130fe565b9050919050565b7f455243313936373a206e657720696d706c656d656e746174696f6e206973206e60008201527f6f74206120636f6e747261637400000000000000000000000000000000000000602082015250565b600061319d602d83611e6b565b91506131a882613141565b604082019050919050565b600060208201905081810360008301526131cc81613190565b9050919050565b60008190508160005260206000209050919050565b60006020601f8301049050919050565b600082821b905092915050565b6000600883026132357fffffffffffffffffffffffffffffffffffffffffffffffffffffffffffffffff826131f8565b61323f86836131f8565b95508019841693508086168417925050509392505050565b600061327261326d61326884611f84565b612842565b611f84565b9050919050565b6000819050919050565b61328c83613257565b6132a061329882613279565b848454613205565b825550505050565b600090565b6132b56132a8565b6132c0818484613283565b505050565b5b818110156132e4576132d96000826132ad565b6001810190506132c6565b5050565b601f821115613329576132fa816131d3565b613303846131e8565b81016020851015613312578190505b61332661331e856131e8565b8301826132c5565b50505b505050565b600082821c905092915050565b600061334c6000198460080261332e565b1980831691505092915050565b6000613365838361333b565b9150826002028217905092915050565b61337e82611e60565b67ffffffffffffffff81111561339757613396612148565b5b6133a1825461239c565b6133ac8282856132e8565b600060209050601f8311600181146133df57600084156133cd578287015190505b6133d78582613359565b86555061343f565b601f1984166133ed866131d3565b60005b82811015613415578489015182556001820191506020850194506020810190506133f0565b86831015613432578489015161342e601f89168261333b565b8355505b6001600288020188555050505b505050505050565b7f416464726573733a2064656c65676174652063616c6c20746f206e6f6e2d636f60008201527f6e74726163740000000000000000000000000000000000000000000000000000602082015250565b60006134a3602683611e6b565b91506134ae82613447565b604082019050919050565b600060208201905081810360008301526134d281613496565b9050919050565b600081519050919050565b600081905092915050565b60006134fa826134d9565b61350481856134e4565b9350613514818560208601611e7c565b80840191505092915050565b600061352c82846134ef565b91508190509291505056fe416464726573733a206c6f772d6c6576656c2064656c65676174652063616c6c206661696c6564a26469706673582212207d9f9c1622e9a1ef4a6b422eb5b8b614fd1fb16849a36fcd81229229b91eb5a564736f6c63430008110033",
  "linkReferences": {},
  "deployedLinkReferences": {}
}