{
  "_format": "hh-sol-artifact-1",
  "contractName": "LiquidityPool",
  "sourceName": "contracts/LiquidityPool.sol",
  "abi": [
    {
      "inputs": [],
      "stateMutability": "nonpayable",
      "type": "constructor"
    },
    {
      "anonymous": false,
      "inputs": [
        {
          "indexed": false,
          "internalType": "address",
          "name": "previousAdmin",
          "type": "address"
        },
        {
          "indexed": false,
          "internalType": "address",
          "name": "newAdmin",
          "type": "address"
        }
      ],
      "name": "AdminChanged",
      "type": "event"
    },
    {
      "anonymous": false,
      "inputs": [
        {
          "indexed": true,
          "internalType": "address",
          "name": "beacon",
          "type": "address"
        }
      ],
      "name": "BeaconUpgraded",
      "type": "event"
    },
    {
      "anonymous": false,
      "inputs": [
        {
          "indexed": false,
          "internalType": "uint8",
          "name": "version",
          "type": "uint8"
        }
      ],
      "name": "Initialized",
      "type": "event"
    },
    {
      "anonymous": false,
      "inputs": [
        {
          "indexed": true,
          "internalType": "address",
          "name": "previousOwner",
          "type": "address"
        },
        {
          "indexed": true,
          "internalType": "address",
          "name": "newOwner",
          "type": "address"
        }
      ],
      "name": "OwnershipTransferred",
      "type": "event"
    },
    {
      "anonymous": false,
      "inputs": [
        {
          "indexed": false,
          "internalType": "address",
          "name": "account",
          "type": "address"
        }
      ],
      "name": "Paused",
      "type": "event"
    },
    {
      "anonymous": false,
      "inputs": [
        {
          "indexed": false,
          "internalType": "string",
          "name": "USD",
          "type": "string"
        },
        {
          "indexed": false,
          "internalType": "address",
          "name": "liquidityProvider",
          "type": "address"
        },
        {
          "indexed": false,
          "internalType": "uint256",
          "name": "amount",
          "type": "uint256"
        },
        {
          "indexed": false,
          "internalType": "uint256",
          "name": "USDtotal",
          "type": "uint256"
        },
        {
          "indexed": false,
          "internalType": "uint256",
          "name": "TotalStake",
          "type": "uint256"
        }
      ],
      "name": "Stake",
      "type": "event"
    },
    {
      "anonymous": false,
      "inputs": [
        {
          "indexed": false,
          "internalType": "address",
          "name": "account",
          "type": "address"
        }
      ],
      "name": "Unpaused",
      "type": "event"
    },
    {
      "anonymous": false,
      "inputs": [
        {
          "indexed": false,
          "internalType": "string",
          "name": "USD",
          "type": "string"
        },
        {
          "indexed": false,
          "internalType": "address",
          "name": "liquidityProvider",
          "type": "address"
        },
        {
          "indexed": false,
          "internalType": "uint256",
          "name": "amount",
          "type": "uint256"
        },
        {
          "indexed": false,
          "internalType": "uint256",
          "name": "USDtotal",
          "type": "uint256"
        },
        {
          "indexed": false,
          "internalType": "uint256",
          "name": "TotalStake",
          "type": "uint256"
        }
      ],
      "name": "Unstake",
      "type": "event"
    },
    {
      "anonymous": false,
      "inputs": [
        {
          "indexed": true,
          "internalType": "address",
          "name": "implementation",
          "type": "address"
        }
      ],
      "name": "Upgraded",
      "type": "event"
    },
    {
      "inputs": [
        {
          "internalType": "uint64",
          "name": "_num1",
          "type": "uint64"
        },
        {
          "internalType": "uint64",
          "name": "_num2",
          "type": "uint64"
        }
      ],
      "name": "GetStakers",
      "outputs": [
        {
          "internalType": "address[]",
          "name": "",
          "type": "address[]"
        }
      ],
      "stateMutability": "view",
      "type": "function"
    },
    {
      "inputs": [
        {
          "internalType": "uint8",
          "name": "",
          "type": "uint8"
        }
      ],
      "name": "LPbalanceUSD",
      "outputs": [
        {
          "internalType": "uint256",
          "name": "",
          "type": "uint256"
        }
      ],
      "stateMutability": "view",
      "type": "function"
    },
    {
      "inputs": [
        {
          "internalType": "address",
          "name": "",
          "type": "address"
        }
      ],
      "name": "OldStaker",
      "outputs": [
        {
          "internalType": "bool",
          "name": "",
          "type": "bool"
        }
      ],
      "stateMutability": "view",
      "type": "function"
    },
    {
      "inputs": [
        {
          "internalType": "address",
          "name": "",
          "type": "address"
        }
      ],
      "name": "StakerLiquidity",
      "outputs": [
        {
          "internalType": "uint256",
          "name": "",
          "type": "uint256"
        }
      ],
      "stateMutability": "view",
      "type": "function"
    },
    {
      "inputs": [
        {
          "internalType": "uint8",
          "name": "",
          "type": "uint8"
        }
      ],
      "name": "USDStable",
      "outputs": [
        {
          "internalType": "address",
          "name": "",
          "type": "address"
        }
      ],
      "stateMutability": "view",
      "type": "function"
    },
    {
      "inputs": [],
      "name": "epochover",
      "outputs": [
        {
          "internalType": "bool",
          "name": "",
          "type": "bool"
        }
      ],
      "stateMutability": "view",
      "type": "function"
    },
    {
      "inputs": [
        {
          "internalType": "uint8",
          "name": "_length",
          "type": "uint8"
        }
      ],
      "name": "getLPbalance",
      "outputs": [
        {
          "internalType": "uint256[]",
          "name": "",
          "type": "uint256[]"
        }
      ],
      "stateMutability": "view",
      "type": "function"
    },
    {
      "inputs": [],
      "name": "initialize",
      "outputs": [],
      "stateMutability": "nonpayable",
      "type": "function"
    },
    {
      "inputs": [
        {
          "internalType": "address",
          "name": "",
          "type": "address"
        },
        {
          "internalType": "uint8",
          "name": "",
          "type": "uint8"
        }
      ],
      "name": "liquidityPool",
      "outputs": [
        {
          "internalType": "uint256",
          "name": "",
          "type": "uint256"
        }
      ],
      "stateMutability": "view",
      "type": "function"
    },
    {
      "inputs": [
        {
          "internalType": "address",
          "name": "",
          "type": "address"
        },
        {
          "internalType": "uint8",
          "name": "",
          "type": "uint8"
        }
      ],
      "name": "liquidityPoolStakes",
      "outputs": [
        {
          "internalType": "uint256",
          "name": "",
          "type": "uint256"
        }
      ],
      "stateMutability": "view",
      "type": "function"
    },
    {
      "inputs": [
        {
          "internalType": "uint8",
          "name": "",
          "type": "uint8"
        }
      ],
      "name": "names",
      "outputs": [
        {
          "internalType": "string",
          "name": "",
          "type": "string"
        }
      ],
      "stateMutability": "view",
      "type": "function"
    },
    {
      "inputs": [],
      "name": "owner",
      "outputs": [
        {
          "internalType": "address",
          "name": "",
          "type": "address"
        }
      ],
      "stateMutability": "view",
      "type": "function"
    },
    {
      "inputs": [],
      "name": "pause",
      "outputs": [],
      "stateMutability": "nonpayable",
      "type": "function"
    },
    {
      "inputs": [],
      "name": "paused",
      "outputs": [
        {
          "internalType": "bool",
          "name": "",
          "type": "bool"
        }
      ],
      "stateMutability": "view",
      "type": "function"
    },
    {
      "inputs": [],
      "name": "proxiableUUID",
      "outputs": [
        {
          "internalType": "bytes32",
          "name": "",
          "type": "bytes32"
        }
      ],
      "stateMutability": "view",
      "type": "function"
    },
    {
      "inputs": [],
      "name": "renounceOwnership",
      "outputs": [],
      "stateMutability": "nonpayable",
      "type": "function"
    },
    {
      "inputs": [
        {
          "internalType": "bool",
          "name": "_over",
          "type": "bool"
        }
      ],
      "name": "setEpoch",
      "outputs": [],
      "stateMutability": "nonpayable",
      "type": "function"
    },
    {
      "inputs": [
        {
          "internalType": "uint8",
          "name": "_index",
          "type": "uint8"
        },
        {
          "internalType": "string",
          "name": "_name",
          "type": "string"
        },
        {
          "internalType": "address",
          "name": "_USD",
          "type": "address"
        }
      ],
      "name": "setUSDAddress",
      "outputs": [],
      "stateMutability": "nonpayable",
      "type": "function"
    },
    {
      "inputs": [
        {
          "internalType": "bool",
          "name": "_over",
          "type": "bool"
        }
      ],
      "name": "setUnstake",
      "outputs": [],
      "stateMutability": "nonpayable",
      "type": "function"
    },
    {
      "inputs": [
        {
          "internalType": "uint8",
          "name": "_usd",
          "type": "uint8"
        },
        {
          "internalType": "uint256",
          "name": "_amount",
          "type": "uint256"
        }
      ],
      "name": "stake",
      "outputs": [],
      "stateMutability": "nonpayable",
      "type": "function"
    },
    {
      "inputs": [
        {
          "internalType": "uint256",
          "name": "",
          "type": "uint256"
        }
      ],
      "name": "stakers",
      "outputs": [
        {
          "internalType": "address",
          "name": "",
          "type": "address"
        }
      ],
      "stateMutability": "view",
      "type": "function"
    },
    {
      "inputs": [],
      "name": "totalLiquidity",
      "outputs": [
        {
          "internalType": "uint256",
          "name": "",
          "type": "uint256"
        }
      ],
      "stateMutability": "view",
      "type": "function"
    },
    {
      "inputs": [
        {
          "internalType": "address",
          "name": "newOwner",
          "type": "address"
        }
      ],
      "name": "transferOwnership",
      "outputs": [],
      "stateMutability": "nonpayable",
      "type": "function"
    },
    {
      "inputs": [],
      "name": "unpause",
      "outputs": [],
      "stateMutability": "nonpayable",
      "type": "function"
    },
    {
      "inputs": [],
      "name": "unstakable",
      "outputs": [
        {
          "internalType": "bool",
          "name": "",
          "type": "bool"
        }
      ],
      "stateMutability": "view",
      "type": "function"
    },
    {
      "inputs": [
        {
          "internalType": "uint8",
          "name": "_usd",
          "type": "uint8"
        },
        {
          "internalType": "uint256",
          "name": "_amount",
          "type": "uint256"
        }
      ],
      "name": "unstake",
      "outputs": [],
      "stateMutability": "nonpayable",
      "type": "function"
    },
    {
      "inputs": [
        {
          "internalType": "uint8",
          "name": "_usd",
          "type": "uint8"
        }
      ],
      "name": "unstakeAll",
      "outputs": [],
      "stateMutability": "nonpayable",
      "type": "function"
    },
    {
      "inputs": [
        {
          "internalType": "address",
          "name": "",
          "type": "address"
        },
        {
          "internalType": "uint8",
          "name": "",
          "type": "uint8"
        }
      ],
      "name": "unstakedMax",
      "outputs": [
        {
          "internalType": "bool",
          "name": "",
          "type": "bool"
        }
      ],
      "stateMutability": "view",
      "type": "function"
    },
    {
      "inputs": [
        {
          "internalType": "address",
          "name": "newImplementation",
          "type": "address"
        }
      ],
      "name": "upgradeTo",
      "outputs": [],
      "stateMutability": "nonpayable",
      "type": "function"
    },
    {
      "inputs": [
        {
          "internalType": "address",
          "name": "newImplementation",
          "type": "address"
        },
        {
          "internalType": "bytes",
          "name": "data",
          "type": "bytes"
        }
      ],
      "name": "upgradeToAndCall",
      "outputs": [],
      "stateMutability": "payable",
      "type": "function"
    }
  ],
  "bytecode": "0x60a06040523073ffffffffffffffffffffffffffffffffffffffff1660809073ffffffffffffffffffffffffffffffffffffffff168152503480156200004457600080fd5b5062000061673daebab82bf67e7960c01b620000af60201b60201c565b6200007d6733ffd6242fc1375060c01b620000af60201b60201c565b620000996766f2c23a6ada4cf360c01b620000af60201b60201c565b620000a9620000b260201b60201c565b6200025d565b50565b600060019054906101000a900460ff161562000105576040517f08c379a0000000000000000000000000000000000000000000000000000000008152600401620000fc9062000200565b60405180910390fd5b60ff801660008054906101000a900460ff1660ff161015620001775760ff6000806101000a81548160ff021916908360ff1602179055507f7f26b83ff96e1f2b6a682f133852f6798a09c465da95921460cefb384740249860ff6040516200016e919062000240565b60405180910390a15b565b600082825260208201905092915050565b7f496e697469616c697a61626c653a20636f6e747261637420697320696e69746960008201527f616c697a696e6700000000000000000000000000000000000000000000000000602082015250565b6000620001e860278362000179565b9150620001f5826200018a565b604082019050919050565b600060208201905081810360008301526200021b81620001d9565b9050919050565b600060ff82169050919050565b6200023a8162000222565b82525050565b60006020820190506200025760008301846200022f565b92915050565b60805161513d62000295600039600081816108df0152818161096d01528181610bcb01528181610c590152610d09015261513d6000f3fe6080604052600436106101cd5760003560e01c80638129fc1c116100f7578063bf7b589e11610095578063dd752e5511610064578063dd752e5514610667578063e76438e114610690578063f2fde38b146106cd578063fd5e6dd1146106f6576101cd565b8063bf7b589e14610573578063cb14146d146105b0578063d2843089146105ed578063d9575d471461062a576101cd565b80638da5cb5b116100d15780638da5cb5b146104b7578063911db77b146104e2578063b2ffd6531461051f578063b4545b9e1461054a576101cd565b80638129fc1c1461044c5780638456cb5914610463578063846ac6b31461047a576101cd565b80634abb83141161016f5780636a3cbc4a1161013e5780636a3cbc4a146103a6578063715018a6146103cf5780637257a493146103e65780637d7e649a14610423576101cd565b80634abb83141461030b5780634f1ef2861461033457806352d1902d146103505780635c975abb1461037b576101cd565b80632c70411b116101ab5780632c70411b146102655780633659cfe6146102a25780633a15c9cc146102cb5780633f4ba83a146102f4576101cd565b8063058aa5cb146101d25780631337b7d1146101fd57806315770f921461023a575b600080fd5b3480156101de57600080fd5b506101e7610733565b6040516101f491906136b9565b60405180910390f35b34801561020957600080fd5b50610224600480360381019061021f9190613721565b610747565b6040516102319190613816565b60405180910390f35b34801561024657600080fd5b5061024f6108a3565b60405161025c9190613847565b60405180910390f35b34801561027157600080fd5b5061028c60048036038101906102879190613721565b6108aa565b60405161029991906138a3565b60405180910390f35b3480156102ae57600080fd5b506102c960048036038101906102c491906138ea565b6108dd565b005b3480156102d757600080fd5b506102f260048036038101906102ed9190613943565b610a65565b005b34801561030057600080fd5b50610309610b0b565b005b34801561031757600080fd5b50610332600480360381019061032d9190613721565b610b81565b005b61034e60048036038101906103499190613ab6565b610bc9565b005b34801561035c57600080fd5b50610365610d05565b6040516103729190613b2b565b60405180910390f35b34801561038757600080fd5b50610390610dbe565b60405161039d91906136b9565b60405180910390f35b3480156103b257600080fd5b506103cd60048036038101906103c89190613be7565b610dd5565b005b3480156103db57600080fd5b506103e4610ef5565b005b3480156103f257600080fd5b5061040d60048036038101906104089190613721565b610f09565b60405161041a9190613cd5565b60405180910390f35b34801561042f57600080fd5b5061044a60048036038101906104459190613943565b610fa9565b005b34801561045857600080fd5b5061046161104f565b005b34801561046f57600080fd5b50610478611250565b005b34801561048657600080fd5b506104a1600480360381019061049c9190613cf7565b6112c6565b6040516104ae91906136b9565b60405180910390f35b3480156104c357600080fd5b506104cc6112f6565b6040516104d991906138a3565b60405180910390f35b3480156104ee57600080fd5b5061050960048036038101906105049190613cf7565b611320565b6040516105169190613847565b60405180910390f35b34801561052b57600080fd5b50610534611345565b60405161054191906136b9565b60405180910390f35b34801561055657600080fd5b50610571600480360381019061056c9190613d63565b611359565b005b34801561057f57600080fd5b5061059a600480360381019061059591906138ea565b6113a3565b6040516105a79190613847565b60405180910390f35b3480156105bc57600080fd5b506105d760048036038101906105d29190613721565b6113bc565b6040516105e49190613847565b60405180910390f35b3480156105f957600080fd5b50610614600480360381019061060f9190613cf7565b6113d4565b6040516106219190613847565b60405180910390f35b34801561063657600080fd5b50610651600480360381019061064c91906138ea565b6113fa565b60405161065e91906136b9565b60405180910390f35b34801561067357600080fd5b5061068e60048036038101906106899190613d63565b61141b565b005b34801561069c57600080fd5b506106b760048036038101906106b29190613de3565b611465565b6040516106c49190613ee1565b60405180910390f35b3480156106d957600080fd5b506106f460048036038101906106ef91906138ea565b611639565b005b34801561070257600080fd5b5061071d60048036038101906107189190613f03565b6116bc565b60405161072a91906138a3565b60405180910390f35b61010560019054906101000a900460ff1681565b606061075d67daacfa489ccf101b60c01b6116fb565b61077167d1c222fc3479df2a60c01b6116fb565b610785677a2420b17d1a850760c01b6116fb565b60008260ff1667ffffffffffffffff8111156107a4576107a361398b565b5b6040519080825280602002602001820160405280156107d25781602001602082028036833780820191505090505b5090506107e9678c12e5f08bfdd0b560c01b6116fb565b6107fd676665c1a61768461460c01b6116fb565b60005b8360ff168160ff1610156108715761082267374236863db6f9b560c01b6116fb565b60ff60008260ff1660ff16815260200190815260200160002054828260ff168151811061085257610851613f30565b5b602002602001018181525050808061086990613f8e565b915050610800565b5061088667d377bdf1f4a84f2860c01b6116fb565b61089a670862e4d73c946b9460c01b6116fb565b80915050919050565b6101045481565b60fc6020528060005260406000206000915054906101000a900473ffffffffffffffffffffffffffffffffffffffff1681565b7f000000000000000000000000000000000000000000000000000000000000000073ffffffffffffffffffffffffffffffffffffffff163073ffffffffffffffffffffffffffffffffffffffff160361096b576040517f08c379a000000000000000000000000000000000000000000000000000000000815260040161096290614029565b60405180910390fd5b7f000000000000000000000000000000000000000000000000000000000000000073ffffffffffffffffffffffffffffffffffffffff166109aa6116fe565b73ffffffffffffffffffffffffffffffffffffffff1614610a00576040517f08c379a00000000000000000000000000000000000000000000000000000000081526004016109f7906140bb565b60405180910390fd5b610a0981611755565b610a6281600067ffffffffffffffff811115610a2857610a2761398b565b5b6040519080825280601f01601f191660200182016040528015610a5a5781602001600182028036833780820191505090505b50600061179c565b50565b610a796768af070de29e2a2560c01b6116fb565b610a8161190a565b610a9567b5ada870288b86fe60c01b6116fb565b610aa9672437110494b0f64360c01b6116fb565b610ab1611988565b610ac567bd821d9a1e60843560c01b6116fb565b610ad967e198a81e986e85fa60c01b6116fb565b610aed67ee257f03acd0e37660c01b6116fb565b8061010560006101000a81548160ff02191690831515021790555050565b610b1f672ba5464a166527ae60c01b6116fb565b610b2761190a565b610b3b672825d1ea269bbe0160c01b6116fb565b610b4f673731272865eb547460c01b6116fb565b610b6367025ac3537369aae360c01b6116fb565b610b776771681e67299ed21860c01b6116fb565b610b7f6119d2565b565b610b95674b763d06bbad757f60c01b6116fb565b610ba9676197db277c66070960c01b6116fb565b610bbd6721e55d1406c6789360c01b6116fb565b610bc681611a35565b50565b7f000000000000000000000000000000000000000000000000000000000000000073ffffffffffffffffffffffffffffffffffffffff163073ffffffffffffffffffffffffffffffffffffffff1603610c57576040517f08c379a0000000000000000000000000000000000000000000000000000000008152600401610c4e90614029565b60405180910390fd5b7f000000000000000000000000000000000000000000000000000000000000000073ffffffffffffffffffffffffffffffffffffffff16610c966116fe565b73ffffffffffffffffffffffffffffffffffffffff1614610cec576040517f08c379a0000000000000000000000000000000000000000000000000000000008152600401610ce3906140bb565b60405180910390fd5b610cf582611755565b610d018282600161179c565b5050565b60007f000000000000000000000000000000000000000000000000000000000000000073ffffffffffffffffffffffffffffffffffffffff163073ffffffffffffffffffffffffffffffffffffffff1614610d95576040517f08c379a0000000000000000000000000000000000000000000000000000000008152600401610d8c9061414d565b60405180910390fd5b7f360894a13ba1a3210667c828492db98dca3e2076cc3735a920a3ca505d382bbc60001b905090565b600060c960009054906101000a900460ff16905090565b610de967be6ee3dd066153dc60c01b6116fb565b610df1611988565b610e056703a5b45afd67189760c01b6116fb565b610e1967f3af9d451dc9b72e60c01b6116fb565b610e2161190a565b610e35676d28907d23f6aefa60c01b6116fb565b610e4967ea6b66418c339e4760c01b6116fb565b610e5d67c6ad040c646a5ff960c01b6116fb565b8060fc60008560ff1660ff16815260200190815260200160002060006101000a81548173ffffffffffffffffffffffffffffffffffffffff021916908373ffffffffffffffffffffffffffffffffffffffff160217905550610ec9670232b859bce16c9d60c01b6116fb565b8160fd60008560ff1660ff1681526020019081526020016000209081610eef9190614379565b50505050565b610efd61190a565b610f07600061219d565b565b60fd6020528060005260406000206000915090508054610f289061419c565b80601f0160208091040260200160405190810160405280929190818152602001828054610f549061419c565b8015610fa15780601f10610f7657610100808354040283529160200191610fa1565b820191906000526020600020905b815481529060010190602001808311610f8457829003601f168201915b505050505081565b610fbd671bc0ba7784c93a4560c01b6116fb565b610fc561190a565b610fd967bf77a71cfa09efce60c01b6116fb565b610fed67d0a8d0ebfda0a04d60c01b6116fb565b610ff5611988565b61100967ca5ac178cb2d280460c01b6116fb565b61101d6758adae7f8c75262c60c01b6116fb565b611031675559f647c579d74260c01b6116fb565b8061010560016101000a81548160ff02191690831515021790555050565b611063678d8a6ec22e058e8a60c01b6116fb565b60008060019054906101000a900460ff161590508080156110945750600160008054906101000a900460ff1660ff16105b806110c157506110a330612263565b1580156110c05750600160008054906101000a900460ff1660ff16145b5b611100576040517f08c379a00000000000000000000000000000000000000000000000000000000081526004016110f7906144bd565b60405180910390fd5b60016000806101000a81548160ff021916908360ff160217905550801561113d576001600060016101000a81548160ff0219169083151502179055505b61115167f5fa91f50862bdca60c01b6116fb565b61116567ffbf7bd151a179f560c01b6116fb565b61117967774f7d2dd4d653c060c01b6116fb565b61118c66ea733b3a62be2f60c01b6116fb565b611194612286565b6111a86763dfeecf1170aad560c01b6116fb565b6111bc67ada3d0730841a31660c01b6116fb565b6111c46122d7565b6111d867f1ac68dcb9a98f0360c01b6116fb565b6111ec67f0ae655c5a7e0bb860c01b6116fb565b6111f4612330565b801561124d5760008060016101000a81548160ff0219169083151502179055507f7f26b83ff96e1f2b6a682f133852f6798a09c465da95921460cefb384740249860016040516112449190614518565b60405180910390a15b50565b6112646708338ea336f9843160c01b6116fb565b61126c61190a565b61128067c87b961de2a7a7f460c01b6116fb565b6112946720f9cecfc789cfe160c01b6116fb565b6112a867bec2cab5a670a1d760c01b6116fb565b6112bc676c3a7ff81c34f8ad60c01b6116fb565b6112c4612389565b565b6101016020528160005260406000206020528060005260406000206000915091509054906101000a900460ff1681565b6000609760009054906101000a900473ffffffffffffffffffffffffffffffffffffffff16905090565b60fe602052816000526040600020602052806000526040600020600091509150505481565b61010560009054906101000a900460ff1681565b61136d679c056e2d0edf4ba760c01b6116fb565b61138167cb62138c54acc16460c01b6116fb565b611395671837cf5fc9c6c8c760c01b6116fb565b61139f82826123ec565b5050565b6101006020528060005260406000206000915090505481565b60ff6020528060005260406000206000915090505481565b610103602052816000526040600020602052806000526040600020600091509150505481565b6101026020528060005260406000206000915054906101000a900460ff1681565b61142f679ea95306636a8cff60c01b6116fb565b61144367839a311535fde50760c01b6116fb565b61145767c3b47680b8114bad60c01b6116fb565b6114618282612b62565b5050565b606061147b67b0586e747c29228960c01b6116fb565b61148f67a3c2e5edd1aefeb460c01b6116fb565b6114a367d09339c5b63aafda60c01b6116fb565b600060fb8054905067ffffffffffffffff8111156114c4576114c361398b565b5b6040519080825280602002602001820160405280156114f25781602001602082028036833780820191505090505b5090506115096733868ee72289d70860c01b6116fb565b61151d67bc2a52c9846062eb60c01b6116fb565b60008490505b8367ffffffffffffffff168167ffffffffffffffff16101561160657611553675d2faf0c82fd407160c01b6116fb565b60fb8167ffffffffffffffff168154811061157157611570613f30565b5b9060005260206000200160009054906101000a900473ffffffffffffffffffffffffffffffffffffffff16828267ffffffffffffffff16815181106115b9576115b8613f30565b5b602002602001019073ffffffffffffffffffffffffffffffffffffffff16908173ffffffffffffffffffffffffffffffffffffffff168152505080806115fe90614533565b915050611523565b5061161b67aa1ef3aaf37f5e0060c01b6116fb565b61162f675caf4ee70bd67f0360c01b6116fb565b8091505092915050565b61164161190a565b600073ffffffffffffffffffffffffffffffffffffffff168173ffffffffffffffffffffffffffffffffffffffff16036116b0576040517f08c379a00000000000000000000000000000000000000000000000000000000081526004016116a7906145d5565b60405180910390fd5b6116b98161219d565b50565b60fb81815481106116cc57600080fd5b906000526020600020016000915054906101000a900473ffffffffffffffffffffffffffffffffffffffff1681565b50565b600061172c7f360894a13ba1a3210667c828492db98dca3e2076cc3735a920a3ca505d382bbc60001b6132ed565b60000160009054906101000a900473ffffffffffffffffffffffffffffffffffffffff16905090565b611769673b34bffdf1baa6e960c01b6116fb565b61177161190a565b61178567a85cb86e5731a50e60c01b6116fb565b611799678d96c7c9cb1c91ed60c01b6116fb565b50565b6117c87f4910fdfa16fed3260ed0e7147f7cc6da11a60208b5b9406d12a635614ffd914360001b6132f7565b60000160009054906101000a900460ff16156117ec576117e783613301565b611905565b8273ffffffffffffffffffffffffffffffffffffffff166352d1902d6040518163ffffffff1660e01b8152600401602060405180830381865afa92505050801561185457506040513d601f19601f820116820180604052508101906118519190614621565b60015b611893576040517f08c379a000000000000000000000000000000000000000000000000000000000815260040161188a906146c0565b60405180910390fd5b7f360894a13ba1a3210667c828492db98dca3e2076cc3735a920a3ca505d382bbc60001b81146118f8576040517f08c379a00000000000000000000000000000000000000000000000000000000081526004016118ef90614752565b60405180910390fd5b506119048383836133ba565b5b505050565b6119126133e6565b73ffffffffffffffffffffffffffffffffffffffff166119306112f6565b73ffffffffffffffffffffffffffffffffffffffff1614611986576040517f08c379a000000000000000000000000000000000000000000000000000000000815260040161197d906147be565b60405180910390fd5b565b611990610dbe565b156119d0576040517f08c379a00000000000000000000000000000000000000000000000000000000081526004016119c79061482a565b60405180910390fd5b565b6119da6133ee565b600060c960006101000a81548160ff0219169083151502179055507f5db9ee0a495bf2e6ff9c91a7834c1ba4fdd244a5e8aa4e537bd38aeae4b073aa611a1e6133e6565b604051611a2b91906138a3565b60405180910390a1565b611a4967ee66c80c9ac4104460c01b6116fb565b611a51611988565b611a656751a6324ca93f3bcd60c01b6116fb565b611a79671a5628d9fdcbef5360c01b6116fb565b611a8d67e254a329ab6b316d60c01b6116fb565b611aa167303474ed9b45e28d60c01b6116fb565b600060fe60003373ffffffffffffffffffffffffffffffffffffffff1673ffffffffffffffffffffffffffffffffffffffff16815260200190815260200160002060008360ff1660ff168152602001908152602001600020549050611b106709d700108fe02c7260c01b6116fb565b611b246756bc3e6dbc3e77d060c01b6116fb565b611b386772142ced0ac95c2e60c01b6116fb565b60008111611b7b576040517f08c379a0000000000000000000000000000000000000000000000000000000008152600401611b7290614896565b60405180910390fd5b611b8f67da089e2f16ce4fa260c01b6116fb565b611ba3678cd654a233980ea360c01b6116fb565b611bb7674ba50711c5bc616360c01b6116fb565b611bcb674db2a95fb64bb57460c01b6116fb565b61010560019054906101000a900460ff16611c1b576040517f08c379a0000000000000000000000000000000000000000000000000000000008152600401611c129061494e565b60405180910390fd5b611c2f679057fbb905bb4d9b60c01b6116fb565b611c43676236234e47ba055e60c01b6116fb565b611c5767e7b5bb65fdef7f9d60c01b6116fb565b611c6b679381a0440e91af9a60c01b6116fb565b61010560009054906101000a900460ff16611cbb576040517f08c379a0000000000000000000000000000000000000000000000000000000008152600401611cb2906149ba565b60405180910390fd5b611ccf6714b9dc28bc3ef6c860c01b6116fb565b611ce36715644c9d21ee032260c01b6116fb565b611cf76774830e94692e6cf860c01b6116fb565b611d0b6752db80114af8523560c01b6116fb565b61010160003373ffffffffffffffffffffffffffffffffffffffff1673ffffffffffffffffffffffffffffffffffffffff16815260200190815260200160002060008360ff1660ff16815260200190815260200160002060009054906101000a900460ff16611daf576040517f08c379a0000000000000000000000000000000000000000000000000000000008152600401611da690614a26565b60405180910390fd5b611dc367160f2dce13e2227b60c01b6116fb565b611dd76738680636d61e11e160c01b6116fb565b8060fe60003373ffffffffffffffffffffffffffffffffffffffff1673ffffffffffffffffffffffffffffffffffffffff16815260200190815260200160002060008460ff1660ff1681526020019081526020016000206000828254611e3d9190614a46565b92505081905550611e5867092afa1e647964d260c01b6116fb565b8061010060003373ffffffffffffffffffffffffffffffffffffffff1673ffffffffffffffffffffffffffffffffffffffff1681526020019081526020016000206000828254611ea89190614a46565b92505081905550611ec367ef97eebd0ccf55b660c01b6116fb565b8060ff60008460ff1660ff1681526020019081526020016000206000828254611eec9190614a46565b92505081905550611f0767ffb5c0f50919512160c01b6116fb565b806101046000828254611f1a9190614a46565b92505081905550611f3567276f250b443d715660c01b6116fb565b600161010360003373ffffffffffffffffffffffffffffffffffffffff1673ffffffffffffffffffffffffffffffffffffffff16815260200190815260200160002060008460ff1660ff1681526020019081526020016000206000828254611f9d9190614a46565b92505081905550611fb8675b3d97514c97267b60c01b6116fb565b611fcc67429b9714c957e9cc60c01b6116fb565b60fc60008360ff1660ff16815260200190815260200160002060009054906101000a900473ffffffffffffffffffffffffffffffffffffffff1673ffffffffffffffffffffffffffffffffffffffff1663a9059cbb33836040518363ffffffff1660e01b8152600401612040929190614a7a565b6020604051808303816000875af115801561205f573d6000803e3d6000fd5b505050506040513d601f19601f820116820180604052508101906120839190614ab8565b506120986717ab00ee1adf56bc60c01b6116fb565b6120ac67a909f3bf0822b4e360c01b6116fb565b7fc7ea5e3777ad7f007fcea44d9abcefdfbad15485549259aa3d52eca313e5634e60fd60008460ff1660ff168152602001908152602001600020338360fe60003373ffffffffffffffffffffffffffffffffffffffff1673ffffffffffffffffffffffffffffffffffffffff16815260200190815260200160002060008760ff1660ff1681526020019081526020016000205461010060003373ffffffffffffffffffffffffffffffffffffffff1673ffffffffffffffffffffffffffffffffffffffff16815260200190815260200160002054604051612191959493929190614b69565b60405180910390a15050565b6000609760009054906101000a900473ffffffffffffffffffffffffffffffffffffffff16905081609760006101000a81548173ffffffffffffffffffffffffffffffffffffffff021916908373ffffffffffffffffffffffffffffffffffffffff1602179055508173ffffffffffffffffffffffffffffffffffffffff168173ffffffffffffffffffffffffffffffffffffffff167f8be0079c531659141344cd1fd0a4f28419497f9722a3daafe3b4186f6b6457e060405160405180910390a35050565b6000808273ffffffffffffffffffffffffffffffffffffffff163b119050919050565b600060019054906101000a900460ff166122d5576040517f08c379a00000000000000000000000000000000000000000000000000000000081526004016122cc90614c35565b60405180910390fd5b565b600060019054906101000a900460ff16612326576040517f08c379a000000000000000000000000000000000000000000000000000000000815260040161231d90614c35565b60405180910390fd5b61232e613437565b565b600060019054906101000a900460ff1661237f576040517f08c379a000000000000000000000000000000000000000000000000000000000815260040161237690614c35565b60405180910390fd5b612387613498565b565b612391611988565b600160c960006101000a81548160ff0219169083151502179055507f62e78cea01bee320cd4e420270b5ea74000d11b0c9f74754ebdbfc544b05a2586123d56133e6565b6040516123e291906138a3565b60405180910390a1565b612400671c49da08ab745eaa60c01b6116fb565b612408611988565b61241c670c13f9f68287fc8660c01b6116fb565b612430672330afe0fbd28e3360c01b6116fb565b61244467a1781c0e6cb51f9960c01b6116fb565b61245867274ce63981d4cfc060c01b6116fb565b600060fe60003373ffffffffffffffffffffffffffffffffffffffff1673ffffffffffffffffffffffffffffffffffffffff16815260200190815260200160002060008460ff1660ff1681526020019081526020016000205490506124c7678d921865ce698bcb60c01b6116fb565b6124db673bb6fdf661928b1e60c01b6116fb565b6124ef67417f0cd190b7899360c01b6116fb565b60646050826124fe9190614c55565b6125089190614cc6565b82111561254a576040517f08c379a000000000000000000000000000000000000000000000000000000000815260040161254190614d69565b60405180910390fd5b61255e670ad9d1b530c2da4960c01b6116fb565b61257267beeba81edfae765160c01b6116fb565b612586679deace590f3663db60c01b6116fb565b61259a674b5b674a74e1a55260c01b6116fb565b600082116125dd576040517f08c379a00000000000000000000000000000000000000000000000000000000081526004016125d490614896565b60405180910390fd5b6125f1675228a60437fe795460c01b6116fb565b61260567c67af67df16142c460c01b6116fb565b612619679bb2cda29bf2495260c01b6116fb565b61262d67ae2e959ad2db5edc60c01b6116fb565b61010560019054906101000a900460ff1661267d576040517f08c379a00000000000000000000000000000000000000000000000000000000081526004016126749061494e565b60405180910390fd5b6126916765807cd1daf724ec60c01b6116fb565b6126a567563de0e14807b84a60c01b6116fb565b6126b96788a2f45cfdb840fe60c01b6116fb565b6126cd67f75f915d58faf16260c01b6116fb565b61010160003373ffffffffffffffffffffffffffffffffffffffff1673ffffffffffffffffffffffffffffffffffffffff16815260200190815260200160002060008460ff1660ff16815260200190815260200160002060009054906101000a900460ff1615612772576040517f08c379a000000000000000000000000000000000000000000000000000000000815260040161276990614dd5565b60405180910390fd5b612786677dce2c1f9fe5896760c01b6116fb565b61279a671051a75dbf3063be60c01b6116fb565b600161010160003373ffffffffffffffffffffffffffffffffffffffff1673ffffffffffffffffffffffffffffffffffffffff16815260200190815260200160002060008560ff1660ff16815260200190815260200160002060006101000a81548160ff02191690831515021790555061281e672efac9820ff5ee3160c01b6116fb565b8160fe60003373ffffffffffffffffffffffffffffffffffffffff1673ffffffffffffffffffffffffffffffffffffffff16815260200190815260200160002060008560ff1660ff16815260200190815260200160002060008282546128849190614a46565b9250508190555061289f67d56684c409f1fbf260c01b6116fb565b8161010060003373ffffffffffffffffffffffffffffffffffffffff1673ffffffffffffffffffffffffffffffffffffffff16815260200190815260200160002060008282546128ef9190614a46565b9250508190555061290a67b7046ba6acd7c06160c01b6116fb565b8160ff60008560ff1660ff16815260200190815260200160002060008282546129339190614a46565b9250508190555061294e67210c875615532b3b60c01b6116fb565b8161010460008282546129619190614a46565b9250508190555061297c67698f76eb77d7d99c60c01b6116fb565b612990670e4be78f88a044a160c01b6116fb565b60fc60008460ff1660ff16815260200190815260200160002060009054906101000a900473ffffffffffffffffffffffffffffffffffffffff1673ffffffffffffffffffffffffffffffffffffffff1663a9059cbb33846040518363ffffffff1660e01b8152600401612a04929190614a7a565b6020604051808303816000875af1158015612a23573d6000803e3d6000fd5b505050506040513d601f19601f82011682018060405250810190612a479190614ab8565b50612a5c679a32c784864457e560c01b6116fb565b612a70676f55affa632066cb60c01b6116fb565b7fc7ea5e3777ad7f007fcea44d9abcefdfbad15485549259aa3d52eca313e5634e60fd60008560ff1660ff168152602001908152602001600020338460fe60003373ffffffffffffffffffffffffffffffffffffffff1673ffffffffffffffffffffffffffffffffffffffff16815260200190815260200160002060008860ff1660ff1681526020019081526020016000205461010060003373ffffffffffffffffffffffffffffffffffffffff1673ffffffffffffffffffffffffffffffffffffffff16815260200190815260200160002054604051612b55959493929190614b69565b60405180910390a1505050565b612b76675daee67b3ca313da60c01b6116fb565b612b7e611988565b612b9267fdfa8382697c528860c01b6116fb565b612ba6678ac6df535999538660c01b6116fb565b612bba67e44d1220ea98355660c01b6116fb565b612bce67c789bf8658a9ecc760c01b6116fb565b612be26772d390c93fb40b0160c01b6116fb565b60008111612c25576040517f08c379a0000000000000000000000000000000000000000000000000000000008152600401612c1c90614e67565b60405180910390fd5b612c39677ed1b4890b05d8b160c01b6116fb565b612c4d677f997bec4def601260c01b6116fb565b612c61675e8c6f6cd219731860c01b6116fb565b600060fe60003373ffffffffffffffffffffffffffffffffffffffff1673ffffffffffffffffffffffffffffffffffffffff16815260200190815260200160002060008460ff1660ff1681526020019081526020016000205403612d5b57612cd3678b2a90c4d83b2ba660c01b6116fb565b612ce7679f63cdddcb4d291760c01b6116fb565b600161010360003373ffffffffffffffffffffffffffffffffffffffff1673ffffffffffffffffffffffffffffffffffffffff16815260200190815260200160002060008460ff1660ff1681526020019081526020016000206000828254612d4f9190614e87565b92505081905550612d70565b612d6f6770873b08ca9499dc60c01b6116fb565b5b612d84673731a5e593910d5e60c01b6116fb565b8060fe60003373ffffffffffffffffffffffffffffffffffffffff1673ffffffffffffffffffffffffffffffffffffffff16815260200190815260200160002060008460ff1660ff1681526020019081526020016000206000828254612dea9190614e87565b92505081905550612e05675dc9ecaa8012b0f960c01b6116fb565b8061010060003373ffffffffffffffffffffffffffffffffffffffff1673ffffffffffffffffffffffffffffffffffffffff1681526020019081526020016000206000828254612e559190614e87565b92505081905550612e7067ca25b03012c8006d60c01b6116fb565b600061010160003373ffffffffffffffffffffffffffffffffffffffff1673ffffffffffffffffffffffffffffffffffffffff16815260200190815260200160002060008460ff1660ff16815260200190815260200160002060006101000a81548160ff021916908315150217905550612ef46734709051eb0cba4a60c01b6116fb565b806101046000828254612f079190614e87565b92505081905550612f22674a333b0e4fdfe8e660c01b6116fb565b8060ff60008460ff1660ff1681526020019081526020016000206000828254612f4b9190614e87565b92505081905550612f6667dc04128eef19dc9660c01b6116fb565b612f7a6774fac7af94bfdc4e60c01b6116fb565b61010260003373ffffffffffffffffffffffffffffffffffffffff1673ffffffffffffffffffffffffffffffffffffffff16815260200190815260200160002060009054906101000a900460ff166130dd57612fe067d42467eb6056397160c01b6116fb565b612ff46766eccac61cd7d25460c01b6116fb565b61300867091396411d32abfe60c01b6116fb565b60fb339080600181540180825580915050600190039060005260206000200160009091909190916101000a81548173ffffffffffffffffffffffffffffffffffffffff021916908373ffffffffffffffffffffffffffffffffffffffff16021790555061307f6773659e2776cc4f6860c01b6116fb565b600161010260003373ffffffffffffffffffffffffffffffffffffffff1673ffffffffffffffffffffffffffffffffffffffff16815260200190815260200160002060006101000a81548160ff0219169083151502179055506130f2565b6130f167e2ec35ce3481df9660c01b6116fb565b5b6131066790a9f22b16bed55b60c01b6116fb565b61311a671965f18c75ae5d4d60c01b6116fb565b60fc60008360ff1660ff16815260200190815260200160002060009054906101000a900473ffffffffffffffffffffffffffffffffffffffff1673ffffffffffffffffffffffffffffffffffffffff166323b872dd3330846040518463ffffffff1660e01b815260040161319093929190614ebb565b6020604051808303816000875af11580156131af573d6000803e3d6000fd5b505050506040513d601f19601f820116820180604052508101906131d39190614ab8565b506131e86775db23e7b19b737660c01b6116fb565b6131fc67a4326772a462e86960c01b6116fb565b7f64ac4149bfd65160b5370eeb47269cf7792c3d36e2b8683ac9768c45b31c6eca60fd60008460ff1660ff168152602001908152602001600020338360fe60003373ffffffffffffffffffffffffffffffffffffffff1673ffffffffffffffffffffffffffffffffffffffff16815260200190815260200160002060008760ff1660ff1681526020019081526020016000205461010060003373ffffffffffffffffffffffffffffffffffffffff1673ffffffffffffffffffffffffffffffffffffffff168152602001908152602001600020546040516132e1959493929190614b69565b60405180910390a15050565b6000819050919050565b6000819050919050565b61330a81612263565b613349576040517f08c379a000000000000000000000000000000000000000000000000000000000815260040161334090614f64565b60405180910390fd5b806133767f360894a13ba1a3210667c828492db98dca3e2076cc3735a920a3ca505d382bbc60001b6132ed565b60000160006101000a81548173ffffffffffffffffffffffffffffffffffffffff021916908373ffffffffffffffffffffffffffffffffffffffff16021790555050565b6133c383613504565b6000825111806133d05750805b156133e1576133df8383613553565b505b505050565b600033905090565b6133f6610dbe565b613435576040517f08c379a000000000000000000000000000000000000000000000000000000000815260040161342c90614fd0565b60405180910390fd5b565b600060019054906101000a900460ff16613486576040517f08c379a000000000000000000000000000000000000000000000000000000000815260040161347d90614c35565b60405180910390fd5b6134966134916133e6565b61219d565b565b600060019054906101000a900460ff166134e7576040517f08c379a00000000000000000000000000000000000000000000000000000000081526004016134de90614c35565b60405180910390fd5b600060c960006101000a81548160ff021916908315150217905550565b61350d81613301565b8073ffffffffffffffffffffffffffffffffffffffff167fbc7cd75a20ee27fd9adebab32041f755214dbc6bffa90cc0225b39da2e5c2d3b60405160405180910390a250565b606061355e83612263565b61359d576040517f08c379a000000000000000000000000000000000000000000000000000000000815260040161359490615062565b60405180910390fd5b6000808473ffffffffffffffffffffffffffffffffffffffff16846040516135c591906150c9565b600060405180830381855af49150503d8060008114613600576040519150601f19603f3d011682016040523d82523d6000602084013e613605565b606091505b509150915061362d82826040518060600160405280602781526020016150e160279139613637565b9250505092915050565b6060831561364757829050613697565b60008351111561365a5782518084602001fd5b816040517f08c379a000000000000000000000000000000000000000000000000000000000815260040161368e9190613cd5565b60405180910390fd5b9392505050565b60008115159050919050565b6136b38161369e565b82525050565b60006020820190506136ce60008301846136aa565b92915050565b6000604051905090565b600080fd5b600080fd5b600060ff82169050919050565b6136fe816136e8565b811461370957600080fd5b50565b60008135905061371b816136f5565b92915050565b600060208284031215613737576137366136de565b5b60006137458482850161370c565b91505092915050565b600081519050919050565b600082825260208201905092915050565b6000819050602082019050919050565b6000819050919050565b61378d8161377a565b82525050565b600061379f8383613784565b60208301905092915050565b6000602082019050919050565b60006137c38261374e565b6137cd8185613759565b93506137d88361376a565b8060005b838110156138095781516137f08882613793565b97506137fb836137ab565b9250506001810190506137dc565b5085935050505092915050565b6000602082019050818103600083015261383081846137b8565b905092915050565b6138418161377a565b82525050565b600060208201905061385c6000830184613838565b92915050565b600073ffffffffffffffffffffffffffffffffffffffff82169050919050565b600061388d82613862565b9050919050565b61389d81613882565b82525050565b60006020820190506138b86000830184613894565b92915050565b6138c781613882565b81146138d257600080fd5b50565b6000813590506138e4816138be565b92915050565b600060208284031215613900576138ff6136de565b5b600061390e848285016138d5565b91505092915050565b6139208161369e565b811461392b57600080fd5b50565b60008135905061393d81613917565b92915050565b600060208284031215613959576139586136de565b5b60006139678482850161392e565b91505092915050565b600080fd5b600080fd5b6000601f19601f8301169050919050565b7f4e487b7100000000000000000000000000000000000000000000000000000000600052604160045260246000fd5b6139c38261397a565b810181811067ffffffffffffffff821117156139e2576139e161398b565b5b80604052505050565b60006139f56136d4565b9050613a0182826139ba565b919050565b600067ffffffffffffffff821115613a2157613a2061398b565b5b613a2a8261397a565b9050602081019050919050565b82818337600083830152505050565b6000613a59613a5484613a06565b6139eb565b905082815260208101848484011115613a7557613a74613975565b5b613a80848285613a37565b509392505050565b600082601f830112613a9d57613a9c613970565b5b8135613aad848260208601613a46565b91505092915050565b60008060408385031215613acd57613acc6136de565b5b6000613adb858286016138d5565b925050602083013567ffffffffffffffff811115613afc57613afb6136e3565b5b613b0885828601613a88565b9150509250929050565b6000819050919050565b613b2581613b12565b82525050565b6000602082019050613b406000830184613b1c565b92915050565b600067ffffffffffffffff821115613b6157613b6061398b565b5b613b6a8261397a565b9050602081019050919050565b6000613b8a613b8584613b46565b6139eb565b905082815260208101848484011115613ba657613ba5613975565b5b613bb1848285613a37565b509392505050565b600082601f830112613bce57613bcd613970565b5b8135613bde848260208601613b77565b91505092915050565b600080600060608486031215613c0057613bff6136de565b5b6000613c0e8682870161370c565b935050602084013567ffffffffffffffff811115613c2f57613c2e6136e3565b5b613c3b86828701613bb9565b9250506040613c4c868287016138d5565b9150509250925092565b600081519050919050565b600082825260208201905092915050565b60005b83811015613c90578082015181840152602081019050613c75565b60008484015250505050565b6000613ca782613c56565b613cb18185613c61565b9350613cc1818560208601613c72565b613cca8161397a565b840191505092915050565b60006020820190508181036000830152613cef8184613c9c565b905092915050565b60008060408385031215613d0e57613d0d6136de565b5b6000613d1c858286016138d5565b9250506020613d2d8582860161370c565b9150509250929050565b613d408161377a565b8114613d4b57600080fd5b50565b600081359050613d5d81613d37565b92915050565b60008060408385031215613d7a57613d796136de565b5b6000613d888582860161370c565b9250506020613d9985828601613d4e565b9150509250929050565b600067ffffffffffffffff82169050919050565b613dc081613da3565b8114613dcb57600080fd5b50565b600081359050613ddd81613db7565b92915050565b60008060408385031215613dfa57613df96136de565b5b6000613e0885828601613dce565b9250506020613e1985828601613dce565b9150509250929050565b600081519050919050565b600082825260208201905092915050565b6000819050602082019050919050565b613e5881613882565b82525050565b6000613e6a8383613e4f565b60208301905092915050565b6000602082019050919050565b6000613e8e82613e23565b613e988185613e2e565b9350613ea383613e3f565b8060005b83811015613ed4578151613ebb8882613e5e565b9750613ec683613e76565b925050600181019050613ea7565b5085935050505092915050565b60006020820190508181036000830152613efb8184613e83565b905092915050565b600060208284031215613f1957613f186136de565b5b6000613f2784828501613d4e565b91505092915050565b7f4e487b7100000000000000000000000000000000000000000000000000000000600052603260045260246000fd5b7f4e487b7100000000000000000000000000000000000000000000000000000000600052601160045260246000fd5b6000613f99826136e8565b915060ff8203613fac57613fab613f5f565b5b600182019050919050565b7f46756e6374696f6e206d7573742062652063616c6c6564207468726f7567682060008201527f64656c656761746563616c6c0000000000000000000000000000000000000000602082015250565b6000614013602c83613c61565b915061401e82613fb7565b604082019050919050565b6000602082019050818103600083015261404281614006565b9050919050565b7f46756e6374696f6e206d7573742062652063616c6c6564207468726f7567682060008201527f6163746976652070726f78790000000000000000000000000000000000000000602082015250565b60006140a5602c83613c61565b91506140b082614049565b604082019050919050565b600060208201905081810360008301526140d481614098565b9050919050565b7f555550535570677261646561626c653a206d757374206e6f742062652063616c60008201527f6c6564207468726f7567682064656c656761746563616c6c0000000000000000602082015250565b6000614137603883613c61565b9150614142826140db565b604082019050919050565b600060208201905081810360008301526141668161412a565b9050919050565b7f4e487b7100000000000000000000000000000000000000000000000000000000600052602260045260246000fd5b600060028204905060018216806141b457607f821691505b6020821081036141c7576141c661416d565b5b50919050565b60008190508160005260206000209050919050565b60006020601f8301049050919050565b600082821b905092915050565b60006008830261422f7fffffffffffffffffffffffffffffffffffffffffffffffffffffffffffffffff826141f2565b61423986836141f2565b95508019841693508086168417925050509392505050565b6000819050919050565b600061427661427161426c8461377a565b614251565b61377a565b9050919050565b6000819050919050565b6142908361425b565b6142a461429c8261427d565b8484546141ff565b825550505050565b600090565b6142b96142ac565b6142c4818484614287565b505050565b5b818110156142e8576142dd6000826142b1565b6001810190506142ca565b5050565b601f82111561432d576142fe816141cd565b614307846141e2565b81016020851015614316578190505b61432a614322856141e2565b8301826142c9565b50505b505050565b600082821c905092915050565b600061435060001984600802614332565b1980831691505092915050565b6000614369838361433f565b9150826002028217905092915050565b61438282613c56565b67ffffffffffffffff81111561439b5761439a61398b565b5b6143a5825461419c565b6143b08282856142ec565b600060209050601f8311600181146143e357600084156143d1578287015190505b6143db858261435d565b865550614443565b601f1984166143f1866141cd565b60005b82811015614419578489015182556001820191506020850194506020810190506143f4565b868310156144365784890151614432601f89168261433f565b8355505b6001600288020188555050505b505050505050565b7f496e697469616c697a61626c653a20636f6e747261637420697320616c72656160008201527f647920696e697469616c697a6564000000000000000000000000000000000000602082015250565b60006144a7602e83613c61565b91506144b28261444b565b604082019050919050565b600060208201905081810360008301526144d68161449a565b9050919050565b6000819050919050565b60006145026144fd6144f8846144dd565b614251565b6136e8565b9050919050565b614512816144e7565b82525050565b600060208201905061452d6000830184614509565b92915050565b600061453e82613da3565b915067ffffffffffffffff820361455857614557613f5f565b5b600182019050919050565b7f4f776e61626c653a206e6577206f776e657220697320746865207a65726f206160008201527f6464726573730000000000000000000000000000000000000000000000000000602082015250565b60006145bf602683613c61565b91506145ca82614563565b604082019050919050565b600060208201905081810360008301526145ee816145b2565b9050919050565b6145fe81613b12565b811461460957600080fd5b50565b60008151905061461b816145f5565b92915050565b600060208284031215614637576146366136de565b5b60006146458482850161460c565b91505092915050565b7f45524331393637557067726164653a206e657720696d706c656d656e7461746960008201527f6f6e206973206e6f742055555053000000000000000000000000000000000000602082015250565b60006146aa602e83613c61565b91506146b58261464e565b604082019050919050565b600060208201905081810360008301526146d98161469d565b9050919050565b7f45524331393637557067726164653a20756e737570706f727465642070726f7860008201527f6961626c65555549440000000000000000000000000000000000000000000000602082015250565b600061473c602983613c61565b9150614747826146e0565b604082019050919050565b6000602082019050818103600083015261476b8161472f565b9050919050565b7f4f776e61626c653a2063616c6c6572206973206e6f7420746865206f776e6572600082015250565b60006147a8602083613c61565b91506147b382614772565b602082019050919050565b600060208201905081810360008301526147d78161479b565b9050919050565b7f5061757361626c653a2070617573656400000000000000000000000000000000600082015250565b6000614814601083613c61565b915061481f826147de565b602082019050919050565b6000602082019050818103600083015261484381614807565b9050919050565b7f416d6f756e742063616e6e6f7420626520300000000000000000000000000000600082015250565b6000614880601283613c61565b915061488b8261484a565b602082019050919050565b600060208201905081810360008301526148af81614873565b9050919050565b7f416c6c2066756e647320696e20506f6f6c206172652063757272656e746c792060008201527f6261636b696e6720616c6c20494e52432c20756e7374616b652077696c6c206260208201527f6520617661696c61626c652073686f72746c7900000000000000000000000000604082015250565b6000614938605383613c61565b9150614943826148b6565b606082019050919050565b600060208201905081810360008301526149678161492b565b9050919050565b7f65706f6368206e6f74206f766572000000000000000000000000000000000000600082015250565b60006149a4600e83613c61565b91506149af8261496e565b602082019050919050565b600060208201905081810360008301526149d381614997565b9050919050565b7f756e7374616b6520383025206669727374000000000000000000000000000000600082015250565b6000614a10601183613c61565b9150614a1b826149da565b602082019050919050565b60006020820190508181036000830152614a3f81614a03565b9050919050565b6000614a518261377a565b9150614a5c8361377a565b9250828203905081811115614a7457614a73613f5f565b5b92915050565b6000604082019050614a8f6000830185613894565b614a9c6020830184613838565b9392505050565b600081519050614ab281613917565b92915050565b600060208284031215614ace57614acd6136de565b5b6000614adc84828501614aa3565b91505092915050565b60008154614af28161419c565b614afc8186613c61565b94506001821660008114614b175760018114614b2d57614b60565b60ff198316865281151560200286019350614b60565b614b36856141cd565b60005b83811015614b5857815481890152600182019150602081019050614b39565b808801955050505b50505092915050565b600060a0820190508181036000830152614b838188614ae5565b9050614b926020830187613894565b614b9f6040830186613838565b614bac6060830185613838565b614bb96080830184613838565b9695505050505050565b7f496e697469616c697a61626c653a20636f6e7472616374206973206e6f74206960008201527f6e697469616c697a696e67000000000000000000000000000000000000000000602082015250565b6000614c1f602b83613c61565b9150614c2a82614bc3565b604082019050919050565b60006020820190508181036000830152614c4e81614c12565b9050919050565b6000614c608261377a565b9150614c6b8361377a565b9250828202614c798161377a565b91508282048414831517614c9057614c8f613f5f565b5b5092915050565b7f4e487b7100000000000000000000000000000000000000000000000000000000600052601260045260246000fd5b6000614cd18261377a565b9150614cdc8361377a565b925082614cec57614ceb614c97565b5b828204905092915050565b7f547265617375727920506f6f6c3a20416d6f756e74206973205a65726f206f7260008201527f2047726561746572207468616e205374616b6500000000000000000000000000602082015250565b6000614d53603383613c61565b9150614d5e82614cf7565b604082019050919050565b60006020820190508181036000830152614d8281614d46565b9050919050565b7f756e7374616b652066756c6c206c617465722000000000000000000000000000600082015250565b6000614dbf601383613c61565b9150614dca82614d89565b602082019050919050565b60006020820190508181036000830152614dee81614db2565b9050919050565b7f547265617375727920506f6f6c3a20416d6f756e742063616e6e6f742062652060008201527f5a65726f00000000000000000000000000000000000000000000000000000000602082015250565b6000614e51602483613c61565b9150614e5c82614df5565b604082019050919050565b60006020820190508181036000830152614e8081614e44565b9050919050565b6000614e928261377a565b9150614e9d8361377a565b9250828201905080821115614eb557614eb4613f5f565b5b92915050565b6000606082019050614ed06000830186613894565b614edd6020830185613894565b614eea6040830184613838565b949350505050565b7f455243313936373a206e657720696d706c656d656e746174696f6e206973206e60008201527f6f74206120636f6e747261637400000000000000000000000000000000000000602082015250565b6000614f4e602d83613c61565b9150614f5982614ef2565b604082019050919050565b60006020820190508181036000830152614f7d81614f41565b9050919050565b7f5061757361626c653a206e6f7420706175736564000000000000000000000000600082015250565b6000614fba601483613c61565b9150614fc582614f84565b602082019050919050565b60006020820190508181036000830152614fe981614fad565b9050919050565b7f416464726573733a2064656c65676174652063616c6c20746f206e6f6e2d636f60008201527f6e74726163740000000000000000000000000000000000000000000000000000602082015250565b600061504c602683613c61565b915061505782614ff0565b604082019050919050565b6000602082019050818103600083015261507b8161503f565b9050919050565b600081519050919050565b600081905092915050565b60006150a382615082565b6150ad818561508d565b93506150bd818560208601613c72565b80840191505092915050565b60006150d58284615098565b91508190509291505056fe416464726573733a206c6f772d6c6576656c2064656c65676174652063616c6c206661696c6564a26469706673582212203b708dc9eff8e0c6c30b97e4963b6365d43d8c0bc9c9aca015b571ce5a84f93d64736f6c63430008110033",
  "linkReferences": {},
  "deployedLinkReferences": {}
}