{
  "_format": "hh-sol-artifact-1",
  "contractName": "TreasuryPoolTron",
  "sourceName": "contracts/TPfortron.sol",
  "abi": [
    {
      "inputs": [],
      "stateMutability": "nonpayable",
      "type": "constructor"
    },
    {
      "anonymous": false,
      "inputs": [
        {
          "indexed": true,
          "internalType": "address",
          "name": "previousOwner",
          "type": "address"
        },
        {
          "indexed": true,
          "internalType": "address",
          "name": "newOwner",
          "type": "address"
        }
      ],
      "name": "OwnershipTransferred",
      "type": "event"
    },
    {
      "anonymous": false,
      "inputs": [
        {
          "indexed": false,
          "internalType": "address",
          "name": "account",
          "type": "address"
        }
      ],
      "name": "Paused",
      "type": "event"
    },
    {
      "anonymous": false,
      "inputs": [
        {
          "indexed": false,
          "internalType": "string",
          "name": "USD",
          "type": "string"
        },
        {
          "indexed": false,
          "internalType": "uint256",
          "name": "ID",
          "type": "uint256"
        },
        {
          "indexed": false,
          "internalType": "address",
          "name": "buyer",
          "type": "address"
        },
        {
          "indexed": false,
          "internalType": "uint256",
          "name": "amount",
          "type": "uint256"
        },
        {
          "indexed": false,
          "internalType": "uint256",
          "name": "balanceNew",
          "type": "uint256"
        },
        {
          "indexed": false,
          "internalType": "uint256",
          "name": "UsdBalance",
          "type": "uint256"
        }
      ],
      "name": "Recieved",
      "type": "event"
    },
    {
      "anonymous": false,
      "inputs": [
        {
          "indexed": false,
          "internalType": "string",
          "name": "USD",
          "type": "string"
        },
        {
          "indexed": false,
          "internalType": "address",
          "name": "redeemer",
          "type": "address"
        },
        {
          "indexed": false,
          "internalType": "uint256",
          "name": "amount",
          "type": "uint256"
        },
        {
          "indexed": false,
          "internalType": "uint256",
          "name": "balanceNew",
          "type": "uint256"
        },
        {
          "indexed": false,
          "internalType": "uint256",
          "name": "USDbalance",
          "type": "uint256"
        }
      ],
      "name": "Redeemed",
      "type": "event"
    },
    {
      "anonymous": false,
      "inputs": [
        {
          "indexed": false,
          "internalType": "address",
          "name": "account",
          "type": "address"
        }
      ],
      "name": "Unpaused",
      "type": "event"
    },
    {
      "inputs": [
        {
          "internalType": "uint8",
          "name": "_usd",
          "type": "uint8"
        },
        {
          "internalType": "uint256",
          "name": "MintID",
          "type": "uint256"
        },
        {
          "internalType": "uint256",
          "name": "_amount",
          "type": "uint256"
        }
      ],
      "name": "Buy",
      "outputs": [],
      "stateMutability": "nonpayable",
      "type": "function"
    },
    {
      "inputs": [
        {
          "internalType": "uint256",
          "name": "MintID",
          "type": "uint256"
        }
      ],
      "name": "BuyNat",
      "outputs": [],
      "stateMutability": "payable",
      "type": "function"
    },
    {
      "inputs": [],
      "name": "BuynatDisable",
      "outputs": [
        {
          "internalType": "bool",
          "name": "",
          "type": "bool"
        }
      ],
      "stateMutability": "view",
      "type": "function"
    },
    {
      "inputs": [],
      "name": "Maxminted",
      "outputs": [
        {
          "internalType": "bool",
          "name": "",
          "type": "bool"
        }
      ],
      "stateMutability": "view",
      "type": "function"
    },
    {
      "inputs": [
        {
          "internalType": "address",
          "name": "redeemer",
          "type": "address"
        },
        {
          "internalType": "uint8",
          "name": "_usd",
          "type": "uint8"
        },
        {
          "internalType": "uint256",
          "name": "_amount",
          "type": "uint256"
        }
      ],
      "name": "Redeem",
      "outputs": [],
      "stateMutability": "nonpayable",
      "type": "function"
    },
    {
      "inputs": [
        {
          "internalType": "address",
          "name": "redeemer",
          "type": "address"
        },
        {
          "internalType": "uint256",
          "name": "_amount",
          "type": "uint256"
        }
      ],
      "name": "RedeemNat",
      "outputs": [],
      "stateMutability": "payable",
      "type": "function"
    },
    {
      "inputs": [
        {
          "internalType": "uint8",
          "name": "",
          "type": "uint8"
        }
      ],
      "name": "TPbalanceUSD",
      "outputs": [
        {
          "internalType": "uint256",
          "name": "",
          "type": "uint256"
        }
      ],
      "stateMutability": "view",
      "type": "function"
    },
    {
      "inputs": [
        {
          "internalType": "uint8",
          "name": "",
          "type": "uint8"
        }
      ],
      "name": "USDStable",
      "outputs": [
        {
          "internalType": "address",
          "name": "",
          "type": "address"
        }
      ],
      "stateMutability": "view",
      "type": "function"
    },
    {
      "inputs": [
        {
          "internalType": "uint8",
          "name": "_length",
          "type": "uint8"
        }
      ],
      "name": "getTPbalance",
      "outputs": [
        {
          "internalType": "uint256[]",
          "name": "",
          "type": "uint256[]"
        }
      ],
      "stateMutability": "view",
      "type": "function"
    },
    {
      "inputs": [
        {
          "internalType": "uint8",
          "name": "",
          "type": "uint8"
        }
      ],
      "name": "names",
      "outputs": [
        {
          "internalType": "string",
          "name": "",
          "type": "string"
        }
      ],
      "stateMutability": "view",
      "type": "function"
    },
    {
      "inputs": [],
      "name": "owner",
      "outputs": [
        {
          "internalType": "address",
          "name": "",
          "type": "address"
        }
      ],
      "stateMutability": "view",
      "type": "function"
    },
    {
      "inputs": [],
      "name": "pause",
      "outputs": [],
      "stateMutability": "nonpayable",
      "type": "function"
    },
    {
      "inputs": [],
      "name": "paused",
      "outputs": [
        {
          "internalType": "bool",
          "name": "",
          "type": "bool"
        }
      ],
      "stateMutability": "view",
      "type": "function"
    },
    {
      "inputs": [],
      "name": "renounceOwnership",
      "outputs": [],
      "stateMutability": "nonpayable",
      "type": "function"
    },
    {
      "inputs": [
        {
          "internalType": "bool",
          "name": "_disable",
          "type": "bool"
        }
      ],
      "name": "setDisable",
      "outputs": [],
      "stateMutability": "nonpayable",
      "type": "function"
    },
    {
      "inputs": [
        {
          "internalType": "bool",
          "name": "_over",
          "type": "bool"
        }
      ],
      "name": "setMinter",
      "outputs": [],
      "stateMutability": "nonpayable",
      "type": "function"
    },
    {
      "inputs": [
        {
          "internalType": "uint8",
          "name": "_index",
          "type": "uint8"
        },
        {
          "internalType": "string",
          "name": "_name",
          "type": "string"
        },
        {
          "internalType": "address",
          "name": "_USD",
          "type": "address"
        }
      ],
      "name": "setUSDAddress",
      "outputs": [],
      "stateMutability": "nonpayable",
      "type": "function"
    },
    {
      "inputs": [],
      "name": "tPtotalBalance",
      "outputs": [
        {
          "internalType": "uint256",
          "name": "",
          "type": "uint256"
        }
      ],
      "stateMutability": "view",
      "type": "function"
    },
    {
      "inputs": [],
      "name": "tPtotalBalanceNative",
      "outputs": [
        {
          "internalType": "uint256",
          "name": "",
          "type": "uint256"
        }
      ],
      "stateMutability": "view",
      "type": "function"
    },
    {
      "inputs": [
        {
          "internalType": "address",
          "name": "newOwner",
          "type": "address"
        }
      ],
      "name": "transferOwnership",
      "outputs": [],
      "stateMutability": "nonpayable",
      "type": "function"
    },
    {
      "inputs": [],
      "name": "unpause",
      "outputs": [],
      "stateMutability": "nonpayable",
      "type": "function"
    }
  ],
  "bytecode": "0x608060405234801561001057600080fd5b5061002d61002261004c60201b60201c565b61005460201b60201c565b60008060146101000a81548160ff021916908315150217905550610118565b600033905090565b60008060009054906101000a900473ffffffffffffffffffffffffffffffffffffffff169050816000806101000a81548173ffffffffffffffffffffffffffffffffffffffff021916908373ffffffffffffffffffffffffffffffffffffffff1602179055508173ffffffffffffffffffffffffffffffffffffffff168173ffffffffffffffffffffffffffffffffffffffff167f8be0079c531659141344cd1fd0a4f28419497f9722a3daafe3b4186f6b6457e060405160405180910390a35050565b6122c180620001286000396000f3fe6080604052600436106101295760003560e01c8063715018a6116100ab5780639a1043b51161006f5780639a1043b5146103895780639b24856e146103c6578063a3a6ae13146103f1578063b955fa9a1461041a578063d472480414610443578063f2fde38b1461046e57610129565b8063715018a6146102ca5780637257a493146102e15780638456cb591461031e5780638da5cb5b146103355780638dcae3261461036057610129565b8063452a2e7b116100f2578063452a2e7b146101f75780635c975abb146102225780636a3cbc4a1461024d5780636b2e2833146102765780636b3fc31a146102a157610129565b8062fa764b1461012e578063124d85ef1461014a5780632c70411b1461018757806335d9b320146101c45780633f4ba83a146101e0575b600080fd5b610148600480360381019061014391906112b7565b610497565b005b34801561015657600080fd5b50610171600480360381019061016c919061131d565b61061e565b60405161017e9190611408565b60405180910390f35b34801561019357600080fd5b506101ae60048036038101906101a9919061131d565b6106da565b6040516101bb919061146b565b60405180910390f35b6101de60048036038101906101d991906114b2565b61070d565b005b3480156101ec57600080fd5b506101f56108f1565b005b34801561020357600080fd5b5061020c610903565b604051610219919061150d565b60405180910390f35b34801561022e57600080fd5b50610237610916565b604051610244919061150d565b60405180910390f35b34801561025957600080fd5b50610274600480360381019061026f919061166e565b61092c565b005b34801561028257600080fd5b5061028b6109c0565b604051610298919061150d565b60405180910390f35b3480156102ad57600080fd5b506102c860048036038101906102c39190611709565b6109d3565b005b3480156102d657600080fd5b506102df610a00565b005b3480156102ed57600080fd5b506103086004803603810190610303919061131d565b610a14565b60405161031591906117b5565b60405180910390f35b34801561032a57600080fd5b50610333610ab4565b005b34801561034157600080fd5b5061034a610ac6565b604051610357919061146b565b60405180910390f35b34801561036c57600080fd5b5061038760048036038101906103829190611709565b610aef565b005b34801561039557600080fd5b506103b060048036038101906103ab919061131d565b610b1c565b6040516103bd91906117e6565b60405180910390f35b3480156103d257600080fd5b506103db610b34565b6040516103e891906117e6565b60405180910390f35b3480156103fd57600080fd5b5061041860048036038101906104139190611801565b610b3a565b005b34801561042657600080fd5b50610441600480360381019061043c9190611854565b610d2b565b005b34801561044f57600080fd5b50610458610f42565b60405161046591906117e6565b60405180910390f35b34801561047a57600080fd5b50610495600480360381019061049091906118a7565b610f48565b005b61049f610fcb565b600034116104e2576040517f08c379a00000000000000000000000000000000000000000000000000000000081526004016104d990611920565b60405180910390fd5b600360009054906101000a900460ff1615610532576040517f08c379a00000000000000000000000000000000000000000000000000000000081526004016105299061198c565b60405180910390fd5b600360019054906101000a900460ff1615610582576040517f08c379a000000000000000000000000000000000000000000000000000000000815260040161057990611a1e565b60405180910390fd5b60006040518060400160405280600581526020017f4d41544943000000000000000000000000000000000000000000000000000000815250905034600660008282546105ce9190611a6d565b925050819055507f6c15dac833d09e6374c066862e8ce105d08e657a958c784285ba82375086104f8183333460055460065460405161061296959493929190611aa1565b60405180910390a15050565b606060008260ff1667ffffffffffffffff81111561063f5761063e611543565b5b60405190808252806020026020018201604052801561066d5781602001602082028036833780820191505090505b50905060005b8360ff168160ff1610156106d057600460008260ff1660ff16815260200190815260200160002054828260ff16815181106106b1576106b0611b09565b5b60200260200101818152505080806106c890611b38565b915050610673565b5080915050919050565b60016020528060005260406000206000915054906101000a900473ffffffffffffffffffffffffffffffffffffffff1681565b610715611015565b61071d610fcb565b60008111610760576040517f08c379a000000000000000000000000000000000000000000000000000000000815260040161075790611920565b60405180910390fd5b600360009054906101000a900460ff16156107b0576040517f08c379a00000000000000000000000000000000000000000000000000000000081526004016107a79061198c565b60405180910390fd5b600360019054906101000a900460ff1615610800576040517f08c379a00000000000000000000000000000000000000000000000000000000081526004016107f790611a1e565b60405180910390fd5b60065481111561080f57600080fd5b60006040518060400160405280600581526020017f4d415449430000000000000000000000000000000000000000000000000000008152509050816006600082825461085b9190611b61565b925050819055508273ffffffffffffffffffffffffffffffffffffffff166108fc839081150290604051600060405180830381858888f193505050501580156108a8573d6000803e3d6000fd5b507fe2360a1e9b372e7da72be76637abfd2c1f678512f7ad5e44e4019db46a5aeed88184846005546006546040516108e4959493929190611b95565b60405180910390a1505050565b6108f9611015565b610901611093565b565b600360009054906101000a900460ff1681565b60008060149054906101000a900460ff16905090565b610934611015565b61093c610fcb565b80600160008560ff1660ff16815260200190815260200160002060006101000a81548173ffffffffffffffffffffffffffffffffffffffff021916908373ffffffffffffffffffffffffffffffffffffffff16021790555081600260008560ff1660ff16815260200190815260200160002090816109ba9190611dfb565b50505050565b600360019054906101000a900460ff1681565b6109db611015565b6109e3610fcb565b80600360016101000a81548160ff02191690831515021790555050565b610a08611015565b610a1260006110f5565b565b60026020528060005260406000206000915090508054610a3390611c1e565b80601f0160208091040260200160405190810160405280929190818152602001828054610a5f90611c1e565b8015610aac5780601f10610a8157610100808354040283529160200191610aac565b820191906000526020600020905b815481529060010190602001808311610a8f57829003601f168201915b505050505081565b610abc611015565b610ac46111b9565b565b60008060009054906101000a900473ffffffffffffffffffffffffffffffffffffffff16905090565b610af7611015565b610aff610fcb565b80600360006101000a81548160ff02191690831515021790555050565b60046020528060005260406000206000915090505481565b60065481565b610b42611015565b610b4a610fcb565b60008111610b8d576040517f08c379a0000000000000000000000000000000000000000000000000000000008152600401610b8490611920565b60405180910390fd5b600460008360ff1660ff16815260200190815260200160002054811115610bb357600080fd5b80600460008460ff1660ff1681526020019081526020016000206000828254610bdc9190611b61565b925050819055508060056000828254610bf59190611b61565b92505081905550600160008360ff1660ff16815260200190815260200160002060009054906101000a900473ffffffffffffffffffffffffffffffffffffffff1673ffffffffffffffffffffffffffffffffffffffff1663a9059cbb84836040518363ffffffff1660e01b8152600401610c70929190611ecd565b6020604051808303816000875af1158015610c8f573d6000803e3d6000fd5b505050506040513d601f19601f82011682018060405250810190610cb39190611f0b565b507fe2360a1e9b372e7da72be76637abfd2c1f678512f7ad5e44e4019db46a5aeed8600260008460ff1660ff1681526020019081526020016000208483600554600460008860ff1660ff16815260200190815260200160002054604051610d1e959493929190611fbc565b60405180910390a1505050565b610d33610fcb565b60008111610d76576040517f08c379a0000000000000000000000000000000000000000000000000000000008152600401610d6d90611920565b60405180910390fd5b600360009054906101000a900460ff1615610dc6576040517f08c379a0000000000000000000000000000000000000000000000000000000008152600401610dbd9061198c565b60405180910390fd5b80600460008560ff1660ff1681526020019081526020016000206000828254610def9190611a6d565b925050819055508060056000828254610e089190611a6d565b92505081905550600160008460ff1660ff16815260200190815260200160002060009054906101000a900473ffffffffffffffffffffffffffffffffffffffff1673ffffffffffffffffffffffffffffffffffffffff166323b872dd3330846040518463ffffffff1660e01b8152600401610e8593929190612016565b6020604051808303816000875af1158015610ea4573d6000803e3d6000fd5b505050506040513d601f19601f82011682018060405250810190610ec89190611f0b565b507f6c15dac833d09e6374c066862e8ce105d08e657a958c784285ba82375086104f600260008560ff1660ff168152602001908152602001600020833384600554600460008a60ff1660ff16815260200190815260200160002054604051610f359695949392919061204d565b60405180910390a1505050565b60055481565b610f50611015565b600073ffffffffffffffffffffffffffffffffffffffff168173ffffffffffffffffffffffffffffffffffffffff1603610fbf576040517f08c379a0000000000000000000000000000000000000000000000000000000008152600401610fb690612127565b60405180910390fd5b610fc8816110f5565b50565b610fd3610916565b15611013576040517f08c379a000000000000000000000000000000000000000000000000000000000815260040161100a90612193565b60405180910390fd5b565b61101d61121c565b73ffffffffffffffffffffffffffffffffffffffff1661103b610ac6565b73ffffffffffffffffffffffffffffffffffffffff1614611091576040517f08c379a0000000000000000000000000000000000000000000000000000000008152600401611088906121ff565b60405180910390fd5b565b61109b611224565b60008060146101000a81548160ff0219169083151502179055507f5db9ee0a495bf2e6ff9c91a7834c1ba4fdd244a5e8aa4e537bd38aeae4b073aa6110de61121c565b6040516110eb919061146b565b60405180910390a1565b60008060009054906101000a900473ffffffffffffffffffffffffffffffffffffffff169050816000806101000a81548173ffffffffffffffffffffffffffffffffffffffff021916908373ffffffffffffffffffffffffffffffffffffffff1602179055508173ffffffffffffffffffffffffffffffffffffffff168173ffffffffffffffffffffffffffffffffffffffff167f8be0079c531659141344cd1fd0a4f28419497f9722a3daafe3b4186f6b6457e060405160405180910390a35050565b6111c1610fcb565b6001600060146101000a81548160ff0219169083151502179055507f62e78cea01bee320cd4e420270b5ea74000d11b0c9f74754ebdbfc544b05a25861120561121c565b604051611212919061146b565b60405180910390a1565b600033905090565b61122c610916565b61126b576040517f08c379a00000000000000000000000000000000000000000000000000000000081526004016112629061226b565b60405180910390fd5b565b6000604051905090565b600080fd5b600080fd5b6000819050919050565b61129481611281565b811461129f57600080fd5b50565b6000813590506112b18161128b565b92915050565b6000602082840312156112cd576112cc611277565b5b60006112db848285016112a2565b91505092915050565b600060ff82169050919050565b6112fa816112e4565b811461130557600080fd5b50565b600081359050611317816112f1565b92915050565b60006020828403121561133357611332611277565b5b600061134184828501611308565b91505092915050565b600081519050919050565b600082825260208201905092915050565b6000819050602082019050919050565b61137f81611281565b82525050565b60006113918383611376565b60208301905092915050565b6000602082019050919050565b60006113b58261134a565b6113bf8185611355565b93506113ca83611366565b8060005b838110156113fb5781516113e28882611385565b97506113ed8361139d565b9250506001810190506113ce565b5085935050505092915050565b6000602082019050818103600083015261142281846113aa565b905092915050565b600073ffffffffffffffffffffffffffffffffffffffff82169050919050565b60006114558261142a565b9050919050565b6114658161144a565b82525050565b6000602082019050611480600083018461145c565b92915050565b61148f8161144a565b811461149a57600080fd5b50565b6000813590506114ac81611486565b92915050565b600080604083850312156114c9576114c8611277565b5b60006114d78582860161149d565b92505060206114e8858286016112a2565b9150509250929050565b60008115159050919050565b611507816114f2565b82525050565b600060208201905061152260008301846114fe565b92915050565b600080fd5b600080fd5b6000601f19601f8301169050919050565b7f4e487b7100000000000000000000000000000000000000000000000000000000600052604160045260246000fd5b61157b82611532565b810181811067ffffffffffffffff8211171561159a57611599611543565b5b80604052505050565b60006115ad61126d565b90506115b98282611572565b919050565b600067ffffffffffffffff8211156115d9576115d8611543565b5b6115e282611532565b9050602081019050919050565b82818337600083830152505050565b600061161161160c846115be565b6115a3565b90508281526020810184848401111561162d5761162c61152d565b5b6116388482856115ef565b509392505050565b600082601f83011261165557611654611528565b5b81356116658482602086016115fe565b91505092915050565b60008060006060848603121561168757611686611277565b5b600061169586828701611308565b935050602084013567ffffffffffffffff8111156116b6576116b561127c565b5b6116c286828701611640565b92505060406116d38682870161149d565b9150509250925092565b6116e6816114f2565b81146116f157600080fd5b50565b600081359050611703816116dd565b92915050565b60006020828403121561171f5761171e611277565b5b600061172d848285016116f4565b91505092915050565b600081519050919050565b600082825260208201905092915050565b60005b83811015611770578082015181840152602081019050611755565b60008484015250505050565b600061178782611736565b6117918185611741565b93506117a1818560208601611752565b6117aa81611532565b840191505092915050565b600060208201905081810360008301526117cf818461177c565b905092915050565b6117e081611281565b82525050565b60006020820190506117fb60008301846117d7565b92915050565b60008060006060848603121561181a57611819611277565b5b60006118288682870161149d565b935050602061183986828701611308565b925050604061184a868287016112a2565b9150509250925092565b60008060006060848603121561186d5761186c611277565b5b600061187b86828701611308565b935050602061188c868287016112a2565b925050604061189d868287016112a2565b9150509250925092565b6000602082840312156118bd576118bc611277565b5b60006118cb8482850161149d565b91505092915050565b7f616d6f756e742063616e6e6f7420626520300000000000000000000000000000600082015250565b600061190a601283611741565b9150611915826118d4565b602082019050919050565b60006020820190508181036000830152611939816118fd565b9050919050565b7f4d6178696d756d206d696e74696e672072656163686564000000000000000000600082015250565b6000611976601783611741565b915061198182611940565b602082019050919050565b600060208201905081810360008301526119a581611969565b9050919050565b7f43616e6e6f7420627579207573696e67206e617469766520636f696e7320616e60008201527f796d6f7265000000000000000000000000000000000000000000000000000000602082015250565b6000611a08602583611741565b9150611a13826119ac565b604082019050919050565b60006020820190508181036000830152611a37816119fb565b9050919050565b7f4e487b7100000000000000000000000000000000000000000000000000000000600052601160045260246000fd5b6000611a7882611281565b9150611a8383611281565b9250828201905080821115611a9b57611a9a611a3e565b5b92915050565b600060c0820190508181036000830152611abb818961177c565b9050611aca60208301886117d7565b611ad7604083018761145c565b611ae460608301866117d7565b611af160808301856117d7565b611afe60a08301846117d7565b979650505050505050565b7f4e487b7100000000000000000000000000000000000000000000000000000000600052603260045260246000fd5b6000611b43826112e4565b915060ff8203611b5657611b55611a3e565b5b600182019050919050565b6000611b6c82611281565b9150611b7783611281565b9250828203905081811115611b8f57611b8e611a3e565b5b92915050565b600060a0820190508181036000830152611baf818861177c565b9050611bbe602083018761145c565b611bcb60408301866117d7565b611bd860608301856117d7565b611be560808301846117d7565b9695505050505050565b7f4e487b7100000000000000000000000000000000000000000000000000000000600052602260045260246000fd5b60006002820490506001821680611c3657607f821691505b602082108103611c4957611c48611bef565b5b50919050565b60008190508160005260206000209050919050565b60006020601f8301049050919050565b600082821b905092915050565b600060088302611cb17fffffffffffffffffffffffffffffffffffffffffffffffffffffffffffffffff82611c74565b611cbb8683611c74565b95508019841693508086168417925050509392505050565b6000819050919050565b6000611cf8611cf3611cee84611281565b611cd3565b611281565b9050919050565b6000819050919050565b611d1283611cdd565b611d26611d1e82611cff565b848454611c81565b825550505050565b600090565b611d3b611d2e565b611d46818484611d09565b505050565b5b81811015611d6a57611d5f600082611d33565b600181019050611d4c565b5050565b601f821115611daf57611d8081611c4f565b611d8984611c64565b81016020851015611d98578190505b611dac611da485611c64565b830182611d4b565b50505b505050565b600082821c905092915050565b6000611dd260001984600802611db4565b1980831691505092915050565b6000611deb8383611dc1565b9150826002028217905092915050565b611e0482611736565b67ffffffffffffffff811115611e1d57611e1c611543565b5b611e278254611c1e565b611e32828285611d6e565b600060209050601f831160018114611e655760008415611e53578287015190505b611e5d8582611ddf565b865550611ec5565b601f198416611e7386611c4f565b60005b82811015611e9b57848901518255600182019150602085019450602081019050611e76565b86831015611eb85784890151611eb4601f891682611dc1565b8355505b6001600288020188555050505b505050505050565b6000604082019050611ee2600083018561145c565b611eef60208301846117d7565b9392505050565b600081519050611f05816116dd565b92915050565b600060208284031215611f2157611f20611277565b5b6000611f2f84828501611ef6565b91505092915050565b60008154611f4581611c1e565b611f4f8186611741565b94506001821660008114611f6a5760018114611f8057611fb3565b60ff198316865281151560200286019350611fb3565b611f8985611c4f565b60005b83811015611fab57815481890152600182019150602081019050611f8c565b808801955050505b50505092915050565b600060a0820190508181036000830152611fd68188611f38565b9050611fe5602083018761145c565b611ff260408301866117d7565b611fff60608301856117d7565b61200c60808301846117d7565b9695505050505050565b600060608201905061202b600083018661145c565b612038602083018561145c565b61204560408301846117d7565b949350505050565b600060c08201905081810360008301526120678189611f38565b905061207660208301886117d7565b612083604083018761145c565b61209060608301866117d7565b61209d60808301856117d7565b6120aa60a08301846117d7565b979650505050505050565b7f4f776e61626c653a206e6577206f776e657220697320746865207a65726f206160008201527f6464726573730000000000000000000000000000000000000000000000000000602082015250565b6000612111602683611741565b915061211c826120b5565b604082019050919050565b6000602082019050818103600083015261214081612104565b9050919050565b7f5061757361626c653a2070617573656400000000000000000000000000000000600082015250565b600061217d601083611741565b915061218882612147565b602082019050919050565b600060208201905081810360008301526121ac81612170565b9050919050565b7f4f776e61626c653a2063616c6c6572206973206e6f7420746865206f776e6572600082015250565b60006121e9602083611741565b91506121f4826121b3565b602082019050919050565b60006020820190508181036000830152612218816121dc565b9050919050565b7f5061757361626c653a206e6f7420706175736564000000000000000000000000600082015250565b6000612255601483611741565b91506122608261221f565b602082019050919050565b6000602082019050818103600083015261228481612248565b905091905056fea26469706673582212205b6e0dfd1dee04ecb4ba49f9d61dae40fced792ab6a7bade05e1beaf1241829c64736f6c63430008110033",
  "linkReferences": {},
  "deployedLinkReferences": {}
}