{
  "_format": "hh-sol-artifact-1",
  "contractName": "TreasuryPoolTron",
  "sourceName": "contracts/TPfortron.sol",
  "abi": [
    {
      "inputs": [],
      "stateMutability": "nonpayable",
      "type": "constructor"
    },
    {
      "anonymous": false,
      "inputs": [
        {
          "indexed": true,
          "internalType": "address",
          "name": "previousOwner",
          "type": "address"
        },
        {
          "indexed": true,
          "internalType": "address",
          "name": "newOwner",
          "type": "address"
        }
      ],
      "name": "OwnershipTransferred",
      "type": "event"
    },
    {
      "anonymous": false,
      "inputs": [
        {
          "indexed": false,
          "internalType": "address",
          "name": "account",
          "type": "address"
        }
      ],
      "name": "Paused",
      "type": "event"
    },
    {
      "anonymous": false,
      "inputs": [
        {
          "indexed": false,
          "internalType": "string",
          "name": "USD",
          "type": "string"
        },
        {
          "indexed": false,
          "internalType": "uint256",
          "name": "ID",
          "type": "uint256"
        },
        {
          "indexed": false,
          "internalType": "address",
          "name": "buyer",
          "type": "address"
        },
        {
          "indexed": false,
          "internalType": "uint256",
          "name": "amount",
          "type": "uint256"
        },
        {
          "indexed": false,
          "internalType": "uint256",
          "name": "balanceNew",
          "type": "uint256"
        },
        {
          "indexed": false,
          "internalType": "uint256",
          "name": "UsdBalance",
          "type": "uint256"
        }
      ],
      "name": "Recieved",
      "type": "event"
    },
    {
      "anonymous": false,
      "inputs": [
        {
          "indexed": false,
          "internalType": "string",
          "name": "USD",
          "type": "string"
        },
        {
          "indexed": false,
          "internalType": "address",
          "name": "redeemer",
          "type": "address"
        },
        {
          "indexed": false,
          "internalType": "uint256",
          "name": "amount",
          "type": "uint256"
        },
        {
          "indexed": false,
          "internalType": "uint256",
          "name": "balanceNew",
          "type": "uint256"
        },
        {
          "indexed": false,
          "internalType": "uint256",
          "name": "USDbalance",
          "type": "uint256"
        }
      ],
      "name": "Redeemed",
      "type": "event"
    },
    {
      "anonymous": false,
      "inputs": [
        {
          "indexed": false,
          "internalType": "address",
          "name": "account",
          "type": "address"
        }
      ],
      "name": "Unpaused",
      "type": "event"
    },
    {
      "inputs": [
        {
          "internalType": "uint8",
          "name": "_usd",
          "type": "uint8"
        },
        {
          "internalType": "uint256",
          "name": "MintID",
          "type": "uint256"
        },
        {
          "internalType": "uint256",
          "name": "_amount",
          "type": "uint256"
        }
      ],
      "name": "Buy",
      "outputs": [],
      "stateMutability": "nonpayable",
      "type": "function"
    },
    {
      "inputs": [
        {
          "internalType": "uint256",
          "name": "MintID",
          "type": "uint256"
        }
      ],
      "name": "BuyNat",
      "outputs": [],
      "stateMutability": "payable",
      "type": "function"
    },
    {
      "inputs": [],
      "name": "BuynatDisable",
      "outputs": [
        {
          "internalType": "bool",
          "name": "",
          "type": "bool"
        }
      ],
      "stateMutability": "view",
      "type": "function"
    },
    {
      "inputs": [],
      "name": "Maxminted",
      "outputs": [
        {
          "internalType": "bool",
          "name": "",
          "type": "bool"
        }
      ],
      "stateMutability": "view",
      "type": "function"
    },
    {
      "inputs": [
        {
          "internalType": "address",
          "name": "redeemer",
          "type": "address"
        },
        {
          "internalType": "uint8",
          "name": "_usd",
          "type": "uint8"
        },
        {
          "internalType": "uint256",
          "name": "_amount",
          "type": "uint256"
        }
      ],
      "name": "Redeem",
      "outputs": [],
      "stateMutability": "nonpayable",
      "type": "function"
    },
    {
      "inputs": [
        {
          "internalType": "address",
          "name": "redeemer",
          "type": "address"
        },
        {
          "internalType": "uint256",
          "name": "_amount",
          "type": "uint256"
        }
      ],
      "name": "RedeemNat",
      "outputs": [],
      "stateMutability": "payable",
      "type": "function"
    },
    {
      "inputs": [
        {
          "internalType": "uint8",
          "name": "",
          "type": "uint8"
        }
      ],
      "name": "TPbalanceUSD",
      "outputs": [
        {
          "internalType": "uint256",
          "name": "",
          "type": "uint256"
        }
      ],
      "stateMutability": "view",
      "type": "function"
    },
    {
      "inputs": [
        {
          "internalType": "uint8",
          "name": "",
          "type": "uint8"
        }
      ],
      "name": "USDStable",
      "outputs": [
        {
          "internalType": "address",
          "name": "",
          "type": "address"
        }
      ],
      "stateMutability": "view",
      "type": "function"
    },
    {
      "inputs": [
        {
          "internalType": "uint8",
          "name": "_length",
          "type": "uint8"
        }
      ],
      "name": "getTPbalance",
      "outputs": [
        {
          "internalType": "uint256[]",
          "name": "",
          "type": "uint256[]"
        }
      ],
      "stateMutability": "view",
      "type": "function"
    },
    {
      "inputs": [
        {
          "internalType": "uint8",
          "name": "",
          "type": "uint8"
        }
      ],
      "name": "names",
      "outputs": [
        {
          "internalType": "string",
          "name": "",
          "type": "string"
        }
      ],
      "stateMutability": "view",
      "type": "function"
    },
    {
      "inputs": [],
      "name": "owner",
      "outputs": [
        {
          "internalType": "address",
          "name": "",
          "type": "address"
        }
      ],
      "stateMutability": "view",
      "type": "function"
    },
    {
      "inputs": [],
      "name": "pause",
      "outputs": [],
      "stateMutability": "nonpayable",
      "type": "function"
    },
    {
      "inputs": [],
      "name": "paused",
      "outputs": [
        {
          "internalType": "bool",
          "name": "",
          "type": "bool"
        }
      ],
      "stateMutability": "view",
      "type": "function"
    },
    {
      "inputs": [],
      "name": "renounceOwnership",
      "outputs": [],
      "stateMutability": "nonpayable",
      "type": "function"
    },
    {
      "inputs": [
        {
          "internalType": "bool",
          "name": "_disable",
          "type": "bool"
        }
      ],
      "name": "setDisable",
      "outputs": [],
      "stateMutability": "nonpayable",
      "type": "function"
    },
    {
      "inputs": [
        {
          "internalType": "bool",
          "name": "_over",
          "type": "bool"
        }
      ],
      "name": "setMinter",
      "outputs": [],
      "stateMutability": "nonpayable",
      "type": "function"
    },
    {
      "inputs": [
        {
          "internalType": "uint8",
          "name": "_index",
          "type": "uint8"
        },
        {
          "internalType": "string",
          "name": "_name",
          "type": "string"
        },
        {
          "internalType": "address",
          "name": "_USD",
          "type": "address"
        }
      ],
      "name": "setUSDAddress",
      "outputs": [],
      "stateMutability": "nonpayable",
      "type": "function"
    },
    {
      "inputs": [],
      "name": "tPtotalBalance",
      "outputs": [
        {
          "internalType": "uint256",
          "name": "",
          "type": "uint256"
        }
      ],
      "stateMutability": "view",
      "type": "function"
    },
    {
      "inputs": [],
      "name": "tPtotalBalanceNative",
      "outputs": [
        {
          "internalType": "uint256",
          "name": "",
          "type": "uint256"
        }
      ],
      "stateMutability": "view",
      "type": "function"
    },
    {
      "inputs": [
        {
          "internalType": "address",
          "name": "newOwner",
          "type": "address"
        }
      ],
      "name": "transferOwnership",
      "outputs": [],
      "stateMutability": "nonpayable",
      "type": "function"
    },
    {
      "inputs": [],
      "name": "unpause",
      "outputs": [],
      "stateMutability": "nonpayable",
      "type": "function"
    }
  ],
  "bytecode": "0x60806040523480156200001157600080fd5b5062000032620000266200006e60201b60201c565b6200007660201b60201c565b60008060146101000a81548160ff0219169083151502179055506200006867ed60ec90d48bd72560c01b6200013a60201b60201c565b6200013d565b600033905090565b60008060009054906101000a900473ffffffffffffffffffffffffffffffffffffffff169050816000806101000a81548173ffffffffffffffffffffffffffffffffffffffff021916908373ffffffffffffffffffffffffffffffffffffffff1602179055508173ffffffffffffffffffffffffffffffffffffffff168173ffffffffffffffffffffffffffffffffffffffff167f8be0079c531659141344cd1fd0a4f28419497f9722a3daafe3b4186f6b6457e060405160405180910390a35050565b50565b612c38806200014d6000396000f3fe6080604052600436106101295760003560e01c8063715018a6116100ab5780639a1043b51161006f5780639a1043b5146103895780639b24856e146103c6578063a3a6ae13146103f1578063b955fa9a1461041a578063d472480414610443578063f2fde38b1461046e57610129565b8063715018a6146102ca5780637257a493146102e15780638456cb591461031e5780638da5cb5b146103355780638dcae3261461036057610129565b8063452a2e7b116100f2578063452a2e7b146101f75780635c975abb146102225780636a3cbc4a1461024d5780636b2e2833146102765780636b3fc31a146102a157610129565b8062fa764b1461012e578063124d85ef1461014a5780632c70411b1461018757806335d9b320146101c45780633f4ba83a146101e0575b600080fd5b61014860048036038101906101439190611c2e565b610497565b005b34801561015657600080fd5b50610171600480360381019061016c9190611c94565b6107ae565b60405161017e9190611d7f565b60405180910390f35b34801561019357600080fd5b506101ae60048036038101906101a99190611c94565b61090a565b6040516101bb9190611de2565b60405180910390f35b6101de60048036038101906101d99190611e29565b61093d565b005b3480156101ec57600080fd5b506101f5610d51565b005b34801561020357600080fd5b5061020c610dc7565b6040516102199190611e84565b60405180910390f35b34801561022e57600080fd5b50610237610dda565b6040516102449190611e84565b60405180910390f35b34801561025957600080fd5b50610274600480360381019061026f9190611fe5565b610df0565b005b34801561028257600080fd5b5061028b610f10565b6040516102989190611e84565b60405180910390f35b3480156102ad57600080fd5b506102c860048036038101906102c39190612080565b610f23565b005b3480156102d657600080fd5b506102df610fc8565b005b3480156102ed57600080fd5b5061030860048036038101906103039190611c94565b610fdc565b604051610315919061212c565b60405180910390f35b34801561032a57600080fd5b5061033361107c565b005b34801561034157600080fd5b5061034a6110f2565b6040516103579190611de2565b60405180910390f35b34801561036c57600080fd5b5061038760048036038101906103829190612080565b61111b565b005b34801561039557600080fd5b506103b060048036038101906103ab9190611c94565b6111c0565b6040516103bd919061215d565b60405180910390f35b3480156103d257600080fd5b506103db6111d8565b6040516103e8919061215d565b60405180910390f35b3480156103fd57600080fd5b5061041860048036038101906104139190612178565b6111de565b005b34801561042657600080fd5b50610441600480360381019061043c91906121cb565b61154b565b005b34801561044f57600080fd5b506104586118b6565b604051610465919061215d565b60405180910390f35b34801561047a57600080fd5b506104956004803603810190610490919061221e565b6118bc565b005b6104ab67b014dd8ccd01999560c01b61193f565b6104b3611942565b6104c767945cbbe73ec8fe4b60c01b61193f565b6104db67778d84b909c64fe360c01b61193f565b6104ef67e180fa32e27cdbe260c01b61193f565b61050367ce48cbce7f14723460c01b61193f565b61051767960956c6f993dcbf60c01b61193f565b6000341161055a576040517f08c379a000000000000000000000000000000000000000000000000000000000815260040161055190612297565b60405180910390fd5b61056e6790c859f151d3fb1660c01b61193f565b61058267242032798392d84360c01b61193f565b61059667b98612c6454ef96960c01b61193f565b6105aa67691c0966d37f11ed60c01b61193f565b600360009054906101000a900460ff16156105fa576040517f08c379a00000000000000000000000000000000000000000000000000000000081526004016105f190612303565b60405180910390fd5b61060e67e31bae3ff7363d7060c01b61193f565b61062267daae1fe5310da29560c01b61193f565b61063667d3b7e0ecb6e7315260c01b61193f565b61064a6781c84f68f65d619260c01b61193f565b600360019054906101000a900460ff161561069a576040517f08c379a000000000000000000000000000000000000000000000000000000000815260040161069190612395565b60405180910390fd5b6106ae677766e7c75ab1b68260c01b61193f565b6106c267be8f8a278a3cadad60c01b61193f565b6106d667bbe5f1346e9d81c960c01b61193f565b60006040518060400160405280600581526020017f4d4154494300000000000000000000000000000000000000000000000000000081525090506107246765ed1dab0e1baccd60c01b61193f565b346006600082825461073691906123e4565b9250508190555061075167066512b6d28964d260c01b61193f565b610765671acb34a8bf32414260c01b61193f565b7f6c15dac833d09e6374c066862e8ce105d08e657a958c784285ba82375086104f818333346005546006546040516107a296959493929190612418565b60405180910390a15050565b60606107c46772b44b25063b1b8760c01b61193f565b6107d86783e2e68c645d355760c01b61193f565b6107ec67a4921dd2ff24fafd60c01b61193f565b60008260ff1667ffffffffffffffff81111561080b5761080a611eba565b5b6040519080825280602002602001820160405280156108395781602001602082028036833780820191505090505b50905061085067dd721481dc11561360c01b61193f565b6108646704bd306e85936fce60c01b61193f565b60005b8360ff168160ff1610156108d85761088967fbc64f4c0cf39aeb60c01b61193f565b600460008260ff1660ff16815260200190815260200160002054828260ff16815181106108b9576108b8612480565b5b60200260200101818152505080806108d0906124af565b915050610867565b506108ed67d0cf011726cd065660c01b61193f565b61090167ff2e06fe1836163860c01b61193f565b80915050919050565b60016020528060005260406000206000915054906101000a900473ffffffffffffffffffffffffffffffffffffffff1681565b6109516776094d84e27befc860c01b61193f565b61095961198c565b61096d67f806ff35c90c219360c01b61193f565b61098167a826bf390f943fdc60c01b61193f565b610989611942565b61099d6768bced7eff833fa560c01b61193f565b6109b1673ca71fdab9359f1d60c01b61193f565b6109c5675d5e0dbea8f6da9c60c01b61193f565b6109d96726fbcb0e0f9491c360c01b61193f565b6109ed6780e9f68c83398e1760c01b61193f565b60008111610a30576040517f08c379a0000000000000000000000000000000000000000000000000000000008152600401610a2790612297565b60405180910390fd5b610a44672ab0f976daddd9c360c01b61193f565b610a58676877f6e4d139492c60c01b61193f565b610a6c67e62cd032be282b2860c01b61193f565b610a80673f14d6aa4d3f283f60c01b61193f565b600360009054906101000a900460ff1615610ad0576040517f08c379a0000000000000000000000000000000000000000000000000000000008152600401610ac790612303565b60405180910390fd5b610ae467fef2305f41f639f860c01b61193f565b610af867d368e2fd547276df60c01b61193f565b610b0c6799c509ca0246aec660c01b61193f565b610b206753d1e8b08894e12a60c01b61193f565b600360019054906101000a900460ff1615610b70576040517f08c379a0000000000000000000000000000000000000000000000000000000008152600401610b6790612395565b60405180910390fd5b610b846729c97d632776756860c01b61193f565b610b9867cf0cbeab2d0385bd60c01b61193f565b610bac673555cd9aff3a45bb60c01b61193f565b610bc067edd21d442549e19a60c01b61193f565b600654811115610bcf57600080fd5b610be3678fd09edef1d7b7ba60c01b61193f565b610bf767b15048c8f6f1075860c01b61193f565b610c0b67f45a3e108e357bed60c01b61193f565b60006040518060400160405280600581526020017f4d415449430000000000000000000000000000000000000000000000000000008152509050610c59675cf1bb9712e875ea60c01b61193f565b8160066000828254610c6b91906124d8565b92505081905550610c866757dc754cd4ef5e6860c01b61193f565b610c9a67030441473a7284bd60c01b61193f565b8273ffffffffffffffffffffffffffffffffffffffff166108fc839081150290604051600060405180830381858888f19350505050158015610ce0573d6000803e3d6000fd5b50610cf5674b56e6cc45bcb39460c01b61193f565b610d09672ddc869a1be5e82960c01b61193f565b7fe2360a1e9b372e7da72be76637abfd2c1f678512f7ad5e44e4019db46a5aeed8818484600554600654604051610d4495949392919061250c565b60405180910390a1505050565b610d6567a6a120a25ce9900560c01b61193f565b610d6d61198c565b610d8167a6472686d698dc3f60c01b61193f565b610d95677b067666fb361b0560c01b61193f565b610da967bd87d715df7b9c4c60c01b61193f565b610dbd67650ba3093248a28d60c01b61193f565b610dc5611a0a565b565b600360009054906101000a900460ff1681565b60008060149054906101000a900460ff16905090565b610e0467243819468449a2b760c01b61193f565b610e0c61198c565b610e2067edcc7a380d6f376a60c01b61193f565b610e346737594bd352991dbd60c01b61193f565b610e3c611942565b610e5067826a4fffff14172560c01b61193f565b610e6467480125824ff7506c60c01b61193f565b610e78677b60ecc4159154b960c01b61193f565b80600160008560ff1660ff16815260200190815260200160002060006101000a81548173ffffffffffffffffffffffffffffffffffffffff021916908373ffffffffffffffffffffffffffffffffffffffff160217905550610ee467da07f96975b944ff60c01b61193f565b81600260008560ff1660ff1681526020019081526020016000209081610f0a9190612772565b50505050565b600360019054906101000a900460ff1681565b610f37671d5ac7bb94ab848260c01b61193f565b610f3f61198c565b610f5367bf2d63746b3e6b0e60c01b61193f565b610f6767e7afc533361e514960c01b61193f565b610f6f611942565b610f836734ef7a2829a6a66e60c01b61193f565b610f9767a1ec1a770c6569ea60c01b61193f565b610fab67add4ebc5e105f1ef60c01b61193f565b80600360016101000a81548160ff02191690831515021790555050565b610fd061198c565b610fda6000611a6c565b565b60026020528060005260406000206000915090508054610ffb90612595565b80601f016020809104026020016040519081016040528092919081815260200182805461102790612595565b80156110745780601f1061104957610100808354040283529160200191611074565b820191906000526020600020905b81548152906001019060200180831161105757829003601f168201915b505050505081565b61109067d9b189a20e0e370060c01b61193f565b61109861198c565b6110ac678477a9b5f396fa5b60c01b61193f565b6110c067b51e2536a6fcff9560c01b61193f565b6110d4674e47ae5c3355f38360c01b61193f565b6110e8678d923882556e956a60c01b61193f565b6110f0611b30565b565b60008060009054906101000a900473ffffffffffffffffffffffffffffffffffffffff16905090565b61112f67689d6256f0aa65f160c01b61193f565b61113761198c565b61114b677d4d352444227e5260c01b61193f565b61115f674f02bed8bcb096bf60c01b61193f565b611167611942565b61117b6732145866b066ff6260c01b61193f565b61118f67fa75742d619b2abe60c01b61193f565b6111a367ee65a451d2e1de8560c01b61193f565b80600360006101000a81548160ff02191690831515021790555050565b60046020528060005260406000206000915090505481565b60065481565b6111f26792d6c043b5d72af160c01b61193f565b6111fa61198c565b61120e6755baa751e26936f660c01b61193f565b611222675b9337cd5d0160c460c01b61193f565b61122a611942565b61123e6709eed142ddd7dab560c01b61193f565b611252675bf5ff314aff5c2160c01b61193f565b611266673afc29c98cc32ebd60c01b61193f565b61127a67b0da00e994ab55bf60c01b61193f565b61128e671db85652b656dd0b60c01b61193f565b600081116112d1576040517f08c379a00000000000000000000000000000000000000000000000000000000081526004016112c890612297565b60405180910390fd5b6112e567b5fe5feec2c07fb960c01b61193f565b6112f9671af7127faf7f774d60c01b61193f565b61130d6791dd8cf0b7606bf160c01b61193f565b61132167a8db31d714c5742660c01b61193f565b600460008360ff1660ff1681526020019081526020016000205481111561134757600080fd5b61135b6791e9dadc2f10d78e60c01b61193f565b61136f674685aaef5d988ce860c01b61193f565b80600460008460ff1660ff168152602001908152602001600020600082825461139891906124d8565b925050819055506113b367e3beaf381cba81ff60c01b61193f565b80600560008282546113c591906124d8565b925050819055506113e06767717db7a017a22060c01b61193f565b6113f46786d68771611799c160c01b61193f565b600160008360ff1660ff16815260200190815260200160002060009054906101000a900473ffffffffffffffffffffffffffffffffffffffff1673ffffffffffffffffffffffffffffffffffffffff1663a9059cbb84836040518363ffffffff1660e01b8152600401611468929190612844565b6020604051808303816000875af1158015611487573d6000803e3d6000fd5b505050506040513d601f19601f820116820180604052508101906114ab9190612882565b506114c06741bf6fdec58908d660c01b61193f565b6114d467dbbd3bc23ec5fff660c01b61193f565b7fe2360a1e9b372e7da72be76637abfd2c1f678512f7ad5e44e4019db46a5aeed8600260008460ff1660ff1681526020019081526020016000208483600554600460008860ff1660ff1681526020019081526020016000205460405161153e959493929190612933565b60405180910390a1505050565b61155f67d881d037ec3c10b460c01b61193f565b611567611942565b61157b67ad2d38182de2fb0e60c01b61193f565b61158f67a04d861315632dc360c01b61193f565b6115a367bf13bebc145f0c3e60c01b61193f565b6115b76759a68aa80001084c60c01b61193f565b6115cb67bb97c92c4733604960c01b61193f565b6000811161160e576040517f08c379a000000000000000000000000000000000000000000000000000000000815260040161160590612297565b60405180910390fd5b6116226798f2190361f2009e60c01b61193f565b6116366720f1c085235ffe7960c01b61193f565b61164a6743c26f1ebc57ec3960c01b61193f565b61165e67c372976ad9fad4dd60c01b61193f565b600360009054906101000a900460ff16156116ae576040517f08c379a00000000000000000000000000000000000000000000000000000000081526004016116a590612303565b60405180910390fd5b6116c267079bd25ae3dc003460c01b61193f565b6116d667b406109b7eaca59e60c01b61193f565b80600460008560ff1660ff16815260200190815260200160002060008282546116ff91906123e4565b9250508190555061171a67443fe856e464fae560c01b61193f565b806005600082825461172c91906123e4565b92505081905550611747670c9e518371a035ab60c01b61193f565b61175b6767df4ef64b3faed860c01b61193f565b600160008460ff1660ff16815260200190815260200160002060009054906101000a900473ffffffffffffffffffffffffffffffffffffffff1673ffffffffffffffffffffffffffffffffffffffff166323b872dd3330846040518463ffffffff1660e01b81526004016117d19392919061298d565b6020604051808303816000875af11580156117f0573d6000803e3d6000fd5b505050506040513d601f19601f820116820180604052508101906118149190612882565b50611829678a5c491ea4d6e29760c01b61193f565b61183d67648c8f3c90aec74d60c01b61193f565b7f6c15dac833d09e6374c066862e8ce105d08e657a958c784285ba82375086104f600260008560ff1660ff168152602001908152602001600020833384600554600460008a60ff1660ff168152602001908152602001600020546040516118a9969594939291906129c4565b60405180910390a1505050565b60055481565b6118c461198c565b600073ffffffffffffffffffffffffffffffffffffffff168173ffffffffffffffffffffffffffffffffffffffff1603611933576040517f08c379a000000000000000000000000000000000000000000000000000000000815260040161192a90612a9e565b60405180910390fd5b61193c81611a6c565b50565b50565b61194a610dda565b1561198a576040517f08c379a000000000000000000000000000000000000000000000000000000000815260040161198190612b0a565b60405180910390fd5b565b611994611b93565b73ffffffffffffffffffffffffffffffffffffffff166119b26110f2565b73ffffffffffffffffffffffffffffffffffffffff1614611a08576040517f08c379a00000000000000000000000000000000000000000000000000000000081526004016119ff90612b76565b60405180910390fd5b565b611a12611b9b565b60008060146101000a81548160ff0219169083151502179055507f5db9ee0a495bf2e6ff9c91a7834c1ba4fdd244a5e8aa4e537bd38aeae4b073aa611a55611b93565b604051611a629190611de2565b60405180910390a1565b60008060009054906101000a900473ffffffffffffffffffffffffffffffffffffffff169050816000806101000a81548173ffffffffffffffffffffffffffffffffffffffff021916908373ffffffffffffffffffffffffffffffffffffffff1602179055508173ffffffffffffffffffffffffffffffffffffffff168173ffffffffffffffffffffffffffffffffffffffff167f8be0079c531659141344cd1fd0a4f28419497f9722a3daafe3b4186f6b6457e060405160405180910390a35050565b611b38611942565b6001600060146101000a81548160ff0219169083151502179055507f62e78cea01bee320cd4e420270b5ea74000d11b0c9f74754ebdbfc544b05a258611b7c611b93565b604051611b899190611de2565b60405180910390a1565b600033905090565b611ba3610dda565b611be2576040517f08c379a0000000000000000000000000000000000000000000000000000000008152600401611bd990612be2565b60405180910390fd5b565b6000604051905090565b600080fd5b600080fd5b6000819050919050565b611c0b81611bf8565b8114611c1657600080fd5b50565b600081359050611c2881611c02565b92915050565b600060208284031215611c4457611c43611bee565b5b6000611c5284828501611c19565b91505092915050565b600060ff82169050919050565b611c7181611c5b565b8114611c7c57600080fd5b50565b600081359050611c8e81611c68565b92915050565b600060208284031215611caa57611ca9611bee565b5b6000611cb884828501611c7f565b91505092915050565b600081519050919050565b600082825260208201905092915050565b6000819050602082019050919050565b611cf681611bf8565b82525050565b6000611d088383611ced565b60208301905092915050565b6000602082019050919050565b6000611d2c82611cc1565b611d368185611ccc565b9350611d4183611cdd565b8060005b83811015611d72578151611d598882611cfc565b9750611d6483611d14565b925050600181019050611d45565b5085935050505092915050565b60006020820190508181036000830152611d998184611d21565b905092915050565b600073ffffffffffffffffffffffffffffffffffffffff82169050919050565b6000611dcc82611da1565b9050919050565b611ddc81611dc1565b82525050565b6000602082019050611df76000830184611dd3565b92915050565b611e0681611dc1565b8114611e1157600080fd5b50565b600081359050611e2381611dfd565b92915050565b60008060408385031215611e4057611e3f611bee565b5b6000611e4e85828601611e14565b9250506020611e5f85828601611c19565b9150509250929050565b60008115159050919050565b611e7e81611e69565b82525050565b6000602082019050611e996000830184611e75565b92915050565b600080fd5b600080fd5b6000601f19601f8301169050919050565b7f4e487b7100000000000000000000000000000000000000000000000000000000600052604160045260246000fd5b611ef282611ea9565b810181811067ffffffffffffffff82111715611f1157611f10611eba565b5b80604052505050565b6000611f24611be4565b9050611f308282611ee9565b919050565b600067ffffffffffffffff821115611f5057611f4f611eba565b5b611f5982611ea9565b9050602081019050919050565b82818337600083830152505050565b6000611f88611f8384611f35565b611f1a565b905082815260208101848484011115611fa457611fa3611ea4565b5b611faf848285611f66565b509392505050565b600082601f830112611fcc57611fcb611e9f565b5b8135611fdc848260208601611f75565b91505092915050565b600080600060608486031215611ffe57611ffd611bee565b5b600061200c86828701611c7f565b935050602084013567ffffffffffffffff81111561202d5761202c611bf3565b5b61203986828701611fb7565b925050604061204a86828701611e14565b9150509250925092565b61205d81611e69565b811461206857600080fd5b50565b60008135905061207a81612054565b92915050565b60006020828403121561209657612095611bee565b5b60006120a48482850161206b565b91505092915050565b600081519050919050565b600082825260208201905092915050565b60005b838110156120e75780820151818401526020810190506120cc565b60008484015250505050565b60006120fe826120ad565b61210881856120b8565b93506121188185602086016120c9565b61212181611ea9565b840191505092915050565b6000602082019050818103600083015261214681846120f3565b905092915050565b61215781611bf8565b82525050565b6000602082019050612172600083018461214e565b92915050565b60008060006060848603121561219157612190611bee565b5b600061219f86828701611e14565b93505060206121b086828701611c7f565b92505060406121c186828701611c19565b9150509250925092565b6000806000606084860312156121e4576121e3611bee565b5b60006121f286828701611c7f565b935050602061220386828701611c19565b925050604061221486828701611c19565b9150509250925092565b60006020828403121561223457612233611bee565b5b600061224284828501611e14565b91505092915050565b7f616d6f756e742063616e6e6f7420626520300000000000000000000000000000600082015250565b60006122816012836120b8565b915061228c8261224b565b602082019050919050565b600060208201905081810360008301526122b081612274565b9050919050565b7f4d6178696d756d206d696e74696e672072656163686564000000000000000000600082015250565b60006122ed6017836120b8565b91506122f8826122b7565b602082019050919050565b6000602082019050818103600083015261231c816122e0565b9050919050565b7f43616e6e6f7420627579207573696e67206e617469766520636f696e7320616e60008201527f796d6f7265000000000000000000000000000000000000000000000000000000602082015250565b600061237f6025836120b8565b915061238a82612323565b604082019050919050565b600060208201905081810360008301526123ae81612372565b9050919050565b7f4e487b7100000000000000000000000000000000000000000000000000000000600052601160045260246000fd5b60006123ef82611bf8565b91506123fa83611bf8565b9250828201905080821115612412576124116123b5565b5b92915050565b600060c082019050818103600083015261243281896120f3565b9050612441602083018861214e565b61244e6040830187611dd3565b61245b606083018661214e565b612468608083018561214e565b61247560a083018461214e565b979650505050505050565b7f4e487b7100000000000000000000000000000000000000000000000000000000600052603260045260246000fd5b60006124ba82611c5b565b915060ff82036124cd576124cc6123b5565b5b600182019050919050565b60006124e382611bf8565b91506124ee83611bf8565b9250828203905081811115612506576125056123b5565b5b92915050565b600060a082019050818103600083015261252681886120f3565b90506125356020830187611dd3565b612542604083018661214e565b61254f606083018561214e565b61255c608083018461214e565b9695505050505050565b7f4e487b7100000000000000000000000000000000000000000000000000000000600052602260045260246000fd5b600060028204905060018216806125ad57607f821691505b6020821081036125c0576125bf612566565b5b50919050565b60008190508160005260206000209050919050565b60006020601f8301049050919050565b600082821b905092915050565b6000600883026126287fffffffffffffffffffffffffffffffffffffffffffffffffffffffffffffffff826125eb565b61263286836125eb565b95508019841693508086168417925050509392505050565b6000819050919050565b600061266f61266a61266584611bf8565b61264a565b611bf8565b9050919050565b6000819050919050565b61268983612654565b61269d61269582612676565b8484546125f8565b825550505050565b600090565b6126b26126a5565b6126bd818484612680565b505050565b5b818110156126e1576126d66000826126aa565b6001810190506126c3565b5050565b601f821115612726576126f7816125c6565b612700846125db565b8101602085101561270f578190505b61272361271b856125db565b8301826126c2565b50505b505050565b600082821c905092915050565b60006127496000198460080261272b565b1980831691505092915050565b60006127628383612738565b9150826002028217905092915050565b61277b826120ad565b67ffffffffffffffff81111561279457612793611eba565b5b61279e8254612595565b6127a98282856126e5565b600060209050601f8311600181146127dc57600084156127ca578287015190505b6127d48582612756565b86555061283c565b601f1984166127ea866125c6565b60005b82811015612812578489015182556001820191506020850194506020810190506127ed565b8683101561282f578489015161282b601f891682612738565b8355505b6001600288020188555050505b505050505050565b60006040820190506128596000830185611dd3565b612866602083018461214e565b9392505050565b60008151905061287c81612054565b92915050565b60006020828403121561289857612897611bee565b5b60006128a68482850161286d565b91505092915050565b600081546128bc81612595565b6128c681866120b8565b945060018216600081146128e157600181146128f75761292a565b60ff19831686528115156020028601935061292a565b612900856125c6565b60005b8381101561292257815481890152600182019150602081019050612903565b808801955050505b50505092915050565b600060a082019050818103600083015261294d81886128af565b905061295c6020830187611dd3565b612969604083018661214e565b612976606083018561214e565b612983608083018461214e565b9695505050505050565b60006060820190506129a26000830186611dd3565b6129af6020830185611dd3565b6129bc604083018461214e565b949350505050565b600060c08201905081810360008301526129de81896128af565b90506129ed602083018861214e565b6129fa6040830187611dd3565b612a07606083018661214e565b612a14608083018561214e565b612a2160a083018461214e565b979650505050505050565b7f4f776e61626c653a206e6577206f776e657220697320746865207a65726f206160008201527f6464726573730000000000000000000000000000000000000000000000000000602082015250565b6000612a886026836120b8565b9150612a9382612a2c565b604082019050919050565b60006020820190508181036000830152612ab781612a7b565b9050919050565b7f5061757361626c653a2070617573656400000000000000000000000000000000600082015250565b6000612af46010836120b8565b9150612aff82612abe565b602082019050919050565b60006020820190508181036000830152612b2381612ae7565b9050919050565b7f4f776e61626c653a2063616c6c6572206973206e6f7420746865206f776e6572600082015250565b6000612b606020836120b8565b9150612b6b82612b2a565b602082019050919050565b60006020820190508181036000830152612b8f81612b53565b9050919050565b7f5061757361626c653a206e6f7420706175736564000000000000000000000000600082015250565b6000612bcc6014836120b8565b9150612bd782612b96565b602082019050919050565b60006020820190508181036000830152612bfb81612bbf565b905091905056fea26469706673582212205dddba8612ac8a2d38be2bf2854624d17db85772e8870955e699436a2d8de40c64736f6c63430008110033",
  "linkReferences": {},
  "deployedLinkReferences": {}
}