{
  "_format": "hh-sol-artifact-1",
  "contractName": "EscrowERC",
  "sourceName": "contracts/p2pERC.sol",
  "abi": [
    {
      "inputs": [],
      "stateMutability": "nonpayable",
      "type": "constructor"
    },
    {
      "anonymous": false,
      "inputs": [
        {
          "indexed": false,
          "internalType": "address",
          "name": "previousAdmin",
          "type": "address"
        },
        {
          "indexed": false,
          "internalType": "address",
          "name": "newAdmin",
          "type": "address"
        }
      ],
      "name": "AdminChanged",
      "type": "event"
    },
    {
      "anonymous": false,
      "inputs": [
        {
          "indexed": true,
          "internalType": "address",
          "name": "beacon",
          "type": "address"
        }
      ],
      "name": "BeaconUpgraded",
      "type": "event"
    },
    {
      "anonymous": false,
      "inputs": [
        {
          "indexed": false,
          "internalType": "uint256",
          "name": "_TradeCloneID",
          "type": "uint256"
        },
        {
          "indexed": false,
          "internalType": "address",
          "name": "Buyer",
          "type": "address"
        },
        {
          "indexed": false,
          "internalType": "uint256",
          "name": "_amount",
          "type": "uint256"
        }
      ],
      "name": "BuyerDeposit",
      "type": "event"
    },
    {
      "anonymous": false,
      "inputs": [
        {
          "indexed": false,
          "internalType": "uint8",
          "name": "version",
          "type": "uint8"
        }
      ],
      "name": "Initialized",
      "type": "event"
    },
    {
      "anonymous": false,
      "inputs": [
        {
          "indexed": true,
          "internalType": "address",
          "name": "previousOwner",
          "type": "address"
        },
        {
          "indexed": true,
          "internalType": "address",
          "name": "newOwner",
          "type": "address"
        }
      ],
      "name": "OwnershipTransferred",
      "type": "event"
    },
    {
      "anonymous": false,
      "inputs": [
        {
          "indexed": false,
          "internalType": "address",
          "name": "account",
          "type": "address"
        }
      ],
      "name": "Paused",
      "type": "event"
    },
    {
      "anonymous": false,
      "inputs": [
        {
          "indexed": false,
          "internalType": "uint256",
          "name": "_TradeCloneid",
          "type": "uint256"
        },
        {
          "indexed": false,
          "internalType": "address",
          "name": "Seller",
          "type": "address"
        },
        {
          "indexed": false,
          "internalType": "uint256",
          "name": "_amount",
          "type": "uint256"
        }
      ],
      "name": "Sellerwithdraw",
      "type": "event"
    },
    {
      "anonymous": false,
      "inputs": [
        {
          "indexed": false,
          "internalType": "uint256",
          "name": "_swapID",
          "type": "uint256"
        },
        {
          "indexed": false,
          "internalType": "uint256",
          "name": "Parent",
          "type": "uint256"
        },
        {
          "indexed": false,
          "internalType": "address",
          "name": "Buyer",
          "type": "address"
        }
      ],
      "name": "SwapComplete",
      "type": "event"
    },
    {
      "anonymous": false,
      "inputs": [
        {
          "indexed": false,
          "internalType": "address",
          "name": "account",
          "type": "address"
        }
      ],
      "name": "Unpaused",
      "type": "event"
    },
    {
      "anonymous": false,
      "inputs": [
        {
          "indexed": true,
          "internalType": "address",
          "name": "implementation",
          "type": "address"
        }
      ],
      "name": "Upgraded",
      "type": "event"
    },
    {
      "anonymous": false,
      "inputs": [
        {
          "indexed": false,
          "internalType": "uint256",
          "name": "_Tradeid",
          "type": "uint256"
        },
        {
          "indexed": false,
          "internalType": "address",
          "name": "Seller",
          "type": "address"
        },
        {
          "indexed": false,
          "internalType": "uint256",
          "name": "_amount",
          "type": "uint256"
        }
      ],
      "name": "refunded",
      "type": "event"
    },
    {
      "anonymous": false,
      "inputs": [
        {
          "indexed": false,
          "internalType": "uint256",
          "name": "_SwapID",
          "type": "uint256"
        },
        {
          "indexed": false,
          "internalType": "address",
          "name": "Buyer",
          "type": "address"
        }
      ],
      "name": "swapCreated",
      "type": "event"
    },
    {
      "anonymous": false,
      "inputs": [
        {
          "indexed": false,
          "internalType": "uint256",
          "name": "_TradeCloneid",
          "type": "uint256"
        },
        {
          "indexed": false,
          "internalType": "address",
          "name": "Seller",
          "type": "address"
        }
      ],
      "name": "tradeCloneCreated",
      "type": "event"
    },
    {
      "anonymous": false,
      "inputs": [
        {
          "indexed": false,
          "internalType": "uint256",
          "name": "_Tradeid",
          "type": "uint256"
        },
        {
          "indexed": false,
          "internalType": "address",
          "name": "Seller",
          "type": "address"
        },
        {
          "indexed": false,
          "internalType": "uint256",
          "name": "_amount",
          "type": "uint256"
        }
      ],
      "name": "tradeCreated",
      "type": "event"
    },
    {
      "inputs": [
        {
          "internalType": "uint256",
          "name": "",
          "type": "uint256"
        }
      ],
      "name": "SwapTrack",
      "outputs": [
        {
          "internalType": "uint256",
          "name": "id",
          "type": "uint256"
        },
        {
          "internalType": "uint256",
          "name": "parentTradeID",
          "type": "uint256"
        },
        {
          "internalType": "address",
          "name": "buyer",
          "type": "address"
        },
        {
          "internalType": "uint256",
          "name": "WithdrawAmount",
          "type": "uint256"
        },
        {
          "internalType": "uint256",
          "name": "feeAmount",
          "type": "uint256"
        },
        {
          "internalType": "bool",
          "name": "CompletionStatus",
          "type": "bool"
        }
      ],
      "stateMutability": "view",
      "type": "function"
    },
    {
      "inputs": [
        {
          "internalType": "uint256",
          "name": "",
          "type": "uint256"
        }
      ],
      "name": "TradeCloneTrack",
      "outputs": [
        {
          "internalType": "uint256",
          "name": "id",
          "type": "uint256"
        },
        {
          "internalType": "address",
          "name": "seller",
          "type": "address"
        },
        {
          "internalType": "uint8",
          "name": "SellerGetTokenIndex",
          "type": "uint8"
        },
        {
          "internalType": "uint256",
          "name": "endtime",
          "type": "uint256"
        },
        {
          "internalType": "uint256",
          "name": "MaxBalance",
          "type": "uint256"
        },
        {
          "internalType": "uint256",
          "name": "currentBalance",
          "type": "uint256"
        },
        {
          "internalType": "uint32",
          "name": "originchainID",
          "type": "uint32"
        },
        {
          "internalType": "uint32",
          "name": "secondaryChainID",
          "type": "uint32"
        },
        {
          "internalType": "uint256",
          "name": "feeAmount",
          "type": "uint256"
        }
      ],
      "stateMutability": "view",
      "type": "function"
    },
    {
      "inputs": [
        {
          "internalType": "uint256",
          "name": "",
          "type": "uint256"
        }
      ],
      "name": "TradeTrack",
      "outputs": [
        {
          "internalType": "uint256",
          "name": "id",
          "type": "uint256"
        },
        {
          "internalType": "address",
          "name": "seller",
          "type": "address"
        },
        {
          "internalType": "uint8",
          "name": "SellerGiveTokenIndex",
          "type": "uint8"
        },
        {
          "internalType": "uint256",
          "name": "endtime",
          "type": "uint256"
        },
        {
          "internalType": "uint256",
          "name": "DepositValue",
          "type": "uint256"
        },
        {
          "internalType": "uint256",
          "name": "AvailableValue",
          "type": "uint256"
        },
        {
          "internalType": "uint32",
          "name": "originchainID",
          "type": "uint32"
        },
        {
          "internalType": "uint32",
          "name": "secondaryChainID",
          "type": "uint32"
        }
      ],
      "stateMutability": "view",
      "type": "function"
    },
    {
      "inputs": [
        {
          "internalType": "uint8",
          "name": "",
          "type": "uint8"
        }
      ],
      "name": "Whitelistedtokens",
      "outputs": [
        {
          "internalType": "address",
          "name": "",
          "type": "address"
        }
      ],
      "stateMutability": "view",
      "type": "function"
    },
    {
      "inputs": [
        {
          "internalType": "uint256",
          "name": "_id",
          "type": "uint256"
        },
        {
          "internalType": "uint256",
          "name": "_amount",
          "type": "uint256"
        }
      ],
      "name": "depositBuyer",
      "outputs": [],
      "stateMutability": "nonpayable",
      "type": "function"
    },
    {
      "inputs": [
        {
          "internalType": "address",
          "name": "_seller",
          "type": "address"
        },
        {
          "internalType": "uint256",
          "name": "_id",
          "type": "uint256"
        },
        {
          "internalType": "uint256",
          "name": "_amount",
          "type": "uint256"
        },
        {
          "internalType": "uint8",
          "name": "_tokenIndex",
          "type": "uint8"
        },
        {
          "internalType": "uint256",
          "name": "_endtime",
          "type": "uint256"
        }
      ],
      "name": "depositSeller",
      "outputs": [],
      "stateMutability": "nonpayable",
      "type": "function"
    },
    {
      "inputs": [
        {
          "internalType": "uint8",
          "name": "",
          "type": "uint8"
        }
      ],
      "name": "feeCollected",
      "outputs": [
        {
          "internalType": "uint256",
          "name": "",
          "type": "uint256"
        }
      ],
      "stateMutability": "view",
      "type": "function"
    },
    {
      "inputs": [],
      "name": "initialize",
      "outputs": [],
      "stateMutability": "nonpayable",
      "type": "function"
    },
    {
      "inputs": [
        {
          "internalType": "uint8",
          "name": "",
          "type": "uint8"
        }
      ],
      "name": "names",
      "outputs": [
        {
          "internalType": "string",
          "name": "",
          "type": "string"
        }
      ],
      "stateMutability": "view",
      "type": "function"
    },
    {
      "inputs": [],
      "name": "owner",
      "outputs": [
        {
          "internalType": "address",
          "name": "",
          "type": "address"
        }
      ],
      "stateMutability": "view",
      "type": "function"
    },
    {
      "inputs": [],
      "name": "pause",
      "outputs": [],
      "stateMutability": "nonpayable",
      "type": "function"
    },
    {
      "inputs": [],
      "name": "paused",
      "outputs": [
        {
          "internalType": "bool",
          "name": "",
          "type": "bool"
        }
      ],
      "stateMutability": "view",
      "type": "function"
    },
    {
      "inputs": [],
      "name": "proxiableUUID",
      "outputs": [
        {
          "internalType": "bytes32",
          "name": "",
          "type": "bytes32"
        }
      ],
      "stateMutability": "view",
      "type": "function"
    },
    {
      "inputs": [
        {
          "internalType": "uint256",
          "name": "_id",
          "type": "uint256"
        }
      ],
      "name": "refundSeller",
      "outputs": [],
      "stateMutability": "nonpayable",
      "type": "function"
    },
    {
      "inputs": [],
      "name": "renounceOwnership",
      "outputs": [],
      "stateMutability": "nonpayable",
      "type": "function"
    },
    {
      "inputs": [
        {
          "internalType": "uint8",
          "name": "_index",
          "type": "uint8"
        },
        {
          "internalType": "string",
          "name": "_name",
          "type": "string"
        },
        {
          "internalType": "address",
          "name": "_token",
          "type": "address"
        }
      ],
      "name": "setERCAddress",
      "outputs": [],
      "stateMutability": "nonpayable",
      "type": "function"
    },
    {
      "inputs": [
        {
          "internalType": "uint256",
          "name": "_id",
          "type": "uint256"
        },
        {
          "internalType": "uint256",
          "name": "_parentID",
          "type": "uint256"
        },
        {
          "internalType": "address",
          "name": "_buyer",
          "type": "address"
        },
        {
          "internalType": "uint256",
          "name": "_withdrawamount",
          "type": "uint256"
        },
        {
          "internalType": "uint256",
          "name": "_feeAmount",
          "type": "uint256"
        }
      ],
      "name": "setSwapID",
      "outputs": [],
      "stateMutability": "nonpayable",
      "type": "function"
    },
    {
      "inputs": [
        {
          "internalType": "uint256",
          "name": "_id",
          "type": "uint256"
        },
        {
          "internalType": "address",
          "name": "_seller",
          "type": "address"
        },
        {
          "internalType": "uint256",
          "name": "_endtime",
          "type": "uint256"
        },
        {
          "internalType": "uint256",
          "name": "_maxAmount",
          "type": "uint256"
        },
        {
          "internalType": "uint8",
          "name": "_sellerTokenIndex",
          "type": "uint8"
        },
        {
          "internalType": "uint256",
          "name": "_feetoBepaid",
          "type": "uint256"
        }
      ],
      "name": "setTradeCloneID",
      "outputs": [],
      "stateMutability": "nonpayable",
      "type": "function"
    },
    {
      "inputs": [
        {
          "internalType": "address",
          "name": "newOwner",
          "type": "address"
        }
      ],
      "name": "transferOwnership",
      "outputs": [],
      "stateMutability": "nonpayable",
      "type": "function"
    },
    {
      "inputs": [],
      "name": "unpause",
      "outputs": [],
      "stateMutability": "nonpayable",
      "type": "function"
    },
    {
      "inputs": [
        {
          "internalType": "address",
          "name": "newImplementation",
          "type": "address"
        }
      ],
      "name": "upgradeTo",
      "outputs": [],
      "stateMutability": "nonpayable",
      "type": "function"
    },
    {
      "inputs": [
        {
          "internalType": "address",
          "name": "newImplementation",
          "type": "address"
        },
        {
          "internalType": "bytes",
          "name": "data",
          "type": "bytes"
        }
      ],
      "name": "upgradeToAndCall",
      "outputs": [],
      "stateMutability": "payable",
      "type": "function"
    },
    {
      "inputs": [
        {
          "internalType": "uint256",
          "name": "_id",
          "type": "uint256"
        }
      ],
      "name": "withDrawBuyer",
      "outputs": [],
      "stateMutability": "nonpayable",
      "type": "function"
    },
    {
      "inputs": [
        {
          "internalType": "uint8",
          "name": "_index",
          "type": "uint8"
        }
      ],
      "name": "withdrawFee",
      "outputs": [],
      "stateMutability": "nonpayable",
      "type": "function"
    }
  ],
  "bytecode": "0x60a06040523073ffffffffffffffffffffffffffffffffffffffff1660809073ffffffffffffffffffffffffffffffffffffffff168152503480156200004457600080fd5b506200006167e1ae0da3497a417460c01b620000af60201b60201c565b6200007d67bc5461bf72d3ca7b60c01b620000af60201b60201c565b620000996797395d87fb365aec60c01b620000af60201b60201c565b620000a9620000b260201b60201c565b6200025d565b50565b600060019054906101000a900460ff161562000105576040517f08c379a0000000000000000000000000000000000000000000000000000000008152600401620000fc9062000200565b60405180910390fd5b60ff801660008054906101000a900460ff1660ff161015620001775760ff6000806101000a81548160ff021916908360ff1602179055507f7f26b83ff96e1f2b6a682f133852f6798a09c465da95921460cefb384740249860ff6040516200016e919062000240565b60405180910390a15b565b600082825260208201905092915050565b7f496e697469616c697a61626c653a20636f6e747261637420697320696e69746960008201527f616c697a696e6700000000000000000000000000000000000000000000000000602082015250565b6000620001e860278362000179565b9150620001f5826200018a565b604082019050919050565b600060208201905081810360008301526200021b81620001d9565b9050919050565b600060ff82169050919050565b6200023a8162000222565b82525050565b60006020820190506200025760008301846200022f565b92915050565b6080516171276200029560003960008181610aa701528181610b3501528181610cbe01528181610d4c0152610dfc01526171276000f3fe60806040526004361061014b5760003560e01c80637257a493116100b65780638da5cb5b1161006f5780638da5cb5b1461046d578063940dca60146104985780639bd01a40146104c15780639fd6b265146104ea578063d3a95fde14610513578063f2fde38b1461053c5761014b565b80637257a493146103535780637f6bffd3146103905780637f9d2258146103d25780638129fc1c146104165780638456cb591461042d5780638acb01f3146104445761014b565b80634f1ef286116101085780634f1ef2861461027857806352d1902d1461029457806358830d36146102bf5780635c975abb146102e85780636537e0b714610313578063715018a61461033c5761014b565b8063064139f114610150578063190220101461018d5780632201a4e9146101d25780633659cfe6146101fb5780633f4ba83a146102245780634a552a4d1461023b575b600080fd5b34801561015c57600080fd5b5061017760048036038101906101729190614ee3565b610565565b6040516101849190614f51565b60405180910390f35b34801561019957600080fd5b506101b460048036038101906101af9190614fa2565b610598565b6040516101c99998979695949392919061500c565b60405180910390f35b3480156101de57600080fd5b506101f960048036038101906101f491906150c5565b610633565b005b34801561020757600080fd5b50610222600480360381019061021d9190615152565b610aa5565b005b34801561023057600080fd5b50610239610c2d565b005b34801561024757600080fd5b50610262600480360381019061025d9190614ee3565b610ca3565b60405161026f919061517f565b60405180910390f35b610292600480360381019061028d91906152e0565b610cbc565b005b3480156102a057600080fd5b506102a9610df8565b6040516102b69190615355565b60405180910390f35b3480156102cb57600080fd5b506102e660048036038101906102e19190615370565b610eb1565b005b3480156102f457600080fd5b506102fd611c64565b60405161030a91906153cb565b60405180910390f35b34801561031f57600080fd5b5061033a60048036038101906103359190614fa2565b611c7b565b005b34801561034857600080fd5b506103516124eb565b005b34801561035f57600080fd5b5061037a60048036038101906103759190614ee3565b6124ff565b6040516103879190615465565b60405180910390f35b34801561039c57600080fd5b506103b760048036038101906103b29190614fa2565b61259f565b6040516103c996959493929190615487565b60405180910390f35b3480156103de57600080fd5b506103f960048036038101906103f49190614fa2565b612608565b60405161040d9897969594939291906154e8565b60405180910390f35b34801561042257600080fd5b5061042b61269d565b005b34801561043957600080fd5b5061044261289f565b005b34801561045057600080fd5b5061046b60048036038101906104669190615566565b612915565b005b34801561047957600080fd5b50610482612f4f565b60405161048f9190614f51565b60405180910390f35b3480156104a457600080fd5b506104bf60048036038101906104ba9190614ee3565b612f79565b005b3480156104cd57600080fd5b506104e860048036038101906104e39190615682565b6131cb565b005b3480156104f657600080fd5b50610511600480360381019061050c91906156f1565b6132eb565b005b34801561051f57600080fd5b5061053a60048036038101906105359190614fa2565b6137e7565b005b34801561054857600080fd5b50610563600480360381019061055e9190615152565b6144d9565b005b60ff6020528060005260406000206000915054906101000a900473ffffffffffffffffffffffffffffffffffffffff1681565b60fc6020528060005260406000206000915090508060000154908060010160009054906101000a900473ffffffffffffffffffffffffffffffffffffffff16908060010160149054906101000a900460ff16908060020154908060030154908060040154908060050160009054906101000a900463ffffffff16908060050160049054906101000a900463ffffffff16908060060154905089565b610647679c0b27c12b74334c60c01b61455c565b61064f61455f565b61066367342fdb864815c8e660c01b61455c565b61067767f7b4e1a6c72da3ce60c01b61455c565b61067f6145dd565b61069367489d0f2dad11321760c01b61455c565b6106a76797eadce9962b36d760c01b61455c565b6106bb67caf23f8f71b41e6a60c01b61455c565b6106cf67d8211d77950a85af60c01b61455c565b6106e3676e10f4160aa549c360c01b61455c565b610100600087815260200190815260200160002060009054906101000a900460ff1615610745576040517f08c379a000000000000000000000000000000000000000000000000000000000815260040161073c906157de565b60405180910390fd5b61075967a916203439a6f10760c01b61455c565b61076d671c7608735d0c1e5960c01b61455c565b61078167b225a4689346d32260c01b61455c565b610795677eff728d0af6140760c01b61455c565b600083116107d8576040517f08c379a00000000000000000000000000000000000000000000000000000000081526004016107cf9061584a565b60405180910390fd5b6107ec67c4c679699ef9be7460c01b61455c565b61080067630d7d1c51ba544b60c01b61455c565b610814678de0a264a47d1b8160c01b61455c565b600061082a67012873cae68c070d60c01b61455c565b61083e6716fccccecb66b70560c01b61455c565b6000854261084c9190615899565b905061086267dee0b3e8731a45e760c01b61455c565b61087667e3893423a33a190a60c01b61455c565b60006040518061012001604052808a81526020018973ffffffffffffffffffffffffffffffffffffffff1681526020018660ff1681526020018381526020018781526020018481526020016101a463ffffffff1681526020016201388163ffffffff1681526020018581525090506108f8671d5dc3f597f263ec60c01b61455c565b8060fc60008b81526020019081526020016000206000820151816000015560208201518160010160006101000a81548173ffffffffffffffffffffffffffffffffffffffff021916908373ffffffffffffffffffffffffffffffffffffffff16021790555060408201518160010160146101000a81548160ff021916908360ff160217905550606082015181600201556080820151816003015560a0820151816004015560c08201518160050160006101000a81548163ffffffff021916908363ffffffff16021790555060e08201518160050160046101000a81548163ffffffff021916908363ffffffff1602179055506101008201518160060155905050610a0c67cd07d9ee861337a160c01b61455c565b600161010060008b815260200190815260200160002060006101000a81548160ff021916908315150217905550610a4d67432667a59d384abc60c01b61455c565b610a6167037082fde401977460c01b61455c565b7f244d7078e79ff879576610bab60172dae6b48ee3189d25f86f76abc0c37582888989604051610a929291906158cd565b60405180910390a1505050505050505050565b7f000000000000000000000000000000000000000000000000000000000000000073ffffffffffffffffffffffffffffffffffffffff163073ffffffffffffffffffffffffffffffffffffffff1603610b33576040517f08c379a0000000000000000000000000000000000000000000000000000000008152600401610b2a90615968565b60405180910390fd5b7f000000000000000000000000000000000000000000000000000000000000000073ffffffffffffffffffffffffffffffffffffffff16610b72614627565b73ffffffffffffffffffffffffffffffffffffffff1614610bc8576040517f08c379a0000000000000000000000000000000000000000000000000000000008152600401610bbf906159fa565b60405180910390fd5b610bd18161467e565b610c2a81600067ffffffffffffffff811115610bf057610bef6151b5565b5b6040519080825280601f01601f191660200182016040528015610c225781602001600182028036833780820191505090505b5060006146c5565b50565b610c4167217e0610a36dad2460c01b61455c565b610c4961455f565b610c5d671168cb68e90007f360c01b61455c565b610c7167a9348b0ea33c36c560c01b61455c565b610c8567f163666564b4062e60c01b61455c565b610c99673b01a9e133f9939460c01b61455c565b610ca1614833565b565b6101056020528060005260406000206000915090505481565b7f000000000000000000000000000000000000000000000000000000000000000073ffffffffffffffffffffffffffffffffffffffff163073ffffffffffffffffffffffffffffffffffffffff1603610d4a576040517f08c379a0000000000000000000000000000000000000000000000000000000008152600401610d4190615968565b60405180910390fd5b7f000000000000000000000000000000000000000000000000000000000000000073ffffffffffffffffffffffffffffffffffffffff16610d89614627565b73ffffffffffffffffffffffffffffffffffffffff1614610ddf576040517f08c379a0000000000000000000000000000000000000000000000000000000008152600401610dd6906159fa565b60405180910390fd5b610de88261467e565b610df4828260016146c5565b5050565b60007f000000000000000000000000000000000000000000000000000000000000000073ffffffffffffffffffffffffffffffffffffffff163073ffffffffffffffffffffffffffffffffffffffff1614610e88576040517f08c379a0000000000000000000000000000000000000000000000000000000008152600401610e7f90615a8c565b60405180910390fd5b7f360894a13ba1a3210667c828492db98dca3e2076cc3735a920a3ca505d382bbc60001b905090565b610ec567d9b1bf37b642357d60c01b61455c565b610ecd6145dd565b610ee1673b170a6dc387ad7860c01b61455c565b610ef5679d7fce03094ebf9960c01b61455c565b610f09670be37a7e383885c960c01b61455c565b610f1d67161bd2da5bd43f9360c01b61455c565b610f31679bb0c3f9e3d9252060c01b61455c565b60008111610f74576040517f08c379a0000000000000000000000000000000000000000000000000000000008152600401610f6b90615af8565b60405180910390fd5b610f88672bf5cf2b385ebcb960c01b61455c565b610f9c677d267be3b042fc6060c01b61455c565b610fb067bbd6e35be2b52dc260c01b61455c565b610fc467af97fd8c2af4fe1760c01b61455c565b610100600083815260200190815260200160002060009054906101000a900460ff16611025576040517f08c379a000000000000000000000000000000000000000000000000000000000815260040161101c90615b64565b60405180910390fd5b6110396753dbbb1d8bf1e6e760c01b61455c565b61104d67ec5b82cf4dfe6e7160c01b61455c565b611061672e33434d280c42ea60c01b61455c565b611075676e153b1984f8cfcd60c01b61455c565b610104600083815260200190815260200160002060009054906101000a900460ff16156110d7576040517f08c379a00000000000000000000000000000000000000000000000000000000081526004016110ce90615bf6565b60405180910390fd5b6110eb67af8c46e9b1723ba360c01b61455c565b6110ff677ed7b61ad09370cc60c01b61455c565b6001610104600084815260200190815260200160002060006101000a81548160ff021916908315150217905550611140673d2e996468bb0d1160c01b61455c565b61115467b0a44ed19bd874ce60c01b61455c565b611168671f2a6a9d0c38102860c01b61455c565b61010160003373ffffffffffffffffffffffffffffffffffffffff1673ffffffffffffffffffffffffffffffffffffffff168152602001908152602001600020600083815260200190815260200160002060009054906101000a900460ff1615611207576040517f08c379a00000000000000000000000000000000000000000000000000000000081526004016111fe90615c88565b60405180910390fd5b61121b673d6ad4b763e7877b60c01b61455c565b61122f676899d789497a8e6060c01b61455c565b600161010160003373ffffffffffffffffffffffffffffffffffffffff1673ffffffffffffffffffffffffffffffffffffffff168152602001908152602001600020600084815260200190815260200160002060006101000a81548160ff0219169083151502179055506112ad6744f31d004da2a55c60c01b61455c565b6112c1674713b7e7e73cc93060c01b61455c565b600060fc600084815260200190815260200160002060405180610120016040529081600082015481526020016001820160009054906101000a900473ffffffffffffffffffffffffffffffffffffffff1673ffffffffffffffffffffffffffffffffffffffff1673ffffffffffffffffffffffffffffffffffffffff1681526020016001820160149054906101000a900460ff1660ff1660ff1681526020016002820154815260200160038201548152602001600482015481526020016005820160009054906101000a900463ffffffff1663ffffffff1663ffffffff1681526020016005820160049054906101000a900463ffffffff1663ffffffff1663ffffffff16815260200160068201548152505090506113e967e55b57d63964759460c01b61455c565b6113fd67486311f7c5efba1d60c01b61455c565b61141167187927638295c33060c01b61455c565b600073ffffffffffffffffffffffffffffffffffffffff16816020015173ffffffffffffffffffffffffffffffffffffffff1603611484576040517f08c379a000000000000000000000000000000000000000000000000000000000815260040161147b90615cf4565b60405180910390fd5b61149867d85eec413e04760d60c01b61455c565b6114ac6738e855c6c88b76c960c01b61455c565b6114c0675735beaaa60cc00e60c01b61455c565b6000816020015190506114dd677529a0f45db6af8360c01b61455c565b6114f16712dc69c263bcb1df60c01b61455c565b611505671c2956ebd01675a760c01b61455c565b8073ffffffffffffffffffffffffffffffffffffffff163373ffffffffffffffffffffffffffffffffffffffff1603611573576040517f08c379a000000000000000000000000000000000000000000000000000000000815260040161156a90615d60565b60405180910390fd5b611587674c1485631f740f8360c01b61455c565b61159b67b6a27f90db7c8ca260c01b61455c565b6115af677d85b8329ddb265a60c01b61455c565b6115c367fbcca3a733496f8760c01b61455c565b8160800151838360a001516115d89190615899565b10611618576040517f08c379a000000000000000000000000000000000000000000000000000000000815260040161160f90615dcc565b60405180910390fd5b61162c67ab7ed8ac4e97285c60c01b61455c565b61164067bb37510a225eb7e560c01b61455c565b611654674d935347bed5c5cc60c01b61455c565b61166867257dd3cb73a4ab3760c01b61455c565b816060015142106116ae576040517f08c379a00000000000000000000000000000000000000000000000000000000081526004016116a590615e38565b60405180910390fd5b6116c267fcc4d189e4e2ef0760c01b61455c565b6116d667d77044332ffc051060c01b61455c565b6116ea67fb1a069c3199271260c01b61455c565b60008260400151905061170767cd992a252514e12e60c01b61455c565b61171b673ca09473fc2d4e6b60c01b61455c565b6000836101000151905061173967842f4104901646ed60c01b61455c565b61174d6709d673e352e8d8bd60c01b61455c565b611761677e95bc5a82bb78ad60c01b61455c565b8085116117a3576040517f08c379a000000000000000000000000000000000000000000000000000000000815260040161179a90615ea4565b60405180910390fd5b6117b767a3c9f9c6fe418c9560c01b61455c565b6117cb6788db096745f02ae060c01b61455c565b6117df6712fb5caa22ac1bed60c01b61455c565b60008114611947576117fb67f5602da690c2f39660c01b61455c565b61180f675de2f7c51a14a73660c01b61455c565b6118236758646728c4ff91fb60c01b61455c565b60ff60008360ff1660ff16815260200190815260200160002060009054906101000a900473ffffffffffffffffffffffffffffffffffffffff1673ffffffffffffffffffffffffffffffffffffffff166323b872dd3330846040518463ffffffff1660e01b815260040161189993929190615ec4565b6020604051808303816000875af11580156118b8573d6000803e3d6000fd5b505050506040513d601f19601f820116820180604052508101906118dc9190615f27565b506118f16789e7c85cc0bf167060c01b61455c565b8061010560008460ff1660ff168152602001908152602001600020600082825461191b9190615899565b92505081905550611936678f581b0357d500c760c01b61455c565b60008461010001818152505061195c565b61195b67a2b57846487933e660c01b61455c565b5b611970675d721d501ed696d160c01b61455c565b61198467855ad4da20949b2260c01b61455c565b600081866119929190615f54565b90506119a8673caa42e5bd53f48760c01b61455c565b858560a0018181516119ba9190615899565b915081815250506119d56785badc4378b5c22f60c01b61455c565b8460fc60008981526020019081526020016000206000820151816000015560208201518160010160006101000a81548173ffffffffffffffffffffffffffffffffffffffff021916908373ffffffffffffffffffffffffffffffffffffffff16021790555060408201518160010160146101000a81548160ff021916908360ff160217905550606082015181600201556080820151816003015560a0820151816004015560c08201518160050160006101000a81548163ffffffff021916908363ffffffff16021790555060e08201518160050160046101000a81548163ffffffff021916908363ffffffff1602179055506101008201518160060155905050611ae9670256d94c09e18d1860c01b61455c565b6000610104600089815260200190815260200160002060006101000a81548160ff021916908315150217905550611b2a67390837de68066c7160c01b61455c565b611b3e672bf81e79e6aa43a460c01b61455c565b60ff60008460ff1660ff16815260200190815260200160002060009054906101000a900473ffffffffffffffffffffffffffffffffffffffff1673ffffffffffffffffffffffffffffffffffffffff166323b872dd3386846040518463ffffffff1660e01b8152600401611bb493929190615ec4565b6020604051808303816000875af1158015611bd3573d6000803e3d6000fd5b505050506040513d601f19601f82011682018060405250810190611bf79190615f27565b50611c0c672c72d456195712a960c01b61455c565b611c206740c0e0b1d5c25e3560c01b61455c565b7f0e59104d78356648ea023bd00b5f93cf6e40a67c3d6878d137423c4a65320530873388604051611c5393929190615f88565b60405180910390a150505050505050565b600060c960009054906101000a900460ff16905090565b611c8f67221e151624f4468360c01b61455c565b611c976145dd565b611cab672a5472ea574da85060c01b61455c565b611cbf6761192e02413cda7660c01b61455c565b611cd3677792ecc5bcaef55260c01b61455c565b611ce767e436bc471604f65e60c01b61455c565b611cfb677b1923c9b5daf2b660c01b61455c565b610103600082815260200190815260200160002060009054906101000a900460ff1615611d5d576040517f08c379a0000000000000000000000000000000000000000000000000000000008152600401611d5490615bf6565b60405180910390fd5b611d7167ab8cf1e7062ad6e760c01b61455c565b611d85674a41e54e95b988b760c01b61455c565b6001610103600083815260200190815260200160002060006101000a81548160ff021916908315150217905550611dc6674211b64acbb61c3760c01b61455c565b611dda67c254590f80b1de9360c01b61455c565b600060fb600083815260200190815260200160002060405180610100016040529081600082015481526020016001820160009054906101000a900473ffffffffffffffffffffffffffffffffffffffff1673ffffffffffffffffffffffffffffffffffffffff1673ffffffffffffffffffffffffffffffffffffffff1681526020016001820160149054906101000a900460ff1660ff1660ff1681526020016002820154815260200160038201548152602001600482015481526020016005820160009054906101000a900463ffffffff1663ffffffff1663ffffffff1681526020016005820160049054906101000a900463ffffffff1663ffffffff1663ffffffff16815250509050611ef867605e1e05342f732860c01b61455c565b611f0c67163143f85975cceb60c01b61455c565b611f2067f1e926b2ec10761460c01b61455c565b806020015173ffffffffffffffffffffffffffffffffffffffff163373ffffffffffffffffffffffffffffffffffffffff1614611f92576040517f08c379a0000000000000000000000000000000000000000000000000000000008152600401611f899061600b565b60405180910390fd5b611fa667f43d8f293c189f2460c01b61455c565b611fba674f2f2389a11ca8de60c01b61455c565b611fce6759c36a666331df2160c01b61455c565b611fe2674704ba38f40eccf460c01b61455c565b610100600083815260200190815260200160002060009054906101000a900460ff16612043576040517f08c379a000000000000000000000000000000000000000000000000000000000815260040161203a90616077565b60405180910390fd5b612057672a44844e6516604760c01b61455c565b61206b678c7618712bd1535460c01b61455c565b61207f67bb39831f09060e7960c01b61455c565b612093672bb115c4167b628460c01b61455c565b60008160a00151116120da576040517f08c379a00000000000000000000000000000000000000000000000000000000081526004016120d190616109565b60405180910390fd5b6120ee67fd7db021971783ed60c01b61455c565b61210267ea63fb339104315e60c01b61455c565b612116678cc3ce915fb7e34260c01b61455c565b61212a67678aae6d8493531360c01b61455c565b80606001514211612170576040517f08c379a000000000000000000000000000000000000000000000000000000000815260040161216790616175565b60405180910390fd5b612184670af36de05a8f510160c01b61455c565b61219867df300436aa692e2860c01b61455c565b6000610100600084815260200190815260200160002060006101000a81548160ff0219169083151502179055506121d967829fc5332ec505bc60c01b61455c565b6121ed67ac104784b913f19260c01b61455c565b60008160a00151905061220a677d2dff30fe1aa71160c01b61455c565b808260a00181815161221c9190615f54565b9150818152505061223767b16925144d52aafd60c01b61455c565b8160fb60008581526020019081526020016000206000820151816000015560208201518160010160006101000a81548173ffffffffffffffffffffffffffffffffffffffff021916908373ffffffffffffffffffffffffffffffffffffffff16021790555060408201518160010160146101000a81548160ff021916908360ff160217905550606082015181600201556080820151816003015560a0820151816004015560c08201518160050160006101000a81548163ffffffff021916908363ffffffff16021790555060e08201518160050160046101000a81548163ffffffff021916908363ffffffff16021790555090505061234067545518465e09da9260c01b61455c565b61235467ce62fce3da509d1a60c01b61455c565b600082604001519050612371679bd0c56ff36e466160c01b61455c565b6000610103600086815260200190815260200160002060006101000a81548160ff0219169083151502179055506123b267cf2fbec967b07b7960c01b61455c565b6123c667c9639d0b0b943dc960c01b61455c565b60ff60008260ff1660ff16815260200190815260200160002060009054906101000a900473ffffffffffffffffffffffffffffffffffffffff1673ffffffffffffffffffffffffffffffffffffffff1663a9059cbb8460200151846040518363ffffffff1660e01b815260040161243e929190616195565b6020604051808303816000875af115801561245d573d6000803e3d6000fd5b505050506040513d601f19601f820116820180604052508101906124819190615f27565b5061249667b16e12757edfff5c60c01b61455c565b6124aa678153412c2a6f7a5a60c01b61455c565b7f1852ceb13126c22f394b77ad6298d993dfb7813f9b3139349e3c3f0852c1fe748433846040516124dd93929190615f88565b60405180910390a150505050565b6124f361455f565b6124fd6000614896565b565b60fe602052806000526040600020600091509050805461251e906161ed565b80601f016020809104026020016040519081016040528092919081815260200182805461254a906161ed565b80156125975780601f1061256c57610100808354040283529160200191612597565b820191906000526020600020905b81548152906001019060200180831161257a57829003601f168201915b505050505081565b60fd6020528060005260406000206000915090508060000154908060010154908060020160009054906101000a900473ffffffffffffffffffffffffffffffffffffffff16908060030154908060040154908060050160009054906101000a900460ff16905086565b60fb6020528060005260406000206000915090508060000154908060010160009054906101000a900473ffffffffffffffffffffffffffffffffffffffff16908060010160149054906101000a900460ff16908060020154908060030154908060040154908060050160009054906101000a900463ffffffff16908060050160049054906101000a900463ffffffff16905088565b6126b16715da61dcdc60780e60c01b61455c565b60008060019054906101000a900460ff161590508080156126e25750600160008054906101000a900460ff1660ff16105b8061270f57506126f13061495c565b15801561270e5750600160008054906101000a900460ff1660ff16145b5b61274e576040517f08c379a000000000000000000000000000000000000000000000000000000000815260040161274590616290565b60405180910390fd5b60016000806101000a81548160ff021916908360ff160217905550801561278b576001600060016101000a81548160ff0219169083151502179055505b61279f67e58ca76bf2e0931660c01b61455c565b6127b367bfd7dd94a8a6006460c01b61455c565b6127c76746397d6ba9a49aaa60c01b61455c565b6127db6748fa1f024947bb2960c01b61455c565b6127e361497f565b6127f76776ad60dd4b67b30560c01b61455c565b61280b67162338f0ce08bb7160c01b61455c565b6128136149d0565b612827679c3dbdbf4bdce23c60c01b61455c565b61283b6735bbd0581e9d2ac660c01b61455c565b612843614a29565b801561289c5760008060016101000a81548160ff0219169083151502179055507f7f26b83ff96e1f2b6a682f133852f6798a09c465da95921460cefb3847402498600160405161289391906162f5565b60405180910390a15b50565b6128b3675294d9814dbf162360c01b61455c565b6128bb61455f565b6128cf67aaad51d38aa82b8060c01b61455c565b6128e3679f240ead4df9fbc260c01b61455c565b6128f7679f274f0506d490a260c01b61455c565b61290b6748cdfedb4d8ce22360c01b61455c565b612913614a82565b565b61292967e5092b4ded9c11d460c01b61455c565b6129316145dd565b612945678b2cb23e503a578460c01b61455c565b61295967202e2c279eaabc3d60c01b61455c565b61296d6706c2eb0f72c8a93860c01b61455c565b612981673332dc5af7b002d960c01b61455c565b61299567b3b30cd20f946c0c60c01b61455c565b8473ffffffffffffffffffffffffffffffffffffffff163373ffffffffffffffffffffffffffffffffffffffff1614612a03576040517f08c379a00000000000000000000000000000000000000000000000000000000081526004016129fa9061600b565b60405180910390fd5b612a17675078823664d0112260c01b61455c565b612a2b67571bb5830d031bc960c01b61455c565b612a3f672fccf43ca27933ae60c01b61455c565b612a536728fb521f728ca8c260c01b61455c565b610100600085815260200190815260200160002060009054906101000a900460ff1615612ab5576040517f08c379a0000000000000000000000000000000000000000000000000000000008152600401612aac9061635c565b60405180910390fd5b612ac9671d3eb29d1907bb1a60c01b61455c565b612add677967023e56b2d34660c01b61455c565b612af16741db5dbd5318f6b560c01b61455c565b612b05677fec4f5489ac43b860c01b61455c565b60008311612b48576040517f08c379a0000000000000000000000000000000000000000000000000000000008152600401612b3f906163c8565b60405180910390fd5b612b5c677119368deef8e22560c01b61455c565b612b70674f0ce9a5f62683e160c01b61455c565b612b84671b89f747f6ab39a460c01b61455c565b612b9867575af55cd6fd7ad460c01b61455c565b60008111612bdb576040517f08c379a0000000000000000000000000000000000000000000000000000000008152600401612bd290616434565b60405180910390fd5b612bef67809cd62c4663d52860c01b61455c565b612c03673dcafe875df9282360c01b61455c565b612c1767ae5c7392689f1ab460c01b61455c565b60008142612c259190615899565b9050612c3b67f8aacaf20e3cff8560c01b61455c565b6001610100600087815260200190815260200160002060006101000a81548160ff021916908315150217905550612c7c672320b14b0d07ef9960c01b61455c565b612c90675325c29dc136bb3260c01b61455c565b60006040518061010001604052808781526020018873ffffffffffffffffffffffffffffffffffffffff1681526020018560ff1681526020018381526020018681526020018681526020016201388163ffffffff1681526020016101a463ffffffff168152509050612d0c677fc48ee2e866f7e160c01b61455c565b8060fb60008881526020019081526020016000206000820151816000015560208201518160010160006101000a81548173ffffffffffffffffffffffffffffffffffffffff021916908373ffffffffffffffffffffffffffffffffffffffff16021790555060408201518160010160146101000a81548160ff021916908360ff160217905550606082015181600201556080820151816003015560a0820151816004015560c08201518160050160006101000a81548163ffffffff021916908363ffffffff16021790555060e08201518160050160046101000a81548163ffffffff021916908363ffffffff160217905550905050612e1567072d143dca47307d60c01b61455c565b612e29671d9f751294c98e7760c01b61455c565b60ff60008560ff1660ff16815260200190815260200160002060009054906101000a900473ffffffffffffffffffffffffffffffffffffffff1673ffffffffffffffffffffffffffffffffffffffff166323b872dd3330886040518463ffffffff1660e01b8152600401612e9f93929190615ec4565b6020604051808303816000875af1158015612ebe573d6000803e3d6000fd5b505050506040513d601f19601f82011682018060405250810190612ee29190615f27565b50612ef767bf69ed97ac8caa4560c01b61455c565b612f0b678d0ab8ba731c098c60c01b61455c565b7f70eca58c343efaba8ae2a4073dc68f37df918cfa453bea81e607a74ccb85d125868887604051612f3e93929190615f88565b60405180910390a150505050505050565b6000609760009054906101000a900473ffffffffffffffffffffffffffffffffffffffff16905090565b612f8d6714aa53b8ecf6fa1860c01b61455c565b612f9561455f565b612fa967cec3743a38df89d860c01b61455c565b612fbd67df84d78f9c36309960c01b61455c565b612fc56145dd565b612fd96776faeea94cf197b960c01b61455c565b612fed674e98f0722f43ac5d60c01b61455c565b6130016729f930215530554360c01b61455c565b613015672d60cc25425628f960c01b61455c565b61302967e997298f967c5cbe60c01b61455c565b600061010560008360ff1660ff1681526020019081526020016000205411613086576040517f08c379a000000000000000000000000000000000000000000000000000000000815260040161307d906164a0565b60405180910390fd5b61309a674c2b73d560f0ca9360c01b61455c565b6130ae677e92ed5093054f4060c01b61455c565b6130c26746cf7ea383a72ab060c01b61455c565b60ff60008260ff1660ff16815260200190815260200160002060009054906101000a900473ffffffffffffffffffffffffffffffffffffffff1673ffffffffffffffffffffffffffffffffffffffff1663a9059cbb3361010560008560ff1660ff168152602001908152602001600020546040518363ffffffff1660e01b8152600401613150929190616195565b6020604051808303816000875af115801561316f573d6000803e3d6000fd5b505050506040513d601f19601f820116820180604052508101906131939190615f27565b506131a867ed80b57721a17e0e60c01b61455c565b600061010560008360ff1660ff1681526020019081526020016000208190555050565b6131df6720c24c1215d079df60c01b61455c565b6131e76145dd565b6131fb67ee15f23618dac97260c01b61455c565b61320f67da4b7a6c9d623d9360c01b61455c565b61321761455f565b61322b670cc032ecc1b2d7e760c01b61455c565b61323f677ceeac79d110bba460c01b61455c565b6132536764d6fbdb2c1bb48f60c01b61455c565b8060ff60008560ff1660ff16815260200190815260200160002060006101000a81548173ffffffffffffffffffffffffffffffffffffffff021916908373ffffffffffffffffffffffffffffffffffffffff1602179055506132bf67ac0380dc840768a960c01b61455c565b8160fe60008560ff1660ff16815260200190815260200160002090816132e59190616662565b50505050565b6132ff67869456c0a5cacf8760c01b61455c565b61330761455f565b61331b67a498cf012435b73360c01b61455c565b61332f67518606c614c97b8e60c01b61455c565b6133376145dd565b61334b67e8a32b356158893560c01b61455c565b61335f6730d805d1c8073ba060c01b61455c565b613373674d80f941bc342d2360c01b61455c565b61338767eff6974d9a70f3cf60c01b61455c565b61339b674892b46bc53fddd260c01b61455c565b610102600086815260200190815260200160002060009054906101000a900460ff16156133fd576040517f08c379a00000000000000000000000000000000000000000000000000000000081526004016133f490616780565b60405180910390fd5b613411678cb80eddd74df44160c01b61455c565b613425676a9e23770d524e0a60c01b61455c565b61343967bfef87af05687d0d60c01b61455c565b61344d67d4b3b9d904cf5cfb60c01b61455c565b610100600085815260200190815260200160002060009054906101000a900460ff166134ae576040517f08c379a00000000000000000000000000000000000000000000000000000000081526004016134a590616812565b60405180910390fd5b6134c26748903399b1189e1560c01b61455c565b6134d667ffa010afbfa7460960c01b61455c565b6134ea676289b18544c32ed460c01b61455c565b6134fe67379205c8adae286c60c01b61455c565b60008211613541576040517f08c379a00000000000000000000000000000000000000000000000000000000081526004016135389061584a565b60405180910390fd5b6135556720de50186125c1ba60c01b61455c565b613569672cc9555bda01c97960c01b61455c565b61357d67ed14e48b8164c94760c01b61455c565b61359167f9aac199168e10c060c01b61455c565b8082116135d3576040517f08c379a00000000000000000000000000000000000000000000000000000000081526004016135ca906168a4565b60405180910390fd5b6135e767bcbc7074b2c85c1260c01b61455c565b6135fb675aa96e156e1e231460c01b61455c565b61360f675bf90793cc3688ca60c01b61455c565b60006136256733d3fc692ff54ed460c01b61455c565b61363967bf4d7fd2034fc07e60c01b61455c565b60006040518060c001604052808881526020018781526020018673ffffffffffffffffffffffffffffffffffffffff168152602001858152602001848152602001831515815250905061369667ea810c209fac0a9d60c01b61455c565b8060fd6000898152602001908152602001600020600082015181600001556020820151816001015560408201518160020160006101000a81548173ffffffffffffffffffffffffffffffffffffffff021916908373ffffffffffffffffffffffffffffffffffffffff160217905550606082015181600301556080820151816004015560a08201518160050160006101000a81548160ff02191690831515021790555090505061375067a966bf3316ea08af60c01b61455c565b6001610102600089815260200190815260200160002060006101000a81548160ff0219169083151502179055506137916790703970aa170f5460c01b61455c565b6137a567bcad2838819db0a060c01b61455c565b7fcae8f20940e3c6d60e303e7ac879e97f3f9736b43dd74d366948f1cdfc8e9f7787866040516137d69291906158cd565b60405180910390a150505050505050565b6137fb6772e34c438daad27760c01b61455c565b6138036145dd565b613817673d3d0738db8ff3ef60c01b61455c565b61382b67c12d8fc4017a031660c01b61455c565b61383f6735117b006eec328760c01b61455c565b613853672cebf254325ede2e60c01b61455c565b61386767a6aeb395477745b960c01b61455c565b610102600082815260200190815260200160002060009054906101000a900460ff166138c8576040517f08c379a00000000000000000000000000000000000000000000000000000000081526004016138bf90616910565b60405180910390fd5b6138dc679849c505ee6e64a760c01b61455c565b6138f0675d6dc640023b9e2f60c01b61455c565b6000610102600083815260200190815260200160002060006101000a81548160ff0219169083151502179055506139316723546307fd8898d260c01b61455c565b6139456721a22967add9c70860c01b61455c565b600060fd60008381526020019081526020016000206040518060c001604052908160008201548152602001600182015481526020016002820160009054906101000a900473ffffffffffffffffffffffffffffffffffffffff1673ffffffffffffffffffffffffffffffffffffffff1673ffffffffffffffffffffffffffffffffffffffff16815260200160038201548152602001600482015481526020016005820160009054906101000a900460ff1615151515815250509050613a14675f36dcf13a90cc3060c01b61455c565b613a2867d3004935cea675ab60c01b61455c565b600081602001519050613a4567e8ec69303831c6a960c01b61455c565b613a5967ce1f18b29a52369060c01b61455c565b613a6d67ca11f5bc052d85c060c01b61455c565b610103600082815260200190815260200160002060009054906101000a900460ff1615613acf576040517f08c379a0000000000000000000000000000000000000000000000000000000008152600401613ac690615bf6565b60405180910390fd5b613ae367deedd2fb18c98e8360c01b61455c565b613af76756d70a8f6c99943160c01b61455c565b6001610103600083815260200190815260200160002060006101000a81548160ff021916908315150217905550613b386795eb05734d25d33360c01b61455c565b613b4c6710f3222c25ecd2f360c01b61455c565b600082608001518360600151613b629190615f54565b9050613b78676ea52c773c6655d160c01b61455c565b613b8c67a95274abe651179360c01b61455c565b600083604001519050613ba9679bfbd69bea1810e260c01b61455c565b613bbd6757c1d64da7d9428360c01b61455c565b613bd1677fd0b63080752c6460c01b61455c565b600073ffffffffffffffffffffffffffffffffffffffff168173ffffffffffffffffffffffffffffffffffffffff1603613c40576040517f08c379a0000000000000000000000000000000000000000000000000000000008152600401613c379061697c565b60405180910390fd5b613c5467e7fc6fea572ffa6760c01b61455c565b613c68676fb50a3bc04d9bf760c01b61455c565b613c7c678d82a7b35b39d49c60c01b61455c565b613c9067ab75a3f83fa4855b60c01b61455c565b8073ffffffffffffffffffffffffffffffffffffffff163373ffffffffffffffffffffffffffffffffffffffff1614613cfe576040517f08c379a0000000000000000000000000000000000000000000000000000000008152600401613cf59061600b565b60405180910390fd5b613d126723794c410ffbc52560c01b61455c565b613d2667a2a8070255af929260c01b61455c565b613d3a6717f8f5dee2d8468960c01b61455c565b613d4e671d98455e996ca28c60c01b61455c565b60008211613d91576040517f08c379a0000000000000000000000000000000000000000000000000000000008152600401613d88906169e8565b60405180910390fd5b613da567524f51f9d921910160c01b61455c565b613db9677f4331fed5aa4dbd60c01b61455c565b613dcd67ad39daaa9812364a60c01b61455c565b613de16717b7b1e56811045960c01b61455c565b610100600084815260200190815260200160002060009054906101000a900460ff16613e42576040517f08c379a0000000000000000000000000000000000000000000000000000000008152600401613e3990616812565b60405180910390fd5b613e5667af734e44894d679e60c01b61455c565b613e6a673126a078fc7897fa60c01b61455c565b613e7e6729c1782b5a4c0f2660c01b61455c565b600060fb600085815260200190815260200160002060405180610100016040529081600082015481526020016001820160009054906101000a900473ffffffffffffffffffffffffffffffffffffffff1673ffffffffffffffffffffffffffffffffffffffff1673ffffffffffffffffffffffffffffffffffffffff1681526020016001820160149054906101000a900460ff1660ff1660ff1681526020016002820154815260200160038201548152602001600482015481526020016005820160009054906101000a900463ffffffff1663ffffffff1663ffffffff1681526020016005820160049054906101000a900463ffffffff1663ffffffff1663ffffffff16815250509050613f9c671a88dadfcae99cde60c01b61455c565b613fb0673c7d144fe6d5d52260c01b61455c565b613fc46705eeb0aea9de19ee60c01b61455c565b8060600151421061400a576040517f08c379a000000000000000000000000000000000000000000000000000000000815260040161400190616a7a565b60405180910390fd5b61401e6761bd468fd0486bb460c01b61455c565b61403267d428bf7f9f518f4760c01b61455c565b61404667b5b184faf8def6a660c01b61455c565b61405a6796ed9bca84f0901a60c01b61455c565b8060a00151856060015111156140a5576040517f08c379a000000000000000000000000000000000000000000000000000000000815260040161409c90616b0c565b60405180910390fd5b6140b9676fc01651bedd59b060c01b61455c565b6140cd670916f278e1dbfbe760c01b61455c565b84606001518160a0018181516140e39190615f54565b915081815250506140fe67909f418f3d9d094f60c01b61455c565b60018560a001901515908115158152505061412367a4aecc4c37ba56e060c01b61455c565b8060fb60008681526020019081526020016000206000820151816000015560208201518160010160006101000a81548173ffffffffffffffffffffffffffffffffffffffff021916908373ffffffffffffffffffffffffffffffffffffffff16021790555060408201518160010160146101000a81548160ff021916908360ff160217905550606082015181600201556080820151816003015560a0820151816004015560c08201518160050160006101000a81548163ffffffff021916908363ffffffff16021790555060e08201518160050160046101000a81548163ffffffff021916908363ffffffff16021790555090505061422c6780d7f7eecffe911a60c01b61455c565b8460fd6000888152602001908152602001600020600082015181600001556020820151816001015560408201518160020160006101000a81548173ffffffffffffffffffffffffffffffffffffffff021916908373ffffffffffffffffffffffffffffffffffffffff160217905550606082015181600301556080820151816004015560a08201518160050160006101000a81548160ff0219169083151502179055509050506142e66709cff94d82ef309e60c01b61455c565b6142fa679d529fcd014ea40660c01b61455c565b60008160400151905061431767708f2a087f4b413c60c01b61455c565b856080015161010560008360ff1660ff16815260200190815260200160002060008282546143459190615899565b92505081905550614360670848523da9d71c3e60c01b61455c565b6000610103600087815260200190815260200160002060006101000a81548160ff0219169083151502179055506143a167512439fd3048360c60c01b61455c565b6143b567b91a8901bd4340c260c01b61455c565b60ff60008260ff1660ff16815260200190815260200160002060009054906101000a900473ffffffffffffffffffffffffffffffffffffffff1673ffffffffffffffffffffffffffffffffffffffff1663a9059cbb84866040518363ffffffff1660e01b8152600401614429929190616195565b6020604051808303816000875af1158015614448573d6000803e3d6000fd5b505050506040513d601f19601f8201168201806040525081019061446c9190615f27565b506144816771f2a74f28a115df60c01b61455c565b614495673518183d9d57604560c01b61455c565b7f217de69216c60b6e5c5108753aeccf4f10269eeff9b93f206552d2d3d1d04bc58786336040516144c893929190616b2c565b60405180910390a150505050505050565b6144e161455f565b600073ffffffffffffffffffffffffffffffffffffffff168173ffffffffffffffffffffffffffffffffffffffff1603614550576040517f08c379a000000000000000000000000000000000000000000000000000000000815260040161454790616bd5565b60405180910390fd5b61455981614896565b50565b50565b614567614ae5565b73ffffffffffffffffffffffffffffffffffffffff16614585612f4f565b73ffffffffffffffffffffffffffffffffffffffff16146145db576040517f08c379a00000000000000000000000000000000000000000000000000000000081526004016145d290616c41565b60405180910390fd5b565b6145e5611c64565b15614625576040517f08c379a000000000000000000000000000000000000000000000000000000000815260040161461c90616cad565b60405180910390fd5b565b60006146557f360894a13ba1a3210667c828492db98dca3e2076cc3735a920a3ca505d382bbc60001b614aed565b60000160009054906101000a900473ffffffffffffffffffffffffffffffffffffffff16905090565b6146926710772e930760f2db60c01b61455c565b61469a61455f565b6146ae6709fef55244ea378960c01b61455c565b6146c26739bc092432b7f2fa60c01b61455c565b50565b6146f17f4910fdfa16fed3260ed0e7147f7cc6da11a60208b5b9406d12a635614ffd914360001b614af7565b60000160009054906101000a900460ff16156147155761471083614b01565b61482e565b8273ffffffffffffffffffffffffffffffffffffffff166352d1902d6040518163ffffffff1660e01b8152600401602060405180830381865afa92505050801561477d57506040513d601f19601f8201168201806040525081019061477a9190616cf9565b60015b6147bc576040517f08c379a00000000000000000000000000000000000000000000000000000000081526004016147b390616d98565b60405180910390fd5b7f360894a13ba1a3210667c828492db98dca3e2076cc3735a920a3ca505d382bbc60001b8114614821576040517f08c379a000000000000000000000000000000000000000000000000000000000815260040161481890616e2a565b60405180910390fd5b5061482d838383614bba565b5b505050565b61483b614be6565b600060c960006101000a81548160ff0219169083151502179055507f5db9ee0a495bf2e6ff9c91a7834c1ba4fdd244a5e8aa4e537bd38aeae4b073aa61487f614ae5565b60405161488c9190614f51565b60405180910390a1565b6000609760009054906101000a900473ffffffffffffffffffffffffffffffffffffffff16905081609760006101000a81548173ffffffffffffffffffffffffffffffffffffffff021916908373ffffffffffffffffffffffffffffffffffffffff1602179055508173ffffffffffffffffffffffffffffffffffffffff168173ffffffffffffffffffffffffffffffffffffffff167f8be0079c531659141344cd1fd0a4f28419497f9722a3daafe3b4186f6b6457e060405160405180910390a35050565b6000808273ffffffffffffffffffffffffffffffffffffffff163b119050919050565b600060019054906101000a900460ff166149ce576040517f08c379a00000000000000000000000000000000000000000000000000000000081526004016149c590616ebc565b60405180910390fd5b565b600060019054906101000a900460ff16614a1f576040517f08c379a0000000000000000000000000000000000000000000000000000000008152600401614a1690616ebc565b60405180910390fd5b614a27614c2f565b565b600060019054906101000a900460ff16614a78576040517f08c379a0000000000000000000000000000000000000000000000000000000008152600401614a6f90616ebc565b60405180910390fd5b614a80614c90565b565b614a8a6145dd565b600160c960006101000a81548160ff0219169083151502179055507f62e78cea01bee320cd4e420270b5ea74000d11b0c9f74754ebdbfc544b05a258614ace614ae5565b604051614adb9190614f51565b60405180910390a1565b600033905090565b6000819050919050565b6000819050919050565b614b0a8161495c565b614b49576040517f08c379a0000000000000000000000000000000000000000000000000000000008152600401614b4090616f4e565b60405180910390fd5b80614b767f360894a13ba1a3210667c828492db98dca3e2076cc3735a920a3ca505d382bbc60001b614aed565b60000160006101000a81548173ffffffffffffffffffffffffffffffffffffffff021916908373ffffffffffffffffffffffffffffffffffffffff16021790555050565b614bc383614cfc565b600082511180614bd05750805b15614be157614bdf8383614d4b565b505b505050565b614bee611c64565b614c2d576040517f08c379a0000000000000000000000000000000000000000000000000000000008152600401614c2490616fba565b60405180910390fd5b565b600060019054906101000a900460ff16614c7e576040517f08c379a0000000000000000000000000000000000000000000000000000000008152600401614c7590616ebc565b60405180910390fd5b614c8e614c89614ae5565b614896565b565b600060019054906101000a900460ff16614cdf576040517f08c379a0000000000000000000000000000000000000000000000000000000008152600401614cd690616ebc565b60405180910390fd5b600060c960006101000a81548160ff021916908315150217905550565b614d0581614b01565b8073ffffffffffffffffffffffffffffffffffffffff167fbc7cd75a20ee27fd9adebab32041f755214dbc6bffa90cc0225b39da2e5c2d3b60405160405180910390a250565b6060614d568361495c565b614d95576040517f08c379a0000000000000000000000000000000000000000000000000000000008152600401614d8c9061704c565b60405180910390fd5b6000808473ffffffffffffffffffffffffffffffffffffffff1684604051614dbd91906170b3565b600060405180830381855af49150503d8060008114614df8576040519150601f19603f3d011682016040523d82523d6000602084013e614dfd565b606091505b5091509150614e2582826040518060600160405280602781526020016170cb60279139614e2f565b9250505092915050565b60608315614e3f57829050614e8f565b600083511115614e525782518084602001fd5b816040517f08c379a0000000000000000000000000000000000000000000000000000000008152600401614e869190615465565b60405180910390fd5b9392505050565b6000604051905090565b600080fd5b600080fd5b600060ff82169050919050565b614ec081614eaa565b8114614ecb57600080fd5b50565b600081359050614edd81614eb7565b92915050565b600060208284031215614ef957614ef8614ea0565b5b6000614f0784828501614ece565b91505092915050565b600073ffffffffffffffffffffffffffffffffffffffff82169050919050565b6000614f3b82614f10565b9050919050565b614f4b81614f30565b82525050565b6000602082019050614f666000830184614f42565b92915050565b6000819050919050565b614f7f81614f6c565b8114614f8a57600080fd5b50565b600081359050614f9c81614f76565b92915050565b600060208284031215614fb857614fb7614ea0565b5b6000614fc684828501614f8d565b91505092915050565b614fd881614f6c565b82525050565b614fe781614eaa565b82525050565b600063ffffffff82169050919050565b61500681614fed565b82525050565b600061012082019050615022600083018c614fcf565b61502f602083018b614f42565b61503c604083018a614fde565b6150496060830189614fcf565b6150566080830188614fcf565b61506360a0830187614fcf565b61507060c0830186614ffd565b61507d60e0830185614ffd565b61508b610100830184614fcf565b9a9950505050505050505050565b6150a281614f30565b81146150ad57600080fd5b50565b6000813590506150bf81615099565b92915050565b60008060008060008060c087890312156150e2576150e1614ea0565b5b60006150f089828a01614f8d565b965050602061510189828a016150b0565b955050604061511289828a01614f8d565b945050606061512389828a01614f8d565b935050608061513489828a01614ece565b92505060a061514589828a01614f8d565b9150509295509295509295565b60006020828403121561516857615167614ea0565b5b6000615176848285016150b0565b91505092915050565b60006020820190506151946000830184614fcf565b92915050565b600080fd5b600080fd5b6000601f19601f8301169050919050565b7f4e487b7100000000000000000000000000000000000000000000000000000000600052604160045260246000fd5b6151ed826151a4565b810181811067ffffffffffffffff8211171561520c5761520b6151b5565b5b80604052505050565b600061521f614e96565b905061522b82826151e4565b919050565b600067ffffffffffffffff82111561524b5761524a6151b5565b5b615254826151a4565b9050602081019050919050565b82818337600083830152505050565b600061528361527e84615230565b615215565b90508281526020810184848401111561529f5761529e61519f565b5b6152aa848285615261565b509392505050565b600082601f8301126152c7576152c661519a565b5b81356152d7848260208601615270565b91505092915050565b600080604083850312156152f7576152f6614ea0565b5b6000615305858286016150b0565b925050602083013567ffffffffffffffff81111561532657615325614ea5565b5b615332858286016152b2565b9150509250929050565b6000819050919050565b61534f8161533c565b82525050565b600060208201905061536a6000830184615346565b92915050565b6000806040838503121561538757615386614ea0565b5b600061539585828601614f8d565b92505060206153a685828601614f8d565b9150509250929050565b60008115159050919050565b6153c5816153b0565b82525050565b60006020820190506153e060008301846153bc565b92915050565b600081519050919050565b600082825260208201905092915050565b60005b83811015615420578082015181840152602081019050615405565b60008484015250505050565b6000615437826153e6565b61544181856153f1565b9350615451818560208601615402565b61545a816151a4565b840191505092915050565b6000602082019050818103600083015261547f818461542c565b905092915050565b600060c08201905061549c6000830189614fcf565b6154a96020830188614fcf565b6154b66040830187614f42565b6154c36060830186614fcf565b6154d06080830185614fcf565b6154dd60a08301846153bc565b979650505050505050565b6000610100820190506154fe600083018b614fcf565b61550b602083018a614f42565b6155186040830189614fde565b6155256060830188614fcf565b6155326080830187614fcf565b61553f60a0830186614fcf565b61554c60c0830185614ffd565b61555960e0830184614ffd565b9998505050505050505050565b600080600080600060a0868803121561558257615581614ea0565b5b6000615590888289016150b0565b95505060206155a188828901614f8d565b94505060406155b288828901614f8d565b93505060606155c388828901614ece565b92505060806155d488828901614f8d565b9150509295509295909350565b600067ffffffffffffffff8211156155fc576155fb6151b5565b5b615605826151a4565b9050602081019050919050565b6000615625615620846155e1565b615215565b9050828152602081018484840111156156415761564061519f565b5b61564c848285615261565b509392505050565b600082601f8301126156695761566861519a565b5b8135615679848260208601615612565b91505092915050565b60008060006060848603121561569b5761569a614ea0565b5b60006156a986828701614ece565b935050602084013567ffffffffffffffff8111156156ca576156c9614ea5565b5b6156d686828701615654565b92505060406156e7868287016150b0565b9150509250925092565b600080600080600060a0868803121561570d5761570c614ea0565b5b600061571b88828901614f8d565b955050602061572c88828901614f8d565b945050604061573d888289016150b0565b935050606061574e88828901614f8d565b925050608061575f88828901614f8d565b9150509295509295909350565b7f547261646520636c6f6e6520616c72656164792065786973747320616e64206960008201527f6e2070726f677265737300000000000000000000000000000000000000000000602082015250565b60006157c8602a836153f1565b91506157d38261576c565b604082019050919050565b600060208201905081810360008301526157f7816157bb565b9050919050565b7f6e6f6e207a65726f2076616c756573206f6e6c79000000000000000000000000600082015250565b60006158346014836153f1565b915061583f826157fe565b602082019050919050565b6000602082019050818103600083015261586381615827565b9050919050565b7f4e487b7100000000000000000000000000000000000000000000000000000000600052601160045260246000fd5b60006158a482614f6c565b91506158af83614f6c565b92508282019050808211156158c7576158c661586a565b5b92915050565b60006040820190506158e26000830185614fcf565b6158ef6020830184614f42565b9392505050565b7f46756e6374696f6e206d7573742062652063616c6c6564207468726f7567682060008201527f64656c656761746563616c6c0000000000000000000000000000000000000000602082015250565b6000615952602c836153f1565b915061595d826158f6565b604082019050919050565b6000602082019050818103600083015261598181615945565b9050919050565b7f46756e6374696f6e206d7573742062652063616c6c6564207468726f7567682060008201527f6163746976652070726f78790000000000000000000000000000000000000000602082015250565b60006159e4602c836153f1565b91506159ef82615988565b604082019050919050565b60006020820190508181036000830152615a13816159d7565b9050919050565b7f555550535570677261646561626c653a206d757374206e6f742062652063616c60008201527f6c6564207468726f7567682064656c656761746563616c6c0000000000000000602082015250565b6000615a766038836153f1565b9150615a8182615a1a565b604082019050919050565b60006020820190508181036000830152615aa581615a69565b9050919050565b7f616d6f756e742063616e6e6f74206265207a65726f0000000000000000000000600082015250565b6000615ae26015836153f1565b9150615aed82615aac565b602082019050919050565b60006020820190508181036000830152615b1181615ad5565b9050919050565b7f747261646520446f6573206e6f74206578697374000000000000000000000000600082015250565b6000615b4e6014836153f1565b9150615b5982615b18565b602082019050919050565b60006020820190508181036000830152615b7d81615b41565b9050919050565b7f506c656173652073656e64207472616e73616374696f6e20696e20736f6d652060008201527f74696d6500000000000000000000000000000000000000000000000000000000602082015250565b6000615be06024836153f1565b9150615beb82615b84565b604082019050919050565b60006020820190508181036000830152615c0f81615bd3565b9050919050565b7f796f752063616e206f6e6c79206f707420666f722061207472616465206f6e6360008201527f6500000000000000000000000000000000000000000000000000000000000000602082015250565b6000615c726021836153f1565b9150615c7d82615c16565b604082019050919050565b60006020820190508181036000830152615ca181615c65565b9050919050565b7f7468697320747261646520646f6573206e6f7420657869737400000000000000600082015250565b6000615cde6019836153f1565b9150615ce982615ca8565b602082019050919050565b60006020820190508181036000830152615d0d81615cd1565b9050919050565b7f73656c6c65722063616e74206275790000000000000000000000000000000000600082015250565b6000615d4a600f836153f1565b9150615d5582615d14565b602082019050919050565b60006020820190508181036000830152615d7981615d3d565b9050919050565b7f546865207472616465206e6f206c6f6e676572206861732066756e6473000000600082015250565b6000615db6601d836153f1565b9150615dc182615d80565b602082019050919050565b60006020820190508181036000830152615de581615da9565b9050919050565b7f546869732074726164652068617320656e646564000000000000000000000000600082015250565b6000615e226014836153f1565b9150615e2d82615dec565b602082019050919050565b60006020820190508181036000830152615e5181615e15565b9050919050565b7f616d6f756e7420746f6f206c6f77000000000000000000000000000000000000600082015250565b6000615e8e600e836153f1565b9150615e9982615e58565b602082019050919050565b60006020820190508181036000830152615ebd81615e81565b9050919050565b6000606082019050615ed96000830186614f42565b615ee66020830185614f42565b615ef36040830184614fcf565b949350505050565b615f04816153b0565b8114615f0f57600080fd5b50565b600081519050615f2181615efb565b92915050565b600060208284031215615f3d57615f3c614ea0565b5b6000615f4b84828501615f12565b91505092915050565b6000615f5f82614f6c565b9150615f6a83614f6c565b9250828203905081811115615f8257615f8161586a565b5b92915050565b6000606082019050615f9d6000830186614fcf565b615faa6020830185614f42565b615fb76040830184614fcf565b949350505050565b7f756e617574686f72697a65640000000000000000000000000000000000000000600082015250565b6000615ff5600c836153f1565b915061600082615fbf565b602082019050919050565b6000602082019050818103600083015261602481615fe8565b9050919050565b7f73746f702067657420736f6d652068656c700000000000000000000000000000600082015250565b60006160616012836153f1565b915061606c8261602b565b602082019050919050565b6000602082019050818103600083015261609081616054565b9050919050565b7f746865726520617265206e6f2066756e647320617661696c61626c6520666f7260008201527f20726566756e6400000000000000000000000000000000000000000000000000602082015250565b60006160f36027836153f1565b91506160fe82616097565b604082019050919050565b60006020820190508181036000830152616122816160e6565b9050919050565b7f746865207472616465206973206f6e676f696e67000000000000000000000000600082015250565b600061615f6014836153f1565b915061616a82616129565b602082019050919050565b6000602082019050818103600083015261618e81616152565b9050919050565b60006040820190506161aa6000830185614f42565b6161b76020830184614fcf565b9392505050565b7f4e487b7100000000000000000000000000000000000000000000000000000000600052602260045260246000fd5b6000600282049050600182168061620557607f821691505b602082108103616218576162176161be565b5b50919050565b7f496e697469616c697a61626c653a20636f6e747261637420697320616c72656160008201527f647920696e697469616c697a6564000000000000000000000000000000000000602082015250565b600061627a602e836153f1565b91506162858261621e565b604082019050919050565b600060208201905081810360008301526162a98161626d565b9050919050565b6000819050919050565b6000819050919050565b60006162df6162da6162d5846162b0565b6162ba565b614eaa565b9050919050565b6162ef816162c4565b82525050565b600060208201905061630a60008301846162e6565b92915050565b7f747261646520616c726561647920657869737473000000000000000000000000600082015250565b60006163466014836153f1565b915061635182616310565b602082019050919050565b6000602082019050818103600083015261637581616339565b9050919050565b7f4e6f6e207a65726f2076616c756573206f6e6c79000000000000000000000000600082015250565b60006163b26014836153f1565b91506163bd8261637c565b602082019050919050565b600060208201905081810360008301526163e1816163a5565b9050919050565b7f456e6474696d65206d7573742062652067726561746572000000000000000000600082015250565b600061641e6017836153f1565b9150616429826163e8565b602082019050919050565b6000602082019050818103600083015261644d81616411565b9050919050565b7f6e6f206665657320617661696c61626c65000000000000000000000000000000600082015250565b600061648a6011836153f1565b915061649582616454565b602082019050919050565b600060208201905081810360008301526164b98161647d565b9050919050565b60008190508160005260206000209050919050565b60006020601f8301049050919050565b600082821b905092915050565b6000600883026165227fffffffffffffffffffffffffffffffffffffffffffffffffffffffffffffffff826164e5565b61652c86836164e5565b95508019841693508086168417925050509392505050565b600061655f61655a61655584614f6c565b6162ba565b614f6c565b9050919050565b6000819050919050565b61657983616544565b61658d61658582616566565b8484546164f2565b825550505050565b600090565b6165a2616595565b6165ad818484616570565b505050565b5b818110156165d1576165c660008261659a565b6001810190506165b3565b5050565b601f821115616616576165e7816164c0565b6165f0846164d5565b810160208510156165ff578190505b61661361660b856164d5565b8301826165b2565b50505b505050565b600082821c905092915050565b60006166396000198460080261661b565b1980831691505092915050565b60006166528383616628565b9150826002028217905092915050565b61666b826153e6565b67ffffffffffffffff811115616684576166836151b5565b5b61668e82546161ed565b6166998282856165d5565b600060209050601f8311600181146166cc57600084156166ba578287015190505b6166c48582616646565b86555061672c565b601f1984166166da866164c0565b60005b82811015616702578489015182556001820191506020850194506020810190506166dd565b8683101561671f578489015161671b601f891682616628565b8355505b6001600288020188555050505b505050505050565b7f73776170207374696c6c20696e2070726f677265737300000000000000000000600082015250565b600061676a6016836153f1565b915061677582616734565b602082019050919050565b600060208201905081810360008301526167998161675d565b9050919050565b7f54726164652068617320656e646564206f7220646f6573206e6f74206578697360008201527f7400000000000000000000000000000000000000000000000000000000000000602082015250565b60006167fc6021836153f1565b9150616807826167a0565b604082019050919050565b6000602082019050818103600083015261682b816167ef565b9050919050565b7f616d6f756e742073686f756c642062652067726561746572207468616e20666560008201527f6500000000000000000000000000000000000000000000000000000000000000602082015250565b600061688e6021836153f1565b915061689982616832565b604082019050919050565b600060208201905081810360008301526168bd81616881565b9050919050565b7f7377617020646f6573206e6f7420657869737400000000000000000000000000600082015250565b60006168fa6013836153f1565b9150616905826168c4565b602082019050919050565b60006020820190508181036000830152616929816168ed565b9050919050565b7f7377617020697320696e76616c69640000000000000000000000000000000000600082015250565b6000616966600f836153f1565b915061697182616930565b602082019050919050565b6000602082019050818103600083015261699581616959565b9050919050565b7f616d6f756e74206973207a65726f000000000000000000000000000000000000600082015250565b60006169d2600e836153f1565b91506169dd8261699c565b602082019050919050565b60006020820190508181036000830152616a01816169c5565b9050919050565b7f74696d6520686173206578636565646564207472616465206e6f206c6f6e676560008201527f7220657869737473000000000000000000000000000000000000000000000000602082015250565b6000616a646028836153f1565b9150616a6f82616a08565b604082019050919050565b60006020820190508181036000830152616a9381616a57565b9050919050565b7f616d6f756e74206578636565647320747261646520616d6f756e7420706c656160008201527f7365207265636865636b00000000000000000000000000000000000000000000602082015250565b6000616af6602a836153f1565b9150616b0182616a9a565b604082019050919050565b60006020820190508181036000830152616b2581616ae9565b9050919050565b6000606082019050616b416000830186614fcf565b616b4e6020830185614fcf565b616b5b6040830184614f42565b949350505050565b7f4f776e61626c653a206e6577206f776e657220697320746865207a65726f206160008201527f6464726573730000000000000000000000000000000000000000000000000000602082015250565b6000616bbf6026836153f1565b9150616bca82616b63565b604082019050919050565b60006020820190508181036000830152616bee81616bb2565b9050919050565b7f4f776e61626c653a2063616c6c6572206973206e6f7420746865206f776e6572600082015250565b6000616c2b6020836153f1565b9150616c3682616bf5565b602082019050919050565b60006020820190508181036000830152616c5a81616c1e565b9050919050565b7f5061757361626c653a2070617573656400000000000000000000000000000000600082015250565b6000616c976010836153f1565b9150616ca282616c61565b602082019050919050565b60006020820190508181036000830152616cc681616c8a565b9050919050565b616cd68161533c565b8114616ce157600080fd5b50565b600081519050616cf381616ccd565b92915050565b600060208284031215616d0f57616d0e614ea0565b5b6000616d1d84828501616ce4565b91505092915050565b7f45524331393637557067726164653a206e657720696d706c656d656e7461746960008201527f6f6e206973206e6f742055555053000000000000000000000000000000000000602082015250565b6000616d82602e836153f1565b9150616d8d82616d26565b604082019050919050565b60006020820190508181036000830152616db181616d75565b9050919050565b7f45524331393637557067726164653a20756e737570706f727465642070726f7860008201527f6961626c65555549440000000000000000000000000000000000000000000000602082015250565b6000616e146029836153f1565b9150616e1f82616db8565b604082019050919050565b60006020820190508181036000830152616e4381616e07565b9050919050565b7f496e697469616c697a61626c653a20636f6e7472616374206973206e6f74206960008201527f6e697469616c697a696e67000000000000000000000000000000000000000000602082015250565b6000616ea6602b836153f1565b9150616eb182616e4a565b604082019050919050565b60006020820190508181036000830152616ed581616e99565b9050919050565b7f455243313936373a206e657720696d706c656d656e746174696f6e206973206e60008201527f6f74206120636f6e747261637400000000000000000000000000000000000000602082015250565b6000616f38602d836153f1565b9150616f4382616edc565b604082019050919050565b60006020820190508181036000830152616f6781616f2b565b9050919050565b7f5061757361626c653a206e6f7420706175736564000000000000000000000000600082015250565b6000616fa46014836153f1565b9150616faf82616f6e565b602082019050919050565b60006020820190508181036000830152616fd381616f97565b9050919050565b7f416464726573733a2064656c65676174652063616c6c20746f206e6f6e2d636f60008201527f6e74726163740000000000000000000000000000000000000000000000000000602082015250565b60006170366026836153f1565b915061704182616fda565b604082019050919050565b6000602082019050818103600083015261706581617029565b9050919050565b600081519050919050565b600081905092915050565b600061708d8261706c565b6170978185617077565b93506170a7818560208601615402565b80840191505092915050565b60006170bf8284617082565b91508190509291505056fe416464726573733a206c6f772d6c6576656c2064656c65676174652063616c6c206661696c6564a26469706673582212200372f6d509067691b4f4c5d0f8fda79e8141715911db30343a25fdb2f0f8613e64736f6c63430008110033",
  "linkReferences": {},
  "deployedLinkReferences": {}
}