{
  "_format": "hh-sol-artifact-1",
  "contractName": "EscrowERC",
  "sourceName": "contracts/p2pERC.sol",
  "abi": [
    {
      "inputs": [],
      "stateMutability": "nonpayable",
      "type": "constructor"
    },
    {
      "anonymous": false,
      "inputs": [
        {
          "indexed": false,
          "internalType": "address",
          "name": "previousAdmin",
          "type": "address"
        },
        {
          "indexed": false,
          "internalType": "address",
          "name": "newAdmin",
          "type": "address"
        }
      ],
      "name": "AdminChanged",
      "type": "event"
    },
    {
      "anonymous": false,
      "inputs": [
        {
          "indexed": true,
          "internalType": "address",
          "name": "beacon",
          "type": "address"
        }
      ],
      "name": "BeaconUpgraded",
      "type": "event"
    },
    {
      "anonymous": false,
      "inputs": [
        {
          "indexed": false,
          "internalType": "uint256",
          "name": "_TradeCloneID",
          "type": "uint256"
        },
        {
          "indexed": false,
          "internalType": "address",
          "name": "Buyer",
          "type": "address"
        },
        {
          "indexed": false,
          "internalType": "uint256",
          "name": "_amount",
          "type": "uint256"
        }
      ],
      "name": "BuyerDeposit",
      "type": "event"
    },
    {
      "anonymous": false,
      "inputs": [
        {
          "indexed": false,
          "internalType": "uint8",
          "name": "version",
          "type": "uint8"
        }
      ],
      "name": "Initialized",
      "type": "event"
    },
    {
      "anonymous": false,
      "inputs": [
        {
          "indexed": true,
          "internalType": "address",
          "name": "previousOwner",
          "type": "address"
        },
        {
          "indexed": true,
          "internalType": "address",
          "name": "newOwner",
          "type": "address"
        }
      ],
      "name": "OwnershipTransferred",
      "type": "event"
    },
    {
      "anonymous": false,
      "inputs": [
        {
          "indexed": false,
          "internalType": "address",
          "name": "account",
          "type": "address"
        }
      ],
      "name": "Paused",
      "type": "event"
    },
    {
      "anonymous": false,
      "inputs": [
        {
          "indexed": false,
          "internalType": "uint256",
          "name": "_TradeCloneid",
          "type": "uint256"
        },
        {
          "indexed": false,
          "internalType": "address",
          "name": "Seller",
          "type": "address"
        },
        {
          "indexed": false,
          "internalType": "uint256",
          "name": "_amount",
          "type": "uint256"
        }
      ],
      "name": "Sellerwithdraw",
      "type": "event"
    },
    {
      "anonymous": false,
      "inputs": [
        {
          "indexed": false,
          "internalType": "uint256",
          "name": "_swapID",
          "type": "uint256"
        },
        {
          "indexed": false,
          "internalType": "uint256",
          "name": "Parent",
          "type": "uint256"
        },
        {
          "indexed": false,
          "internalType": "address",
          "name": "Buyer",
          "type": "address"
        }
      ],
      "name": "SwapComplete",
      "type": "event"
    },
    {
      "anonymous": false,
      "inputs": [
        {
          "indexed": false,
          "internalType": "address",
          "name": "account",
          "type": "address"
        }
      ],
      "name": "Unpaused",
      "type": "event"
    },
    {
      "anonymous": false,
      "inputs": [
        {
          "indexed": true,
          "internalType": "address",
          "name": "implementation",
          "type": "address"
        }
      ],
      "name": "Upgraded",
      "type": "event"
    },
    {
      "anonymous": false,
      "inputs": [
        {
          "indexed": false,
          "internalType": "uint256",
          "name": "_Tradeid",
          "type": "uint256"
        },
        {
          "indexed": false,
          "internalType": "address",
          "name": "Seller",
          "type": "address"
        },
        {
          "indexed": false,
          "internalType": "uint256",
          "name": "_amount",
          "type": "uint256"
        }
      ],
      "name": "refunded",
      "type": "event"
    },
    {
      "anonymous": false,
      "inputs": [
        {
          "indexed": false,
          "internalType": "uint256",
          "name": "_SwapID",
          "type": "uint256"
        },
        {
          "indexed": false,
          "internalType": "address",
          "name": "Buyer",
          "type": "address"
        }
      ],
      "name": "swapCreated",
      "type": "event"
    },
    {
      "anonymous": false,
      "inputs": [
        {
          "indexed": false,
          "internalType": "uint256",
          "name": "_TradeCloneid",
          "type": "uint256"
        },
        {
          "indexed": false,
          "internalType": "address",
          "name": "Seller",
          "type": "address"
        }
      ],
      "name": "tradeCloneCreated",
      "type": "event"
    },
    {
      "anonymous": false,
      "inputs": [
        {
          "indexed": false,
          "internalType": "uint256",
          "name": "_Tradeid",
          "type": "uint256"
        },
        {
          "indexed": false,
          "internalType": "address",
          "name": "Seller",
          "type": "address"
        },
        {
          "indexed": false,
          "internalType": "uint256",
          "name": "_amount",
          "type": "uint256"
        }
      ],
      "name": "tradeCreated",
      "type": "event"
    },
    {
      "inputs": [
        {
          "internalType": "uint256",
          "name": "",
          "type": "uint256"
        }
      ],
      "name": "SwapTrack",
      "outputs": [
        {
          "internalType": "uint256",
          "name": "id",
          "type": "uint256"
        },
        {
          "internalType": "uint256",
          "name": "parentTradeID",
          "type": "uint256"
        },
        {
          "internalType": "address",
          "name": "buyer",
          "type": "address"
        },
        {
          "internalType": "uint256",
          "name": "WithdrawAmount",
          "type": "uint256"
        },
        {
          "internalType": "uint256",
          "name": "feeAmount",
          "type": "uint256"
        },
        {
          "internalType": "bool",
          "name": "CompletionStatus",
          "type": "bool"
        }
      ],
      "stateMutability": "view",
      "type": "function"
    },
    {
      "inputs": [
        {
          "internalType": "uint256",
          "name": "",
          "type": "uint256"
        }
      ],
      "name": "TradeCloneTrack",
      "outputs": [
        {
          "internalType": "uint256",
          "name": "id",
          "type": "uint256"
        },
        {
          "internalType": "address",
          "name": "seller",
          "type": "address"
        },
        {
          "internalType": "uint8",
          "name": "SellerGetTokenIndex",
          "type": "uint8"
        },
        {
          "internalType": "uint256",
          "name": "endtime",
          "type": "uint256"
        },
        {
          "internalType": "uint256",
          "name": "MaxBalance",
          "type": "uint256"
        },
        {
          "internalType": "uint256",
          "name": "currentBalance",
          "type": "uint256"
        },
        {
          "internalType": "uint32",
          "name": "originchainID",
          "type": "uint32"
        },
        {
          "internalType": "uint32",
          "name": "secondaryChainID",
          "type": "uint32"
        },
        {
          "internalType": "uint256",
          "name": "feeAmount",
          "type": "uint256"
        }
      ],
      "stateMutability": "view",
      "type": "function"
    },
    {
      "inputs": [
        {
          "internalType": "uint256",
          "name": "",
          "type": "uint256"
        }
      ],
      "name": "TradeTrack",
      "outputs": [
        {
          "internalType": "uint256",
          "name": "id",
          "type": "uint256"
        },
        {
          "internalType": "address",
          "name": "seller",
          "type": "address"
        },
        {
          "internalType": "uint8",
          "name": "SellerGiveTokenIndex",
          "type": "uint8"
        },
        {
          "internalType": "uint256",
          "name": "endtime",
          "type": "uint256"
        },
        {
          "internalType": "uint256",
          "name": "DepositValue",
          "type": "uint256"
        },
        {
          "internalType": "uint256",
          "name": "AvailableValue",
          "type": "uint256"
        },
        {
          "internalType": "uint32",
          "name": "originchainID",
          "type": "uint32"
        },
        {
          "internalType": "uint32",
          "name": "secondaryChainID",
          "type": "uint32"
        }
      ],
      "stateMutability": "view",
      "type": "function"
    },
    {
      "inputs": [
        {
          "internalType": "uint8",
          "name": "",
          "type": "uint8"
        }
      ],
      "name": "Whitelistedtokens",
      "outputs": [
        {
          "internalType": "address",
          "name": "",
          "type": "address"
        }
      ],
      "stateMutability": "view",
      "type": "function"
    },
    {
      "inputs": [
        {
          "internalType": "uint256",
          "name": "_id",
          "type": "uint256"
        },
        {
          "internalType": "uint256",
          "name": "_amount",
          "type": "uint256"
        }
      ],
      "name": "depositBuyer",
      "outputs": [],
      "stateMutability": "nonpayable",
      "type": "function"
    },
    {
      "inputs": [
        {
          "internalType": "address",
          "name": "_seller",
          "type": "address"
        },
        {
          "internalType": "uint256",
          "name": "_id",
          "type": "uint256"
        },
        {
          "internalType": "uint256",
          "name": "_amount",
          "type": "uint256"
        },
        {
          "internalType": "uint8",
          "name": "_tokenIndex",
          "type": "uint8"
        },
        {
          "internalType": "uint256",
          "name": "_endtime",
          "type": "uint256"
        }
      ],
      "name": "depositSeller",
      "outputs": [],
      "stateMutability": "nonpayable",
      "type": "function"
    },
    {
      "inputs": [
        {
          "internalType": "uint8",
          "name": "",
          "type": "uint8"
        }
      ],
      "name": "feeCollected",
      "outputs": [
        {
          "internalType": "uint256",
          "name": "",
          "type": "uint256"
        }
      ],
      "stateMutability": "view",
      "type": "function"
    },
    {
      "inputs": [],
      "name": "initialize",
      "outputs": [],
      "stateMutability": "nonpayable",
      "type": "function"
    },
    {
      "inputs": [
        {
          "internalType": "uint8",
          "name": "",
          "type": "uint8"
        }
      ],
      "name": "names",
      "outputs": [
        {
          "internalType": "string",
          "name": "",
          "type": "string"
        }
      ],
      "stateMutability": "view",
      "type": "function"
    },
    {
      "inputs": [],
      "name": "owner",
      "outputs": [
        {
          "internalType": "address",
          "name": "",
          "type": "address"
        }
      ],
      "stateMutability": "view",
      "type": "function"
    },
    {
      "inputs": [],
      "name": "pause",
      "outputs": [],
      "stateMutability": "nonpayable",
      "type": "function"
    },
    {
      "inputs": [],
      "name": "paused",
      "outputs": [
        {
          "internalType": "bool",
          "name": "",
          "type": "bool"
        }
      ],
      "stateMutability": "view",
      "type": "function"
    },
    {
      "inputs": [],
      "name": "proxiableUUID",
      "outputs": [
        {
          "internalType": "bytes32",
          "name": "",
          "type": "bytes32"
        }
      ],
      "stateMutability": "view",
      "type": "function"
    },
    {
      "inputs": [
        {
          "internalType": "uint256",
          "name": "_id",
          "type": "uint256"
        }
      ],
      "name": "refundSeller",
      "outputs": [],
      "stateMutability": "nonpayable",
      "type": "function"
    },
    {
      "inputs": [],
      "name": "renounceOwnership",
      "outputs": [],
      "stateMutability": "nonpayable",
      "type": "function"
    },
    {
      "inputs": [
        {
          "internalType": "uint8",
          "name": "_index",
          "type": "uint8"
        },
        {
          "internalType": "string",
          "name": "_name",
          "type": "string"
        },
        {
          "internalType": "address",
          "name": "_token",
          "type": "address"
        }
      ],
      "name": "setERCAddress",
      "outputs": [],
      "stateMutability": "nonpayable",
      "type": "function"
    },
    {
      "inputs": [
        {
          "internalType": "uint256",
          "name": "_id",
          "type": "uint256"
        },
        {
          "internalType": "uint256",
          "name": "_parentID",
          "type": "uint256"
        },
        {
          "internalType": "address",
          "name": "_buyer",
          "type": "address"
        },
        {
          "internalType": "uint256",
          "name": "_withdrawamount",
          "type": "uint256"
        },
        {
          "internalType": "uint256",
          "name": "_feeAmount",
          "type": "uint256"
        }
      ],
      "name": "setSwapID",
      "outputs": [],
      "stateMutability": "nonpayable",
      "type": "function"
    },
    {
      "inputs": [
        {
          "internalType": "uint256",
          "name": "_id",
          "type": "uint256"
        },
        {
          "internalType": "address",
          "name": "_seller",
          "type": "address"
        },
        {
          "internalType": "uint256",
          "name": "_endtime",
          "type": "uint256"
        },
        {
          "internalType": "uint256",
          "name": "_maxAmount",
          "type": "uint256"
        },
        {
          "internalType": "uint8",
          "name": "_sellerTokenIndex",
          "type": "uint8"
        },
        {
          "internalType": "uint256",
          "name": "_feetoBepaid",
          "type": "uint256"
        }
      ],
      "name": "setTradeCloneID",
      "outputs": [],
      "stateMutability": "nonpayable",
      "type": "function"
    },
    {
      "inputs": [
        {
          "internalType": "address",
          "name": "newOwner",
          "type": "address"
        }
      ],
      "name": "transferOwnership",
      "outputs": [],
      "stateMutability": "nonpayable",
      "type": "function"
    },
    {
      "inputs": [],
      "name": "unpause",
      "outputs": [],
      "stateMutability": "nonpayable",
      "type": "function"
    },
    {
      "inputs": [
        {
          "internalType": "address",
          "name": "newImplementation",
          "type": "address"
        }
      ],
      "name": "upgradeTo",
      "outputs": [],
      "stateMutability": "nonpayable",
      "type": "function"
    },
    {
      "inputs": [
        {
          "internalType": "address",
          "name": "newImplementation",
          "type": "address"
        },
        {
          "internalType": "bytes",
          "name": "data",
          "type": "bytes"
        }
      ],
      "name": "upgradeToAndCall",
      "outputs": [],
      "stateMutability": "payable",
      "type": "function"
    },
    {
      "inputs": [
        {
          "internalType": "uint256",
          "name": "_id",
          "type": "uint256"
        }
      ],
      "name": "withDrawBuyer",
      "outputs": [],
      "stateMutability": "nonpayable",
      "type": "function"
    },
    {
      "inputs": [
        {
          "internalType": "uint8",
          "name": "_index",
          "type": "uint8"
        }
      ],
      "name": "withdrawFee",
      "outputs": [],
      "stateMutability": "nonpayable",
      "type": "function"
    }
  ],
  "bytecode": "0x60a06040523073ffffffffffffffffffffffffffffffffffffffff1660809073ffffffffffffffffffffffffffffffffffffffff168152503480156200004457600080fd5b50620000556200005b60201b60201c565b62000206565b600060019054906101000a900460ff1615620000ae576040517f08c379a0000000000000000000000000000000000000000000000000000000008152600401620000a590620001a9565b60405180910390fd5b60ff801660008054906101000a900460ff1660ff161015620001205760ff6000806101000a81548160ff021916908360ff1602179055507f7f26b83ff96e1f2b6a682f133852f6798a09c465da95921460cefb384740249860ff604051620001179190620001e9565b60405180910390a15b565b600082825260208201905092915050565b7f496e697469616c697a61626c653a20636f6e747261637420697320696e69746960008201527f616c697a696e6700000000000000000000000000000000000000000000000000602082015250565b60006200019160278362000122565b91506200019e8262000133565b604082019050919050565b60006020820190508181036000830152620001c48162000182565b9050919050565b600060ff82169050919050565b620001e381620001cb565b82525050565b6000602082019050620002006000830184620001d8565b92915050565b608051615ad96200023e600039600081816108da0152818161096801528181610a8d01528181610b1b0152610bcb0152615ad96000f3fe60806040526004361061014b5760003560e01c80637257a493116100b65780638da5cb5b1161006f5780638da5cb5b1461046d578063940dca60146104985780639bd01a40146104c15780639fd6b265146104ea578063d3a95fde14610513578063f2fde38b1461053c5761014b565b80637257a493146103535780637f6bffd3146103905780637f9d2258146103d25780638129fc1c146104165780638456cb591461042d5780638acb01f3146104445761014b565b80634f1ef286116101085780634f1ef2861461027857806352d1902d1461029457806358830d36146102bf5780635c975abb146102e85780636537e0b714610313578063715018a61461033c5761014b565b8063064139f114610150578063190220101461018d5780632201a4e9146101d25780633659cfe6146101fb5780633f4ba83a146102245780634a552a4d1461023b575b600080fd5b34801561015c57600080fd5b5061017760048036038101906101729190613895565b610565565b6040516101849190613903565b60405180910390f35b34801561019957600080fd5b506101b460048036038101906101af9190613954565b610598565b6040516101c9999897969594939291906139be565b60405180910390f35b3480156101de57600080fd5b506101f960048036038101906101f49190613a77565b610633565b005b34801561020757600080fd5b50610222600480360381019061021d9190613b04565b6108d8565b005b34801561023057600080fd5b50610239610a60565b005b34801561024757600080fd5b50610262600480360381019061025d9190613895565b610a72565b60405161026f9190613b31565b60405180910390f35b610292600480360381019061028d9190613c92565b610a8b565b005b3480156102a057600080fd5b506102a9610bc7565b6040516102b69190613d07565b60405180910390f35b3480156102cb57600080fd5b506102e660048036038101906102e19190613d22565b610c80565b005b3480156102f457600080fd5b506102fd611506565b60405161030a9190613d7d565b60405180910390f35b34801561031f57600080fd5b5061033a60048036038101906103359190613954565b61151d565b005b34801561034857600080fd5b50610351611a95565b005b34801561035f57600080fd5b5061037a60048036038101906103759190613895565b611aa9565b6040516103879190613e17565b60405180910390f35b34801561039c57600080fd5b506103b760048036038101906103b29190613954565b611b49565b6040516103c996959493929190613e39565b60405180910390f35b3480156103de57600080fd5b506103f960048036038101906103f49190613954565b611bb2565b60405161040d989796959493929190613e9a565b60405180910390f35b34801561042257600080fd5b5061042b611c47565b005b34801561043957600080fd5b50610442611d95565b005b34801561045057600080fd5b5061046b60048036038101906104669190613f18565b611da7565b005b34801561047957600080fd5b5061048261219d565b60405161048f9190613903565b60405180910390f35b3480156104a457600080fd5b506104bf60048036038101906104ba9190613895565b6121c7565b005b3480156104cd57600080fd5b506104e860048036038101906104e39190614034565b612329565b005b3480156104f657600080fd5b50610511600480360381019061050c91906140a3565b6123bd565b005b34801561051f57600080fd5b5061053a60048036038101906105359190613954565b612674565b005b34801561054857600080fd5b50610563600480360381019061055e9190613b04565b612eca565b005b60ff6020528060005260406000206000915054906101000a900473ffffffffffffffffffffffffffffffffffffffff1681565b60fc6020528060005260406000206000915090508060000154908060010160009054906101000a900473ffffffffffffffffffffffffffffffffffffffff16908060010160149054906101000a900460ff16908060020154908060030154908060040154908060050160009054906101000a900463ffffffff16908060050160049054906101000a900463ffffffff16908060060154905089565b61063b612f4d565b610643612fcb565b610100600087815260200190815260200160002060009054906101000a900460ff16156106a5576040517f08c379a000000000000000000000000000000000000000000000000000000000815260040161069c90614190565b60405180910390fd5b600083116106e8576040517f08c379a00000000000000000000000000000000000000000000000000000000081526004016106df906141fc565b60405180910390fd5b60008085426106f7919061424b565b905060006040518061012001604052808a81526020018973ffffffffffffffffffffffffffffffffffffffff1681526020018660ff1681526020018381526020018781526020018481526020016101a463ffffffff1681526020016201388163ffffffff1681526020018581525090508060fc60008b81526020019081526020016000206000820151816000015560208201518160010160006101000a81548173ffffffffffffffffffffffffffffffffffffffff021916908373ffffffffffffffffffffffffffffffffffffffff16021790555060408201518160010160146101000a81548160ff021916908360ff160217905550606082015181600201556080820151816003015560a0820151816004015560c08201518160050160006101000a81548163ffffffff021916908363ffffffff16021790555060e08201518160050160046101000a81548163ffffffff021916908363ffffffff1602179055506101008201518160060155905050600161010060008b815260200190815260200160002060006101000a81548160ff0219169083151502179055507f244d7078e79ff879576610bab60172dae6b48ee3189d25f86f76abc0c375828889896040516108c592919061427f565b60405180910390a1505050505050505050565b7f000000000000000000000000000000000000000000000000000000000000000073ffffffffffffffffffffffffffffffffffffffff163073ffffffffffffffffffffffffffffffffffffffff1603610966576040517f08c379a000000000000000000000000000000000000000000000000000000000815260040161095d9061431a565b60405180910390fd5b7f000000000000000000000000000000000000000000000000000000000000000073ffffffffffffffffffffffffffffffffffffffff166109a5613015565b73ffffffffffffffffffffffffffffffffffffffff16146109fb576040517f08c379a00000000000000000000000000000000000000000000000000000000081526004016109f2906143ac565b60405180910390fd5b610a048161306c565b610a5d81600067ffffffffffffffff811115610a2357610a22613b67565b5b6040519080825280601f01601f191660200182016040528015610a555781602001600182028036833780820191505090505b506000613077565b50565b610a68612f4d565b610a706131e5565b565b6101056020528060005260406000206000915090505481565b7f000000000000000000000000000000000000000000000000000000000000000073ffffffffffffffffffffffffffffffffffffffff163073ffffffffffffffffffffffffffffffffffffffff1603610b19576040517f08c379a0000000000000000000000000000000000000000000000000000000008152600401610b109061431a565b60405180910390fd5b7f000000000000000000000000000000000000000000000000000000000000000073ffffffffffffffffffffffffffffffffffffffff16610b58613015565b73ffffffffffffffffffffffffffffffffffffffff1614610bae576040517f08c379a0000000000000000000000000000000000000000000000000000000008152600401610ba5906143ac565b60405180910390fd5b610bb78261306c565b610bc382826001613077565b5050565b60007f000000000000000000000000000000000000000000000000000000000000000073ffffffffffffffffffffffffffffffffffffffff163073ffffffffffffffffffffffffffffffffffffffff1614610c57576040517f08c379a0000000000000000000000000000000000000000000000000000000008152600401610c4e9061443e565b60405180910390fd5b7f360894a13ba1a3210667c828492db98dca3e2076cc3735a920a3ca505d382bbc60001b905090565b610c88612fcb565b60008111610ccb576040517f08c379a0000000000000000000000000000000000000000000000000000000008152600401610cc2906144aa565b60405180910390fd5b610100600083815260200190815260200160002060009054906101000a900460ff16610d2c576040517f08c379a0000000000000000000000000000000000000000000000000000000008152600401610d2390614516565b60405180910390fd5b610104600083815260200190815260200160002060009054906101000a900460ff1615610d8e576040517f08c379a0000000000000000000000000000000000000000000000000000000008152600401610d85906145a8565b60405180910390fd5b6001610104600084815260200190815260200160002060006101000a81548160ff02191690831515021790555061010160003373ffffffffffffffffffffffffffffffffffffffff1673ffffffffffffffffffffffffffffffffffffffff168152602001908152602001600020600083815260200190815260200160002060009054906101000a900460ff1615610e5a576040517f08c379a0000000000000000000000000000000000000000000000000000000008152600401610e519061463a565b60405180910390fd5b600161010160003373ffffffffffffffffffffffffffffffffffffffff1673ffffffffffffffffffffffffffffffffffffffff168152602001908152602001600020600084815260200190815260200160002060006101000a81548160ff021916908315150217905550600060fc600084815260200190815260200160002060405180610120016040529081600082015481526020016001820160009054906101000a900473ffffffffffffffffffffffffffffffffffffffff1673ffffffffffffffffffffffffffffffffffffffff1673ffffffffffffffffffffffffffffffffffffffff1681526020016001820160149054906101000a900460ff1660ff1660ff1681526020016002820154815260200160038201548152602001600482015481526020016005820160009054906101000a900463ffffffff1663ffffffff1663ffffffff1681526020016005820160049054906101000a900463ffffffff1663ffffffff1663ffffffff1681526020016006820154815250509050600073ffffffffffffffffffffffffffffffffffffffff16816020015173ffffffffffffffffffffffffffffffffffffffff160361104b576040517f08c379a0000000000000000000000000000000000000000000000000000000008152600401611042906146a6565b60405180910390fd5b6000816020015190508073ffffffffffffffffffffffffffffffffffffffff163373ffffffffffffffffffffffffffffffffffffffff16036110c2576040517f08c379a00000000000000000000000000000000000000000000000000000000081526004016110b990614712565b60405180910390fd5b8160800151838360a001516110d7919061424b565b10611117576040517f08c379a000000000000000000000000000000000000000000000000000000000815260040161110e9061477e565b60405180910390fd5b8160600151421061115d576040517f08c379a0000000000000000000000000000000000000000000000000000000008152600401611154906147ea565b60405180910390fd5b600082604001519050600083610100015190508085116111b2576040517f08c379a00000000000000000000000000000000000000000000000000000000081526004016111a990614856565b60405180910390fd5b600081146112b25760ff60008360ff1660ff16815260200190815260200160002060009054906101000a900473ffffffffffffffffffffffffffffffffffffffff1673ffffffffffffffffffffffffffffffffffffffff166323b872dd3330846040518463ffffffff1660e01b815260040161123093929190614876565b6020604051808303816000875af115801561124f573d6000803e3d6000fd5b505050506040513d601f19601f8201168201806040525081019061127391906148d9565b508061010560008460ff1660ff168152602001908152602001600020600082825461129e919061424b565b925050819055506000846101000181815250505b600081866112c09190614906565b9050858560a0018181516112d4919061424b565b915081815250508460fc60008981526020019081526020016000206000820151816000015560208201518160010160006101000a81548173ffffffffffffffffffffffffffffffffffffffff021916908373ffffffffffffffffffffffffffffffffffffffff16021790555060408201518160010160146101000a81548160ff021916908360ff160217905550606082015181600201556080820151816003015560a0820151816004015560c08201518160050160006101000a81548163ffffffff021916908363ffffffff16021790555060e08201518160050160046101000a81548163ffffffff021916908363ffffffff16021790555061010082015181600601559050506000610104600089815260200190815260200160002060006101000a81548160ff02191690831515021790555060ff60008460ff1660ff16815260200190815260200160002060009054906101000a900473ffffffffffffffffffffffffffffffffffffffff1673ffffffffffffffffffffffffffffffffffffffff166323b872dd3386846040518463ffffffff1660e01b815260040161147e93929190614876565b6020604051808303816000875af115801561149d573d6000803e3d6000fd5b505050506040513d601f19601f820116820180604052508101906114c191906148d9565b507f0e59104d78356648ea023bd00b5f93cf6e40a67c3d6878d137423c4a653205308733886040516114f59392919061493a565b60405180910390a150505050505050565b600060c960009054906101000a900460ff16905090565b611525612fcb565b610103600082815260200190815260200160002060009054906101000a900460ff1615611587576040517f08c379a000000000000000000000000000000000000000000000000000000000815260040161157e906145a8565b60405180910390fd5b6001610103600083815260200190815260200160002060006101000a81548160ff021916908315150217905550600060fb600083815260200190815260200160002060405180610100016040529081600082015481526020016001820160009054906101000a900473ffffffffffffffffffffffffffffffffffffffff1673ffffffffffffffffffffffffffffffffffffffff1673ffffffffffffffffffffffffffffffffffffffff1681526020016001820160149054906101000a900460ff1660ff1660ff1681526020016002820154815260200160038201548152602001600482015481526020016005820160009054906101000a900463ffffffff1663ffffffff1663ffffffff1681526020016005820160049054906101000a900463ffffffff1663ffffffff1663ffffffff16815250509050806020015173ffffffffffffffffffffffffffffffffffffffff163373ffffffffffffffffffffffffffffffffffffffff1614611730576040517f08c379a0000000000000000000000000000000000000000000000000000000008152600401611727906149bd565b60405180910390fd5b610100600083815260200190815260200160002060009054906101000a900460ff16611791576040517f08c379a000000000000000000000000000000000000000000000000000000000815260040161178890614a29565b60405180910390fd5b60008160a00151116117d8576040517f08c379a00000000000000000000000000000000000000000000000000000000081526004016117cf90614abb565b60405180910390fd5b8060600151421161181e576040517f08c379a000000000000000000000000000000000000000000000000000000000815260040161181590614b27565b60405180910390fd5b6000610100600084815260200190815260200160002060006101000a81548160ff02191690831515021790555060008160a001519050808260a0018181516118669190614906565b915081815250508160fb60008581526020019081526020016000206000820151816000015560208201518160010160006101000a81548173ffffffffffffffffffffffffffffffffffffffff021916908373ffffffffffffffffffffffffffffffffffffffff16021790555060408201518160010160146101000a81548160ff021916908360ff160217905550606082015181600201556080820151816003015560a0820151816004015560c08201518160050160006101000a81548163ffffffff021916908363ffffffff16021790555060e08201518160050160046101000a81548163ffffffff021916908363ffffffff1602179055509050506000826040015190506000610103600086815260200190815260200160002060006101000a81548160ff02191690831515021790555060ff60008260ff1660ff16815260200190815260200160002060009054906101000a900473ffffffffffffffffffffffffffffffffffffffff1673ffffffffffffffffffffffffffffffffffffffff1663a9059cbb8460200151846040518363ffffffff1660e01b8152600401611a10929190614b47565b6020604051808303816000875af1158015611a2f573d6000803e3d6000fd5b505050506040513d601f19601f82011682018060405250810190611a5391906148d9565b507f1852ceb13126c22f394b77ad6298d993dfb7813f9b3139349e3c3f0852c1fe74843384604051611a879392919061493a565b60405180910390a150505050565b611a9d612f4d565b611aa76000613248565b565b60fe6020528060005260406000206000915090508054611ac890614b9f565b80601f0160208091040260200160405190810160405280929190818152602001828054611af490614b9f565b8015611b415780601f10611b1657610100808354040283529160200191611b41565b820191906000526020600020905b815481529060010190602001808311611b2457829003601f168201915b505050505081565b60fd6020528060005260406000206000915090508060000154908060010154908060020160009054906101000a900473ffffffffffffffffffffffffffffffffffffffff16908060030154908060040154908060050160009054906101000a900460ff16905086565b60fb6020528060005260406000206000915090508060000154908060010160009054906101000a900473ffffffffffffffffffffffffffffffffffffffff16908060010160149054906101000a900460ff16908060020154908060030154908060040154908060050160009054906101000a900463ffffffff16908060050160049054906101000a900463ffffffff16905088565b60008060019054906101000a900460ff16159050808015611c785750600160008054906101000a900460ff1660ff16105b80611ca55750611c873061330e565b158015611ca45750600160008054906101000a900460ff1660ff16145b5b611ce4576040517f08c379a0000000000000000000000000000000000000000000000000000000008152600401611cdb90614c42565b60405180910390fd5b60016000806101000a81548160ff021916908360ff1602179055508015611d21576001600060016101000a81548160ff0219169083151502179055505b611d29613331565b611d31613382565b611d396133db565b8015611d925760008060016101000a81548160ff0219169083151502179055507f7f26b83ff96e1f2b6a682f133852f6798a09c465da95921460cefb38474024986001604051611d899190614ca7565b60405180910390a15b50565b611d9d612f4d565b611da5613434565b565b611daf612fcb565b8473ffffffffffffffffffffffffffffffffffffffff163373ffffffffffffffffffffffffffffffffffffffff1614611e1d576040517f08c379a0000000000000000000000000000000000000000000000000000000008152600401611e14906149bd565b60405180910390fd5b610100600085815260200190815260200160002060009054906101000a900460ff1615611e7f576040517f08c379a0000000000000000000000000000000000000000000000000000000008152600401611e7690614d0e565b60405180910390fd5b60008311611ec2576040517f08c379a0000000000000000000000000000000000000000000000000000000008152600401611eb990614d7a565b60405180910390fd5b60008111611f05576040517f08c379a0000000000000000000000000000000000000000000000000000000008152600401611efc90614de6565b60405180910390fd5b60008142611f13919061424b565b90506001610100600087815260200190815260200160002060006101000a81548160ff02191690831515021790555060006040518061010001604052808781526020018873ffffffffffffffffffffffffffffffffffffffff1681526020018560ff1681526020018381526020018681526020018681526020016201388163ffffffff1681526020016101a463ffffffff16815250905060ff60008560ff1660ff16815260200190815260200160002060009054906101000a900473ffffffffffffffffffffffffffffffffffffffff1673ffffffffffffffffffffffffffffffffffffffff166323b872dd3330886040518463ffffffff1660e01b815260040161202093929190614876565b6020604051808303816000875af115801561203f573d6000803e3d6000fd5b505050506040513d601f19601f8201168201806040525081019061206391906148d9565b508060fb60008881526020019081526020016000206000820151816000015560208201518160010160006101000a81548173ffffffffffffffffffffffffffffffffffffffff021916908373ffffffffffffffffffffffffffffffffffffffff16021790555060408201518160010160146101000a81548160ff021916908360ff160217905550606082015181600201556080820151816003015560a0820151816004015560c08201518160050160006101000a81548163ffffffff021916908363ffffffff16021790555060e08201518160050160046101000a81548163ffffffff021916908363ffffffff1602179055509050507f70eca58c343efaba8ae2a4073dc68f37df918cfa453bea81e607a74ccb85d12586888760405161218c9392919061493a565b60405180910390a150505050505050565b6000609760009054906101000a900473ffffffffffffffffffffffffffffffffffffffff16905090565b6121cf612f4d565b6121d7612fcb565b600061010560008360ff1660ff1681526020019081526020016000205411612234576040517f08c379a000000000000000000000000000000000000000000000000000000000815260040161222b90614e52565b60405180910390fd5b60ff60008260ff1660ff16815260200190815260200160002060009054906101000a900473ffffffffffffffffffffffffffffffffffffffff1673ffffffffffffffffffffffffffffffffffffffff1663a9059cbb3361010560008560ff1660ff168152602001908152602001600020546040518363ffffffff1660e01b81526004016122c2929190614b47565b6020604051808303816000875af11580156122e1573d6000803e3d6000fd5b505050506040513d601f19601f8201168201806040525081019061230591906148d9565b50600061010560008360ff1660ff1681526020019081526020016000208190555050565b612331612fcb565b612339612f4d565b8060ff60008560ff1660ff16815260200190815260200160002060006101000a81548173ffffffffffffffffffffffffffffffffffffffff021916908373ffffffffffffffffffffffffffffffffffffffff1602179055508160fe60008560ff1660ff16815260200190815260200160002090816123b79190615014565b50505050565b6123c5612f4d565b6123cd612fcb565b610102600086815260200190815260200160002060009054906101000a900460ff161561242f576040517f08c379a000000000000000000000000000000000000000000000000000000000815260040161242690615132565b60405180910390fd5b610100600085815260200190815260200160002060009054906101000a900460ff16612490576040517f08c379a0000000000000000000000000000000000000000000000000000000008152600401612487906151c4565b60405180910390fd5b600082116124d3576040517f08c379a00000000000000000000000000000000000000000000000000000000081526004016124ca906141fc565b60405180910390fd5b808211612515576040517f08c379a000000000000000000000000000000000000000000000000000000000815260040161250c90615256565b60405180910390fd5b6000806040518060c001604052808881526020018781526020018673ffffffffffffffffffffffffffffffffffffffff16815260200185815260200184815260200183151581525090508060fd6000898152602001908152602001600020600082015181600001556020820151816001015560408201518160020160006101000a81548173ffffffffffffffffffffffffffffffffffffffff021916908373ffffffffffffffffffffffffffffffffffffffff160217905550606082015181600301556080820151816004015560a08201518160050160006101000a81548160ff0219169083151502179055509050506001610102600089815260200190815260200160002060006101000a81548160ff0219169083151502179055507fcae8f20940e3c6d60e303e7ac879e97f3f9736b43dd74d366948f1cdfc8e9f77878660405161266392919061427f565b60405180910390a150505050505050565b61267c612fcb565b610102600082815260200190815260200160002060009054906101000a900460ff166126dd576040517f08c379a00000000000000000000000000000000000000000000000000000000081526004016126d4906152c2565b60405180910390fd5b6000610102600083815260200190815260200160002060006101000a81548160ff021916908315150217905550600060fd60008381526020019081526020016000206040518060c001604052908160008201548152602001600182015481526020016002820160009054906101000a900473ffffffffffffffffffffffffffffffffffffffff1673ffffffffffffffffffffffffffffffffffffffff1673ffffffffffffffffffffffffffffffffffffffff16815260200160038201548152602001600482015481526020016005820160009054906101000a900460ff1615151515815250509050600081602001519050610103600082815260200190815260200160002060009054906101000a900460ff1615612830576040517f08c379a0000000000000000000000000000000000000000000000000000000008152600401612827906145a8565b60405180910390fd5b6001610103600083815260200190815260200160002060006101000a81548160ff0219169083151502179055506000826080015183606001516128739190614906565b9050600083604001519050600073ffffffffffffffffffffffffffffffffffffffff168173ffffffffffffffffffffffffffffffffffffffff16036128ed576040517f08c379a00000000000000000000000000000000000000000000000000000000081526004016128e49061532e565b60405180910390fd5b8073ffffffffffffffffffffffffffffffffffffffff163373ffffffffffffffffffffffffffffffffffffffff161461295b576040517f08c379a0000000000000000000000000000000000000000000000000000000008152600401612952906149bd565b60405180910390fd5b6000821161299e576040517f08c379a00000000000000000000000000000000000000000000000000000000081526004016129959061539a565b60405180910390fd5b610100600084815260200190815260200160002060009054906101000a900460ff166129ff576040517f08c379a00000000000000000000000000000000000000000000000000000000081526004016129f6906151c4565b60405180910390fd5b600060fb600085815260200190815260200160002060405180610100016040529081600082015481526020016001820160009054906101000a900473ffffffffffffffffffffffffffffffffffffffff1673ffffffffffffffffffffffffffffffffffffffff1673ffffffffffffffffffffffffffffffffffffffff1681526020016001820160149054906101000a900460ff1660ff1660ff1681526020016002820154815260200160038201548152602001600482015481526020016005820160009054906101000a900463ffffffff1663ffffffff1663ffffffff1681526020016005820160049054906101000a900463ffffffff1663ffffffff1663ffffffff1681525050905080606001514210612b4f576040517f08c379a0000000000000000000000000000000000000000000000000000000008152600401612b469061542c565b60405180910390fd5b8060a0015185606001511115612b9a576040517f08c379a0000000000000000000000000000000000000000000000000000000008152600401612b91906154be565b60405180910390fd5b84606001518160a001818151612bb09190614906565b9150818152505060018560a00190151590811515815250508060fb60008681526020019081526020016000206000820151816000015560208201518160010160006101000a81548173ffffffffffffffffffffffffffffffffffffffff021916908373ffffffffffffffffffffffffffffffffffffffff16021790555060408201518160010160146101000a81548160ff021916908360ff160217905550606082015181600201556080820151816003015560a0820151816004015560c08201518160050160006101000a81548163ffffffff021916908363ffffffff16021790555060e08201518160050160046101000a81548163ffffffff021916908363ffffffff1602179055509050508460fd6000888152602001908152602001600020600082015181600001556020820151816001015560408201518160020160006101000a81548173ffffffffffffffffffffffffffffffffffffffff021916908373ffffffffffffffffffffffffffffffffffffffff160217905550606082015181600301556080820151816004015560a08201518160050160006101000a81548160ff021916908315150217905550905050600081604001519050856080015161010560008360ff1660ff1681526020019081526020016000206000828254612d9a919061424b565b925050819055506000610103600087815260200190815260200160002060006101000a81548160ff02191690831515021790555060ff60008260ff1660ff16815260200190815260200160002060009054906101000a900473ffffffffffffffffffffffffffffffffffffffff1673ffffffffffffffffffffffffffffffffffffffff1663a9059cbb84866040518363ffffffff1660e01b8152600401612e42929190614b47565b6020604051808303816000875af1158015612e61573d6000803e3d6000fd5b505050506040513d601f19601f82011682018060405250810190612e8591906148d9565b507f217de69216c60b6e5c5108753aeccf4f10269eeff9b93f206552d2d3d1d04bc5878633604051612eb9939291906154de565b60405180910390a150505050505050565b612ed2612f4d565b600073ffffffffffffffffffffffffffffffffffffffff168173ffffffffffffffffffffffffffffffffffffffff1603612f41576040517f08c379a0000000000000000000000000000000000000000000000000000000008152600401612f3890615587565b60405180910390fd5b612f4a81613248565b50565b612f55613497565b73ffffffffffffffffffffffffffffffffffffffff16612f7361219d565b73ffffffffffffffffffffffffffffffffffffffff1614612fc9576040517f08c379a0000000000000000000000000000000000000000000000000000000008152600401612fc0906155f3565b60405180910390fd5b565b612fd3611506565b15613013576040517f08c379a000000000000000000000000000000000000000000000000000000000815260040161300a9061565f565b60405180910390fd5b565b60006130437f360894a13ba1a3210667c828492db98dca3e2076cc3735a920a3ca505d382bbc60001b61349f565b60000160009054906101000a900473ffffffffffffffffffffffffffffffffffffffff16905090565b613074612f4d565b50565b6130a37f4910fdfa16fed3260ed0e7147f7cc6da11a60208b5b9406d12a635614ffd914360001b6134a9565b60000160009054906101000a900460ff16156130c7576130c2836134b3565b6131e0565b8273ffffffffffffffffffffffffffffffffffffffff166352d1902d6040518163ffffffff1660e01b8152600401602060405180830381865afa92505050801561312f57506040513d601f19601f8201168201806040525081019061312c91906156ab565b60015b61316e576040517f08c379a00000000000000000000000000000000000000000000000000000000081526004016131659061574a565b60405180910390fd5b7f360894a13ba1a3210667c828492db98dca3e2076cc3735a920a3ca505d382bbc60001b81146131d3576040517f08c379a00000000000000000000000000000000000000000000000000000000081526004016131ca906157dc565b60405180910390fd5b506131df83838361356c565b5b505050565b6131ed613598565b600060c960006101000a81548160ff0219169083151502179055507f5db9ee0a495bf2e6ff9c91a7834c1ba4fdd244a5e8aa4e537bd38aeae4b073aa613231613497565b60405161323e9190613903565b60405180910390a1565b6000609760009054906101000a900473ffffffffffffffffffffffffffffffffffffffff16905081609760006101000a81548173ffffffffffffffffffffffffffffffffffffffff021916908373ffffffffffffffffffffffffffffffffffffffff1602179055508173ffffffffffffffffffffffffffffffffffffffff168173ffffffffffffffffffffffffffffffffffffffff167f8be0079c531659141344cd1fd0a4f28419497f9722a3daafe3b4186f6b6457e060405160405180910390a35050565b6000808273ffffffffffffffffffffffffffffffffffffffff163b119050919050565b600060019054906101000a900460ff16613380576040517f08c379a00000000000000000000000000000000000000000000000000000000081526004016133779061586e565b60405180910390fd5b565b600060019054906101000a900460ff166133d1576040517f08c379a00000000000000000000000000000000000000000000000000000000081526004016133c89061586e565b60405180910390fd5b6133d96135e1565b565b600060019054906101000a900460ff1661342a576040517f08c379a00000000000000000000000000000000000000000000000000000000081526004016134219061586e565b60405180910390fd5b613432613642565b565b61343c612fcb565b600160c960006101000a81548160ff0219169083151502179055507f62e78cea01bee320cd4e420270b5ea74000d11b0c9f74754ebdbfc544b05a258613480613497565b60405161348d9190613903565b60405180910390a1565b600033905090565b6000819050919050565b6000819050919050565b6134bc8161330e565b6134fb576040517f08c379a00000000000000000000000000000000000000000000000000000000081526004016134f290615900565b60405180910390fd5b806135287f360894a13ba1a3210667c828492db98dca3e2076cc3735a920a3ca505d382bbc60001b61349f565b60000160006101000a81548173ffffffffffffffffffffffffffffffffffffffff021916908373ffffffffffffffffffffffffffffffffffffffff16021790555050565b613575836136ae565b6000825111806135825750805b156135935761359183836136fd565b505b505050565b6135a0611506565b6135df576040517f08c379a00000000000000000000000000000000000000000000000000000000081526004016135d69061596c565b60405180910390fd5b565b600060019054906101000a900460ff16613630576040517f08c379a00000000000000000000000000000000000000000000000000000000081526004016136279061586e565b60405180910390fd5b61364061363b613497565b613248565b565b600060019054906101000a900460ff16613691576040517f08c379a00000000000000000000000000000000000000000000000000000000081526004016136889061586e565b60405180910390fd5b600060c960006101000a81548160ff021916908315150217905550565b6136b7816134b3565b8073ffffffffffffffffffffffffffffffffffffffff167fbc7cd75a20ee27fd9adebab32041f755214dbc6bffa90cc0225b39da2e5c2d3b60405160405180910390a250565b60606137088361330e565b613747576040517f08c379a000000000000000000000000000000000000000000000000000000000815260040161373e906159fe565b60405180910390fd5b6000808473ffffffffffffffffffffffffffffffffffffffff168460405161376f9190615a65565b600060405180830381855af49150503d80600081146137aa576040519150601f19603f3d011682016040523d82523d6000602084013e6137af565b606091505b50915091506137d78282604051806060016040528060278152602001615a7d602791396137e1565b9250505092915050565b606083156137f157829050613841565b6000835111156138045782518084602001fd5b816040517f08c379a00000000000000000000000000000000000000000000000000000000081526004016138389190613e17565b60405180910390fd5b9392505050565b6000604051905090565b600080fd5b600080fd5b600060ff82169050919050565b6138728161385c565b811461387d57600080fd5b50565b60008135905061388f81613869565b92915050565b6000602082840312156138ab576138aa613852565b5b60006138b984828501613880565b91505092915050565b600073ffffffffffffffffffffffffffffffffffffffff82169050919050565b60006138ed826138c2565b9050919050565b6138fd816138e2565b82525050565b600060208201905061391860008301846138f4565b92915050565b6000819050919050565b6139318161391e565b811461393c57600080fd5b50565b60008135905061394e81613928565b92915050565b60006020828403121561396a57613969613852565b5b60006139788482850161393f565b91505092915050565b61398a8161391e565b82525050565b6139998161385c565b82525050565b600063ffffffff82169050919050565b6139b88161399f565b82525050565b6000610120820190506139d4600083018c613981565b6139e1602083018b6138f4565b6139ee604083018a613990565b6139fb6060830189613981565b613a086080830188613981565b613a1560a0830187613981565b613a2260c08301866139af565b613a2f60e08301856139af565b613a3d610100830184613981565b9a9950505050505050505050565b613a54816138e2565b8114613a5f57600080fd5b50565b600081359050613a7181613a4b565b92915050565b60008060008060008060c08789031215613a9457613a93613852565b5b6000613aa289828a0161393f565b9650506020613ab389828a01613a62565b9550506040613ac489828a0161393f565b9450506060613ad589828a0161393f565b9350506080613ae689828a01613880565b92505060a0613af789828a0161393f565b9150509295509295509295565b600060208284031215613b1a57613b19613852565b5b6000613b2884828501613a62565b91505092915050565b6000602082019050613b466000830184613981565b92915050565b600080fd5b600080fd5b6000601f19601f8301169050919050565b7f4e487b7100000000000000000000000000000000000000000000000000000000600052604160045260246000fd5b613b9f82613b56565b810181811067ffffffffffffffff82111715613bbe57613bbd613b67565b5b80604052505050565b6000613bd1613848565b9050613bdd8282613b96565b919050565b600067ffffffffffffffff821115613bfd57613bfc613b67565b5b613c0682613b56565b9050602081019050919050565b82818337600083830152505050565b6000613c35613c3084613be2565b613bc7565b905082815260208101848484011115613c5157613c50613b51565b5b613c5c848285613c13565b509392505050565b600082601f830112613c7957613c78613b4c565b5b8135613c89848260208601613c22565b91505092915050565b60008060408385031215613ca957613ca8613852565b5b6000613cb785828601613a62565b925050602083013567ffffffffffffffff811115613cd857613cd7613857565b5b613ce485828601613c64565b9150509250929050565b6000819050919050565b613d0181613cee565b82525050565b6000602082019050613d1c6000830184613cf8565b92915050565b60008060408385031215613d3957613d38613852565b5b6000613d478582860161393f565b9250506020613d588582860161393f565b9150509250929050565b60008115159050919050565b613d7781613d62565b82525050565b6000602082019050613d926000830184613d6e565b92915050565b600081519050919050565b600082825260208201905092915050565b60005b83811015613dd2578082015181840152602081019050613db7565b60008484015250505050565b6000613de982613d98565b613df38185613da3565b9350613e03818560208601613db4565b613e0c81613b56565b840191505092915050565b60006020820190508181036000830152613e318184613dde565b905092915050565b600060c082019050613e4e6000830189613981565b613e5b6020830188613981565b613e6860408301876138f4565b613e756060830186613981565b613e826080830185613981565b613e8f60a0830184613d6e565b979650505050505050565b600061010082019050613eb0600083018b613981565b613ebd602083018a6138f4565b613eca6040830189613990565b613ed76060830188613981565b613ee46080830187613981565b613ef160a0830186613981565b613efe60c08301856139af565b613f0b60e08301846139af565b9998505050505050505050565b600080600080600060a08688031215613f3457613f33613852565b5b6000613f4288828901613a62565b9550506020613f538882890161393f565b9450506040613f648882890161393f565b9350506060613f7588828901613880565b9250506080613f868882890161393f565b9150509295509295909350565b600067ffffffffffffffff821115613fae57613fad613b67565b5b613fb782613b56565b9050602081019050919050565b6000613fd7613fd284613f93565b613bc7565b905082815260208101848484011115613ff357613ff2613b51565b5b613ffe848285613c13565b509392505050565b600082601f83011261401b5761401a613b4c565b5b813561402b848260208601613fc4565b91505092915050565b60008060006060848603121561404d5761404c613852565b5b600061405b86828701613880565b935050602084013567ffffffffffffffff81111561407c5761407b613857565b5b61408886828701614006565b925050604061409986828701613a62565b9150509250925092565b600080600080600060a086880312156140bf576140be613852565b5b60006140cd8882890161393f565b95505060206140de8882890161393f565b94505060406140ef88828901613a62565b93505060606141008882890161393f565b92505060806141118882890161393f565b9150509295509295909350565b7f547261646520636c6f6e6520616c72656164792065786973747320616e64206960008201527f6e2070726f677265737300000000000000000000000000000000000000000000602082015250565b600061417a602a83613da3565b91506141858261411e565b604082019050919050565b600060208201905081810360008301526141a98161416d565b9050919050565b7f6e6f6e207a65726f2076616c756573206f6e6c79000000000000000000000000600082015250565b60006141e6601483613da3565b91506141f1826141b0565b602082019050919050565b60006020820190508181036000830152614215816141d9565b9050919050565b7f4e487b7100000000000000000000000000000000000000000000000000000000600052601160045260246000fd5b60006142568261391e565b91506142618361391e565b92508282019050808211156142795761427861421c565b5b92915050565b60006040820190506142946000830185613981565b6142a160208301846138f4565b9392505050565b7f46756e6374696f6e206d7573742062652063616c6c6564207468726f7567682060008201527f64656c656761746563616c6c0000000000000000000000000000000000000000602082015250565b6000614304602c83613da3565b915061430f826142a8565b604082019050919050565b60006020820190508181036000830152614333816142f7565b9050919050565b7f46756e6374696f6e206d7573742062652063616c6c6564207468726f7567682060008201527f6163746976652070726f78790000000000000000000000000000000000000000602082015250565b6000614396602c83613da3565b91506143a18261433a565b604082019050919050565b600060208201905081810360008301526143c581614389565b9050919050565b7f555550535570677261646561626c653a206d757374206e6f742062652063616c60008201527f6c6564207468726f7567682064656c656761746563616c6c0000000000000000602082015250565b6000614428603883613da3565b9150614433826143cc565b604082019050919050565b600060208201905081810360008301526144578161441b565b9050919050565b7f616d6f756e742063616e6e6f74206265207a65726f0000000000000000000000600082015250565b6000614494601583613da3565b915061449f8261445e565b602082019050919050565b600060208201905081810360008301526144c381614487565b9050919050565b7f747261646520446f6573206e6f74206578697374000000000000000000000000600082015250565b6000614500601483613da3565b915061450b826144ca565b602082019050919050565b6000602082019050818103600083015261452f816144f3565b9050919050565b7f506c656173652073656e64207472616e73616374696f6e20696e20736f6d652060008201527f74696d6500000000000000000000000000000000000000000000000000000000602082015250565b6000614592602483613da3565b915061459d82614536565b604082019050919050565b600060208201905081810360008301526145c181614585565b9050919050565b7f796f752063616e206f6e6c79206f707420666f722061207472616465206f6e6360008201527f6500000000000000000000000000000000000000000000000000000000000000602082015250565b6000614624602183613da3565b915061462f826145c8565b604082019050919050565b6000602082019050818103600083015261465381614617565b9050919050565b7f7468697320747261646520646f6573206e6f7420657869737400000000000000600082015250565b6000614690601983613da3565b915061469b8261465a565b602082019050919050565b600060208201905081810360008301526146bf81614683565b9050919050565b7f73656c6c65722063616e74206275790000000000000000000000000000000000600082015250565b60006146fc600f83613da3565b9150614707826146c6565b602082019050919050565b6000602082019050818103600083015261472b816146ef565b9050919050565b7f546865207472616465206e6f206c6f6e676572206861732066756e6473000000600082015250565b6000614768601d83613da3565b915061477382614732565b602082019050919050565b600060208201905081810360008301526147978161475b565b9050919050565b7f546869732074726164652068617320656e646564000000000000000000000000600082015250565b60006147d4601483613da3565b91506147df8261479e565b602082019050919050565b60006020820190508181036000830152614803816147c7565b9050919050565b7f616d6f756e7420746f6f206c6f77000000000000000000000000000000000000600082015250565b6000614840600e83613da3565b915061484b8261480a565b602082019050919050565b6000602082019050818103600083015261486f81614833565b9050919050565b600060608201905061488b60008301866138f4565b61489860208301856138f4565b6148a56040830184613981565b949350505050565b6148b681613d62565b81146148c157600080fd5b50565b6000815190506148d3816148ad565b92915050565b6000602082840312156148ef576148ee613852565b5b60006148fd848285016148c4565b91505092915050565b60006149118261391e565b915061491c8361391e565b92508282039050818111156149345761493361421c565b5b92915050565b600060608201905061494f6000830186613981565b61495c60208301856138f4565b6149696040830184613981565b949350505050565b7f756e617574686f72697a65640000000000000000000000000000000000000000600082015250565b60006149a7600c83613da3565b91506149b282614971565b602082019050919050565b600060208201905081810360008301526149d68161499a565b9050919050565b7f73746f702067657420736f6d652068656c700000000000000000000000000000600082015250565b6000614a13601283613da3565b9150614a1e826149dd565b602082019050919050565b60006020820190508181036000830152614a4281614a06565b9050919050565b7f746865726520617265206e6f2066756e647320617661696c61626c6520666f7260008201527f20726566756e6400000000000000000000000000000000000000000000000000602082015250565b6000614aa5602783613da3565b9150614ab082614a49565b604082019050919050565b60006020820190508181036000830152614ad481614a98565b9050919050565b7f746865207472616465206973206f6e676f696e67000000000000000000000000600082015250565b6000614b11601483613da3565b9150614b1c82614adb565b602082019050919050565b60006020820190508181036000830152614b4081614b04565b9050919050565b6000604082019050614b5c60008301856138f4565b614b696020830184613981565b9392505050565b7f4e487b7100000000000000000000000000000000000000000000000000000000600052602260045260246000fd5b60006002820490506001821680614bb757607f821691505b602082108103614bca57614bc9614b70565b5b50919050565b7f496e697469616c697a61626c653a20636f6e747261637420697320616c72656160008201527f647920696e697469616c697a6564000000000000000000000000000000000000602082015250565b6000614c2c602e83613da3565b9150614c3782614bd0565b604082019050919050565b60006020820190508181036000830152614c5b81614c1f565b9050919050565b6000819050919050565b6000819050919050565b6000614c91614c8c614c8784614c62565b614c6c565b61385c565b9050919050565b614ca181614c76565b82525050565b6000602082019050614cbc6000830184614c98565b92915050565b7f747261646520616c726561647920657869737473000000000000000000000000600082015250565b6000614cf8601483613da3565b9150614d0382614cc2565b602082019050919050565b60006020820190508181036000830152614d2781614ceb565b9050919050565b7f4e6f6e207a65726f2076616c756573206f6e6c79000000000000000000000000600082015250565b6000614d64601483613da3565b9150614d6f82614d2e565b602082019050919050565b60006020820190508181036000830152614d9381614d57565b9050919050565b7f456e6474696d65206d7573742062652067726561746572000000000000000000600082015250565b6000614dd0601783613da3565b9150614ddb82614d9a565b602082019050919050565b60006020820190508181036000830152614dff81614dc3565b9050919050565b7f6e6f206665657320617661696c61626c65000000000000000000000000000000600082015250565b6000614e3c601183613da3565b9150614e4782614e06565b602082019050919050565b60006020820190508181036000830152614e6b81614e2f565b9050919050565b60008190508160005260206000209050919050565b60006020601f8301049050919050565b600082821b905092915050565b600060088302614ed47fffffffffffffffffffffffffffffffffffffffffffffffffffffffffffffffff82614e97565b614ede8683614e97565b95508019841693508086168417925050509392505050565b6000614f11614f0c614f078461391e565b614c6c565b61391e565b9050919050565b6000819050919050565b614f2b83614ef6565b614f3f614f3782614f18565b848454614ea4565b825550505050565b600090565b614f54614f47565b614f5f818484614f22565b505050565b5b81811015614f8357614f78600082614f4c565b600181019050614f65565b5050565b601f821115614fc857614f9981614e72565b614fa284614e87565b81016020851015614fb1578190505b614fc5614fbd85614e87565b830182614f64565b50505b505050565b600082821c905092915050565b6000614feb60001984600802614fcd565b1980831691505092915050565b60006150048383614fda565b9150826002028217905092915050565b61501d82613d98565b67ffffffffffffffff81111561503657615035613b67565b5b6150408254614b9f565b61504b828285614f87565b600060209050601f83116001811461507e576000841561506c578287015190505b6150768582614ff8565b8655506150de565b601f19841661508c86614e72565b60005b828110156150b45784890151825560018201915060208501945060208101905061508f565b868310156150d157848901516150cd601f891682614fda565b8355505b6001600288020188555050505b505050505050565b7f73776170207374696c6c20696e2070726f677265737300000000000000000000600082015250565b600061511c601683613da3565b9150615127826150e6565b602082019050919050565b6000602082019050818103600083015261514b8161510f565b9050919050565b7f54726164652068617320656e646564206f7220646f6573206e6f74206578697360008201527f7400000000000000000000000000000000000000000000000000000000000000602082015250565b60006151ae602183613da3565b91506151b982615152565b604082019050919050565b600060208201905081810360008301526151dd816151a1565b9050919050565b7f616d6f756e742073686f756c642062652067726561746572207468616e20666560008201527f6500000000000000000000000000000000000000000000000000000000000000602082015250565b6000615240602183613da3565b915061524b826151e4565b604082019050919050565b6000602082019050818103600083015261526f81615233565b9050919050565b7f7377617020646f6573206e6f7420657869737400000000000000000000000000600082015250565b60006152ac601383613da3565b91506152b782615276565b602082019050919050565b600060208201905081810360008301526152db8161529f565b9050919050565b7f7377617020697320696e76616c69640000000000000000000000000000000000600082015250565b6000615318600f83613da3565b9150615323826152e2565b602082019050919050565b600060208201905081810360008301526153478161530b565b9050919050565b7f616d6f756e74206973207a65726f000000000000000000000000000000000000600082015250565b6000615384600e83613da3565b915061538f8261534e565b602082019050919050565b600060208201905081810360008301526153b381615377565b9050919050565b7f74696d6520686173206578636565646564207472616465206e6f206c6f6e676560008201527f7220657869737473000000000000000000000000000000000000000000000000602082015250565b6000615416602883613da3565b9150615421826153ba565b604082019050919050565b6000602082019050818103600083015261544581615409565b9050919050565b7f616d6f756e74206578636565647320747261646520616d6f756e7420706c656160008201527f7365207265636865636b00000000000000000000000000000000000000000000602082015250565b60006154a8602a83613da3565b91506154b38261544c565b604082019050919050565b600060208201905081810360008301526154d78161549b565b9050919050565b60006060820190506154f36000830186613981565b6155006020830185613981565b61550d60408301846138f4565b949350505050565b7f4f776e61626c653a206e6577206f776e657220697320746865207a65726f206160008201527f6464726573730000000000000000000000000000000000000000000000000000602082015250565b6000615571602683613da3565b915061557c82615515565b604082019050919050565b600060208201905081810360008301526155a081615564565b9050919050565b7f4f776e61626c653a2063616c6c6572206973206e6f7420746865206f776e6572600082015250565b60006155dd602083613da3565b91506155e8826155a7565b602082019050919050565b6000602082019050818103600083015261560c816155d0565b9050919050565b7f5061757361626c653a2070617573656400000000000000000000000000000000600082015250565b6000615649601083613da3565b915061565482615613565b602082019050919050565b600060208201905081810360008301526156788161563c565b9050919050565b61568881613cee565b811461569357600080fd5b50565b6000815190506156a58161567f565b92915050565b6000602082840312156156c1576156c0613852565b5b60006156cf84828501615696565b91505092915050565b7f45524331393637557067726164653a206e657720696d706c656d656e7461746960008201527f6f6e206973206e6f742055555053000000000000000000000000000000000000602082015250565b6000615734602e83613da3565b915061573f826156d8565b604082019050919050565b6000602082019050818103600083015261576381615727565b9050919050565b7f45524331393637557067726164653a20756e737570706f727465642070726f7860008201527f6961626c65555549440000000000000000000000000000000000000000000000602082015250565b60006157c6602983613da3565b91506157d18261576a565b604082019050919050565b600060208201905081810360008301526157f5816157b9565b9050919050565b7f496e697469616c697a61626c653a20636f6e7472616374206973206e6f74206960008201527f6e697469616c697a696e67000000000000000000000000000000000000000000602082015250565b6000615858602b83613da3565b9150615863826157fc565b604082019050919050565b600060208201905081810360008301526158878161584b565b9050919050565b7f455243313936373a206e657720696d706c656d656e746174696f6e206973206e60008201527f6f74206120636f6e747261637400000000000000000000000000000000000000602082015250565b60006158ea602d83613da3565b91506158f58261588e565b604082019050919050565b60006020820190508181036000830152615919816158dd565b9050919050565b7f5061757361626c653a206e6f7420706175736564000000000000000000000000600082015250565b6000615956601483613da3565b915061596182615920565b602082019050919050565b6000602082019050818103600083015261598581615949565b9050919050565b7f416464726573733a2064656c65676174652063616c6c20746f206e6f6e2d636f60008201527f6e74726163740000000000000000000000000000000000000000000000000000602082015250565b60006159e8602683613da3565b91506159f38261598c565b604082019050919050565b60006020820190508181036000830152615a17816159db565b9050919050565b600081519050919050565b600081905092915050565b6000615a3f82615a1e565b615a498185615a29565b9350615a59818560208601613db4565b80840191505092915050565b6000615a718284615a34565b91508190509291505056fe416464726573733a206c6f772d6c6576656c2064656c65676174652063616c6c206661696c6564a26469706673582212208770da1c53e9e7b8be398e6abeade1614cc962ae7731f1fdd1cd7f336f36d64d64736f6c63430008110033",
  "linkReferences": {},
  "deployedLinkReferences": {}
}