{
  "_format": "hh-sol-artifact-1",
  "contractName": "LiquidityPoolTron",
  "sourceName": "contracts/LPfortron.sol",
  "abi": [
    {
      "inputs": [],
      "stateMutability": "nonpayable",
      "type": "constructor"
    },
    {
      "anonymous": false,
      "inputs": [
        {
          "indexed": true,
          "internalType": "address",
          "name": "previousOwner",
          "type": "address"
        },
        {
          "indexed": true,
          "internalType": "address",
          "name": "newOwner",
          "type": "address"
        }
      ],
      "name": "OwnershipTransferred",
      "type": "event"
    },
    {
      "anonymous": false,
      "inputs": [
        {
          "indexed": false,
          "internalType": "address",
          "name": "account",
          "type": "address"
        }
      ],
      "name": "Paused",
      "type": "event"
    },
    {
      "anonymous": false,
      "inputs": [
        {
          "indexed": false,
          "internalType": "string",
          "name": "USD",
          "type": "string"
        },
        {
          "indexed": false,
          "internalType": "address",
          "name": "liquidityProvider",
          "type": "address"
        },
        {
          "indexed": false,
          "internalType": "uint256",
          "name": "amount",
          "type": "uint256"
        },
        {
          "indexed": false,
          "internalType": "uint256",
          "name": "USDtotal",
          "type": "uint256"
        },
        {
          "indexed": false,
          "internalType": "uint256",
          "name": "TotalStake",
          "type": "uint256"
        }
      ],
      "name": "Stake",
      "type": "event"
    },
    {
      "anonymous": false,
      "inputs": [
        {
          "indexed": false,
          "internalType": "address",
          "name": "account",
          "type": "address"
        }
      ],
      "name": "Unpaused",
      "type": "event"
    },
    {
      "anonymous": false,
      "inputs": [
        {
          "indexed": false,
          "internalType": "string",
          "name": "USD",
          "type": "string"
        },
        {
          "indexed": false,
          "internalType": "address",
          "name": "liquidityProvider",
          "type": "address"
        },
        {
          "indexed": false,
          "internalType": "uint256",
          "name": "amount",
          "type": "uint256"
        },
        {
          "indexed": false,
          "internalType": "uint256",
          "name": "USDtotal",
          "type": "uint256"
        },
        {
          "indexed": false,
          "internalType": "uint256",
          "name": "TotalStake",
          "type": "uint256"
        }
      ],
      "name": "Unstake",
      "type": "event"
    },
    {
      "inputs": [
        {
          "internalType": "uint64",
          "name": "_num1",
          "type": "uint64"
        },
        {
          "internalType": "uint64",
          "name": "_num2",
          "type": "uint64"
        }
      ],
      "name": "GetStakers",
      "outputs": [
        {
          "internalType": "address[]",
          "name": "",
          "type": "address[]"
        }
      ],
      "stateMutability": "view",
      "type": "function"
    },
    {
      "inputs": [
        {
          "internalType": "uint8",
          "name": "",
          "type": "uint8"
        }
      ],
      "name": "LPbalanceUSD",
      "outputs": [
        {
          "internalType": "uint256",
          "name": "",
          "type": "uint256"
        }
      ],
      "stateMutability": "view",
      "type": "function"
    },
    {
      "inputs": [
        {
          "internalType": "address",
          "name": "",
          "type": "address"
        }
      ],
      "name": "OldStaker",
      "outputs": [
        {
          "internalType": "bool",
          "name": "",
          "type": "bool"
        }
      ],
      "stateMutability": "view",
      "type": "function"
    },
    {
      "inputs": [
        {
          "internalType": "address",
          "name": "",
          "type": "address"
        }
      ],
      "name": "StakerLiquidity",
      "outputs": [
        {
          "internalType": "uint256",
          "name": "",
          "type": "uint256"
        }
      ],
      "stateMutability": "view",
      "type": "function"
    },
    {
      "inputs": [
        {
          "internalType": "uint8",
          "name": "",
          "type": "uint8"
        }
      ],
      "name": "USDStable",
      "outputs": [
        {
          "internalType": "address",
          "name": "",
          "type": "address"
        }
      ],
      "stateMutability": "view",
      "type": "function"
    },
    {
      "inputs": [],
      "name": "epochover",
      "outputs": [
        {
          "internalType": "bool",
          "name": "",
          "type": "bool"
        }
      ],
      "stateMutability": "view",
      "type": "function"
    },
    {
      "inputs": [
        {
          "internalType": "uint8",
          "name": "_length",
          "type": "uint8"
        }
      ],
      "name": "getLPbalance",
      "outputs": [
        {
          "internalType": "uint256[]",
          "name": "",
          "type": "uint256[]"
        }
      ],
      "stateMutability": "view",
      "type": "function"
    },
    {
      "inputs": [
        {
          "internalType": "address",
          "name": "",
          "type": "address"
        },
        {
          "internalType": "uint8",
          "name": "",
          "type": "uint8"
        }
      ],
      "name": "liquidityPool",
      "outputs": [
        {
          "internalType": "uint256",
          "name": "",
          "type": "uint256"
        }
      ],
      "stateMutability": "view",
      "type": "function"
    },
    {
      "inputs": [
        {
          "internalType": "address",
          "name": "",
          "type": "address"
        },
        {
          "internalType": "uint8",
          "name": "",
          "type": "uint8"
        }
      ],
      "name": "liquidityPoolStakes",
      "outputs": [
        {
          "internalType": "uint256",
          "name": "",
          "type": "uint256"
        }
      ],
      "stateMutability": "view",
      "type": "function"
    },
    {
      "inputs": [
        {
          "internalType": "uint8",
          "name": "",
          "type": "uint8"
        }
      ],
      "name": "names",
      "outputs": [
        {
          "internalType": "string",
          "name": "",
          "type": "string"
        }
      ],
      "stateMutability": "view",
      "type": "function"
    },
    {
      "inputs": [],
      "name": "owner",
      "outputs": [
        {
          "internalType": "address",
          "name": "",
          "type": "address"
        }
      ],
      "stateMutability": "view",
      "type": "function"
    },
    {
      "inputs": [],
      "name": "pause",
      "outputs": [],
      "stateMutability": "nonpayable",
      "type": "function"
    },
    {
      "inputs": [],
      "name": "paused",
      "outputs": [
        {
          "internalType": "bool",
          "name": "",
          "type": "bool"
        }
      ],
      "stateMutability": "view",
      "type": "function"
    },
    {
      "inputs": [],
      "name": "renounceOwnership",
      "outputs": [],
      "stateMutability": "nonpayable",
      "type": "function"
    },
    {
      "inputs": [
        {
          "internalType": "bool",
          "name": "_over",
          "type": "bool"
        }
      ],
      "name": "setEpoch",
      "outputs": [],
      "stateMutability": "nonpayable",
      "type": "function"
    },
    {
      "inputs": [
        {
          "internalType": "uint8",
          "name": "_index",
          "type": "uint8"
        },
        {
          "internalType": "string",
          "name": "_name",
          "type": "string"
        },
        {
          "internalType": "address",
          "name": "_USD",
          "type": "address"
        }
      ],
      "name": "setUSDAddress",
      "outputs": [],
      "stateMutability": "nonpayable",
      "type": "function"
    },
    {
      "inputs": [
        {
          "internalType": "bool",
          "name": "_over",
          "type": "bool"
        }
      ],
      "name": "setUnstake",
      "outputs": [],
      "stateMutability": "nonpayable",
      "type": "function"
    },
    {
      "inputs": [
        {
          "internalType": "uint8",
          "name": "_usd",
          "type": "uint8"
        },
        {
          "internalType": "uint256",
          "name": "_amount",
          "type": "uint256"
        }
      ],
      "name": "stake",
      "outputs": [],
      "stateMutability": "nonpayable",
      "type": "function"
    },
    {
      "inputs": [
        {
          "internalType": "uint256",
          "name": "",
          "type": "uint256"
        }
      ],
      "name": "stakers",
      "outputs": [
        {
          "internalType": "address",
          "name": "",
          "type": "address"
        }
      ],
      "stateMutability": "view",
      "type": "function"
    },
    {
      "inputs": [],
      "name": "totalLiquidity",
      "outputs": [
        {
          "internalType": "uint256",
          "name": "",
          "type": "uint256"
        }
      ],
      "stateMutability": "view",
      "type": "function"
    },
    {
      "inputs": [
        {
          "internalType": "address",
          "name": "newOwner",
          "type": "address"
        }
      ],
      "name": "transferOwnership",
      "outputs": [],
      "stateMutability": "nonpayable",
      "type": "function"
    },
    {
      "inputs": [],
      "name": "unpause",
      "outputs": [],
      "stateMutability": "nonpayable",
      "type": "function"
    },
    {
      "inputs": [],
      "name": "unstakable",
      "outputs": [
        {
          "internalType": "bool",
          "name": "",
          "type": "bool"
        }
      ],
      "stateMutability": "view",
      "type": "function"
    },
    {
      "inputs": [
        {
          "internalType": "uint8",
          "name": "_usd",
          "type": "uint8"
        },
        {
          "internalType": "uint256",
          "name": "_amount",
          "type": "uint256"
        }
      ],
      "name": "unstake",
      "outputs": [],
      "stateMutability": "nonpayable",
      "type": "function"
    },
    {
      "inputs": [
        {
          "internalType": "uint8",
          "name": "_usd",
          "type": "uint8"
        }
      ],
      "name": "unstakeAll",
      "outputs": [],
      "stateMutability": "nonpayable",
      "type": "function"
    },
    {
      "inputs": [
        {
          "internalType": "address",
          "name": "",
          "type": "address"
        },
        {
          "internalType": "uint8",
          "name": "",
          "type": "uint8"
        }
      ],
      "name": "unstakedMax",
      "outputs": [
        {
          "internalType": "bool",
          "name": "",
          "type": "bool"
        }
      ],
      "stateMutability": "view",
      "type": "function"
    }
  ],
  "bytecode": "0x60806040523480156200001157600080fd5b5062000032620000266200006e60201b60201c565b6200007660201b60201c565b60008060146101000a81548160ff02191690831515021790555062000068674d95adc2a47e1fe360c01b6200013a60201b60201c565b6200013d565b600033905090565b60008060009054906101000a900473ffffffffffffffffffffffffffffffffffffffff169050816000806101000a81548173ffffffffffffffffffffffffffffffffffffffff021916908373ffffffffffffffffffffffffffffffffffffffff1602179055508173ffffffffffffffffffffffffffffffffffffffff168173ffffffffffffffffffffffffffffffffffffffff167f8be0079c531659141344cd1fd0a4f28419497f9722a3daafe3b4186f6b6457e060405160405180910390a35050565b50565b613b6c806200014d6000396000f3fe608060405234801561001057600080fd5b506004361061018e5760003560e01c8063846ac6b3116100de578063cb14146d11610097578063dd752e5511610071578063dd752e5514610483578063e76438e11461049f578063f2fde38b146104cf578063fd5e6dd1146104eb5761018e565b8063cb14146d146103f3578063d284308914610423578063d9575d47146104535761018e565b8063846ac6b31461030b5780638da5cb5b1461033b578063911db77b14610359578063b2ffd65314610389578063b4545b9e146103a7578063bf7b589e146103c35761018e565b80634abb83141161014b578063715018a611610125578063715018a6146102ab5780637257a493146102b55780637d7e649a146102e55780638456cb59146103015761018e565b80634abb8314146102555780635c975abb146102715780636a3cbc4a1461028f5761018e565b8063058aa5cb146101935780631337b7d1146101b157806315770f92146101e15780632c70411b146101ff5780633a15c9cc1461022f5780633f4ba83a1461024b575b600080fd5b61019b61051b565b6040516101a8919061286f565b60405180910390f35b6101cb60048036038101906101c691906128d7565b61052e565b6040516101d891906129cc565b60405180910390f35b6101e961068a565b6040516101f691906129fd565b60405180910390f35b610219600480360381019061021491906128d7565b610690565b6040516102269190612a59565b60405180910390f35b61024960048036038101906102449190612aa0565b6106c3565b005b610253610768565b005b61026f600480360381019061026a91906128d7565b6107de565b005b610279610826565b604051610286919061286f565b60405180910390f35b6102a960048036038101906102a49190612c3f565b61083c565b005b6102b361095c565b005b6102cf60048036038101906102ca91906128d7565b610970565b6040516102dc9190612d2d565b60405180910390f35b6102ff60048036038101906102fa9190612aa0565b610a10565b005b610309610ab5565b005b61032560048036038101906103209190612d4f565b610b2b565b604051610332919061286f565b60405180910390f35b610343610b5a565b6040516103509190612a59565b60405180910390f35b610373600480360381019061036e9190612d4f565b610b83565b60405161038091906129fd565b60405180910390f35b610391610ba8565b60405161039e919061286f565b60405180910390f35b6103c160048036038101906103bc9190612dbb565b610bbb565b005b6103dd60048036038101906103d89190612dfb565b610c05565b6040516103ea91906129fd565b60405180910390f35b61040d600480360381019061040891906128d7565b610c1d565b60405161041a91906129fd565b60405180910390f35b61043d60048036038101906104389190612d4f565b610c35565b60405161044a91906129fd565b60405180910390f35b61046d60048036038101906104689190612dfb565b610c5a565b60405161047a919061286f565b60405180910390f35b61049d60048036038101906104989190612dbb565b610c7a565b005b6104b960048036038101906104b49190612e68565b610cc4565b6040516104c69190612f66565b60405180910390f35b6104e960048036038101906104e49190612dfb565b610e98565b005b61050560048036038101906105009190612f88565b610f1b565b6040516105129190612a59565b60405180910390f35b600b60019054906101000a900460ff1681565b6060610544678de285102ed25a0860c01b610f5a565b610558674ede44d9c3812fc960c01b610f5a565b61056c67241659ffeab8545760c01b610f5a565b60008260ff1667ffffffffffffffff81111561058b5761058a612ae8565b5b6040519080825280602002602001820160405280156105b95781602001602082028036833780820191505090505b5090506105d067fd4bbbd632da80f960c01b610f5a565b6105e467dedfa28625a5fd1560c01b610f5a565b60005b8360ff168160ff1610156106585761060967c5462ec7d53be26f60c01b610f5a565b600560008260ff1660ff16815260200190815260200160002054828260ff168151811061063957610638612fb5565b5b602002602001018181525050808061065090613013565b9150506105e7565b5061066d67a68d7fcd306a4d1460c01b610f5a565b61068167baecf28201899ac360c01b610f5a565b80915050919050565b600a5481565b60026020528060005260406000206000915054906101000a900473ffffffffffffffffffffffffffffffffffffffff1681565b6106d767f571a90f36efb14260c01b610f5a565b6106df610f5d565b6106f3670fe8acdae452e60060c01b610f5a565b61070767bc15f6ff988cb89d60c01b610f5a565b61070f610fdb565b61072367bc4661248334370160c01b610f5a565b6107376733600bd9187ba24160c01b610f5a565b61074b6760cbf44ec3aa51d760c01b610f5a565b80600b60006101000a81548160ff02191690831515021790555050565b61077c6714240c9bce6a00db60c01b610f5a565b610784610f5d565b61079867d54201e207ed9d2f60c01b610f5a565b6107ac6776c0fd68c8c9afae60c01b610f5a565b6107c067f2e257d3a9a9cb6060c01b610f5a565b6107d467c2510b6c6837f66c60c01b610f5a565b6107dc611025565b565b6107f267ea6a3f6fb2e0b38a60c01b610f5a565b610806670526050b37e19c4960c01b610f5a565b61081a67bcfdbf21be036a3e60c01b610f5a565b61082381611087565b50565b60008060149054906101000a900460ff16905090565b61085067eb11522c27442ce960c01b610f5a565b610858610fdb565b61086c67ac69f4c0d932e5ea60c01b610f5a565b610880677fe862bb8ce4767060c01b610f5a565b610888610f5d565b61089c674d55f384fcd2f6b160c01b610f5a565b6108b067b23068291f3b693f60c01b610f5a565b6108c4674894e94e664c98b360c01b610f5a565b80600260008560ff1660ff16815260200190815260200160002060006101000a81548173ffffffffffffffffffffffffffffffffffffffff021916908373ffffffffffffffffffffffffffffffffffffffff160217905550610930673a846081dc9d95d260c01b610f5a565b81600360008560ff1660ff16815260200190815260200160002090816109569190613248565b50505050565b610964610f5d565b61096e60006117e8565b565b6003602052806000526040600020600091509050805461098f9061306b565b80601f01602080910402602001604051908101604052809291908181526020018280546109bb9061306b565b8015610a085780601f106109dd57610100808354040283529160200191610a08565b820191906000526020600020905b8154815290600101906020018083116109eb57829003601f168201915b505050505081565b610a2467236d580bed0253e360c01b610f5a565b610a2c610f5d565b610a4067a1518b4f01e3f37d60c01b610f5a565b610a54676577969af6b4119960c01b610f5a565b610a5c610fdb565b610a7067fd320f8a438d2c9660c01b610f5a565b610a846717fea7dc0979556160c01b610f5a565b610a986785ee168ef6ed972c60c01b610f5a565b80600b60016101000a81548160ff02191690831515021790555050565b610ac9676326914bba0cd71d60c01b610f5a565b610ad1610f5d565b610ae567c60d08b64f8cca7460c01b610f5a565b610af96775089abf3b2e5f2360c01b610f5a565b610b0d67387ae776f6e731b760c01b610f5a565b610b216788fa9b5d62a8475760c01b610f5a565b610b296118ac565b565b60076020528160005260406000206020528060005260406000206000915091509054906101000a900460ff1681565b60008060009054906101000a900473ffffffffffffffffffffffffffffffffffffffff16905090565b6004602052816000526040600020602052806000526040600020600091509150505481565b600b60009054906101000a900460ff1681565b610bcf67f4b28c7b7329190460c01b610f5a565b610be367a6e0f7f60ddac05960c01b610f5a565b610bf767fb1f0c6a522a7fca60c01b610f5a565b610c01828261190f565b5050565b60066020528060005260406000206000915090505481565b60056020528060005260406000206000915090505481565b6009602052816000526040600020602052806000526040600020600091509150505481565b60086020528060005260406000206000915054906101000a900460ff1681565b610c8e671013b2e789f2223e60c01b610f5a565b610ca26789dbd3307a81985e60c01b610f5a565b610cb667862f8e65dc03aa0c60c01b610f5a565b610cc0828261207f565b5050565b6060610cda67a4cbae625037b33060c01b610f5a565b610cee674f3cab4bbbf7b26c60c01b610f5a565b610d02677acc2c04865c557660c01b610f5a565b600060018054905067ffffffffffffffff811115610d2357610d22612ae8565b5b604051908082528060200260200182016040528015610d515781602001602082028036833780820191505090505b509050610d6867ad232540bff240ad60c01b610f5a565b610d7c6763bd7aaf48cc107860c01b610f5a565b60008490505b8367ffffffffffffffff168167ffffffffffffffff161015610e6557610db26727fbf4a52d23c7ac60c01b610f5a565b60018167ffffffffffffffff1681548110610dd057610dcf612fb5565b5b9060005260206000200160009054906101000a900473ffffffffffffffffffffffffffffffffffffffff16828267ffffffffffffffff1681518110610e1857610e17612fb5565b5b602002602001019073ffffffffffffffffffffffffffffffffffffffff16908173ffffffffffffffffffffffffffffffffffffffff16815250508080610e5d9061331a565b915050610d82565b50610e7a67d0f03c65cb19e96a60c01b610f5a565b610e8e67c1162d49baeb0cce60c01b610f5a565b8091505092915050565b610ea0610f5d565b600073ffffffffffffffffffffffffffffffffffffffff168173ffffffffffffffffffffffffffffffffffffffff1603610f0f576040517f08c379a0000000000000000000000000000000000000000000000000000000008152600401610f06906133bc565b60405180910390fd5b610f18816117e8565b50565b60018181548110610f2b57600080fd5b906000526020600020016000915054906101000a900473ffffffffffffffffffffffffffffffffffffffff1681565b50565b610f65612803565b73ffffffffffffffffffffffffffffffffffffffff16610f83610b5a565b73ffffffffffffffffffffffffffffffffffffffff1614610fd9576040517f08c379a0000000000000000000000000000000000000000000000000000000008152600401610fd090613428565b60405180910390fd5b565b610fe3610826565b15611023576040517f08c379a000000000000000000000000000000000000000000000000000000000815260040161101a90613494565b60405180910390fd5b565b61102d61280b565b60008060146101000a81548160ff0219169083151502179055507f5db9ee0a495bf2e6ff9c91a7834c1ba4fdd244a5e8aa4e537bd38aeae4b073aa611070612803565b60405161107d9190612a59565b60405180910390a1565b61109b672f031de02ee8e63d60c01b610f5a565b6110a3610fdb565b6110b76787c27b4d84c9ead660c01b610f5a565b6110cb67b2f57e424834292060c01b610f5a565b6110df67fda00f02440f4c6d60c01b610f5a565b6110f36785519901271e105c60c01b610f5a565b6000600460003373ffffffffffffffffffffffffffffffffffffffff1673ffffffffffffffffffffffffffffffffffffffff16815260200190815260200160002060008360ff1660ff1681526020019081526020016000205490506111626725baffd38041e07860c01b610f5a565b61117667a3b77d42a70e96d760c01b610f5a565b61118a67eaf4d3071b1d216960c01b610f5a565b600081116111cd576040517f08c379a00000000000000000000000000000000000000000000000000000000081526004016111c490613500565b60405180910390fd5b6111e1679bdcbb8e6d8a620260c01b610f5a565b6111f567bae893db37028b6460c01b610f5a565b611209674f94cdeff89619b760c01b610f5a565b61121d67774ea4522ef3713d60c01b610f5a565b600b60019054906101000a900460ff1661126c576040517f08c379a0000000000000000000000000000000000000000000000000000000008152600401611263906135b8565b60405180910390fd5b6112806771c48a386d1ac85e60c01b610f5a565b611294676cb1d50ad4d974c060c01b610f5a565b6112a867257fecf63014823c60c01b610f5a565b6112bc6770d1bcd27214c0f060c01b610f5a565b600b60009054906101000a900460ff1661130b576040517f08c379a000000000000000000000000000000000000000000000000000000000815260040161130290613624565b60405180910390fd5b61131f671458207e142d061f60c01b610f5a565b611333674e260d146c5b09e760c01b610f5a565b6113476740613c5689dee8f260c01b610f5a565b61135b6774a0bc9b1735b72260c01b610f5a565b600760003373ffffffffffffffffffffffffffffffffffffffff1673ffffffffffffffffffffffffffffffffffffffff16815260200190815260200160002060008360ff1660ff16815260200190815260200160002060009054906101000a900460ff166113fe576040517f08c379a00000000000000000000000000000000000000000000000000000000081526004016113f590613690565b60405180910390fd5b61141267aab58517cb94a5be60c01b610f5a565b6114266760332880f283f27c60c01b610f5a565b80600460003373ffffffffffffffffffffffffffffffffffffffff1673ffffffffffffffffffffffffffffffffffffffff16815260200190815260200160002060008460ff1660ff168152602001908152602001600020600082825461148c91906136b0565b925050819055506114a767af4244bd8e4b88e460c01b610f5a565b80600660003373ffffffffffffffffffffffffffffffffffffffff1673ffffffffffffffffffffffffffffffffffffffff16815260200190815260200160002060008282546114f691906136b0565b9250508190555061151167a7416217eecc972c60c01b610f5a565b80600560008460ff1660ff168152602001908152602001600020600082825461153a91906136b0565b9250508190555061155567ffe118ee95c96ba360c01b610f5a565b80600a600082825461156791906136b0565b9250508190555061158267bd293b01602b5f0c60c01b610f5a565b6001600960003373ffffffffffffffffffffffffffffffffffffffff1673ffffffffffffffffffffffffffffffffffffffff16815260200190815260200160002060008460ff1660ff16815260200190815260200160002060008282546115e991906136b0565b9250508190555061160467229b22f1d0300ebb60c01b610f5a565b6116186784e5366ce34a5c0c60c01b610f5a565b600260008360ff1660ff16815260200190815260200160002060009054906101000a900473ffffffffffffffffffffffffffffffffffffffff1673ffffffffffffffffffffffffffffffffffffffff1663a9059cbb33836040518363ffffffff1660e01b815260040161168c9291906136e4565b6020604051808303816000875af11580156116ab573d6000803e3d6000fd5b505050506040513d601f19601f820116820180604052508101906116cf9190613722565b506116e46724ba0f092e602afe60c01b610f5a565b6116f8676d05889ef65fe5f960c01b610f5a565b7fc7ea5e3777ad7f007fcea44d9abcefdfbad15485549259aa3d52eca313e5634e600360008460ff1660ff1681526020019081526020016000203383600460003373ffffffffffffffffffffffffffffffffffffffff1673ffffffffffffffffffffffffffffffffffffffff16815260200190815260200160002060008760ff1660ff16815260200190815260200160002054600660003373ffffffffffffffffffffffffffffffffffffffff1673ffffffffffffffffffffffffffffffffffffffff168152602001908152602001600020546040516117dc9594939291906137d3565b60405180910390a15050565b60008060009054906101000a900473ffffffffffffffffffffffffffffffffffffffff169050816000806101000a81548173ffffffffffffffffffffffffffffffffffffffff021916908373ffffffffffffffffffffffffffffffffffffffff1602179055508173ffffffffffffffffffffffffffffffffffffffff168173ffffffffffffffffffffffffffffffffffffffff167f8be0079c531659141344cd1fd0a4f28419497f9722a3daafe3b4186f6b6457e060405160405180910390a35050565b6118b4610fdb565b6001600060146101000a81548160ff0219169083151502179055507f62e78cea01bee320cd4e420270b5ea74000d11b0c9f74754ebdbfc544b05a2586118f8612803565b6040516119059190612a59565b60405180910390a1565b61192367a580b21c71843ce660c01b610f5a565b61192b610fdb565b61193f677bfc4378ac86e71e60c01b610f5a565b61195367c84edeb351ecbcdf60c01b610f5a565b611967678541df30ce16a3ea60c01b610f5a565b61197b67e07113d44e185c1760c01b610f5a565b6000600460003373ffffffffffffffffffffffffffffffffffffffff1673ffffffffffffffffffffffffffffffffffffffff16815260200190815260200160002060008460ff1660ff1681526020019081526020016000205490506119ea67d7d3f77645e5d2ed60c01b610f5a565b6119fe679d1b5ac78e65302860c01b610f5a565b611a126774943757a4ac147160c01b610f5a565b6064605082611a21919061382d565b611a2b919061389e565b821115611a6d576040517f08c379a0000000000000000000000000000000000000000000000000000000008152600401611a6490613941565b60405180910390fd5b611a816733d9569a74c9d37a60c01b610f5a565b611a95679f2a4eadc10791d760c01b610f5a565b611aa96774e66eee37e383e760c01b610f5a565b611abd6762557c1b2a91c1f260c01b610f5a565b60008211611b00576040517f08c379a0000000000000000000000000000000000000000000000000000000008152600401611af790613500565b60405180910390fd5b611b1467489f262073b2f94960c01b610f5a565b611b2867a2b98269d0f7850f60c01b610f5a565b611b3c6701d517e5c951bfcf60c01b610f5a565b611b5067fa1ada775a90e3c060c01b610f5a565b600b60019054906101000a900460ff16611b9f576040517f08c379a0000000000000000000000000000000000000000000000000000000008152600401611b96906135b8565b60405180910390fd5b611bb3670bb2d9528237f87160c01b610f5a565b611bc7675fe71bf08d14d32060c01b610f5a565b611bdb673c3c664ea9b47f1660c01b610f5a565b611bef676f945a1dea5d9fc960c01b610f5a565b600760003373ffffffffffffffffffffffffffffffffffffffff1673ffffffffffffffffffffffffffffffffffffffff16815260200190815260200160002060008460ff1660ff16815260200190815260200160002060009054906101000a900460ff1615611c93576040517f08c379a0000000000000000000000000000000000000000000000000000000008152600401611c8a906139ad565b60405180910390fd5b611ca7677fa0501c311147c860c01b610f5a565b611cbb67be82e0c15e3ef22260c01b610f5a565b6001600760003373ffffffffffffffffffffffffffffffffffffffff1673ffffffffffffffffffffffffffffffffffffffff16815260200190815260200160002060008560ff1660ff16815260200190815260200160002060006101000a81548160ff021916908315150217905550611d3e67e06bef9f24e453f860c01b610f5a565b81600460003373ffffffffffffffffffffffffffffffffffffffff1673ffffffffffffffffffffffffffffffffffffffff16815260200190815260200160002060008560ff1660ff1681526020019081526020016000206000828254611da491906136b0565b92505081905550611dbf6719825fa72d84d8a060c01b610f5a565b81600660003373ffffffffffffffffffffffffffffffffffffffff1673ffffffffffffffffffffffffffffffffffffffff1681526020019081526020016000206000828254611e0e91906136b0565b92505081905550611e29677952a3d064a76e1b60c01b610f5a565b81600560008560ff1660ff1681526020019081526020016000206000828254611e5291906136b0565b92505081905550611e6d676e62c61246dbed7860c01b610f5a565b81600a6000828254611e7f91906136b0565b92505081905550611e9a67f298535901396c3960c01b610f5a565b611eae67c3320c6ffa365abc60c01b610f5a565b600260008460ff1660ff16815260200190815260200160002060009054906101000a900473ffffffffffffffffffffffffffffffffffffffff1673ffffffffffffffffffffffffffffffffffffffff1663a9059cbb33846040518363ffffffff1660e01b8152600401611f229291906136e4565b6020604051808303816000875af1158015611f41573d6000803e3d6000fd5b505050506040513d601f19601f82011682018060405250810190611f659190613722565b50611f7a679b55cf1e31a4a77160c01b610f5a565b611f8e67f8f559d01ec7729f60c01b610f5a565b7fc7ea5e3777ad7f007fcea44d9abcefdfbad15485549259aa3d52eca313e5634e600360008560ff1660ff1681526020019081526020016000203384600460003373ffffffffffffffffffffffffffffffffffffffff1673ffffffffffffffffffffffffffffffffffffffff16815260200190815260200160002060008860ff1660ff16815260200190815260200160002054600660003373ffffffffffffffffffffffffffffffffffffffff1673ffffffffffffffffffffffffffffffffffffffff168152602001908152602001600020546040516120729594939291906137d3565b60405180910390a1505050565b61209367f70fa5b6d6848f6d60c01b610f5a565b61209b610fdb565b6120af67d8c43d3dfc469c7c60c01b610f5a565b6120c36710d81c58f810b3e960c01b610f5a565b6120d767c636a938b890ca5b60c01b610f5a565b6120eb6703ffa565bb86820b60c01b610f5a565b6120ff671a46dfc08c28fb0d60c01b610f5a565b60008111612142576040517f08c379a000000000000000000000000000000000000000000000000000000000815260040161213990613a3f565b60405180910390fd5b61215667084744032e7f0c7160c01b610f5a565b61216a67ca51cf4c423918b660c01b610f5a565b61217e676208effc5a7b69a460c01b610f5a565b6000600460003373ffffffffffffffffffffffffffffffffffffffff1673ffffffffffffffffffffffffffffffffffffffff16815260200190815260200160002060008460ff1660ff1681526020019081526020016000205403612277576121f06713893893dc87571b60c01b610f5a565b61220467c58ba2757364effb60c01b610f5a565b6001600960003373ffffffffffffffffffffffffffffffffffffffff1673ffffffffffffffffffffffffffffffffffffffff16815260200190815260200160002060008460ff1660ff168152602001908152602001600020600082825461226b9190613a5f565b9250508190555061228c565b61228b67952c5a06ba692ca960c01b610f5a565b5b6122a0670ddb519ab4eef15b60c01b610f5a565b80600460003373ffffffffffffffffffffffffffffffffffffffff1673ffffffffffffffffffffffffffffffffffffffff16815260200190815260200160002060008460ff1660ff16815260200190815260200160002060008282546123069190613a5f565b9250508190555061232167b33854de3ba7f88c60c01b610f5a565b80600660003373ffffffffffffffffffffffffffffffffffffffff1673ffffffffffffffffffffffffffffffffffffffff16815260200190815260200160002060008282546123709190613a5f565b9250508190555061238b6727c9b79a97d5352f60c01b610f5a565b6000600760003373ffffffffffffffffffffffffffffffffffffffff1673ffffffffffffffffffffffffffffffffffffffff16815260200190815260200160002060008460ff1660ff16815260200190815260200160002060006101000a81548160ff02191690831515021790555061240e67835e3f5869c319fd60c01b610f5a565b80600a60008282546124209190613a5f565b9250508190555061243b67569c9b1a758dfb8160c01b610f5a565b80600560008460ff1660ff16815260200190815260200160002060008282546124649190613a5f565b9250508190555061247f67a4f4d43f22b880b160c01b610f5a565b61249367ea0059a29926863b60c01b610f5a565b600860003373ffffffffffffffffffffffffffffffffffffffff1673ffffffffffffffffffffffffffffffffffffffff16815260200190815260200160002060009054906101000a900460ff166125f4576124f8675c64fbd7d7f6915c60c01b610f5a565b61250c6753d4fc7e32b2254760c01b610f5a565b6125206784185ab5cb597ce760c01b610f5a565b6001339080600181540180825580915050600190039060005260206000200160009091909190916101000a81548173ffffffffffffffffffffffffffffffffffffffff021916908373ffffffffffffffffffffffffffffffffffffffff16021790555061259767aac3f4843f4e0ea660c01b610f5a565b6001600860003373ffffffffffffffffffffffffffffffffffffffff1673ffffffffffffffffffffffffffffffffffffffff16815260200190815260200160002060006101000a81548160ff021916908315150217905550612609565b612608673cc2e08d0e290fab60c01b610f5a565b5b61261d67d6aed68e9f5ad46b60c01b610f5a565b612631675b0a03758fe669b260c01b610f5a565b600260008360ff1660ff16815260200190815260200160002060009054906101000a900473ffffffffffffffffffffffffffffffffffffffff1673ffffffffffffffffffffffffffffffffffffffff166323b872dd3330846040518463ffffffff1660e01b81526004016126a793929190613a93565b6020604051808303816000875af11580156126c6573d6000803e3d6000fd5b505050506040513d601f19601f820116820180604052508101906126ea9190613722565b506126ff67a2321c55a8cc0bf360c01b610f5a565b61271367c98cb3db50dd029760c01b610f5a565b7f64ac4149bfd65160b5370eeb47269cf7792c3d36e2b8683ac9768c45b31c6eca600360008460ff1660ff1681526020019081526020016000203383600460003373ffffffffffffffffffffffffffffffffffffffff1673ffffffffffffffffffffffffffffffffffffffff16815260200190815260200160002060008760ff1660ff16815260200190815260200160002054600660003373ffffffffffffffffffffffffffffffffffffffff1673ffffffffffffffffffffffffffffffffffffffff168152602001908152602001600020546040516127f79594939291906137d3565b60405180910390a15050565b600033905090565b612813610826565b612852576040517f08c379a000000000000000000000000000000000000000000000000000000000815260040161284990613b16565b60405180910390fd5b565b60008115159050919050565b61286981612854565b82525050565b60006020820190506128846000830184612860565b92915050565b6000604051905090565b600080fd5b600080fd5b600060ff82169050919050565b6128b48161289e565b81146128bf57600080fd5b50565b6000813590506128d1816128ab565b92915050565b6000602082840312156128ed576128ec612894565b5b60006128fb848285016128c2565b91505092915050565b600081519050919050565b600082825260208201905092915050565b6000819050602082019050919050565b6000819050919050565b61294381612930565b82525050565b6000612955838361293a565b60208301905092915050565b6000602082019050919050565b600061297982612904565b612983818561290f565b935061298e83612920565b8060005b838110156129bf5781516129a68882612949565b97506129b183612961565b925050600181019050612992565b5085935050505092915050565b600060208201905081810360008301526129e6818461296e565b905092915050565b6129f781612930565b82525050565b6000602082019050612a1260008301846129ee565b92915050565b600073ffffffffffffffffffffffffffffffffffffffff82169050919050565b6000612a4382612a18565b9050919050565b612a5381612a38565b82525050565b6000602082019050612a6e6000830184612a4a565b92915050565b612a7d81612854565b8114612a8857600080fd5b50565b600081359050612a9a81612a74565b92915050565b600060208284031215612ab657612ab5612894565b5b6000612ac484828501612a8b565b91505092915050565b600080fd5b600080fd5b6000601f19601f8301169050919050565b7f4e487b7100000000000000000000000000000000000000000000000000000000600052604160045260246000fd5b612b2082612ad7565b810181811067ffffffffffffffff82111715612b3f57612b3e612ae8565b5b80604052505050565b6000612b5261288a565b9050612b5e8282612b17565b919050565b600067ffffffffffffffff821115612b7e57612b7d612ae8565b5b612b8782612ad7565b9050602081019050919050565b82818337600083830152505050565b6000612bb6612bb184612b63565b612b48565b905082815260208101848484011115612bd257612bd1612ad2565b5b612bdd848285612b94565b509392505050565b600082601f830112612bfa57612bf9612acd565b5b8135612c0a848260208601612ba3565b91505092915050565b612c1c81612a38565b8114612c2757600080fd5b50565b600081359050612c3981612c13565b92915050565b600080600060608486031215612c5857612c57612894565b5b6000612c66868287016128c2565b935050602084013567ffffffffffffffff811115612c8757612c86612899565b5b612c9386828701612be5565b9250506040612ca486828701612c2a565b9150509250925092565b600081519050919050565b600082825260208201905092915050565b60005b83811015612ce8578082015181840152602081019050612ccd565b60008484015250505050565b6000612cff82612cae565b612d098185612cb9565b9350612d19818560208601612cca565b612d2281612ad7565b840191505092915050565b60006020820190508181036000830152612d478184612cf4565b905092915050565b60008060408385031215612d6657612d65612894565b5b6000612d7485828601612c2a565b9250506020612d85858286016128c2565b9150509250929050565b612d9881612930565b8114612da357600080fd5b50565b600081359050612db581612d8f565b92915050565b60008060408385031215612dd257612dd1612894565b5b6000612de0858286016128c2565b9250506020612df185828601612da6565b9150509250929050565b600060208284031215612e1157612e10612894565b5b6000612e1f84828501612c2a565b91505092915050565b600067ffffffffffffffff82169050919050565b612e4581612e28565b8114612e5057600080fd5b50565b600081359050612e6281612e3c565b92915050565b60008060408385031215612e7f57612e7e612894565b5b6000612e8d85828601612e53565b9250506020612e9e85828601612e53565b9150509250929050565b600081519050919050565b600082825260208201905092915050565b6000819050602082019050919050565b612edd81612a38565b82525050565b6000612eef8383612ed4565b60208301905092915050565b6000602082019050919050565b6000612f1382612ea8565b612f1d8185612eb3565b9350612f2883612ec4565b8060005b83811015612f59578151612f408882612ee3565b9750612f4b83612efb565b925050600181019050612f2c565b5085935050505092915050565b60006020820190508181036000830152612f808184612f08565b905092915050565b600060208284031215612f9e57612f9d612894565b5b6000612fac84828501612da6565b91505092915050565b7f4e487b7100000000000000000000000000000000000000000000000000000000600052603260045260246000fd5b7f4e487b7100000000000000000000000000000000000000000000000000000000600052601160045260246000fd5b600061301e8261289e565b915060ff820361303157613030612fe4565b5b600182019050919050565b7f4e487b7100000000000000000000000000000000000000000000000000000000600052602260045260246000fd5b6000600282049050600182168061308357607f821691505b6020821081036130965761309561303c565b5b50919050565b60008190508160005260206000209050919050565b60006020601f8301049050919050565b600082821b905092915050565b6000600883026130fe7fffffffffffffffffffffffffffffffffffffffffffffffffffffffffffffffff826130c1565b61310886836130c1565b95508019841693508086168417925050509392505050565b6000819050919050565b600061314561314061313b84612930565b613120565b612930565b9050919050565b6000819050919050565b61315f8361312a565b61317361316b8261314c565b8484546130ce565b825550505050565b600090565b61318861317b565b613193818484613156565b505050565b5b818110156131b7576131ac600082613180565b600181019050613199565b5050565b601f8211156131fc576131cd8161309c565b6131d6846130b1565b810160208510156131e5578190505b6131f96131f1856130b1565b830182613198565b50505b505050565b600082821c905092915050565b600061321f60001984600802613201565b1980831691505092915050565b6000613238838361320e565b9150826002028217905092915050565b61325182612cae565b67ffffffffffffffff81111561326a57613269612ae8565b5b613274825461306b565b61327f8282856131bb565b600060209050601f8311600181146132b257600084156132a0578287015190505b6132aa858261322c565b865550613312565b601f1984166132c08661309c565b60005b828110156132e8578489015182556001820191506020850194506020810190506132c3565b868310156133055784890151613301601f89168261320e565b8355505b6001600288020188555050505b505050505050565b600061332582612e28565b915067ffffffffffffffff820361333f5761333e612fe4565b5b600182019050919050565b7f4f776e61626c653a206e6577206f776e657220697320746865207a65726f206160008201527f6464726573730000000000000000000000000000000000000000000000000000602082015250565b60006133a6602683612cb9565b91506133b18261334a565b604082019050919050565b600060208201905081810360008301526133d581613399565b9050919050565b7f4f776e61626c653a2063616c6c6572206973206e6f7420746865206f776e6572600082015250565b6000613412602083612cb9565b915061341d826133dc565b602082019050919050565b6000602082019050818103600083015261344181613405565b9050919050565b7f5061757361626c653a2070617573656400000000000000000000000000000000600082015250565b600061347e601083612cb9565b915061348982613448565b602082019050919050565b600060208201905081810360008301526134ad81613471565b9050919050565b7f416d6f756e742063616e6e6f7420626520300000000000000000000000000000600082015250565b60006134ea601283612cb9565b91506134f5826134b4565b602082019050919050565b60006020820190508181036000830152613519816134dd565b9050919050565b7f416c6c2066756e647320696e20506f6f6c206172652063757272656e746c792060008201527f6261636b696e6720616c6c20494e52432c20756e7374616b652077696c6c206260208201527f6520617661696c61626c652073686f72746c7900000000000000000000000000604082015250565b60006135a2605383612cb9565b91506135ad82613520565b606082019050919050565b600060208201905081810360008301526135d181613595565b9050919050565b7f65706f6368206e6f74206f766572000000000000000000000000000000000000600082015250565b600061360e600e83612cb9565b9150613619826135d8565b602082019050919050565b6000602082019050818103600083015261363d81613601565b9050919050565b7f756e7374616b6520383025206669727374000000000000000000000000000000600082015250565b600061367a601183612cb9565b915061368582613644565b602082019050919050565b600060208201905081810360008301526136a98161366d565b9050919050565b60006136bb82612930565b91506136c683612930565b92508282039050818111156136de576136dd612fe4565b5b92915050565b60006040820190506136f96000830185612a4a565b61370660208301846129ee565b9392505050565b60008151905061371c81612a74565b92915050565b60006020828403121561373857613737612894565b5b60006137468482850161370d565b91505092915050565b6000815461375c8161306b565b6137668186612cb9565b945060018216600081146137815760018114613797576137ca565b60ff1983168652811515602002860193506137ca565b6137a08561309c565b60005b838110156137c2578154818901526001820191506020810190506137a3565b808801955050505b50505092915050565b600060a08201905081810360008301526137ed818861374f565b90506137fc6020830187612a4a565b61380960408301866129ee565b61381660608301856129ee565b61382360808301846129ee565b9695505050505050565b600061383882612930565b915061384383612930565b925082820261385181612930565b9150828204841483151761386857613867612fe4565b5b5092915050565b7f4e487b7100000000000000000000000000000000000000000000000000000000600052601260045260246000fd5b60006138a982612930565b91506138b483612930565b9250826138c4576138c361386f565b5b828204905092915050565b7f547265617375727920506f6f6c3a20416d6f756e74206973205a65726f206f7260008201527f2047726561746572207468616e205374616b6500000000000000000000000000602082015250565b600061392b603383612cb9565b9150613936826138cf565b604082019050919050565b6000602082019050818103600083015261395a8161391e565b9050919050565b7f756e7374616b652066756c6c206c617465722000000000000000000000000000600082015250565b6000613997601383612cb9565b91506139a282613961565b602082019050919050565b600060208201905081810360008301526139c68161398a565b9050919050565b7f547265617375727920506f6f6c3a20416d6f756e742063616e6e6f742062652060008201527f5a65726f00000000000000000000000000000000000000000000000000000000602082015250565b6000613a29602483612cb9565b9150613a34826139cd565b604082019050919050565b60006020820190508181036000830152613a5881613a1c565b9050919050565b6000613a6a82612930565b9150613a7583612930565b9250828201905080821115613a8d57613a8c612fe4565b5b92915050565b6000606082019050613aa86000830186612a4a565b613ab56020830185612a4a565b613ac260408301846129ee565b949350505050565b7f5061757361626c653a206e6f7420706175736564000000000000000000000000600082015250565b6000613b00601483612cb9565b9150613b0b82613aca565b602082019050919050565b60006020820190508181036000830152613b2f81613af3565b905091905056fea2646970667358221220fbd0e1a7c713403950f73512ef148205e3e1d996409f19e9b38f855056d77e6d64736f6c63430008110033",
  "linkReferences": {},
  "deployedLinkReferences": {}
}