{
  "_format": "hh-sol-artifact-1",
  "contractName": "LiquidityPoolTron",
  "sourceName": "contracts/LPfortron.sol",
  "abi": [
    {
      "inputs": [],
      "stateMutability": "nonpayable",
      "type": "constructor"
    },
    {
      "anonymous": false,
      "inputs": [
        {
          "indexed": true,
          "internalType": "address",
          "name": "previousOwner",
          "type": "address"
        },
        {
          "indexed": true,
          "internalType": "address",
          "name": "newOwner",
          "type": "address"
        }
      ],
      "name": "OwnershipTransferred",
      "type": "event"
    },
    {
      "anonymous": false,
      "inputs": [
        {
          "indexed": false,
          "internalType": "address",
          "name": "account",
          "type": "address"
        }
      ],
      "name": "Paused",
      "type": "event"
    },
    {
      "anonymous": false,
      "inputs": [
        {
          "indexed": false,
          "internalType": "string",
          "name": "USD",
          "type": "string"
        },
        {
          "indexed": false,
          "internalType": "address",
          "name": "liquidityProvider",
          "type": "address"
        },
        {
          "indexed": false,
          "internalType": "uint256",
          "name": "amount",
          "type": "uint256"
        },
        {
          "indexed": false,
          "internalType": "uint256",
          "name": "USDtotal",
          "type": "uint256"
        },
        {
          "indexed": false,
          "internalType": "uint256",
          "name": "TotalStake",
          "type": "uint256"
        }
      ],
      "name": "Stake",
      "type": "event"
    },
    {
      "anonymous": false,
      "inputs": [
        {
          "indexed": false,
          "internalType": "address",
          "name": "account",
          "type": "address"
        }
      ],
      "name": "Unpaused",
      "type": "event"
    },
    {
      "anonymous": false,
      "inputs": [
        {
          "indexed": false,
          "internalType": "string",
          "name": "USD",
          "type": "string"
        },
        {
          "indexed": false,
          "internalType": "address",
          "name": "liquidityProvider",
          "type": "address"
        },
        {
          "indexed": false,
          "internalType": "uint256",
          "name": "amount",
          "type": "uint256"
        },
        {
          "indexed": false,
          "internalType": "uint256",
          "name": "USDtotal",
          "type": "uint256"
        },
        {
          "indexed": false,
          "internalType": "uint256",
          "name": "TotalStake",
          "type": "uint256"
        }
      ],
      "name": "Unstake",
      "type": "event"
    },
    {
      "inputs": [
        {
          "internalType": "uint64",
          "name": "_num1",
          "type": "uint64"
        },
        {
          "internalType": "uint64",
          "name": "_num2",
          "type": "uint64"
        }
      ],
      "name": "GetStakers",
      "outputs": [
        {
          "internalType": "address[]",
          "name": "",
          "type": "address[]"
        }
      ],
      "stateMutability": "view",
      "type": "function"
    },
    {
      "inputs": [
        {
          "internalType": "uint8",
          "name": "",
          "type": "uint8"
        }
      ],
      "name": "LPbalanceUSD",
      "outputs": [
        {
          "internalType": "uint256",
          "name": "",
          "type": "uint256"
        }
      ],
      "stateMutability": "view",
      "type": "function"
    },
    {
      "inputs": [
        {
          "internalType": "address",
          "name": "",
          "type": "address"
        }
      ],
      "name": "OldStaker",
      "outputs": [
        {
          "internalType": "bool",
          "name": "",
          "type": "bool"
        }
      ],
      "stateMutability": "view",
      "type": "function"
    },
    {
      "inputs": [
        {
          "internalType": "address",
          "name": "",
          "type": "address"
        }
      ],
      "name": "StakerLiquidity",
      "outputs": [
        {
          "internalType": "uint256",
          "name": "",
          "type": "uint256"
        }
      ],
      "stateMutability": "view",
      "type": "function"
    },
    {
      "inputs": [
        {
          "internalType": "uint8",
          "name": "",
          "type": "uint8"
        }
      ],
      "name": "USDStable",
      "outputs": [
        {
          "internalType": "address",
          "name": "",
          "type": "address"
        }
      ],
      "stateMutability": "view",
      "type": "function"
    },
    {
      "inputs": [],
      "name": "epochover",
      "outputs": [
        {
          "internalType": "bool",
          "name": "",
          "type": "bool"
        }
      ],
      "stateMutability": "view",
      "type": "function"
    },
    {
      "inputs": [
        {
          "internalType": "uint8",
          "name": "_length",
          "type": "uint8"
        }
      ],
      "name": "getLPbalance",
      "outputs": [
        {
          "internalType": "uint256[]",
          "name": "",
          "type": "uint256[]"
        }
      ],
      "stateMutability": "view",
      "type": "function"
    },
    {
      "inputs": [
        {
          "internalType": "address",
          "name": "",
          "type": "address"
        },
        {
          "internalType": "uint8",
          "name": "",
          "type": "uint8"
        }
      ],
      "name": "liquidityPool",
      "outputs": [
        {
          "internalType": "uint256",
          "name": "",
          "type": "uint256"
        }
      ],
      "stateMutability": "view",
      "type": "function"
    },
    {
      "inputs": [
        {
          "internalType": "address",
          "name": "",
          "type": "address"
        },
        {
          "internalType": "uint8",
          "name": "",
          "type": "uint8"
        }
      ],
      "name": "liquidityPoolStakes",
      "outputs": [
        {
          "internalType": "uint256",
          "name": "",
          "type": "uint256"
        }
      ],
      "stateMutability": "view",
      "type": "function"
    },
    {
      "inputs": [
        {
          "internalType": "uint8",
          "name": "",
          "type": "uint8"
        }
      ],
      "name": "names",
      "outputs": [
        {
          "internalType": "string",
          "name": "",
          "type": "string"
        }
      ],
      "stateMutability": "view",
      "type": "function"
    },
    {
      "inputs": [],
      "name": "owner",
      "outputs": [
        {
          "internalType": "address",
          "name": "",
          "type": "address"
        }
      ],
      "stateMutability": "view",
      "type": "function"
    },
    {
      "inputs": [],
      "name": "pause",
      "outputs": [],
      "stateMutability": "nonpayable",
      "type": "function"
    },
    {
      "inputs": [],
      "name": "paused",
      "outputs": [
        {
          "internalType": "bool",
          "name": "",
          "type": "bool"
        }
      ],
      "stateMutability": "view",
      "type": "function"
    },
    {
      "inputs": [],
      "name": "renounceOwnership",
      "outputs": [],
      "stateMutability": "nonpayable",
      "type": "function"
    },
    {
      "inputs": [
        {
          "internalType": "bool",
          "name": "_over",
          "type": "bool"
        }
      ],
      "name": "setEpoch",
      "outputs": [],
      "stateMutability": "nonpayable",
      "type": "function"
    },
    {
      "inputs": [
        {
          "internalType": "uint8",
          "name": "_index",
          "type": "uint8"
        },
        {
          "internalType": "string",
          "name": "_name",
          "type": "string"
        },
        {
          "internalType": "address",
          "name": "_USD",
          "type": "address"
        }
      ],
      "name": "setUSDAddress",
      "outputs": [],
      "stateMutability": "nonpayable",
      "type": "function"
    },
    {
      "inputs": [
        {
          "internalType": "bool",
          "name": "_over",
          "type": "bool"
        }
      ],
      "name": "setUnstake",
      "outputs": [],
      "stateMutability": "nonpayable",
      "type": "function"
    },
    {
      "inputs": [
        {
          "internalType": "uint8",
          "name": "_usd",
          "type": "uint8"
        },
        {
          "internalType": "uint256",
          "name": "_amount",
          "type": "uint256"
        }
      ],
      "name": "stake",
      "outputs": [],
      "stateMutability": "nonpayable",
      "type": "function"
    },
    {
      "inputs": [
        {
          "internalType": "uint256",
          "name": "",
          "type": "uint256"
        }
      ],
      "name": "stakers",
      "outputs": [
        {
          "internalType": "address",
          "name": "",
          "type": "address"
        }
      ],
      "stateMutability": "view",
      "type": "function"
    },
    {
      "inputs": [],
      "name": "totalLiquidity",
      "outputs": [
        {
          "internalType": "uint256",
          "name": "",
          "type": "uint256"
        }
      ],
      "stateMutability": "view",
      "type": "function"
    },
    {
      "inputs": [
        {
          "internalType": "address",
          "name": "newOwner",
          "type": "address"
        }
      ],
      "name": "transferOwnership",
      "outputs": [],
      "stateMutability": "nonpayable",
      "type": "function"
    },
    {
      "inputs": [],
      "name": "unpause",
      "outputs": [],
      "stateMutability": "nonpayable",
      "type": "function"
    },
    {
      "inputs": [],
      "name": "unstakable",
      "outputs": [
        {
          "internalType": "bool",
          "name": "",
          "type": "bool"
        }
      ],
      "stateMutability": "view",
      "type": "function"
    },
    {
      "inputs": [
        {
          "internalType": "uint8",
          "name": "_usd",
          "type": "uint8"
        },
        {
          "internalType": "uint256",
          "name": "_amount",
          "type": "uint256"
        }
      ],
      "name": "unstake",
      "outputs": [],
      "stateMutability": "nonpayable",
      "type": "function"
    },
    {
      "inputs": [
        {
          "internalType": "uint8",
          "name": "_usd",
          "type": "uint8"
        }
      ],
      "name": "unstakeAll",
      "outputs": [],
      "stateMutability": "nonpayable",
      "type": "function"
    },
    {
      "inputs": [
        {
          "internalType": "address",
          "name": "",
          "type": "address"
        },
        {
          "internalType": "uint8",
          "name": "",
          "type": "uint8"
        }
      ],
      "name": "unstakedMax",
      "outputs": [
        {
          "internalType": "bool",
          "name": "",
          "type": "bool"
        }
      ],
      "stateMutability": "view",
      "type": "function"
    }
  ],
  "bytecode": "0x60806040523480156200001157600080fd5b5062000032620000266200005260201b60201c565b6200005a60201b60201c565b60008060146101000a81548160ff0219169083151502179055506200011e565b600033905090565b60008060009054906101000a900473ffffffffffffffffffffffffffffffffffffffff169050816000806101000a81548173ffffffffffffffffffffffffffffffffffffffff021916908373ffffffffffffffffffffffffffffffffffffffff1602179055508173ffffffffffffffffffffffffffffffffffffffff168173ffffffffffffffffffffffffffffffffffffffff167f8be0079c531659141344cd1fd0a4f28419497f9722a3daafe3b4186f6b6457e060405160405180910390a35050565b613047806200012e6000396000f3fe608060405234801561001057600080fd5b506004361061018e5760003560e01c8063846ac6b3116100de578063cb14146d11610097578063dd752e5511610071578063dd752e5514610483578063e76438e11461049f578063f2fde38b146104cf578063fd5e6dd1146104eb5761018e565b8063cb14146d146103f3578063d284308914610423578063d9575d47146104535761018e565b8063846ac6b31461030b5780638da5cb5b1461033b578063911db77b14610359578063b2ffd65314610389578063b4545b9e146103a7578063bf7b589e146103c35761018e565b80634abb83141161014b578063715018a611610125578063715018a6146102ab5780637257a493146102b55780637d7e649a146102e55780638456cb59146103015761018e565b80634abb8314146102555780635c975abb146102715780636a3cbc4a1461028f5761018e565b8063058aa5cb146101935780631337b7d1146101b157806315770f92146101e15780632c70411b146101ff5780633a15c9cc1461022f5780633f4ba83a1461024b575b600080fd5b61019b61051b565b6040516101a89190611d4a565b60405180910390f35b6101cb60048036038101906101c69190611db2565b61052e565b6040516101d89190611ea7565b60405180910390f35b6101e96105ea565b6040516101f69190611ed8565b60405180910390f35b61021960048036038101906102149190611db2565b6105f0565b6040516102269190611f34565b60405180910390f35b61024960048036038101906102449190611f7b565b610623565b005b610253610650565b005b61026f600480360381019061026a9190611db2565b610662565b005b61027961066e565b6040516102869190611d4a565b60405180910390f35b6102a960048036038101906102a4919061211a565b610684565b005b6102b3610718565b005b6102cf60048036038101906102ca9190611db2565b61072c565b6040516102dc9190612208565b60405180910390f35b6102ff60048036038101906102fa9190611f7b565b6107cc565b005b6103096107f9565b005b6103256004803603810190610320919061222a565b61080b565b6040516103329190611d4a565b60405180910390f35b61034361083a565b6040516103509190611f34565b60405180910390f35b610373600480360381019061036e919061222a565b610863565b6040516103809190611ed8565b60405180910390f35b610391610888565b60405161039e9190611d4a565b60405180910390f35b6103c160048036038101906103bc9190612296565b61089b565b005b6103dd60048036038101906103d891906122d6565b6108a9565b6040516103ea9190611ed8565b60405180910390f35b61040d60048036038101906104089190611db2565b6108c1565b60405161041a9190611ed8565b60405180910390f35b61043d6004803603810190610438919061222a565b6108d9565b60405161044a9190611ed8565b60405180910390f35b61046d600480360381019061046891906122d6565b6108fe565b60405161047a9190611d4a565b60405180910390f35b61049d60048036038101906104989190612296565b61091e565b005b6104b960048036038101906104b49190612343565b61092c565b6040516104c69190612441565b60405180910390f35b6104e960048036038101906104e491906122d6565b610a60565b005b61050560048036038101906105009190612463565b610ae3565b6040516105129190611f34565b60405180910390f35b600b60019054906101000a900460ff1681565b606060008260ff1667ffffffffffffffff81111561054f5761054e611fc3565b5b60405190808252806020026020018201604052801561057d5781602001602082028036833780820191505090505b50905060005b8360ff168160ff1610156105e057600560008260ff1660ff16815260200190815260200160002054828260ff16815181106105c1576105c0612490565b5b60200260200101818152505080806105d8906124ee565b915050610583565b5080915050919050565b600a5481565b60026020528060005260406000206000915054906101000a900473ffffffffffffffffffffffffffffffffffffffff1681565b61062b610b22565b610633610ba0565b80600b60006101000a81548160ff02191690831515021790555050565b610658610b22565b610660610bea565b565b61066b81610c4c565b50565b60008060149054906101000a900460ff16905090565b61068c610ba0565b610694610b22565b80600260008560ff1660ff16815260200190815260200160002060006101000a81548173ffffffffffffffffffffffffffffffffffffffff021916908373ffffffffffffffffffffffffffffffffffffffff16021790555081600360008560ff1660ff16815260200190815260200160002090816107129190612723565b50505050565b610720610b22565b61072a6000611155565b565b6003602052806000526040600020600091509050805461074b90612546565b80601f016020809104026020016040519081016040528092919081815260200182805461077790612546565b80156107c45780601f10610799576101008083540402835291602001916107c4565b820191906000526020600020905b8154815290600101906020018083116107a757829003601f168201915b505050505081565b6107d4610b22565b6107dc610ba0565b80600b60016101000a81548160ff02191690831515021790555050565b610801610b22565b610809611219565b565b60076020528160005260406000206020528060005260406000206000915091509054906101000a900460ff1681565b60008060009054906101000a900473ffffffffffffffffffffffffffffffffffffffff16905090565b6004602052816000526040600020602052806000526040600020600091509150505481565b600b60009054906101000a900460ff1681565b6108a5828261127c565b5050565b60066020528060005260406000206000915090505481565b60056020528060005260406000206000915090505481565b6009602052816000526040600020602052806000526040600020600091509150505481565b60086020528060005260406000206000915054906101000a900460ff1681565b6109288282611794565b5050565b6060600060018054905067ffffffffffffffff81111561094f5761094e611fc3565b5b60405190808252806020026020018201604052801561097d5781602001602082028036833780820191505090505b50905060008490505b8367ffffffffffffffff168167ffffffffffffffff161015610a555760018167ffffffffffffffff16815481106109c0576109bf612490565b5b9060005260206000200160009054906101000a900473ffffffffffffffffffffffffffffffffffffffff16828267ffffffffffffffff1681518110610a0857610a07612490565b5b602002602001019073ffffffffffffffffffffffffffffffffffffffff16908173ffffffffffffffffffffffffffffffffffffffff16815250508080610a4d906127f5565b915050610986565b508091505092915050565b610a68610b22565b600073ffffffffffffffffffffffffffffffffffffffff168173ffffffffffffffffffffffffffffffffffffffff1603610ad7576040517f08c379a0000000000000000000000000000000000000000000000000000000008152600401610ace90612897565b60405180910390fd5b610ae081611155565b50565b60018181548110610af357600080fd5b906000526020600020016000915054906101000a900473ffffffffffffffffffffffffffffffffffffffff1681565b610b2a611cde565b73ffffffffffffffffffffffffffffffffffffffff16610b4861083a565b73ffffffffffffffffffffffffffffffffffffffff1614610b9e576040517f08c379a0000000000000000000000000000000000000000000000000000000008152600401610b9590612903565b60405180910390fd5b565b610ba861066e565b15610be8576040517f08c379a0000000000000000000000000000000000000000000000000000000008152600401610bdf9061296f565b60405180910390fd5b565b610bf2611ce6565b60008060146101000a81548160ff0219169083151502179055507f5db9ee0a495bf2e6ff9c91a7834c1ba4fdd244a5e8aa4e537bd38aeae4b073aa610c35611cde565b604051610c429190611f34565b60405180910390a1565b610c54610ba0565b6000600460003373ffffffffffffffffffffffffffffffffffffffff1673ffffffffffffffffffffffffffffffffffffffff16815260200190815260200160002060008360ff1660ff16815260200190815260200160002054905060008111610cf2576040517f08c379a0000000000000000000000000000000000000000000000000000000008152600401610ce9906129db565b60405180910390fd5b600b60019054906101000a900460ff16610d41576040517f08c379a0000000000000000000000000000000000000000000000000000000008152600401610d3890612a93565b60405180910390fd5b600b60009054906101000a900460ff16610d90576040517f08c379a0000000000000000000000000000000000000000000000000000000008152600401610d8790612aff565b60405180910390fd5b600760003373ffffffffffffffffffffffffffffffffffffffff1673ffffffffffffffffffffffffffffffffffffffff16815260200190815260200160002060008360ff1660ff16815260200190815260200160002060009054906101000a900460ff16610e33576040517f08c379a0000000000000000000000000000000000000000000000000000000008152600401610e2a90612b6b565b60405180910390fd5b80600460003373ffffffffffffffffffffffffffffffffffffffff1673ffffffffffffffffffffffffffffffffffffffff16815260200190815260200160002060008460ff1660ff1681526020019081526020016000206000828254610e999190612b8b565b9250508190555080600660003373ffffffffffffffffffffffffffffffffffffffff1673ffffffffffffffffffffffffffffffffffffffff1681526020019081526020016000206000828254610eef9190612b8b565b9250508190555080600560008460ff1660ff1681526020019081526020016000206000828254610f1f9190612b8b565b9250508190555080600a6000828254610f389190612b8b565b925050819055506001600960003373ffffffffffffffffffffffffffffffffffffffff1673ffffffffffffffffffffffffffffffffffffffff16815260200190815260200160002060008460ff1660ff1681526020019081526020016000206000828254610fa69190612b8b565b92505081905550600260008360ff1660ff16815260200190815260200160002060009054906101000a900473ffffffffffffffffffffffffffffffffffffffff1673ffffffffffffffffffffffffffffffffffffffff1663a9059cbb33836040518363ffffffff1660e01b8152600401611021929190612bbf565b6020604051808303816000875af1158015611040573d6000803e3d6000fd5b505050506040513d601f19601f820116820180604052508101906110649190612bfd565b507fc7ea5e3777ad7f007fcea44d9abcefdfbad15485549259aa3d52eca313e5634e600360008460ff1660ff1681526020019081526020016000203383600460003373ffffffffffffffffffffffffffffffffffffffff1673ffffffffffffffffffffffffffffffffffffffff16815260200190815260200160002060008760ff1660ff16815260200190815260200160002054600660003373ffffffffffffffffffffffffffffffffffffffff1673ffffffffffffffffffffffffffffffffffffffff16815260200190815260200160002054604051611149959493929190612cae565b60405180910390a15050565b60008060009054906101000a900473ffffffffffffffffffffffffffffffffffffffff169050816000806101000a81548173ffffffffffffffffffffffffffffffffffffffff021916908373ffffffffffffffffffffffffffffffffffffffff1602179055508173ffffffffffffffffffffffffffffffffffffffff168173ffffffffffffffffffffffffffffffffffffffff167f8be0079c531659141344cd1fd0a4f28419497f9722a3daafe3b4186f6b6457e060405160405180910390a35050565b611221610ba0565b6001600060146101000a81548160ff0219169083151502179055507f62e78cea01bee320cd4e420270b5ea74000d11b0c9f74754ebdbfc544b05a258611265611cde565b6040516112729190611f34565b60405180910390a1565b611284610ba0565b6000600460003373ffffffffffffffffffffffffffffffffffffffff1673ffffffffffffffffffffffffffffffffffffffff16815260200190815260200160002060008460ff1660ff16815260200190815260200160002054905060646050826112ee9190612d08565b6112f89190612d79565b82111561133a576040517f08c379a000000000000000000000000000000000000000000000000000000000815260040161133190612e1c565b60405180910390fd5b6000821161137d576040517f08c379a0000000000000000000000000000000000000000000000000000000008152600401611374906129db565b60405180910390fd5b600b60019054906101000a900460ff166113cc576040517f08c379a00000000000000000000000000000000000000000000000000000000081526004016113c390612a93565b60405180910390fd5b600760003373ffffffffffffffffffffffffffffffffffffffff1673ffffffffffffffffffffffffffffffffffffffff16815260200190815260200160002060008460ff1660ff16815260200190815260200160002060009054906101000a900460ff1615611470576040517f08c379a000000000000000000000000000000000000000000000000000000000815260040161146790612e88565b60405180910390fd5b6001600760003373ffffffffffffffffffffffffffffffffffffffff1673ffffffffffffffffffffffffffffffffffffffff16815260200190815260200160002060008560ff1660ff16815260200190815260200160002060006101000a81548160ff02191690831515021790555081600460003373ffffffffffffffffffffffffffffffffffffffff1673ffffffffffffffffffffffffffffffffffffffff16815260200190815260200160002060008560ff1660ff16815260200190815260200160002060008282546115459190612b8b565b9250508190555081600660003373ffffffffffffffffffffffffffffffffffffffff1673ffffffffffffffffffffffffffffffffffffffff168152602001908152602001600020600082825461159b9190612b8b565b9250508190555081600560008560ff1660ff16815260200190815260200160002060008282546115cb9190612b8b565b9250508190555081600a60008282546115e49190612b8b565b92505081905550600260008460ff1660ff16815260200190815260200160002060009054906101000a900473ffffffffffffffffffffffffffffffffffffffff1673ffffffffffffffffffffffffffffffffffffffff1663a9059cbb33846040518363ffffffff1660e01b815260040161165f929190612bbf565b6020604051808303816000875af115801561167e573d6000803e3d6000fd5b505050506040513d601f19601f820116820180604052508101906116a29190612bfd565b507fc7ea5e3777ad7f007fcea44d9abcefdfbad15485549259aa3d52eca313e5634e600360008560ff1660ff1681526020019081526020016000203384600460003373ffffffffffffffffffffffffffffffffffffffff1673ffffffffffffffffffffffffffffffffffffffff16815260200190815260200160002060008860ff1660ff16815260200190815260200160002054600660003373ffffffffffffffffffffffffffffffffffffffff1673ffffffffffffffffffffffffffffffffffffffff16815260200190815260200160002054604051611787959493929190612cae565b60405180910390a1505050565b61179c610ba0565b600081116117df576040517f08c379a00000000000000000000000000000000000000000000000000000000081526004016117d690612f1a565b60405180910390fd5b6000600460003373ffffffffffffffffffffffffffffffffffffffff1673ffffffffffffffffffffffffffffffffffffffff16815260200190815260200160002060008460ff1660ff16815260200190815260200160002054036118ac576001600960003373ffffffffffffffffffffffffffffffffffffffff1673ffffffffffffffffffffffffffffffffffffffff16815260200190815260200160002060008460ff1660ff16815260200190815260200160002060008282546118a49190612f3a565b925050819055505b80600460003373ffffffffffffffffffffffffffffffffffffffff1673ffffffffffffffffffffffffffffffffffffffff16815260200190815260200160002060008460ff1660ff16815260200190815260200160002060008282546119129190612f3a565b9250508190555080600660003373ffffffffffffffffffffffffffffffffffffffff1673ffffffffffffffffffffffffffffffffffffffff16815260200190815260200160002060008282546119689190612f3a565b925050819055506000600760003373ffffffffffffffffffffffffffffffffffffffff1673ffffffffffffffffffffffffffffffffffffffff16815260200190815260200160002060008460ff1660ff16815260200190815260200160002060006101000a81548160ff02191690831515021790555080600a60008282546119f09190612f3a565b9250508190555080600560008460ff1660ff1681526020019081526020016000206000828254611a209190612f3a565b92505081905550600860003373ffffffffffffffffffffffffffffffffffffffff1673ffffffffffffffffffffffffffffffffffffffff16815260200190815260200160002060009054906101000a900460ff16611b34576001339080600181540180825580915050600190039060005260206000200160009091909190916101000a81548173ffffffffffffffffffffffffffffffffffffffff021916908373ffffffffffffffffffffffffffffffffffffffff1602179055506001600860003373ffffffffffffffffffffffffffffffffffffffff1673ffffffffffffffffffffffffffffffffffffffff16815260200190815260200160002060006101000a81548160ff0219169083151502179055505b600260008360ff1660ff16815260200190815260200160002060009054906101000a900473ffffffffffffffffffffffffffffffffffffffff1673ffffffffffffffffffffffffffffffffffffffff166323b872dd3330846040518463ffffffff1660e01b8152600401611baa93929190612f6e565b6020604051808303816000875af1158015611bc9573d6000803e3d6000fd5b505050506040513d601f19601f82011682018060405250810190611bed9190612bfd565b507f64ac4149bfd65160b5370eeb47269cf7792c3d36e2b8683ac9768c45b31c6eca600360008460ff1660ff1681526020019081526020016000203383600460003373ffffffffffffffffffffffffffffffffffffffff1673ffffffffffffffffffffffffffffffffffffffff16815260200190815260200160002060008760ff1660ff16815260200190815260200160002054600660003373ffffffffffffffffffffffffffffffffffffffff1673ffffffffffffffffffffffffffffffffffffffff16815260200190815260200160002054604051611cd2959493929190612cae565b60405180910390a15050565b600033905090565b611cee61066e565b611d2d576040517f08c379a0000000000000000000000000000000000000000000000000000000008152600401611d2490612ff1565b60405180910390fd5b565b60008115159050919050565b611d4481611d2f565b82525050565b6000602082019050611d5f6000830184611d3b565b92915050565b6000604051905090565b600080fd5b600080fd5b600060ff82169050919050565b611d8f81611d79565b8114611d9a57600080fd5b50565b600081359050611dac81611d86565b92915050565b600060208284031215611dc857611dc7611d6f565b5b6000611dd684828501611d9d565b91505092915050565b600081519050919050565b600082825260208201905092915050565b6000819050602082019050919050565b6000819050919050565b611e1e81611e0b565b82525050565b6000611e308383611e15565b60208301905092915050565b6000602082019050919050565b6000611e5482611ddf565b611e5e8185611dea565b9350611e6983611dfb565b8060005b83811015611e9a578151611e818882611e24565b9750611e8c83611e3c565b925050600181019050611e6d565b5085935050505092915050565b60006020820190508181036000830152611ec18184611e49565b905092915050565b611ed281611e0b565b82525050565b6000602082019050611eed6000830184611ec9565b92915050565b600073ffffffffffffffffffffffffffffffffffffffff82169050919050565b6000611f1e82611ef3565b9050919050565b611f2e81611f13565b82525050565b6000602082019050611f496000830184611f25565b92915050565b611f5881611d2f565b8114611f6357600080fd5b50565b600081359050611f7581611f4f565b92915050565b600060208284031215611f9157611f90611d6f565b5b6000611f9f84828501611f66565b91505092915050565b600080fd5b600080fd5b6000601f19601f8301169050919050565b7f4e487b7100000000000000000000000000000000000000000000000000000000600052604160045260246000fd5b611ffb82611fb2565b810181811067ffffffffffffffff8211171561201a57612019611fc3565b5b80604052505050565b600061202d611d65565b90506120398282611ff2565b919050565b600067ffffffffffffffff82111561205957612058611fc3565b5b61206282611fb2565b9050602081019050919050565b82818337600083830152505050565b600061209161208c8461203e565b612023565b9050828152602081018484840111156120ad576120ac611fad565b5b6120b884828561206f565b509392505050565b600082601f8301126120d5576120d4611fa8565b5b81356120e584826020860161207e565b91505092915050565b6120f781611f13565b811461210257600080fd5b50565b600081359050612114816120ee565b92915050565b60008060006060848603121561213357612132611d6f565b5b600061214186828701611d9d565b935050602084013567ffffffffffffffff81111561216257612161611d74565b5b61216e868287016120c0565b925050604061217f86828701612105565b9150509250925092565b600081519050919050565b600082825260208201905092915050565b60005b838110156121c35780820151818401526020810190506121a8565b60008484015250505050565b60006121da82612189565b6121e48185612194565b93506121f48185602086016121a5565b6121fd81611fb2565b840191505092915050565b6000602082019050818103600083015261222281846121cf565b905092915050565b6000806040838503121561224157612240611d6f565b5b600061224f85828601612105565b925050602061226085828601611d9d565b9150509250929050565b61227381611e0b565b811461227e57600080fd5b50565b6000813590506122908161226a565b92915050565b600080604083850312156122ad576122ac611d6f565b5b60006122bb85828601611d9d565b92505060206122cc85828601612281565b9150509250929050565b6000602082840312156122ec576122eb611d6f565b5b60006122fa84828501612105565b91505092915050565b600067ffffffffffffffff82169050919050565b61232081612303565b811461232b57600080fd5b50565b60008135905061233d81612317565b92915050565b6000806040838503121561235a57612359611d6f565b5b60006123688582860161232e565b92505060206123798582860161232e565b9150509250929050565b600081519050919050565b600082825260208201905092915050565b6000819050602082019050919050565b6123b881611f13565b82525050565b60006123ca83836123af565b60208301905092915050565b6000602082019050919050565b60006123ee82612383565b6123f8818561238e565b93506124038361239f565b8060005b8381101561243457815161241b88826123be565b9750612426836123d6565b925050600181019050612407565b5085935050505092915050565b6000602082019050818103600083015261245b81846123e3565b905092915050565b60006020828403121561247957612478611d6f565b5b600061248784828501612281565b91505092915050565b7f4e487b7100000000000000000000000000000000000000000000000000000000600052603260045260246000fd5b7f4e487b7100000000000000000000000000000000000000000000000000000000600052601160045260246000fd5b60006124f982611d79565b915060ff820361250c5761250b6124bf565b5b600182019050919050565b7f4e487b7100000000000000000000000000000000000000000000000000000000600052602260045260246000fd5b6000600282049050600182168061255e57607f821691505b60208210810361257157612570612517565b5b50919050565b60008190508160005260206000209050919050565b60006020601f8301049050919050565b600082821b905092915050565b6000600883026125d97fffffffffffffffffffffffffffffffffffffffffffffffffffffffffffffffff8261259c565b6125e3868361259c565b95508019841693508086168417925050509392505050565b6000819050919050565b600061262061261b61261684611e0b565b6125fb565b611e0b565b9050919050565b6000819050919050565b61263a83612605565b61264e61264682612627565b8484546125a9565b825550505050565b600090565b612663612656565b61266e818484612631565b505050565b5b818110156126925761268760008261265b565b600181019050612674565b5050565b601f8211156126d7576126a881612577565b6126b18461258c565b810160208510156126c0578190505b6126d46126cc8561258c565b830182612673565b50505b505050565b600082821c905092915050565b60006126fa600019846008026126dc565b1980831691505092915050565b600061271383836126e9565b9150826002028217905092915050565b61272c82612189565b67ffffffffffffffff81111561274557612744611fc3565b5b61274f8254612546565b61275a828285612696565b600060209050601f83116001811461278d576000841561277b578287015190505b6127858582612707565b8655506127ed565b601f19841661279b86612577565b60005b828110156127c35784890151825560018201915060208501945060208101905061279e565b868310156127e057848901516127dc601f8916826126e9565b8355505b6001600288020188555050505b505050505050565b600061280082612303565b915067ffffffffffffffff820361281a576128196124bf565b5b600182019050919050565b7f4f776e61626c653a206e6577206f776e657220697320746865207a65726f206160008201527f6464726573730000000000000000000000000000000000000000000000000000602082015250565b6000612881602683612194565b915061288c82612825565b604082019050919050565b600060208201905081810360008301526128b081612874565b9050919050565b7f4f776e61626c653a2063616c6c6572206973206e6f7420746865206f776e6572600082015250565b60006128ed602083612194565b91506128f8826128b7565b602082019050919050565b6000602082019050818103600083015261291c816128e0565b9050919050565b7f5061757361626c653a2070617573656400000000000000000000000000000000600082015250565b6000612959601083612194565b915061296482612923565b602082019050919050565b600060208201905081810360008301526129888161294c565b9050919050565b7f416d6f756e742063616e6e6f7420626520300000000000000000000000000000600082015250565b60006129c5601283612194565b91506129d08261298f565b602082019050919050565b600060208201905081810360008301526129f4816129b8565b9050919050565b7f416c6c2066756e647320696e20506f6f6c206172652063757272656e746c792060008201527f6261636b696e6720616c6c20494e52432c20756e7374616b652077696c6c206260208201527f6520617661696c61626c652073686f72746c7900000000000000000000000000604082015250565b6000612a7d605383612194565b9150612a88826129fb565b606082019050919050565b60006020820190508181036000830152612aac81612a70565b9050919050565b7f65706f6368206e6f74206f766572000000000000000000000000000000000000600082015250565b6000612ae9600e83612194565b9150612af482612ab3565b602082019050919050565b60006020820190508181036000830152612b1881612adc565b9050919050565b7f756e7374616b6520383025206669727374000000000000000000000000000000600082015250565b6000612b55601183612194565b9150612b6082612b1f565b602082019050919050565b60006020820190508181036000830152612b8481612b48565b9050919050565b6000612b9682611e0b565b9150612ba183611e0b565b9250828203905081811115612bb957612bb86124bf565b5b92915050565b6000604082019050612bd46000830185611f25565b612be16020830184611ec9565b9392505050565b600081519050612bf781611f4f565b92915050565b600060208284031215612c1357612c12611d6f565b5b6000612c2184828501612be8565b91505092915050565b60008154612c3781612546565b612c418186612194565b94506001821660008114612c5c5760018114612c7257612ca5565b60ff198316865281151560200286019350612ca5565b612c7b85612577565b60005b83811015612c9d57815481890152600182019150602081019050612c7e565b808801955050505b50505092915050565b600060a0820190508181036000830152612cc88188612c2a565b9050612cd76020830187611f25565b612ce46040830186611ec9565b612cf16060830185611ec9565b612cfe6080830184611ec9565b9695505050505050565b6000612d1382611e0b565b9150612d1e83611e0b565b9250828202612d2c81611e0b565b91508282048414831517612d4357612d426124bf565b5b5092915050565b7f4e487b7100000000000000000000000000000000000000000000000000000000600052601260045260246000fd5b6000612d8482611e0b565b9150612d8f83611e0b565b925082612d9f57612d9e612d4a565b5b828204905092915050565b7f547265617375727920506f6f6c3a20416d6f756e74206973205a65726f206f7260008201527f2047726561746572207468616e205374616b6500000000000000000000000000602082015250565b6000612e06603383612194565b9150612e1182612daa565b604082019050919050565b60006020820190508181036000830152612e3581612df9565b9050919050565b7f756e7374616b652066756c6c206c617465722000000000000000000000000000600082015250565b6000612e72601383612194565b9150612e7d82612e3c565b602082019050919050565b60006020820190508181036000830152612ea181612e65565b9050919050565b7f547265617375727920506f6f6c3a20416d6f756e742063616e6e6f742062652060008201527f5a65726f00000000000000000000000000000000000000000000000000000000602082015250565b6000612f04602483612194565b9150612f0f82612ea8565b604082019050919050565b60006020820190508181036000830152612f3381612ef7565b9050919050565b6000612f4582611e0b565b9150612f5083611e0b565b9250828201905080821115612f6857612f676124bf565b5b92915050565b6000606082019050612f836000830186611f25565b612f906020830185611f25565b612f9d6040830184611ec9565b949350505050565b7f5061757361626c653a206e6f7420706175736564000000000000000000000000600082015250565b6000612fdb601483612194565b9150612fe682612fa5565b602082019050919050565b6000602082019050818103600083015261300a81612fce565b905091905056fea2646970667358221220301958a0e9046a396aa12e71d64ed6fd20a934e3dc932670afc3924ec7a9042564736f6c63430008110033",
  "linkReferences": {},
  "deployedLinkReferences": {}
}